{
  "_format": "hh-sol-artifact-1",
  "contractName": "MockPreviousSoulboundNFT",
  "sourceName": "contracts/mocks/MockPreviousSoulboundNFT.sol",
  "abi": [
    {
      "inputs": [],
      "stateMutability": "nonpayable",
      "type": "constructor"
    },
    {
      "inputs": [
        {
          "internalType": "uint256",
          "name": "_tokenId",
          "type": "uint256"
        }
      ],
      "name": "burn",
      "outputs": [],
      "stateMutability": "nonpayable",
      "type": "function"
    },
    {
      "inputs": [
        {
          "internalType": "bytes32",
          "name": "role",
          "type": "bytes32"
        }
      ],
      "name": "getRoleAdmin",
      "outputs": [
        {
          "internalType": "bytes32",
          "name": "",
          "type": "bytes32"
        }
      ],
      "stateMutability": "view",
      "type": "function"
    },
    {
      "inputs": [
        {
          "internalType": "uint256",
          "name": "_tokenId",
          "type": "uint256"
        }
      ],
      "name": "getTokenDetails",
      "outputs": [
        {
          "internalType": "address",
          "name": "",
          "type": "address"
        },
        {
          "internalType": "string",
          "name": "",
          "type": "string"
        },
        {
          "internalType": "uint256",
          "name": "",
          "type": "uint256"
        },
        {
          "internalType": "bool",
          "name": "",
          "type": "bool"
        }
      ],
      "stateMutability": "view",
      "type": "function"
    },
    {
      "inputs": [
        {
          "internalType": "address",
          "name": "_owner",
          "type": "address"
        }
      ],
      "name": "getTokensByOwner",
      "outputs": [
        {
          "internalType": "uint256[]",
          "name": "",
          "type": "uint256[]"
        }
      ],
      "stateMutability": "view",
      "type": "function"
    },
    {
      "inputs": [
        {
          "internalType": "bytes32",
          "name": "role",
          "type": "bytes32"
        },
        {
          "internalType": "address",
          "name": "account",
          "type": "address"
        }
      ],
      "name": "grantRole",
      "outputs": [],
      "stateMutability": "nonpayable",
      "type": "function"
    },
    {
      "inputs": [
        {
          "internalType": "bytes32",
          "name": "role",
          "type": "bytes32"
        },
        {
          "internalType": "address",
          "name": "account",
          "type": "address"
        }
      ],
      "name": "hasRole",
      "outputs": [
        {
          "internalType": "bool",
          "name": "",
          "type": "bool"
        }
      ],
      "stateMutability": "view",
      "type": "function"
    },
    {
      "inputs": [
        {
          "internalType": "address",
          "name": "_owner",
          "type": "address"
        }
      ],
      "name": "hasValidToken",
      "outputs": [
        {
          "internalType": "bool",
          "name": "",
          "type": "bool"
        }
      ],
      "stateMutability": "view",
      "type": "function"
    },
    {
      "inputs": [
        {
          "internalType": "address",
          "name": "_account",
          "type": "address"
        }
      ],
      "name": "isMinter",
      "outputs": [
        {
          "internalType": "bool",
          "name": "",
          "type": "bool"
        }
      ],
      "stateMutability": "view",
      "type": "function"
    },
    {
      "inputs": [
        {
          "internalType": "uint256",
          "name": "_tokenId",
          "type": "uint256"
        }
      ],
      "name": "isTokenValid",
      "outputs": [
        {
          "internalType": "bool",
          "name": "",
          "type": "bool"
        }
      ],
      "stateMutability": "view",
      "type": "function"
    },
    {
      "inputs": [
        {
          "internalType": "address",
          "name": "_to",
          "type": "address"
        },
        {
          "internalType": "string",
          "name": "_identifier",
          "type": "string"
        }
      ],
      "name": "mint",
      "outputs": [
        {
          "internalType": "uint256",
          "name": "",
          "type": "uint256"
        }
      ],
      "stateMutability": "nonpayable",
      "type": "function"
    },
    {
      "inputs": [],
      "name": "owner",
      "outputs": [
        {
          "internalType": "address",
          "name": "",
          "type": "address"
        }
      ],
      "stateMutability": "view",
      "type": "function"
    },
    {
      "inputs": [
        {
          "internalType": "bytes32",
          "name": "role",
          "type": "bytes32"
        },
        {
          "internalType": "address",
          "name": "callerConfirmation",
          "type": "address"
        }
      ],
      "name": "renounceRole",
      "outputs": [],
      "stateMutability": "nonpayable",
      "type": "function"
    },
    {
      "inputs": [
        {
          "internalType": "uint256",
          "name": "_tokenId",
          "type": "uint256"
        }
      ],
      "name": "revoke",
      "outputs": [],
      "stateMutability": "nonpayable",
      "type": "function"
    },
    {
      "inputs": [
        {
          "internalType": "bytes32",
          "name": "role",
          "type": "bytes32"
        },
        {
          "internalType": "address",
          "name": "account",
          "type": "address"
        }
      ],
      "name": "revokeRole",
      "outputs": [],
      "stateMutability": "nonpayable",
      "type": "function"
    },
    {
      "inputs": [
        {
          "internalType": "bytes4",
          "name": "interfaceId",
          "type": "bytes4"
        }
      ],
      "name": "supportsInterface",
      "outputs": [
        {
          "internalType": "bool",
          "name": "",
          "type": "bool"
        }
      ],
      "stateMutability": "view",
      "type": "function"
    }
  ],
  "bytecode": "0x608060405234801561001057600080fd5b50600080546001600160a01b03191633178155600355610d21806100356000396000f3fe608060405234801561001057600080fd5b50600436106100f55760003560e01c80638da5cb5b11610097578063c1e0372811610066578063c1e0372814610225578063c92243d814610248578063d0def5211461025b578063d547741f1461015957600080fd5b80638da5cb5b146101b257806391d14854146101dd5780639d267630146101f0578063aa271e1a1461020357600080fd5b80632f2ff15d116100d35780632f2ff15d1461015957806336568abe1461016c57806340398d671461017f57806342966c681461019f57600080fd5b806301ffc9a7146100fa57806320c5429b14610122578063248a9ca314610137575b600080fd5b61010d610108366004610903565b61026e565b60405190151581526020015b60405180910390f35b610135610130366004610934565b6102a5565b005b61014b610145366004610934565b50600090565b604051908152602001610119565b610135610167366004610969565b6102f9565b61013561017a366004610969565b610330565b61019261018d366004610995565b610388565b60405161011991906109b0565b6101356101ad366004610934565b6103f4565b6000546101c5906001600160a01b031681565b6040516001600160a01b039091168152602001610119565b61010d6101eb366004610969565b6104f7565b61010d6101fe366004610995565b61055e565b61010d610211366004610995565b6000546001600160a01b0391821691161490565b610238610233366004610934565b610625565b60405161011994939291906109f4565b61010d610256366004610934565b61075d565b61014b610269366004610a79565b61079e565b60006301ffc9a760e01b6001600160e01b03198316148061029f5750631111111160e01b6001600160e01b03198316145b92915050565b604051630852cd8d60e31b81526004810182905230906342966c6890602401600060405180830381600087803b1580156102de57600080fd5b505af11580156102f2573d6000803e3d6000fd5b5050505050565b6000546001600160a01b0316331461032c5760405162461bcd60e51b815260040161032390610b3b565b60405180910390fd5b5050565b336001600160a01b0382161461032c5760405162461bcd60e51b815260206004820152601a60248201527f43616c6c657220636f6e6669726d6174696f6e206661696c65640000000000006044820152606401610323565b6001600160a01b0381166000908152600260209081526040918290208054835181840281018401909452808452606093928301828280156103e857602002820191906000526020600020905b8154815260200190600101908083116103d4575b50505050509050919050565b6000546001600160a01b0316331461041e5760405162461bcd60e51b815260040161032390610b3b565b600081815260016020819052604090912001546001600160a01b031661047d5760405162461bcd60e51b8152602060048201526014602482015273151bdad95b88191bd95cc81b9bdd08195e1a5cdd60621b6044820152606401610323565b60008181526001602052604090206004015460ff16156104d65760405162461bcd60e51b8152602060048201526014602482015273151bdad95b88185b1c9958591e48189d5c9b995960621b6044820152606401610323565b6000908152600160208190526040909120600401805460ff19169091179055565b600082810361051757506000546001600160a01b0382811691161461029f565b827f9f2df0fed2c77648de5860a4cc508cd0818c85b8b8a1ab4ceeef8d981c8956a60361055557506000546001600160a01b0382811691161461029f565b50600092915050565b6001600160a01b0381166000908152600260209081526040808320805482518185028101850190935280835284938301828280156105bb57602002820191906000526020600020905b8154815260200190600101908083116105a7575b5050505050905060005b815181101561061b57600160008383815181106105e4576105e4610b63565b60209081029190910181015182528101919091526040016000206004015460ff16610613575060019392505050565b6001016105c5565b5060009392505050565b600081815260016020819052604082200154606090829081906001600160a01b031661068a5760405162461bcd60e51b8152602060048201526014602482015273151bdad95b88191bd95cc81b9bdd08195e1a5cdd60621b6044820152606401610323565b600085815260016020819052604090912090810154600382015460048301546002840180546001600160a01b039094169390929160ff169083906106cd90610b79565b80601f01602080910402602001604051908101604052809291908181526020018280546106f990610b79565b80156107465780601f1061071b57610100808354040283529160200191610746565b820191906000526020600020905b81548152906001019060200180831161072957829003601f168201915b505050505092509450945094509450509193509193565b6000818152600160208190526040822001546001600160a01b031661078457506000919050565b5060009081526001602052604090206004015460ff161590565b600080546001600160a01b031633146107c95760405162461bcd60e51b815260040161032390610b3b565b6001600160a01b03831661081f5760405162461bcd60e51b815260206004820152601860248201527f5a65726f2061646472657373206e6f7420616c6c6f77656400000000000000006044820152606401610323565b6003805490600061082f83610bb3565b90915550506003546040805160a0810182528281526001600160a01b0386811660208084019182528385018881524260608601526000608086018190528781526001928390529590952084518155915190820180546001600160a01b0319169190931617909155915190919060028201906108aa9082610c2b565b50606082015160038201556080909101516004909101805460ff19169115159190911790556001600160a01b03939093166000908152600260209081526040822080546001810182559083529120018390555090919050565b60006020828403121561091557600080fd5b81356001600160e01b03198116811461092d57600080fd5b9392505050565b60006020828403121561094657600080fd5b5035919050565b80356001600160a01b038116811461096457600080fd5b919050565b6000806040838503121561097c57600080fd5b8235915061098c6020840161094d565b90509250929050565b6000602082840312156109a757600080fd5b61092d8261094d565b6020808252825182820181905260009190848201906040850190845b818110156109e8578351835292840192918401916001016109cc565b50909695505050505050565b60018060a01b03851681526000602060806020840152855180608085015260005b81811015610a315787810183015185820160a001528201610a15565b50600060a0828601015260a0601f19601f83011685010192505050836040830152821515606083015295945050505050565b634e487b7160e01b600052604160045260246000fd5b60008060408385031215610a8c57600080fd5b610a958361094d565b9150602083013567ffffffffffffffff80821115610ab257600080fd5b818501915085601f830112610ac657600080fd5b813581811115610ad857610ad8610a63565b604051601f8201601f19908116603f01168101908382118183101715610b0057610b00610a63565b81604052828152886020848701011115610b1957600080fd5b8260208601602083013760006020848301015280955050505050509250929050565b6020808252600e908201526d139bdd08185d5d1a1bdc9a5e995960921b604082015260600190565b634e487b7160e01b600052603260045260246000fd5b600181811c90821680610b8d57607f821691505b602082108103610bad57634e487b7160e01b600052602260045260246000fd5b50919050565b600060018201610bd357634e487b7160e01b600052601160045260246000fd5b5060010190565b601f821115610c26576000816000526020600020601f850160051c81016020861015610c035750805b601f850160051c820191505b81811015610c2257828155600101610c0f565b5050505b505050565b815167ffffffffffffffff811115610c4557610c45610a63565b610c5981610c538454610b79565b84610bda565b602080601f831160018114610c8e5760008415610c765750858301515b600019600386901b1c1916600185901b178555610c22565b600085815260208120601f198616915b82811015610cbd57888601518255948401946001909101908401610c9e565b5085821015610cdb5787850151600019600388901b60f8161c191681555b5050505050600190811b0190555056fea2646970667358221220e25b1f0215341dad04234c4352f8cd88aff51ce654cbb99870bb95c574dc808764736f6c63430008180033",
  "linkReferences": {},
  "deployedLinkReferences": {}
}