{
  "_format": "hh-sol-artifact-1",
  "contractName": "MockReentrancyAttacker",
  "sourceName": "contracts/mocks/MockReentrancyAttacker.sol",
  "abi": [
    {
      "inputs": [],
      "stateMutability": "nonpayable",
      "type": "constructor"
    },
    {
      "inputs": [],
      "name": "AccessControlBadConfirmation",
      "type": "error"
    },
    {
      "inputs": [
        {
          "internalType": "address",
          "name": "account",
          "type": "address"
        },
        {
          "internalType": "bytes32",
          "name": "neededRole",
          "type": "bytes32"
        }
      ],
      "name": "AccessControlUnauthorizedAccount",
      "type": "error"
    },
    {
      "anonymous": false,
      "inputs": [
        {
          "indexed": false,
          "internalType": "address",
          "name": "target",
          "type": "address"
        },
        {
          "indexed": false,
          "internalType": "uint256",
          "name": "count",
          "type": "uint256"
        }
      ],
      "name": "AttackAttempted",
      "type": "event"
    },
    {
      "anonymous": false,
      "inputs": [
        {
          "indexed": false,
          "internalType": "address",
          "name": "sender",
          "type": "address"
        },
        {
          "indexed": false,
          "internalType": "uint256",
          "name": "amount",
          "type": "uint256"
        }
      ],
      "name": "EtherReceived",
      "type": "event"
    },
    {
      "anonymous": false,
      "inputs": [
        {
          "indexed": true,
          "internalType": "string",
          "name": "functionName",
          "type": "string"
        },
        {
          "indexed": true,
          "internalType": "address",
          "name": "caller",
          "type": "address"
        },
        {
          "indexed": false,
          "internalType": "bytes",
          "name": "data",
          "type": "bytes"
        }
      ],
      "name": "MockFunctionCalled",
      "type": "event"
    },
    {
      "anonymous": false,
      "inputs": [
        {
          "indexed": true,
          "internalType": "address",
          "name": "caller",
          "type": "address"
        }
      ],
      "name": "MockInitialized",
      "type": "event"
    },
    {
      "anonymous": false,
      "inputs": [],
      "name": "MockStateReset",
      "type": "event"
    },
    {
      "anonymous": false,
      "inputs": [
        {
          "indexed": true,
          "internalType": "bytes32",
          "name": "role",
          "type": "bytes32"
        },
        {
          "indexed": true,
          "internalType": "bytes32",
          "name": "previousAdminRole",
          "type": "bytes32"
        },
        {
          "indexed": true,
          "internalType": "bytes32",
          "name": "newAdminRole",
          "type": "bytes32"
        }
      ],
      "name": "RoleAdminChanged",
      "type": "event"
    },
    {
      "anonymous": false,
      "inputs": [
        {
          "indexed": true,
          "internalType": "bytes32",
          "name": "role",
          "type": "bytes32"
        },
        {
          "indexed": true,
          "internalType": "address",
          "name": "account",
          "type": "address"
        },
        {
          "indexed": true,
          "internalType": "address",
          "name": "sender",
          "type": "address"
        }
      ],
      "name": "RoleGranted",
      "type": "event"
    },
    {
      "anonymous": false,
      "inputs": [
        {
          "indexed": true,
          "internalType": "bytes32",
          "name": "role",
          "type": "bytes32"
        },
        {
          "indexed": true,
          "internalType": "address",
          "name": "account",
          "type": "address"
        },
        {
          "indexed": true,
          "internalType": "address",
          "name": "sender",
          "type": "address"
        }
      ],
      "name": "RoleRevoked",
      "type": "event"
    },
    {
      "inputs": [],
      "name": "DEFAULT_ADMIN_ROLE",
      "outputs": [
        {
          "internalType": "bytes32",
          "name": "",
          "type": "bytes32"
        }
      ],
      "stateMutability": "view",
      "type": "function"
    },
    {
      "inputs": [],
      "name": "attackCount",
      "outputs": [
        {
          "internalType": "uint256",
          "name": "",
          "type": "uint256"
        }
      ],
      "stateMutability": "view",
      "type": "function"
    },
    {
      "inputs": [],
      "name": "attackData",
      "outputs": [
        {
          "internalType": "bytes",
          "name": "",
          "type": "bytes"
        }
      ],
      "stateMutability": "view",
      "type": "function"
    },
    {
      "inputs": [
        {
          "internalType": "address",
          "name": "_target",
          "type": "address"
        },
        {
          "internalType": "string",
          "name": "_functionSignature",
          "type": "string"
        }
      ],
      "name": "attemptReentrancy",
      "outputs": [],
      "stateMutability": "nonpayable",
      "type": "function"
    },
    {
      "inputs": [],
      "name": "callCount",
      "outputs": [
        {
          "internalType": "uint256",
          "name": "",
          "type": "uint256"
        }
      ],
      "stateMutability": "view",
      "type": "function"
    },
    {
      "inputs": [
        {
          "internalType": "address",
          "name": "_target",
          "type": "address"
        },
        {
          "internalType": "bytes",
          "name": "callData",
          "type": "bytes"
        }
      ],
      "name": "directCall",
      "outputs": [],
      "stateMutability": "nonpayable",
      "type": "function"
    },
    {
      "inputs": [],
      "name": "executeAttack",
      "outputs": [],
      "stateMutability": "nonpayable",
      "type": "function"
    },
    {
      "inputs": [
        {
          "internalType": "string",
          "name": "",
          "type": "string"
        }
      ],
      "name": "functionCallCount",
      "outputs": [
        {
          "internalType": "uint256",
          "name": "",
          "type": "uint256"
        }
      ],
      "stateMutability": "view",
      "type": "function"
    },
    {
      "inputs": [
        {
          "internalType": "string",
          "name": "functionName",
          "type": "string"
        }
      ],
      "name": "getFunctionCallCount",
      "outputs": [
        {
          "internalType": "uint256",
          "name": "",
          "type": "uint256"
        }
      ],
      "stateMutability": "view",
      "type": "function"
    },
    {
      "inputs": [
        {
          "internalType": "string",
          "name": "functionName",
          "type": "string"
        }
      ],
      "name": "getFunctionCallHistory",
      "outputs": [
        {
          "internalType": "uint256",
          "name": "count",
          "type": "uint256"
        },
        {
          "internalType": "address",
          "name": "lastCaller_",
          "type": "address"
        },
        {
          "internalType": "bytes",
          "name": "lastData",
          "type": "bytes"
        }
      ],
      "stateMutability": "view",
      "type": "function"
    },
    {
      "inputs": [
        {
          "internalType": "bytes32",
          "name": "role",
          "type": "bytes32"
        }
      ],
      "name": "getRoleAdmin",
      "outputs": [
        {
          "internalType": "bytes32",
          "name": "",
          "type": "bytes32"
        }
      ],
      "stateMutability": "view",
      "type": "function"
    },
    {
      "inputs": [
        {
          "internalType": "bytes32",
          "name": "role",
          "type": "bytes32"
        },
        {
          "internalType": "address",
          "name": "account",
          "type": "address"
        }
      ],
      "name": "grantRole",
      "outputs": [],
      "stateMutability": "nonpayable",
      "type": "function"
    },
    {
      "inputs": [
        {
          "internalType": "bytes32",
          "name": "role",
          "type": "bytes32"
        },
        {
          "internalType": "address",
          "name": "account",
          "type": "address"
        }
      ],
      "name": "hasRole",
      "outputs": [
        {
          "internalType": "bool",
          "name": "",
          "type": "bool"
        }
      ],
      "stateMutability": "view",
      "type": "function"
    },
    {
      "inputs": [],
      "name": "initialize",
      "outputs": [],
      "stateMutability": "nonpayable",
      "type": "function"
    },
    {
      "inputs": [],
      "name": "initialized",
      "outputs": [
        {
          "internalType": "bool",
          "name": "",
          "type": "bool"
        }
      ],
      "stateMutability": "view",
      "type": "function"
    },
    {
      "inputs": [],
      "name": "isReentrant",
      "outputs": [
        {
          "internalType": "bool",
          "name": "",
          "type": "bool"
        }
      ],
      "stateMutability": "view",
      "type": "function"
    },
    {
      "inputs": [
        {
          "internalType": "string",
          "name": "",
          "type": "string"
        }
      ],
      "name": "lastCallData",
      "outputs": [
        {
          "internalType": "bytes",
          "name": "",
          "type": "bytes"
        }
      ],
      "stateMutability": "view",
      "type": "function"
    },
    {
      "inputs": [],
      "name": "lastCaller",
      "outputs": [
        {
          "internalType": "address",
          "name": "",
          "type": "address"
        }
      ],
      "stateMutability": "view",
      "type": "function"
    },
    {
      "inputs": [
        {
          "internalType": "string",
          "name": "",
          "type": "string"
        }
      ],
      "name": "lastCallerByFunction",
      "outputs": [
        {
          "internalType": "address",
          "name": "",
          "type": "address"
        }
      ],
      "stateMutability": "view",
      "type": "function"
    },
    {
      "inputs": [],
      "name": "maxAttacks",
      "outputs": [
        {
          "internalType": "uint256",
          "name": "",
          "type": "uint256"
        }
      ],
      "stateMutability": "view",
      "type": "function"
    },
    {
      "inputs": [
        {
          "internalType": "address",
          "name": "sender",
          "type": "address"
        },
        {
          "internalType": "uint256",
          "name": "amount",
          "type": "uint256"
        }
      ],
      "name": "onTokenTransfer",
      "outputs": [],
      "stateMutability": "nonpayable",
      "type": "function"
    },
    {
      "inputs": [
        {
          "internalType": "bytes32",
          "name": "role",
          "type": "bytes32"
        },
        {
          "internalType": "address",
          "name": "callerConfirmation",
          "type": "address"
        }
      ],
      "name": "renounceRole",
      "outputs": [],
      "stateMutability": "nonpayable",
      "type": "function"
    },
    {
      "inputs": [],
      "name": "reset",
      "outputs": [],
      "stateMutability": "nonpayable",
      "type": "function"
    },
    {
      "inputs": [],
      "name": "resetAttackCount",
      "outputs": [],
      "stateMutability": "nonpayable",
      "type": "function"
    },
    {
      "inputs": [
        {
          "internalType": "bytes32",
          "name": "role",
          "type": "bytes32"
        },
        {
          "internalType": "address",
          "name": "account",
          "type": "address"
        }
      ],
      "name": "revokeRole",
      "outputs": [],
      "stateMutability": "nonpayable",
      "type": "function"
    },
    {
      "inputs": [
        {
          "internalType": "address",
          "name": "_target",
          "type": "address"
        },
        {
          "internalType": "bytes",
          "name": "_data",
          "type": "bytes"
        }
      ],
      "name": "setAttackData",
      "outputs": [],
      "stateMutability": "nonpayable",
      "type": "function"
    },
    {
      "inputs": [
        {
          "internalType": "uint256",
          "name": "_maxAttacks",
          "type": "uint256"
        }
      ],
      "name": "setMaxAttacks",
      "outputs": [],
      "stateMutability": "nonpayable",
      "type": "function"
    },
    {
      "inputs": [
        {
          "internalType": "bool",
          "name": "_isReentrant",
          "type": "bool"
        }
      ],
      "name": "setReentrant",
      "outputs": [],
      "stateMutability": "nonpayable",
      "type": "function"
    },
    {
      "inputs": [
        {
          "internalType": "bytes4",
          "name": "interfaceId",
          "type": "bytes4"
        }
      ],
      "name": "supportsInterface",
      "outputs": [
        {
          "internalType": "bool",
          "name": "",
          "type": "bool"
        }
      ],
      "stateMutability": "view",
      "type": "function"
    },
    {
      "inputs": [],
      "name": "targetContract",
      "outputs": [
        {
          "internalType": "address",
          "name": "",
          "type": "address"
        }
      ],
      "stateMutability": "view",
      "type": "function"
    },
    {
      "inputs": [
        {
          "internalType": "string",
          "name": "functionName",
          "type": "string"
        }
      ],
      "name": "wasFunctionCalled",
      "outputs": [
        {
          "internalType": "bool",
          "name": "",
          "type": "bool"
        }
      ],
      "stateMutability": "view",
      "type": "function"
    },
    {
      "inputs": [
        {
          "internalType": "address payable",
          "name": "to",
          "type": "address"
        },
        {
          "internalType": "uint256",
          "name": "amount",
          "type": "uint256"
        }
      ],
      "name": "withdrawETH",
      "outputs": [],
      "stateMutability": "nonpayable",
      "type": "function"
    },
    {
      "inputs": [
        {
          "internalType": "address",
          "name": "token",
          "type": "address"
        },
        {
          "internalType": "address",
          "name": "to",
          "type": "address"
        },
        {
          "internalType": "uint256",
          "name": "amount",
          "type": "uint256"
        }
      ],
      "name": "withdrawToken",
      "outputs": [],
      "stateMutability": "nonpayable",
      "type": "function"
    },
    {
      "stateMutability": "payable",
      "type": "receive"
    }
  ],
  "bytecode": "0x60806040526003600a5534801561001557600080fd5b50610021600033610036565b506008805460ff1916905560006009556100e2565b6000828152602081815260408083206001600160a01b038516845290915281205460ff166100d8576000838152602081815260408083206001600160a01b03861684529091529020805460ff191660011790556100903390565b6001600160a01b0316826001600160a01b0316847f2f8788117e7eff1d82e926ec794901d17c78024a50270940304540a733656f0d60405160405180910390a45060016100dc565b5060005b92915050565b611a0b806100f16000396000f3fe6080604052600436106101f25760003560e01c8063422b010b1161010d578063a217fddf116100a0578063c054c6ce1161006f578063c054c6ce146106c7578063c734f917146106e7578063d547741f14610707578063d826f88f14610727578063dfdbdd501461073c57600080fd5b8063a217fddf14610662578063a37573d614610677578063b01b29e61461068d578063bd90df70146106a757600080fd5b8063617a09d7116100dc578063617a09d7146105f85780637aef8474146106185780638129fc1c1461062d57806391d148541461064257600080fd5b8063422b010b1461056a5780634782f779146105a25780634b28f9a2146105c25780635bb0431d146105d857600080fd5b80632113522a1161018557806336568abe1161015457806336568abe146104f05780633ca3910c14610510578063407c28211461053f578063422490ee1461055557600080fd5b80632113522a1461045b5780632243861714610480578063248a9ca3146104a05780632f2ff15d146104d057600080fd5b8063158ef93e116101c1578063158ef93e146103985780631a82a643146103b25780631df86bc6146103e0578063203c82431461043957600080fd5b806301c3aa6c1461030357806301e336671461032357806301ffc9a7146103435780630fb773ed1461037857600080fd5b366102fe57604080513381523460208201527f1e57e3bb474320be3d2c77138f75b7c3941292d647f5f9634e33a8e94e0e069b910160405180910390a160085460ff1680156102445750600a54600954105b156102fc576009805490600061025983611429565b9091555050600654600954604080516001600160a01b03909316835260208301919091526000805160206119b6833981519152910160405180910390a16006546040516000916001600160a01b0316906102b59060079061148a565b6000604051808303816000865af19150503d80600081146102f2576040519150601f19603f3d011682016040523d82523d6000602084013e6102f7565b606091505b505050505b005b600080fd5b34801561030f57600080fd5b506102fc61031e3660046115a1565b61075c565b34801561032f57600080fd5b506102fc61033e366004611605565b6107d8565b34801561034f57600080fd5b5061036361035e366004611646565b6108ae565b60405190151581526020015b60405180910390f35b34801561038457600080fd5b506102fc610393366004611697565b6108e5565b3480156103a457600080fd5b506001546103639060ff1681565b3480156103be57600080fd5b506103d26103cd3660046116dd565b6109ea565b60405190815260200161036f565b3480156103ec57600080fd5b506104216103fb3660046116dd565b80516020818301810180516005825292820191909301209152546001600160a01b031681565b6040516001600160a01b03909116815260200161036f565b34801561044557600080fd5b5061044e610a12565b60405161036f919061176a565b34801561046757600080fd5b506001546104219061010090046001600160a01b031681565b34801561048c57600080fd5b506102fc61049b36600461178b565b610aa0565b3480156104ac57600080fd5b506103d26104bb3660046117a8565b60009081526020819052604090206001015490565b3480156104dc57600080fd5b506102fc6104eb3660046117c1565b610af0565b3480156104fc57600080fd5b506102fc61050b3660046117c1565b610b15565b34801561051c57600080fd5b5061053061052b3660046116dd565b610b48565b60405161036f939291906117f1565b34801561054b57600080fd5b506103d260095481565b34801561056157600080fd5b506102fc610c4b565b34801561057657600080fd5b506103d26105853660046116dd565b805160208183018101805160038252928201919093012091525481565b3480156105ae57600080fd5b506102fc6105bd366004611824565b610dcf565b3480156105ce57600080fd5b506103d260025481565b3480156105e457600080fd5b506102fc6105f33660046115a1565b610e53565b34801561060457600080fd5b506102fc6106133660046117a8565b610ef4565b34801561062457600080fd5b506102fc610f35565b34801561063957600080fd5b506102fc610f7b565b34801561064e57600080fd5b5061036361065d3660046117c1565b611007565b34801561066e57600080fd5b506103d2600081565b34801561068357600080fd5b506103d2600a5481565b34801561069957600080fd5b506008546103639060ff1681565b3480156106b357600080fd5b50600654610421906001600160a01b031681565b3480156106d357600080fd5b506103636106e23660046116dd565b611030565b3480156106f357600080fd5b506102fc610702366004611824565b61105a565b34801561071357600080fd5b506102fc6107223660046117c1565b611136565b34801561073357600080fd5b506102fc61115b565b34801561074857600080fd5b5061044e6107573660046116dd565b6111a7565b6107ac6040518060400160405280600d81526020016c73657441747461636b4461746160981b8152508383604051602001610798929190611850565b6040516020818303038152906040526111cb565b600680546001600160a01b0319166001600160a01b03841617905560076107d382826118bc565b505050565b6108356040518060400160405280600d81526020016c3bb4ba34323930bbaa37b5b2b760991b815250848484604051602001610798939291906001600160a01b039384168152919092166020820152604081019190915260600190565b60405163a9059cbb60e01b81526001600160a01b0383811660048301526024820183905284169063a9059cbb906044016020604051808303816000875af1158015610884573d6000803e3d6000fd5b505050506040513d601f19601f820116820180604052508101906108a8919061197c565b50505050565b60006001600160e01b03198216637965db0b60e01b14806108df57506301ffc9a760e01b6001600160e01b03198316145b92915050565b61092560405180604001604052806011815260200170617474656d70745265656e7472616e637960781b8152508383604051602001610798929190611850565b600680546001600160a01b0319166001600160a01b0384161790556008805460ff1916600117905560006009556003600a558051156109b6578051602082012060405160016024820152819060440160408051601f198184030181529190526020810180516001600160e01b03166001600160e01b0319909316929092179091526007906109b390826118bc565b50505b604080516001600160a01b0384168152600060208201526000805160206119b6833981519152910160405180910390a15050565b60006003826040516109fc9190611999565b9081526020016040518091039020549050919050565b60078054610a1f90611450565b80601f0160208091040260200160405190810160405280929190818152602001828054610a4b90611450565b8015610a985780601f10610a6d57610100808354040283529160200191610a98565b820191906000526020600020905b815481529060010190602001808311610a7b57829003601f168201915b505050505081565b610add6040518060400160405280600c81526020016b1cd95d1499595b9d1c985b9d60a21b81525082604051602001610798911515815260200190565b6008805460ff1916911515919091179055565b600082815260208190526040902060010154610b0b816112e9565b6108a883836112f3565b6001600160a01b0381163314610b3e5760405163334bd91960e11b815260040160405180910390fd5b6107d38282611385565b6000806060600384604051610b5d9190611999565b908152602001604051809103902054600585604051610b7c9190611999565b908152604051908190036020018120546001600160a01b031690600490610ba4908890611999565b9081526020016040518091039020808054610bbe90611450565b80601f0160208091040260200160405190810160405280929190818152602001828054610bea90611450565b8015610c375780601f10610c0c57610100808354040283529160200191610c37565b820191906000526020600020905b815481529060010190602001808311610c1a57829003601f168201915b505050505090509250925092509193909250565b604080518082018252600d81526c6578656375746541747461636b60981b602080830191909152825160008152908101909252610c87916111cb565b6006546001600160a01b0316610cd45760405162461bcd60e51b815260206004820152600d60248201526c139bc81d185c99d95d081cd95d609a1b60448201526064015b60405180910390fd5b600060078054610ce390611450565b905011610d275760405162461bcd60e51b8152602060048201526012602482015271139bc8185d1d1858dac819185d18481cd95d60721b6044820152606401610ccb565b600060098190556006546040516001600160a01b0390911690610d4c9060079061148a565b6000604051808303816000865af19150503d8060008114610d89576040519150601f19603f3d011682016040523d82523d6000602084013e610d8e565b606091505b5050905080610dcc57600654604080516001600160a01b039092168252600060208301526000805160206119b6833981519152910160405180910390a15b50565b610e1d6040518060400160405280600b81526020016a0eed2e8d0c8e4c2ee8aa8960ab1b81525083836040516020016107989291906001600160a01b03929092168252602082015260400190565b6040516001600160a01b0383169082156108fc029083906000818181858888f193505050501580156107d3573d6000803e3d6000fd5b610e8c6040518060400160405280600a815260200169191a5c9958dd10d85b1b60b21b8152508383604051602001610798929190611850565b6006546040516000916001600160a01b031690610eaa908490611999565b6000604051808303816000865af19150503d8060008114610ee7576040519150601f19603f3d011682016040523d82523d6000602084013e610eec565b606091505b505050505050565b610f306040518060400160405280600d81526020016c7365744d617841747461636b7360981b8152508260405160200161079891815260200190565b600a55565b604080518082018252601081526f1c995cd95d105d1d1858dad0dbdd5b9d60821b602080830191909152825160008152908101909252610f74916111cb565b6000600955565b60015460ff1615610fce5760405162461bcd60e51b815260206004820152601d60248201527f426173654d6f636b3a20616c726561647920696e697469616c697a65640000006044820152606401610ccb565b6001805460ff19168117905560405133907f30f7074e868351008998491171b433e7342f255e986fef03e5eec84f01786f0190600090a2565b6000918252602082815260408084206001600160a01b0393909316845291905290205460ff1690565b6000806003836040516110439190611999565b908152602001604051809103902054119050919050565b6110ac6040518060400160405280600f81526020016e37b72a37b5b2b72a3930b739b332b960891b81525083836040516020016107989291906001600160a01b03929092168252602082015260400190565b60085460ff1680156110c15750600a54600954105b1561113257600980549060006110d683611429565b9091555050600654600954604080516001600160a01b03909316835260208301919091526000805160206119b6833981519152910160405180910390a16006546040516000916001600160a01b031690610eaa9060079061148a565b5050565b600082815260208190526040902060010154611151816112e9565b6108a88383611385565b6000611166816112e9565b600180546001600160a81b0319169055600060028190556040517f47f78a7a0acc7fff3657157dc253c5e6a68550995cc6f47bc2bd707ec67370fb9190a150565b805160208183018101805160048252928201919093012091528054610a1f90611450565b6003826040516111db9190611999565b90815260405190819003602001902080549060006111f883611429565b91905055508060048360405161120e9190611999565b9081526020016040518091039020908161122891906118bc565b503360058360405161123a9190611999565b90815260405160209181900391909101902080546001600160a01b0319166001600160a01b039290921691909117905560018054610100600160a81b03191661010033021790556002805490600061129183611429565b909155505060405133906112a6908490611999565b60405180910390207f16b892c3de2f4b54dc114eff5c76ead156bac210353ee82615752957e1317df1836040516112dd919061176a565b60405180910390a35050565b610dcc81336113f0565b60006112ff8383611007565b61137d576000838152602081815260408083206001600160a01b03861684529091529020805460ff191660011790556113353390565b6001600160a01b0316826001600160a01b0316847f2f8788117e7eff1d82e926ec794901d17c78024a50270940304540a733656f0d60405160405180910390a45060016108df565b5060006108df565b60006113918383611007565b1561137d576000838152602081815260408083206001600160a01b0386168085529252808320805460ff1916905551339286917ff6391f5c32d9c69d2a47ea670b442974b53935d1edc7fd64eb21e047a839171b9190a45060016108df565b6113fa8282611007565b6111325760405163e2517d3f60e01b81526001600160a01b038216600482015260248101839052604401610ccb565b60006001820161144957634e487b7160e01b600052601160045260246000fd5b5060010190565b600181811c9082168061146457607f821691505b60208210810361148457634e487b7160e01b600052602260045260246000fd5b50919050565b600080835461149881611450565b600182811680156114b057600181146114c5576114f4565b60ff19841687528215158302870194506114f4565b8760005260208060002060005b858110156114eb5781548a8201529084019082016114d2565b50505082870194505b50929695505050505050565b6001600160a01b0381168114610dcc57600080fd5b634e487b7160e01b600052604160045260246000fd5b600067ffffffffffffffff8084111561154657611546611515565b604051601f8501601f19908116603f0116810190828211818310171561156e5761156e611515565b8160405280935085815286868601111561158757600080fd5b858560208301376000602087830101525050509392505050565b600080604083850312156115b457600080fd5b82356115bf81611500565b9150602083013567ffffffffffffffff8111156115db57600080fd5b8301601f810185136115ec57600080fd5b6115fb8582356020840161152b565b9150509250929050565b60008060006060848603121561161a57600080fd5b833561162581611500565b9250602084013561163581611500565b929592945050506040919091013590565b60006020828403121561165857600080fd5b81356001600160e01b03198116811461167057600080fd5b9392505050565b600082601f83011261168857600080fd5b6116708383356020850161152b565b600080604083850312156116aa57600080fd5b82356116b581611500565b9150602083013567ffffffffffffffff8111156116d157600080fd5b6115fb85828601611677565b6000602082840312156116ef57600080fd5b813567ffffffffffffffff81111561170657600080fd5b61171284828501611677565b949350505050565b60005b8381101561173557818101518382015260200161171d565b50506000910152565b6000815180845261175681602086016020860161171a565b601f01601f19169290920160200192915050565b602081526000611670602083018461173e565b8015158114610dcc57600080fd5b60006020828403121561179d57600080fd5b81356116708161177d565b6000602082840312156117ba57600080fd5b5035919050565b600080604083850312156117d457600080fd5b8235915060208301356117e681611500565b809150509250929050565b8381526001600160a01b038316602082015260606040820181905260009061181b9083018461173e565b95945050505050565b6000806040838503121561183757600080fd5b823561184281611500565b946020939093013593505050565b6001600160a01b03831681526040602082018190526000906117129083018461173e565b601f8211156107d3576000816000526020600020601f850160051c8101602086101561189d5750805b601f850160051c820191505b81811015610eec578281556001016118a9565b815167ffffffffffffffff8111156118d6576118d6611515565b6118ea816118e48454611450565b84611874565b602080601f83116001811461191f57600084156119075750858301515b600019600386901b1c1916600185901b178555610eec565b600085815260208120601f198616915b8281101561194e5788860151825594840194600190910190840161192f565b508582101561196c5787850151600019600388901b60f8161c191681555b5050505050600190811b01905550565b60006020828403121561198e57600080fd5b81516116708161177d565b600082516119ab81846020870161171a565b919091019291505056fea71392742f38f9b8d2f4f72940bd8622d16c8e05ff9e26759e463624b8a3420ba2646970667358221220f2917bb70772fc781d7d51ce9579091d915b745377e74f7127cc2fa5f2cd0c4e64736f6c63430008180033",
  "linkReferences": {},
  "deployedLinkReferences": {}
}