{
  "_format": "hh-sol-artifact-1",
  "contractName": "MockGovernanceRewards",
  "sourceName": "contracts/mocks/MockGovernanceRewards.sol",
  "abi": [
    {
      "inputs": [],
      "stateMutability": "nonpayable",
      "type": "constructor"
    },
    {
      "inputs": [],
      "name": "AccessControlBadConfirmation",
      "type": "error"
    },
    {
      "inputs": [
        {
          "internalType": "address",
          "name": "account",
          "type": "address"
        },
        {
          "internalType": "bytes32",
          "name": "neededRole",
          "type": "bytes32"
        }
      ],
      "name": "AccessControlUnauthorizedAccount",
      "type": "error"
    },
    {
      "inputs": [],
      "name": "AmountExceedsCap",
      "type": "error"
    },
    {
      "inputs": [],
      "name": "CooldownPeriodNotMet",
      "type": "error"
    },
    {
      "inputs": [],
      "name": "InvalidAmount",
      "type": "error"
    },
    {
      "inputs": [],
      "name": "InvalidEpochId",
      "type": "error"
    },
    {
      "inputs": [],
      "name": "InvalidParticipation",
      "type": "error"
    },
    {
      "inputs": [],
      "name": "InvalidQuality",
      "type": "error"
    },
    {
      "inputs": [],
      "name": "OperationFailed",
      "type": "error"
    },
    {
      "inputs": [],
      "name": "ZeroAddress",
      "type": "error"
    },
    {
      "anonymous": false,
      "inputs": [
        {
          "indexed": false,
          "internalType": "uint256",
          "name": "epochId",
          "type": "uint256"
        },
        {
          "indexed": false,
          "internalType": "uint256",
          "name": "totalAmount",
          "type": "uint256"
        },
        {
          "indexed": false,
          "internalType": "uint256",
          "name": "participantCount",
          "type": "uint256"
        }
      ],
      "name": "EpochRewarded",
      "type": "event"
    },
    {
      "anonymous": false,
      "inputs": [
        {
          "indexed": true,
          "internalType": "string",
          "name": "functionName",
          "type": "string"
        },
        {
          "indexed": true,
          "internalType": "address",
          "name": "caller",
          "type": "address"
        },
        {
          "indexed": false,
          "internalType": "bytes",
          "name": "data",
          "type": "bytes"
        }
      ],
      "name": "MockFunctionCalled",
      "type": "event"
    },
    {
      "anonymous": false,
      "inputs": [
        {
          "indexed": true,
          "internalType": "address",
          "name": "caller",
          "type": "address"
        }
      ],
      "name": "MockInitialized",
      "type": "event"
    },
    {
      "anonymous": false,
      "inputs": [],
      "name": "MockStateReset",
      "type": "event"
    },
    {
      "anonymous": false,
      "inputs": [
        {
          "indexed": true,
          "internalType": "address",
          "name": "participant",
          "type": "address"
        },
        {
          "indexed": false,
          "internalType": "uint256",
          "name": "initialReputation",
          "type": "uint256"
        }
      ],
      "name": "ParticipantRegistered",
      "type": "event"
    },
    {
      "anonymous": false,
      "inputs": [
        {
          "indexed": true,
          "internalType": "address",
          "name": "participant",
          "type": "address"
        },
        {
          "indexed": false,
          "internalType": "uint256",
          "name": "oldReputation",
          "type": "uint256"
        },
        {
          "indexed": false,
          "internalType": "uint256",
          "name": "newReputation",
          "type": "uint256"
        }
      ],
      "name": "ReputationUpdated",
      "type": "event"
    },
    {
      "anonymous": false,
      "inputs": [
        {
          "indexed": false,
          "internalType": "uint256",
          "name": "baseReward",
          "type": "uint256"
        },
        {
          "indexed": false,
          "internalType": "uint256",
          "name": "votingParticipationBonus",
          "type": "uint256"
        },
        {
          "indexed": false,
          "internalType": "uint256",
          "name": "proposalQualityMultiplier",
          "type": "uint256"
        },
        {
          "indexed": false,
          "internalType": "uint256",
          "name": "aiNodeMultiplier",
          "type": "uint256"
        },
        {
          "indexed": false,
          "internalType": "uint256",
          "name": "rewardCap",
          "type": "uint256"
        }
      ],
      "name": "RewardConfigUpdated",
      "type": "event"
    },
    {
      "anonymous": false,
      "inputs": [
        {
          "indexed": true,
          "internalType": "address",
          "name": "recipient",
          "type": "address"
        },
        {
          "indexed": false,
          "internalType": "uint256",
          "name": "amount",
          "type": "uint256"
        },
        {
          "indexed": false,
          "internalType": "string",
          "name": "reason",
          "type": "string"
        }
      ],
      "name": "RewardDistributed",
      "type": "event"
    },
    {
      "anonymous": false,
      "inputs": [
        {
          "indexed": false,
          "internalType": "address[]",
          "name": "recipients",
          "type": "address[]"
        },
        {
          "indexed": false,
          "internalType": "uint256[]",
          "name": "amounts",
          "type": "uint256[]"
        }
      ],
      "name": "RewardsDistributed",
      "type": "event"
    },
    {
      "anonymous": false,
      "inputs": [
        {
          "indexed": true,
          "internalType": "bytes32",
          "name": "role",
          "type": "bytes32"
        },
        {
          "indexed": true,
          "internalType": "bytes32",
          "name": "previousAdminRole",
          "type": "bytes32"
        },
        {
          "indexed": true,
          "internalType": "bytes32",
          "name": "newAdminRole",
          "type": "bytes32"
        }
      ],
      "name": "RoleAdminChanged",
      "type": "event"
    },
    {
      "anonymous": false,
      "inputs": [
        {
          "indexed": true,
          "internalType": "bytes32",
          "name": "role",
          "type": "bytes32"
        },
        {
          "indexed": true,
          "internalType": "address",
          "name": "account",
          "type": "address"
        },
        {
          "indexed": true,
          "internalType": "address",
          "name": "sender",
          "type": "address"
        }
      ],
      "name": "RoleGranted",
      "type": "event"
    },
    {
      "anonymous": false,
      "inputs": [
        {
          "indexed": true,
          "internalType": "bytes32",
          "name": "role",
          "type": "bytes32"
        },
        {
          "indexed": true,
          "internalType": "address",
          "name": "account",
          "type": "address"
        },
        {
          "indexed": true,
          "internalType": "address",
          "name": "sender",
          "type": "address"
        }
      ],
      "name": "RoleRevoked",
      "type": "event"
    },
    {
      "inputs": [],
      "name": "ADMIN_ROLE",
      "outputs": [
        {
          "internalType": "bytes32",
          "name": "",
          "type": "bytes32"
        }
      ],
      "stateMutability": "view",
      "type": "function"
    },
    {
      "inputs": [],
      "name": "DEFAULT_ADMIN_ROLE",
      "outputs": [
        {
          "internalType": "bytes32",
          "name": "",
          "type": "bytes32"
        }
      ],
      "stateMutability": "view",
      "type": "function"
    },
    {
      "inputs": [],
      "name": "DISTRIBUTOR_ROLE",
      "outputs": [
        {
          "internalType": "bytes32",
          "name": "",
          "type": "bytes32"
        }
      ],
      "stateMutability": "view",
      "type": "function"
    },
    {
      "inputs": [
        {
          "internalType": "address",
          "name": "_participant",
          "type": "address"
        }
      ],
      "name": "calculateReward",
      "outputs": [
        {
          "internalType": "uint256",
          "name": "reward",
          "type": "uint256"
        }
      ],
      "stateMutability": "view",
      "type": "function"
    },
    {
      "inputs": [],
      "name": "callCount",
      "outputs": [
        {
          "internalType": "uint256",
          "name": "",
          "type": "uint256"
        }
      ],
      "stateMutability": "view",
      "type": "function"
    },
    {
      "inputs": [],
      "name": "claimRewards",
      "outputs": [
        {
          "internalType": "uint256",
          "name": "amount",
          "type": "uint256"
        }
      ],
      "stateMutability": "nonpayable",
      "type": "function"
    },
    {
      "inputs": [
        {
          "internalType": "uint256",
          "name": "_epochId",
          "type": "uint256"
        }
      ],
      "name": "distributeEpochRewards",
      "outputs": [
        {
          "internalType": "uint256",
          "name": "totalDistributed",
          "type": "uint256"
        }
      ],
      "stateMutability": "nonpayable",
      "type": "function"
    },
    {
      "inputs": [
        {
          "internalType": "address",
          "name": "_proposer",
          "type": "address"
        },
        {
          "internalType": "uint256",
          "name": "_proposalId",
          "type": "uint256"
        },
        {
          "internalType": "uint256",
          "name": "_quality",
          "type": "uint256"
        },
        {
          "internalType": "uint256",
          "name": "_voterParticipation",
          "type": "uint256"
        }
      ],
      "name": "distributeProposalReward",
      "outputs": [],
      "stateMutability": "nonpayable",
      "type": "function"
    },
    {
      "inputs": [
        {
          "internalType": "address",
          "name": "_recipient",
          "type": "address"
        },
        {
          "internalType": "uint256",
          "name": "_amount",
          "type": "uint256"
        },
        {
          "internalType": "string",
          "name": "_reason",
          "type": "string"
        }
      ],
      "name": "distributeReward",
      "outputs": [],
      "stateMutability": "nonpayable",
      "type": "function"
    },
    {
      "inputs": [
        {
          "internalType": "address[]",
          "name": "recipients",
          "type": "address[]"
        },
        {
          "internalType": "uint256[]",
          "name": "amounts",
          "type": "uint256[]"
        }
      ],
      "name": "distributeRewards",
      "outputs": [],
      "stateMutability": "nonpayable",
      "type": "function"
    },
    {
      "inputs": [
        {
          "internalType": "uint256",
          "name": "proposalId",
          "type": "uint256"
        },
        {
          "internalType": "address[]",
          "name": "recipients",
          "type": "address[]"
        },
        {
          "internalType": "uint256[]",
          "name": "amounts",
          "type": "uint256[]"
        },
        {
          "internalType": "string",
          "name": "description",
          "type": "string"
        }
      ],
      "name": "distributeRewards",
      "outputs": [],
      "stateMutability": "nonpayable",
      "type": "function"
    },
    {
      "inputs": [],
      "name": "epochId",
      "outputs": [
        {
          "internalType": "uint256",
          "name": "",
          "type": "uint256"
        }
      ],
      "stateMutability": "view",
      "type": "function"
    },
    {
      "inputs": [
        {
          "internalType": "string",
          "name": "",
          "type": "string"
        }
      ],
      "name": "functionCallCount",
      "outputs": [
        {
          "internalType": "uint256",
          "name": "",
          "type": "uint256"
        }
      ],
      "stateMutability": "view",
      "type": "function"
    },
    {
      "inputs": [
        {
          "internalType": "string",
          "name": "functionName",
          "type": "string"
        }
      ],
      "name": "getFunctionCallCount",
      "outputs": [
        {
          "internalType": "uint256",
          "name": "",
          "type": "uint256"
        }
      ],
      "stateMutability": "view",
      "type": "function"
    },
    {
      "inputs": [
        {
          "internalType": "string",
          "name": "functionName",
          "type": "string"
        }
      ],
      "name": "getFunctionCallHistory",
      "outputs": [
        {
          "internalType": "uint256",
          "name": "count",
          "type": "uint256"
        },
        {
          "internalType": "address",
          "name": "lastCaller_",
          "type": "address"
        },
        {
          "internalType": "bytes",
          "name": "lastData",
          "type": "bytes"
        }
      ],
      "stateMutability": "view",
      "type": "function"
    },
    {
      "inputs": [],
      "name": "getRewardConfig",
      "outputs": [
        {
          "components": [
            {
              "internalType": "uint256",
              "name": "baseReward",
              "type": "uint256"
            },
            {
              "internalType": "uint256",
              "name": "votingParticipationBonus",
              "type": "uint256"
            },
            {
              "internalType": "uint256",
              "name": "proposalQualityMultiplier",
              "type": "uint256"
            },
            {
              "internalType": "uint256",
              "name": "aiNodeMultiplier",
              "type": "uint256"
            },
            {
              "internalType": "uint256",
              "name": "rewardCap",
              "type": "uint256"
            }
          ],
          "internalType": "struct IGovernanceRewards.RewardConfig",
          "name": "config",
          "type": "tuple"
        }
      ],
      "stateMutability": "view",
      "type": "function"
    },
    {
      "inputs": [
        {
          "internalType": "bytes32",
          "name": "role",
          "type": "bytes32"
        }
      ],
      "name": "getRoleAdmin",
      "outputs": [
        {
          "internalType": "bytes32",
          "name": "",
          "type": "bytes32"
        }
      ],
      "stateMutability": "view",
      "type": "function"
    },
    {
      "inputs": [
        {
          "internalType": "bytes32",
          "name": "role",
          "type": "bytes32"
        },
        {
          "internalType": "address",
          "name": "account",
          "type": "address"
        }
      ],
      "name": "grantRole",
      "outputs": [],
      "stateMutability": "nonpayable",
      "type": "function"
    },
    {
      "inputs": [
        {
          "internalType": "bytes32",
          "name": "role",
          "type": "bytes32"
        },
        {
          "internalType": "address",
          "name": "account",
          "type": "address"
        }
      ],
      "name": "hasRole",
      "outputs": [
        {
          "internalType": "bool",
          "name": "",
          "type": "bool"
        }
      ],
      "stateMutability": "view",
      "type": "function"
    },
    {
      "inputs": [],
      "name": "initialize",
      "outputs": [],
      "stateMutability": "nonpayable",
      "type": "function"
    },
    {
      "inputs": [],
      "name": "initialized",
      "outputs": [
        {
          "internalType": "bool",
          "name": "",
          "type": "bool"
        }
      ],
      "stateMutability": "view",
      "type": "function"
    },
    {
      "inputs": [
        {
          "internalType": "address",
          "name": "_user",
          "type": "address"
        }
      ],
      "name": "isEligibleForRewards",
      "outputs": [
        {
          "internalType": "bool",
          "name": "",
          "type": "bool"
        }
      ],
      "stateMutability": "view",
      "type": "function"
    },
    {
      "inputs": [
        {
          "internalType": "string",
          "name": "",
          "type": "string"
        }
      ],
      "name": "lastCallData",
      "outputs": [
        {
          "internalType": "bytes",
          "name": "",
          "type": "bytes"
        }
      ],
      "stateMutability": "view",
      "type": "function"
    },
    {
      "inputs": [],
      "name": "lastCaller",
      "outputs": [
        {
          "internalType": "address",
          "name": "",
          "type": "address"
        }
      ],
      "stateMutability": "view",
      "type": "function"
    },
    {
      "inputs": [
        {
          "internalType": "string",
          "name": "",
          "type": "string"
        }
      ],
      "name": "lastCallerByFunction",
      "outputs": [
        {
          "internalType": "address",
          "name": "",
          "type": "address"
        }
      ],
      "stateMutability": "view",
      "type": "function"
    },
    {
      "inputs": [
        {
          "internalType": "address",
          "name": "",
          "type": "address"
        }
      ],
      "name": "lastRewardTimestamp",
      "outputs": [
        {
          "internalType": "uint256",
          "name": "",
          "type": "uint256"
        }
      ],
      "stateMutability": "view",
      "type": "function"
    },
    {
      "inputs": [
        {
          "internalType": "address",
          "name": "_participant",
          "type": "address"
        },
        {
          "internalType": "uint256",
          "name": "_initialReputation",
          "type": "uint256"
        }
      ],
      "name": "registerParticipant",
      "outputs": [],
      "stateMutability": "nonpayable",
      "type": "function"
    },
    {
      "inputs": [
        {
          "internalType": "bytes32",
          "name": "role",
          "type": "bytes32"
        },
        {
          "internalType": "address",
          "name": "callerConfirmation",
          "type": "address"
        }
      ],
      "name": "renounceRole",
      "outputs": [],
      "stateMutability": "nonpayable",
      "type": "function"
    },
    {
      "inputs": [
        {
          "internalType": "address",
          "name": "",
          "type": "address"
        }
      ],
      "name": "reputationScores",
      "outputs": [
        {
          "internalType": "uint256",
          "name": "",
          "type": "uint256"
        }
      ],
      "stateMutability": "view",
      "type": "function"
    },
    {
      "inputs": [],
      "name": "reset",
      "outputs": [],
      "stateMutability": "nonpayable",
      "type": "function"
    },
    {
      "inputs": [
        {
          "internalType": "bytes32",
          "name": "role",
          "type": "bytes32"
        },
        {
          "internalType": "address",
          "name": "account",
          "type": "address"
        }
      ],
      "name": "revokeRole",
      "outputs": [],
      "stateMutability": "nonpayable",
      "type": "function"
    },
    {
      "inputs": [],
      "name": "rewardConfig",
      "outputs": [
        {
          "internalType": "uint256",
          "name": "baseReward",
          "type": "uint256"
        },
        {
          "internalType": "uint256",
          "name": "votingParticipationBonus",
          "type": "uint256"
        },
        {
          "internalType": "uint256",
          "name": "proposalQualityMultiplier",
          "type": "uint256"
        },
        {
          "internalType": "uint256",
          "name": "aiNodeMultiplier",
          "type": "uint256"
        },
        {
          "internalType": "uint256",
          "name": "rewardCap",
          "type": "uint256"
        }
      ],
      "stateMutability": "view",
      "type": "function"
    },
    {
      "inputs": [],
      "name": "rewardCooldown",
      "outputs": [
        {
          "internalType": "uint256",
          "name": "",
          "type": "uint256"
        }
      ],
      "stateMutability": "view",
      "type": "function"
    },
    {
      "inputs": [
        {
          "internalType": "uint256",
          "name": "",
          "type": "uint256"
        }
      ],
      "name": "rewardHistory",
      "outputs": [
        {
          "internalType": "address",
          "name": "recipient",
          "type": "address"
        },
        {
          "internalType": "uint256",
          "name": "amount",
          "type": "uint256"
        },
        {
          "internalType": "uint256",
          "name": "timestamp",
          "type": "uint256"
        },
        {
          "internalType": "string",
          "name": "reason",
          "type": "string"
        }
      ],
      "stateMutability": "view",
      "type": "function"
    },
    {
      "inputs": [],
      "name": "rewardPeriodStart",
      "outputs": [
        {
          "internalType": "uint256",
          "name": "",
          "type": "uint256"
        }
      ],
      "stateMutability": "view",
      "type": "function"
    },
    {
      "inputs": [],
      "name": "rewardToken",
      "outputs": [
        {
          "internalType": "address",
          "name": "",
          "type": "address"
        }
      ],
      "stateMutability": "view",
      "type": "function"
    },
    {
      "inputs": [],
      "name": "rewardsDistributed",
      "outputs": [
        {
          "internalType": "uint256",
          "name": "",
          "type": "uint256"
        }
      ],
      "stateMutability": "view",
      "type": "function"
    },
    {
      "inputs": [
        {
          "internalType": "uint256",
          "name": "_rewardCooldown",
          "type": "uint256"
        }
      ],
      "name": "setRewardCooldown",
      "outputs": [],
      "stateMutability": "nonpayable",
      "type": "function"
    },
    {
      "inputs": [
        {
          "internalType": "address",
          "name": "_rewardToken",
          "type": "address"
        }
      ],
      "name": "setRewardToken",
      "outputs": [],
      "stateMutability": "nonpayable",
      "type": "function"
    },
    {
      "inputs": [
        {
          "internalType": "bytes4",
          "name": "interfaceId",
          "type": "bytes4"
        }
      ],
      "name": "supportsInterface",
      "outputs": [
        {
          "internalType": "bool",
          "name": "",
          "type": "bool"
        }
      ],
      "stateMutability": "view",
      "type": "function"
    },
    {
      "inputs": [
        {
          "internalType": "address",
          "name": "",
          "type": "address"
        }
      ],
      "name": "totalRewardsEarned",
      "outputs": [
        {
          "internalType": "uint256",
          "name": "",
          "type": "uint256"
        }
      ],
      "stateMutability": "view",
      "type": "function"
    },
    {
      "inputs": [
        {
          "internalType": "address",
          "name": "_participant",
          "type": "address"
        },
        {
          "internalType": "uint256",
          "name": "_newReputation",
          "type": "uint256"
        }
      ],
      "name": "updateReputation",
      "outputs": [],
      "stateMutability": "nonpayable",
      "type": "function"
    },
    {
      "inputs": [
        {
          "internalType": "uint256",
          "name": "_baseReward",
          "type": "uint256"
        },
        {
          "internalType": "uint256",
          "name": "_votingParticipationBonus",
          "type": "uint256"
        },
        {
          "internalType": "uint256",
          "name": "_proposalQualityMultiplier",
          "type": "uint256"
        },
        {
          "internalType": "uint256",
          "name": "_aiNodeMultiplier",
          "type": "uint256"
        },
        {
          "internalType": "uint256",
          "name": "_rewardCap",
          "type": "uint256"
        }
      ],
      "name": "updateRewardConfig",
      "outputs": [],
      "stateMutability": "nonpayable",
      "type": "function"
    },
    {
      "inputs": [
        {
          "internalType": "string",
          "name": "functionName",
          "type": "string"
        }
      ],
      "name": "wasFunctionCalled",
      "outputs": [
        {
          "internalType": "bool",
          "name": "",
          "type": "bool"
        }
      ],
      "stateMutability": "view",
      "type": "function"
    }
  ],
  "bytecode": "0x60806040523480156200001157600080fd5b506200001f600033620000f9565b506200002d600033620000f9565b506200005a7fa49807205ce4d355092ef5a8a18f56e8913cf4a201fbe287825b095693c2177533620000f9565b50620000877ffbd454f36a7e1a388bd6fc3ab10d434aa4578f811acbbcf33afb1c697486313c33620000f9565b506040805160a08101825268056bc75e2d63100000808252601460208301819052612710938301849052612ee060608401819052683635c9adc5dea0000060809094018490526008929092556009819055600a93909355600b55600c55620151806011554260135560019055620001aa565b60008281526006602090815260408083206001600160a01b038516845290915281205460ff16620001a0576000838152602081815260408083206001600160a01b03861684529091529020805460ff19166001179055620001573390565b6001600160a01b0316826001600160a01b0316847f2f8788117e7eff1d82e926ec794901d17c78024a50270940304540a733656f0d60405160405180910390a4506001620001a4565b5060005b92915050565b61262c80620001ba6000396000f3fe608060405234801561001057600080fd5b50600436106102745760003560e01c80638129fc1c11610151578063d82e3962116100c3578063ec9c9f8911610087578063ec9c9f891461061d578063f0bd87cc1461063d578063f43d19b914610652578063f5c91a081461065b578063f7c618c11461066e578063fe0438b21461068157600080fd5b8063d82e39621461056d578063dfdbdd5014610580578063e4f24cb0146105a0578063e6d98d35146105c0578063ec147806146105d357600080fd5b8063a217fddf11610115578063a217fddf1461051b578063aa9bbc0c14610523578063c054c6ce1461052c578063d547741f1461053f578063d5670b9514610552578063d826f88f1461056557600080fd5b80638129fc1c146104d15780638aee8127146104d957806391d14854146104ec57806396e4d424146104ff5780639c1454d41461051257600080fd5b80632f2ff15d116101ea5780634302e564116101ae5780634302e564146104425780634b28f9a2146104555780634e94c2851461045e5780635a97f13a146104a0578063660186e6146104a957806375b238fc146104bc57600080fd5b80632f2ff15d146103c757806336568abe146103da578063372500ab146103ed5780633ca3910c146103f5578063422b010b1461041757600080fd5b80631df86bc61161023c5780631df86bc6146103075780631ff9182f146103535780632113522a14610366578063248a9ca31461037e578063254b8026146103a15780632a7ea9d2146103b457600080fd5b806301ffc9a7146102795780630da817db146102a1578063143ba4f3146102c4578063158ef93e146102d95780631a82a643146102e6575b600080fd5b61028c610287366004611c53565b6106a1565b60405190151581526020015b60405180910390f35b6102b46102af366004611c84565b6106d8565b6040516102989493929190611ced565b6102d76102d2366004611e1a565b6107aa565b005b60015461028c9060ff1681565b6102f96102f4366004611f4a565b61083b565b604051908152602001610298565b61033b610315366004611f4a565b80516020818301810180516005825292820191909301209152546001600160a01b031681565b6040516001600160a01b039091168152602001610298565b6102d7610361366004611c84565b610863565b60015461033b9061010090046001600160a01b031681565b6102f961038c366004611c84565b60009081526020819052604090206001015490565b6102d76103af366004611f87565b6108e5565b6102d76103c2366004611fc2565b6109e3565b6102d76103d5366004612019565b610c69565b6102d76103e8366004612019565b610d35565b6102f9610d6d565b610408610403366004611f4a565b610db7565b60405161029893929190612045565b6102f9610425366004611f4a565b805160208183018101805160038252928201919093012091525481565b6102d7610450366004612078565b610eba565b6102f960025481565b600854600954600a54600b54600c54610478949392919085565b604080519586526020860194909452928401919091526060830152608082015260a001610298565b6102f960135481565b61028c6104b73660046120a2565b610fc4565b6102f96000805160206125d783398151915281565b6102d7610ff4565b6102d76104e73660046120a2565b611080565b61028c6104fa366004612019565b611120565b6102d761050d3660046120bd565b61114b565b6102f960125481565b6102f9600081565b6102f960145481565b61028c61053a366004611f4a565b6114d6565b6102d761054d366004612019565b611500565b6102f9610560366004611c84565b6115ca565b6102d76116e5565b6102f961057b3660046120a2565b611731565b61059361058e366004611f4a565b6117a7565b60405161029891906120f6565b6102f96105ae3660046120a2565b600d6020526000908152604090205481565b6102d76105ce366004612155565b61184c565b6105db61190c565b6040516102989190600060a082019050825182526020830151602083015260408301516040830152606083015160608301526080830151608083015292915050565b6102f961062b3660046120a2565b600e6020526000908152604090205481565b6102f96000805160206125b783398151915281565b6102f960115481565b6102d7610669366004612078565b611973565b60075461033b906001600160a01b031681565b6102f961068f3660046120a2565b600f6020526000908152604090205481565b60006001600160e01b03198216637965db0b60e01b14806106d257506301ffc9a760e01b6001600160e01b03198316145b92915050565b601081815481106106e857600080fd5b600091825260209091206004909102018054600182015460028301546003840180546001600160a01b0390941695509193909290919061072790612226565b80601f016020809104026020016040519081016040528092919081815260200182805461075390612226565b80156107a05780601f10610775576101008083540402835291602001916107a0565b820191906000526020600020905b81548152906001019060200180831161078357829003601f168201915b5050505050905084565b6107fe60405180604001604052806011815260200170646973747269627574655265776172647360781b81525083836040516020016107ea92919061225a565b604051602081830303815290604052611a78565b7fe69d325558610ba73c441901deb46d7f251108348dc5dc9447e8866774c12edc828260405161082f92919061225a565b60405180910390a15050565b600060038260405161084d91906122de565b9081526020016040518091039020549050919050565b6108a36040518060400160405280601181526020017039b2ba2932bbb0b93221b7b7b63237bbb760791b815250826040516020016107ea91815260200190565b6108bb6000805160206125d783398151915233611120565b6108e05760405162461bcd60e51b81526004016108d7906122fa565b60405180910390fd5b601155565b6040805180820182526012815271757064617465526577617264436f6e66696760701b6020808301919091528251908101889052918201869052606082018590526080820184905260a082018390526109409160c0016107ea565b6109586000805160206125d783398151915233611120565b6109745760405162461bcd60e51b81526004016108d7906122fa565b60088590556009849055600a839055600b829055600c819055604080518681526020810186905290810184905260608101839052608081018290527f52dfcd0d1b1a20c0bf5cab54bd1ffe6df86e02d63ef891cb461de106e6de92c89060a00160405180910390a15050505050565b610a246040518060400160405280601081526020016f191a5cdd1c9a589d5d1954995dd85c9960821b8152508484846040516020016107ea93929190612322565b610a3c6000805160206125b783398151915233611120565b610a59576040516301b2776960e11b815260040160405180910390fd5b6001600160a01b038316610a805760405163d92e233d60e01b815260040160405180910390fd5b81600003610aa15760405163162908e360e11b815260040160405180910390fd5b600c54821115610ac457604051631d9c3dff60e31b815260040160405180910390fd5b6001600160a01b0383166000908152600d602052604081208054849290610aec90849061235f565b90915550506001600160a01b0383166000908152600e6020526040812042905560128054849290610b1e90849061235f565b9091555050604080516080810182526001600160a01b0385811682526020820185815242938301938452606083018581526010805460018101825560009190915284517f1b6847dc741a1b0cd08d278845f9d819d87b734759afb55fe2de5cb82a9ae672600490920291820180546001600160a01b0319169190951617845591517f1b6847dc741a1b0cd08d278845f9d819d87b734759afb55fe2de5cb82a9ae67383015593517f1b6847dc741a1b0cd08d278845f9d819d87b734759afb55fe2de5cb82a9ae6748201559251919290917f1b6847dc741a1b0cd08d278845f9d819d87b734759afb55fe2de5cb82a9ae67590910190610c1e90826123c2565b505050826001600160a01b03167f49649141d16971a88c3cfdd73fec34babb1cf163cf8b804c8f537a023c6ce5068383604051610c5c929190612482565b60405180910390a2505050565b610cb3604051806040016040528060098152602001686772616e74526f6c6560b81b81525083836040516020016107ea9291909182526001600160a01b0316602082015260400190565b610cbe600033611120565b610cda5760405162461bcd60e51b81526004016108d7906122fa565b60008281526006602090815260408083206001600160a01b0385168085529252808320805460ff1916600117905551339285917f2f8788117e7eff1d82e926ec794901d17c78024a50270940304540a733656f0d9190a45050565b6001600160a01b0381163314610d5e5760405163334bd91960e11b815260040160405180910390fd5b610d688282611b96565b505050565b6000610db16040518060400160405280600c81526020016b636c61696d5265776172647360a01b815250604051602001604051602081830303815290604052611a78565b50600090565b6000806060600384604051610dcc91906122de565b908152602001604051809103902054600585604051610deb91906122de565b908152604051908190036020018120546001600160a01b031690600490610e139088906122de565b9081526020016040518091039020808054610e2d90612226565b80601f0160208091040260200160405190810160405280929190818152602001828054610e5990612226565b8015610ea65780601f10610e7b57610100808354040283529160200191610ea6565b820191906000526020600020905b815481529060010190602001808311610e8957829003601f168201915b505050505090509250925092509193909250565b610f10604051806040016040528060138152602001721c9959da5cdd195c94185c9d1a58da5c185b9d606a1b81525083836040516020016107ea9291906001600160a01b03929092168252602082015260400190565b610f286000805160206125d783398151915233611120565b610f445760405162461bcd60e51b81526004016108d7906122fa565b6001600160a01b038216610f6b5760405163d92e233d60e01b815260040160405180910390fd5b6001600160a01b0382166000818152600f602052604090819020839055517fa48418fa780c651bef841ca082131ed20bc20c620dd0459bba9ab78550f5d62390610fb89084815260200190565b60405180910390a25050565b6011546001600160a01b0382166000908152600e60205260408120549091610feb9161235f565b42101592915050565b60015460ff16156110475760405162461bcd60e51b815260206004820152601d60248201527f426173654d6f636b3a20616c726561647920696e697469616c697a656400000060448201526064016108d7565b6001805460ff19168117905560405133907f30f7074e868351008998491171b433e7342f255e986fef03e5eec84f01786f0190600090a2565b6110ca6040518060400160405280600e81526020016d39b2ba2932bbb0b9322a37b5b2b760911b815250826040516020016107ea91906001600160a01b0391909116815260200190565b6110e26000805160206125d783398151915233611120565b6110fe5760405162461bcd60e51b81526004016108d7906122fa565b600780546001600160a01b0319166001600160a01b0392909216919091179055565b60009182526006602090815260408084206001600160a01b0393909316845291905290205460ff1690565b604080518082018252601881527f6469737472696275746550726f706f73616c526577617264000000000000000060208083019190915282516001600160a01b0388169181019190915291820185905260608201849052608082018390526111b59160a0016107ea565b6111cd6000805160206125b783398151915233611120565b6111ea576040516301b2776960e11b815260040160405180910390fd5b6001600160a01b0384166112115760405163d92e233d60e01b815260040160405180910390fd5b606482111561123357604051631a77c6a960e31b815260040160405180910390fd5b606481111561125557604051632de1980b60e21b815260040160405180910390fd5b6011546001600160a01b0385166000908152600e602052604090205461127b919061235f565b42101561129b57604051632f63117560e11b815260040160405180910390fd5b6008546009546000906127109084906112b4908561249b565b6112be919061249b565b6112c891906124b2565b905060006064856008600201546112df919061249b565b6112e991906124b2565b90506000612710826112fb858761235f565b611305919061249b565b61130f91906124b2565b600c549091508111156113215750600c545b6001600160a01b0388166000908152600d60205260408120805483929061134990849061235f565b90915550506001600160a01b0388166000908152600e602052604081204290556012805483929061137b90849061235f565b92505081905550601060405180608001604052808a6001600160a01b03168152602001838152602001428152602001896040516020016113db9190700283937b837b9b0b6103932bbb0b9321d1607d1b8152601181019190915260310190565b60408051808303601f1901815291815291528254600180820185556000948552602094859020845160049093020180546001600160a01b0319166001600160a01b03909316929092178255938301519381019390935581015160028301556060810151909190600382019061145090826123c2565b5050604051700283937b837b9b0b6103932bbb0b9321d1607d1b6020820152603181018990526001600160a01b038a1691507f49649141d16971a88c3cfdd73fec34babb1cf163cf8b804c8f537a023c6ce50690839060510160408051601f19818403018152908290526114c49291612482565b60405180910390a25050505050505050565b6000806003836040516114e991906122de565b908152602001604051809103902054119050919050565b61154b6040518060400160405280600a8152602001697265766f6b65526f6c6560b01b81525083836040516020016107ea9291909182526001600160a01b0316602082015260400190565b611556600033611120565b6115725760405162461bcd60e51b81526004016108d7906122fa565b60008281526006602090815260408083206001600160a01b0385168085529252808320805460ff1916905551339285917ff6391f5c32d9c69d2a47ea670b442974b53935d1edc7fd64eb21e047a839171b9190a45050565b6000611611604051806040016040528060168152602001756469737472696275746545706f63685265776172647360501b815250836040516020016107ea91815260200190565b6116296000805160206125b783398151915233611120565b611646576040516301b2776960e11b815260040160405180910390fd5b601454821461166857604051630395a9c360e41b815260040160405180910390fd5b683635c9adc5dea0000090508060126000828254611686919061235f565b90915550506014805490600061169b836124d4565b90915550506040805183815260208101839052600a8183015290517fbec9c5909da9171e4191b2c3d1a13b0aaf43799c3a958269e401008514da13999181900360600190a1919050565b60006116f081611c09565b600180546001600160a81b0319169055600060028190556040517f47f78a7a0acc7fff3657157dc253c5e6a68550995cc6f47bc2bd707ec67370fb9190a150565b60006001600160a01b03821661175a5760405163d92e233d60e01b815260040160405180910390fd5b6001600160a01b0382166000908152600f602052604090205460085460649061178490839061249b565b61178e91906124b2565b600c549092508211156117a157600c5491505b50919050565b8051602081830181018051600482529282019190930120915280546117cb90612226565b80601f01602080910402602001604051908101604052809291908181526020018280546117f790612226565b80156118445780601f1061181957610100808354040283529160200191611844565b820191906000526020600020905b81548152906001019060200180831161182757829003601f168201915b505050505081565b61189660405180604001604052806011815260200170646973747269627574655265776172647360781b815250888888888888886040516020016107ea9796959493929190612516565b61190386868080602002602001604051908101604052809392919081815260200183836020028082843760009201919091525050604080516020808a028281018201909352898252909350899250889182918501908490808284376000920191909152506107aa92505050565b50505050505050565b61193e6040518060a0016040528060008152602001600081526020016000815260200160008152602001600081525090565b506040805160a08101825260085481526009546020820152600a5491810191909152600b546060820152600c54608082015290565b6119c66040518060400160405280601081526020016f3ab83230ba32a932b83aba30ba34b7b760811b81525083836040516020016107ea9291906001600160a01b03929092168252602082015260400190565b6119de6000805160206125d783398151915233611120565b6119fa5760405162461bcd60e51b81526004016108d7906122fa565b6001600160a01b038216611a215760405163d92e233d60e01b815260040160405180910390fd5b6001600160a01b0382166000818152600f6020908152604091829020805490859055825181815291820185905292917f5b88a2e3fc1a53234357ab78c104df11c33ccfa79886793654565ad70b8afb6e9101610c5c565b600382604051611a8891906122de565b9081526040519081900360200190208054906000611aa5836124d4565b919050555080600483604051611abb91906122de565b90815260200160405180910390209081611ad591906123c2565b5033600583604051611ae791906122de565b90815260405160209181900391909101902080546001600160a01b0319166001600160a01b039290921691909117905560018054610100600160a81b031916610100330217905560028054906000611b3e836124d4565b90915550506040513390611b539084906122de565b60405180910390207f16b892c3de2f4b54dc114eff5c76ead156bac210353ee82615752957e1317df183604051611b8a91906120f6565b60405180910390a35050565b6000611ba28383611120565b15611c01576000838152602081815260408083206001600160a01b0386168085529252808320805460ff1916905551339286917ff6391f5c32d9c69d2a47ea670b442974b53935d1edc7fd64eb21e047a839171b9190a45060016106d2565b5060006106d2565b611c138133611c16565b50565b611c208282611120565b611c4f5760405163e2517d3f60e01b81526001600160a01b0382166004820152602481018390526044016108d7565b5050565b600060208284031215611c6557600080fd5b81356001600160e01b031981168114611c7d57600080fd5b9392505050565b600060208284031215611c9657600080fd5b5035919050565b60005b83811015611cb8578181015183820152602001611ca0565b50506000910152565b60008151808452611cd9816020860160208601611c9d565b601f01601f19169290920160200192915050565b60018060a01b0385168152836020820152826040820152608060608201526000611d1a6080830184611cc1565b9695505050505050565b634e487b7160e01b600052604160045260246000fd5b604051601f8201601f1916810167ffffffffffffffff81118282101715611d6357611d63611d24565b604052919050565b600067ffffffffffffffff821115611d8557611d85611d24565b5060051b60200190565b80356001600160a01b0381168114611da657600080fd5b919050565b600082601f830112611dbc57600080fd5b81356020611dd1611dcc83611d6b565b611d3a565b8083825260208201915060208460051b870101935086841115611df357600080fd5b602086015b84811015611e0f5780358352918301918301611df8565b509695505050505050565b60008060408385031215611e2d57600080fd5b823567ffffffffffffffff80821115611e4557600080fd5b818501915085601f830112611e5957600080fd5b81356020611e69611dcc83611d6b565b82815260059290921b84018101918181019089841115611e8857600080fd5b948201945b83861015611ead57611e9e86611d8f565b82529482019490820190611e8d565b96505086013592505080821115611ec357600080fd5b50611ed085828601611dab565b9150509250929050565b600082601f830112611eeb57600080fd5b813567ffffffffffffffff811115611f0557611f05611d24565b611f18601f8201601f1916602001611d3a565b818152846020838601011115611f2d57600080fd5b816020850160208301376000918101602001919091529392505050565b600060208284031215611f5c57600080fd5b813567ffffffffffffffff811115611f7357600080fd5b611f7f84828501611eda565b949350505050565b600080600080600060a08688031215611f9f57600080fd5b505083359560208501359550604085013594606081013594506080013592509050565b600080600060608486031215611fd757600080fd5b611fe084611d8f565b925060208401359150604084013567ffffffffffffffff81111561200357600080fd5b61200f86828701611eda565b9150509250925092565b6000806040838503121561202c57600080fd5b8235915061203c60208401611d8f565b90509250929050565b8381526001600160a01b038316602082015260606040820181905260009061206f90830184611cc1565b95945050505050565b6000806040838503121561208b57600080fd5b61209483611d8f565b946020939093013593505050565b6000602082840312156120b457600080fd5b611c7d82611d8f565b600080600080608085870312156120d357600080fd5b6120dc85611d8f565b966020860135965060408601359560600135945092505050565b602081526000611c7d6020830184611cc1565b60008083601f84011261211b57600080fd5b50813567ffffffffffffffff81111561213357600080fd5b6020830191508360208260051b850101111561214e57600080fd5b9250929050565b60008060008060008060006080888a03121561217057600080fd5b87359650602088013567ffffffffffffffff8082111561218f57600080fd5b61219b8b838c01612109565b909850965060408a01359150808211156121b457600080fd5b6121c08b838c01612109565b909650945060608a01359150808211156121d957600080fd5b818a0191508a601f8301126121ed57600080fd5b8135818111156121fc57600080fd5b8b602082850101111561220e57600080fd5b60208301945080935050505092959891949750929550565b600181811c9082168061223a57607f821691505b6020821081036117a157634e487b7160e01b600052602260045260246000fd5b604080825283519082018190526000906020906060840190828701845b8281101561229c5781516001600160a01b031684529284019290840190600101612277565b5050508381038285015284518082528583019183019060005b818110156122d1578351835292840192918401916001016122b5565b5090979650505050505050565b600082516122f0818460208701611c9d565b9190910192915050565b6020808252600e908201526d139bdd08185d5d1a1bdc9a5e995960921b604082015260600190565b60018060a01b038416815282602082015260606040820152600061206f6060830184611cc1565b634e487b7160e01b600052601160045260246000fd5b808201808211156106d2576106d2612349565b601f821115610d68576000816000526020600020601f850160051c8101602086101561239b5750805b601f850160051c820191505b818110156123ba578281556001016123a7565b505050505050565b815167ffffffffffffffff8111156123dc576123dc611d24565b6123f0816123ea8454612226565b84612372565b602080601f831160018114612425576000841561240d5750858301515b600019600386901b1c1916600185901b1785556123ba565b600085815260208120601f198616915b8281101561245457888601518255948401946001909101908401612435565b50858210156124725787850151600019600388901b60f8161c191681555b5050505050600190811b01905550565b828152604060208201526000611f7f6040830184611cc1565b80820281158282048414176106d2576106d2612349565b6000826124cf57634e487b7160e01b600052601260045260246000fd5b500490565b6000600182016124e6576124e6612349565b5060010190565b81835281816020850137506000828201602090810191909152601f909101601f19169091010190565b87815260806020808301829052908201879052600090889060a08401835b8a811015612560576001600160a01b0361254d85611d8f565b1682529282019290820190600101612534565b5084810360408601528781526001600160fb1b0388111561258057600080fd5b8760051b925082898383013790910183810382016060850152906125a781830186886124ed565b9b9a505050505050505050505056fefbd454f36a7e1a388bd6fc3ab10d434aa4578f811acbbcf33afb1c697486313ca49807205ce4d355092ef5a8a18f56e8913cf4a201fbe287825b095693c21775a264697066735822122007c5c27151c73d79564b2ccd1d291a199def096bbcc65f21614b08a1e9f3ce7c64736f6c63430008180033",
  "linkReferences": {},
  "deployedLinkReferences": {}
}