{
  "_format": "hh-sol-artifact-1",
  "contractName": "PriceOracle",
  "sourceName": "contracts/oracles/PriceOracle.sol",
  "abi": [
    {
      "inputs": [
        {
          "internalType": "address",
          "name": "adminAddress",
          "type": "address"
        },
        {
          "internalType": "address",
          "name": "updaterAddress",
          "type": "address"
        }
      ],
      "stateMutability": "nonpayable",
      "type": "constructor"
    },
    {
      "inputs": [],
      "name": "AccessControlBadConfirmation",
      "type": "error"
    },
    {
      "inputs": [
        {
          "internalType": "address",
          "name": "account",
          "type": "address"
        },
        {
          "internalType": "bytes32",
          "name": "neededRole",
          "type": "bytes32"
        }
      ],
      "name": "AccessControlUnauthorizedAccount",
      "type": "error"
    },
    {
      "inputs": [],
      "name": "Unauthorized",
      "type": "error"
    },
    {
      "inputs": [],
      "name": "ZeroAddress",
      "type": "error"
    },
    {
      "anonymous": false,
      "inputs": [
        {
          "indexed": true,
          "internalType": "address",
          "name": "oldAdmin",
          "type": "address"
        },
        {
          "indexed": true,
          "internalType": "address",
          "name": "newAdmin",
          "type": "address"
        }
      ],
      "name": "AdminUpdated",
      "type": "event"
    },
    {
      "anonymous": false,
      "inputs": [
        {
          "indexed": true,
          "internalType": "address",
          "name": "token",
          "type": "address"
        },
        {
          "indexed": false,
          "internalType": "uint256",
          "name": "price",
          "type": "uint256"
        },
        {
          "indexed": false,
          "internalType": "uint8",
          "name": "decimals",
          "type": "uint8"
        }
      ],
      "name": "DirectPriceUpdated",
      "type": "event"
    },
    {
      "anonymous": false,
      "inputs": [
        {
          "indexed": true,
          "internalType": "address",
          "name": "oldOwner",
          "type": "address"
        },
        {
          "indexed": true,
          "internalType": "address",
          "name": "newOwner",
          "type": "address"
        }
      ],
      "name": "OwnershipTransferred",
      "type": "event"
    },
    {
      "anonymous": false,
      "inputs": [
        {
          "indexed": true,
          "internalType": "address",
          "name": "token",
          "type": "address"
        },
        {
          "indexed": false,
          "internalType": "uint256",
          "name": "oldPrice",
          "type": "uint256"
        },
        {
          "indexed": false,
          "internalType": "uint256",
          "name": "newPrice",
          "type": "uint256"
        }
      ],
      "name": "PriceUpdated",
      "type": "event"
    },
    {
      "anonymous": false,
      "inputs": [
        {
          "indexed": true,
          "internalType": "address",
          "name": "updater",
          "type": "address"
        }
      ],
      "name": "PriceUpdaterAdded",
      "type": "event"
    },
    {
      "anonymous": false,
      "inputs": [
        {
          "indexed": true,
          "internalType": "address",
          "name": "updater",
          "type": "address"
        }
      ],
      "name": "PriceUpdaterRemoved",
      "type": "event"
    },
    {
      "anonymous": false,
      "inputs": [
        {
          "indexed": true,
          "internalType": "bytes32",
          "name": "role",
          "type": "bytes32"
        },
        {
          "indexed": true,
          "internalType": "bytes32",
          "name": "previousAdminRole",
          "type": "bytes32"
        },
        {
          "indexed": true,
          "internalType": "bytes32",
          "name": "newAdminRole",
          "type": "bytes32"
        }
      ],
      "name": "RoleAdminChanged",
      "type": "event"
    },
    {
      "anonymous": false,
      "inputs": [
        {
          "indexed": true,
          "internalType": "bytes32",
          "name": "role",
          "type": "bytes32"
        },
        {
          "indexed": true,
          "internalType": "address",
          "name": "account",
          "type": "address"
        },
        {
          "indexed": true,
          "internalType": "address",
          "name": "sender",
          "type": "address"
        }
      ],
      "name": "RoleGranted",
      "type": "event"
    },
    {
      "anonymous": false,
      "inputs": [
        {
          "indexed": true,
          "internalType": "bytes32",
          "name": "role",
          "type": "bytes32"
        },
        {
          "indexed": true,
          "internalType": "address",
          "name": "account",
          "type": "address"
        },
        {
          "indexed": true,
          "internalType": "address",
          "name": "sender",
          "type": "address"
        }
      ],
      "name": "RoleRevoked",
      "type": "event"
    },
    {
      "inputs": [],
      "name": "ADMIN_ROLE",
      "outputs": [
        {
          "internalType": "bytes32",
          "name": "",
          "type": "bytes32"
        }
      ],
      "stateMutability": "view",
      "type": "function"
    },
    {
      "inputs": [],
      "name": "DEFAULT_ADMIN_ROLE",
      "outputs": [
        {
          "internalType": "bytes32",
          "name": "",
          "type": "bytes32"
        }
      ],
      "stateMutability": "view",
      "type": "function"
    },
    {
      "inputs": [],
      "name": "DEFAULT_DECIMALS",
      "outputs": [
        {
          "internalType": "uint8",
          "name": "",
          "type": "uint8"
        }
      ],
      "stateMutability": "view",
      "type": "function"
    },
    {
      "inputs": [],
      "name": "DEFAULT_STALENESS_PERIOD",
      "outputs": [
        {
          "internalType": "uint256",
          "name": "",
          "type": "uint256"
        }
      ],
      "stateMutability": "view",
      "type": "function"
    },
    {
      "inputs": [],
      "name": "PRICE_UPDATER_ROLE",
      "outputs": [
        {
          "internalType": "bytes32",
          "name": "",
          "type": "bytes32"
        }
      ],
      "stateMutability": "view",
      "type": "function"
    },
    {
      "inputs": [
        {
          "internalType": "address",
          "name": "updater",
          "type": "address"
        }
      ],
      "name": "addPriceUpdater",
      "outputs": [],
      "stateMutability": "nonpayable",
      "type": "function"
    },
    {
      "inputs": [],
      "name": "admin",
      "outputs": [
        {
          "internalType": "address",
          "name": "",
          "type": "address"
        }
      ],
      "stateMutability": "view",
      "type": "function"
    },
    {
      "inputs": [
        {
          "internalType": "address",
          "name": "_asset",
          "type": "address"
        }
      ],
      "name": "getAssetDecimals",
      "outputs": [
        {
          "internalType": "uint8",
          "name": "",
          "type": "uint8"
        }
      ],
      "stateMutability": "view",
      "type": "function"
    },
    {
      "inputs": [
        {
          "internalType": "address",
          "name": "_asset",
          "type": "address"
        }
      ],
      "name": "getAssetPrice",
      "outputs": [
        {
          "internalType": "uint256",
          "name": "",
          "type": "uint256"
        }
      ],
      "stateMutability": "view",
      "type": "function"
    },
    {
      "inputs": [
        {
          "internalType": "address",
          "name": "token",
          "type": "address"
        }
      ],
      "name": "getPrice",
      "outputs": [
        {
          "internalType": "uint256",
          "name": "",
          "type": "uint256"
        }
      ],
      "stateMutability": "view",
      "type": "function"
    },
    {
      "inputs": [
        {
          "internalType": "bytes32",
          "name": "role",
          "type": "bytes32"
        }
      ],
      "name": "getRoleAdmin",
      "outputs": [
        {
          "internalType": "bytes32",
          "name": "",
          "type": "bytes32"
        }
      ],
      "stateMutability": "view",
      "type": "function"
    },
    {
      "inputs": [
        {
          "internalType": "address",
          "name": "token",
          "type": "address"
        }
      ],
      "name": "getTokenPrice",
      "outputs": [
        {
          "internalType": "uint256",
          "name": "",
          "type": "uint256"
        }
      ],
      "stateMutability": "view",
      "type": "function"
    },
    {
      "inputs": [
        {
          "internalType": "address",
          "name": "token",
          "type": "address"
        }
      ],
      "name": "getTokenPriceWithDecimals",
      "outputs": [
        {
          "internalType": "uint256",
          "name": "price",
          "type": "uint256"
        },
        {
          "internalType": "uint8",
          "name": "decimals",
          "type": "uint8"
        }
      ],
      "stateMutability": "view",
      "type": "function"
    },
    {
      "inputs": [
        {
          "internalType": "bytes32",
          "name": "role",
          "type": "bytes32"
        },
        {
          "internalType": "address",
          "name": "account",
          "type": "address"
        }
      ],
      "name": "grantRole",
      "outputs": [],
      "stateMutability": "nonpayable",
      "type": "function"
    },
    {
      "inputs": [
        {
          "internalType": "bytes32",
          "name": "role",
          "type": "bytes32"
        },
        {
          "internalType": "address",
          "name": "account",
          "type": "address"
        }
      ],
      "name": "hasRole",
      "outputs": [
        {
          "internalType": "bool",
          "name": "",
          "type": "bool"
        }
      ],
      "stateMutability": "view",
      "type": "function"
    },
    {
      "inputs": [],
      "name": "owner",
      "outputs": [
        {
          "internalType": "address",
          "name": "",
          "type": "address"
        }
      ],
      "stateMutability": "view",
      "type": "function"
    },
    {
      "inputs": [
        {
          "internalType": "address",
          "name": "",
          "type": "address"
        }
      ],
      "name": "priceUpdaters",
      "outputs": [
        {
          "internalType": "bool",
          "name": "",
          "type": "bool"
        }
      ],
      "stateMutability": "view",
      "type": "function"
    },
    {
      "inputs": [
        {
          "internalType": "address",
          "name": "updater",
          "type": "address"
        }
      ],
      "name": "removePriceUpdater",
      "outputs": [],
      "stateMutability": "nonpayable",
      "type": "function"
    },
    {
      "inputs": [
        {
          "internalType": "bytes32",
          "name": "role",
          "type": "bytes32"
        },
        {
          "internalType": "address",
          "name": "callerConfirmation",
          "type": "address"
        }
      ],
      "name": "renounceRole",
      "outputs": [],
      "stateMutability": "nonpayable",
      "type": "function"
    },
    {
      "inputs": [
        {
          "internalType": "bytes32",
          "name": "role",
          "type": "bytes32"
        },
        {
          "internalType": "address",
          "name": "account",
          "type": "address"
        }
      ],
      "name": "revokeRole",
      "outputs": [],
      "stateMutability": "nonpayable",
      "type": "function"
    },
    {
      "inputs": [
        {
          "internalType": "address",
          "name": "token",
          "type": "address"
        },
        {
          "internalType": "uint256",
          "name": "price",
          "type": "uint256"
        },
        {
          "internalType": "uint8",
          "name": "decimals",
          "type": "uint8"
        }
      ],
      "name": "setDirectPrice",
      "outputs": [],
      "stateMutability": "nonpayable",
      "type": "function"
    },
    {
      "inputs": [
        {
          "internalType": "address",
          "name": "token",
          "type": "address"
        },
        {
          "internalType": "uint256",
          "name": "price",
          "type": "uint256"
        }
      ],
      "name": "setPrice",
      "outputs": [],
      "stateMutability": "nonpayable",
      "type": "function"
    },
    {
      "inputs": [
        {
          "internalType": "bytes4",
          "name": "interfaceId",
          "type": "bytes4"
        }
      ],
      "name": "supportsInterface",
      "outputs": [
        {
          "internalType": "bool",
          "name": "",
          "type": "bool"
        }
      ],
      "stateMutability": "view",
      "type": "function"
    },
    {
      "inputs": [
        {
          "internalType": "address",
          "name": "token",
          "type": "address"
        },
        {
          "internalType": "uint256",
          "name": "price",
          "type": "uint256"
        }
      ],
      "name": "updatePrice",
      "outputs": [],
      "stateMutability": "nonpayable",
      "type": "function"
    }
  ],
  "bytecode": "0x60806040523480156200001157600080fd5b506040516200113a3803806200113a83398101604081905262000034916200020b565b600480546001600160a01b031916331790556001600160a01b0382166200006d57600580546001600160a01b0319163317905562000089565b600580546001600160a01b0319166001600160a01b0384161790555b620000966000336200013f565b50620000c37fa49807205ce4d355092ef5a8a18f56e8913cf4a201fbe287825b095693c21775336200013f565b50600580546001600160a01b031916331790556001600160a01b038116156200013757620001127fd96ba01d6560c2ab35f2940dd8d70c5f5fe06236c72674237120515918198fb0826200013f565b506001600160a01b0381166000908152600660205260409020805460ff191660011790555b505062000243565b6000828152602081815260408083206001600160a01b038516845290915281205460ff16620001e4576000838152602081815260408083206001600160a01b03861684529091529020805460ff191660011790556200019b3390565b6001600160a01b0316826001600160a01b0316847f2f8788117e7eff1d82e926ec794901d17c78024a50270940304540a733656f0d60405160405180910390a4506001620001e8565b5060005b92915050565b80516001600160a01b03811681146200020657600080fd5b919050565b600080604083850312156200021f57600080fd5b6200022a83620001ee565b91506200023a60208401620001ee565b90509250929050565b610ee780620002536000396000f3fe608060405234801561001057600080fd5b50600436106101575760003560e01c80639a81449d116100c3578063d33c665f1161007c578063d33c665f14610306578063d547741f14610330578063d9d6a0ae14610343578063e88456e71461034d578063f851a44014610360578063fb8d81011461037157600080fd5b80639a81449d146102ab5780639efd6f72146102be578063a217fddf146102e3578063b3596f07146102eb578063c5008f46146102fe578063d02641a0146102eb57600080fd5b806336568abe1161011557806336568abe1461021357806341976e0914610226578063457972de1461023957806375b238fc1461024c5780638da5cb5b1461027357806391d148541461029857600080fd5b8062e4768b1461015c57806301ffc9a714610171578063125dfb0914610199578063248a9ca3146101bc5780632df31108146101ed5780632f2ff15d14610200575b600080fd5b61016f61016a366004610c42565b610398565b005b61018461017f366004610c6c565b6104cb565b60405190151581526020015b60405180910390f35b6101846101a7366004610c9d565b60066020526000908152604090205460ff1681565b6101df6101ca366004610cb8565b60009081526020819052604090206001015490565b604051908152602001610190565b61016f6101fb366004610c9d565b610502565b61016f61020e366004610cd1565b6105ee565b61016f610221366004610cd1565b610619565b6101df610234366004610c9d565b610651565b61016f610247366004610c42565b6106df565b6101df7fa49807205ce4d355092ef5a8a18f56e8913cf4a201fbe287825b095693c2177581565b6004546001600160a01b03165b6040516001600160a01b039091168152602001610190565b6101846102a6366004610cd1565b61074c565b61016f6102b9366004610cfd565b610775565b6102d16102cc366004610c9d565b61091b565b60405160ff9091168152602001610190565b6101df600081565b6101df6102f9366004610c9d565b610965565b6102d1601281565b610319610314366004610c9d565b610970565b6040805192835260ff909116602083015201610190565b61016f61033e366004610cd1565b6109cb565b6101df6201518081565b61016f61035b366004610c9d565b6109f0565b6005546001600160a01b0316610280565b6101df7fd96ba01d6560c2ab35f2940dd8d70c5f5fe06236c72674237120515918198fb081565b3360009081526006602052604090205460ff161580156103c357506005546001600160a01b03163314155b80156103da57506004546001600160a01b03163314155b156103f7576040516282b42960e81b815260040160405180910390fd5b6001600160a01b03821661041e5760405163d92e233d60e01b815260040160405180910390fd5b6001600160a01b0382166000908152600160209081526040808320805490859055600283528184204290556003909252822054909160ff9091169003610482576001600160a01b0383166000908152600360205260409020805460ff191660121790555b60408051828152602081018490526001600160a01b038516917fb556fac599c3c70efb9ab1fa725ecace6c81cc48d1455f886607def065f3e0c0910160405180910390a2505050565b60006001600160e01b03198216637965db0b60e01b14806104fc57506301ffc9a760e01b6001600160e01b03198316145b92915050565b6005546001600160a01b0316331480159061052857506004546001600160a01b03163314155b15610545576040516282b42960e81b815260040160405180910390fd5b6001600160a01b03811661056c5760405163d92e233d60e01b815260040160405180910390fd5b6001600160a01b0381166000908152600660205260409020805460ff191690556105b67fd96ba01d6560c2ab35f2940dd8d70c5f5fe06236c72674237120515918198fb082610adf565b506040516001600160a01b038216907fff7dbb85c77ca68ca1f894d6498570e3d5095cd19466f07ee8d222b337e4068c90600090a250565b60008281526020819052604090206001015461060981610b52565b6106138383610b5f565b50505050565b6001600160a01b03811633146106425760405163334bd91960e11b815260040160405180910390fd5b61064c8282610adf565b505050565b6001600160a01b038116600090815260016020526040812054810361067f5750670de0b6b3a7640000919050565b6001600160a01b038216600090815260026020526040902054156106c3576001600160a01b0382166000908152600260205260408120546106c09042610d59565b50505b506001600160a01b031660009081526001602052604090205490565b3360009081526006602052604090205460ff1615801561070a57506005546001600160a01b03163314155b801561072157506004546001600160a01b03163314155b1561073e576040516282b42960e81b815260040160405180910390fd5b6107488282610398565b5050565b6000918252602082815260408084206001600160a01b0393909316845291905290205460ff1690565b6005546001600160a01b0316331480159061079b57506004546001600160a01b03163314155b156107b8576040516282b42960e81b815260040160405180910390fd5b6001600160a01b0383166107df5760405163d92e233d60e01b815260040160405180910390fd5b6001600160a01b03831660009081526001602052604090205482601260ff8416101561082c57610810836012610d6c565b61081b90600a610e69565b6108259085610e78565b905061085b565b60128360ff16111561085b57610843601284610d6c565b61084e90600a610e69565b6108589085610e8f565b90505b6001600160a01b038516600081815260016020908152604080832085905560038252808320805460ff191660ff8916179055600282529182902042905581518581529081018490527fb556fac599c3c70efb9ab1fa725ecace6c81cc48d1455f886607def065f3e0c0910160405180910390a26040805185815260ff851660208201526001600160a01b038716917fa9fafe46055166cecf6b4ff4a828c2e6d905796aad44756c252785e406a65659910160405180910390a25050505050565b6001600160a01b03811660009081526003602052604081205460ff161561095d576001600160a01b03821660009081526003602052604090205460ff166104fc565b601292915050565b60006104fc82610651565b60008061097c83610651565b6001600160a01b03841660009081526003602052604090205490925060ff16156109c1576001600160a01b03831660009081526003602052604090205460ff166109c4565b60125b9050915091565b6000828152602081905260409020600101546109e681610b52565b6106138383610adf565b6005546001600160a01b03163314801590610a1657506004546001600160a01b03163314155b15610a33576040516282b42960e81b815260040160405180910390fd5b6001600160a01b038116610a5a5760405163d92e233d60e01b815260040160405180910390fd5b6001600160a01b0381166000908152600660205260409020805460ff19166001179055610aa77fd96ba01d6560c2ab35f2940dd8d70c5f5fe06236c72674237120515918198fb082610b5f565b506040516001600160a01b038216907f5104d28bdf2a63480d70f73ae04afa86476ff93d6306f6d13c6f85eb593c472690600090a250565b6000610aeb838361074c565b15610b4a576000838152602081815260408083206001600160a01b0386168085529252808320805460ff1916905551339286917ff6391f5c32d9c69d2a47ea670b442974b53935d1edc7fd64eb21e047a839171b9190a45060016104fc565b5060006104fc565b610b5c8133610be9565b50565b6000610b6b838361074c565b610b4a576000838152602081815260408083206001600160a01b03861684529091529020805460ff19166001179055610ba13390565b6001600160a01b0316826001600160a01b0316847f2f8788117e7eff1d82e926ec794901d17c78024a50270940304540a733656f0d60405160405180910390a45060016104fc565b610bf3828261074c565b6107485760405163e2517d3f60e01b81526001600160a01b03821660048201526024810183905260440160405180910390fd5b80356001600160a01b0381168114610c3d57600080fd5b919050565b60008060408385031215610c5557600080fd5b610c5e83610c26565b946020939093013593505050565b600060208284031215610c7e57600080fd5b81356001600160e01b031981168114610c9657600080fd5b9392505050565b600060208284031215610caf57600080fd5b610c9682610c26565b600060208284031215610cca57600080fd5b5035919050565b60008060408385031215610ce457600080fd5b82359150610cf460208401610c26565b90509250929050565b600080600060608486031215610d1257600080fd5b610d1b84610c26565b925060208401359150604084013560ff81168114610d3857600080fd5b809150509250925092565b634e487b7160e01b600052601160045260246000fd5b818103818111156104fc576104fc610d43565b60ff82811682821603908111156104fc576104fc610d43565b600181815b80851115610dc0578160001904821115610da657610da6610d43565b80851615610db357918102915b93841c9390800290610d8a565b509250929050565b600082610dd7575060016104fc565b81610de4575060006104fc565b8160018114610dfa5760028114610e0457610e20565b60019150506104fc565b60ff841115610e1557610e15610d43565b50506001821b6104fc565b5060208310610133831016604e8410600b8410161715610e43575081810a6104fc565b610e4d8383610d85565b8060001904821115610e6157610e61610d43565b029392505050565b6000610c9660ff841683610dc8565b80820281158282048414176104fc576104fc610d43565b600082610eac57634e487b7160e01b600052601260045260246000fd5b50049056fea2646970667358221220e594aedc34a0eebb284ca6bc594ccd2f3124dff4f82d7b7ea10b4199711cb73064736f6c63430008180033",
  "linkReferences": {},
  "deployedLinkReferences": {}
}