{
  "_format": "hh-sol-artifact-1",
  "contractName": "MockRewardDistributor",
  "sourceName": "contracts/mocks/MockRewardDistributor.sol",
  "abi": [
    {
      "inputs": [],
      "stateMutability": "nonpayable",
      "type": "constructor"
    },
    {
      "inputs": [],
      "name": "AccessControlBadConfirmation",
      "type": "error"
    },
    {
      "inputs": [
        {
          "internalType": "address",
          "name": "account",
          "type": "address"
        },
        {
          "internalType": "bytes32",
          "name": "neededRole",
          "type": "bytes32"
        }
      ],
      "name": "AccessControlUnauthorizedAccount",
      "type": "error"
    },
    {
      "anonymous": false,
      "inputs": [
        {
          "indexed": true,
          "internalType": "string",
          "name": "functionName",
          "type": "string"
        },
        {
          "indexed": true,
          "internalType": "address",
          "name": "caller",
          "type": "address"
        },
        {
          "indexed": false,
          "internalType": "bytes",
          "name": "data",
          "type": "bytes"
        }
      ],
      "name": "MockFunctionCalled",
      "type": "event"
    },
    {
      "anonymous": false,
      "inputs": [
        {
          "indexed": true,
          "internalType": "address",
          "name": "caller",
          "type": "address"
        }
      ],
      "name": "MockInitialized",
      "type": "event"
    },
    {
      "anonymous": false,
      "inputs": [],
      "name": "MockStateReset",
      "type": "event"
    },
    {
      "anonymous": false,
      "inputs": [
        {
          "indexed": false,
          "internalType": "address",
          "name": "token",
          "type": "address"
        },
        {
          "indexed": false,
          "internalType": "uint256",
          "name": "amount",
          "type": "uint256"
        }
      ],
      "name": "RewardReceived",
      "type": "event"
    },
    {
      "anonymous": false,
      "inputs": [
        {
          "indexed": true,
          "internalType": "bytes32",
          "name": "role",
          "type": "bytes32"
        },
        {
          "indexed": true,
          "internalType": "bytes32",
          "name": "previousAdminRole",
          "type": "bytes32"
        },
        {
          "indexed": true,
          "internalType": "bytes32",
          "name": "newAdminRole",
          "type": "bytes32"
        }
      ],
      "name": "RoleAdminChanged",
      "type": "event"
    },
    {
      "anonymous": false,
      "inputs": [
        {
          "indexed": true,
          "internalType": "bytes32",
          "name": "role",
          "type": "bytes32"
        },
        {
          "indexed": true,
          "internalType": "address",
          "name": "account",
          "type": "address"
        },
        {
          "indexed": true,
          "internalType": "address",
          "name": "sender",
          "type": "address"
        }
      ],
      "name": "RoleGranted",
      "type": "event"
    },
    {
      "anonymous": false,
      "inputs": [
        {
          "indexed": true,
          "internalType": "bytes32",
          "name": "role",
          "type": "bytes32"
        },
        {
          "indexed": true,
          "internalType": "address",
          "name": "account",
          "type": "address"
        },
        {
          "indexed": true,
          "internalType": "address",
          "name": "sender",
          "type": "address"
        }
      ],
      "name": "RoleRevoked",
      "type": "event"
    },
    {
      "inputs": [],
      "name": "DEFAULT_ADMIN_ROLE",
      "outputs": [
        {
          "internalType": "bytes32",
          "name": "",
          "type": "bytes32"
        }
      ],
      "stateMutability": "view",
      "type": "function"
    },
    {
      "inputs": [],
      "name": "callCount",
      "outputs": [
        {
          "internalType": "uint256",
          "name": "",
          "type": "uint256"
        }
      ],
      "stateMutability": "view",
      "type": "function"
    },
    {
      "inputs": [
        {
          "internalType": "string",
          "name": "",
          "type": "string"
        }
      ],
      "name": "functionCallCount",
      "outputs": [
        {
          "internalType": "uint256",
          "name": "",
          "type": "uint256"
        }
      ],
      "stateMutability": "view",
      "type": "function"
    },
    {
      "inputs": [
        {
          "internalType": "string",
          "name": "functionName",
          "type": "string"
        }
      ],
      "name": "getFunctionCallCount",
      "outputs": [
        {
          "internalType": "uint256",
          "name": "",
          "type": "uint256"
        }
      ],
      "stateMutability": "view",
      "type": "function"
    },
    {
      "inputs": [
        {
          "internalType": "string",
          "name": "functionName",
          "type": "string"
        }
      ],
      "name": "getFunctionCallHistory",
      "outputs": [
        {
          "internalType": "uint256",
          "name": "count",
          "type": "uint256"
        },
        {
          "internalType": "address",
          "name": "lastCaller_",
          "type": "address"
        },
        {
          "internalType": "bytes",
          "name": "lastData",
          "type": "bytes"
        }
      ],
      "stateMutability": "view",
      "type": "function"
    },
    {
      "inputs": [
        {
          "internalType": "bytes32",
          "name": "role",
          "type": "bytes32"
        }
      ],
      "name": "getRoleAdmin",
      "outputs": [
        {
          "internalType": "bytes32",
          "name": "",
          "type": "bytes32"
        }
      ],
      "stateMutability": "view",
      "type": "function"
    },
    {
      "inputs": [
        {
          "internalType": "bytes32",
          "name": "role",
          "type": "bytes32"
        },
        {
          "internalType": "address",
          "name": "account",
          "type": "address"
        }
      ],
      "name": "grantRole",
      "outputs": [],
      "stateMutability": "nonpayable",
      "type": "function"
    },
    {
      "inputs": [
        {
          "internalType": "bytes32",
          "name": "role",
          "type": "bytes32"
        },
        {
          "internalType": "address",
          "name": "account",
          "type": "address"
        }
      ],
      "name": "hasRole",
      "outputs": [
        {
          "internalType": "bool",
          "name": "",
          "type": "bool"
        }
      ],
      "stateMutability": "view",
      "type": "function"
    },
    {
      "inputs": [],
      "name": "initialize",
      "outputs": [],
      "stateMutability": "nonpayable",
      "type": "function"
    },
    {
      "inputs": [],
      "name": "initialized",
      "outputs": [
        {
          "internalType": "bool",
          "name": "",
          "type": "bool"
        }
      ],
      "stateMutability": "view",
      "type": "function"
    },
    {
      "inputs": [
        {
          "internalType": "string",
          "name": "",
          "type": "string"
        }
      ],
      "name": "lastCallData",
      "outputs": [
        {
          "internalType": "bytes",
          "name": "",
          "type": "bytes"
        }
      ],
      "stateMutability": "view",
      "type": "function"
    },
    {
      "inputs": [],
      "name": "lastCaller",
      "outputs": [
        {
          "internalType": "address",
          "name": "",
          "type": "address"
        }
      ],
      "stateMutability": "view",
      "type": "function"
    },
    {
      "inputs": [
        {
          "internalType": "string",
          "name": "",
          "type": "string"
        }
      ],
      "name": "lastCallerByFunction",
      "outputs": [
        {
          "internalType": "address",
          "name": "",
          "type": "address"
        }
      ],
      "stateMutability": "view",
      "type": "function"
    },
    {
      "inputs": [
        {
          "internalType": "address",
          "name": "from",
          "type": "address"
        },
        {
          "internalType": "uint256",
          "name": "amount",
          "type": "uint256"
        },
        {
          "internalType": "bytes",
          "name": "data",
          "type": "bytes"
        }
      ],
      "name": "onTokenTransfer",
      "outputs": [
        {
          "internalType": "bool",
          "name": "",
          "type": "bool"
        }
      ],
      "stateMutability": "nonpayable",
      "type": "function"
    },
    {
      "inputs": [],
      "name": "owner",
      "outputs": [
        {
          "internalType": "address",
          "name": "",
          "type": "address"
        }
      ],
      "stateMutability": "view",
      "type": "function"
    },
    {
      "inputs": [
        {
          "internalType": "address",
          "name": "token",
          "type": "address"
        },
        {
          "internalType": "uint256",
          "name": "amount",
          "type": "uint256"
        }
      ],
      "name": "receiveReward",
      "outputs": [],
      "stateMutability": "nonpayable",
      "type": "function"
    },
    {
      "inputs": [
        {
          "internalType": "address",
          "name": "",
          "type": "address"
        }
      ],
      "name": "receivedRewards",
      "outputs": [
        {
          "internalType": "uint256",
          "name": "",
          "type": "uint256"
        }
      ],
      "stateMutability": "view",
      "type": "function"
    },
    {
      "inputs": [
        {
          "internalType": "bytes32",
          "name": "role",
          "type": "bytes32"
        },
        {
          "internalType": "address",
          "name": "callerConfirmation",
          "type": "address"
        }
      ],
      "name": "renounceRole",
      "outputs": [],
      "stateMutability": "nonpayable",
      "type": "function"
    },
    {
      "inputs": [],
      "name": "reset",
      "outputs": [],
      "stateMutability": "nonpayable",
      "type": "function"
    },
    {
      "inputs": [
        {
          "internalType": "bytes32",
          "name": "role",
          "type": "bytes32"
        },
        {
          "internalType": "address",
          "name": "account",
          "type": "address"
        }
      ],
      "name": "revokeRole",
      "outputs": [],
      "stateMutability": "nonpayable",
      "type": "function"
    },
    {
      "inputs": [
        {
          "internalType": "bytes4",
          "name": "interfaceId",
          "type": "bytes4"
        }
      ],
      "name": "supportsInterface",
      "outputs": [
        {
          "internalType": "bool",
          "name": "",
          "type": "bool"
        }
      ],
      "stateMutability": "view",
      "type": "function"
    },
    {
      "inputs": [
        {
          "internalType": "string",
          "name": "functionName",
          "type": "string"
        }
      ],
      "name": "wasFunctionCalled",
      "outputs": [
        {
          "internalType": "bool",
          "name": "",
          "type": "bool"
        }
      ],
      "stateMutability": "view",
      "type": "function"
    },
    {
      "inputs": [
        {
          "internalType": "address",
          "name": "token",
          "type": "address"
        },
        {
          "internalType": "uint256",
          "name": "amount",
          "type": "uint256"
        }
      ],
      "name": "withdrawToken",
      "outputs": [],
      "stateMutability": "nonpayable",
      "type": "function"
    }
  ],
  "bytecode": "0x608060405234801561001057600080fd5b5061001c600033610034565b50600680546001600160a01b031916331790556100e0565b6000828152602081815260408083206001600160a01b038516845290915281205460ff166100d6576000838152602081815260408083206001600160a01b03861684529091529020805460ff1916600117905561008e3390565b6001600160a01b0316826001600160a01b0316847f2f8788117e7eff1d82e926ec794901d17c78024a50270940304540a733656f0d60405160405180910390a45060016100da565b5060005b92915050565b6111d3806100ef6000396000f3fe608060405234801561001057600080fd5b506004361061014d5760003560e01c80634b28f9a2116100c3578063a217fddf1161007c578063a217fddf14610321578063a4c0ed3614610329578063c054c6ce1461033c578063d547741f1461034f578063d826f88f14610362578063dfdbdd501461036a57600080fd5b80634b28f9a2146102b75780638129fc1c146102c057806385845c21146102c85780638da5cb5b146102e857806391d14854146102fb5780639e281a981461030e57600080fd5b80632113522a116101155780632113522a14610209578063248a9ca3146102215780632f2ff15d1461024457806336568abe146102575780633ca3910c1461026a578063422b010b1461028c57600080fd5b806301ffc9a714610152578063053ff9ee1461017a578063158ef93e1461018f5780631a82a6431461019c5780631df86bc6146101bd575b600080fd5b610165610160366004610cbd565b61038a565b60405190151581526020015b60405180910390f35b61018d610188366004610d0a565b6103c1565b005b6001546101659060ff1681565b6101af6101aa366004610d4a565b610498565b604051908152602001610171565b6101f16101cb366004610d4a565b80516020818301810180516005825292820191909301209152546001600160a01b031681565b6040516001600160a01b039091168152602001610171565b6001546101f19061010090046001600160a01b031681565b6101af61022f366004610dfb565b60009081526020819052604090206001015490565b61018d610252366004610e14565b6104c0565b61018d610265366004610e14565b6104eb565b61027d610278366004610d4a565b610523565b60405161017193929190610e90565b6101af61029a366004610d4a565b805160208183018101805160038252928201919093012091525481565b6101af60025481565b61018d610626565b6101af6102d6366004610ec3565b60076020526000908152604090205481565b6006546101f1906001600160a01b031681565b610165610309366004610e14565b6106b7565b61018d61031c366004610d0a565b6106e0565b6101af600081565b610165610337366004610ede565b61086c565b61016561034a366004610d4a565b610918565b61018d61035d366004610e14565b610942565b61018d610967565b61037d610378366004610d4a565b6109b3565b6040516101719190610f65565b60006001600160e01b03198216637965db0b60e01b14806103bb57506301ffc9a760e01b6001600160e01b03198316145b92915050565b6104256040518060400160405280600d81526020016c1c9958d95a5d9954995dd85c99609a1b81525083836040516020016104119291906001600160a01b03929092168252602082015260400190565b604051602081830303815290604052610a58565b6001600160a01b0382166000908152600760205260408120805483929061044d908490610f8e565b9091555050604080516001600160a01b0384168152602081018390527f9ac954606f877c9c9e6deec30e9265abff5a57c7123a34777ca9321eb6c26d8e910160405180910390a15050565b60006003826040516104aa9190610fa1565b9081526020016040518091039020549050919050565b6000828152602081905260409020600101546104db81610b76565b6104e58383610b83565b50505050565b6001600160a01b03811633146105145760405163334bd91960e11b815260040160405180910390fd5b61051e8282610c15565b505050565b60008060606003846040516105389190610fa1565b9081526020016040518091039020546005856040516105579190610fa1565b908152604051908190036020018120546001600160a01b03169060049061057f908890610fa1565b908152602001604051809103902080805461059990610fbd565b80601f01602080910402602001604051908101604052809291908181526020018280546105c590610fbd565b80156106125780601f106105e757610100808354040283529160200191610612565b820191906000526020600020905b8154815290600101906020018083116105f557829003601f168201915b505050505090509250925092509193909250565b60015460ff161561067e5760405162461bcd60e51b815260206004820152601d60248201527f426173654d6f636b3a20616c726561647920696e697469616c697a656400000060448201526064015b60405180910390fd5b6001805460ff19168117905560405133907f30f7074e868351008998491171b433e7342f255e986fef03e5eec84f01786f0190600090a2565b6000918252602082815260408084206001600160a01b0393909316845291905290205460ff1690565b6107306040518060400160405280600d81526020016c3bb4ba34323930bbaa37b5b2b760991b81525083836040516020016104119291906001600160a01b03929092168252602082015260400190565b6006546001600160a01b031633148061074f575061074f6000336106b7565b61078c5760405162461bcd60e51b815260206004820152600e60248201526d139bdd08185d5d1a1bdc9a5e995960921b6044820152606401610675565b60405163a9059cbb60e01b8152336004820152602481018290526001600160a01b0383169063a9059cbb906044016020604051808303816000875af11580156107d9573d6000803e3d6000fd5b505050506040513d601f19601f820116820180604052508101906107fd9190610ff7565b61083b5760405162461bcd60e51b815260206004820152600f60248201526e151c985b9cd9995c8819985a5b1959608a1b6044820152606401610675565b6001600160a01b03821660009081526007602052604081208054839290610863908490611019565b90915550505050565b60006108b06040518060400160405280600f81526020016e37b72a37b5b2b72a3930b739b332b960891b81525086868686604051602001610411949392919061102c565b33600090815260076020526040812080548692906108cf908490610f8e565b909155505060408051338152602081018690527f9ac954606f877c9c9e6deec30e9265abff5a57c7123a34777ca9321eb6c26d8e910160405180910390a1506001949350505050565b60008060038360405161092b9190610fa1565b908152602001604051809103902054119050919050565b60008281526020819052604090206001015461095d81610b76565b6104e58383610c15565b600061097281610b76565b600180546001600160a81b0319169055600060028190556040517f47f78a7a0acc7fff3657157dc253c5e6a68550995cc6f47bc2bd707ec67370fb9190a150565b8051602081830181018051600482529282019190930120915280546109d790610fbd565b80601f0160208091040260200160405190810160405280929190818152602001828054610a0390610fbd565b8015610a505780601f10610a2557610100808354040283529160200191610a50565b820191906000526020600020905b815481529060010190602001808311610a3357829003601f168201915b505050505081565b600382604051610a689190610fa1565b9081526040519081900360200190208054906000610a8583611074565b919050555080600483604051610a9b9190610fa1565b90815260200160405180910390209081610ab591906110dd565b5033600583604051610ac79190610fa1565b90815260405160209181900391909101902080546001600160a01b0319166001600160a01b039290921691909117905560018054610100600160a81b031916610100330217905560028054906000610b1e83611074565b90915550506040513390610b33908490610fa1565b60405180910390207f16b892c3de2f4b54dc114eff5c76ead156bac210353ee82615752957e1317df183604051610b6a9190610f65565b60405180910390a35050565b610b808133610c80565b50565b6000610b8f83836106b7565b610c0d576000838152602081815260408083206001600160a01b03861684529091529020805460ff19166001179055610bc53390565b6001600160a01b0316826001600160a01b0316847f2f8788117e7eff1d82e926ec794901d17c78024a50270940304540a733656f0d60405160405180910390a45060016103bb565b5060006103bb565b6000610c2183836106b7565b15610c0d576000838152602081815260408083206001600160a01b0386168085529252808320805460ff1916905551339286917ff6391f5c32d9c69d2a47ea670b442974b53935d1edc7fd64eb21e047a839171b9190a45060016103bb565b610c8a82826106b7565b610cb95760405163e2517d3f60e01b81526001600160a01b038216600482015260248101839052604401610675565b5050565b600060208284031215610ccf57600080fd5b81356001600160e01b031981168114610ce757600080fd5b9392505050565b80356001600160a01b0381168114610d0557600080fd5b919050565b60008060408385031215610d1d57600080fd5b610d2683610cee565b946020939093013593505050565b634e487b7160e01b600052604160045260246000fd5b600060208284031215610d5c57600080fd5b813567ffffffffffffffff80821115610d7457600080fd5b818401915084601f830112610d8857600080fd5b813581811115610d9a57610d9a610d34565b604051601f8201601f19908116603f01168101908382118183101715610dc257610dc2610d34565b81604052828152876020848701011115610ddb57600080fd5b826020860160208301376000928101602001929092525095945050505050565b600060208284031215610e0d57600080fd5b5035919050565b60008060408385031215610e2757600080fd5b82359150610e3760208401610cee565b90509250929050565b60005b83811015610e5b578181015183820152602001610e43565b50506000910152565b60008151808452610e7c816020860160208601610e40565b601f01601f19169290920160200192915050565b8381526001600160a01b0383166020820152606060408201819052600090610eba90830184610e64565b95945050505050565b600060208284031215610ed557600080fd5b610ce782610cee565b60008060008060608587031215610ef457600080fd5b610efd85610cee565b935060208501359250604085013567ffffffffffffffff80821115610f2157600080fd5b818701915087601f830112610f3557600080fd5b813581811115610f4457600080fd5b886020828501011115610f5657600080fd5b95989497505060200194505050565b602081526000610ce76020830184610e64565b634e487b7160e01b600052601160045260246000fd5b808201808211156103bb576103bb610f78565b60008251610fb3818460208701610e40565b9190910192915050565b600181811c90821680610fd157607f821691505b602082108103610ff157634e487b7160e01b600052602260045260246000fd5b50919050565b60006020828403121561100957600080fd5b81518015158114610ce757600080fd5b818103818111156103bb576103bb610f78565b6001600160a01b0385168152602081018490526060604082018190528101829052818360808301376000818301608090810191909152601f909201601f191601019392505050565b60006001820161108657611086610f78565b5060010190565b601f82111561051e576000816000526020600020601f850160051c810160208610156110b65750805b601f850160051c820191505b818110156110d5578281556001016110c2565b505050505050565b815167ffffffffffffffff8111156110f7576110f7610d34565b61110b816111058454610fbd565b8461108d565b602080601f83116001811461114057600084156111285750858301515b600019600386901b1c1916600185901b1785556110d5565b600085815260208120601f198616915b8281101561116f57888601518255948401946001909101908401611150565b508582101561118d5787850151600019600388901b60f8161c191681555b5050505050600190811b0190555056fea2646970667358221220cbd0df504ceebd5f0feec7490470789e474c5fda7432b9a4dd8540a30d1f8a3264736f6c63430008180033",
  "linkReferences": {},
  "deployedLinkReferences": {}
}