{"contracts/mocks/MockAggregator.sol":{"MockAggregator":{"abi":[{"inputs":[],"stateMutability":"nonpayable","type":"constructor"},{"inputs":[],"name":"InvalidPrice","type":"error"},{"inputs":[],"name":"InvalidTimestamp","type":"error"},{"inputs":[],"name":"NotImplemented","type":"error"},{"anonymous":false,"inputs":[{"indexed":true,"internalType":"int256","name":"price","type":"int256"},{"indexed":false,"internalType":"uint256","name":"timestamp","type":"uint256"}],"name":"PriceUpdated","type":"event"},{"anonymous":false,"inputs":[{"indexed":false,"internalType":"uint256","name":"timestamp","type":"uint256"}],"name":"TimestampUpdated","type":"event"},{"anonymous":false,"inputs":[{"indexed":false,"internalType":"uint256","name":"newVersion","type":"uint256"}],"name":"VersionUpdated","type":"event"},{"inputs":[],"name":"decimals","outputs":[{"internalType":"uint8","name":"","type":"uint8"}],"stateMutability":"view","type":"function"},{"inputs":[],"name":"description","outputs":[{"internalType":"string","name":"","type":"string"}],"stateMutability":"view","type":"function"},{"inputs":[{"internalType":"uint80","name":"","type":"uint80"}],"name":"getRoundData","outputs":[{"internalType":"uint80","name":"","type":"uint80"},{"internalType":"int256","name":"","type":"int256"},{"internalType":"uint256","name":"","type":"uint256"},{"internalType":"uint256","name":"","type":"uint256"},{"internalType":"uint80","name":"","type":"uint80"}],"stateMutability":"pure","type":"function"},{"inputs":[],"name":"latestRoundData","outputs":[{"internalType":"uint80","name":"roundId","type":"uint80"},{"internalType":"int256","name":"answer","type":"int256"},{"internalType":"uint256","name":"startedAt","type":"uint256"},{"internalType":"uint256","name":"updatedAt","type":"uint256"},{"internalType":"uint80","name":"answeredInRound","type":"uint80"}],"stateMutability":"view","type":"function"},{"inputs":[{"internalType":"int256","name":"_price","type":"int256"}],"name":"setPrice","outputs":[],"stateMutability":"nonpayable","type":"function"},{"inputs":[{"internalType":"uint256","name":"timestamp","type":"uint256"}],"name":"setUpdatedAt","outputs":[],"stateMutability":"nonpayable","type":"function"},{"inputs":[{"internalType":"uint256","name":"newVersion","type":"uint256"}],"name":"updateVersion","outputs":[],"stateMutability":"nonpayable","type":"function"},{"inputs":[],"name":"version","outputs":[{"internalType":"uint256","name":"","type":"uint256"}],"stateMutability":"view","type":"function"}],"evm":{"bytecode":{"linkReferences":{},"object":"608060405234801561001057600080fd5b506000805460ff191660081790556402540be4006001554260025560408051808201909152601981527f4d6f636b20436861696e6c696e6b2041676772656761746f7200000000000000602082015260039061006c9082610118565b5060026004556101d7565b634e487b7160e01b600052604160045260246000fd5b600181811c908216806100a157607f821691505b6020821081036100c157634e487b7160e01b600052602260045260246000fd5b50919050565b601f821115610113576000816000526020600020601f850160051c810160208610156100f05750805b601f850160051c820191505b8181101561010f578281556001016100fc565b5050505b505050565b81516001600160401b0381111561013157610131610077565b6101458161013f845461008d565b846100c7565b602080601f83116001811461017a57600084156101625750858301515b600019600386901b1c1916600185901b17855561010f565b600085815260208120601f198616915b828110156101a95788860151825594840194600190910190840161018a565b50858210156101c75787850151600019600388901b60f8161c191681555b5050505050600190811b01905550565b610419806101e66000396000f3fe608060405234801561001057600080fd5b50600436106100885760003560e01c80639a6fc8f51161005b5780639a6fc8f5146100ec578063a87f884e14610136578063f7a3080614610149578063feaf968c1461015c57600080fd5b80631ecc7d881461008d578063313ce567146100a257806354fd4d50146100c65780637284e416146100d7575b600080fd5b6100a061009b36600461030e565b61016a565b005b6000546100af9060ff1681565b60405160ff90911681526020015b60405180910390f35b6004546040519081526020016100bd565b6100df6101c7565b6040516100bd9190610327565b6100ff6100fa366004610376565b610255565b6040805169ffffffffffffffffffff968716815260208101959095528401929092526060830152909116608082015260a0016100bd565b6100a061014436600461030e565b610276565b6100a061015736600461030e565b6102ab565b6001546000908180806100ff565b4281111561018b5760405163b7d0949760e01b815260040160405180910390fd5b60028190556040518181527f23d74789e9e72a6c6bd7bef034f43002da342ca24d96afca64e4a4272af52318906020015b60405180910390a150565b600380546101d4906103a9565b80601f0160208091040260200160405190810160405280929190818152602001828054610200906103a9565b801561024d5780601f106102225761010080835404028352916020019161024d565b820191906000526020600020905b81548152906001019060200180831161023057829003601f168201915b505050505081565b600080600080600060405163d623472560e01b815260040160405180910390fd5b60048190556040518181527f59db93bc99b9f7969498ee07cf8b31f5dd3c7b7c4dec295bd27c025ecafc8d20906020016101bc565b600081136102cb5760405162bfc92160e01b815260040160405180910390fd5b600181905542600281905560405190815281907fdb6fb3cf4cc5fb760bcd63b958a53b2396776dff32c063188e864296541e76bd9060200160405180910390a250565b60006020828403121561032057600080fd5b5035919050565b60006020808352835180602085015260005b8181101561035557858101830151858201604001528201610339565b506000604082860101526040601f19601f8301168501019250505092915050565b60006020828403121561038857600080fd5b813569ffffffffffffffffffff811681146103a257600080fd5b9392505050565b600181811c908216806103bd57607f821691505b6020821081036103dd57634e487b7160e01b600052602260045260246000fd5b5091905056fea2646970667358221220f9048f66595fe7681b20c90c7290f760cd76b77b281bd8a95c54c533e6defad564736f6c63430008180033","opcodes":"PUSH1 0x80 PUSH1 0x40 MSTORE CALLVALUE DUP1 ISZERO PUSH2 0x10 JUMPI PUSH1 0x0 DUP1 REVERT JUMPDEST POP PUSH1 0x0 DUP1 SLOAD PUSH1 0xFF NOT AND PUSH1 0x8 OR SWAP1 SSTORE PUSH5 0x2540BE400 PUSH1 0x1 SSTORE TIMESTAMP PUSH1 0x2 SSTORE PUSH1 0x40 DUP1 MLOAD DUP1 DUP3 ADD SWAP1 SWAP2 MSTORE PUSH1 0x19 DUP2 MSTORE PUSH32 0x4D6F636B20436861696E6C696E6B2041676772656761746F7200000000000000 PUSH1 0x20 DUP3 ADD MSTORE PUSH1 0x3 SWAP1 PUSH2 0x6C SWAP1 DUP3 PUSH2 0x118 JUMP JUMPDEST POP PUSH1 0x2 PUSH1 0x4 SSTORE PUSH2 0x1D7 JUMP JUMPDEST PUSH4 0x4E487B71 PUSH1 0xE0 SHL PUSH1 0x0 MSTORE PUSH1 0x41 PUSH1 0x4 MSTORE PUSH1 0x24 PUSH1 0x0 REVERT JUMPDEST PUSH1 0x1 DUP2 DUP2 SHR SWAP1 DUP3 AND DUP1 PUSH2 0xA1 JUMPI PUSH1 0x7F DUP3 AND SWAP2 POP JUMPDEST PUSH1 0x20 DUP3 LT DUP2 SUB PUSH2 0xC1 JUMPI PUSH4 0x4E487B71 PUSH1 0xE0 SHL PUSH1 0x0 MSTORE PUSH1 0x22 PUSH1 0x4 MSTORE PUSH1 0x24 PUSH1 0x0 REVERT JUMPDEST POP SWAP2 SWAP1 POP JUMP JUMPDEST PUSH1 0x1F DUP3 GT ISZERO PUSH2 0x113 JUMPI PUSH1 0x0 DUP2 PUSH1 0x0 MSTORE PUSH1 0x20 PUSH1 0x0 KECCAK256 PUSH1 0x1F DUP6 ADD PUSH1 0x5 SHR DUP2 ADD PUSH1 0x20 DUP7 LT ISZERO PUSH2 0xF0 JUMPI POP DUP1 JUMPDEST PUSH1 0x1F DUP6 ADD PUSH1 0x5 SHR DUP3 ADD SWAP2 POP JUMPDEST DUP2 DUP2 LT ISZERO PUSH2 0x10F JUMPI DUP3 DUP2 SSTORE PUSH1 0x1 ADD PUSH2 0xFC JUMP JUMPDEST POP POP POP JUMPDEST POP POP POP JUMP JUMPDEST DUP2 MLOAD PUSH1 0x1 PUSH1 0x1 PUSH1 0x40 SHL SUB DUP2 GT ISZERO PUSH2 0x131 JUMPI PUSH2 0x131 PUSH2 0x77 JUMP JUMPDEST PUSH2 0x145 DUP2 PUSH2 0x13F DUP5 SLOAD PUSH2 0x8D JUMP JUMPDEST DUP5 PUSH2 0xC7 JUMP JUMPDEST PUSH1 0x20 DUP1 PUSH1 0x1F DUP4 GT PUSH1 0x1 DUP2 EQ PUSH2 0x17A JUMPI PUSH1 0x0 DUP5 ISZERO PUSH2 0x162 JUMPI POP DUP6 DUP4 ADD MLOAD JUMPDEST PUSH1 0x0 NOT PUSH1 0x3 DUP7 SWAP1 SHL SHR NOT AND PUSH1 0x1 DUP6 SWAP1 SHL OR DUP6 SSTORE PUSH2 0x10F JUMP JUMPDEST PUSH1 0x0 DUP6 DUP2 MSTORE PUSH1 0x20 DUP2 KECCAK256 PUSH1 0x1F NOT DUP7 AND SWAP2 JUMPDEST DUP3 DUP2 LT ISZERO PUSH2 0x1A9 JUMPI DUP9 DUP7 ADD MLOAD DUP3 SSTORE SWAP5 DUP5 ADD SWAP5 PUSH1 0x1 SWAP1 SWAP2 ADD SWAP1 DUP5 ADD PUSH2 0x18A JUMP JUMPDEST POP DUP6 DUP3 LT ISZERO PUSH2 0x1C7 JUMPI DUP8 DUP6 ADD MLOAD PUSH1 0x0 NOT PUSH1 0x3 DUP9 SWAP1 SHL PUSH1 0xF8 AND SHR NOT AND DUP2 SSTORE JUMPDEST POP POP POP POP POP PUSH1 0x1 SWAP1 DUP2 SHL ADD SWAP1 SSTORE POP JUMP JUMPDEST PUSH2 0x419 DUP1 PUSH2 0x1E6 PUSH1 0x0 CODECOPY PUSH1 0x0 RETURN INVALID PUSH1 0x80 PUSH1 0x40 MSTORE CALLVALUE DUP1 ISZERO PUSH2 0x10 JUMPI PUSH1 0x0 DUP1 REVERT JUMPDEST POP PUSH1 0x4 CALLDATASIZE LT PUSH2 0x88 JUMPI PUSH1 0x0 CALLDATALOAD PUSH1 0xE0 SHR DUP1 PUSH4 0x9A6FC8F5 GT PUSH2 0x5B JUMPI DUP1 PUSH4 0x9A6FC8F5 EQ PUSH2 0xEC JUMPI DUP1 PUSH4 0xA87F884E EQ PUSH2 0x136 JUMPI DUP1 PUSH4 0xF7A30806 EQ PUSH2 0x149 JUMPI DUP1 PUSH4 0xFEAF968C EQ PUSH2 0x15C JUMPI PUSH1 0x0 DUP1 REVERT JUMPDEST DUP1 PUSH4 0x1ECC7D88 EQ PUSH2 0x8D JUMPI DUP1 PUSH4 0x313CE567 EQ PUSH2 0xA2 JUMPI DUP1 PUSH4 0x54FD4D50 EQ PUSH2 0xC6 JUMPI DUP1 PUSH4 0x7284E416 EQ PUSH2 0xD7 JUMPI JUMPDEST PUSH1 0x0 DUP1 REVERT JUMPDEST PUSH2 0xA0 PUSH2 0x9B CALLDATASIZE PUSH1 0x4 PUSH2 0x30E JUMP JUMPDEST PUSH2 0x16A JUMP JUMPDEST STOP JUMPDEST PUSH1 0x0 SLOAD PUSH2 0xAF SWAP1 PUSH1 0xFF AND DUP2 JUMP JUMPDEST PUSH1 0x40 MLOAD PUSH1 0xFF SWAP1 SWAP2 AND DUP2 MSTORE PUSH1 0x20 ADD JUMPDEST PUSH1 0x40 MLOAD DUP1 SWAP2 SUB SWAP1 RETURN JUMPDEST PUSH1 0x4 SLOAD PUSH1 0x40 MLOAD SWAP1 DUP2 MSTORE PUSH1 0x20 ADD PUSH2 0xBD JUMP JUMPDEST PUSH2 0xDF PUSH2 0x1C7 JUMP JUMPDEST PUSH1 0x40 MLOAD PUSH2 0xBD SWAP2 SWAP1 PUSH2 0x327 JUMP JUMPDEST PUSH2 0xFF PUSH2 0xFA CALLDATASIZE PUSH1 0x4 PUSH2 0x376 JUMP JUMPDEST PUSH2 0x255 JUMP JUMPDEST PUSH1 0x40 DUP1 MLOAD PUSH10 0xFFFFFFFFFFFFFFFFFFFF SWAP7 DUP8 AND DUP2 MSTORE PUSH1 0x20 DUP2 ADD SWAP6 SWAP1 SWAP6 MSTORE DUP5 ADD SWAP3 SWAP1 SWAP3 MSTORE PUSH1 0x60 DUP4 ADD MSTORE SWAP1 SWAP2 AND PUSH1 0x80 DUP3 ADD MSTORE PUSH1 0xA0 ADD PUSH2 0xBD JUMP JUMPDEST PUSH2 0xA0 PUSH2 0x144 CALLDATASIZE PUSH1 0x4 PUSH2 0x30E JUMP JUMPDEST PUSH2 0x276 JUMP JUMPDEST PUSH2 0xA0 PUSH2 0x157 CALLDATASIZE PUSH1 0x4 PUSH2 0x30E JUMP JUMPDEST PUSH2 0x2AB JUMP JUMPDEST PUSH1 0x1 SLOAD PUSH1 0x0 SWAP1 DUP2 DUP1 DUP1 PUSH2 0xFF JUMP JUMPDEST TIMESTAMP DUP2 GT ISZERO PUSH2 0x18B JUMPI PUSH1 0x40 MLOAD PUSH4 0xB7D09497 PUSH1 0xE0 SHL DUP2 MSTORE PUSH1 0x4 ADD PUSH1 0x40 MLOAD DUP1 SWAP2 SUB SWAP1 REVERT JUMPDEST PUSH1 0x2 DUP2 SWAP1 SSTORE PUSH1 0x40 MLOAD DUP2 DUP2 MSTORE PUSH32 0x23D74789E9E72A6C6BD7BEF034F43002DA342CA24D96AFCA64E4A4272AF52318 SWAP1 PUSH1 0x20 ADD JUMPDEST PUSH1 0x40 MLOAD DUP1 SWAP2 SUB SWAP1 LOG1 POP JUMP JUMPDEST PUSH1 0x3 DUP1 SLOAD PUSH2 0x1D4 SWAP1 PUSH2 0x3A9 JUMP JUMPDEST DUP1 PUSH1 0x1F ADD PUSH1 0x20 DUP1 SWAP2 DIV MUL PUSH1 0x20 ADD PUSH1 0x40 MLOAD SWAP1 DUP2 ADD PUSH1 0x40 MSTORE DUP1 SWAP3 SWAP2 SWAP1 DUP2 DUP2 MSTORE PUSH1 0x20 ADD DUP3 DUP1 SLOAD PUSH2 0x200 SWAP1 PUSH2 0x3A9 JUMP JUMPDEST DUP1 ISZERO PUSH2 0x24D JUMPI DUP1 PUSH1 0x1F LT PUSH2 0x222 JUMPI PUSH2 0x100 DUP1 DUP4 SLOAD DIV MUL DUP4 MSTORE SWAP2 PUSH1 0x20 ADD SWAP2 PUSH2 0x24D JUMP JUMPDEST DUP3 ADD SWAP2 SWAP1 PUSH1 0x0 MSTORE PUSH1 0x20 PUSH1 0x0 KECCAK256 SWAP1 JUMPDEST DUP2 SLOAD DUP2 MSTORE SWAP1 PUSH1 0x1 ADD SWAP1 PUSH1 0x20 ADD DUP1 DUP4 GT PUSH2 0x230 JUMPI DUP3 SWAP1 SUB PUSH1 0x1F AND DUP3 ADD SWAP2 JUMPDEST POP POP POP POP POP DUP2 JUMP JUMPDEST PUSH1 0x0 DUP1 PUSH1 0x0 DUP1 PUSH1 0x0 PUSH1 0x40 MLOAD PUSH4 0xD6234725 PUSH1 0xE0 SHL DUP2 MSTORE PUSH1 0x4 ADD PUSH1 0x40 MLOAD DUP1 SWAP2 SUB SWAP1 REVERT JUMPDEST PUSH1 0x4 DUP2 SWAP1 SSTORE PUSH1 0x40 MLOAD DUP2 DUP2 MSTORE PUSH32 0x59DB93BC99B9F7969498EE07CF8B31F5DD3C7B7C4DEC295BD27C025ECAFC8D20 SWAP1 PUSH1 0x20 ADD PUSH2 0x1BC JUMP JUMPDEST PUSH1 0x0 DUP2 SGT PUSH2 0x2CB JUMPI PUSH1 0x40 MLOAD PUSH3 0xBFC921 PUSH1 0xE0 SHL DUP2 MSTORE PUSH1 0x4 ADD PUSH1 0x40 MLOAD DUP1 SWAP2 SUB SWAP1 REVERT JUMPDEST PUSH1 0x1 DUP2 SWAP1 SSTORE TIMESTAMP PUSH1 0x2 DUP2 SWAP1 SSTORE PUSH1 0x40 MLOAD SWAP1 DUP2 MSTORE DUP2 SWAP1 PUSH32 0xDB6FB3CF4CC5FB760BCD63B958A53B2396776DFF32C063188E864296541E76BD SWAP1 PUSH1 0x20 ADD PUSH1 0x40 MLOAD DUP1 SWAP2 SUB SWAP1 LOG2 POP JUMP JUMPDEST PUSH1 0x0 PUSH1 0x20 DUP3 DUP5 SUB SLT ISZERO PUSH2 0x320 JUMPI PUSH1 0x0 DUP1 REVERT JUMPDEST POP CALLDATALOAD SWAP2 SWAP1 POP JUMP JUMPDEST PUSH1 0x0 PUSH1 0x20 DUP1 DUP4 MSTORE DUP4 MLOAD DUP1 PUSH1 0x20 DUP6 ADD MSTORE PUSH1 0x0 JUMPDEST DUP2 DUP2 LT ISZERO PUSH2 0x355 JUMPI DUP6 DUP2 ADD DUP4 ADD MLOAD DUP6 DUP3 ADD PUSH1 0x40 ADD MSTORE DUP3 ADD PUSH2 0x339 JUMP JUMPDEST POP PUSH1 0x0 PUSH1 0x40 DUP3 DUP7 ADD ADD MSTORE PUSH1 0x40 PUSH1 0x1F NOT PUSH1 0x1F DUP4 ADD AND DUP6 ADD ADD SWAP3 POP POP POP SWAP3 SWAP2 POP POP JUMP JUMPDEST PUSH1 0x0 PUSH1 0x20 DUP3 DUP5 SUB SLT ISZERO PUSH2 0x388 JUMPI PUSH1 0x0 DUP1 REVERT JUMPDEST DUP2 CALLDATALOAD PUSH10 0xFFFFFFFFFFFFFFFFFFFF DUP2 AND DUP2 EQ PUSH2 0x3A2 JUMPI PUSH1 0x0 DUP1 REVERT JUMPDEST SWAP4 SWAP3 POP POP POP JUMP JUMPDEST PUSH1 0x1 DUP2 DUP2 SHR SWAP1 DUP3 AND DUP1 PUSH2 0x3BD JUMPI PUSH1 0x7F DUP3 AND SWAP2 POP JUMPDEST PUSH1 0x20 DUP3 LT DUP2 SUB PUSH2 0x3DD JUMPI PUSH4 0x4E487B71 PUSH1 0xE0 SHL PUSH1 0x0 MSTORE PUSH1 0x22 PUSH1 0x4 MSTORE PUSH1 0x24 PUSH1 0x0 REVERT JUMPDEST POP SWAP2 SWAP1 POP JUMP INVALID LOG2 PUSH5 0x6970667358 0x22 SLT KECCAK256 0xF9 DIV DUP16 PUSH7 0x595FE7681B20C9 0xC PUSH19 0x90F760CD76B77B281BD8A95C54C533E6DEFAD5 PUSH5 0x736F6C6343 STOP ADDMOD XOR STOP CALLER "},"methodIdentifiers":{"decimals()":"313ce567","description()":"7284e416","getRoundData(uint80)":"9a6fc8f5","latestRoundData()":"feaf968c","setPrice(int256)":"f7a30806","setUpdatedAt(uint256)":"1ecc7d88","updateVersion(uint256)":"a87f884e","version()":"54fd4d50"}}}}}