{"contracts/oracles/ChainlinkPriceOracle.sol":{"ChainlinkPriceOracle":{"abi":[{"inputs":[{"internalType":"address","name":"admin","type":"address"}],"stateMutability":"nonpayable","type":"constructor"},{"inputs":[],"name":"AccessControlBadConfirmation","type":"error"},{"inputs":[{"internalType":"address","name":"account","type":"address"},{"internalType":"bytes32","name":"neededRole","type":"bytes32"}],"name":"AccessControlUnauthorizedAccount","type":"error"},{"inputs":[],"name":"FallbackPriceStale","type":"error"},{"inputs":[],"name":"InvalidAggregator","type":"error"},{"inputs":[],"name":"InvalidPriceOrUpdate","type":"error"},{"inputs":[],"name":"ReliabilityOutOfRange","type":"error"},{"anonymous":false,"inputs":[{"indexed":true,"internalType":"address","name":"token","type":"address"},{"indexed":false,"internalType":"uint256","name":"price","type":"uint256"},{"indexed":false,"internalType":"uint8","name":"decimals","type":"uint8"}],"name":"FallbackPriceSet","type":"event"},{"anonymous":false,"inputs":[{"indexed":true,"internalType":"address","name":"token","type":"address"},{"indexed":false,"internalType":"uint256","name":"price","type":"uint256"},{"indexed":false,"internalType":"uint8","name":"decimals","type":"uint8"}],"name":"FallbackUsed","type":"event"},{"anonymous":false,"inputs":[{"indexed":true,"internalType":"address","name":"token","type":"address"}],"name":"FeedRemoved","type":"event"},{"anonymous":false,"inputs":[{"indexed":true,"internalType":"address","name":"token","type":"address"},{"indexed":true,"internalType":"address","name":"aggregator","type":"address"},{"indexed":false,"internalType":"uint256","name":"maxStaleness","type":"uint256"},{"indexed":false,"internalType":"uint256","name":"heartbeat","type":"uint256"},{"indexed":false,"internalType":"uint8","name":"reliabilityScore","type":"uint8"}],"name":"FeedSet","type":"event"},{"anonymous":false,"inputs":[{"indexed":true,"internalType":"address","name":"token","type":"address"},{"indexed":false,"internalType":"uint256","name":"updatedAt","type":"uint256"},{"indexed":false,"internalType":"uint256","name":"maxStaleness","type":"uint256"}],"name":"PriceStale","type":"event"},{"anonymous":false,"inputs":[{"indexed":true,"internalType":"bytes32","name":"role","type":"bytes32"},{"indexed":true,"internalType":"bytes32","name":"previousAdminRole","type":"bytes32"},{"indexed":true,"internalType":"bytes32","name":"newAdminRole","type":"bytes32"}],"name":"RoleAdminChanged","type":"event"},{"anonymous":false,"inputs":[{"indexed":true,"internalType":"bytes32","name":"role","type":"bytes32"},{"indexed":true,"internalType":"address","name":"account","type":"address"},{"indexed":true,"internalType":"address","name":"sender","type":"address"}],"name":"RoleGranted","type":"event"},{"anonymous":false,"inputs":[{"indexed":true,"internalType":"bytes32","name":"role","type":"bytes32"},{"indexed":true,"internalType":"address","name":"account","type":"address"},{"indexed":true,"internalType":"address","name":"sender","type":"address"}],"name":"RoleRevoked","type":"event"},{"inputs":[],"name":"ADMIN_ROLE","outputs":[{"internalType":"bytes32","name":"","type":"bytes32"}],"stateMutability":"view","type":"function"},{"inputs":[],"name":"DEFAULT_ADMIN_ROLE","outputs":[{"internalType":"bytes32","name":"","type":"bytes32"}],"stateMutability":"view","type":"function"},{"inputs":[],"name":"FEED_MANAGER_ROLE","outputs":[{"internalType":"bytes32","name":"","type":"bytes32"}],"stateMutability":"view","type":"function"},{"inputs":[],"name":"defaultDecimals","outputs":[{"internalType":"uint8","name":"","type":"uint8"}],"stateMutability":"view","type":"function"},{"inputs":[{"internalType":"address","name":"","type":"address"}],"name":"fallbackDecimals","outputs":[{"internalType":"uint8","name":"","type":"uint8"}],"stateMutability":"view","type":"function"},{"inputs":[{"internalType":"address","name":"","type":"address"}],"name":"fallbackLastUpdated","outputs":[{"internalType":"uint256","name":"","type":"uint256"}],"stateMutability":"view","type":"function"},{"inputs":[{"internalType":"address","name":"","type":"address"}],"name":"fallbackPrices","outputs":[{"internalType":"uint256","name":"","type":"uint256"}],"stateMutability":"view","type":"function"},{"inputs":[],"name":"fallbackStaleness","outputs":[{"internalType":"uint256","name":"","type":"uint256"}],"stateMutability":"view","type":"function"},{"inputs":[{"internalType":"address","name":"","type":"address"}],"name":"feeds","outputs":[{"internalType":"contract AggregatorV3Interface","name":"aggregator","type":"address"},{"internalType":"uint256","name":"maxStaleness","type":"uint256"},{"internalType":"uint256","name":"heartbeat","type":"uint256"},{"internalType":"uint8","name":"reliabilityScore","type":"uint8"},{"internalType":"bool","name":"exists","type":"bool"}],"stateMutability":"view","type":"function"},{"inputs":[{"internalType":"address","name":"token","type":"address"}],"name":"getAssetDecimals","outputs":[{"internalType":"uint8","name":"","type":"uint8"}],"stateMutability":"view","type":"function"},{"inputs":[{"internalType":"address","name":"token","type":"address"}],"name":"getAssetPrice","outputs":[{"internalType":"uint256","name":"","type":"uint256"}],"stateMutability":"view","type":"function"},{"inputs":[{"internalType":"bytes32","name":"role","type":"bytes32"}],"name":"getRoleAdmin","outputs":[{"internalType":"bytes32","name":"","type":"bytes32"}],"stateMutability":"view","type":"function"},{"inputs":[{"internalType":"bytes32","name":"role","type":"bytes32"},{"internalType":"address","name":"account","type":"address"}],"name":"grantRole","outputs":[],"stateMutability":"nonpayable","type":"function"},{"inputs":[{"internalType":"bytes32","name":"role","type":"bytes32"},{"internalType":"address","name":"account","type":"address"}],"name":"hasRole","outputs":[{"internalType":"bool","name":"","type":"bool"}],"stateMutability":"view","type":"function"},{"inputs":[{"internalType":"address","name":"token","type":"address"}],"name":"removeFeed","outputs":[],"stateMutability":"nonpayable","type":"function"},{"inputs":[{"internalType":"bytes32","name":"role","type":"bytes32"},{"internalType":"address","name":"callerConfirmation","type":"address"}],"name":"renounceRole","outputs":[],"stateMutability":"nonpayable","type":"function"},{"inputs":[{"internalType":"bytes32","name":"role","type":"bytes32"},{"internalType":"address","name":"account","type":"address"}],"name":"revokeRole","outputs":[],"stateMutability":"nonpayable","type":"function"},{"inputs":[{"internalType":"address","name":"token","type":"address"},{"internalType":"uint256","name":"price","type":"uint256"},{"internalType":"uint8","name":"decimals","type":"uint8"}],"name":"setFallbackPrice","outputs":[],"stateMutability":"nonpayable","type":"function"},{"inputs":[{"internalType":"uint256","name":"newStaleness","type":"uint256"}],"name":"setFallbackStaleness","outputs":[],"stateMutability":"nonpayable","type":"function"},{"inputs":[{"internalType":"address","name":"token","type":"address"},{"internalType":"address","name":"aggregator","type":"address"},{"internalType":"uint256","name":"maxStaleness","type":"uint256"},{"internalType":"uint256","name":"heartbeat","type":"uint256"},{"internalType":"uint8","name":"reliabilityScore","type":"uint8"}],"name":"setFeed","outputs":[],"stateMutability":"nonpayable","type":"function"},{"inputs":[{"internalType":"address","name":"token","type":"address"}],"name":"supportsAsset","outputs":[{"internalType":"bool","name":"","type":"bool"}],"stateMutability":"view","type":"function"},{"inputs":[{"internalType":"bytes4","name":"interfaceId","type":"bytes4"}],"name":"supportsInterface","outputs":[{"internalType":"bool","name":"","type":"bool"}],"stateMutability":"view","type":"function"}],"evm":{"bytecode":{"linkReferences":{},"object":"60806040526002805460ff19166008179055620151806006553480156200002557600080fd5b506040516200121438038062001214833981016040819052620000489162000166565b62000055600082620000b7565b50620000827fa49807205ce4d355092ef5a8a18f56e8913cf4a201fbe287825b095693c2177582620000b7565b50620000af7fddbe48f52bb812894c8051224ff4457244fc2b78c8caa3e39179c65d4b6de41282620000b7565b505062000198565b6000828152602081815260408083206001600160a01b038516845290915281205460ff166200015c576000838152602081815260408083206001600160a01b03861684529091529020805460ff19166001179055620001133390565b6001600160a01b0316826001600160a01b0316847f2f8788117e7eff1d82e926ec794901d17c78024a50270940304540a733656f0d60405160405180910390a450600162000160565b5060005b92915050565b6000602082840312156200017957600080fd5b81516001600160a01b03811681146200019157600080fd5b9392505050565b61106c80620001a86000396000f3fe608060405234801561001057600080fd5b50600436106101415760003560e01c8063541e2b36116100b8578063a217fddf1161007c578063a217fddf1461036b578063a9322d6c14610373578063aa388af614610396578063b3596f07146103a9578063d547741f146103bc578063eecf8e83146103cf57600080fd5b8063541e2b36146102e457806375b238fc146102f757806391d148541461031e57806398e39360146103315780639efd6f721461035857600080fd5b80632fba4aa91161010a5780632fba4aa9146101e757806330f08abd1461026c57806336568abe1461028b5780634466a1361461029e57806344efe61c146102be5780634b90fd69146102d157600080fd5b80623d73d01461014657806301ffc9a71461015b578063241d3a0b14610183578063248a9ca3146101b15780632f2ff15d146101d4575b600080fd5b610159610154366004610d1c565b6103d8565b005b61016e610169366004610d5c565b61047f565b60405190151581526020015b60405180910390f35b6101a3610191366004610d86565b60036020526000908152604090205481565b60405190815260200161017a565b6101a36101bf366004610da1565b60009081526020819052604090206001015490565b6101596101e2366004610dba565b6104b6565b6102356101f5366004610d86565b600160208190526000918252604090912080549181015460028201546003909201546001600160a01b039093169290919060ff8082169161010090041685565b604080516001600160a01b03909616865260208601949094529284019190915260ff1660608301521515608082015260a00161017a565b6002546102799060ff1681565b60405160ff909116815260200161017a565b610159610299366004610dba565b6104e1565b6101a36102ac366004610d86565b60056020526000908152604090205481565b6101596102cc366004610de6565b610519565b6101596102df366004610d86565b6106da565b6101596102f2366004610da1565b610771565b6101a37fa49807205ce4d355092ef5a8a18f56e8913cf4a201fbe287825b095693c2177581565b61016e61032c366004610dba565b6107a1565b6101a37fddbe48f52bb812894c8051224ff4457244fc2b78c8caa3e39179c65d4b6de41281565b610279610366366004610d86565b6107ca565b6101a3600081565b610279610381366004610d86565b60046020526000908152604090205460ff1681565b61016e6103a4366004610d86565b61083f565b6101a36103b7366004610d86565b610887565b6101596103ca366004610dba565b61091a565b6101a360065481565b7fa49807205ce4d355092ef5a8a18f56e8913cf4a201fbe287825b095693c217756104028161093f565b6001600160a01b038416600081815260036020908152604080832087905560048252808320805460ff191660ff881690811790915560058352928190204290558051878152918201929092527f6114bb8ca4e5de91bee9b4322168eee094b4249d729913ba34a4170230eb23b6910160405180910390a250505050565b60006001600160e01b03198216637965db0b60e01b14806104b057506301ffc9a760e01b6001600160e01b03198316145b92915050565b6000828152602081905260409020600101546104d18161093f565b6104db838361094c565b50505050565b6001600160a01b038116331461050a5760405163334bd91960e11b815260040160405180910390fd5b61051482826109de565b505050565b7fddbe48f52bb812894c8051224ff4457244fc2b78c8caa3e39179c65d4b6de4126105438161093f565b6001600160a01b03851661056a5760405163029a68ed60e41b815260040160405180910390fd5b60648260ff16111561058f5760405163178a172360e01b815260040160405180910390fd5b6040518060a00160405280866001600160a01b031681526020018581526020018481526020018360ff1681526020016001151581525060016000886001600160a01b03166001600160a01b0316815260200190815260200160002060008201518160000160006101000a8154816001600160a01b0302191690836001600160a01b03160217905550602082015181600101556040820151816002015560608201518160030160006101000a81548160ff021916908360ff16021790555060808201518160030160016101000a81548160ff021916908315150217905550905050846001600160a01b0316866001600160a01b03167fcf5a4efbc4cbf1cb08380904170d5bdaf3d4db97ca62b0f32745bd3ee2a9eee08686866040516106ca93929190928352602083019190915260ff16604082015260600190565b60405180910390a3505050505050565b7fddbe48f52bb812894c8051224ff4457244fc2b78c8caa3e39179c65d4b6de4126107048161093f565b6001600160a01b038216600081815260016020819052604080832080546001600160a01b0319168155918201839055600282018390556003909101805461ffff19169055517f80502f8484874852e0b4f9360dc6004a3fc5a00fa2b3339ebfdc1a419ceb7dac9190a25050565b7fa49807205ce4d355092ef5a8a18f56e8913cf4a201fbe287825b095693c2177561079b8161093f565b50600655565b6000918252602082815260408084206001600160a01b0393909316845291905290205460ff1690565b6001600160a01b038082166000908152600160208181526040808420815160a0810183528154909616865292830154918501919091526002820154908401526003015460ff80821660608501526101009091041615801560808401529091906108365750601292915050565b50601292915050565b6001600160a01b038116600090815260016020526040812060030154610100900460ff16806104b05750506001600160a01b0316600090815260036020526040902054151590565b6001600160a01b038082166000908152600160208181526040808420815160a0810183528154909616865292830154918501919091526002820154908401526003015460ff80821660608501526101009091041615801560808401819052919291906108fc575080516001600160a01b031615155b156109115761090a81610a49565b9392505050565b61090a83610b92565b6000828152602081905260409020600101546109358161093f565b6104db83836109de565b6109498133610c49565b50565b600061095883836107a1565b6109d6576000838152602081815260408083206001600160a01b03861684529091529020805460ff1916600117905561098e3390565b6001600160a01b0316826001600160a01b0316847f2f8788117e7eff1d82e926ec794901d17c78024a50270940304540a733656f0d60405160405180910390a45060016104b0565b5060006104b0565b60006109ea83836107a1565b156109d6576000838152602081815260408083206001600160a01b0386168085529252808320805460ff1916905551339286917ff6391f5c32d9c69d2a47ea670b442974b53935d1edc7fd64eb21e047a839171b9190a45060016104b0565b600080600083600001516001600160a01b031663feaf968c6040518163ffffffff1660e01b815260040160a060405180830381865afa158015610a90573d6000803e3d6000fd5b505050506040513d601f19601f82011682018060405250810190610ab49190610e5b565b50935050925050600082131580610ac9575080155b15610ae7576040516318522f2b60e01b815260040160405180910390fd5b6020840151610af68242610ec1565b1115610b15576040516310a8944360e31b815260040160405180910390fd5b600084600001516001600160a01b031663313ce5676040518163ffffffff1660e01b8152600401602060405180830381865afa158015610b59573d6000803e3d6000fd5b505050506040513d601f19601f82011682018060405250810190610b7d9190610ed4565b9050610b898382610c8a565b95945050505050565b6006546001600160a01b038216600090815260056020526040812054909190610bbb9042610ec1565b1115610bda576040516310a8944360e31b815260040160405180910390fd5b6001600160a01b03821660009081526004602052604081205460ff1615610c1c576001600160a01b03831660009081526004602052604090205460ff16610c23565b60025460ff165b6001600160a01b03841660009081526003602052604090205490915061090a9082610c8a565b610c5382826107a1565b610c865760405163e2517d3f60e01b81526001600160a01b03821660048201526024810183905260440160405180910390fd5b5050565b60008160ff16601203610c9e5750816104b0565b60128260ff161115610cd157610cb5601283610ef1565b610cc090600a610fee565b610cca9084610ffd565b90506104b0565b610cdc826012610ef1565b610ce790600a610fee565b61090a908461101f565b80356001600160a01b0381168114610d0857600080fd5b919050565b60ff8116811461094957600080fd5b600080600060608486031215610d3157600080fd5b610d3a84610cf1565b9250602084013591506040840135610d5181610d0d565b809150509250925092565b600060208284031215610d6e57600080fd5b81356001600160e01b03198116811461090a57600080fd5b600060208284031215610d9857600080fd5b61090a82610cf1565b600060208284031215610db357600080fd5b5035919050565b60008060408385031215610dcd57600080fd5b82359150610ddd60208401610cf1565b90509250929050565b600080600080600060a08688031215610dfe57600080fd5b610e0786610cf1565b9450610e1560208701610cf1565b935060408601359250606086013591506080860135610e3381610d0d565b809150509295509295909350565b805169ffffffffffffffffffff81168114610d0857600080fd5b600080600080600060a08688031215610e7357600080fd5b610e7c86610e41565b9450602086015193506040860151925060608601519150610e9f60808701610e41565b90509295509295909350565b634e487b7160e01b600052601160045260246000fd5b818103818111156104b0576104b0610eab565b600060208284031215610ee657600080fd5b815161090a81610d0d565b60ff82811682821603908111156104b0576104b0610eab565b600181815b80851115610f45578160001904821115610f2b57610f2b610eab565b80851615610f3857918102915b93841c9390800290610f0f565b509250929050565b600082610f5c575060016104b0565b81610f69575060006104b0565b8160018114610f7f5760028114610f8957610fa5565b60019150506104b0565b60ff841115610f9a57610f9a610eab565b50506001821b6104b0565b5060208310610133831016604e8410600b8410161715610fc8575081810a6104b0565b610fd28383610f0a565b8060001904821115610fe657610fe6610eab565b029392505050565b600061090a60ff841683610f4d565b60008261101a57634e487b7160e01b600052601260045260246000fd5b500490565b80820281158282048414176104b0576104b0610eab56fea26469706673582212206cb085e3315e66a314a50b70c03dd36432a6d3aae173f66a94c0b0fb36dd085b64736f6c63430008180033","opcodes":"PUSH1 0x80 PUSH1 0x40 MSTORE PUSH1 0x2 DUP1 SLOAD PUSH1 0xFF NOT AND PUSH1 0x8 OR SWAP1 SSTORE PUSH3 0x15180 PUSH1 0x6 SSTORE CALLVALUE DUP1 ISZERO PUSH3 0x25 JUMPI PUSH1 0x0 DUP1 REVERT JUMPDEST POP PUSH1 0x40 MLOAD PUSH3 0x1214 CODESIZE SUB DUP1 PUSH3 0x1214 DUP4 CODECOPY DUP2 ADD PUSH1 0x40 DUP2 SWAP1 MSTORE PUSH3 0x48 SWAP2 PUSH3 0x166 JUMP JUMPDEST PUSH3 0x55 PUSH1 0x0 DUP3 PUSH3 0xB7 JUMP JUMPDEST POP PUSH3 0x82 PUSH32 0xA49807205CE4D355092EF5A8A18F56E8913CF4A201FBE287825B095693C21775 DUP3 PUSH3 0xB7 JUMP JUMPDEST POP PUSH3 0xAF PUSH32 0xDDBE48F52BB812894C8051224FF4457244FC2B78C8CAA3E39179C65D4B6DE412 DUP3 PUSH3 0xB7 JUMP JUMPDEST POP POP PUSH3 0x198 JUMP JUMPDEST PUSH1 0x0 DUP3 DUP2 MSTORE PUSH1 0x20 DUP2 DUP2 MSTORE PUSH1 0x40 DUP1 DUP4 KECCAK256 PUSH1 0x1 PUSH1 0x1 PUSH1 0xA0 SHL SUB DUP6 AND DUP5 MSTORE SWAP1 SWAP2 MSTORE DUP2 KECCAK256 SLOAD PUSH1 0xFF AND PUSH3 0x15C JUMPI PUSH1 0x0 DUP4 DUP2 MSTORE PUSH1 0x20 DUP2 DUP2 MSTORE PUSH1 0x40 DUP1 DUP4 KECCAK256 PUSH1 0x1 PUSH1 0x1 PUSH1 0xA0 SHL SUB DUP7 AND DUP5 MSTORE SWAP1 SWAP2 MSTORE SWAP1 KECCAK256 DUP1 SLOAD PUSH1 0xFF NOT AND PUSH1 0x1 OR SWAP1 SSTORE PUSH3 0x113 CALLER SWAP1 JUMP JUMPDEST PUSH1 0x1 PUSH1 0x1 PUSH1 0xA0 SHL SUB AND DUP3 PUSH1 0x1 PUSH1 0x1 PUSH1 0xA0 SHL SUB AND DUP5 PUSH32 0x2F8788117E7EFF1D82E926EC794901D17C78024A50270940304540A733656F0D PUSH1 0x40 MLOAD PUSH1 0x40 MLOAD DUP1 SWAP2 SUB SWAP1 LOG4 POP PUSH1 0x1 PUSH3 0x160 JUMP JUMPDEST POP PUSH1 0x0 JUMPDEST SWAP3 SWAP2 POP POP JUMP JUMPDEST PUSH1 0x0 PUSH1 0x20 DUP3 DUP5 SUB SLT ISZERO PUSH3 0x179 JUMPI PUSH1 0x0 DUP1 REVERT JUMPDEST DUP2 MLOAD PUSH1 0x1 PUSH1 0x1 PUSH1 0xA0 SHL SUB DUP2 AND DUP2 EQ PUSH3 0x191 JUMPI PUSH1 0x0 DUP1 REVERT JUMPDEST SWAP4 SWAP3 POP POP POP JUMP JUMPDEST PUSH2 0x106C DUP1 PUSH3 0x1A8 PUSH1 0x0 CODECOPY PUSH1 0x0 RETURN INVALID PUSH1 0x80 PUSH1 0x40 MSTORE CALLVALUE DUP1 ISZERO PUSH2 0x10 JUMPI PUSH1 0x0 DUP1 REVERT JUMPDEST POP PUSH1 0x4 CALLDATASIZE LT PUSH2 0x141 JUMPI PUSH1 0x0 CALLDATALOAD PUSH1 0xE0 SHR DUP1 PUSH4 0x541E2B36 GT PUSH2 0xB8 JUMPI DUP1 PUSH4 0xA217FDDF GT PUSH2 0x7C JUMPI DUP1 PUSH4 0xA217FDDF EQ PUSH2 0x36B JUMPI DUP1 PUSH4 0xA9322D6C EQ PUSH2 0x373 JUMPI DUP1 PUSH4 0xAA388AF6 EQ PUSH2 0x396 JUMPI DUP1 PUSH4 0xB3596F07 EQ PUSH2 0x3A9 JUMPI DUP1 PUSH4 0xD547741F EQ PUSH2 0x3BC JUMPI DUP1 PUSH4 0xEECF8E83 EQ PUSH2 0x3CF JUMPI PUSH1 0x0 DUP1 REVERT JUMPDEST DUP1 PUSH4 0x541E2B36 EQ PUSH2 0x2E4 JUMPI DUP1 PUSH4 0x75B238FC EQ PUSH2 0x2F7 JUMPI DUP1 PUSH4 0x91D14854 EQ PUSH2 0x31E JUMPI DUP1 PUSH4 0x98E39360 EQ PUSH2 0x331 JUMPI DUP1 PUSH4 0x9EFD6F72 EQ PUSH2 0x358 JUMPI PUSH1 0x0 DUP1 REVERT JUMPDEST DUP1 PUSH4 0x2FBA4AA9 GT PUSH2 0x10A JUMPI DUP1 PUSH4 0x2FBA4AA9 EQ PUSH2 0x1E7 JUMPI DUP1 PUSH4 0x30F08ABD EQ PUSH2 0x26C JUMPI DUP1 PUSH4 0x36568ABE EQ PUSH2 0x28B JUMPI DUP1 PUSH4 0x4466A136 EQ PUSH2 0x29E JUMPI DUP1 PUSH4 0x44EFE61C EQ PUSH2 0x2BE JUMPI DUP1 PUSH4 0x4B90FD69 EQ PUSH2 0x2D1 JUMPI PUSH1 0x0 DUP1 REVERT JUMPDEST DUP1 PUSH3 0x3D73D0 EQ PUSH2 0x146 JUMPI DUP1 PUSH4 0x1FFC9A7 EQ PUSH2 0x15B JUMPI DUP1 PUSH4 0x241D3A0B EQ PUSH2 0x183 JUMPI DUP1 PUSH4 0x248A9CA3 EQ PUSH2 0x1B1 JUMPI DUP1 PUSH4 0x2F2FF15D EQ PUSH2 0x1D4 JUMPI JUMPDEST PUSH1 0x0 DUP1 REVERT JUMPDEST PUSH2 0x159 PUSH2 0x154 CALLDATASIZE PUSH1 0x4 PUSH2 0xD1C JUMP JUMPDEST PUSH2 0x3D8 JUMP JUMPDEST STOP JUMPDEST PUSH2 0x16E PUSH2 0x169 CALLDATASIZE PUSH1 0x4 PUSH2 0xD5C JUMP JUMPDEST PUSH2 0x47F JUMP JUMPDEST PUSH1 0x40 MLOAD SWAP1 ISZERO ISZERO DUP2 MSTORE PUSH1 0x20 ADD JUMPDEST PUSH1 0x40 MLOAD DUP1 SWAP2 SUB SWAP1 RETURN JUMPDEST PUSH2 0x1A3 PUSH2 0x191 CALLDATASIZE PUSH1 0x4 PUSH2 0xD86 JUMP JUMPDEST PUSH1 0x3 PUSH1 0x20 MSTORE PUSH1 0x0 SWAP1 DUP2 MSTORE PUSH1 0x40 SWAP1 KECCAK256 SLOAD DUP2 JUMP JUMPDEST PUSH1 0x40 MLOAD SWAP1 DUP2 MSTORE PUSH1 0x20 ADD PUSH2 0x17A JUMP JUMPDEST PUSH2 0x1A3 PUSH2 0x1BF CALLDATASIZE PUSH1 0x4 PUSH2 0xDA1 JUMP JUMPDEST PUSH1 0x0 SWAP1 DUP2 MSTORE PUSH1 0x20 DUP2 SWAP1 MSTORE PUSH1 0x40 SWAP1 KECCAK256 PUSH1 0x1 ADD SLOAD SWAP1 JUMP JUMPDEST PUSH2 0x159 PUSH2 0x1E2 CALLDATASIZE PUSH1 0x4 PUSH2 0xDBA JUMP JUMPDEST PUSH2 0x4B6 JUMP JUMPDEST PUSH2 0x235 PUSH2 0x1F5 CALLDATASIZE PUSH1 0x4 PUSH2 0xD86 JUMP JUMPDEST PUSH1 0x1 PUSH1 0x20 DUP2 SWAP1 MSTORE PUSH1 0x0 SWAP2 DUP3 MSTORE PUSH1 0x40 SWAP1 SWAP2 KECCAK256 DUP1 SLOAD SWAP2 DUP2 ADD SLOAD PUSH1 0x2 DUP3 ADD SLOAD PUSH1 0x3 SWAP1 SWAP3 ADD SLOAD PUSH1 0x1 PUSH1 0x1 PUSH1 0xA0 SHL SUB SWAP1 SWAP4 AND SWAP3 SWAP1 SWAP2 SWAP1 PUSH1 0xFF DUP1 DUP3 AND SWAP2 PUSH2 0x100 SWAP1 DIV AND DUP6 JUMP JUMPDEST PUSH1 0x40 DUP1 MLOAD PUSH1 0x1 PUSH1 0x1 PUSH1 0xA0 SHL SUB SWAP1 SWAP7 AND DUP7 MSTORE PUSH1 0x20 DUP7 ADD SWAP5 SWAP1 SWAP5 MSTORE SWAP3 DUP5 ADD SWAP2 SWAP1 SWAP2 MSTORE PUSH1 0xFF AND PUSH1 0x60 DUP4 ADD MSTORE ISZERO ISZERO PUSH1 0x80 DUP3 ADD MSTORE PUSH1 0xA0 ADD PUSH2 0x17A JUMP JUMPDEST PUSH1 0x2 SLOAD PUSH2 0x279 SWAP1 PUSH1 0xFF AND DUP2 JUMP JUMPDEST PUSH1 0x40 MLOAD PUSH1 0xFF SWAP1 SWAP2 AND DUP2 MSTORE PUSH1 0x20 ADD PUSH2 0x17A JUMP JUMPDEST PUSH2 0x159 PUSH2 0x299 CALLDATASIZE PUSH1 0x4 PUSH2 0xDBA JUMP JUMPDEST PUSH2 0x4E1 JUMP JUMPDEST PUSH2 0x1A3 PUSH2 0x2AC CALLDATASIZE PUSH1 0x4 PUSH2 0xD86 JUMP JUMPDEST PUSH1 0x5 PUSH1 0x20 MSTORE PUSH1 0x0 SWAP1 DUP2 MSTORE PUSH1 0x40 SWAP1 KECCAK256 SLOAD DUP2 JUMP JUMPDEST PUSH2 0x159 PUSH2 0x2CC CALLDATASIZE PUSH1 0x4 PUSH2 0xDE6 JUMP JUMPDEST PUSH2 0x519 JUMP JUMPDEST PUSH2 0x159 PUSH2 0x2DF CALLDATASIZE PUSH1 0x4 PUSH2 0xD86 JUMP JUMPDEST PUSH2 0x6DA JUMP JUMPDEST PUSH2 0x159 PUSH2 0x2F2 CALLDATASIZE PUSH1 0x4 PUSH2 0xDA1 JUMP JUMPDEST PUSH2 0x771 JUMP JUMPDEST PUSH2 0x1A3 PUSH32 0xA49807205CE4D355092EF5A8A18F56E8913CF4A201FBE287825B095693C21775 DUP2 JUMP JUMPDEST PUSH2 0x16E PUSH2 0x32C CALLDATASIZE PUSH1 0x4 PUSH2 0xDBA JUMP JUMPDEST PUSH2 0x7A1 JUMP JUMPDEST PUSH2 0x1A3 PUSH32 0xDDBE48F52BB812894C8051224FF4457244FC2B78C8CAA3E39179C65D4B6DE412 DUP2 JUMP JUMPDEST PUSH2 0x279 PUSH2 0x366 CALLDATASIZE PUSH1 0x4 PUSH2 0xD86 JUMP JUMPDEST PUSH2 0x7CA JUMP JUMPDEST PUSH2 0x1A3 PUSH1 0x0 DUP2 JUMP JUMPDEST PUSH2 0x279 PUSH2 0x381 CALLDATASIZE PUSH1 0x4 PUSH2 0xD86 JUMP JUMPDEST PUSH1 0x4 PUSH1 0x20 MSTORE PUSH1 0x0 SWAP1 DUP2 MSTORE PUSH1 0x40 SWAP1 KECCAK256 SLOAD PUSH1 0xFF AND DUP2 JUMP JUMPDEST PUSH2 0x16E PUSH2 0x3A4 CALLDATASIZE PUSH1 0x4 PUSH2 0xD86 JUMP JUMPDEST PUSH2 0x83F JUMP JUMPDEST PUSH2 0x1A3 PUSH2 0x3B7 CALLDATASIZE PUSH1 0x4 PUSH2 0xD86 JUMP JUMPDEST PUSH2 0x887 JUMP JUMPDEST PUSH2 0x159 PUSH2 0x3CA CALLDATASIZE PUSH1 0x4 PUSH2 0xDBA JUMP JUMPDEST PUSH2 0x91A JUMP JUMPDEST PUSH2 0x1A3 PUSH1 0x6 SLOAD DUP2 JUMP JUMPDEST PUSH32 0xA49807205CE4D355092EF5A8A18F56E8913CF4A201FBE287825B095693C21775 PUSH2 0x402 DUP2 PUSH2 0x93F JUMP JUMPDEST PUSH1 0x1 PUSH1 0x1 PUSH1 0xA0 SHL SUB DUP5 AND PUSH1 0x0 DUP2 DUP2 MSTORE PUSH1 0x3 PUSH1 0x20 SWAP1 DUP2 MSTORE PUSH1 0x40 DUP1 DUP4 KECCAK256 DUP8 SWAP1 SSTORE PUSH1 0x4 DUP3 MSTORE DUP1 DUP4 KECCAK256 DUP1 SLOAD PUSH1 0xFF NOT AND PUSH1 0xFF DUP9 AND SWAP1 DUP2 OR SWAP1 SWAP2 SSTORE PUSH1 0x5 DUP4 MSTORE SWAP3 DUP2 SWAP1 KECCAK256 TIMESTAMP SWAP1 SSTORE DUP1 MLOAD DUP8 DUP2 MSTORE SWAP2 DUP3 ADD SWAP3 SWAP1 SWAP3 MSTORE PUSH32 0x6114BB8CA4E5DE91BEE9B4322168EEE094B4249D729913BA34A4170230EB23B6 SWAP2 ADD PUSH1 0x40 MLOAD DUP1 SWAP2 SUB SWAP1 LOG2 POP POP POP POP JUMP JUMPDEST PUSH1 0x0 PUSH1 0x1 PUSH1 0x1 PUSH1 0xE0 SHL SUB NOT DUP3 AND PUSH4 0x7965DB0B PUSH1 0xE0 SHL EQ DUP1 PUSH2 0x4B0 JUMPI POP PUSH4 0x1FFC9A7 PUSH1 0xE0 SHL PUSH1 0x1 PUSH1 0x1 PUSH1 0xE0 SHL SUB NOT DUP4 AND EQ JUMPDEST SWAP3 SWAP2 POP POP JUMP JUMPDEST PUSH1 0x0 DUP3 DUP2 MSTORE PUSH1 0x20 DUP2 SWAP1 MSTORE PUSH1 0x40 SWAP1 KECCAK256 PUSH1 0x1 ADD SLOAD PUSH2 0x4D1 DUP2 PUSH2 0x93F JUMP JUMPDEST PUSH2 0x4DB DUP4 DUP4 PUSH2 0x94C JUMP JUMPDEST POP POP POP POP JUMP JUMPDEST PUSH1 0x1 PUSH1 0x1 PUSH1 0xA0 SHL SUB DUP2 AND CALLER EQ PUSH2 0x50A JUMPI PUSH1 0x40 MLOAD PUSH4 0x334BD919 PUSH1 0xE1 SHL DUP2 MSTORE PUSH1 0x4 ADD PUSH1 0x40 MLOAD DUP1 SWAP2 SUB SWAP1 REVERT JUMPDEST PUSH2 0x514 DUP3 DUP3 PUSH2 0x9DE JUMP JUMPDEST POP POP POP JUMP JUMPDEST PUSH32 0xDDBE48F52BB812894C8051224FF4457244FC2B78C8CAA3E39179C65D4B6DE412 PUSH2 0x543 DUP2 PUSH2 0x93F JUMP JUMPDEST PUSH1 0x1 PUSH1 0x1 PUSH1 0xA0 SHL SUB DUP6 AND PUSH2 0x56A JUMPI PUSH1 0x40 MLOAD PUSH4 0x29A68ED PUSH1 0xE4 SHL DUP2 MSTORE PUSH1 0x4 ADD PUSH1 0x40 MLOAD DUP1 SWAP2 SUB SWAP1 REVERT JUMPDEST PUSH1 0x64 DUP3 PUSH1 0xFF AND GT ISZERO PUSH2 0x58F JUMPI PUSH1 0x40 MLOAD PUSH4 0x178A1723 PUSH1 0xE0 SHL DUP2 MSTORE PUSH1 0x4 ADD PUSH1 0x40 MLOAD DUP1 SWAP2 SUB SWAP1 REVERT JUMPDEST PUSH1 0x40 MLOAD DUP1 PUSH1 0xA0 ADD PUSH1 0x40 MSTORE DUP1 DUP7 PUSH1 0x1 PUSH1 0x1 PUSH1 0xA0 SHL SUB AND DUP2 MSTORE PUSH1 0x20 ADD DUP6 DUP2 MSTORE PUSH1 0x20 ADD DUP5 DUP2 MSTORE PUSH1 0x20 ADD DUP4 PUSH1 0xFF AND DUP2 MSTORE PUSH1 0x20 ADD PUSH1 0x1 ISZERO ISZERO DUP2 MSTORE POP PUSH1 0x1 PUSH1 0x0 DUP9 PUSH1 0x1 PUSH1 0x1 PUSH1 0xA0 SHL SUB AND PUSH1 0x1 PUSH1 0x1 PUSH1 0xA0 SHL SUB AND DUP2 MSTORE PUSH1 0x20 ADD SWAP1 DUP2 MSTORE PUSH1 0x20 ADD PUSH1 0x0 KECCAK256 PUSH1 0x0 DUP3 ADD MLOAD DUP2 PUSH1 0x0 ADD PUSH1 0x0 PUSH2 0x100 EXP DUP2 SLOAD DUP2 PUSH1 0x1 PUSH1 0x1 PUSH1 0xA0 SHL SUB MUL NOT AND SWAP1 DUP4 PUSH1 0x1 PUSH1 0x1 PUSH1 0xA0 SHL SUB AND MUL OR SWAP1 SSTORE POP PUSH1 0x20 DUP3 ADD MLOAD DUP2 PUSH1 0x1 ADD SSTORE PUSH1 0x40 DUP3 ADD MLOAD DUP2 PUSH1 0x2 ADD SSTORE PUSH1 0x60 DUP3 ADD MLOAD DUP2 PUSH1 0x3 ADD PUSH1 0x0 PUSH2 0x100 EXP DUP2 SLOAD DUP2 PUSH1 0xFF MUL NOT AND SWAP1 DUP4 PUSH1 0xFF AND MUL OR SWAP1 SSTORE POP PUSH1 0x80 DUP3 ADD MLOAD DUP2 PUSH1 0x3 ADD PUSH1 0x1 PUSH2 0x100 EXP DUP2 SLOAD DUP2 PUSH1 0xFF MUL NOT AND SWAP1 DUP4 ISZERO ISZERO MUL OR SWAP1 SSTORE POP SWAP1 POP POP DUP5 PUSH1 0x1 PUSH1 0x1 PUSH1 0xA0 SHL SUB AND DUP7 PUSH1 0x1 PUSH1 0x1 PUSH1 0xA0 SHL SUB AND PUSH32 0xCF5A4EFBC4CBF1CB08380904170D5BDAF3D4DB97CA62B0F32745BD3EE2A9EEE0 DUP7 DUP7 DUP7 PUSH1 0x40 MLOAD PUSH2 0x6CA SWAP4 SWAP3 SWAP2 SWAP1 SWAP3 DUP4 MSTORE PUSH1 0x20 DUP4 ADD SWAP2 SWAP1 SWAP2 MSTORE PUSH1 0xFF AND PUSH1 0x40 DUP3 ADD MSTORE PUSH1 0x60 ADD SWAP1 JUMP JUMPDEST PUSH1 0x40 MLOAD DUP1 SWAP2 SUB SWAP1 LOG3 POP POP POP POP POP POP JUMP JUMPDEST PUSH32 0xDDBE48F52BB812894C8051224FF4457244FC2B78C8CAA3E39179C65D4B6DE412 PUSH2 0x704 DUP2 PUSH2 0x93F JUMP JUMPDEST PUSH1 0x1 PUSH1 0x1 PUSH1 0xA0 SHL SUB DUP3 AND PUSH1 0x0 DUP2 DUP2 MSTORE PUSH1 0x1 PUSH1 0x20 DUP2 SWAP1 MSTORE PUSH1 0x40 DUP1 DUP4 KECCAK256 DUP1 SLOAD PUSH1 0x1 PUSH1 0x1 PUSH1 0xA0 SHL SUB NOT AND DUP2 SSTORE SWAP2 DUP3 ADD DUP4 SWAP1 SSTORE PUSH1 0x2 DUP3 ADD DUP4 SWAP1 SSTORE PUSH1 0x3 SWAP1 SWAP2 ADD DUP1 SLOAD PUSH2 0xFFFF NOT AND SWAP1 SSTORE MLOAD PUSH32 0x80502F8484874852E0B4F9360DC6004A3FC5A00FA2B3339EBFDC1A419CEB7DAC SWAP2 SWAP1 LOG2 POP POP JUMP JUMPDEST PUSH32 0xA49807205CE4D355092EF5A8A18F56E8913CF4A201FBE287825B095693C21775 PUSH2 0x79B DUP2 PUSH2 0x93F JUMP JUMPDEST POP PUSH1 0x6 SSTORE JUMP JUMPDEST PUSH1 0x0 SWAP2 DUP3 MSTORE PUSH1 0x20 DUP3 DUP2 MSTORE PUSH1 0x40 DUP1 DUP5 KECCAK256 PUSH1 0x1 PUSH1 0x1 PUSH1 0xA0 SHL SUB SWAP4 SWAP1 SWAP4 AND DUP5 MSTORE SWAP2 SWAP1 MSTORE SWAP1 KECCAK256 SLOAD PUSH1 0xFF AND SWAP1 JUMP JUMPDEST PUSH1 0x1 PUSH1 0x1 PUSH1 0xA0 SHL SUB DUP1 DUP3 AND PUSH1 0x0 SWAP1 DUP2 MSTORE PUSH1 0x1 PUSH1 0x20 DUP2 DUP2 MSTORE PUSH1 0x40 DUP1 DUP5 KECCAK256 DUP2 MLOAD PUSH1 0xA0 DUP2 ADD DUP4 MSTORE DUP2 SLOAD SWAP1 SWAP7 AND DUP7 MSTORE SWAP3 DUP4 ADD SLOAD SWAP2 DUP6 ADD SWAP2 SWAP1 SWAP2 MSTORE PUSH1 0x2 DUP3 ADD SLOAD SWAP1 DUP5 ADD MSTORE PUSH1 0x3 ADD SLOAD PUSH1 0xFF DUP1 DUP3 AND PUSH1 0x60 DUP6 ADD MSTORE PUSH2 0x100 SWAP1 SWAP2 DIV AND ISZERO DUP1 ISZERO PUSH1 0x80 DUP5 ADD MSTORE SWAP1 SWAP2 SWAP1 PUSH2 0x836 JUMPI POP PUSH1 0x12 SWAP3 SWAP2 POP POP JUMP JUMPDEST POP PUSH1 0x12 SWAP3 SWAP2 POP POP JUMP JUMPDEST PUSH1 0x1 PUSH1 0x1 PUSH1 0xA0 SHL SUB DUP2 AND PUSH1 0x0 SWAP1 DUP2 MSTORE PUSH1 0x1 PUSH1 0x20 MSTORE PUSH1 0x40 DUP2 KECCAK256 PUSH1 0x3 ADD SLOAD PUSH2 0x100 SWAP1 DIV PUSH1 0xFF AND DUP1 PUSH2 0x4B0 JUMPI POP POP PUSH1 0x1 PUSH1 0x1 PUSH1 0xA0 SHL SUB AND PUSH1 0x0 SWAP1 DUP2 MSTORE PUSH1 0x3 PUSH1 0x20 MSTORE PUSH1 0x40 SWAP1 KECCAK256 SLOAD ISZERO ISZERO SWAP1 JUMP JUMPDEST PUSH1 0x1 PUSH1 0x1 PUSH1 0xA0 SHL SUB DUP1 DUP3 AND PUSH1 0x0 SWAP1 DUP2 MSTORE PUSH1 0x1 PUSH1 0x20 DUP2 DUP2 MSTORE PUSH1 0x40 DUP1 DUP5 KECCAK256 DUP2 MLOAD PUSH1 0xA0 DUP2 ADD DUP4 MSTORE DUP2 SLOAD SWAP1 SWAP7 AND DUP7 MSTORE SWAP3 DUP4 ADD SLOAD SWAP2 DUP6 ADD SWAP2 SWAP1 SWAP2 MSTORE PUSH1 0x2 DUP3 ADD SLOAD SWAP1 DUP5 ADD MSTORE PUSH1 0x3 ADD SLOAD PUSH1 0xFF DUP1 DUP3 AND PUSH1 0x60 DUP6 ADD MSTORE PUSH2 0x100 SWAP1 SWAP2 DIV AND ISZERO DUP1 ISZERO PUSH1 0x80 DUP5 ADD DUP2 SWAP1 MSTORE SWAP2 SWAP3 SWAP2 SWAP1 PUSH2 0x8FC JUMPI POP DUP1 MLOAD PUSH1 0x1 PUSH1 0x1 PUSH1 0xA0 SHL SUB AND ISZERO ISZERO JUMPDEST ISZERO PUSH2 0x911 JUMPI PUSH2 0x90A DUP2 PUSH2 0xA49 JUMP JUMPDEST SWAP4 SWAP3 POP POP POP JUMP JUMPDEST PUSH2 0x90A DUP4 PUSH2 0xB92 JUMP JUMPDEST PUSH1 0x0 DUP3 DUP2 MSTORE PUSH1 0x20 DUP2 SWAP1 MSTORE PUSH1 0x40 SWAP1 KECCAK256 PUSH1 0x1 ADD SLOAD PUSH2 0x935 DUP2 PUSH2 0x93F JUMP JUMPDEST PUSH2 0x4DB DUP4 DUP4 PUSH2 0x9DE JUMP JUMPDEST PUSH2 0x949 DUP2 CALLER PUSH2 0xC49 JUMP JUMPDEST POP JUMP JUMPDEST PUSH1 0x0 PUSH2 0x958 DUP4 DUP4 PUSH2 0x7A1 JUMP JUMPDEST PUSH2 0x9D6 JUMPI PUSH1 0x0 DUP4 DUP2 MSTORE PUSH1 0x20 DUP2 DUP2 MSTORE PUSH1 0x40 DUP1 DUP4 KECCAK256 PUSH1 0x1 PUSH1 0x1 PUSH1 0xA0 SHL SUB DUP7 AND DUP5 MSTORE SWAP1 SWAP2 MSTORE SWAP1 KECCAK256 DUP1 SLOAD PUSH1 0xFF NOT AND PUSH1 0x1 OR SWAP1 SSTORE PUSH2 0x98E CALLER SWAP1 JUMP JUMPDEST PUSH1 0x1 PUSH1 0x1 PUSH1 0xA0 SHL SUB AND DUP3 PUSH1 0x1 PUSH1 0x1 PUSH1 0xA0 SHL SUB AND DUP5 PUSH32 0x2F8788117E7EFF1D82E926EC794901D17C78024A50270940304540A733656F0D PUSH1 0x40 MLOAD PUSH1 0x40 MLOAD DUP1 SWAP2 SUB SWAP1 LOG4 POP PUSH1 0x1 PUSH2 0x4B0 JUMP JUMPDEST POP PUSH1 0x0 PUSH2 0x4B0 JUMP JUMPDEST PUSH1 0x0 PUSH2 0x9EA DUP4 DUP4 PUSH2 0x7A1 JUMP JUMPDEST ISZERO PUSH2 0x9D6 JUMPI PUSH1 0x0 DUP4 DUP2 MSTORE PUSH1 0x20 DUP2 DUP2 MSTORE PUSH1 0x40 DUP1 DUP4 KECCAK256 PUSH1 0x1 PUSH1 0x1 PUSH1 0xA0 SHL SUB DUP7 AND DUP1 DUP6 MSTORE SWAP3 MSTORE DUP1 DUP4 KECCAK256 DUP1 SLOAD PUSH1 0xFF NOT AND SWAP1 SSTORE MLOAD CALLER SWAP3 DUP7 SWAP2 PUSH32 0xF6391F5C32D9C69D2A47EA670B442974B53935D1EDC7FD64EB21E047A839171B SWAP2 SWAP1 LOG4 POP PUSH1 0x1 PUSH2 0x4B0 JUMP JUMPDEST PUSH1 0x0 DUP1 PUSH1 0x0 DUP4 PUSH1 0x0 ADD MLOAD PUSH1 0x1 PUSH1 0x1 PUSH1 0xA0 SHL SUB AND PUSH4 0xFEAF968C PUSH1 0x40 MLOAD DUP2 PUSH4 0xFFFFFFFF AND PUSH1 0xE0 SHL DUP2 MSTORE PUSH1 0x4 ADD PUSH1 0xA0 PUSH1 0x40 MLOAD DUP1 DUP4 SUB DUP2 DUP7 GAS STATICCALL ISZERO DUP1 ISZERO PUSH2 0xA90 JUMPI RETURNDATASIZE PUSH1 0x0 DUP1 RETURNDATACOPY RETURNDATASIZE PUSH1 0x0 REVERT JUMPDEST POP POP POP POP PUSH1 0x40 MLOAD RETURNDATASIZE PUSH1 0x1F NOT PUSH1 0x1F DUP3 ADD AND DUP3 ADD DUP1 PUSH1 0x40 MSTORE POP DUP2 ADD SWAP1 PUSH2 0xAB4 SWAP2 SWAP1 PUSH2 0xE5B JUMP JUMPDEST POP SWAP4 POP POP SWAP3 POP POP PUSH1 0x0 DUP3 SGT ISZERO DUP1 PUSH2 0xAC9 JUMPI POP DUP1 ISZERO JUMPDEST ISZERO PUSH2 0xAE7 JUMPI PUSH1 0x40 MLOAD PUSH4 0x18522F2B PUSH1 0xE0 SHL DUP2 MSTORE PUSH1 0x4 ADD PUSH1 0x40 MLOAD DUP1 SWAP2 SUB SWAP1 REVERT JUMPDEST PUSH1 0x20 DUP5 ADD MLOAD PUSH2 0xAF6 DUP3 TIMESTAMP PUSH2 0xEC1 JUMP JUMPDEST GT ISZERO PUSH2 0xB15 JUMPI PUSH1 0x40 MLOAD PUSH4 0x10A89443 PUSH1 0xE3 SHL DUP2 MSTORE PUSH1 0x4 ADD PUSH1 0x40 MLOAD DUP1 SWAP2 SUB SWAP1 REVERT JUMPDEST PUSH1 0x0 DUP5 PUSH1 0x0 ADD MLOAD PUSH1 0x1 PUSH1 0x1 PUSH1 0xA0 SHL SUB AND PUSH4 0x313CE567 PUSH1 0x40 MLOAD DUP2 PUSH4 0xFFFFFFFF AND PUSH1 0xE0 SHL DUP2 MSTORE PUSH1 0x4 ADD PUSH1 0x20 PUSH1 0x40 MLOAD DUP1 DUP4 SUB DUP2 DUP7 GAS STATICCALL ISZERO DUP1 ISZERO PUSH2 0xB59 JUMPI RETURNDATASIZE PUSH1 0x0 DUP1 RETURNDATACOPY RETURNDATASIZE PUSH1 0x0 REVERT JUMPDEST POP POP POP POP PUSH1 0x40 MLOAD RETURNDATASIZE PUSH1 0x1F NOT PUSH1 0x1F DUP3 ADD AND DUP3 ADD DUP1 PUSH1 0x40 MSTORE POP DUP2 ADD SWAP1 PUSH2 0xB7D SWAP2 SWAP1 PUSH2 0xED4 JUMP JUMPDEST SWAP1 POP PUSH2 0xB89 DUP4 DUP3 PUSH2 0xC8A JUMP JUMPDEST SWAP6 SWAP5 POP POP POP POP POP JUMP JUMPDEST PUSH1 0x6 SLOAD PUSH1 0x1 PUSH1 0x1 PUSH1 0xA0 SHL SUB DUP3 AND PUSH1 0x0 SWAP1 DUP2 MSTORE PUSH1 0x5 PUSH1 0x20 MSTORE PUSH1 0x40 DUP2 KECCAK256 SLOAD SWAP1 SWAP2 SWAP1 PUSH2 0xBBB SWAP1 TIMESTAMP PUSH2 0xEC1 JUMP JUMPDEST GT ISZERO PUSH2 0xBDA JUMPI PUSH1 0x40 MLOAD PUSH4 0x10A89443 PUSH1 0xE3 SHL DUP2 MSTORE PUSH1 0x4 ADD PUSH1 0x40 MLOAD DUP1 SWAP2 SUB SWAP1 REVERT JUMPDEST PUSH1 0x1 PUSH1 0x1 PUSH1 0xA0 SHL SUB DUP3 AND PUSH1 0x0 SWAP1 DUP2 MSTORE PUSH1 0x4 PUSH1 0x20 MSTORE PUSH1 0x40 DUP2 KECCAK256 SLOAD PUSH1 0xFF AND ISZERO PUSH2 0xC1C JUMPI PUSH1 0x1 PUSH1 0x1 PUSH1 0xA0 SHL SUB DUP4 AND PUSH1 0x0 SWAP1 DUP2 MSTORE PUSH1 0x4 PUSH1 0x20 MSTORE PUSH1 0x40 SWAP1 KECCAK256 SLOAD PUSH1 0xFF AND PUSH2 0xC23 JUMP JUMPDEST PUSH1 0x2 SLOAD PUSH1 0xFF AND JUMPDEST PUSH1 0x1 PUSH1 0x1 PUSH1 0xA0 SHL SUB DUP5 AND PUSH1 0x0 SWAP1 DUP2 MSTORE PUSH1 0x3 PUSH1 0x20 MSTORE PUSH1 0x40 SWAP1 KECCAK256 SLOAD SWAP1 SWAP2 POP PUSH2 0x90A SWAP1 DUP3 PUSH2 0xC8A JUMP JUMPDEST PUSH2 0xC53 DUP3 DUP3 PUSH2 0x7A1 JUMP JUMPDEST PUSH2 0xC86 JUMPI PUSH1 0x40 MLOAD PUSH4 0xE2517D3F PUSH1 0xE0 SHL DUP2 MSTORE PUSH1 0x1 PUSH1 0x1 PUSH1 0xA0 SHL SUB DUP3 AND PUSH1 0x4 DUP3 ADD MSTORE PUSH1 0x24 DUP2 ADD DUP4 SWAP1 MSTORE PUSH1 0x44 ADD PUSH1 0x40 MLOAD DUP1 SWAP2 SUB SWAP1 REVERT JUMPDEST POP POP JUMP JUMPDEST PUSH1 0x0 DUP2 PUSH1 0xFF AND PUSH1 0x12 SUB PUSH2 0xC9E JUMPI POP DUP2 PUSH2 0x4B0 JUMP JUMPDEST PUSH1 0x12 DUP3 PUSH1 0xFF AND GT ISZERO PUSH2 0xCD1 JUMPI PUSH2 0xCB5 PUSH1 0x12 DUP4 PUSH2 0xEF1 JUMP JUMPDEST PUSH2 0xCC0 SWAP1 PUSH1 0xA PUSH2 0xFEE JUMP JUMPDEST PUSH2 0xCCA SWAP1 DUP5 PUSH2 0xFFD JUMP JUMPDEST SWAP1 POP PUSH2 0x4B0 JUMP JUMPDEST PUSH2 0xCDC DUP3 PUSH1 0x12 PUSH2 0xEF1 JUMP JUMPDEST PUSH2 0xCE7 SWAP1 PUSH1 0xA PUSH2 0xFEE JUMP JUMPDEST PUSH2 0x90A SWAP1 DUP5 PUSH2 0x101F JUMP JUMPDEST DUP1 CALLDATALOAD PUSH1 0x1 PUSH1 0x1 PUSH1 0xA0 SHL SUB DUP2 AND DUP2 EQ PUSH2 0xD08 JUMPI PUSH1 0x0 DUP1 REVERT JUMPDEST SWAP2 SWAP1 POP JUMP JUMPDEST PUSH1 0xFF DUP2 AND DUP2 EQ PUSH2 0x949 JUMPI PUSH1 0x0 DUP1 REVERT JUMPDEST PUSH1 0x0 DUP1 PUSH1 0x0 PUSH1 0x60 DUP5 DUP7 SUB SLT ISZERO PUSH2 0xD31 JUMPI PUSH1 0x0 DUP1 REVERT JUMPDEST PUSH2 0xD3A DUP5 PUSH2 0xCF1 JUMP JUMPDEST SWAP3 POP PUSH1 0x20 DUP5 ADD CALLDATALOAD SWAP2 POP PUSH1 0x40 DUP5 ADD CALLDATALOAD PUSH2 0xD51 DUP2 PUSH2 0xD0D JUMP JUMPDEST DUP1 SWAP2 POP POP SWAP3 POP SWAP3 POP SWAP3 JUMP JUMPDEST PUSH1 0x0 PUSH1 0x20 DUP3 DUP5 SUB SLT ISZERO PUSH2 0xD6E JUMPI PUSH1 0x0 DUP1 REVERT JUMPDEST DUP2 CALLDATALOAD PUSH1 0x1 PUSH1 0x1 PUSH1 0xE0 SHL SUB NOT DUP2 AND DUP2 EQ PUSH2 0x90A JUMPI PUSH1 0x0 DUP1 REVERT JUMPDEST PUSH1 0x0 PUSH1 0x20 DUP3 DUP5 SUB SLT ISZERO PUSH2 0xD98 JUMPI PUSH1 0x0 DUP1 REVERT JUMPDEST PUSH2 0x90A DUP3 PUSH2 0xCF1 JUMP JUMPDEST PUSH1 0x0 PUSH1 0x20 DUP3 DUP5 SUB SLT ISZERO PUSH2 0xDB3 JUMPI PUSH1 0x0 DUP1 REVERT JUMPDEST POP CALLDATALOAD SWAP2 SWAP1 POP JUMP JUMPDEST PUSH1 0x0 DUP1 PUSH1 0x40 DUP4 DUP6 SUB SLT ISZERO PUSH2 0xDCD JUMPI PUSH1 0x0 DUP1 REVERT JUMPDEST DUP3 CALLDATALOAD SWAP2 POP PUSH2 0xDDD PUSH1 0x20 DUP5 ADD PUSH2 0xCF1 JUMP JUMPDEST SWAP1 POP SWAP3 POP SWAP3 SWAP1 POP JUMP JUMPDEST PUSH1 0x0 DUP1 PUSH1 0x0 DUP1 PUSH1 0x0 PUSH1 0xA0 DUP7 DUP9 SUB SLT ISZERO PUSH2 0xDFE JUMPI PUSH1 0x0 DUP1 REVERT JUMPDEST PUSH2 0xE07 DUP7 PUSH2 0xCF1 JUMP JUMPDEST SWAP5 POP PUSH2 0xE15 PUSH1 0x20 DUP8 ADD PUSH2 0xCF1 JUMP JUMPDEST SWAP4 POP PUSH1 0x40 DUP7 ADD CALLDATALOAD SWAP3 POP PUSH1 0x60 DUP7 ADD CALLDATALOAD SWAP2 POP PUSH1 0x80 DUP7 ADD CALLDATALOAD PUSH2 0xE33 DUP2 PUSH2 0xD0D JUMP JUMPDEST DUP1 SWAP2 POP POP SWAP3 SWAP6 POP SWAP3 SWAP6 SWAP1 SWAP4 POP JUMP JUMPDEST DUP1 MLOAD PUSH10 0xFFFFFFFFFFFFFFFFFFFF DUP2 AND DUP2 EQ PUSH2 0xD08 JUMPI PUSH1 0x0 DUP1 REVERT JUMPDEST PUSH1 0x0 DUP1 PUSH1 0x0 DUP1 PUSH1 0x0 PUSH1 0xA0 DUP7 DUP9 SUB SLT ISZERO PUSH2 0xE73 JUMPI PUSH1 0x0 DUP1 REVERT JUMPDEST PUSH2 0xE7C DUP7 PUSH2 0xE41 JUMP JUMPDEST SWAP5 POP PUSH1 0x20 DUP7 ADD MLOAD SWAP4 POP PUSH1 0x40 DUP7 ADD MLOAD SWAP3 POP PUSH1 0x60 DUP7 ADD MLOAD SWAP2 POP PUSH2 0xE9F PUSH1 0x80 DUP8 ADD PUSH2 0xE41 JUMP JUMPDEST SWAP1 POP SWAP3 SWAP6 POP SWAP3 SWAP6 SWAP1 SWAP4 POP JUMP JUMPDEST PUSH4 0x4E487B71 PUSH1 0xE0 SHL PUSH1 0x0 MSTORE PUSH1 0x11 PUSH1 0x4 MSTORE PUSH1 0x24 PUSH1 0x0 REVERT JUMPDEST DUP2 DUP2 SUB DUP2 DUP2 GT ISZERO PUSH2 0x4B0 JUMPI PUSH2 0x4B0 PUSH2 0xEAB JUMP JUMPDEST PUSH1 0x0 PUSH1 0x20 DUP3 DUP5 SUB SLT ISZERO PUSH2 0xEE6 JUMPI PUSH1 0x0 DUP1 REVERT JUMPDEST DUP2 MLOAD PUSH2 0x90A DUP2 PUSH2 0xD0D JUMP JUMPDEST PUSH1 0xFF DUP3 DUP2 AND DUP3 DUP3 AND SUB SWAP1 DUP2 GT ISZERO PUSH2 0x4B0 JUMPI PUSH2 0x4B0 PUSH2 0xEAB JUMP JUMPDEST PUSH1 0x1 DUP2 DUP2 JUMPDEST DUP1 DUP6 GT ISZERO PUSH2 0xF45 JUMPI DUP2 PUSH1 0x0 NOT DIV DUP3 GT ISZERO PUSH2 0xF2B JUMPI PUSH2 0xF2B PUSH2 0xEAB JUMP JUMPDEST DUP1 DUP6 AND ISZERO PUSH2 0xF38 JUMPI SWAP2 DUP2 MUL SWAP2 JUMPDEST SWAP4 DUP5 SHR SWAP4 SWAP1 DUP1 MUL SWAP1 PUSH2 0xF0F JUMP JUMPDEST POP SWAP3 POP SWAP3 SWAP1 POP JUMP JUMPDEST PUSH1 0x0 DUP3 PUSH2 0xF5C JUMPI POP PUSH1 0x1 PUSH2 0x4B0 JUMP JUMPDEST DUP2 PUSH2 0xF69 JUMPI POP PUSH1 0x0 PUSH2 0x4B0 JUMP JUMPDEST DUP2 PUSH1 0x1 DUP2 EQ PUSH2 0xF7F JUMPI PUSH1 0x2 DUP2 EQ PUSH2 0xF89 JUMPI PUSH2 0xFA5 JUMP JUMPDEST PUSH1 0x1 SWAP2 POP POP PUSH2 0x4B0 JUMP JUMPDEST PUSH1 0xFF DUP5 GT ISZERO PUSH2 0xF9A JUMPI PUSH2 0xF9A PUSH2 0xEAB JUMP JUMPDEST POP POP PUSH1 0x1 DUP3 SHL PUSH2 0x4B0 JUMP JUMPDEST POP PUSH1 0x20 DUP4 LT PUSH2 0x133 DUP4 LT AND PUSH1 0x4E DUP5 LT PUSH1 0xB DUP5 LT AND OR ISZERO PUSH2 0xFC8 JUMPI POP DUP2 DUP2 EXP PUSH2 0x4B0 JUMP JUMPDEST PUSH2 0xFD2 DUP4 DUP4 PUSH2 0xF0A JUMP JUMPDEST DUP1 PUSH1 0x0 NOT DIV DUP3 GT ISZERO PUSH2 0xFE6 JUMPI PUSH2 0xFE6 PUSH2 0xEAB JUMP JUMPDEST MUL SWAP4 SWAP3 POP POP POP JUMP JUMPDEST PUSH1 0x0 PUSH2 0x90A PUSH1 0xFF DUP5 AND DUP4 PUSH2 0xF4D JUMP JUMPDEST PUSH1 0x0 DUP3 PUSH2 0x101A JUMPI PUSH4 0x4E487B71 PUSH1 0xE0 SHL PUSH1 0x0 MSTORE PUSH1 0x12 PUSH1 0x4 MSTORE PUSH1 0x24 PUSH1 0x0 REVERT JUMPDEST POP DIV SWAP1 JUMP JUMPDEST DUP1 DUP3 MUL DUP2 ISZERO DUP3 DUP3 DIV DUP5 EQ OR PUSH2 0x4B0 JUMPI PUSH2 0x4B0 PUSH2 0xEAB JUMP INVALID LOG2 PUSH5 0x6970667358 0x22 SLT KECCAK256 PUSH13 0xB085E3315E66A314A50B70C03D 0xD3 PUSH5 0x32A6D3AAE1 PUSH20 0xF66A94C0B0FB36DD085B64736F6C634300081800 CALLER "},"methodIdentifiers":{"ADMIN_ROLE()":"75b238fc","DEFAULT_ADMIN_ROLE()":"a217fddf","FEED_MANAGER_ROLE()":"98e39360","defaultDecimals()":"30f08abd","fallbackDecimals(address)":"a9322d6c","fallbackLastUpdated(address)":"4466a136","fallbackPrices(address)":"241d3a0b","fallbackStaleness()":"eecf8e83","feeds(address)":"2fba4aa9","getAssetDecimals(address)":"9efd6f72","getAssetPrice(address)":"b3596f07","getRoleAdmin(bytes32)":"248a9ca3","grantRole(bytes32,address)":"2f2ff15d","hasRole(bytes32,address)":"91d14854","removeFeed(address)":"4b90fd69","renounceRole(bytes32,address)":"36568abe","revokeRole(bytes32,address)":"d547741f","setFallbackPrice(address,uint256,uint8)":"003d73d0","setFallbackStaleness(uint256)":"541e2b36","setFeed(address,address,uint256,uint256,uint8)":"44efe61c","supportsAsset(address)":"aa388af6","supportsInterface(bytes4)":"01ffc9a7"}}}}}