{
  "_format": "hh-sol-artifact-1",
  "contractName": "TokenApprovalOptimizer",
  "sourceName": "contracts/utils/TokenApprovalOptimizer.sol",
  "abi": [
    {
      "inputs": [
        {
          "internalType": "uint256",
          "name": "threshold",
          "type": "uint256"
        }
      ],
      "stateMutability": "nonpayable",
      "type": "constructor"
    },
    {
      "inputs": [],
      "name": "AccessControlBadConfirmation",
      "type": "error"
    },
    {
      "inputs": [
        {
          "internalType": "address",
          "name": "account",
          "type": "address"
        },
        {
          "internalType": "bytes32",
          "name": "neededRole",
          "type": "bytes32"
        }
      ],
      "name": "AccessControlUnauthorizedAccount",
      "type": "error"
    },
    {
      "inputs": [
        {
          "internalType": "uint256",
          "name": "available",
          "type": "uint256"
        },
        {
          "internalType": "uint256",
          "name": "required",
          "type": "uint256"
        }
      ],
      "name": "InsufficientBalance",
      "type": "error"
    },
    {
      "inputs": [],
      "name": "InvalidOwnerAddress",
      "type": "error"
    },
    {
      "inputs": [],
      "name": "InvalidRecipientAddress",
      "type": "error"
    },
    {
      "inputs": [],
      "name": "InvalidSpenderAddress",
      "type": "error"
    },
    {
      "inputs": [
        {
          "internalType": "uint256",
          "name": "providedValue",
          "type": "uint256"
        }
      ],
      "name": "InvalidThresholdValue",
      "type": "error"
    },
    {
      "inputs": [],
      "name": "InvalidTokenAddress",
      "type": "error"
    },
    {
      "inputs": [],
      "name": "InvalidTransferAmount",
      "type": "error"
    },
    {
      "inputs": [
        {
          "internalType": "address",
          "name": "owner",
          "type": "address"
        }
      ],
      "name": "OwnableInvalidOwner",
      "type": "error"
    },
    {
      "inputs": [
        {
          "internalType": "address",
          "name": "account",
          "type": "address"
        }
      ],
      "name": "OwnableUnauthorizedAccount",
      "type": "error"
    },
    {
      "inputs": [
        {
          "internalType": "address",
          "name": "token",
          "type": "address"
        }
      ],
      "name": "SafeERC20FailedOperation",
      "type": "error"
    },
    {
      "anonymous": false,
      "inputs": [
        {
          "indexed": true,
          "internalType": "address",
          "name": "token",
          "type": "address"
        },
        {
          "indexed": true,
          "internalType": "address",
          "name": "spender",
          "type": "address"
        },
        {
          "indexed": false,
          "internalType": "uint256",
          "name": "amount",
          "type": "uint256"
        }
      ],
      "name": "ApprovalOptimized",
      "type": "event"
    },
    {
      "anonymous": false,
      "inputs": [
        {
          "indexed": true,
          "internalType": "address",
          "name": "previousOwner",
          "type": "address"
        },
        {
          "indexed": true,
          "internalType": "address",
          "name": "newOwner",
          "type": "address"
        }
      ],
      "name": "OwnershipTransferred",
      "type": "event"
    },
    {
      "anonymous": false,
      "inputs": [
        {
          "indexed": true,
          "internalType": "bytes32",
          "name": "role",
          "type": "bytes32"
        },
        {
          "indexed": true,
          "internalType": "bytes32",
          "name": "previousAdminRole",
          "type": "bytes32"
        },
        {
          "indexed": true,
          "internalType": "bytes32",
          "name": "newAdminRole",
          "type": "bytes32"
        }
      ],
      "name": "RoleAdminChanged",
      "type": "event"
    },
    {
      "anonymous": false,
      "inputs": [
        {
          "indexed": true,
          "internalType": "bytes32",
          "name": "role",
          "type": "bytes32"
        },
        {
          "indexed": true,
          "internalType": "address",
          "name": "account",
          "type": "address"
        },
        {
          "indexed": true,
          "internalType": "address",
          "name": "sender",
          "type": "address"
        }
      ],
      "name": "RoleGranted",
      "type": "event"
    },
    {
      "anonymous": false,
      "inputs": [
        {
          "indexed": true,
          "internalType": "bytes32",
          "name": "role",
          "type": "bytes32"
        },
        {
          "indexed": true,
          "internalType": "address",
          "name": "account",
          "type": "address"
        },
        {
          "indexed": true,
          "internalType": "address",
          "name": "sender",
          "type": "address"
        }
      ],
      "name": "RoleRevoked",
      "type": "event"
    },
    {
      "anonymous": false,
      "inputs": [
        {
          "indexed": false,
          "internalType": "uint256",
          "name": "newThreshold",
          "type": "uint256"
        }
      ],
      "name": "ThresholdUpdated",
      "type": "event"
    },
    {
      "anonymous": false,
      "inputs": [
        {
          "indexed": true,
          "internalType": "address",
          "name": "token",
          "type": "address"
        },
        {
          "indexed": true,
          "internalType": "address",
          "name": "recipient",
          "type": "address"
        },
        {
          "indexed": false,
          "internalType": "uint256",
          "name": "amount",
          "type": "uint256"
        }
      ],
      "name": "TokenTransferred",
      "type": "event"
    },
    {
      "inputs": [],
      "name": "DEFAULT_ADMIN_ROLE",
      "outputs": [
        {
          "internalType": "bytes32",
          "name": "",
          "type": "bytes32"
        }
      ],
      "stateMutability": "view",
      "type": "function"
    },
    {
      "inputs": [],
      "name": "MAX_APPROVAL",
      "outputs": [
        {
          "internalType": "uint256",
          "name": "",
          "type": "uint256"
        }
      ],
      "stateMutability": "view",
      "type": "function"
    },
    {
      "inputs": [],
      "name": "OPTIMIZER_ROLE",
      "outputs": [
        {
          "internalType": "bytes32",
          "name": "",
          "type": "bytes32"
        }
      ],
      "stateMutability": "view",
      "type": "function"
    },
    {
      "inputs": [],
      "name": "TRANSFER_ROLE",
      "outputs": [
        {
          "internalType": "bytes32",
          "name": "",
          "type": "bytes32"
        }
      ],
      "stateMutability": "view",
      "type": "function"
    },
    {
      "inputs": [],
      "name": "approvalThreshold",
      "outputs": [
        {
          "internalType": "uint256",
          "name": "",
          "type": "uint256"
        }
      ],
      "stateMutability": "view",
      "type": "function"
    },
    {
      "inputs": [
        {
          "internalType": "address",
          "name": "token",
          "type": "address"
        },
        {
          "internalType": "address",
          "name": "spender",
          "type": "address"
        },
        {
          "internalType": "uint256",
          "name": "amount",
          "type": "uint256"
        }
      ],
      "name": "approve",
      "outputs": [],
      "stateMutability": "nonpayable",
      "type": "function"
    },
    {
      "inputs": [
        {
          "internalType": "bytes32",
          "name": "role",
          "type": "bytes32"
        }
      ],
      "name": "getRoleAdmin",
      "outputs": [
        {
          "internalType": "bytes32",
          "name": "",
          "type": "bytes32"
        }
      ],
      "stateMutability": "view",
      "type": "function"
    },
    {
      "inputs": [
        {
          "internalType": "bytes32",
          "name": "role",
          "type": "bytes32"
        },
        {
          "internalType": "address",
          "name": "account",
          "type": "address"
        }
      ],
      "name": "grantOptimizationRole",
      "outputs": [],
      "stateMutability": "nonpayable",
      "type": "function"
    },
    {
      "inputs": [
        {
          "internalType": "bytes32",
          "name": "role",
          "type": "bytes32"
        },
        {
          "internalType": "address",
          "name": "account",
          "type": "address"
        }
      ],
      "name": "grantRole",
      "outputs": [],
      "stateMutability": "nonpayable",
      "type": "function"
    },
    {
      "inputs": [
        {
          "internalType": "bytes32",
          "name": "role",
          "type": "bytes32"
        },
        {
          "internalType": "address",
          "name": "account",
          "type": "address"
        }
      ],
      "name": "hasRole",
      "outputs": [
        {
          "internalType": "bool",
          "name": "",
          "type": "bool"
        }
      ],
      "stateMutability": "view",
      "type": "function"
    },
    {
      "inputs": [
        {
          "internalType": "address",
          "name": "token",
          "type": "address"
        },
        {
          "internalType": "address",
          "name": "owner",
          "type": "address"
        },
        {
          "internalType": "address",
          "name": "spender",
          "type": "address"
        },
        {
          "internalType": "uint256",
          "name": "amount",
          "type": "uint256"
        }
      ],
      "name": "optimizeApproval",
      "outputs": [
        {
          "internalType": "bool",
          "name": "",
          "type": "bool"
        }
      ],
      "stateMutability": "nonpayable",
      "type": "function"
    },
    {
      "inputs": [],
      "name": "owner",
      "outputs": [
        {
          "internalType": "address",
          "name": "",
          "type": "address"
        }
      ],
      "stateMutability": "view",
      "type": "function"
    },
    {
      "inputs": [],
      "name": "renounceOwnership",
      "outputs": [],
      "stateMutability": "nonpayable",
      "type": "function"
    },
    {
      "inputs": [
        {
          "internalType": "bytes32",
          "name": "role",
          "type": "bytes32"
        },
        {
          "internalType": "address",
          "name": "callerConfirmation",
          "type": "address"
        }
      ],
      "name": "renounceRole",
      "outputs": [],
      "stateMutability": "nonpayable",
      "type": "function"
    },
    {
      "inputs": [
        {
          "internalType": "bytes32",
          "name": "role",
          "type": "bytes32"
        },
        {
          "internalType": "address",
          "name": "account",
          "type": "address"
        }
      ],
      "name": "revokeOptimizationRole",
      "outputs": [],
      "stateMutability": "nonpayable",
      "type": "function"
    },
    {
      "inputs": [
        {
          "internalType": "bytes32",
          "name": "role",
          "type": "bytes32"
        },
        {
          "internalType": "address",
          "name": "account",
          "type": "address"
        }
      ],
      "name": "revokeRole",
      "outputs": [],
      "stateMutability": "nonpayable",
      "type": "function"
    },
    {
      "inputs": [
        {
          "internalType": "uint256",
          "name": "newThreshold",
          "type": "uint256"
        }
      ],
      "name": "setApprovalThreshold",
      "outputs": [],
      "stateMutability": "nonpayable",
      "type": "function"
    },
    {
      "inputs": [
        {
          "internalType": "bytes4",
          "name": "interfaceId",
          "type": "bytes4"
        }
      ],
      "name": "supportsInterface",
      "outputs": [
        {
          "internalType": "bool",
          "name": "",
          "type": "bool"
        }
      ],
      "stateMutability": "view",
      "type": "function"
    },
    {
      "inputs": [
        {
          "internalType": "address",
          "name": "newOwner",
          "type": "address"
        }
      ],
      "name": "transferOwnership",
      "outputs": [],
      "stateMutability": "nonpayable",
      "type": "function"
    },
    {
      "inputs": [
        {
          "internalType": "address",
          "name": "token",
          "type": "address"
        },
        {
          "internalType": "address",
          "name": "recipient",
          "type": "address"
        },
        {
          "internalType": "uint256",
          "name": "amount",
          "type": "uint256"
        }
      ],
      "name": "transferTokens",
      "outputs": [
        {
          "internalType": "bool",
          "name": "",
          "type": "bool"
        }
      ],
      "stateMutability": "nonpayable",
      "type": "function"
    }
  ],
  "bytecode": "0x60806040523480156200001157600080fd5b5060405162001004380380620010048339810160408190526200003491620001ff565b33806200005c57604051631e4fbdf760e01b8152600060048201526024015b60405180910390fd5b620000678162000118565b506200007560003362000168565b50620000a27fa96c7f86e8f2f01a3b935e0875bdef55f71a462e676bc68fe1697592d193c8c63362000168565b50620000cf7f8502233096d909befbda0999bb8ea2f3a6be3c138b9fbf003752a4c8bce86f6c3362000168565b5080600003620000e457601460025562000111565b60648111156200010b576040516307eec17d60e41b81526004810182905260240162000053565b60028190555b5062000219565b600080546001600160a01b038381166001600160a01b0319831681178455604051919092169283917f8be0079c531659141344cd1fd0a4f28419497f9722a3daafe3b4186f6b6457e09190a35050565b60008281526001602090815260408083206001600160a01b038516845290915281205460ff16620001f55760008381526001602081815260408084206001600160a01b0387168086529252808420805460ff19169093179092559051339286917f2f8788117e7eff1d82e926ec794901d17c78024a50270940304540a733656f0d9190a4506001620001f9565b5060005b92915050565b6000602082840312156200021257600080fd5b5051919050565b610ddb80620002296000396000f3fe608060405234801561001057600080fd5b506004361061012c5760003560e01c80638da5cb5b116100ad578063a8c1a99b11610071578063a8c1a99b1461028a578063d547741f1461029d578063e150ba55146102b0578063e1f21c67146102c3578063f2fde38b146102d657600080fd5b80638da5cb5b1461022e57806391d1485414610249578063a0016b8c1461025c578063a217fddf1461026f578063a64b6e5f1461027757600080fd5b806336568abe116100f457806336568abe146101ee57806367d7a58914610201578063715018a6146102145780637d0eef611461021c5780637f4ed8ee1461022557600080fd5b806301ffc9a714610131578063206b60f914610159578063248a9ca31461018e5780632f2d676d146101b25780632f2ff15d146101d9575b600080fd5b61014461013f366004610c11565b6102e9565b60405190151581526020015b60405180910390f35b6101807f8502233096d909befbda0999bb8ea2f3a6be3c138b9fbf003752a4c8bce86f6c81565b604051908152602001610150565b61018061019c366004610c42565b6000908152600160208190526040909120015490565b6101807fa96c7f86e8f2f01a3b935e0875bdef55f71a462e676bc68fe1697592d193c8c681565b6101ec6101e7366004610c77565b610320565b005b6101ec6101fc366004610c77565b61034c565b6101ec61020f366004610c77565b610384565b6101ec6103d7565b61018060025481565b61018060001981565b6000546040516001600160a01b039091168152602001610150565b610144610257366004610c77565b6103eb565b6101ec61026a366004610c42565b610416565b610180600081565b610144610285366004610ca3565b61048c565b610144610298366004610cdf565b61062f565b6101ec6102ab366004610c77565b6107e7565b6101ec6102be366004610c77565b61080d565b6101ec6102d1366004610ca3565b610818565b6101ec6102e4366004610d2a565b61087a565b60006001600160e01b03198216637965db0b60e01b148061031a57506301ffc9a760e01b6001600160e01b03198316145b92915050565b6000828152600160208190526040909120015461033c816108b8565b61034683836108c2565b50505050565b6001600160a01b03811633146103755760405163334bd91960e11b815260040160405180910390fd5b61037f828261093b565b505050565b600061038f816108b8565b61039983836108c2565b5060405133906001600160a01b0384169085907f2f8788117e7eff1d82e926ec794901d17c78024a50270940304540a733656f0d90600090a4505050565b6103df6109a8565b6103e960006109d5565b565b60009182526001602090815260408084206001600160a01b0393909316845291905290205460ff1690565b61041e6109a8565b80158061042b5750606481115b15610451576040516307eec17d60e41b8152600481018290526024015b60405180910390fd5b60028190556040518181527fadfa8ecb21b6962ebcd0adbd9ab985b7b4c5b5eb3b0dead683171565c7bfe1719060200160405180910390a150565b60007f8502233096d909befbda0999bb8ea2f3a6be3c138b9fbf003752a4c8bce86f6c6104b8816108b8565b6001600160a01b0385166104df57604051630f58058360e11b815260040160405180910390fd5b6001600160a01b0384166105065760405163226ccff560e11b815260040160405180910390fd5b8260000361052757604051630f16a02160e21b815260040160405180910390fd5b6040516370a0823160e01b815230600482015285906000906001600160a01b038316906370a0823190602401602060405180830381865afa158015610570573d6000803e3d6000fd5b505050506040513d601f19601f820116820180604052508101906105949190610d45565b9050848110156105c15760405163cf47918160e01b81526004810182905260248101869052604401610448565b6105d56001600160a01b0383168787610a25565b856001600160a01b0316876001600160a01b03167f9c8515990fd8c61431c4ac8db9b81475f90c292a1dda77731e56c22e64fc76438760405161061a91815260200190565b60405180910390a35060019695505050505050565b60007fa96c7f86e8f2f01a3b935e0875bdef55f71a462e676bc68fe1697592d193c8c661065b816108b8565b6001600160a01b03861661068257604051630f58058360e11b815260040160405180910390fd5b6001600160a01b0385166106a957604051633649397d60e21b815260040160405180910390fd5b6001600160a01b0384166106d0576040516305be3b0760e21b815260040160405180910390fd5b604051636eb1769f60e11b81526001600160a01b0386811660048301528581166024830152879160009183169063dd62ed3e90604401602060405180830381865afa158015610723573d6000803e3d6000fd5b505050506040513d601f19601f820116820180604052508101906107479190610d45565b90506064600254866107599190610d5e565b6107639190610d83565b8110156107d957801561077c5761077c82876000610a84565b6107898287600019610a84565b856001600160a01b0316886001600160a01b03167fdd67c589f610ce1c6df672a51e2255294d52b1682655dc50572b076a4ced5de86000196040516107d091815260200190565b60405180910390a35b506001979650505050505050565b60008281526001602081905260409091200154610803816108b8565b610346838361093b565b6000610803816108b8565b6108206109a8565b6001600160a01b03831661084757604051630f58058360e11b815260040160405180910390fd5b6001600160a01b03821661086e576040516305be3b0760e21b815260040160405180910390fd5b82610346818484610a84565b6108826109a8565b6001600160a01b0381166108ac57604051631e4fbdf760e01b815260006004820152602401610448565b6108b5816109d5565b50565b6108b58133610b14565b60006108ce83836103eb565b6109335760008381526001602081815260408084206001600160a01b0387168086529252808420805460ff19169093179092559051339286917f2f8788117e7eff1d82e926ec794901d17c78024a50270940304540a733656f0d9190a450600161031a565b50600061031a565b600061094783836103eb565b156109335760008381526001602090815260408083206001600160a01b0386168085529252808320805460ff1916905551339286917ff6391f5c32d9c69d2a47ea670b442974b53935d1edc7fd64eb21e047a839171b9190a450600161031a565b6000546001600160a01b031633146103e95760405163118cdaa760e01b8152336004820152602401610448565b600080546001600160a01b038381166001600160a01b0319831681178455604051919092169283917f8be0079c531659141344cd1fd0a4f28419497f9722a3daafe3b4186f6b6457e09190a35050565b6040516001600160a01b0383811660248301526044820183905261037f91859182169063a9059cbb906064015b604051602081830303815290604052915060e01b6020820180516001600160e01b038381831617835250505050610b51565b604080516001600160a01b038416602482015260448082018490528251808303909101815260649091019091526020810180516001600160e01b031663095ea7b360e01b179052610ad58482610bc2565b610346576040516001600160a01b03848116602483015260006044830152610b0a91869182169063095ea7b390606401610a52565b6103468482610b51565b610b1e82826103eb565b610b4d5760405163e2517d3f60e01b81526001600160a01b038216600482015260248101839052604401610448565b5050565b600080602060008451602086016000885af180610b74576040513d6000823e3d81fd5b50506000513d91508115610b8c578060011415610b99565b6001600160a01b0384163b155b1561034657604051635274afe760e01b81526001600160a01b0385166004820152602401610448565b6000806000806020600086516020880160008a5af192503d91506000519050828015610c0757508115610bf85780600114610c07565b6000866001600160a01b03163b115b9695505050505050565b600060208284031215610c2357600080fd5b81356001600160e01b031981168114610c3b57600080fd5b9392505050565b600060208284031215610c5457600080fd5b5035919050565b80356001600160a01b0381168114610c7257600080fd5b919050565b60008060408385031215610c8a57600080fd5b82359150610c9a60208401610c5b565b90509250929050565b600080600060608486031215610cb857600080fd5b610cc184610c5b565b9250610ccf60208501610c5b565b9150604084013590509250925092565b60008060008060808587031215610cf557600080fd5b610cfe85610c5b565b9350610d0c60208601610c5b565b9250610d1a60408601610c5b565b9396929550929360600135925050565b600060208284031215610d3c57600080fd5b610c3b82610c5b565b600060208284031215610d5757600080fd5b5051919050565b808202811582820484141761031a57634e487b7160e01b600052601160045260246000fd5b600082610da057634e487b7160e01b600052601260045260246000fd5b50049056fea2646970667358221220509a2e090f6908e85200410c5b5ce71c1f6cac42ed161911f835acf564b7599e64736f6c63430008180033",
  "linkReferences": {},
  "deployedLinkReferences": {}
}