{
  "_format": "hh-sol-artifact-1",
  "contractName": "MockAINodeGovernance",
  "sourceName": "contracts/mocks/MockAINodeGovernance.sol",
  "abi": [
    {
      "inputs": [],
      "stateMutability": "nonpayable",
      "type": "constructor"
    },
    {
      "inputs": [],
      "name": "AccessControlBadConfirmation",
      "type": "error"
    },
    {
      "inputs": [
        {
          "internalType": "address",
          "name": "account",
          "type": "address"
        },
        {
          "internalType": "bytes32",
          "name": "neededRole",
          "type": "bytes32"
        }
      ],
      "name": "AccessControlUnauthorizedAccount",
      "type": "error"
    },
    {
      "anonymous": false,
      "inputs": [
        {
          "indexed": true,
          "internalType": "address",
          "name": "delegator",
          "type": "address"
        },
        {
          "indexed": true,
          "internalType": "address",
          "name": "node",
          "type": "address"
        },
        {
          "indexed": false,
          "internalType": "uint256",
          "name": "amount",
          "type": "uint256"
        }
      ],
      "name": "DelegationCreated",
      "type": "event"
    },
    {
      "anonymous": false,
      "inputs": [
        {
          "indexed": true,
          "internalType": "address",
          "name": "delegator",
          "type": "address"
        },
        {
          "indexed": true,
          "internalType": "address",
          "name": "node",
          "type": "address"
        },
        {
          "indexed": false,
          "internalType": "uint256",
          "name": "amount",
          "type": "uint256"
        }
      ],
      "name": "DelegationWithdrawn",
      "type": "event"
    },
    {
      "anonymous": false,
      "inputs": [
        {
          "indexed": true,
          "internalType": "string",
          "name": "functionName",
          "type": "string"
        },
        {
          "indexed": true,
          "internalType": "address",
          "name": "caller",
          "type": "address"
        },
        {
          "indexed": false,
          "internalType": "bytes",
          "name": "data",
          "type": "bytes"
        }
      ],
      "name": "MockFunctionCalled",
      "type": "event"
    },
    {
      "anonymous": false,
      "inputs": [
        {
          "indexed": true,
          "internalType": "address",
          "name": "caller",
          "type": "address"
        }
      ],
      "name": "MockInitialized",
      "type": "event"
    },
    {
      "anonymous": false,
      "inputs": [],
      "name": "MockStateReset",
      "type": "event"
    },
    {
      "anonymous": false,
      "inputs": [
        {
          "indexed": true,
          "internalType": "address",
          "name": "node",
          "type": "address"
        },
        {
          "indexed": true,
          "internalType": "address",
          "name": "owner",
          "type": "address"
        },
        {
          "indexed": false,
          "internalType": "enum IAINodeGovernance.NodeType",
          "name": "nodeType",
          "type": "uint8"
        }
      ],
      "name": "NodeRegistered",
      "type": "event"
    },
    {
      "anonymous": false,
      "inputs": [
        {
          "indexed": true,
          "internalType": "address",
          "name": "node",
          "type": "address"
        },
        {
          "indexed": false,
          "internalType": "uint256",
          "name": "amount",
          "type": "uint256"
        }
      ],
      "name": "NodeStakeDecreased",
      "type": "event"
    },
    {
      "anonymous": false,
      "inputs": [
        {
          "indexed": true,
          "internalType": "address",
          "name": "node",
          "type": "address"
        },
        {
          "indexed": false,
          "internalType": "uint256",
          "name": "amount",
          "type": "uint256"
        }
      ],
      "name": "NodeStakeIncreased",
      "type": "event"
    },
    {
      "anonymous": false,
      "inputs": [
        {
          "indexed": false,
          "internalType": "uint256",
          "name": "minNodeStake",
          "type": "uint256"
        },
        {
          "indexed": false,
          "internalType": "uint256",
          "name": "minDelegationAmount",
          "type": "uint256"
        },
        {
          "indexed": false,
          "internalType": "uint256",
          "name": "delegationCooldown",
          "type": "uint256"
        },
        {
          "indexed": false,
          "internalType": "uint256",
          "name": "inactivityThreshold",
          "type": "uint256"
        }
      ],
      "name": "ParametersUpdated",
      "type": "event"
    },
    {
      "anonymous": false,
      "inputs": [
        {
          "indexed": true,
          "internalType": "uint256",
          "name": "proposalId",
          "type": "uint256"
        }
      ],
      "name": "ProposalCanceled",
      "type": "event"
    },
    {
      "anonymous": false,
      "inputs": [
        {
          "indexed": true,
          "internalType": "uint256",
          "name": "proposalId",
          "type": "uint256"
        },
        {
          "indexed": true,
          "internalType": "address",
          "name": "proposer",
          "type": "address"
        },
        {
          "indexed": false,
          "internalType": "string",
          "name": "description",
          "type": "string"
        }
      ],
      "name": "ProposalCreated",
      "type": "event"
    },
    {
      "anonymous": false,
      "inputs": [
        {
          "indexed": true,
          "internalType": "uint256",
          "name": "proposalId",
          "type": "uint256"
        }
      ],
      "name": "ProposalExecuted",
      "type": "event"
    },
    {
      "anonymous": false,
      "inputs": [
        {
          "indexed": true,
          "internalType": "bytes32",
          "name": "role",
          "type": "bytes32"
        },
        {
          "indexed": true,
          "internalType": "bytes32",
          "name": "previousAdminRole",
          "type": "bytes32"
        },
        {
          "indexed": true,
          "internalType": "bytes32",
          "name": "newAdminRole",
          "type": "bytes32"
        }
      ],
      "name": "RoleAdminChanged",
      "type": "event"
    },
    {
      "anonymous": false,
      "inputs": [
        {
          "indexed": true,
          "internalType": "bytes32",
          "name": "role",
          "type": "bytes32"
        },
        {
          "indexed": true,
          "internalType": "address",
          "name": "account",
          "type": "address"
        },
        {
          "indexed": true,
          "internalType": "address",
          "name": "sender",
          "type": "address"
        }
      ],
      "name": "RoleGranted",
      "type": "event"
    },
    {
      "anonymous": false,
      "inputs": [
        {
          "indexed": true,
          "internalType": "bytes32",
          "name": "role",
          "type": "bytes32"
        },
        {
          "indexed": true,
          "internalType": "address",
          "name": "account",
          "type": "address"
        },
        {
          "indexed": true,
          "internalType": "address",
          "name": "sender",
          "type": "address"
        }
      ],
      "name": "RoleRevoked",
      "type": "event"
    },
    {
      "anonymous": false,
      "inputs": [
        {
          "indexed": true,
          "internalType": "uint256",
          "name": "proposalId",
          "type": "uint256"
        },
        {
          "indexed": true,
          "internalType": "address",
          "name": "voter",
          "type": "address"
        },
        {
          "indexed": false,
          "internalType": "bool",
          "name": "support",
          "type": "bool"
        },
        {
          "indexed": false,
          "internalType": "uint256",
          "name": "weight",
          "type": "uint256"
        }
      ],
      "name": "VoteCast",
      "type": "event"
    },
    {
      "inputs": [],
      "name": "ADMIN_ROLE",
      "outputs": [
        {
          "internalType": "bytes32",
          "name": "",
          "type": "bytes32"
        }
      ],
      "stateMutability": "view",
      "type": "function"
    },
    {
      "inputs": [],
      "name": "DEFAULT_ADMIN_ROLE",
      "outputs": [
        {
          "internalType": "bytes32",
          "name": "",
          "type": "bytes32"
        }
      ],
      "stateMutability": "view",
      "type": "function"
    },
    {
      "inputs": [],
      "name": "GOVERNANCE_ROLE",
      "outputs": [
        {
          "internalType": "bytes32",
          "name": "",
          "type": "bytes32"
        }
      ],
      "stateMutability": "view",
      "type": "function"
    },
    {
      "inputs": [],
      "name": "admin",
      "outputs": [
        {
          "internalType": "address",
          "name": "",
          "type": "address"
        }
      ],
      "stateMutability": "view",
      "type": "function"
    },
    {
      "inputs": [],
      "name": "callCount",
      "outputs": [
        {
          "internalType": "uint256",
          "name": "",
          "type": "uint256"
        }
      ],
      "stateMutability": "view",
      "type": "function"
    },
    {
      "inputs": [
        {
          "internalType": "uint256",
          "name": "proposalId",
          "type": "uint256"
        }
      ],
      "name": "cancelProposal",
      "outputs": [],
      "stateMutability": "nonpayable",
      "type": "function"
    },
    {
      "inputs": [
        {
          "internalType": "uint256",
          "name": "proposalId",
          "type": "uint256"
        },
        {
          "internalType": "bool",
          "name": "support",
          "type": "bool"
        }
      ],
      "name": "castVote",
      "outputs": [],
      "stateMutability": "nonpayable",
      "type": "function"
    },
    {
      "inputs": [
        {
          "internalType": "uint256",
          "name": "amount",
          "type": "uint256"
        }
      ],
      "name": "decreaseNodeStake",
      "outputs": [],
      "stateMutability": "nonpayable",
      "type": "function"
    },
    {
      "inputs": [
        {
          "internalType": "address",
          "name": "node",
          "type": "address"
        },
        {
          "internalType": "uint256",
          "name": "amount",
          "type": "uint256"
        }
      ],
      "name": "delegateToNode",
      "outputs": [],
      "stateMutability": "nonpayable",
      "type": "function"
    },
    {
      "inputs": [],
      "name": "delegationCooldown",
      "outputs": [
        {
          "internalType": "uint256",
          "name": "",
          "type": "uint256"
        }
      ],
      "stateMutability": "view",
      "type": "function"
    },
    {
      "inputs": [
        {
          "internalType": "uint256",
          "name": "proposalId",
          "type": "uint256"
        }
      ],
      "name": "executeProposal",
      "outputs": [],
      "stateMutability": "nonpayable",
      "type": "function"
    },
    {
      "inputs": [
        {
          "internalType": "string",
          "name": "",
          "type": "string"
        }
      ],
      "name": "functionCallCount",
      "outputs": [
        {
          "internalType": "uint256",
          "name": "",
          "type": "uint256"
        }
      ],
      "stateMutability": "view",
      "type": "function"
    },
    {
      "inputs": [
        {
          "internalType": "string",
          "name": "functionName",
          "type": "string"
        }
      ],
      "name": "getFunctionCallCount",
      "outputs": [
        {
          "internalType": "uint256",
          "name": "",
          "type": "uint256"
        }
      ],
      "stateMutability": "view",
      "type": "function"
    },
    {
      "inputs": [
        {
          "internalType": "string",
          "name": "functionName",
          "type": "string"
        }
      ],
      "name": "getFunctionCallHistory",
      "outputs": [
        {
          "internalType": "uint256",
          "name": "count",
          "type": "uint256"
        },
        {
          "internalType": "address",
          "name": "lastCaller_",
          "type": "address"
        },
        {
          "internalType": "bytes",
          "name": "lastData",
          "type": "bytes"
        }
      ],
      "stateMutability": "view",
      "type": "function"
    },
    {
      "inputs": [
        {
          "internalType": "address",
          "name": "node",
          "type": "address"
        }
      ],
      "name": "getNode",
      "outputs": [
        {
          "internalType": "address",
          "name": "_ownerAddress",
          "type": "address"
        },
        {
          "internalType": "enum IAINodeGovernance.NodeType",
          "name": "nodeType",
          "type": "uint8"
        },
        {
          "internalType": "uint256",
          "name": "stake",
          "type": "uint256"
        },
        {
          "internalType": "uint256",
          "name": "delegatedAmount",
          "type": "uint256"
        },
        {
          "internalType": "uint256",
          "name": "reputation",
          "type": "uint256"
        },
        {
          "internalType": "uint256",
          "name": "lastActivity",
          "type": "uint256"
        },
        {
          "internalType": "bool",
          "name": "isActive",
          "type": "bool"
        }
      ],
      "stateMutability": "view",
      "type": "function"
    },
    {
      "inputs": [
        {
          "internalType": "uint256",
          "name": "proposalId",
          "type": "uint256"
        }
      ],
      "name": "getProposal",
      "outputs": [
        {
          "internalType": "string",
          "name": "description",
          "type": "string"
        },
        {
          "internalType": "address",
          "name": "proposer",
          "type": "address"
        },
        {
          "internalType": "uint256",
          "name": "createdAt",
          "type": "uint256"
        },
        {
          "internalType": "uint256",
          "name": "votingEnds",
          "type": "uint256"
        },
        {
          "internalType": "uint256",
          "name": "forVotes",
          "type": "uint256"
        },
        {
          "internalType": "uint256",
          "name": "againstVotes",
          "type": "uint256"
        },
        {
          "internalType": "bool",
          "name": "executed",
          "type": "bool"
        },
        {
          "internalType": "bool",
          "name": "canceled",
          "type": "bool"
        }
      ],
      "stateMutability": "view",
      "type": "function"
    },
    {
      "inputs": [
        {
          "internalType": "bytes32",
          "name": "role",
          "type": "bytes32"
        }
      ],
      "name": "getRoleAdmin",
      "outputs": [
        {
          "internalType": "bytes32",
          "name": "",
          "type": "bytes32"
        }
      ],
      "stateMutability": "view",
      "type": "function"
    },
    {
      "inputs": [
        {
          "internalType": "bytes32",
          "name": "role",
          "type": "bytes32"
        },
        {
          "internalType": "address",
          "name": "account",
          "type": "address"
        }
      ],
      "name": "grantRole",
      "outputs": [],
      "stateMutability": "nonpayable",
      "type": "function"
    },
    {
      "inputs": [
        {
          "internalType": "bytes32",
          "name": "role",
          "type": "bytes32"
        },
        {
          "internalType": "address",
          "name": "account",
          "type": "address"
        }
      ],
      "name": "hasRole",
      "outputs": [
        {
          "internalType": "bool",
          "name": "",
          "type": "bool"
        }
      ],
      "stateMutability": "view",
      "type": "function"
    },
    {
      "inputs": [
        {
          "internalType": "uint256",
          "name": "",
          "type": "uint256"
        },
        {
          "internalType": "address",
          "name": "",
          "type": "address"
        }
      ],
      "name": "hasVoted",
      "outputs": [
        {
          "internalType": "bool",
          "name": "",
          "type": "bool"
        }
      ],
      "stateMutability": "view",
      "type": "function"
    },
    {
      "inputs": [],
      "name": "inactivityThreshold",
      "outputs": [
        {
          "internalType": "uint256",
          "name": "",
          "type": "uint256"
        }
      ],
      "stateMutability": "view",
      "type": "function"
    },
    {
      "inputs": [
        {
          "internalType": "uint256",
          "name": "amount",
          "type": "uint256"
        }
      ],
      "name": "increaseNodeStake",
      "outputs": [],
      "stateMutability": "nonpayable",
      "type": "function"
    },
    {
      "inputs": [],
      "name": "initialize",
      "outputs": [],
      "stateMutability": "nonpayable",
      "type": "function"
    },
    {
      "inputs": [],
      "name": "initialized",
      "outputs": [
        {
          "internalType": "bool",
          "name": "",
          "type": "bool"
        }
      ],
      "stateMutability": "view",
      "type": "function"
    },
    {
      "inputs": [
        {
          "internalType": "string",
          "name": "",
          "type": "string"
        }
      ],
      "name": "lastCallData",
      "outputs": [
        {
          "internalType": "bytes",
          "name": "",
          "type": "bytes"
        }
      ],
      "stateMutability": "view",
      "type": "function"
    },
    {
      "inputs": [],
      "name": "lastCaller",
      "outputs": [
        {
          "internalType": "address",
          "name": "",
          "type": "address"
        }
      ],
      "stateMutability": "view",
      "type": "function"
    },
    {
      "inputs": [
        {
          "internalType": "string",
          "name": "",
          "type": "string"
        }
      ],
      "name": "lastCallerByFunction",
      "outputs": [
        {
          "internalType": "address",
          "name": "",
          "type": "address"
        }
      ],
      "stateMutability": "view",
      "type": "function"
    },
    {
      "inputs": [],
      "name": "minDelegationAmount",
      "outputs": [
        {
          "internalType": "uint256",
          "name": "",
          "type": "uint256"
        }
      ],
      "stateMutability": "view",
      "type": "function"
    },
    {
      "inputs": [],
      "name": "minNodeStake",
      "outputs": [
        {
          "internalType": "uint256",
          "name": "",
          "type": "uint256"
        }
      ],
      "stateMutability": "view",
      "type": "function"
    },
    {
      "inputs": [
        {
          "internalType": "address",
          "name": "",
          "type": "address"
        }
      ],
      "name": "nodes",
      "outputs": [
        {
          "internalType": "address",
          "name": "owner",
          "type": "address"
        },
        {
          "internalType": "enum IAINodeGovernance.NodeType",
          "name": "nodeType",
          "type": "uint8"
        },
        {
          "internalType": "uint256",
          "name": "stake",
          "type": "uint256"
        },
        {
          "internalType": "uint256",
          "name": "delegatedAmount",
          "type": "uint256"
        },
        {
          "internalType": "uint256",
          "name": "reputation",
          "type": "uint256"
        },
        {
          "internalType": "uint256",
          "name": "lastActivity",
          "type": "uint256"
        },
        {
          "internalType": "bool",
          "name": "isActive",
          "type": "bool"
        }
      ],
      "stateMutability": "view",
      "type": "function"
    },
    {
      "inputs": [],
      "name": "owner",
      "outputs": [
        {
          "internalType": "address",
          "name": "",
          "type": "address"
        }
      ],
      "stateMutability": "view",
      "type": "function"
    },
    {
      "inputs": [],
      "name": "proposalCount",
      "outputs": [
        {
          "internalType": "uint256",
          "name": "",
          "type": "uint256"
        }
      ],
      "stateMutability": "view",
      "type": "function"
    },
    {
      "inputs": [
        {
          "internalType": "uint256",
          "name": "",
          "type": "uint256"
        }
      ],
      "name": "proposals",
      "outputs": [
        {
          "internalType": "string",
          "name": "description",
          "type": "string"
        },
        {
          "internalType": "address",
          "name": "proposer",
          "type": "address"
        },
        {
          "internalType": "uint256",
          "name": "createdAt",
          "type": "uint256"
        },
        {
          "internalType": "uint256",
          "name": "votingEnds",
          "type": "uint256"
        },
        {
          "internalType": "uint256",
          "name": "forVotes",
          "type": "uint256"
        },
        {
          "internalType": "uint256",
          "name": "againstVotes",
          "type": "uint256"
        },
        {
          "internalType": "bool",
          "name": "executed",
          "type": "bool"
        },
        {
          "internalType": "bool",
          "name": "canceled",
          "type": "bool"
        }
      ],
      "stateMutability": "view",
      "type": "function"
    },
    {
      "inputs": [
        {
          "internalType": "enum IAINodeGovernance.NodeType",
          "name": "nodeType",
          "type": "uint8"
        }
      ],
      "name": "registerNode",
      "outputs": [],
      "stateMutability": "nonpayable",
      "type": "function"
    },
    {
      "inputs": [
        {
          "internalType": "bytes32",
          "name": "role",
          "type": "bytes32"
        },
        {
          "internalType": "address",
          "name": "callerConfirmation",
          "type": "address"
        }
      ],
      "name": "renounceRole",
      "outputs": [],
      "stateMutability": "nonpayable",
      "type": "function"
    },
    {
      "inputs": [],
      "name": "reset",
      "outputs": [],
      "stateMutability": "nonpayable",
      "type": "function"
    },
    {
      "inputs": [
        {
          "internalType": "bytes32",
          "name": "role",
          "type": "bytes32"
        },
        {
          "internalType": "address",
          "name": "account",
          "type": "address"
        }
      ],
      "name": "revokeRole",
      "outputs": [],
      "stateMutability": "nonpayable",
      "type": "function"
    },
    {
      "inputs": [
        {
          "internalType": "address",
          "name": "node",
          "type": "address"
        },
        {
          "internalType": "uint256",
          "name": "reputation",
          "type": "uint256"
        }
      ],
      "name": "setNodeReputation",
      "outputs": [],
      "stateMutability": "nonpayable",
      "type": "function"
    },
    {
      "inputs": [
        {
          "internalType": "uint256",
          "name": "proposalId",
          "type": "uint256"
        },
        {
          "internalType": "bool",
          "name": "executed",
          "type": "bool"
        },
        {
          "internalType": "bool",
          "name": "canceled",
          "type": "bool"
        }
      ],
      "name": "setProposalState",
      "outputs": [],
      "stateMutability": "nonpayable",
      "type": "function"
    },
    {
      "inputs": [
        {
          "internalType": "string",
          "name": "description",
          "type": "string"
        },
        {
          "internalType": "address[]",
          "name": "targets",
          "type": "address[]"
        },
        {
          "internalType": "uint256[]",
          "name": "values",
          "type": "uint256[]"
        },
        {
          "internalType": "bytes[]",
          "name": "calldatas",
          "type": "bytes[]"
        }
      ],
      "name": "submitProposal",
      "outputs": [
        {
          "internalType": "uint256",
          "name": "",
          "type": "uint256"
        }
      ],
      "stateMutability": "nonpayable",
      "type": "function"
    },
    {
      "inputs": [
        {
          "internalType": "bytes4",
          "name": "interfaceId",
          "type": "bytes4"
        }
      ],
      "name": "supportsInterface",
      "outputs": [
        {
          "internalType": "bool",
          "name": "",
          "type": "bool"
        }
      ],
      "stateMutability": "view",
      "type": "function"
    },
    {
      "inputs": [
        {
          "internalType": "uint256",
          "name": "_minNodeStake",
          "type": "uint256"
        },
        {
          "internalType": "uint256",
          "name": "_minDelegationAmount",
          "type": "uint256"
        },
        {
          "internalType": "uint256",
          "name": "_delegationCooldown",
          "type": "uint256"
        },
        {
          "internalType": "uint256",
          "name": "_inactivityThreshold",
          "type": "uint256"
        }
      ],
      "name": "updateParameters",
      "outputs": [],
      "stateMutability": "nonpayable",
      "type": "function"
    },
    {
      "inputs": [
        {
          "internalType": "string",
          "name": "functionName",
          "type": "string"
        }
      ],
      "name": "wasFunctionCalled",
      "outputs": [
        {
          "internalType": "bool",
          "name": "",
          "type": "bool"
        }
      ],
      "stateMutability": "view",
      "type": "function"
    },
    {
      "inputs": [
        {
          "internalType": "address",
          "name": "node",
          "type": "address"
        },
        {
          "internalType": "uint256",
          "name": "amount",
          "type": "uint256"
        }
      ],
      "name": "withdrawDelegation",
      "outputs": [],
      "stateMutability": "nonpayable",
      "type": "function"
    }
  ],
  "bytecode": "0x608060405234801561001057600080fd5b503360008181527ff4803e074bd026baaf6ed2e288c9515f68c72fb7216eebdd7cae1718a53ec375602090815260408083208054600160ff1991821681178355600680546001600160a01b03199081168917909155600780549091169097179096558154811686179091557f90d60a028e5787c6e8135d966fd25bf630b21251c4970c6810a549081ae79dc8835281842080548216861790557fa706e793058b62ecd5aba92226a8d5829788319af3d300a6c5081fe73aa09e7e90925282208054909116909217909155683635c9adc5dea0000060085568056bc75e2d631000006009556203f480600a5562278d00600b55612b9590819061011290396000f3fe608060405234801561001057600080fd5b50600436106102745760003560e01c80638129fc1c11610151578063d547741f116100c3578063e0a8f6f511610087578063e0a8f6f514610670578063eb72ba7b14610683578063ecaad27814610696578063ee1eab4f1461069f578063f36c8f5c146106b2578063f851a440146106d957600080fd5b8063d547741f14610619578063d826f88f1461062c578063da35c66414610634578063daca564a1461063d578063dfdbdd501461065057600080fd5b80639d209048116101155780639d209048146105705780639ec86276146105cf578063a217fddf146105d8578063b9a06d2c146105e0578063c054c6ce146105f3578063c7f758a81461060657600080fd5b80638129fc1c146105265780638da5cb5b1461052e5780638f8a68c91461054157806391d148541461055457806392805bb91461056757600080fd5b80632113522a116101ea5780634021a412116101ae5780634021a41214610493578063422b010b1461049c57806343859632146104c75780634b28f9a2146104f557806364af6ef9146104fe57806375b238fc1461051157600080fd5b80632113522a14610410578063248a9ca3146104285780632f2ff15d1461044b57806336568abe1461045e5780633ca3910c1461047157600080fd5b8063139540851161023c578063139540851461030757806315373e3d1461031a578063158ef93e1461032d578063189a5a171461033a5780631a82a643146103a35780631df86bc6146103c457600080fd5b8063013cf08b1461027957806301a5d67e146102a957806301ffc9a7146102be5780630cf1b1ca146102e15780630d61b519146102f4575b600080fd5b61028c610287366004612185565b6106ec565b6040516102a09897969594939291906121ee565b60405180910390f35b6102bc6102b7366004612262565b6107c7565b005b6102d16102cc36600461228c565b610950565b60405190151581526020016102a0565b6102bc6102ef366004612262565b610987565b6102bc610302366004612185565b610a65565b6102bc6103153660046122bd565b610c25565b6102bc6103283660046122ee565b610df1565b6001546102d19060ff1681565b61039061034836600461231a565b600e602052600090815260409020805460018201546002830154600384015460048501546005909501546001600160a01b0385169560ff600160a01b90960486169590911687565b6040516102a0979695949392919061236d565b6103b66103b1366004612474565b611022565b6040519081526020016102a0565b6103f86103d2366004612474565b80516020818301810180516005825292820191909301209152546001600160a01b031681565b6040516001600160a01b0390911681526020016102a0565b6001546103f89061010090046001600160a01b031681565b6103b6610436366004612185565b60009081526020819052604090206001015490565b6102bc6104593660046124b1565b61104a565b6102bc61046c3660046124b1565b611099565b61048461047f366004612474565b6110d1565b6040516102a0939291906124d4565b6103b660085481565b6103b66104aa366004612474565b805160208183018101805160038252928201919093012091525481565b6102d16104d53660046124b1565b601060209081526000928352604080842090915290825290205460ff1681565b6103b660025481565b6103b661050c36600461262f565b6111d4565b6103b6600080516020612b4083398151915281565b6102bc611407565b6006546103f8906001600160a01b031681565b6102bc61054f366004612185565b611493565b6102d16105623660046124b1565b6115c2565b6103b660095481565b61039061057e36600461231a565b6001600160a01b039081166000908152600e602052604090208054600182015460028301546003840154600485015460059095015495841696600160a01b90940460ff908116969395929491931690565b6103b6600b5481565b6103b6600081565b6102bc6105ee366004612262565b6115ed565b6102d1610601366004612474565b611741565b61028c610614366004612185565b61176b565b6102bc6106273660046124b1565b61188c565b6102bc6118b1565b6103b6600c5481565b6102bc61064b366004612737565b6118fd565b61066361065e366004612474565b6119dc565b6040516102a09190612773565b6102bc61067e366004612185565b611a81565b6102bc610691366004612185565b611bf6565b6103b6600a5481565b6102bc6106ad366004612786565b611d70565b6103b67f71840dc4906352362b0cdaf79870196c8e42acafade72d5d5a6d59291253ceb181565b6007546103f8906001600160a01b031681565b600d60205260009081526040902080548190610707906127b8565b80601f0160208091040260200160405190810160405280929190818152602001828054610733906127b8565b80156107805780601f1061075557610100808354040283529160200191610780565b820191906000526020600020905b81548152906001019060200180831161076357829003601f168201915b5050506001840154600285015460038601546004870154600588015460069098015496976001600160a01b0390941696929550909350919060ff8082169161010090041688565b610830604051806040016040528060128152602001713bb4ba34323930bba232b632b3b0ba34b7b760711b815250838360405160200161081c9291906001600160a01b03929092168252602082015260400190565b604051602081830303815290604052611e58565b6001600160a01b038281166000908152600e6020526040902054166108705760405162461bcd60e51b8152600401610867906127f2565b60405180910390fd5b6001600160a01b0382166000908152600e60205260409020600201548111156108db5760405162461bcd60e51b815260206004820152601760248201527f496e73756666696369656e742064656c65676174696f6e0000000000000000006044820152606401610867565b6001600160a01b0382166000908152600e602052604081206002018054839290610906908490612835565b90915550506040518181526001600160a01b0383169033907faa0001b0e2e76b9a1b925257fefa58b756aebc52d2d7c8a85ea5beacc77a2100906020015b60405180910390a35050565b60006001600160e01b03198216637965db0b60e01b148061098157506301ffc9a760e01b6001600160e01b03198316145b92915050565b6109db6040518060400160405280601181526020017039b2ba2737b232a932b83aba30ba34b7b760791b815250838360405160200161081c9291906001600160a01b03929092168252602082015260400190565b6109f3600080516020612b40833981519152336115c2565b610a0f5760405162461bcd60e51b815260040161086790612848565b6001600160a01b038281166000908152600e602052604090205416610a465760405162461bcd60e51b8152600401610867906127f2565b6001600160a01b039091166000908152600e6020526040902060030155565b610aa36040518060400160405280600f81526020016e195e1958dd5d19541c9bdc1bdcd85b608a1b8152508260405160200161081c91815260200190565b600c548110610ac45760405162461bcd60e51b815260040161086790612870565b6000818152600d6020526040902060038101544211610b255760405162461bcd60e51b815260206004820152601760248201527f566f74696e6720706572696f64206e6f7420656e6465640000000000000000006044820152606401610867565b600681015460ff1615610b4a5760405162461bcd60e51b81526004016108679061289d565b6006810154610100900460ff1615610b985760405162461bcd60e51b8152602060048201526011602482015270141c9bdc1bdcd85b0818d85b98d95b1959607a1b6044820152606401610867565b8060050154816004015411610be75760405162461bcd60e51b8152602060048201526015602482015274141c9bdc1bdcd85b081b9bdd08185c1c1c9bdd9959605a1b6044820152606401610867565b60068101805460ff1916600117905560405182907f712ae1383f79ac853f8d882153778e0260ef8f03b504e2866e0593e04d2b291f90600090a25050565b610c5e6040518060400160405280600c81526020016b72656769737465724e6f646560a01b8152508260405160200161081c91906128d4565b336000908152600e60205260409020546001600160a01b031615610cc45760405162461bcd60e51b815260206004820152601760248201527f4e6f646520616c726561647920726567697374657265640000000000000000006044820152606401610867565b6040518060e00160405280336001600160a01b03168152602001826001811115610cf057610cf0612335565b81526000602080830182905260408084018390526064606085015242608085015260a0909301829052338252600e8152919020825181546001600160a01b03919091166001600160a01b031982168117835592840151919283916001600160a81b03191617600160a01b836001811115610d6c57610d6c612335565b02179055506040828101516001830155606083015160028301556080830151600383015560a0830151600483015560c0909201516005909101805460ff191691151591909117905551339081907faa54a4156844bf90c10e557dc35264ed0d1a6c89b154da80583f4a2dc872743b90610de69085906128d4565b60405180910390a350565b610e336040518060400160405280600881526020016763617374566f746560c01b815250838360405160200161081c9291909182521515602082015260400190565b600c548210610e545760405162461bcd60e51b815260040161086790612870565b600082815260106020908152604080832033845290915290205460ff1615610eae5760405162461bcd60e51b815260206004820152600d60248201526c105b1c9958591e481d9bdd1959609a1b6044820152606401610867565b6000828152600d602052604090206003810154421115610f065760405162461bcd60e51b8152602060048201526013602482015272159bdd1a5b99c81c195c9a5bd908195b991959606a1b6044820152606401610867565b600681015460ff1615610f2b5760405162461bcd60e51b81526004016108679061289d565b6006810154610100900460ff1615610f795760405162461bcd60e51b8152602060048201526011602482015270141c9bdc1bdcd85b0818d85b98d95b1959607a1b6044820152606401610867565b60008381526010602090815260408083203384529091529020805460ff191660011790558115610fc3576001816004016000828254610fb891906128e2565b90915550610fde9050565b6001816005016000828254610fd891906128e2565b90915550505b60408051831515815260016020820152339185917fcbdf6214089cba887ecbf35a0b6a734589959c9763342c756bb2a80ca2bc9f6e910160405180910390a3505050565b600060038260405161103491906128f5565b9081526020016040518091039020549050919050565b60008281526020819052604090206001015461106581611f6a565b6000838152600f602090815260408083206001600160a01b03861684529091528120805460ff191660011790555b50505050565b6001600160a01b03811633146110c25760405163334bd91960e11b815260040160405180910390fd5b6110cc8282611f77565b505050565b60008060606003846040516110e691906128f5565b90815260200160405180910390205460058560405161110591906128f5565b908152604051908190036020018120546001600160a01b03169060049061112d9088906128f5565b9081526020016040518091039020808054611147906127b8565b80601f0160208091040260200160405190810160405280929190818152602001828054611173906127b8565b80156111c05780601f10611195576101008083540402835291602001916111c0565b820191906000526020600020905b8154815290600101906020018083116111a357829003601f168201915b505050505090509250925092509193909250565b60006112176040518060400160405280600e81526020016d1cdd589b5a5d141c9bdc1bdcd85b60921b8152508686868660405160200161081c949392919061296b565b600084511161125e5760405162461bcd60e51b8152602060048201526013602482015272139bc81d185c99d95d1cc81c1c9bdd9a591959606a1b6044820152606401610867565b82518451146112ba5760405162461bcd60e51b815260206004820152602260248201527f5461726765747320616e642076616c756573206c656e677468206d69736d61746044820152610c6d60f31b6064820152608401610867565b81518451146113195760405162461bcd60e51b815260206004820152602560248201527f5461726765747320616e642063616c6c6461746173206c656e677468206d69736044820152640dac2e8c6d60db1b6064820152608401610867565b600c80546000918261132a83612a16565b909155506000818152600d602052604090209091508061134a8882612a7f565b506001810180546001600160a01b031916331790554260028201819055611374906203f4806128e2565b6003820155855161138e9060078301906020890190612027565b5084516113a4906008830190602088019061208c565b5083516113ba90600983019060208701906120c7565b50336001600160a01b0316827f7585f467599d0f008985f231af99293be388626ac16ca59505c2f8f88969cd63896040516113f59190612773565b60405180910390a35095945050505050565b60015460ff161561145a5760405162461bcd60e51b815260206004820152601d60248201527f426173654d6f636b3a20616c726561647920696e697469616c697a65640000006044820152606401610867565b6001805460ff19168117905560405133907f30f7074e868351008998491171b433e7342f255e986fef03e5eec84f01786f0190600090a2565b6114d360405180604001604052806011815260200170696e6372656173654e6f64655374616b6560781b8152508260405160200161081c91815260200190565b336000908152600e60205260409020546001600160a01b03166115085760405162461bcd60e51b8152600401610867906127f2565b336000908152600e60205260408120600101805483929061152a9084906128e2565b9091555050600854336000908152600e6020526040902060010154108015906115665750336000908152600e602052604090206005015460ff16155b1561158957336000908152600e60205260409020600501805460ff191660011790555b60405181815233907f9f90a7bd5b0829b1ebf598e1f472a1cf16f84c4be10aea77d47e01a958847359906020015b60405180910390a250565b6000918252600f602090815260408084206001600160a01b0393909316845291905290205460ff1690565b61163e6040518060400160405280600e81526020016d64656c6567617465546f4e6f646560901b815250838360405160200161081c9291906001600160a01b03929092168252602082015260400190565b6001600160a01b038281166000908152600e6020526040902054166116755760405162461bcd60e51b8152600401610867906127f2565b6009548110156116be5760405162461bcd60e51b8152602060048201526014602482015273416d6f756e742062656c6f77206d696e696d756d60601b6044820152606401610867565b6001600160a01b0382166000908152600e6020526040812060020180548392906116e99084906128e2565b90915550506001600160a01b0382166000818152600e602052604090819020426004909101555133907ff30d5f04d8ccb1d731ec50addde98da813e2697f466b244e045210fc90af1296906109449085815260200190565b60008060038360405161175491906128f5565b908152602001604051809103902054119050919050565b60606000806000806000806000600c5489106117995760405162461bcd60e51b815260040161086790612870565b6000898152600d60205260409020600181015460028201546003830154600484015460058501546006860154865487966001600160a01b0316959493929160ff80821692610100909204169088906117f0906127b8565b80601f016020809104026020016040519081016040528092919081815260200182805461181c906127b8565b80156118695780601f1061183e57610100808354040283529160200191611869565b820191906000526020600020905b81548152906001019060200180831161184c57829003601f168201915b505050505097509850985098509850985098509850985050919395975091939597565b6000828152602081905260409020600101546118a781611f6a565b6110938383611f77565b60006118bc81611f6a565b600180546001600160a81b0319169055600060028190556040517f47f78a7a0acc7fff3657157dc253c5e6a68550995cc6f47bc2bd707ec67370fb9190a150565b6119516040518060400160405280601081526020016f73657450726f706f73616c537461746560801b81525084848460405160200161081c9392919092835290151560208301521515604082015260600190565b611969600080516020612b40833981519152336115c2565b6119855760405162461bcd60e51b815260040161086790612848565b600c5483106119a65760405162461bcd60e51b815260040161086790612870565b6000928352600d602052604090922060060180549215156101000261ff00199215159290921661ffff1990931692909217179055565b805160208183018101805160048252928201919093012091528054611a00906127b8565b80601f0160208091040260200160405190810160405280929190818152602001828054611a2c906127b8565b8015611a795780601f10611a4e57610100808354040283529160200191611a79565b820191906000526020600020905b815481529060010190602001808311611a5c57829003601f168201915b505050505081565b611abe6040518060400160405280600e81526020016d18d85b98d95b141c9bdc1bdcd85b60921b8152508260405160200161081c91815260200190565b600c548110611adf5760405162461bcd60e51b815260040161086790612870565b6000818152600d60205260409020600681015460ff1615611b125760405162461bcd60e51b81526004016108679061289d565b6006810154610100900460ff1615611b6c5760405162461bcd60e51b815260206004820152601960248201527f50726f706f73616c20616c72656164792063616e63656c6564000000000000006044820152606401610867565b60018101546001600160a01b0316331480611b9a5750611b9a600080516020612b40833981519152336115c2565b611bb65760405162461bcd60e51b815260040161086790612848565b60068101805461ff00191661010017905560405182907f789cf55be980739dad1d0699b93b58e806b51c9d96619bfa8fe0a28abaa7b30c90600090a25050565b611c366040518060400160405280601181526020017064656372656173654e6f64655374616b6560781b8152508260405160200161081c91815260200190565b336000908152600e60205260409020546001600160a01b0316611c6b5760405162461bcd60e51b8152600401610867906127f2565b336000908152600e6020526040902060010154811115611cc25760405162461bcd60e51b8152602060048201526012602482015271496e73756666696369656e74207374616b6560701b6044820152606401610867565b336000908152600e602052604081206001018054839290611ce4908490612835565b9091555050600854336000908152600e6020526040902060010154108015611d1e5750336000908152600e602052604090206005015460ff165b15611d3e57336000908152600e60205260409020600501805460ff191690555b60405181815233907ff295888cc7524af8d314a291b762a4b899705e01af6f468235a323cc90191c02906020016115b7565b604080518082018252601081526f757064617465506172616d657465727360801b60208083019190915282519081018790529182018590526060820184905260808201839052611dc29160a00161081c565b611dda600080516020612b40833981519152336115c2565b611df65760405162461bcd60e51b815260040161086790612848565b60088490556009839055600a829055600b8190556040805185815260208101859052908101839052606081018290527fbca959adb5aa52aaea5a17838313a61bebf160bf6064e31593c79c8432c79fea9060800160405180910390a150505050565b600382604051611e6891906128f5565b9081526040519081900360200190208054906000611e8583612a16565b919050555080600483604051611e9b91906128f5565b90815260200160405180910390209081611eb59190612a7f565b5033600583604051611ec791906128f5565b90815260405160209181900391909101902080546001600160a01b0319166001600160a01b039290921691909117905560018054610100600160a81b031916610100330217905560028054906000611f1e83612a16565b90915550506040513390611f339084906128f5565b60405180910390207f16b892c3de2f4b54dc114eff5c76ead156bac210353ee82615752957e1317df1836040516109449190612773565b611f748133611fea565b50565b6000611f8383836115c2565b15611fe2576000838152602081815260408083206001600160a01b0386168085529252808320805460ff1916905551339286917ff6391f5c32d9c69d2a47ea670b442974b53935d1edc7fd64eb21e047a839171b9190a4506001610981565b506000610981565b611ff482826115c2565b6120235760405163e2517d3f60e01b81526001600160a01b038216600482015260248101839052604401610867565b5050565b82805482825590600052602060002090810192821561207c579160200282015b8281111561207c57825182546001600160a01b0319166001600160a01b03909116178255602090920191600190910190612047565b50612088929150612119565b5090565b82805482825590600052602060002090810192821561207c579160200282015b8281111561207c5782518255916020019190600101906120ac565b82805482825590600052602060002090810192821561210d579160200282015b8281111561210d57825182906120fd9082612a7f565b50916020019190600101906120e7565b5061208892915061212e565b5b80821115612088576000815560010161211a565b80821115612088576000612142828261214b565b5060010161212e565b508054612157906127b8565b6000825580601f10612167575050565b601f016020900490600052602060002090810190611f749190612119565b60006020828403121561219757600080fd5b5035919050565b60005b838110156121b95781810151838201526020016121a1565b50506000910152565b600081518084526121da81602086016020860161219e565b601f01601f19169290920160200192915050565b60006101008083526122028184018c6121c2565b6001600160a01b039a909a166020840152505060408101969096526060860194909452608085019290925260a0840152151560c0830152151560e090910152919050565b80356001600160a01b038116811461225d57600080fd5b919050565b6000806040838503121561227557600080fd5b61227e83612246565b946020939093013593505050565b60006020828403121561229e57600080fd5b81356001600160e01b0319811681146122b657600080fd5b9392505050565b6000602082840312156122cf57600080fd5b8135600281106122b657600080fd5b8035801515811461225d57600080fd5b6000806040838503121561230157600080fd5b82359150612311602084016122de565b90509250929050565b60006020828403121561232c57600080fd5b6122b682612246565b634e487b7160e01b600052602160045260246000fd5b6002811061236957634e487b7160e01b600052602160045260246000fd5b9052565b6001600160a01b038816815260e0810161238a602083018961234b565b60408201969096526060810194909452608084019290925260a0830152151560c09091015292915050565b634e487b7160e01b600052604160045260246000fd5b604051601f8201601f1916810167ffffffffffffffff811182821017156123f4576123f46123b5565b604052919050565b600067ffffffffffffffff831115612416576124166123b5565b612429601f8401601f19166020016123cb565b905082815283838301111561243d57600080fd5b828260208301376000602084830101529392505050565b600082601f83011261246557600080fd5b6122b6838335602085016123fc565b60006020828403121561248657600080fd5b813567ffffffffffffffff81111561249d57600080fd5b6124a984828501612454565b949350505050565b600080604083850312156124c457600080fd5b8235915061231160208401612246565b8381526001600160a01b03831660208201526060604082018190526000906124fe908301846121c2565b95945050505050565b600067ffffffffffffffff821115612521576125216123b5565b5060051b60200190565b600082601f83011261253c57600080fd5b8135602061255161254c83612507565b6123cb565b8083825260208201915060208460051b87010193508684111561257357600080fd5b602086015b8481101561258f5780358352918301918301612578565b509695505050505050565b600082601f8301126125ab57600080fd5b813560206125bb61254c83612507565b82815260059290921b840181019181810190868411156125da57600080fd5b8286015b8481101561258f57803567ffffffffffffffff8111156125fe5760008081fd5b8701603f810189136126105760008081fd5b6126218986830135604084016123fc565b8452509183019183016125de565b6000806000806080858703121561264557600080fd5b843567ffffffffffffffff8082111561265d57600080fd5b61266988838901612454565b955060209150818701358181111561268057600080fd5b8701601f8101891361269157600080fd5b803561269f61254c82612507565b81815260059190911b8201840190848101908b8311156126be57600080fd5b928501925b828410156126e3576126d484612246565b825292850192908501906126c3565b975050505060408701359150808211156126fc57600080fd5b6127088883890161252b565b9350606087013591508082111561271e57600080fd5b5061272b8782880161259a565b91505092959194509250565b60008060006060848603121561274c57600080fd5b8335925061275c602085016122de565b915061276a604085016122de565b90509250925092565b6020815260006122b660208301846121c2565b6000806000806080858703121561279c57600080fd5b5050823594602084013594506040840135936060013592509050565b600181811c908216806127cc57607f821691505b6020821081036127ec57634e487b7160e01b600052602260045260246000fd5b50919050565b602080825260139082015272139bd919481b9bdd081c9959da5cdd195c9959606a1b604082015260600190565b634e487b7160e01b600052601160045260246000fd5b818103818111156109815761098161281f565b6020808252600e908201526d139bdd08185d5d1a1bdc9a5e995960921b604082015260600190565b602080825260139082015272125b9d985b1a59081c1c9bdc1bdcd85b081251606a1b604082015260600190565b60208082526019908201527f50726f706f73616c20616c726561647920657865637574656400000000000000604082015260600190565b60208101610981828461234b565b808201808211156109815761098161281f565b6000825161290781846020870161219e565b9190910192915050565b60008282518085526020808601955060208260051b8401016020860160005b8481101561295e57601f1986840301895261294c8383516121c2565b98840198925090830190600101612930565b5090979650505050505050565b60808152600061297e60808301876121c2565b82810360208481019190915286518083528782019282019060005b818110156129be5784516001600160a01b031683529383019391830191600101612999565b50508481036040860152865180825290820192508187019060005b818110156129f5578251855293830193918301916001016129d9565b505050508281036060840152612a0b8185612911565b979650505050505050565b600060018201612a2857612a2861281f565b5060010190565b601f8211156110cc576000816000526020600020601f850160051c81016020861015612a585750805b601f850160051c820191505b81811015612a7757828155600101612a64565b505050505050565b815167ffffffffffffffff811115612a9957612a996123b5565b612aad81612aa784546127b8565b84612a2f565b602080601f831160018114612ae25760008415612aca5750858301515b600019600386901b1c1916600185901b178555612a77565b600085815260208120601f198616915b82811015612b1157888601518255948401946001909101908401612af2565b5085821015612b2f5787850151600019600388901b60f8161c191681555b5050505050600190811b0190555056fea49807205ce4d355092ef5a8a18f56e8913cf4a201fbe287825b095693c21775a2646970667358221220848953e4d836be1a95a41e17b2edfe666efdaf5e6df33aca65734e14e1d06f0664736f6c63430008180033",
  "linkReferences": {},
  "deployedLinkReferences": {}
}