{
  "_format": "hh-sol-artifact-1",
  "contractName": "MockTarget",
  "sourceName": "contracts/mocks/MockTarget.sol",
  "abi": [
    {
      "inputs": [],
      "stateMutability": "nonpayable",
      "type": "constructor"
    },
    {
      "inputs": [],
      "name": "AccessControlBadConfirmation",
      "type": "error"
    },
    {
      "inputs": [
        {
          "internalType": "address",
          "name": "account",
          "type": "address"
        },
        {
          "internalType": "bytes32",
          "name": "neededRole",
          "type": "bytes32"
        }
      ],
      "name": "AccessControlUnauthorizedAccount",
      "type": "error"
    },
    {
      "anonymous": false,
      "inputs": [
        {
          "indexed": false,
          "internalType": "bool",
          "name": "oldValue",
          "type": "bool"
        },
        {
          "indexed": false,
          "internalType": "bool",
          "name": "newValue",
          "type": "bool"
        }
      ],
      "name": "FlagToggled",
      "type": "event"
    },
    {
      "anonymous": false,
      "inputs": [
        {
          "indexed": true,
          "internalType": "string",
          "name": "functionName",
          "type": "string"
        },
        {
          "indexed": true,
          "internalType": "address",
          "name": "caller",
          "type": "address"
        },
        {
          "indexed": false,
          "internalType": "bytes",
          "name": "data",
          "type": "bytes"
        }
      ],
      "name": "MockFunctionCalled",
      "type": "event"
    },
    {
      "anonymous": false,
      "inputs": [
        {
          "indexed": true,
          "internalType": "address",
          "name": "caller",
          "type": "address"
        }
      ],
      "name": "MockInitialized",
      "type": "event"
    },
    {
      "anonymous": false,
      "inputs": [],
      "name": "MockStateReset",
      "type": "event"
    },
    {
      "anonymous": false,
      "inputs": [
        {
          "indexed": false,
          "internalType": "string",
          "name": "oldName",
          "type": "string"
        },
        {
          "indexed": false,
          "internalType": "string",
          "name": "newName",
          "type": "string"
        }
      ],
      "name": "NameUpdated",
      "type": "event"
    },
    {
      "anonymous": false,
      "inputs": [
        {
          "indexed": false,
          "internalType": "uint256",
          "name": "oldValue",
          "type": "uint256"
        },
        {
          "indexed": false,
          "internalType": "uint256",
          "name": "newValue",
          "type": "uint256"
        }
      ],
      "name": "ParameterUpdated",
      "type": "event"
    },
    {
      "anonymous": false,
      "inputs": [
        {
          "indexed": true,
          "internalType": "bytes32",
          "name": "role",
          "type": "bytes32"
        },
        {
          "indexed": true,
          "internalType": "bytes32",
          "name": "previousAdminRole",
          "type": "bytes32"
        },
        {
          "indexed": true,
          "internalType": "bytes32",
          "name": "newAdminRole",
          "type": "bytes32"
        }
      ],
      "name": "RoleAdminChanged",
      "type": "event"
    },
    {
      "anonymous": false,
      "inputs": [
        {
          "indexed": true,
          "internalType": "bytes32",
          "name": "role",
          "type": "bytes32"
        },
        {
          "indexed": true,
          "internalType": "address",
          "name": "account",
          "type": "address"
        },
        {
          "indexed": true,
          "internalType": "address",
          "name": "sender",
          "type": "address"
        }
      ],
      "name": "RoleGranted",
      "type": "event"
    },
    {
      "anonymous": false,
      "inputs": [
        {
          "indexed": true,
          "internalType": "bytes32",
          "name": "role",
          "type": "bytes32"
        },
        {
          "indexed": true,
          "internalType": "address",
          "name": "account",
          "type": "address"
        },
        {
          "indexed": true,
          "internalType": "address",
          "name": "sender",
          "type": "address"
        }
      ],
      "name": "RoleRevoked",
      "type": "event"
    },
    {
      "anonymous": false,
      "inputs": [
        {
          "indexed": false,
          "internalType": "address",
          "name": "oldAddress",
          "type": "address"
        },
        {
          "indexed": false,
          "internalType": "address",
          "name": "newAddress",
          "type": "address"
        }
      ],
      "name": "TargetAddressUpdated",
      "type": "event"
    },
    {
      "inputs": [],
      "name": "DEFAULT_ADMIN_ROLE",
      "outputs": [
        {
          "internalType": "bytes32",
          "name": "",
          "type": "bytes32"
        }
      ],
      "stateMutability": "view",
      "type": "function"
    },
    {
      "inputs": [],
      "name": "callCount",
      "outputs": [
        {
          "internalType": "uint256",
          "name": "",
          "type": "uint256"
        }
      ],
      "stateMutability": "view",
      "type": "function"
    },
    {
      "inputs": [],
      "name": "flag",
      "outputs": [
        {
          "internalType": "bool",
          "name": "",
          "type": "bool"
        }
      ],
      "stateMutability": "view",
      "type": "function"
    },
    {
      "inputs": [
        {
          "internalType": "string",
          "name": "",
          "type": "string"
        }
      ],
      "name": "functionCallCount",
      "outputs": [
        {
          "internalType": "uint256",
          "name": "",
          "type": "uint256"
        }
      ],
      "stateMutability": "view",
      "type": "function"
    },
    {
      "inputs": [
        {
          "internalType": "string",
          "name": "functionName",
          "type": "string"
        }
      ],
      "name": "getFunctionCallCount",
      "outputs": [
        {
          "internalType": "uint256",
          "name": "",
          "type": "uint256"
        }
      ],
      "stateMutability": "view",
      "type": "function"
    },
    {
      "inputs": [
        {
          "internalType": "string",
          "name": "functionName",
          "type": "string"
        }
      ],
      "name": "getFunctionCallHistory",
      "outputs": [
        {
          "internalType": "uint256",
          "name": "count",
          "type": "uint256"
        },
        {
          "internalType": "address",
          "name": "lastCaller_",
          "type": "address"
        },
        {
          "internalType": "bytes",
          "name": "lastData",
          "type": "bytes"
        }
      ],
      "stateMutability": "view",
      "type": "function"
    },
    {
      "inputs": [
        {
          "internalType": "bytes32",
          "name": "role",
          "type": "bytes32"
        }
      ],
      "name": "getRoleAdmin",
      "outputs": [
        {
          "internalType": "bytes32",
          "name": "",
          "type": "bytes32"
        }
      ],
      "stateMutability": "view",
      "type": "function"
    },
    {
      "inputs": [
        {
          "internalType": "bytes32",
          "name": "role",
          "type": "bytes32"
        },
        {
          "internalType": "address",
          "name": "account",
          "type": "address"
        }
      ],
      "name": "grantRole",
      "outputs": [],
      "stateMutability": "nonpayable",
      "type": "function"
    },
    {
      "inputs": [
        {
          "internalType": "bytes32",
          "name": "role",
          "type": "bytes32"
        },
        {
          "internalType": "address",
          "name": "account",
          "type": "address"
        }
      ],
      "name": "hasRole",
      "outputs": [
        {
          "internalType": "bool",
          "name": "",
          "type": "bool"
        }
      ],
      "stateMutability": "view",
      "type": "function"
    },
    {
      "inputs": [],
      "name": "initialize",
      "outputs": [],
      "stateMutability": "nonpayable",
      "type": "function"
    },
    {
      "inputs": [],
      "name": "initialized",
      "outputs": [
        {
          "internalType": "bool",
          "name": "",
          "type": "bool"
        }
      ],
      "stateMutability": "view",
      "type": "function"
    },
    {
      "inputs": [
        {
          "internalType": "string",
          "name": "",
          "type": "string"
        }
      ],
      "name": "lastCallData",
      "outputs": [
        {
          "internalType": "bytes",
          "name": "",
          "type": "bytes"
        }
      ],
      "stateMutability": "view",
      "type": "function"
    },
    {
      "inputs": [],
      "name": "lastCaller",
      "outputs": [
        {
          "internalType": "address",
          "name": "",
          "type": "address"
        }
      ],
      "stateMutability": "view",
      "type": "function"
    },
    {
      "inputs": [
        {
          "internalType": "string",
          "name": "",
          "type": "string"
        }
      ],
      "name": "lastCallerByFunction",
      "outputs": [
        {
          "internalType": "address",
          "name": "",
          "type": "address"
        }
      ],
      "stateMutability": "view",
      "type": "function"
    },
    {
      "inputs": [],
      "name": "name",
      "outputs": [
        {
          "internalType": "string",
          "name": "",
          "type": "string"
        }
      ],
      "stateMutability": "view",
      "type": "function"
    },
    {
      "inputs": [],
      "name": "parameter",
      "outputs": [
        {
          "internalType": "uint256",
          "name": "",
          "type": "uint256"
        }
      ],
      "stateMutability": "view",
      "type": "function"
    },
    {
      "inputs": [
        {
          "internalType": "bytes32",
          "name": "role",
          "type": "bytes32"
        },
        {
          "internalType": "address",
          "name": "callerConfirmation",
          "type": "address"
        }
      ],
      "name": "renounceRole",
      "outputs": [],
      "stateMutability": "nonpayable",
      "type": "function"
    },
    {
      "inputs": [],
      "name": "reset",
      "outputs": [],
      "stateMutability": "nonpayable",
      "type": "function"
    },
    {
      "inputs": [
        {
          "internalType": "bytes32",
          "name": "role",
          "type": "bytes32"
        },
        {
          "internalType": "address",
          "name": "account",
          "type": "address"
        }
      ],
      "name": "revokeRole",
      "outputs": [],
      "stateMutability": "nonpayable",
      "type": "function"
    },
    {
      "inputs": [
        {
          "internalType": "uint256",
          "name": "_parameter",
          "type": "uint256"
        },
        {
          "internalType": "address",
          "name": "_targetAddress",
          "type": "address"
        },
        {
          "internalType": "string",
          "name": "_name",
          "type": "string"
        },
        {
          "internalType": "bool",
          "name": "_flag",
          "type": "bool"
        }
      ],
      "name": "setAll",
      "outputs": [],
      "stateMutability": "nonpayable",
      "type": "function"
    },
    {
      "inputs": [
        {
          "internalType": "string",
          "name": "_name",
          "type": "string"
        }
      ],
      "name": "setName",
      "outputs": [],
      "stateMutability": "nonpayable",
      "type": "function"
    },
    {
      "inputs": [
        {
          "internalType": "uint256",
          "name": "_value",
          "type": "uint256"
        }
      ],
      "name": "setParameter",
      "outputs": [],
      "stateMutability": "nonpayable",
      "type": "function"
    },
    {
      "inputs": [
        {
          "internalType": "address",
          "name": "_address",
          "type": "address"
        }
      ],
      "name": "setTargetAddress",
      "outputs": [],
      "stateMutability": "nonpayable",
      "type": "function"
    },
    {
      "inputs": [
        {
          "internalType": "bytes4",
          "name": "interfaceId",
          "type": "bytes4"
        }
      ],
      "name": "supportsInterface",
      "outputs": [
        {
          "internalType": "bool",
          "name": "",
          "type": "bool"
        }
      ],
      "stateMutability": "view",
      "type": "function"
    },
    {
      "inputs": [],
      "name": "targetAddress",
      "outputs": [
        {
          "internalType": "address",
          "name": "",
          "type": "address"
        }
      ],
      "stateMutability": "view",
      "type": "function"
    },
    {
      "inputs": [],
      "name": "toggleFlag",
      "outputs": [],
      "stateMutability": "nonpayable",
      "type": "function"
    },
    {
      "inputs": [
        {
          "internalType": "string",
          "name": "functionName",
          "type": "string"
        }
      ],
      "name": "wasFunctionCalled",
      "outputs": [
        {
          "internalType": "bool",
          "name": "",
          "type": "bool"
        }
      ],
      "stateMutability": "view",
      "type": "function"
    },
    {
      "inputs": [],
      "name": "willRevert",
      "outputs": [],
      "stateMutability": "nonpayable",
      "type": "function"
    }
  ],
  "bytecode": "0x608060405234801561001057600080fd5b5061001c600033610022565b506100ce565b6000828152602081815260408083206001600160a01b038516845290915281205460ff166100c4576000838152602081815260408083206001600160a01b03861684529091529020805460ff1916600117905561007c3390565b6001600160a01b0316826001600160a01b0316847f2f8788117e7eff1d82e926ec794901d17c78024a50270940304540a733656f0d60405160405180910390a45060016100c8565b5060005b92915050565b61146e806100dd6000396000f3fe608060405234801561001057600080fd5b50600436106101c35760003560e01c806373ee93b3116100f9578063c47f002711610097578063d826f88f11610071578063d826f88f146103e0578063dd010a83146103e8578063dfdbdd50146103fb578063fd8b23701461040e57600080fd5b8063c47f0027146103a7578063d18121a6146103ba578063d547741f146103cd57600080fd5b806391d14854116100d357806391d1485414610370578063a217fddf14610383578063ad4d4e291461038b578063c054c6ce1461039457600080fd5b806373ee93b3146103535780638129fc1c1461035b578063890eba681461036357600080fd5b8063248a9ca3116101665780633ca3910c116101405780633ca3910c146102ea578063422b010b1461030c5780634b28f9a2146103375780635210eb561461034057600080fd5b8063248a9ca3146102a15780632f2ff15d146102c457806336568abe146102d757600080fd5b8063158ef93e116101a2578063158ef93e1461020f5780631a82a6431461021c5780631df86bc61461023d5780632113522a1461028957600080fd5b8062c0096e146101c857806301ffc9a7146101d257806306fdde03146101fa575b600080fd5b6101d0610421565b005b6101e56101e0366004610e2a565b6104b1565b60405190151581526020015b60405180910390f35b6102026104e8565b6040516101f19190610eab565b6001546101e59060ff1681565b61022f61022a366004610ed4565b610576565b6040519081526020016101f1565b61027161024b366004610ed4565b80516020818301810180516005825292820191909301209152546001600160a01b031681565b6040516001600160a01b0390911681526020016101f1565b6001546102719061010090046001600160a01b031681565b61022f6102af366004610f85565b60009081526020819052604090206001015490565b6101d06102d2366004610fba565b61059e565b6101d06102e5366004610fba565b6105c9565b6102fd6102f8366004610ed4565b610601565b6040516101f193929190610fe6565b61022f61031a366004610ed4565b805160208183018101805160038252928201919093012091525481565b61022f60025481565b600754610271906001600160a01b031681565b6101d0610704565b6101d061077f565b6009546101e59060ff1681565b6101e561037e366004610fba565b61080b565b61022f600081565b61022f60065481565b6101e56103a2366004610ed4565b610834565b6101d06103b5366004611062565b61085e565b6101d06103c8366004610f85565b610989565b6101d06103db366004610fba565b610a0a565b6101d0610a2f565b6101d06103f63660046110a4565b610a7b565b610202610409366004610ed4565b610afb565b6101d061041c36600461111b565b610b1f565b604080518082018252600a815269746f67676c65466c616760b01b60208083019190915282516000815290810190925261045a91610bc5565b6009805460ff808216801560ff199093168317909355604080518315815292909116151560208301527faa6b57b3d06cbe36b18320ca07417ec3e663142361b75baa86c3b0fb42df5c80910160405180910390a150565b60006001600160e01b03198216637965db0b60e01b14806104e257506301ffc9a760e01b6001600160e01b03198316145b92915050565b600880546104f590611136565b80601f016020809104026020016040519081016040528092919081815260200182805461052190611136565b801561056e5780601f106105435761010080835404028352916020019161056e565b820191906000526020600020905b81548152906001019060200180831161055157829003601f168201915b505050505081565b60006003826040516105889190611170565b9081526020016040518091039020549050919050565b6000828152602081905260409020600101546105b981610ce3565b6105c38383610cf0565b50505050565b6001600160a01b03811633146105f25760405163334bd91960e11b815260040160405180910390fd5b6105fc8282610d82565b505050565b60008060606003846040516106169190611170565b9081526020016040518091039020546005856040516106359190611170565b908152604051908190036020018120546001600160a01b03169060049061065d908890611170565b908152602001604051809103902080805461067790611136565b80601f01602080910402602001604051908101604052809291908181526020018280546106a390611136565b80156106f05780601f106106c5576101008083540402835291602001916106f0565b820191906000526020600020905b8154815290600101906020018083116106d357829003601f168201915b505050505090509250925092509193909250565b604080518082018252600a8152691dda5b1b14995d995c9d60b21b60208083019190915282516000815290810190925261073d91610bc5565b60405162461bcd60e51b8152602060048201526012602482015271125b9d195b9d1a5bdb985b081c995d995c9d60721b60448201526064015b60405180910390fd5b60015460ff16156107d25760405162461bcd60e51b815260206004820152601d60248201527f426173654d6f636b3a20616c726561647920696e697469616c697a65640000006044820152606401610776565b6001805460ff19168117905560405133907f30f7074e868351008998491171b433e7342f255e986fef03e5eec84f01786f0190600090a2565b6000918252602082815260408084206001600160a01b0393909316845291905290205460ff1690565b6000806003836040516108479190611170565b908152602001604051809103902054119050919050565b6108a8604051806040016040528060078152602001667365744e616d6560c81b81525083836040516020016108949291906111b5565b604051602081830303815290604052610bc5565b6000600880546108b790611136565b80601f01602080910402602001604051908101604052809291908181526020018280546108e390611136565b80156109305780601f1061090557610100808354040283529160200191610930565b820191906000526020600020905b81548152906001019060200180831161091357829003601f168201915b50505050509050828260089182610948929190611221565b507ff19e969be7affb98a1d812094e0f24ecca36f1eabd6dd592c97020d47c64a00e81848460405161097c939291906112e2565b60405180910390a1505050565b6109c46040518060400160405280600c81526020016b39b2ba2830b930b6b2ba32b960a11b8152508260405160200161089491815260200190565b600680549082905560408051828152602081018490527fa9ce654967207273eae9c1ebdee30071ab693d233e4b2deb44e35cb5ec5a3d7191015b60405180910390a15050565b600082815260208190526040902060010154610a2581610ce3565b6105c38383610d82565b6000610a3a81610ce3565b600180546001600160a81b0319169055600060028190556040517f47f78a7a0acc7fff3657157dc253c5e6a68550995cc6f47bc2bd707ec67370fb9190a150565b610ab6604051806040016040528060068152602001651cd95d105b1b60d21b8152508686868686604051602001610894959493929190611312565b6006859055600780546001600160a01b0319166001600160a01b0386161790556008610ae3838583611221565b506009805460ff191691151591909117905550505050565b8051602081830181018051600482529282019190930120915280546104f590611136565b610b6b6040518060400160405280601081526020016f7365745461726765744164647265737360801b8152508260405160200161089491906001600160a01b0391909116815260200190565b600780546001600160a01b038381166001600160a01b031983168117909355604080519190921680825260208201939093527f862db0ac244a7c196ec4a30abf1b83cc045d2351899ef43b3d530d4e78949de391016109fe565b600382604051610bd59190611170565b9081526040519081900360200190208054906000610bf283611351565b919050555080600483604051610c089190611170565b90815260200160405180910390209081610c229190611378565b5033600583604051610c349190611170565b90815260405160209181900391909101902080546001600160a01b0319166001600160a01b039290921691909117905560018054610100600160a81b031916610100330217905560028054906000610c8b83611351565b90915550506040513390610ca0908490611170565b60405180910390207f16b892c3de2f4b54dc114eff5c76ead156bac210353ee82615752957e1317df183604051610cd79190610eab565b60405180910390a35050565b610ced8133610ded565b50565b6000610cfc838361080b565b610d7a576000838152602081815260408083206001600160a01b03861684529091529020805460ff19166001179055610d323390565b6001600160a01b0316826001600160a01b0316847f2f8788117e7eff1d82e926ec794901d17c78024a50270940304540a733656f0d60405160405180910390a45060016104e2565b5060006104e2565b6000610d8e838361080b565b15610d7a576000838152602081815260408083206001600160a01b0386168085529252808320805460ff1916905551339286917ff6391f5c32d9c69d2a47ea670b442974b53935d1edc7fd64eb21e047a839171b9190a45060016104e2565b610df7828261080b565b610e265760405163e2517d3f60e01b81526001600160a01b038216600482015260248101839052604401610776565b5050565b600060208284031215610e3c57600080fd5b81356001600160e01b031981168114610e5457600080fd5b9392505050565b60005b83811015610e76578181015183820152602001610e5e565b50506000910152565b60008151808452610e97816020860160208601610e5b565b601f01601f19169290920160200192915050565b602081526000610e546020830184610e7f565b634e487b7160e01b600052604160045260246000fd5b600060208284031215610ee657600080fd5b813567ffffffffffffffff80821115610efe57600080fd5b818401915084601f830112610f1257600080fd5b813581811115610f2457610f24610ebe565b604051601f8201601f19908116603f01168101908382118183101715610f4c57610f4c610ebe565b81604052828152876020848701011115610f6557600080fd5b826020860160208301376000928101602001929092525095945050505050565b600060208284031215610f9757600080fd5b5035919050565b80356001600160a01b0381168114610fb557600080fd5b919050565b60008060408385031215610fcd57600080fd5b82359150610fdd60208401610f9e565b90509250929050565b8381526001600160a01b038316602082015260606040820181905260009061101090830184610e7f565b95945050505050565b60008083601f84011261102b57600080fd5b50813567ffffffffffffffff81111561104357600080fd5b60208301915083602082850101111561105b57600080fd5b9250929050565b6000806020838503121561107557600080fd5b823567ffffffffffffffff81111561108c57600080fd5b61109885828601611019565b90969095509350505050565b6000806000806000608086880312156110bc57600080fd5b853594506110cc60208701610f9e565b9350604086013567ffffffffffffffff8111156110e857600080fd5b6110f488828901611019565b9094509250506060860135801515811461110d57600080fd5b809150509295509295909350565b60006020828403121561112d57600080fd5b610e5482610f9e565b600181811c9082168061114a57607f821691505b60208210810361116a57634e487b7160e01b600052602260045260246000fd5b50919050565b60008251611182818460208701610e5b565b9190910192915050565b81835281816020850137506000828201602090810191909152601f909101601f19169091010190565b6020815260006111c960208301848661118c565b949350505050565b601f8211156105fc576000816000526020600020601f850160051c810160208610156111fa5750805b601f850160051c820191505b8181101561121957828155600101611206565b505050505050565b67ffffffffffffffff83111561123957611239610ebe565b61124d836112478354611136565b836111d1565b6000601f84116001811461128157600085156112695750838201355b600019600387901b1c1916600186901b1783556112db565b600083815260209020601f19861690835b828110156112b25786850135825560209485019460019092019101611292565b50868210156112cf5760001960f88860031b161c19848701351681555b505060018560011b0183555b5050505050565b6040815260006112f56040830186610e7f565b828103602084015261130881858761118c565b9695505050505050565b8581526001600160a01b038516602082015260806040820181905260009061133d908301858761118c565b905082151560608301529695505050505050565b60006001820161137157634e487b7160e01b600052601160045260246000fd5b5060010190565b815167ffffffffffffffff81111561139257611392610ebe565b6113a6816113a08454611136565b846111d1565b602080601f8311600181146113db57600084156113c35750858301515b600019600386901b1c1916600185901b178555611219565b600085815260208120601f198616915b8281101561140a578886015182559484019460019091019084016113eb565b50858210156114285787850151600019600388901b60f8161c191681555b5050505050600190811b0190555056fea264697066735822122093b295bd45798796ba07e047b3b15951fbb3633577a55b2f322d7cc9a04f283b64736f6c63430008180033",
  "linkReferences": {},
  "deployedLinkReferences": {}
}