{
  "_format": "hh-sol-artifact-1",
  "contractName": "MockPreviousPriceOracle",
  "sourceName": "contracts/mocks/MockPreviousPriceOracle.sol",
  "abi": [
    {
      "inputs": [],
      "stateMutability": "nonpayable",
      "type": "constructor"
    },
    {
      "inputs": [
        {
          "internalType": "address",
          "name": "_asset",
          "type": "address"
        }
      ],
      "name": "getAssetDecimals",
      "outputs": [
        {
          "internalType": "uint8",
          "name": "",
          "type": "uint8"
        }
      ],
      "stateMutability": "view",
      "type": "function"
    },
    {
      "inputs": [
        {
          "internalType": "address",
          "name": "_asset",
          "type": "address"
        }
      ],
      "name": "getAssetPrice",
      "outputs": [
        {
          "internalType": "uint256",
          "name": "",
          "type": "uint256"
        }
      ],
      "stateMutability": "view",
      "type": "function"
    },
    {
      "inputs": [],
      "name": "owner",
      "outputs": [
        {
          "internalType": "address",
          "name": "",
          "type": "address"
        }
      ],
      "stateMutability": "view",
      "type": "function"
    },
    {
      "inputs": [
        {
          "internalType": "address",
          "name": "_asset",
          "type": "address"
        },
        {
          "internalType": "uint256",
          "name": "_price",
          "type": "uint256"
        },
        {
          "internalType": "uint8",
          "name": "_decimals",
          "type": "uint8"
        }
      ],
      "name": "setAssetPrice",
      "outputs": [],
      "stateMutability": "nonpayable",
      "type": "function"
    }
  ],
  "bytecode": "0x608060405234801561001057600080fd5b50600280546001600160a01b03191633179055610313806100326000396000f3fe608060405234801561001057600080fd5b506004361061004c5760003560e01c80638da5cb5b146100515780639efd6f7214610081578063b3596f07146100a6578063fa3b4fe0146100c7575b600080fd5b600254610064906001600160a01b031681565b6040516001600160a01b0390911681526020015b60405180910390f35b61009461008f36600461023e565b6100dc565b60405160ff9091168152602001610078565b6100b96100b436600461023e565b61012c565b604051908152602001610078565b6100da6100d5366004610260565b6101c5565b005b60006001600160a01b03821661010d5760405162461bcd60e51b8152600401610104906102a6565b60405180910390fd5b506001600160a01b031660009081526001602052604090205460ff1690565b60006001600160a01b0382166101545760405162461bcd60e51b8152600401610104906102a6565b6001600160a01b0382166000908152602081905260409020546101a95760405162461bcd60e51b815260206004820152600d60248201526c141c9a58d9481b9bdd081cd95d609a1b6044820152606401610104565b506001600160a01b031660009081526020819052604090205490565b6001600160a01b0383166101eb5760405162461bcd60e51b8152600401610104906102a6565b6001600160a01b0392909216600090815260208181526040808320939093556001905220805460ff191660ff909216919091179055565b80356001600160a01b038116811461023957600080fd5b919050565b60006020828403121561025057600080fd5b61025982610222565b9392505050565b60008060006060848603121561027557600080fd5b61027e84610222565b925060208401359150604084013560ff8116811461029b57600080fd5b809150509250925092565b60208082526018908201527f5a65726f2061646472657373206e6f7420616c6c6f776564000000000000000060408201526060019056fea2646970667358221220699a14d830d5edcbde9ba6c9392812b9d98d42ec8a5ca02cc0a1a85728a23e6264736f6c63430008180033",
  "linkReferences": {},
  "deployedLinkReferences": {}
}