{
  "_format": "hh-sol-artifact-1",
  "contractName": "MockFeeCalculator",
  "sourceName": "contracts/mocks/MockFeeCalculator.sol",
  "abi": [
    {
      "inputs": [
        {
          "internalType": "address",
          "name": "_feeAdmin",
          "type": "address"
        },
        {
          "internalType": "address",
          "name": "_treasury",
          "type": "address"
        },
        {
          "internalType": "address",
          "name": "_rewardDistributor",
          "type": "address"
        },
        {
          "internalType": "uint256",
          "name": "_investFeePercentage",
          "type": "uint256"
        },
        {
          "internalType": "uint256",
          "name": "_divestFeePercentage",
          "type": "uint256"
        },
        {
          "internalType": "uint256",
          "name": "_ragequitFeePercentage",
          "type": "uint256"
        }
      ],
      "stateMutability": "nonpayable",
      "type": "constructor"
    },
    {
      "inputs": [],
      "name": "AccessControlBadConfirmation",
      "type": "error"
    },
    {
      "inputs": [
        {
          "internalType": "address",
          "name": "account",
          "type": "address"
        },
        {
          "internalType": "bytes32",
          "name": "neededRole",
          "type": "bytes32"
        }
      ],
      "name": "AccessControlUnauthorizedAccount",
      "type": "error"
    },
    {
      "inputs": [],
      "name": "ExcessiveFeeSetting",
      "type": "error"
    },
    {
      "inputs": [],
      "name": "ZeroAddress",
      "type": "error"
    },
    {
      "anonymous": false,
      "inputs": [
        {
          "indexed": false,
          "internalType": "string",
          "name": "feeType",
          "type": "string"
        },
        {
          "indexed": false,
          "internalType": "uint256",
          "name": "amount",
          "type": "uint256"
        },
        {
          "indexed": false,
          "internalType": "uint256",
          "name": "feePercentage",
          "type": "uint256"
        },
        {
          "indexed": false,
          "internalType": "uint256",
          "name": "feeAmount",
          "type": "uint256"
        }
      ],
      "name": "FeeCalculated",
      "type": "event"
    },
    {
      "anonymous": false,
      "inputs": [
        {
          "indexed": false,
          "internalType": "string",
          "name": "feeType",
          "type": "string"
        },
        {
          "indexed": false,
          "internalType": "uint256",
          "name": "oldPercentage",
          "type": "uint256"
        },
        {
          "indexed": false,
          "internalType": "uint256",
          "name": "newPercentage",
          "type": "uint256"
        }
      ],
      "name": "FeePercentageChanged",
      "type": "event"
    },
    {
      "anonymous": false,
      "inputs": [
        {
          "indexed": true,
          "internalType": "string",
          "name": "functionName",
          "type": "string"
        },
        {
          "indexed": true,
          "internalType": "address",
          "name": "caller",
          "type": "address"
        },
        {
          "indexed": false,
          "internalType": "bytes",
          "name": "data",
          "type": "bytes"
        }
      ],
      "name": "MockFunctionCalled",
      "type": "event"
    },
    {
      "anonymous": false,
      "inputs": [
        {
          "indexed": true,
          "internalType": "address",
          "name": "caller",
          "type": "address"
        }
      ],
      "name": "MockInitialized",
      "type": "event"
    },
    {
      "anonymous": false,
      "inputs": [],
      "name": "MockStateReset",
      "type": "event"
    },
    {
      "anonymous": false,
      "inputs": [
        {
          "indexed": true,
          "internalType": "bytes32",
          "name": "role",
          "type": "bytes32"
        },
        {
          "indexed": true,
          "internalType": "bytes32",
          "name": "previousAdminRole",
          "type": "bytes32"
        },
        {
          "indexed": true,
          "internalType": "bytes32",
          "name": "newAdminRole",
          "type": "bytes32"
        }
      ],
      "name": "RoleAdminChanged",
      "type": "event"
    },
    {
      "anonymous": false,
      "inputs": [
        {
          "indexed": true,
          "internalType": "bytes32",
          "name": "role",
          "type": "bytes32"
        },
        {
          "indexed": true,
          "internalType": "address",
          "name": "account",
          "type": "address"
        },
        {
          "indexed": true,
          "internalType": "address",
          "name": "sender",
          "type": "address"
        }
      ],
      "name": "RoleGranted",
      "type": "event"
    },
    {
      "anonymous": false,
      "inputs": [
        {
          "indexed": true,
          "internalType": "bytes32",
          "name": "role",
          "type": "bytes32"
        },
        {
          "indexed": true,
          "internalType": "address",
          "name": "account",
          "type": "address"
        },
        {
          "indexed": true,
          "internalType": "address",
          "name": "sender",
          "type": "address"
        }
      ],
      "name": "RoleRevoked",
      "type": "event"
    },
    {
      "inputs": [],
      "name": "ADMIN_ROLE",
      "outputs": [
        {
          "internalType": "bytes32",
          "name": "",
          "type": "bytes32"
        }
      ],
      "stateMutability": "view",
      "type": "function"
    },
    {
      "inputs": [],
      "name": "BASIS_POINTS",
      "outputs": [
        {
          "internalType": "uint256",
          "name": "",
          "type": "uint256"
        }
      ],
      "stateMutability": "view",
      "type": "function"
    },
    {
      "inputs": [],
      "name": "DEFAULT_ADMIN_ROLE",
      "outputs": [
        {
          "internalType": "bytes32",
          "name": "",
          "type": "bytes32"
        }
      ],
      "stateMutability": "view",
      "type": "function"
    },
    {
      "inputs": [],
      "name": "FEE_MANAGER_ROLE",
      "outputs": [
        {
          "internalType": "bytes32",
          "name": "",
          "type": "bytes32"
        }
      ],
      "stateMutability": "view",
      "type": "function"
    },
    {
      "inputs": [],
      "name": "MAX_FEE_PERCENTAGE",
      "outputs": [
        {
          "internalType": "uint256",
          "name": "",
          "type": "uint256"
        }
      ],
      "stateMutability": "view",
      "type": "function"
    },
    {
      "inputs": [
        {
          "internalType": "uint256",
          "name": "amount",
          "type": "uint256"
        }
      ],
      "name": "calculateDivestFee",
      "outputs": [
        {
          "internalType": "uint256",
          "name": "feeAmount",
          "type": "uint256"
        }
      ],
      "stateMutability": "view",
      "type": "function"
    },
    {
      "inputs": [
        {
          "internalType": "uint256",
          "name": "_amount",
          "type": "uint256"
        }
      ],
      "name": "calculateDivestmentFee",
      "outputs": [
        {
          "internalType": "uint256",
          "name": "feeAmount",
          "type": "uint256"
        }
      ],
      "stateMutability": "view",
      "type": "function"
    },
    {
      "inputs": [
        {
          "internalType": "uint256",
          "name": "amount",
          "type": "uint256"
        }
      ],
      "name": "calculateInvestFee",
      "outputs": [
        {
          "internalType": "uint256",
          "name": "feeAmount",
          "type": "uint256"
        }
      ],
      "stateMutability": "view",
      "type": "function"
    },
    {
      "inputs": [
        {
          "internalType": "uint256",
          "name": "_amount",
          "type": "uint256"
        }
      ],
      "name": "calculateInvestmentFee",
      "outputs": [
        {
          "internalType": "uint256",
          "name": "feeAmount",
          "type": "uint256"
        }
      ],
      "stateMutability": "view",
      "type": "function"
    },
    {
      "inputs": [
        {
          "internalType": "uint256",
          "name": "amount",
          "type": "uint256"
        }
      ],
      "name": "calculateRagequitFee",
      "outputs": [
        {
          "internalType": "uint256",
          "name": "feeAmount",
          "type": "uint256"
        }
      ],
      "stateMutability": "view",
      "type": "function"
    },
    {
      "inputs": [],
      "name": "callCount",
      "outputs": [
        {
          "internalType": "uint256",
          "name": "",
          "type": "uint256"
        }
      ],
      "stateMutability": "view",
      "type": "function"
    },
    {
      "inputs": [],
      "name": "divestFeePercentage",
      "outputs": [
        {
          "internalType": "uint256",
          "name": "",
          "type": "uint256"
        }
      ],
      "stateMutability": "view",
      "type": "function"
    },
    {
      "inputs": [
        {
          "internalType": "string",
          "name": "",
          "type": "string"
        }
      ],
      "name": "functionCallCount",
      "outputs": [
        {
          "internalType": "uint256",
          "name": "",
          "type": "uint256"
        }
      ],
      "stateMutability": "view",
      "type": "function"
    },
    {
      "inputs": [
        {
          "internalType": "string",
          "name": "functionName",
          "type": "string"
        }
      ],
      "name": "getFunctionCallCount",
      "outputs": [
        {
          "internalType": "uint256",
          "name": "",
          "type": "uint256"
        }
      ],
      "stateMutability": "view",
      "type": "function"
    },
    {
      "inputs": [
        {
          "internalType": "string",
          "name": "functionName",
          "type": "string"
        }
      ],
      "name": "getFunctionCallHistory",
      "outputs": [
        {
          "internalType": "uint256",
          "name": "count",
          "type": "uint256"
        },
        {
          "internalType": "address",
          "name": "lastCaller_",
          "type": "address"
        },
        {
          "internalType": "bytes",
          "name": "lastData",
          "type": "bytes"
        }
      ],
      "stateMutability": "view",
      "type": "function"
    },
    {
      "inputs": [
        {
          "internalType": "bytes32",
          "name": "role",
          "type": "bytes32"
        }
      ],
      "name": "getRoleAdmin",
      "outputs": [
        {
          "internalType": "bytes32",
          "name": "",
          "type": "bytes32"
        }
      ],
      "stateMutability": "view",
      "type": "function"
    },
    {
      "inputs": [
        {
          "internalType": "bytes32",
          "name": "role",
          "type": "bytes32"
        },
        {
          "internalType": "address",
          "name": "account",
          "type": "address"
        }
      ],
      "name": "grantRole",
      "outputs": [],
      "stateMutability": "nonpayable",
      "type": "function"
    },
    {
      "inputs": [
        {
          "internalType": "bytes32",
          "name": "role",
          "type": "bytes32"
        },
        {
          "internalType": "address",
          "name": "account",
          "type": "address"
        }
      ],
      "name": "hasRole",
      "outputs": [
        {
          "internalType": "bool",
          "name": "",
          "type": "bool"
        }
      ],
      "stateMutability": "view",
      "type": "function"
    },
    {
      "inputs": [],
      "name": "initialize",
      "outputs": [],
      "stateMutability": "nonpayable",
      "type": "function"
    },
    {
      "inputs": [],
      "name": "initialized",
      "outputs": [
        {
          "internalType": "bool",
          "name": "",
          "type": "bool"
        }
      ],
      "stateMutability": "view",
      "type": "function"
    },
    {
      "inputs": [],
      "name": "investFeePercentage",
      "outputs": [
        {
          "internalType": "uint256",
          "name": "",
          "type": "uint256"
        }
      ],
      "stateMutability": "view",
      "type": "function"
    },
    {
      "inputs": [
        {
          "internalType": "string",
          "name": "",
          "type": "string"
        }
      ],
      "name": "lastCallData",
      "outputs": [
        {
          "internalType": "bytes",
          "name": "",
          "type": "bytes"
        }
      ],
      "stateMutability": "view",
      "type": "function"
    },
    {
      "inputs": [],
      "name": "lastCaller",
      "outputs": [
        {
          "internalType": "address",
          "name": "",
          "type": "address"
        }
      ],
      "stateMutability": "view",
      "type": "function"
    },
    {
      "inputs": [
        {
          "internalType": "string",
          "name": "",
          "type": "string"
        }
      ],
      "name": "lastCallerByFunction",
      "outputs": [
        {
          "internalType": "address",
          "name": "",
          "type": "address"
        }
      ],
      "stateMutability": "view",
      "type": "function"
    },
    {
      "inputs": [],
      "name": "ragequitFeePercentage",
      "outputs": [
        {
          "internalType": "uint256",
          "name": "",
          "type": "uint256"
        }
      ],
      "stateMutability": "view",
      "type": "function"
    },
    {
      "inputs": [
        {
          "internalType": "bytes32",
          "name": "role",
          "type": "bytes32"
        },
        {
          "internalType": "address",
          "name": "callerConfirmation",
          "type": "address"
        }
      ],
      "name": "renounceRole",
      "outputs": [],
      "stateMutability": "nonpayable",
      "type": "function"
    },
    {
      "inputs": [],
      "name": "reset",
      "outputs": [],
      "stateMutability": "nonpayable",
      "type": "function"
    },
    {
      "inputs": [
        {
          "internalType": "bytes32",
          "name": "role",
          "type": "bytes32"
        },
        {
          "internalType": "address",
          "name": "account",
          "type": "address"
        }
      ],
      "name": "revokeRole",
      "outputs": [],
      "stateMutability": "nonpayable",
      "type": "function"
    },
    {
      "inputs": [],
      "name": "rewardDistributor",
      "outputs": [
        {
          "internalType": "address",
          "name": "",
          "type": "address"
        }
      ],
      "stateMutability": "view",
      "type": "function"
    },
    {
      "inputs": [
        {
          "internalType": "uint256",
          "name": "percentage",
          "type": "uint256"
        }
      ],
      "name": "setDivestFeePercentage",
      "outputs": [],
      "stateMutability": "nonpayable",
      "type": "function"
    },
    {
      "inputs": [
        {
          "internalType": "uint256",
          "name": "percentage",
          "type": "uint256"
        }
      ],
      "name": "setInvestFeePercentage",
      "outputs": [],
      "stateMutability": "nonpayable",
      "type": "function"
    },
    {
      "inputs": [
        {
          "internalType": "uint256",
          "name": "percentage",
          "type": "uint256"
        }
      ],
      "name": "setRagequitFeePercentage",
      "outputs": [],
      "stateMutability": "nonpayable",
      "type": "function"
    },
    {
      "inputs": [
        {
          "internalType": "address",
          "name": "_rewardDistributor",
          "type": "address"
        }
      ],
      "name": "setRewardDistributor",
      "outputs": [],
      "stateMutability": "nonpayable",
      "type": "function"
    },
    {
      "inputs": [
        {
          "internalType": "address",
          "name": "_treasury",
          "type": "address"
        }
      ],
      "name": "setTreasury",
      "outputs": [],
      "stateMutability": "nonpayable",
      "type": "function"
    },
    {
      "inputs": [
        {
          "internalType": "bytes4",
          "name": "interfaceId",
          "type": "bytes4"
        }
      ],
      "name": "supportsInterface",
      "outputs": [
        {
          "internalType": "bool",
          "name": "",
          "type": "bool"
        }
      ],
      "stateMutability": "view",
      "type": "function"
    },
    {
      "inputs": [],
      "name": "treasury",
      "outputs": [
        {
          "internalType": "address",
          "name": "",
          "type": "address"
        }
      ],
      "stateMutability": "view",
      "type": "function"
    },
    {
      "inputs": [
        {
          "internalType": "string",
          "name": "functionName",
          "type": "string"
        }
      ],
      "name": "wasFunctionCalled",
      "outputs": [
        {
          "internalType": "bool",
          "name": "",
          "type": "bool"
        }
      ],
      "stateMutability": "view",
      "type": "function"
    }
  ],
  "bytecode": "0x60806040523480156200001157600080fd5b50604051620016b3380380620016b383398101604081905262000034916200024f565b6200004160003362000183565b506001600160a01b03861615806200006057506001600160a01b038516155b806200007357506001600160a01b038416155b15620000925760405163d92e233d60e01b815260040160405180910390fd5b611388831180620000a4575061138882115b80620000b1575061138881115b15620000d057604051630bb79bd560e31b815260040160405180910390fd5b600683905560078290556008819055600980546001600160a01b038088166001600160a01b031992831617909255600a8054928716929091169190911790556200011c60003362000183565b50620001497fa49807205ce4d355092ef5a8a18f56e8913cf4a201fbe287825b095693c217753362000183565b50620001767f6c0757dc3e6b28b2580c03fd9e96c274acf4f99d91fbec9b418fa1d70604ff1c8762000183565b50505050505050620002b5565b6000828152602081815260408083206001600160a01b038516845290915281205460ff1662000228576000838152602081815260408083206001600160a01b03861684529091529020805460ff19166001179055620001df3390565b6001600160a01b0316826001600160a01b0316847f2f8788117e7eff1d82e926ec794901d17c78024a50270940304540a733656f0d60405160405180910390a45060016200022c565b5060005b92915050565b80516001600160a01b03811681146200024a57600080fd5b919050565b60008060008060008060c087890312156200026957600080fd5b620002748762000232565b9550620002846020880162000232565b9450620002946040880162000232565b9350606087015192506080870151915060a087015190509295509295509295565b6113ee80620002c56000396000f3fe608060405234801561001057600080fd5b50600436106102275760003560e01c806375b238fc11610130578063beb54005116100b8578063dfdbdd501161007c578063dfdbdd50146104d0578063e1f1c4a7146104f0578063f0f44260146104f9578063f66474861461050c578063ffc2e6db1461048657600080fd5b8063beb5400514610346578063c054c6ce14610499578063ca624e4e146104ac578063d547741f146104b5578063d826f88f146104c857600080fd5b8063a1809b95116100ff578063a1809b951461044f578063a217fddf14610462578063a768b18d1461046a578063acc2166a14610473578063b38739c61461048657600080fd5b806375b238fc146103fa5780638129fc1c1461042157806391d14854146104295780639fefb0571461043c57600080fd5b80632fcfaf7a116101b3578063422b010b11610182578063422b010b146103975780634b28f9a2146103c25780634ec91fb6146103cb578063558e44d3146103de57806361d027b3146103e757600080fd5b80632fcfaf7a1461034657806336568abe146103595780633ca3910c1461036c5780633e25a6671461038e57600080fd5b80631df86bc6116101fa5780631df86bc6146102975780632113522a146102e3578063248a9ca3146102fb57806327b4b3341461031e5780632f2ff15d1461033157600080fd5b806301ffc9a71461022c57806305db2f4114610254578063158ef93e146102775780631a82a64314610284575b600080fd5b61023f61023a366004610fc0565b61051f565b60405190151581526020015b60405180910390f35b61026960008051602061139983398151915281565b60405190815260200161024b565b60015461023f9060ff1681565b610269610292366004611007565b610556565b6102cb6102a5366004611007565b80516020818301810180516005825292820191909301209152546001600160a01b031681565b6040516001600160a01b03909116815260200161024b565b6001546102cb9061010090046001600160a01b031681565b6102696103093660046110b8565b60009081526020819052604090206001015490565b61026961032c3660046110b8565b61057e565b61034461033f3660046110ed565b61059b565b005b6102696103543660046110b8565b6105c6565b6103446103673660046110ed565b6105d9565b61037f61037a366004611007565b610611565b60405161024b93929190611169565b61026960085481565b6102696103a5366004611007565b805160208183018101805160038252928201919093012091525481565b61026960025481565b6103446103d93660046110b8565b610714565b61026961138881565b6009546102cb906001600160a01b031681565b6102697fa49807205ce4d355092ef5a8a18f56e8913cf4a201fbe287825b095693c2177581565b610344610816565b61023f6104373660046110ed565b6108a7565b61034461044a3660046110b8565b6108d0565b61034461045d36600461119c565b6109ac565b610269600081565b61026960075481565b600a546102cb906001600160a01b031681565b6102696104943660046110b8565b610a70565b61023f6104a7366004611007565b610a83565b61026960065481565b6103446104c33660046110ed565b610aad565b610344610ad2565b6104e36104de366004611007565b610b1e565b60405161024b91906111b7565b61026961271081565b61034461050736600461119c565b610bc3565b61034461051a3660046110b8565b610c7e565b60006001600160e01b03198216637965db0b60e01b148061055057506301ffc9a760e01b6001600160e01b03198316145b92915050565b600060038260405161056891906111ca565b9081526020016040518091039020549050919050565b60006127106008548361059191906111fc565b6105509190611213565b6000828152602081905260409020600101546105b681610d5b565b6105c08383610d68565b50505050565b60006127106007548361059191906111fc565b6001600160a01b03811633146106025760405163334bd91960e11b815260040160405180910390fd5b61060c8282610dfa565b505050565b600080606060038460405161062691906111ca565b90815260200160405180910390205460058560405161064591906111ca565b908152604051908190036020018120546001600160a01b03169060049061066d9088906111ca565b908152602001604051809103902080805461068790611235565b80601f01602080910402602001604051908101604052809291908181526020018280546106b390611235565b80156107005780601f106106d557610100808354040283529160200191610700565b820191906000526020600020905b8154815290600101906020018083116106e357829003601f168201915b505050505090509250925092509193909250565b60008051602061139983398151915261072c81610d5b565b61078c6040518060400160405280601881526020017f736574526167657175697446656550657263656e7461676500000000000000008152508360405160200161077891815260200190565b604051602081830303815290604052610e65565b6113888211156107af57604051630bb79bd560e31b815260040160405180910390fd5b6008805483825560408051606080825281019390935267149051d15455525560c21b6080840152602083018290528201849052907f1c9ecef21ce5f3aa51847604dc2241014df8249d89d243953fe01cd3c73155899060a0015b60405180910390a1505050565b60015460ff161561086e5760405162461bcd60e51b815260206004820152601d60248201527f426173654d6f636b3a20616c726561647920696e697469616c697a656400000060448201526064015b60405180910390fd5b6001805460ff19168117905560405133907f30f7074e868351008998491171b433e7342f255e986fef03e5eec84f01786f0190600090a2565b6000918252602082815260408084206001600160a01b0393909316845291905290205460ff1690565b6000805160206113998339815191526108e881610d5b565b61092d60405180604001604052806016815260200175736574496e7665737446656550657263656e7461676560501b8152508360405160200161077891815260200190565b61138882111561095057604051630bb79bd560e31b815260040160405180910390fd5b60068054838255604080516060808252810193909352651253959154d560d21b6080840152602083018290528201849052907f1c9ecef21ce5f3aa51847604dc2241014df8249d89d243953fe01cd3c73155899060a001610809565b7fa49807205ce4d355092ef5a8a18f56e8913cf4a201fbe287825b095693c217756109d681610d5b565b610a266040518060400160405280601481526020017339b2ba2932bbb0b9322234b9ba3934b13aba37b960611b8152508360405160200161077891906001600160a01b0391909116815260200190565b6001600160a01b038216610a4d5760405163d92e233d60e01b815260040160405180910390fd5b50600a80546001600160a01b0319166001600160a01b0392909216919091179055565b60006127106006548361059191906111fc565b600080600383604051610a9691906111ca565b908152602001604051809103902054119050919050565b600082815260208190526040902060010154610ac881610d5b565b6105c08383610dfa565b6000610add81610d5b565b600180546001600160a81b0319169055600060028190556040517f47f78a7a0acc7fff3657157dc253c5e6a68550995cc6f47bc2bd707ec67370fb9190a150565b805160208183018101805160048252928201919093012091528054610b4290611235565b80601f0160208091040260200160405190810160405280929190818152602001828054610b6e90611235565b8015610bbb5780601f10610b9057610100808354040283529160200191610bbb565b820191906000526020600020905b815481529060010190602001808311610b9e57829003601f168201915b505050505081565b7fa49807205ce4d355092ef5a8a18f56e8913cf4a201fbe287825b095693c21775610bed81610d5b565b610c346040518060400160405280600b81526020016a736574547265617375727960a81b8152508360405160200161077891906001600160a01b0391909116815260200190565b6001600160a01b038216610c5b5760405163d92e233d60e01b815260040160405180910390fd5b50600980546001600160a01b0319166001600160a01b0392909216919091179055565b600080516020611399833981519152610c9681610d5b565b610cdb6040518060400160405280601681526020017573657444697665737446656550657263656e7461676560501b8152508360405160200161077891815260200190565b611388821115610cfe57604051630bb79bd560e31b815260040160405180910390fd5b6007805490839055604080516060808252600690820152651112559154d560d21b6080820152602081018390529081018490527f1c9ecef21ce5f3aa51847604dc2241014df8249d89d243953fe01cd3c73155899060a001610809565b610d658133610f83565b50565b6000610d7483836108a7565b610df2576000838152602081815260408083206001600160a01b03861684529091529020805460ff19166001179055610daa3390565b6001600160a01b0316826001600160a01b0316847f2f8788117e7eff1d82e926ec794901d17c78024a50270940304540a733656f0d60405160405180910390a4506001610550565b506000610550565b6000610e0683836108a7565b15610df2576000838152602081815260408083206001600160a01b0386168085529252808320805460ff1916905551339286917ff6391f5c32d9c69d2a47ea670b442974b53935d1edc7fd64eb21e047a839171b9190a4506001610550565b600382604051610e7591906111ca565b9081526040519081900360200190208054906000610e928361126f565b919050555080600483604051610ea891906111ca565b90815260200160405180910390209081610ec291906112d8565b5033600583604051610ed491906111ca565b90815260405160209181900391909101902080546001600160a01b0319166001600160a01b039290921691909117905560018054610100600160a81b031916610100330217905560028054906000610f2b8361126f565b90915550506040513390610f409084906111ca565b60405180910390207f16b892c3de2f4b54dc114eff5c76ead156bac210353ee82615752957e1317df183604051610f7791906111b7565b60405180910390a35050565b610f8d82826108a7565b610fbc5760405163e2517d3f60e01b81526001600160a01b038216600482015260248101839052604401610865565b5050565b600060208284031215610fd257600080fd5b81356001600160e01b031981168114610fea57600080fd5b9392505050565b634e487b7160e01b600052604160045260246000fd5b60006020828403121561101957600080fd5b813567ffffffffffffffff8082111561103157600080fd5b818401915084601f83011261104557600080fd5b81358181111561105757611057610ff1565b604051601f8201601f19908116603f0116810190838211818310171561107f5761107f610ff1565b8160405282815287602084870101111561109857600080fd5b826020860160208301376000928101602001929092525095945050505050565b6000602082840312156110ca57600080fd5b5035919050565b80356001600160a01b03811681146110e857600080fd5b919050565b6000806040838503121561110057600080fd5b82359150611110602084016110d1565b90509250929050565b60005b8381101561113457818101518382015260200161111c565b50506000910152565b60008151808452611155816020860160208601611119565b601f01601f19169290920160200192915050565b8381526001600160a01b03831660208201526060604082018190526000906111939083018461113d565b95945050505050565b6000602082840312156111ae57600080fd5b610fea826110d1565b602081526000610fea602083018461113d565b600082516111dc818460208701611119565b9190910192915050565b634e487b7160e01b600052601160045260246000fd5b8082028115828204841417610550576105506111e6565b60008261123057634e487b7160e01b600052601260045260246000fd5b500490565b600181811c9082168061124957607f821691505b60208210810361126957634e487b7160e01b600052602260045260246000fd5b50919050565b600060018201611281576112816111e6565b5060010190565b601f82111561060c576000816000526020600020601f850160051c810160208610156112b15750805b601f850160051c820191505b818110156112d0578281556001016112bd565b505050505050565b815167ffffffffffffffff8111156112f2576112f2610ff1565b611306816113008454611235565b84611288565b602080601f83116001811461133b57600084156113235750858301515b600019600386901b1c1916600185901b1785556112d0565b600085815260208120601f198616915b8281101561136a5788860151825594840194600190910190840161134b565b50858210156113885787850151600019600388901b60f8161c191681555b5050505050600190811b0190555056fe6c0757dc3e6b28b2580c03fd9e96c274acf4f99d91fbec9b418fa1d70604ff1ca2646970667358221220d60a070ce973ee162db5b86b7e8a5bb9a6e72294db5883632863db8c5633ba6864736f6c63430008180033",
  "linkReferences": {},
  "deployedLinkReferences": {}
}