{
  "_format": "hh-sol-artifact-1",
  "contractName": "MockProposalSystem",
  "sourceName": "contracts/mocks/MockProposalSystem.sol",
  "abi": [
    {
      "inputs": [
        {
          "internalType": "address",
          "name": "_governanceToken",
          "type": "address"
        },
        {
          "internalType": "uint256",
          "name": "_quorum",
          "type": "uint256"
        },
        {
          "internalType": "uint256",
          "name": "_votingPeriod",
          "type": "uint256"
        },
        {
          "internalType": "uint256",
          "name": "_executionDelay",
          "type": "uint256"
        }
      ],
      "stateMutability": "nonpayable",
      "type": "constructor"
    },
    {
      "inputs": [],
      "name": "AccessControlBadConfirmation",
      "type": "error"
    },
    {
      "inputs": [
        {
          "internalType": "address",
          "name": "account",
          "type": "address"
        },
        {
          "internalType": "bytes32",
          "name": "neededRole",
          "type": "bytes32"
        }
      ],
      "name": "AccessControlUnauthorizedAccount",
      "type": "error"
    },
    {
      "inputs": [],
      "name": "AlreadyVoted",
      "type": "error"
    },
    {
      "inputs": [],
      "name": "InsufficientVotingPower",
      "type": "error"
    },
    {
      "inputs": [],
      "name": "InvalidQuorumRange",
      "type": "error"
    },
    {
      "inputs": [],
      "name": "InvalidVotingPeriod",
      "type": "error"
    },
    {
      "inputs": [],
      "name": "ProposalNotActive",
      "type": "error"
    },
    {
      "inputs": [],
      "name": "ProposalNotFound",
      "type": "error"
    },
    {
      "inputs": [],
      "name": "VotingPeriodEnded",
      "type": "error"
    },
    {
      "inputs": [],
      "name": "ZeroAddress",
      "type": "error"
    },
    {
      "anonymous": false,
      "inputs": [
        {
          "indexed": false,
          "internalType": "uint256",
          "name": "oldDelay",
          "type": "uint256"
        },
        {
          "indexed": false,
          "internalType": "uint256",
          "name": "newDelay",
          "type": "uint256"
        }
      ],
      "name": "ExecutionDelayUpdated",
      "type": "event"
    },
    {
      "anonymous": false,
      "inputs": [
        {
          "indexed": true,
          "internalType": "string",
          "name": "functionName",
          "type": "string"
        },
        {
          "indexed": true,
          "internalType": "address",
          "name": "caller",
          "type": "address"
        },
        {
          "indexed": false,
          "internalType": "bytes",
          "name": "data",
          "type": "bytes"
        }
      ],
      "name": "MockFunctionCalled",
      "type": "event"
    },
    {
      "anonymous": false,
      "inputs": [
        {
          "indexed": true,
          "internalType": "address",
          "name": "caller",
          "type": "address"
        }
      ],
      "name": "MockInitialized",
      "type": "event"
    },
    {
      "anonymous": false,
      "inputs": [],
      "name": "MockStateReset",
      "type": "event"
    },
    {
      "anonymous": false,
      "inputs": [
        {
          "indexed": true,
          "internalType": "uint256",
          "name": "proposalId",
          "type": "uint256"
        }
      ],
      "name": "ProposalCanceled",
      "type": "event"
    },
    {
      "anonymous": false,
      "inputs": [
        {
          "indexed": true,
          "internalType": "uint256",
          "name": "proposalId",
          "type": "uint256"
        },
        {
          "indexed": true,
          "internalType": "address",
          "name": "proposer",
          "type": "address"
        },
        {
          "indexed": false,
          "internalType": "enum MockProposalSystem.ProposalType",
          "name": "proposalType",
          "type": "uint8"
        },
        {
          "indexed": false,
          "internalType": "string",
          "name": "description",
          "type": "string"
        }
      ],
      "name": "ProposalCreated",
      "type": "event"
    },
    {
      "anonymous": false,
      "inputs": [
        {
          "indexed": true,
          "internalType": "uint256",
          "name": "proposalId",
          "type": "uint256"
        }
      ],
      "name": "ProposalExecuted",
      "type": "event"
    },
    {
      "anonymous": false,
      "inputs": [
        {
          "indexed": false,
          "internalType": "uint256",
          "name": "oldQuorum",
          "type": "uint256"
        },
        {
          "indexed": false,
          "internalType": "uint256",
          "name": "newQuorum",
          "type": "uint256"
        }
      ],
      "name": "QuorumUpdated",
      "type": "event"
    },
    {
      "anonymous": false,
      "inputs": [
        {
          "indexed": true,
          "internalType": "bytes32",
          "name": "role",
          "type": "bytes32"
        },
        {
          "indexed": true,
          "internalType": "bytes32",
          "name": "previousAdminRole",
          "type": "bytes32"
        },
        {
          "indexed": true,
          "internalType": "bytes32",
          "name": "newAdminRole",
          "type": "bytes32"
        }
      ],
      "name": "RoleAdminChanged",
      "type": "event"
    },
    {
      "anonymous": false,
      "inputs": [
        {
          "indexed": true,
          "internalType": "bytes32",
          "name": "role",
          "type": "bytes32"
        },
        {
          "indexed": true,
          "internalType": "address",
          "name": "account",
          "type": "address"
        },
        {
          "indexed": true,
          "internalType": "address",
          "name": "sender",
          "type": "address"
        }
      ],
      "name": "RoleGranted",
      "type": "event"
    },
    {
      "anonymous": false,
      "inputs": [
        {
          "indexed": true,
          "internalType": "bytes32",
          "name": "role",
          "type": "bytes32"
        },
        {
          "indexed": true,
          "internalType": "address",
          "name": "account",
          "type": "address"
        },
        {
          "indexed": true,
          "internalType": "address",
          "name": "sender",
          "type": "address"
        }
      ],
      "name": "RoleRevoked",
      "type": "event"
    },
    {
      "anonymous": false,
      "inputs": [
        {
          "indexed": true,
          "internalType": "uint256",
          "name": "proposalId",
          "type": "uint256"
        },
        {
          "indexed": true,
          "internalType": "address",
          "name": "voter",
          "type": "address"
        },
        {
          "indexed": false,
          "internalType": "bool",
          "name": "support",
          "type": "bool"
        },
        {
          "indexed": false,
          "internalType": "uint256",
          "name": "power",
          "type": "uint256"
        },
        {
          "indexed": false,
          "internalType": "string",
          "name": "justification",
          "type": "string"
        }
      ],
      "name": "VoteCast",
      "type": "event"
    },
    {
      "anonymous": false,
      "inputs": [
        {
          "indexed": false,
          "internalType": "uint256",
          "name": "oldPeriod",
          "type": "uint256"
        },
        {
          "indexed": false,
          "internalType": "uint256",
          "name": "newPeriod",
          "type": "uint256"
        }
      ],
      "name": "VotingPeriodUpdated",
      "type": "event"
    },
    {
      "inputs": [],
      "name": "DEFAULT_ADMIN_ROLE",
      "outputs": [
        {
          "internalType": "bytes32",
          "name": "",
          "type": "bytes32"
        }
      ],
      "stateMutability": "view",
      "type": "function"
    },
    {
      "inputs": [],
      "name": "GOVERNANCE_ROLE",
      "outputs": [
        {
          "internalType": "bytes32",
          "name": "",
          "type": "bytes32"
        }
      ],
      "stateMutability": "view",
      "type": "function"
    },
    {
      "inputs": [],
      "name": "callCount",
      "outputs": [
        {
          "internalType": "uint256",
          "name": "",
          "type": "uint256"
        }
      ],
      "stateMutability": "view",
      "type": "function"
    },
    {
      "inputs": [
        {
          "internalType": "uint256",
          "name": "proposalId",
          "type": "uint256"
        }
      ],
      "name": "cancelProposal",
      "outputs": [],
      "stateMutability": "nonpayable",
      "type": "function"
    },
    {
      "inputs": [
        {
          "internalType": "uint256",
          "name": "proposalId",
          "type": "uint256"
        },
        {
          "internalType": "bool",
          "name": "support",
          "type": "bool"
        },
        {
          "internalType": "uint256",
          "name": "votingPower",
          "type": "uint256"
        },
        {
          "internalType": "string",
          "name": "justification",
          "type": "string"
        }
      ],
      "name": "castVote",
      "outputs": [],
      "stateMutability": "nonpayable",
      "type": "function"
    },
    {
      "inputs": [
        {
          "internalType": "enum MockProposalSystem.ProposalType",
          "name": "proposalType",
          "type": "uint8"
        },
        {
          "internalType": "string",
          "name": "description",
          "type": "string"
        },
        {
          "internalType": "address",
          "name": "target",
          "type": "address"
        },
        {
          "internalType": "bytes",
          "name": "callData",
          "type": "bytes"
        }
      ],
      "name": "createProposal",
      "outputs": [
        {
          "internalType": "uint256",
          "name": "",
          "type": "uint256"
        }
      ],
      "stateMutability": "nonpayable",
      "type": "function"
    },
    {
      "inputs": [
        {
          "internalType": "uint256",
          "name": "proposalId",
          "type": "uint256"
        }
      ],
      "name": "executeProposal",
      "outputs": [],
      "stateMutability": "nonpayable",
      "type": "function"
    },
    {
      "inputs": [],
      "name": "executionDelay",
      "outputs": [
        {
          "internalType": "uint256",
          "name": "",
          "type": "uint256"
        }
      ],
      "stateMutability": "view",
      "type": "function"
    },
    {
      "inputs": [
        {
          "internalType": "string",
          "name": "",
          "type": "string"
        }
      ],
      "name": "functionCallCount",
      "outputs": [
        {
          "internalType": "uint256",
          "name": "",
          "type": "uint256"
        }
      ],
      "stateMutability": "view",
      "type": "function"
    },
    {
      "inputs": [
        {
          "internalType": "string",
          "name": "functionName",
          "type": "string"
        }
      ],
      "name": "getFunctionCallCount",
      "outputs": [
        {
          "internalType": "uint256",
          "name": "",
          "type": "uint256"
        }
      ],
      "stateMutability": "view",
      "type": "function"
    },
    {
      "inputs": [
        {
          "internalType": "string",
          "name": "functionName",
          "type": "string"
        }
      ],
      "name": "getFunctionCallHistory",
      "outputs": [
        {
          "internalType": "uint256",
          "name": "count",
          "type": "uint256"
        },
        {
          "internalType": "address",
          "name": "lastCaller_",
          "type": "address"
        },
        {
          "internalType": "bytes",
          "name": "lastData",
          "type": "bytes"
        }
      ],
      "stateMutability": "view",
      "type": "function"
    },
    {
      "inputs": [
        {
          "internalType": "uint256",
          "name": "proposalId",
          "type": "uint256"
        }
      ],
      "name": "getProposal",
      "outputs": [
        {
          "components": [
            {
              "internalType": "uint256",
              "name": "id",
              "type": "uint256"
            },
            {
              "internalType": "enum MockProposalSystem.ProposalType",
              "name": "proposalType",
              "type": "uint8"
            },
            {
              "internalType": "address",
              "name": "proposer",
              "type": "address"
            },
            {
              "internalType": "string",
              "name": "description",
              "type": "string"
            },
            {
              "internalType": "address",
              "name": "target",
              "type": "address"
            },
            {
              "internalType": "bytes",
              "name": "callData",
              "type": "bytes"
            },
            {
              "internalType": "uint256",
              "name": "createdAt",
              "type": "uint256"
            },
            {
              "internalType": "uint256",
              "name": "votingEndsAt",
              "type": "uint256"
            },
            {
              "internalType": "uint256",
              "name": "forVotes",
              "type": "uint256"
            },
            {
              "internalType": "uint256",
              "name": "againstVotes",
              "type": "uint256"
            },
            {
              "internalType": "enum MockProposalSystem.ProposalState",
              "name": "state",
              "type": "uint8"
            },
            {
              "internalType": "bool",
              "name": "executed",
              "type": "bool"
            }
          ],
          "internalType": "struct MockProposalSystem.Proposal",
          "name": "",
          "type": "tuple"
        }
      ],
      "stateMutability": "view",
      "type": "function"
    },
    {
      "inputs": [
        {
          "internalType": "uint256",
          "name": "proposalId",
          "type": "uint256"
        }
      ],
      "name": "getProposalState",
      "outputs": [
        {
          "internalType": "enum MockProposalSystem.ProposalState",
          "name": "",
          "type": "uint8"
        }
      ],
      "stateMutability": "view",
      "type": "function"
    },
    {
      "inputs": [
        {
          "internalType": "bytes32",
          "name": "role",
          "type": "bytes32"
        }
      ],
      "name": "getRoleAdmin",
      "outputs": [
        {
          "internalType": "bytes32",
          "name": "",
          "type": "bytes32"
        }
      ],
      "stateMutability": "view",
      "type": "function"
    },
    {
      "inputs": [
        {
          "internalType": "uint256",
          "name": "proposalId",
          "type": "uint256"
        },
        {
          "internalType": "address",
          "name": "voter",
          "type": "address"
        }
      ],
      "name": "getVoteDetails",
      "outputs": [
        {
          "components": [
            {
              "internalType": "bool",
              "name": "support",
              "type": "bool"
            },
            {
              "internalType": "uint256",
              "name": "power",
              "type": "uint256"
            },
            {
              "internalType": "string",
              "name": "justification",
              "type": "string"
            }
          ],
          "internalType": "struct MockProposalSystem.Vote",
          "name": "",
          "type": "tuple"
        }
      ],
      "stateMutability": "view",
      "type": "function"
    },
    {
      "inputs": [],
      "name": "governanceToken",
      "outputs": [
        {
          "internalType": "contract IERC20",
          "name": "",
          "type": "address"
        }
      ],
      "stateMutability": "view",
      "type": "function"
    },
    {
      "inputs": [
        {
          "internalType": "bytes32",
          "name": "role",
          "type": "bytes32"
        },
        {
          "internalType": "address",
          "name": "account",
          "type": "address"
        }
      ],
      "name": "grantRole",
      "outputs": [],
      "stateMutability": "nonpayable",
      "type": "function"
    },
    {
      "inputs": [
        {
          "internalType": "bytes32",
          "name": "role",
          "type": "bytes32"
        },
        {
          "internalType": "address",
          "name": "account",
          "type": "address"
        }
      ],
      "name": "hasRole",
      "outputs": [
        {
          "internalType": "bool",
          "name": "",
          "type": "bool"
        }
      ],
      "stateMutability": "view",
      "type": "function"
    },
    {
      "inputs": [],
      "name": "initialize",
      "outputs": [],
      "stateMutability": "nonpayable",
      "type": "function"
    },
    {
      "inputs": [],
      "name": "initialized",
      "outputs": [
        {
          "internalType": "bool",
          "name": "",
          "type": "bool"
        }
      ],
      "stateMutability": "view",
      "type": "function"
    },
    {
      "inputs": [
        {
          "internalType": "string",
          "name": "",
          "type": "string"
        }
      ],
      "name": "lastCallData",
      "outputs": [
        {
          "internalType": "bytes",
          "name": "",
          "type": "bytes"
        }
      ],
      "stateMutability": "view",
      "type": "function"
    },
    {
      "inputs": [],
      "name": "lastCaller",
      "outputs": [
        {
          "internalType": "address",
          "name": "",
          "type": "address"
        }
      ],
      "stateMutability": "view",
      "type": "function"
    },
    {
      "inputs": [
        {
          "internalType": "string",
          "name": "",
          "type": "string"
        }
      ],
      "name": "lastCallerByFunction",
      "outputs": [
        {
          "internalType": "address",
          "name": "",
          "type": "address"
        }
      ],
      "stateMutability": "view",
      "type": "function"
    },
    {
      "inputs": [
        {
          "internalType": "address",
          "name": "",
          "type": "address"
        }
      ],
      "name": "lockedVotingTokens",
      "outputs": [
        {
          "internalType": "uint256",
          "name": "",
          "type": "uint256"
        }
      ],
      "stateMutability": "view",
      "type": "function"
    },
    {
      "inputs": [],
      "name": "proposalCount",
      "outputs": [
        {
          "internalType": "uint256",
          "name": "",
          "type": "uint256"
        }
      ],
      "stateMutability": "view",
      "type": "function"
    },
    {
      "inputs": [
        {
          "internalType": "uint256",
          "name": "",
          "type": "uint256"
        }
      ],
      "name": "proposals",
      "outputs": [
        {
          "internalType": "uint256",
          "name": "id",
          "type": "uint256"
        },
        {
          "internalType": "enum MockProposalSystem.ProposalType",
          "name": "proposalType",
          "type": "uint8"
        },
        {
          "internalType": "address",
          "name": "proposer",
          "type": "address"
        },
        {
          "internalType": "string",
          "name": "description",
          "type": "string"
        },
        {
          "internalType": "address",
          "name": "target",
          "type": "address"
        },
        {
          "internalType": "bytes",
          "name": "callData",
          "type": "bytes"
        },
        {
          "internalType": "uint256",
          "name": "createdAt",
          "type": "uint256"
        },
        {
          "internalType": "uint256",
          "name": "votingEndsAt",
          "type": "uint256"
        },
        {
          "internalType": "uint256",
          "name": "forVotes",
          "type": "uint256"
        },
        {
          "internalType": "uint256",
          "name": "againstVotes",
          "type": "uint256"
        },
        {
          "internalType": "enum MockProposalSystem.ProposalState",
          "name": "state",
          "type": "uint8"
        },
        {
          "internalType": "bool",
          "name": "executed",
          "type": "bool"
        }
      ],
      "stateMutability": "view",
      "type": "function"
    },
    {
      "inputs": [],
      "name": "quorum",
      "outputs": [
        {
          "internalType": "uint256",
          "name": "",
          "type": "uint256"
        }
      ],
      "stateMutability": "view",
      "type": "function"
    },
    {
      "inputs": [
        {
          "internalType": "bytes32",
          "name": "role",
          "type": "bytes32"
        },
        {
          "internalType": "address",
          "name": "callerConfirmation",
          "type": "address"
        }
      ],
      "name": "renounceRole",
      "outputs": [],
      "stateMutability": "nonpayable",
      "type": "function"
    },
    {
      "inputs": [],
      "name": "reset",
      "outputs": [],
      "stateMutability": "nonpayable",
      "type": "function"
    },
    {
      "inputs": [
        {
          "internalType": "uint256",
          "name": "proposalId",
          "type": "uint256"
        }
      ],
      "name": "retrieveVotingTokens",
      "outputs": [],
      "stateMutability": "nonpayable",
      "type": "function"
    },
    {
      "inputs": [
        {
          "internalType": "bytes32",
          "name": "role",
          "type": "bytes32"
        },
        {
          "internalType": "address",
          "name": "account",
          "type": "address"
        }
      ],
      "name": "revokeRole",
      "outputs": [],
      "stateMutability": "nonpayable",
      "type": "function"
    },
    {
      "inputs": [
        {
          "internalType": "bytes4",
          "name": "interfaceId",
          "type": "bytes4"
        }
      ],
      "name": "supportsInterface",
      "outputs": [
        {
          "internalType": "bool",
          "name": "",
          "type": "bool"
        }
      ],
      "stateMutability": "view",
      "type": "function"
    },
    {
      "inputs": [
        {
          "internalType": "uint256",
          "name": "newExecutionDelay",
          "type": "uint256"
        }
      ],
      "name": "updateExecutionDelay",
      "outputs": [],
      "stateMutability": "nonpayable",
      "type": "function"
    },
    {
      "inputs": [
        {
          "internalType": "uint256",
          "name": "newQuorum",
          "type": "uint256"
        }
      ],
      "name": "updateQuorum",
      "outputs": [],
      "stateMutability": "nonpayable",
      "type": "function"
    },
    {
      "inputs": [
        {
          "internalType": "uint256",
          "name": "newVotingPeriod",
          "type": "uint256"
        }
      ],
      "name": "updateVotingPeriod",
      "outputs": [],
      "stateMutability": "nonpayable",
      "type": "function"
    },
    {
      "inputs": [
        {
          "internalType": "uint256",
          "name": "",
          "type": "uint256"
        },
        {
          "internalType": "address",
          "name": "",
          "type": "address"
        }
      ],
      "name": "votes",
      "outputs": [
        {
          "internalType": "bool",
          "name": "support",
          "type": "bool"
        },
        {
          "internalType": "uint256",
          "name": "power",
          "type": "uint256"
        },
        {
          "internalType": "string",
          "name": "justification",
          "type": "string"
        }
      ],
      "stateMutability": "view",
      "type": "function"
    },
    {
      "inputs": [],
      "name": "votingPeriod",
      "outputs": [
        {
          "internalType": "uint256",
          "name": "",
          "type": "uint256"
        }
      ],
      "stateMutability": "view",
      "type": "function"
    },
    {
      "inputs": [
        {
          "internalType": "string",
          "name": "functionName",
          "type": "string"
        }
      ],
      "name": "wasFunctionCalled",
      "outputs": [
        {
          "internalType": "bool",
          "name": "",
          "type": "bool"
        }
      ],
      "stateMutability": "view",
      "type": "function"
    }
  ],
  "bytecode": "0x60806040523480156200001157600080fd5b5060405162002d1738038062002d178339810160408190526200003491620001da565b620000416000336200012b565b506001600160a01b0384166200006a5760405163d92e233d60e01b815260040160405180910390fd5b6000831180156200007c575060648311155b6200009a5760405163ea66c58f60e01b815260040160405180910390fd5b81600003620000bc576040516305a612e360e01b815260040160405180910390fd5b600680546001600160a01b0319166001600160a01b038616179055600783905560088290556009819055620000f36000336200012b565b50620001207f71840dc4906352362b0cdaf79870196c8e42acafade72d5d5a6d59291253ceb1336200012b565b505050505062000227565b6000828152602081815260408083206001600160a01b038516845290915281205460ff16620001d0576000838152602081815260408083206001600160a01b03861684529091529020805460ff19166001179055620001873390565b6001600160a01b0316826001600160a01b0316847f2f8788117e7eff1d82e926ec794901d17c78024a50270940304540a733656f0d60405160405180910390a4506001620001d4565b5060005b92915050565b60008060008060808587031215620001f157600080fd5b84516001600160a01b03811681146200020957600080fd5b60208601516040870151606090970151919890975090945092505050565b612ae080620002376000396000f3fe608060405234801561001057600080fd5b50600436106102325760003560e01c80638b25798911610130578063d23254b4116100b8578063e0a8f6f51161007c578063e0a8f6f514610557578063ef00ef431461056a578063f36c8f5c1461057d578063f395c79e14610592578063f96dae0a146105a557600080fd5b8063d23254b4146104f1578063d547741f14610513578063d826f88f14610526578063da35c6641461052e578063dfdbdd501461053757600080fd5b8063a217fddf116100ff578063a217fddf14610483578063b95d47d61461048b578063c054c6ce146104ab578063c2a49d88146104be578063c7f758a8146104d157600080fd5b80638b257989146104345780639080936f1461043d57806390d200381461045d57806391d148541461047057600080fd5b8063248a9ca3116101be5780633ca3910c116101825780633ca3910c146103c3578063422b010b146103e55780634b28f9a214610410578063574998b9146104195780638129fc1c1461042c57600080fd5b8063248a9ca3146103475780632935df9e1461036a5780632f2ff15d1461038a57806335680dc21461039d57806336568abe146103b057600080fd5b8063158ef93e11610205578063158ef93e146102ba5780631703a018146102c75780631a82a643146102d05780631df86bc6146102e35780632113522a1461032f57600080fd5b8063013cf08b1461023757806301ffc9a71461026b57806302a251a31461028e5780630d61b519146102a5575b600080fd5b61024a610245366004612203565b6105b8565b6040516102629c9b9a999897969594939291906122a6565b60405180910390f35b61027e61027936600461233f565b610747565b6040519015158152602001610262565b61029760085481565b604051908152602001610262565b6102b86102b3366004612203565b61077e565b005b60015461027e9060ff1681565b61029760075481565b6102976102de36600461241c565b610a8c565b6103176102f136600461241c565b80516020818301810180516005825292820191909301209152546001600160a01b031681565b6040516001600160a01b039091168152602001610262565b6001546103179061010090046001600160a01b031681565b610297610355366004612203565b60009081526020819052604090206001015490565b61037d610378366004612475565b610ab4565b60405161026291906124a1565b6102b8610398366004612475565b610bac565b6102b86103ab366004612203565b610bd7565b6102b86103be366004612475565b610cc5565b6103d66103d136600461241c565b610cfd565b604051610262939291906124d2565b6102976103f336600461241c565b805160208183018101805160038252928201919093012091525481565b61029760025481565b610297610427366004612505565b610e00565b6102b8611091565b61029760095481565b61045061044b366004612203565b61111d565b60405161026291906125a4565b6102b861046b366004612203565b61120e565b61027e61047e366004612475565b6112a7565b610297600081565b6102976104993660046125b2565b600d6020526000908152604090205481565b61027e6104b936600461241c565b6112d0565b6102b86104cc3660046125db565b6112fa565b6104e46104df366004612203565b611613565b6040516102629190612632565b6105046104ff366004612475565b611890565b60405161026293929190612719565b6102b8610521366004612475565b61194a565b6102b861196f565b610297600b5481565b61054a61054536600461241c565b6119bb565b604051610262919061273a565b6102b8610565366004612203565b611a60565b6102b8610578366004612203565b611ba9565b610297600080516020612a8b83398151915281565b6102b86105a0366004612203565b611c88565b600654610317906001600160a01b031681565b600a60205260009081526040902080546001820154600283018054929360ff8316936101009093046001600160a01b0316929091906105f69061274d565b80601f01602080910402602001604051908101604052809291908181526020018280546106229061274d565b801561066f5780601f106106445761010080835404028352916020019161066f565b820191906000526020600020905b81548152906001019060200180831161065257829003601f168201915b505050600384015460048501805494956001600160a01b039092169491935091506106999061274d565b80601f01602080910402602001604051908101604052809291908181526020018280546106c59061274d565b80156107125780601f106106e757610100808354040283529160200191610712565b820191906000526020600020905b8154815290600101906020018083116106f557829003601f168201915b505050600584015460068501546007860154600887015460099097015495969295919450925060ff808216916101009004168c565b60006001600160e01b03198216637965db0b60e01b148061077857506301ffc9a760e01b6001600160e01b03198316145b92915050565b6107d06040518060400160405280600f81526020016e195e1958dd5d19541c9bdc1bdcd85b608a1b815250826040516020016107bc91815260200190565b604051602081830303815290604052611f19565b6000818152600a60205260409020805482146107ff5760405163635e873760e01b815260040160405180910390fd5b6000600982015460ff16600481111561081a5761081a61221c565b1461083857604051637becc13f60e01b815260040160405180910390fd5b80600601544210156108875760405162461bcd60e51b8152602060048201526013602482015272566f74696e67207374696c6c2061637469766560681b60448201526064015b60405180910390fd5b6009810154610100900460ff16156108d45760405162461bcd60e51b815260206004820152601060248201526f105b1c9958591e48195e1958dd5d195960821b604482015260640161087e565b6000816008015482600701546108ea919061279d565b90506000811161092c5760405162461bcd60e51b815260206004820152600d60248201526c139bc81d9bdd195cc818d85cdd609a1b604482015260640161087e565b6000818360070154606461094091906127b0565b61094a91906127c7565b90506007548110156109935760405162461bcd60e51b8152602060048201526012602482015271145d5bdc9d5b481b9bdd081c995858da195960721b604482015260640161087e565b60098301805461ffff191661010417905560038301546040516000916001600160a01b0316906109c79060048701906127e9565b6000604051808303816000865af19150503d8060008114610a04576040519150601f19603f3d011682016040523d82523d6000602084013e610a09565b606091505b5050905080610a5a5760405162461bcd60e51b815260206004820152601960248201527f50726f706f73616c20657865637574696f6e206661696c656400000000000000604482015260640161087e565b60405185907f712ae1383f79ac853f8d882153778e0260ef8f03b504e2866e0593e04d2b291f90600090a25050505050565b6000600382604051610a9e919061285f565b9081526020016040518091039020549050919050565b604080516060808201835260008083526020808401829052838501839052868252600c81528482206001600160a01b038716835281529084902084519283018552805460ff1615158352600181015491830191909152600281018054939492939192840191610b229061274d565b80601f0160208091040260200160405190810160405280929190818152602001828054610b4e9061274d565b8015610b9b5780601f10610b7057610100808354040283529160200191610b9b565b820191906000526020600020905b815481529060010190602001808311610b7e57829003601f168201915b505050505081525050905092915050565b600082815260208190526040902060010154610bc781612037565b610bd18383612044565b50505050565b600080516020612a8b833981519152610bef81612037565b610c2a6040518060400160405280600c81526020016b75706461746551756f72756d60a01b815250836040516020016107bc91815260200190565b600082118015610c3b575060648211155b610c7e5760405162461bcd60e51b8152602060048201526014602482015273496e76616c69642071756f72756d2072616e676560601b604482015260640161087e565b600780549083905560408051828152602081018590527f6784e9bcb845caaa98267d7b0918f97d3d17f7cb35a05b52010f7eb587a0acb091015b60405180910390a1505050565b6001600160a01b0381163314610cee5760405163334bd91960e11b815260040160405180910390fd5b610cf882826120d6565b505050565b6000806060600384604051610d12919061285f565b908152602001604051809103902054600585604051610d31919061285f565b908152604051908190036020018120546001600160a01b031690600490610d5990889061285f565b9081526020016040518091039020808054610d739061274d565b80601f0160208091040260200160405190810160405280929190818152602001828054610d9f9061274d565b8015610dec5780601f10610dc157610100808354040283529160200191610dec565b820191906000526020600020905b815481529060010190602001808311610dcf57829003601f168201915b505050505090509250925092509193909250565b6000610e436040518060400160405280600e81526020016d18dc99585d19541c9bdc1bdcd85b60921b815250868686866040516020016107bc949392919061287b565b6001600160a01b038316610e6a5760405163d92e233d60e01b815260040160405180910390fd5b6000600b546001610e7b919061279d565b905080600b81905550604051806101800160405280828152602001876002811115610ea857610ea861221c565b8152602001336001600160a01b03168152602001868152602001856001600160a01b0316815260200184815260200142815260200160085442610eeb919061279d565b8152602001600081526020016000815260200160006004811115610f1157610f1161221c565b815260006020918201819052838152600a825260409020825181559082015160018281018054909160ff1990911690836002811115610f5257610f5261221c565b021790555060408201516001820180546001600160a01b0390921661010002610100600160a81b031990921691909117905560608201516002820190610f989082612917565b5060808201516003820180546001600160a01b0319166001600160a01b0390921691909117905560a08201516004820190610fd39082612917565b5060c0820151600582015560e082015160068201556101008201516007820155610120820151600882015561014082015160098201805460ff191660018360048111156110225761102261221c565b02179055506101609190910151600990910180549115156101000261ff0019909216919091179055604051339082907f8356bc5007056a642094f44da4e8e22469db3e8a36b5811c0f91f735f1491c7990611080908a908a906129d7565b60405180910390a395945050505050565b60015460ff16156110e45760405162461bcd60e51b815260206004820152601d60248201527f426173654d6f636b3a20616c726561647920696e697469616c697a6564000000604482015260640161087e565b6001805460ff19168117905560405133907f30f7074e868351008998491171b433e7342f255e986fef03e5eec84f01786f0190600090a2565b6000818152600a602052604081208054831461114c5760405163635e873760e01b815260040160405180910390fd5b6001600982015460ff1660048111156111675761116761221c565b036111755750600192915050565b6009810154610100900460ff16156111905750600492915050565b42816006015411156111a55750600092915050565b6000816008015482600701546111bb919061279d565b9050806000036111cf575060029392505050565b600081836007015460646111e391906127b0565b6111ed91906127c7565b9050600754811061120357506003949350505050565b506002949350505050565b600080516020612a8b83398151915261122681612037565b61126960405180604001604052806014815260200173757064617465457865637574696f6e44656c617960601b815250836040516020016107bc91815260200190565b600980549083905560408051828152602081018590527fc3fea73a093f9f688b83e388026bda2c879cda83223a752528ab027f60d400e09101610cb8565b6000918252602082815260408084206001600160a01b0393909316845291905290205460ff1690565b6000806003836040516112e3919061285f565b908152602001604051809103902054119050919050565b6113356040518060400160405280600881526020016763617374566f746560c01b815250858585856040516020016107bc94939291906129f7565b6000848152600a60205260409020805485146113645760405163635e873760e01b815260040160405180910390fd5b6000600982015460ff16600481111561137f5761137f61221c565b1461139d57604051637becc13f60e01b815260040160405180910390fd5b806006015442106113c15760405163370ec37160e21b815260040160405180910390fd5b6000858152600c60209081526040808320338452909152902060010154156113fc57604051637c9a1cf960e01b815260040160405180910390fd5b6006546040516370a0823160e01b815233600482015284916001600160a01b0316906370a0823190602401602060405180830381865afa158015611444573d6000803e3d6000fd5b505050506040513d601f19601f820116820180604052508101906114689190612a28565b10156114875760405163cabeb65560e01b815260040160405180910390fd5b6006546040516323b872dd60e01b8152336004820152306024820152604481018590526001600160a01b03909116906323b872dd906064016020604051808303816000875af11580156114de573d6000803e3d6000fd5b505050506040513d601f19601f820116820180604052508101906115029190612a41565b50336000908152600d60205260408120805485929061152290849061279d565b9091555050604080516060810182528515158152602080820186815282840186815260008a8152600c8452858120338252909352939091208251815460ff191690151517815590516001820155915190919060028201906115839082612917565b5090505083156115ac57828160070160008282546115a1919061279d565b909155506115c69050565b828160080160008282546115c0919061279d565b90915550505b336001600160a01b0316857f63453ebf8e1aa432b8d77257d489f75c1a106cdbd568c0e0c63547d20fc91fa886868660405161160493929190612719565b60405180910390a35050505050565b61161b61217e565b6000828152600a602052604090205482146116715760405162461bcd60e51b8152602060048201526016602482015275141c9bdc1bdcd85b08191bd95cdb89dd08195e1a5cdd60521b604482015260640161087e565b6000828152600a602090815260409182902082516101808101909352805483526001810154909183019060ff1660028111156116af576116af61221c565b60028111156116c0576116c061221c565b8152600182015461010090046001600160a01b031660208201526002820180546040909201916116ef9061274d565b80601f016020809104026020016040519081016040528092919081815260200182805461171b9061274d565b80156117685780601f1061173d57610100808354040283529160200191611768565b820191906000526020600020905b81548152906001019060200180831161174b57829003601f168201915b505050918352505060038201546001600160a01b031660208201526004820180546040909201916117989061274d565b80601f01602080910402602001604051908101604052809291908181526020018280546117c49061274d565b80156118115780601f106117e657610100808354040283529160200191611811565b820191906000526020600020905b8154815290600101906020018083116117f457829003601f168201915b505050918352505060058201546020820152600682015460408201526007820154606082015260088201546080820152600982015460a09091019060ff1660048111156118605761186061221c565b60048111156118715761187161221c565b815260099190910154610100900460ff16151560209091015292915050565b600c60209081526000928352604080842090915290825290208054600182015460028301805460ff9093169391926118c79061274d565b80601f01602080910402602001604051908101604052809291908181526020018280546118f39061274d565b80156119405780601f1061191557610100808354040283529160200191611940565b820191906000526020600020905b81548152906001019060200180831161192357829003601f168201915b5050505050905083565b60008281526020819052604090206001015461196581612037565b610bd183836120d6565b600061197a81612037565b600180546001600160a81b0319169055600060028190556040517f47f78a7a0acc7fff3657157dc253c5e6a68550995cc6f47bc2bd707ec67370fb9190a150565b8051602081830181018051600482529282019190930120915280546119df9061274d565b80601f0160208091040260200160405190810160405280929190818152602001828054611a0b9061274d565b8015611a585780601f10611a2d57610100808354040283529160200191611a58565b820191906000526020600020905b815481529060010190602001808311611a3b57829003601f168201915b505050505081565b600080516020612a8b833981519152611a7881612037565b611ab56040518060400160405280600e81526020016d18d85b98d95b141c9bdc1bdcd85b60921b815250836040516020016107bc91815260200190565b6000828152600a6020526040902080548314611ae45760405163635e873760e01b815260040160405180910390fd5b6000600982015460ff166004811115611aff57611aff61221c565b14611b1d57604051637becc13f60e01b815260040160405180910390fd5b6009810154610100900460ff1615611b6a5760405162461bcd60e51b815260206004820152601060248201526f105b1c9958591e48195e1958dd5d195960821b604482015260640161087e565b60098101805460ff1916600117905560405183907f789cf55be980739dad1d0699b93b58e806b51c9d96619bfa8fe0a28abaa7b30c90600090a2505050565b600080516020612a8b833981519152611bc181612037565b611c02604051806040016040528060128152602001711d5c19185d19559bdd1a5b99d4195c9a5bd960721b815250836040516020016107bc91815260200190565b60008211611c4a5760405162461bcd60e51b8152602060048201526015602482015274125b9d985b1a59081d9bdd1a5b99c81c195c9a5bd9605a1b604482015260640161087e565b600880549083905560408051828152602081018590527fffc708f072ca56e3d45ef0cb288b96cb9378f5f63e1646868bfbc9c38f4263a19101610cb8565b611ccb604051806040016040528060148152602001737265747269657665566f74696e67546f6b656e7360601b815250826040516020016107bc91815260200190565b6000818152600a6020526040902080548214611cfa5760405163635e873760e01b815260040160405180910390fd5b8060060154421015611d445760405162461bcd60e51b8152602060048201526013602482015272566f74696e67207374696c6c2061637469766560681b604482015260640161087e565b6000828152600c6020908152604080832033845282528083208151606081018352815460ff16151581526001820154938101939093526002810180549192840191611d8e9061274d565b80601f0160208091040260200160405190810160405280929190818152602001828054611dba9061274d565b8015611e075780601f10611ddc57610100808354040283529160200191611e07565b820191906000526020600020905b815481529060010190602001808311611dea57829003601f168201915b50505050508152505090506000816020015111611e5d5760405162461bcd60e51b81526020600482015260146024820152734e6f20766f74657320746f20726574726965766560601b604482015260640161087e565b6020808201516000858152600c835260408082203383528452808220600101829055600d909352918220805491928392611e98908490612a5e565b909155505060065460405163a9059cbb60e01b8152336004820152602481018390526001600160a01b039091169063a9059cbb906044016020604051808303816000875af1158015611eee573d6000803e3d6000fd5b505050506040513d601f19601f82011682018060405250810190611f129190612a41565b5050505050565b600382604051611f29919061285f565b9081526040519081900360200190208054906000611f4683612a71565b919050555080600483604051611f5c919061285f565b90815260200160405180910390209081611f769190612917565b5033600583604051611f88919061285f565b90815260405160209181900391909101902080546001600160a01b0319166001600160a01b039290921691909117905560018054610100600160a81b031916610100330217905560028054906000611fdf83612a71565b90915550506040513390611ff490849061285f565b60405180910390207f16b892c3de2f4b54dc114eff5c76ead156bac210353ee82615752957e1317df18360405161202b919061273a565b60405180910390a35050565b6120418133612141565b50565b600061205083836112a7565b6120ce576000838152602081815260408083206001600160a01b03861684529091529020805460ff191660011790556120863390565b6001600160a01b0316826001600160a01b0316847f2f8788117e7eff1d82e926ec794901d17c78024a50270940304540a733656f0d60405160405180910390a4506001610778565b506000610778565b60006120e283836112a7565b156120ce576000838152602081815260408083206001600160a01b0386168085529252808320805460ff1916905551339286917ff6391f5c32d9c69d2a47ea670b442974b53935d1edc7fd64eb21e047a839171b9190a4506001610778565b61214b82826112a7565b61217a5760405163e2517d3f60e01b81526001600160a01b03821660048201526024810183905260440161087e565b5050565b60408051610180810190915260008082526020820190815260200160006001600160a01b031681526020016060815260200160006001600160a01b031681526020016060815260200160008152602001600081526020016000815260200160008152602001600060048111156121f6576121f661221c565b8152600060209091015290565b60006020828403121561221557600080fd5b5035919050565b634e487b7160e01b600052602160045260246000fd5b600381106122425761224261221c565b9052565b60005b83811015612261578181015183820152602001612249565b50506000910152565b60008151808452612282816020860160208601612246565b601f01601f19169290920160200192915050565b600581106122425761224261221c565b60006101808e83526122bb602084018f612232565b6001600160a01b038d81166040850152606084018290526122de8285018e61226a565b908c16608085015283810360a085015290506122fa818b61226a565b9150508760c08301528660e08301528561010083015284610120830152612325610140830185612296565b8215156101608301529d9c50505050505050505050505050565b60006020828403121561235157600080fd5b81356001600160e01b03198116811461236957600080fd5b9392505050565b634e487b7160e01b600052604160045260246000fd5b600067ffffffffffffffff808411156123a1576123a1612370565b604051601f8501601f19908116603f011681019082821181831017156123c9576123c9612370565b816040528093508581528686860111156123e257600080fd5b858560208301376000602087830101525050509392505050565b600082601f83011261240d57600080fd5b61236983833560208501612386565b60006020828403121561242e57600080fd5b813567ffffffffffffffff81111561244557600080fd5b612451848285016123fc565b949350505050565b80356001600160a01b038116811461247057600080fd5b919050565b6000806040838503121561248857600080fd5b8235915061249860208401612459565b90509250929050565b602081528151151560208201526020820151604082015260006040830151606080840152612451608084018261226a565b8381526001600160a01b03831660208201526060604082018190526000906124fc9083018461226a565b95945050505050565b6000806000806080858703121561251b57600080fd5b84356003811061252a57600080fd5b9350602085013567ffffffffffffffff8082111561254757600080fd5b612553888389016123fc565b945061256160408801612459565b9350606087013591508082111561257757600080fd5b508501601f8101871361258957600080fd5b61259887823560208401612386565b91505092959194509250565b602081016107788284612296565b6000602082840312156125c457600080fd5b61236982612459565b801515811461204157600080fd5b600080600080608085870312156125f157600080fd5b843593506020850135612603816125cd565b925060408501359150606085013567ffffffffffffffff81111561262657600080fd5b612598878288016123fc565b6020815281516020820152600060208301516126516040840182612232565b5060408301516001600160a01b03811660608401525060608301516101808060808501526126836101a085018361226a565b9150608085015161269f60a08601826001600160a01b03169052565b5060a0850151848303601f190160c08601526126bb838261226a565b60c087015160e087810191909152870151610100808801919091528701516101208088019190915287015161014080880191909152870151909350905061016061270781870183612296565b90950151151593019290925250919050565b83151581528260208201526060604082015260006124fc606083018461226a565b602081526000612369602083018461226a565b600181811c9082168061276157607f821691505b60208210810361278157634e487b7160e01b600052602260045260246000fd5b50919050565b634e487b7160e01b600052601160045260246000fd5b8082018082111561077857610778612787565b808202811582820484141761077857610778612787565b6000826127e457634e487b7160e01b600052601260045260246000fd5b500490565b60008083546127f78161274d565b6001828116801561280f576001811461282457612853565b60ff1984168752821515830287019450612853565b8760005260208060002060005b8581101561284a5781548a820152908401908201612831565b50505082870194505b50929695505050505050565b60008251612871818460208701612246565b9190910192915050565b6128858186612232565b60806020820152600061289b608083018661226a565b6001600160a01b038516604084015282810360608401526128bc818561226a565b979650505050505050565b601f821115610cf8576000816000526020600020601f850160051c810160208610156128f05750805b601f850160051c820191505b8181101561290f578281556001016128fc565b505050505050565b815167ffffffffffffffff81111561293157612931612370565b6129458161293f845461274d565b846128c7565b602080601f83116001811461297a57600084156129625750858301515b600019600386901b1c1916600185901b17855561290f565b600085815260208120601f198616915b828110156129a95788860151825594840194600190910190840161298a565b50858210156129c75787850151600019600388901b60f8161c191681555b5050505050600190811b01905550565b6129e18184612232565b604060208201526000612451604083018461226a565b8481528315156020820152826040820152608060608201526000612a1e608083018461226a565b9695505050505050565b600060208284031215612a3a57600080fd5b5051919050565b600060208284031215612a5357600080fd5b8151612369816125cd565b8181038181111561077857610778612787565b600060018201612a8357612a83612787565b506001019056fe71840dc4906352362b0cdaf79870196c8e42acafade72d5d5a6d59291253ceb1a264697066735822122038fbfdf8db783deec23e3543d113af1fe5ee6e8ef315a79de768cfc662fa2a9f64736f6c63430008180033",
  "linkReferences": {},
  "deployedLinkReferences": {}
}