{
  "_format": "hh-sol-artifact-1",
  "contractName": "MockDAIToken",
  "sourceName": "contracts/mocks/MockDAIToken.sol",
  "abi": [
    {
      "inputs": [
        {
          "internalType": "string",
          "name": "name",
          "type": "string"
        },
        {
          "internalType": "string",
          "name": "symbol",
          "type": "string"
        },
        {
          "internalType": "uint256",
          "name": "initialSupply",
          "type": "uint256"
        },
        {
          "internalType": "uint8",
          "name": "decimalsValue",
          "type": "uint8"
        }
      ],
      "stateMutability": "nonpayable",
      "type": "constructor"
    },
    {
      "inputs": [],
      "name": "AccessControlBadConfirmation",
      "type": "error"
    },
    {
      "inputs": [
        {
          "internalType": "address",
          "name": "account",
          "type": "address"
        },
        {
          "internalType": "bytes32",
          "name": "neededRole",
          "type": "bytes32"
        }
      ],
      "name": "AccessControlUnauthorizedAccount",
      "type": "error"
    },
    {
      "inputs": [
        {
          "internalType": "address",
          "name": "spender",
          "type": "address"
        },
        {
          "internalType": "uint256",
          "name": "allowance",
          "type": "uint256"
        },
        {
          "internalType": "uint256",
          "name": "needed",
          "type": "uint256"
        }
      ],
      "name": "ERC20InsufficientAllowance",
      "type": "error"
    },
    {
      "inputs": [
        {
          "internalType": "address",
          "name": "sender",
          "type": "address"
        },
        {
          "internalType": "uint256",
          "name": "balance",
          "type": "uint256"
        },
        {
          "internalType": "uint256",
          "name": "needed",
          "type": "uint256"
        }
      ],
      "name": "ERC20InsufficientBalance",
      "type": "error"
    },
    {
      "inputs": [
        {
          "internalType": "address",
          "name": "approver",
          "type": "address"
        }
      ],
      "name": "ERC20InvalidApprover",
      "type": "error"
    },
    {
      "inputs": [
        {
          "internalType": "address",
          "name": "receiver",
          "type": "address"
        }
      ],
      "name": "ERC20InvalidReceiver",
      "type": "error"
    },
    {
      "inputs": [
        {
          "internalType": "address",
          "name": "sender",
          "type": "address"
        }
      ],
      "name": "ERC20InvalidSender",
      "type": "error"
    },
    {
      "inputs": [
        {
          "internalType": "address",
          "name": "spender",
          "type": "address"
        }
      ],
      "name": "ERC20InvalidSpender",
      "type": "error"
    },
    {
      "inputs": [
        {
          "internalType": "address",
          "name": "owner",
          "type": "address"
        }
      ],
      "name": "OwnableInvalidOwner",
      "type": "error"
    },
    {
      "inputs": [
        {
          "internalType": "address",
          "name": "account",
          "type": "address"
        }
      ],
      "name": "OwnableUnauthorizedAccount",
      "type": "error"
    },
    {
      "anonymous": false,
      "inputs": [
        {
          "indexed": true,
          "internalType": "address",
          "name": "owner",
          "type": "address"
        },
        {
          "indexed": true,
          "internalType": "address",
          "name": "spender",
          "type": "address"
        },
        {
          "indexed": false,
          "internalType": "uint256",
          "name": "value",
          "type": "uint256"
        }
      ],
      "name": "Approval",
      "type": "event"
    },
    {
      "anonymous": false,
      "inputs": [
        {
          "indexed": true,
          "internalType": "string",
          "name": "functionName",
          "type": "string"
        },
        {
          "indexed": true,
          "internalType": "address",
          "name": "caller",
          "type": "address"
        },
        {
          "indexed": false,
          "internalType": "bytes",
          "name": "data",
          "type": "bytes"
        }
      ],
      "name": "MockFunctionCalled",
      "type": "event"
    },
    {
      "anonymous": false,
      "inputs": [
        {
          "indexed": true,
          "internalType": "address",
          "name": "caller",
          "type": "address"
        }
      ],
      "name": "MockInitialized",
      "type": "event"
    },
    {
      "anonymous": false,
      "inputs": [],
      "name": "MockStateReset",
      "type": "event"
    },
    {
      "anonymous": false,
      "inputs": [
        {
          "indexed": true,
          "internalType": "address",
          "name": "previousOwner",
          "type": "address"
        },
        {
          "indexed": true,
          "internalType": "address",
          "name": "newOwner",
          "type": "address"
        }
      ],
      "name": "OwnershipTransferred",
      "type": "event"
    },
    {
      "anonymous": false,
      "inputs": [
        {
          "indexed": true,
          "internalType": "bytes32",
          "name": "role",
          "type": "bytes32"
        },
        {
          "indexed": true,
          "internalType": "bytes32",
          "name": "previousAdminRole",
          "type": "bytes32"
        },
        {
          "indexed": true,
          "internalType": "bytes32",
          "name": "newAdminRole",
          "type": "bytes32"
        }
      ],
      "name": "RoleAdminChanged",
      "type": "event"
    },
    {
      "anonymous": false,
      "inputs": [
        {
          "indexed": true,
          "internalType": "bytes32",
          "name": "role",
          "type": "bytes32"
        },
        {
          "indexed": true,
          "internalType": "address",
          "name": "account",
          "type": "address"
        },
        {
          "indexed": true,
          "internalType": "address",
          "name": "sender",
          "type": "address"
        }
      ],
      "name": "RoleGranted",
      "type": "event"
    },
    {
      "anonymous": false,
      "inputs": [
        {
          "indexed": true,
          "internalType": "bytes32",
          "name": "role",
          "type": "bytes32"
        },
        {
          "indexed": true,
          "internalType": "address",
          "name": "account",
          "type": "address"
        },
        {
          "indexed": true,
          "internalType": "address",
          "name": "sender",
          "type": "address"
        }
      ],
      "name": "RoleRevoked",
      "type": "event"
    },
    {
      "anonymous": false,
      "inputs": [
        {
          "indexed": true,
          "internalType": "address",
          "name": "from",
          "type": "address"
        },
        {
          "indexed": false,
          "internalType": "uint256",
          "name": "amount",
          "type": "uint256"
        }
      ],
      "name": "TokensBurned",
      "type": "event"
    },
    {
      "anonymous": false,
      "inputs": [
        {
          "indexed": true,
          "internalType": "address",
          "name": "to",
          "type": "address"
        },
        {
          "indexed": false,
          "internalType": "uint256",
          "name": "amount",
          "type": "uint256"
        }
      ],
      "name": "TokensMinted",
      "type": "event"
    },
    {
      "anonymous": false,
      "inputs": [
        {
          "indexed": true,
          "internalType": "address",
          "name": "from",
          "type": "address"
        },
        {
          "indexed": true,
          "internalType": "address",
          "name": "to",
          "type": "address"
        },
        {
          "indexed": false,
          "internalType": "uint256",
          "name": "value",
          "type": "uint256"
        }
      ],
      "name": "Transfer",
      "type": "event"
    },
    {
      "inputs": [],
      "name": "DEFAULT_ADMIN_ROLE",
      "outputs": [
        {
          "internalType": "bytes32",
          "name": "",
          "type": "bytes32"
        }
      ],
      "stateMutability": "view",
      "type": "function"
    },
    {
      "inputs": [
        {
          "internalType": "address",
          "name": "owner",
          "type": "address"
        },
        {
          "internalType": "address",
          "name": "spender",
          "type": "address"
        }
      ],
      "name": "allowance",
      "outputs": [
        {
          "internalType": "uint256",
          "name": "",
          "type": "uint256"
        }
      ],
      "stateMutability": "view",
      "type": "function"
    },
    {
      "inputs": [
        {
          "internalType": "address",
          "name": "spender",
          "type": "address"
        },
        {
          "internalType": "uint256",
          "name": "value",
          "type": "uint256"
        }
      ],
      "name": "approve",
      "outputs": [
        {
          "internalType": "bool",
          "name": "",
          "type": "bool"
        }
      ],
      "stateMutability": "nonpayable",
      "type": "function"
    },
    {
      "inputs": [
        {
          "internalType": "address",
          "name": "account",
          "type": "address"
        }
      ],
      "name": "balanceOf",
      "outputs": [
        {
          "internalType": "uint256",
          "name": "",
          "type": "uint256"
        }
      ],
      "stateMutability": "view",
      "type": "function"
    },
    {
      "inputs": [
        {
          "internalType": "address",
          "name": "from",
          "type": "address"
        },
        {
          "internalType": "uint256",
          "name": "amount",
          "type": "uint256"
        }
      ],
      "name": "burn",
      "outputs": [],
      "stateMutability": "nonpayable",
      "type": "function"
    },
    {
      "inputs": [],
      "name": "callCount",
      "outputs": [
        {
          "internalType": "uint256",
          "name": "",
          "type": "uint256"
        }
      ],
      "stateMutability": "view",
      "type": "function"
    },
    {
      "inputs": [],
      "name": "decimals",
      "outputs": [
        {
          "internalType": "uint8",
          "name": "",
          "type": "uint8"
        }
      ],
      "stateMutability": "view",
      "type": "function"
    },
    {
      "inputs": [
        {
          "internalType": "string",
          "name": "",
          "type": "string"
        }
      ],
      "name": "functionCallCount",
      "outputs": [
        {
          "internalType": "uint256",
          "name": "",
          "type": "uint256"
        }
      ],
      "stateMutability": "view",
      "type": "function"
    },
    {
      "inputs": [
        {
          "internalType": "string",
          "name": "functionName",
          "type": "string"
        }
      ],
      "name": "getFunctionCallCount",
      "outputs": [
        {
          "internalType": "uint256",
          "name": "",
          "type": "uint256"
        }
      ],
      "stateMutability": "view",
      "type": "function"
    },
    {
      "inputs": [
        {
          "internalType": "string",
          "name": "functionName",
          "type": "string"
        }
      ],
      "name": "getFunctionCallHistory",
      "outputs": [
        {
          "internalType": "uint256",
          "name": "count",
          "type": "uint256"
        },
        {
          "internalType": "address",
          "name": "lastCaller_",
          "type": "address"
        },
        {
          "internalType": "bytes",
          "name": "lastData",
          "type": "bytes"
        }
      ],
      "stateMutability": "view",
      "type": "function"
    },
    {
      "inputs": [
        {
          "internalType": "bytes32",
          "name": "role",
          "type": "bytes32"
        }
      ],
      "name": "getRoleAdmin",
      "outputs": [
        {
          "internalType": "bytes32",
          "name": "",
          "type": "bytes32"
        }
      ],
      "stateMutability": "view",
      "type": "function"
    },
    {
      "inputs": [
        {
          "internalType": "bytes32",
          "name": "role",
          "type": "bytes32"
        },
        {
          "internalType": "address",
          "name": "account",
          "type": "address"
        }
      ],
      "name": "grantRole",
      "outputs": [],
      "stateMutability": "nonpayable",
      "type": "function"
    },
    {
      "inputs": [
        {
          "internalType": "bytes32",
          "name": "role",
          "type": "bytes32"
        },
        {
          "internalType": "address",
          "name": "account",
          "type": "address"
        }
      ],
      "name": "hasRole",
      "outputs": [
        {
          "internalType": "bool",
          "name": "",
          "type": "bool"
        }
      ],
      "stateMutability": "view",
      "type": "function"
    },
    {
      "inputs": [],
      "name": "initialize",
      "outputs": [],
      "stateMutability": "nonpayable",
      "type": "function"
    },
    {
      "inputs": [],
      "name": "initialized",
      "outputs": [
        {
          "internalType": "bool",
          "name": "",
          "type": "bool"
        }
      ],
      "stateMutability": "view",
      "type": "function"
    },
    {
      "inputs": [
        {
          "internalType": "string",
          "name": "",
          "type": "string"
        }
      ],
      "name": "lastCallData",
      "outputs": [
        {
          "internalType": "bytes",
          "name": "",
          "type": "bytes"
        }
      ],
      "stateMutability": "view",
      "type": "function"
    },
    {
      "inputs": [],
      "name": "lastCaller",
      "outputs": [
        {
          "internalType": "address",
          "name": "",
          "type": "address"
        }
      ],
      "stateMutability": "view",
      "type": "function"
    },
    {
      "inputs": [
        {
          "internalType": "string",
          "name": "",
          "type": "string"
        }
      ],
      "name": "lastCallerByFunction",
      "outputs": [
        {
          "internalType": "address",
          "name": "",
          "type": "address"
        }
      ],
      "stateMutability": "view",
      "type": "function"
    },
    {
      "inputs": [
        {
          "internalType": "address",
          "name": "to",
          "type": "address"
        },
        {
          "internalType": "uint256",
          "name": "amount",
          "type": "uint256"
        }
      ],
      "name": "mint",
      "outputs": [],
      "stateMutability": "nonpayable",
      "type": "function"
    },
    {
      "inputs": [],
      "name": "name",
      "outputs": [
        {
          "internalType": "string",
          "name": "",
          "type": "string"
        }
      ],
      "stateMutability": "view",
      "type": "function"
    },
    {
      "inputs": [],
      "name": "owner",
      "outputs": [
        {
          "internalType": "address",
          "name": "",
          "type": "address"
        }
      ],
      "stateMutability": "view",
      "type": "function"
    },
    {
      "inputs": [],
      "name": "renounceOwnership",
      "outputs": [],
      "stateMutability": "nonpayable",
      "type": "function"
    },
    {
      "inputs": [
        {
          "internalType": "bytes32",
          "name": "role",
          "type": "bytes32"
        },
        {
          "internalType": "address",
          "name": "callerConfirmation",
          "type": "address"
        }
      ],
      "name": "renounceRole",
      "outputs": [],
      "stateMutability": "nonpayable",
      "type": "function"
    },
    {
      "inputs": [],
      "name": "reset",
      "outputs": [],
      "stateMutability": "nonpayable",
      "type": "function"
    },
    {
      "inputs": [
        {
          "internalType": "bytes32",
          "name": "role",
          "type": "bytes32"
        },
        {
          "internalType": "address",
          "name": "account",
          "type": "address"
        }
      ],
      "name": "revokeRole",
      "outputs": [],
      "stateMutability": "nonpayable",
      "type": "function"
    },
    {
      "inputs": [
        {
          "internalType": "bytes4",
          "name": "interfaceId",
          "type": "bytes4"
        }
      ],
      "name": "supportsInterface",
      "outputs": [
        {
          "internalType": "bool",
          "name": "",
          "type": "bool"
        }
      ],
      "stateMutability": "view",
      "type": "function"
    },
    {
      "inputs": [],
      "name": "symbol",
      "outputs": [
        {
          "internalType": "string",
          "name": "",
          "type": "string"
        }
      ],
      "stateMutability": "view",
      "type": "function"
    },
    {
      "inputs": [],
      "name": "totalSupply",
      "outputs": [
        {
          "internalType": "uint256",
          "name": "",
          "type": "uint256"
        }
      ],
      "stateMutability": "view",
      "type": "function"
    },
    {
      "inputs": [
        {
          "internalType": "address",
          "name": "to",
          "type": "address"
        },
        {
          "internalType": "uint256",
          "name": "value",
          "type": "uint256"
        }
      ],
      "name": "transfer",
      "outputs": [
        {
          "internalType": "bool",
          "name": "",
          "type": "bool"
        }
      ],
      "stateMutability": "nonpayable",
      "type": "function"
    },
    {
      "inputs": [
        {
          "internalType": "address",
          "name": "from",
          "type": "address"
        },
        {
          "internalType": "address",
          "name": "to",
          "type": "address"
        },
        {
          "internalType": "uint256",
          "name": "value",
          "type": "uint256"
        }
      ],
      "name": "transferFrom",
      "outputs": [
        {
          "internalType": "bool",
          "name": "",
          "type": "bool"
        }
      ],
      "stateMutability": "nonpayable",
      "type": "function"
    },
    {
      "inputs": [
        {
          "internalType": "address",
          "name": "newOwner",
          "type": "address"
        }
      ],
      "name": "transferOwnership",
      "outputs": [],
      "stateMutability": "nonpayable",
      "type": "function"
    },
    {
      "inputs": [
        {
          "internalType": "string",
          "name": "functionName",
          "type": "string"
        }
      ],
      "name": "wasFunctionCalled",
      "outputs": [
        {
          "internalType": "bool",
          "name": "",
          "type": "bool"
        }
      ],
      "stateMutability": "view",
      "type": "function"
    }
  ],
  "bytecode": "0x60806040523480156200001157600080fd5b5060405162001beb38038062001beb833981016040819052620000349162000404565b338484600362000045838262000522565b50600462000054828262000522565b5050506001600160a01b0381166200008757604051631e4fbdf760e01b8152600060048201526024015b60405180910390fd5b6200009281620000c6565b50620000a060003362000118565b50600c805460ff191660ff8316179055620000bc3383620001cb565b5050505062000610565b600580546001600160a01b038381166001600160a01b0319831681179093556040519116919082907f8be0079c531659141344cd1fd0a4f28419497f9722a3daafe3b4186f6b6457e090600090a35050565b60008281526006602090815260408083206001600160a01b038516845290915281205460ff16620001c15760008381526006602090815260408083206001600160a01b03861684529091529020805460ff19166001179055620001783390565b6001600160a01b0316826001600160a01b0316847f2f8788117e7eff1d82e926ec794901d17c78024a50270940304540a733656f0d60405160405180910390a4506001620001c5565b5060005b92915050565b6001600160a01b038216620001f75760405163ec442f0560e01b8152600060048201526024016200007e565b620002056000838362000209565b5050565b6001600160a01b038316620002385780600260008282546200022c9190620005ee565b90915550620002ac9050565b6001600160a01b038316600090815260208190526040902054818110156200028d5760405163391434e360e21b81526001600160a01b038516600482015260248101829052604481018390526064016200007e565b6001600160a01b03841660009081526020819052604090209082900390555b6001600160a01b038216620002ca57600280548290039055620002e9565b6001600160a01b03821660009081526020819052604090208054820190555b816001600160a01b0316836001600160a01b03167fddf252ad1be2c89b69c2b068fc378daa952ba7f163c4a11628f55a4df523b3ef836040516200032f91815260200190565b60405180910390a3505050565b634e487b7160e01b600052604160045260246000fd5b600082601f8301126200036457600080fd5b81516001600160401b03808211156200038157620003816200033c565b604051601f8301601f19908116603f01168101908282118183101715620003ac57620003ac6200033c565b8160405283815260209250866020858801011115620003ca57600080fd5b600091505b83821015620003ee5785820183015181830184015290820190620003cf565b6000602085830101528094505050505092915050565b600080600080608085870312156200041b57600080fd5b84516001600160401b03808211156200043357600080fd5b620004418883890162000352565b955060208701519150808211156200045857600080fd5b50620004678782880162000352565b93505060408501519150606085015160ff811681146200048657600080fd5b939692955090935050565b600181811c90821680620004a657607f821691505b602082108103620004c757634e487b7160e01b600052602260045260246000fd5b50919050565b601f8211156200051d576000816000526020600020601f850160051c81016020861015620004f85750805b601f850160051c820191505b81811015620005195782815560010162000504565b5050505b505050565b81516001600160401b038111156200053e576200053e6200033c565b62000556816200054f845462000491565b84620004cd565b602080601f8311600181146200058e5760008415620005755750858301515b600019600386901b1c1916600185901b17855562000519565b600085815260208120601f198616915b82811015620005bf578886015182559484019460019091019084016200059e565b5085821015620005de5787850151600019600388901b60f8161c191681555b5050505050600190811b01905550565b80820180821115620001c557634e487b7160e01b600052601160045260246000fd5b6115cb80620006206000396000f3fe608060405234801561001057600080fd5b50600436106101f05760003560e01c80634b28f9a21161010f578063a217fddf116100a2578063d826f88f11610071578063d826f88f14610470578063dd62ed3e14610478578063dfdbdd50146104b1578063f2fde38b146104c457600080fd5b8063a217fddf1461042f578063a9059cbb14610437578063c054c6ce1461044a578063d547741f1461045d57600080fd5b80638da5cb5b116100de5780638da5cb5b146103f057806391d148541461040157806395d89b41146104145780639dc29fac1461041c57600080fd5b80634b28f9a2146103ae57806370a08231146103b7578063715018a6146103e05780638129fc1c146103e857600080fd5b806323b872dd1161018757806336568abe1161015657806336568abe1461033b5780633ca3910c1461034e57806340c10f1914610370578063422b010b1461038357600080fd5b806323b872dd146102db578063248a9ca3146102ee5780632f2ff15d14610311578063313ce5671461032657600080fd5b806318160ddd116101c357806318160ddd146102525780631a82a643146102645780631df86bc6146102775780632113522a146102c357600080fd5b806301ffc9a7146101f557806306fdde031461021d578063095ea7b314610232578063158ef93e14610245575b600080fd5b610208610203366004611153565b6104d7565b60405190151581526020015b60405180910390f35b61022561050e565b60405161021491906111d4565b610208610240366004611203565b6105a0565b6007546102089060ff1681565b6002545b604051908152602001610214565b610256610272366004611243565b6105b8565b6102ab610285366004611243565b8051602081830181018051600b825292820191909301209152546001600160a01b031681565b6040516001600160a01b039091168152602001610214565b6007546102ab9061010090046001600160a01b031681565b6102086102e93660046112f4565b6105e0565b6102566102fc366004611330565b60009081526006602052604090206001015490565b61032461031f366004611349565b610604565b005b600c5460405160ff9091168152602001610214565b610324610349366004611349565b61062f565b61036161035c366004611243565b610667565b60405161021493929190611375565b61032461037e366004611203565b61076a565b610256610391366004611243565b805160208183018101805160098252928201919093012091525481565b61025660085481565b6102566103c53660046113a8565b6001600160a01b031660009081526020819052604090205490565b61032461081e565b610324610832565b6005546001600160a01b03166102ab565b61020861040f366004611349565b6108c4565b6102256108ef565b61032461042a366004611203565b6108fe565b610256600081565b610208610445366004611203565b610992565b610208610458366004611243565b6109a0565b61032461046b366004611349565b6109ca565b6103246109ef565b6102566104863660046113c3565b6001600160a01b03918216600090815260016020908152604080832093909416825291909152205490565b6102256104bf366004611243565b610a3b565b6103246104d23660046113a8565b610ae0565b60006001600160e01b03198216637965db0b60e01b148061050857506301ffc9a760e01b6001600160e01b03198316145b92915050565b60606003805461051d906113ed565b80601f0160208091040260200160405190810160405280929190818152602001828054610549906113ed565b80156105965780601f1061056b57610100808354040283529160200191610596565b820191906000526020600020905b81548152906001019060200180831161057957829003601f168201915b5050505050905090565b6000336105ae818585610b1e565b5060019392505050565b60006009826040516105ca9190611427565b9081526020016040518091039020549050919050565b6000336105ee858285610b2b565b6105f9858585610ba4565b506001949350505050565b60008281526006602052604090206001015461061f81610c03565b6106298383610c0d565b50505050565b6001600160a01b03811633146106585760405163334bd91960e11b815260040160405180910390fd5b6106628282610ca1565b505050565b600080606060098460405161067c9190611427565b908152602001604051809103902054600b8560405161069b9190611427565b908152604051908190036020018120546001600160a01b031690600a906106c3908890611427565b90815260200160405180910390208080546106dd906113ed565b80601f0160208091040260200160405190810160405280929190818152602001828054610709906113ed565b80156107565780601f1061072b57610100808354040283529160200191610756565b820191906000526020600020905b81548152906001019060200180831161073957829003601f168201915b505050505090509250925092509193909250565b610772610d0e565b6107cd604051806040016040528060048152602001631b5a5b9d60e21b81525083836040516020016107b99291906001600160a01b03929092168252602082015260400190565b604051602081830303815290604052610d3b565b6107d78282610e59565b816001600160a01b03167f3f2c9d57c068687834f0de942a9babb9e5acab57d516d3480a3c16ee165a42738260405161081291815260200190565b60405180910390a25050565b610826610d0e565b6108306000610e93565b565b60075460ff161561088a5760405162461bcd60e51b815260206004820152601d60248201527f426173654d6f636b3a20616c726561647920696e697469616c697a656400000060448201526064015b60405180910390fd5b6007805460ff1916600117905560405133907f30f7074e868351008998491171b433e7342f255e986fef03e5eec84f01786f0190600090a2565b60009182526006602090815260408084206001600160a01b0393909316845291905290205460ff1690565b60606004805461051d906113ed565b610906610d0e565b61094d60405180604001604052806004815260200163313ab93760e11b81525083836040516020016107b99291906001600160a01b03929092168252602082015260400190565b6109578282610ee5565b816001600160a01b03167ffd38818f5291bf0bb3a2a48aadc06ba8757865d1dabd804585338aab3009dcb68260405161081291815260200190565b6000336105ae818585610ba4565b6000806009836040516109b39190611427565b908152602001604051809103902054119050919050565b6000828152600660205260409020600101546109e581610c03565b6106298383610ca1565b60006109fa81610c03565b600780546001600160a81b0319169055600060088190556040517f47f78a7a0acc7fff3657157dc253c5e6a68550995cc6f47bc2bd707ec67370fb9190a150565b8051602081830181018051600a8252928201919093012091528054610a5f906113ed565b80601f0160208091040260200160405190810160405280929190818152602001828054610a8b906113ed565b8015610ad85780601f10610aad57610100808354040283529160200191610ad8565b820191906000526020600020905b815481529060010190602001808311610abb57829003601f168201915b505050505081565b610ae8610d0e565b6001600160a01b038116610b1257604051631e4fbdf760e01b815260006004820152602401610881565b610b1b81610e93565b50565b6106628383836001610f1b565b6001600160a01b038381166000908152600160209081526040808320938616835292905220546000198110156106295781811015610b9557604051637dc7a0d960e11b81526001600160a01b03841660048201526024810182905260448101839052606401610881565b61062984848484036000610f1b565b6001600160a01b038316610bce57604051634b637e8f60e11b815260006004820152602401610881565b6001600160a01b038216610bf85760405163ec442f0560e01b815260006004820152602401610881565b610662838383610ff0565b610b1b813361111a565b6000610c1983836108c4565b610c995760008381526006602090815260408083206001600160a01b03861684529091529020805460ff19166001179055610c513390565b6001600160a01b0316826001600160a01b0316847f2f8788117e7eff1d82e926ec794901d17c78024a50270940304540a733656f0d60405160405180910390a4506001610508565b506000610508565b6000610cad83836108c4565b15610c995760008381526006602090815260408083206001600160a01b0386168085529252808320805460ff1916905551339286917ff6391f5c32d9c69d2a47ea670b442974b53935d1edc7fd64eb21e047a839171b9190a4506001610508565b6005546001600160a01b031633146108305760405163118cdaa760e01b8152336004820152602401610881565b600982604051610d4b9190611427565b9081526040519081900360200190208054906000610d6883611459565b919050555080600a83604051610d7e9190611427565b90815260200160405180910390209081610d9891906114c2565b5033600b83604051610daa9190611427565b90815260405160209181900391909101902080546001600160a01b0319166001600160a01b039290921691909117905560078054610100600160a81b031916610100330217905560088054906000610e0183611459565b90915550506040513390610e16908490611427565b60405180910390207f16b892c3de2f4b54dc114eff5c76ead156bac210353ee82615752957e1317df183604051610e4d91906111d4565b60405180910390a35050565b6001600160a01b038216610e835760405163ec442f0560e01b815260006004820152602401610881565b610e8f60008383610ff0565b5050565b600580546001600160a01b038381166001600160a01b0319831681179093556040519116919082907f8be0079c531659141344cd1fd0a4f28419497f9722a3daafe3b4186f6b6457e090600090a35050565b6001600160a01b038216610f0f57604051634b637e8f60e11b815260006004820152602401610881565b610e8f82600083610ff0565b6001600160a01b038416610f455760405163e602df0560e01b815260006004820152602401610881565b6001600160a01b038316610f6f57604051634a1406b160e11b815260006004820152602401610881565b6001600160a01b038085166000908152600160209081526040808320938716835292905220829055801561062957826001600160a01b0316846001600160a01b03167f8c5be1e5ebec7d5bd14f71427d1e84f3dd0314c0f7b2291e5b200ac8c7c3b92584604051610fe291815260200190565b60405180910390a350505050565b6001600160a01b03831661101b5780600260008282546110109190611582565b9091555061108d9050565b6001600160a01b0383166000908152602081905260409020548181101561106e5760405163391434e360e21b81526001600160a01b03851660048201526024810182905260448101839052606401610881565b6001600160a01b03841660009081526020819052604090209082900390555b6001600160a01b0382166110a9576002805482900390556110c8565b6001600160a01b03821660009081526020819052604090208054820190555b816001600160a01b0316836001600160a01b03167fddf252ad1be2c89b69c2b068fc378daa952ba7f163c4a11628f55a4df523b3ef8360405161110d91815260200190565b60405180910390a3505050565b61112482826108c4565b610e8f5760405163e2517d3f60e01b81526001600160a01b038216600482015260248101839052604401610881565b60006020828403121561116557600080fd5b81356001600160e01b03198116811461117d57600080fd5b9392505050565b60005b8381101561119f578181015183820152602001611187565b50506000910152565b600081518084526111c0816020860160208601611184565b601f01601f19169290920160200192915050565b60208152600061117d60208301846111a8565b80356001600160a01b03811681146111fe57600080fd5b919050565b6000806040838503121561121657600080fd5b61121f836111e7565b946020939093013593505050565b634e487b7160e01b600052604160045260246000fd5b60006020828403121561125557600080fd5b813567ffffffffffffffff8082111561126d57600080fd5b818401915084601f83011261128157600080fd5b8135818111156112935761129361122d565b604051601f8201601f19908116603f011681019083821181831017156112bb576112bb61122d565b816040528281528760208487010111156112d457600080fd5b826020860160208301376000928101602001929092525095945050505050565b60008060006060848603121561130957600080fd5b611312846111e7565b9250611320602085016111e7565b9150604084013590509250925092565b60006020828403121561134257600080fd5b5035919050565b6000806040838503121561135c57600080fd5b8235915061136c602084016111e7565b90509250929050565b8381526001600160a01b038316602082015260606040820181905260009061139f908301846111a8565b95945050505050565b6000602082840312156113ba57600080fd5b61117d826111e7565b600080604083850312156113d657600080fd5b6113df836111e7565b915061136c602084016111e7565b600181811c9082168061140157607f821691505b60208210810361142157634e487b7160e01b600052602260045260246000fd5b50919050565b60008251611439818460208701611184565b9190910192915050565b634e487b7160e01b600052601160045260246000fd5b60006001820161146b5761146b611443565b5060010190565b601f821115610662576000816000526020600020601f850160051c8101602086101561149b5750805b601f850160051c820191505b818110156114ba578281556001016114a7565b505050505050565b815167ffffffffffffffff8111156114dc576114dc61122d565b6114f0816114ea84546113ed565b84611472565b602080601f831160018114611525576000841561150d5750858301515b600019600386901b1c1916600185901b1785556114ba565b600085815260208120601f198616915b8281101561155457888601518255948401946001909101908401611535565b50858210156115725787850151600019600388901b60f8161c191681555b5050505050600190811b01905550565b808201808211156105085761050861144356fea26469706673582212208b9253ac2b9b54a9201d23a235a5a705203bda293c119221f57c0651d2d2b17064736f6c63430008180033",
  "linkReferences": {},
  "deployedLinkReferences": {}
}