{
  "_format": "hh-sol-artifact-1",
  "contractName": "MockAllowanceChecker",
  "sourceName": "contracts/mocks/MockAllowanceChecker.sol",
  "abi": [
    {
      "inputs": [],
      "stateMutability": "nonpayable",
      "type": "constructor"
    },
    {
      "inputs": [],
      "name": "AccessControlBadConfirmation",
      "type": "error"
    },
    {
      "inputs": [
        {
          "internalType": "address",
          "name": "account",
          "type": "address"
        },
        {
          "internalType": "bytes32",
          "name": "neededRole",
          "type": "bytes32"
        }
      ],
      "name": "AccessControlUnauthorizedAccount",
      "type": "error"
    },
    {
      "inputs": [],
      "name": "InsufficientAllowance",
      "type": "error"
    },
    {
      "inputs": [
        {
          "internalType": "address",
          "name": "owner",
          "type": "address"
        }
      ],
      "name": "OwnableInvalidOwner",
      "type": "error"
    },
    {
      "inputs": [
        {
          "internalType": "address",
          "name": "account",
          "type": "address"
        }
      ],
      "name": "OwnableUnauthorizedAccount",
      "type": "error"
    },
    {
      "inputs": [],
      "name": "TokenTransferFailed",
      "type": "error"
    },
    {
      "anonymous": false,
      "inputs": [
        {
          "indexed": true,
          "internalType": "string",
          "name": "functionName",
          "type": "string"
        },
        {
          "indexed": true,
          "internalType": "address",
          "name": "caller",
          "type": "address"
        },
        {
          "indexed": false,
          "internalType": "bytes",
          "name": "data",
          "type": "bytes"
        }
      ],
      "name": "MockFunctionCalled",
      "type": "event"
    },
    {
      "anonymous": false,
      "inputs": [
        {
          "indexed": true,
          "internalType": "address",
          "name": "caller",
          "type": "address"
        }
      ],
      "name": "MockInitialized",
      "type": "event"
    },
    {
      "anonymous": false,
      "inputs": [],
      "name": "MockStateReset",
      "type": "event"
    },
    {
      "anonymous": false,
      "inputs": [
        {
          "indexed": false,
          "internalType": "address",
          "name": "token",
          "type": "address"
        },
        {
          "indexed": false,
          "internalType": "address",
          "name": "from",
          "type": "address"
        },
        {
          "indexed": false,
          "internalType": "address",
          "name": "to",
          "type": "address"
        },
        {
          "indexed": false,
          "internalType": "uint256",
          "name": "amount",
          "type": "uint256"
        },
        {
          "indexed": false,
          "internalType": "uint256",
          "name": "operationId",
          "type": "uint256"
        }
      ],
      "name": "OperationPerformed",
      "type": "event"
    },
    {
      "anonymous": false,
      "inputs": [
        {
          "indexed": true,
          "internalType": "address",
          "name": "previousOwner",
          "type": "address"
        },
        {
          "indexed": true,
          "internalType": "address",
          "name": "newOwner",
          "type": "address"
        }
      ],
      "name": "OwnershipTransferred",
      "type": "event"
    },
    {
      "anonymous": false,
      "inputs": [
        {
          "indexed": true,
          "internalType": "bytes32",
          "name": "role",
          "type": "bytes32"
        },
        {
          "indexed": true,
          "internalType": "bytes32",
          "name": "previousAdminRole",
          "type": "bytes32"
        },
        {
          "indexed": true,
          "internalType": "bytes32",
          "name": "newAdminRole",
          "type": "bytes32"
        }
      ],
      "name": "RoleAdminChanged",
      "type": "event"
    },
    {
      "anonymous": false,
      "inputs": [
        {
          "indexed": true,
          "internalType": "bytes32",
          "name": "role",
          "type": "bytes32"
        },
        {
          "indexed": true,
          "internalType": "address",
          "name": "account",
          "type": "address"
        },
        {
          "indexed": true,
          "internalType": "address",
          "name": "sender",
          "type": "address"
        }
      ],
      "name": "RoleGranted",
      "type": "event"
    },
    {
      "anonymous": false,
      "inputs": [
        {
          "indexed": true,
          "internalType": "bytes32",
          "name": "role",
          "type": "bytes32"
        },
        {
          "indexed": true,
          "internalType": "address",
          "name": "account",
          "type": "address"
        },
        {
          "indexed": true,
          "internalType": "address",
          "name": "sender",
          "type": "address"
        }
      ],
      "name": "RoleRevoked",
      "type": "event"
    },
    {
      "inputs": [],
      "name": "DEFAULT_ADMIN_ROLE",
      "outputs": [
        {
          "internalType": "bytes32",
          "name": "",
          "type": "bytes32"
        }
      ],
      "stateMutability": "view",
      "type": "function"
    },
    {
      "inputs": [],
      "name": "callCount",
      "outputs": [
        {
          "internalType": "uint256",
          "name": "",
          "type": "uint256"
        }
      ],
      "stateMutability": "view",
      "type": "function"
    },
    {
      "inputs": [
        {
          "internalType": "string",
          "name": "",
          "type": "string"
        }
      ],
      "name": "functionCallCount",
      "outputs": [
        {
          "internalType": "uint256",
          "name": "",
          "type": "uint256"
        }
      ],
      "stateMutability": "view",
      "type": "function"
    },
    {
      "inputs": [
        {
          "internalType": "string",
          "name": "functionName",
          "type": "string"
        }
      ],
      "name": "getFunctionCallCount",
      "outputs": [
        {
          "internalType": "uint256",
          "name": "",
          "type": "uint256"
        }
      ],
      "stateMutability": "view",
      "type": "function"
    },
    {
      "inputs": [
        {
          "internalType": "string",
          "name": "functionName",
          "type": "string"
        }
      ],
      "name": "getFunctionCallHistory",
      "outputs": [
        {
          "internalType": "uint256",
          "name": "count",
          "type": "uint256"
        },
        {
          "internalType": "address",
          "name": "lastCaller_",
          "type": "address"
        },
        {
          "internalType": "bytes",
          "name": "lastData",
          "type": "bytes"
        }
      ],
      "stateMutability": "view",
      "type": "function"
    },
    {
      "inputs": [],
      "name": "getOperationCount",
      "outputs": [
        {
          "internalType": "uint256",
          "name": "",
          "type": "uint256"
        }
      ],
      "stateMutability": "view",
      "type": "function"
    },
    {
      "inputs": [
        {
          "internalType": "bytes32",
          "name": "role",
          "type": "bytes32"
        }
      ],
      "name": "getRoleAdmin",
      "outputs": [
        {
          "internalType": "bytes32",
          "name": "",
          "type": "bytes32"
        }
      ],
      "stateMutability": "view",
      "type": "function"
    },
    {
      "inputs": [
        {
          "internalType": "bytes32",
          "name": "role",
          "type": "bytes32"
        },
        {
          "internalType": "address",
          "name": "account",
          "type": "address"
        }
      ],
      "name": "grantRole",
      "outputs": [],
      "stateMutability": "nonpayable",
      "type": "function"
    },
    {
      "inputs": [
        {
          "internalType": "bytes32",
          "name": "role",
          "type": "bytes32"
        },
        {
          "internalType": "address",
          "name": "account",
          "type": "address"
        }
      ],
      "name": "hasRole",
      "outputs": [
        {
          "internalType": "bool",
          "name": "",
          "type": "bool"
        }
      ],
      "stateMutability": "view",
      "type": "function"
    },
    {
      "inputs": [],
      "name": "initialize",
      "outputs": [],
      "stateMutability": "nonpayable",
      "type": "function"
    },
    {
      "inputs": [],
      "name": "initialized",
      "outputs": [
        {
          "internalType": "bool",
          "name": "",
          "type": "bool"
        }
      ],
      "stateMutability": "view",
      "type": "function"
    },
    {
      "inputs": [
        {
          "internalType": "string",
          "name": "",
          "type": "string"
        }
      ],
      "name": "lastCallData",
      "outputs": [
        {
          "internalType": "bytes",
          "name": "",
          "type": "bytes"
        }
      ],
      "stateMutability": "view",
      "type": "function"
    },
    {
      "inputs": [],
      "name": "lastCaller",
      "outputs": [
        {
          "internalType": "address",
          "name": "",
          "type": "address"
        }
      ],
      "stateMutability": "view",
      "type": "function"
    },
    {
      "inputs": [
        {
          "internalType": "string",
          "name": "",
          "type": "string"
        }
      ],
      "name": "lastCallerByFunction",
      "outputs": [
        {
          "internalType": "address",
          "name": "",
          "type": "address"
        }
      ],
      "stateMutability": "view",
      "type": "function"
    },
    {
      "inputs": [],
      "name": "owner",
      "outputs": [
        {
          "internalType": "address",
          "name": "",
          "type": "address"
        }
      ],
      "stateMutability": "view",
      "type": "function"
    },
    {
      "inputs": [
        {
          "internalType": "address",
          "name": "token",
          "type": "address"
        },
        {
          "internalType": "address",
          "name": "from",
          "type": "address"
        },
        {
          "internalType": "address",
          "name": "to",
          "type": "address"
        },
        {
          "internalType": "uint256",
          "name": "amount",
          "type": "uint256"
        }
      ],
      "name": "performOperation",
      "outputs": [
        {
          "internalType": "uint256",
          "name": "",
          "type": "uint256"
        }
      ],
      "stateMutability": "nonpayable",
      "type": "function"
    },
    {
      "inputs": [
        {
          "internalType": "address",
          "name": "token",
          "type": "address"
        },
        {
          "internalType": "address",
          "name": "to",
          "type": "address"
        },
        {
          "internalType": "uint256",
          "name": "amount",
          "type": "uint256"
        }
      ],
      "name": "recoverTokens",
      "outputs": [],
      "stateMutability": "nonpayable",
      "type": "function"
    },
    {
      "inputs": [],
      "name": "renounceOwnership",
      "outputs": [],
      "stateMutability": "nonpayable",
      "type": "function"
    },
    {
      "inputs": [
        {
          "internalType": "bytes32",
          "name": "role",
          "type": "bytes32"
        },
        {
          "internalType": "address",
          "name": "callerConfirmation",
          "type": "address"
        }
      ],
      "name": "renounceRole",
      "outputs": [],
      "stateMutability": "nonpayable",
      "type": "function"
    },
    {
      "inputs": [],
      "name": "reset",
      "outputs": [],
      "stateMutability": "nonpayable",
      "type": "function"
    },
    {
      "inputs": [
        {
          "internalType": "bytes32",
          "name": "role",
          "type": "bytes32"
        },
        {
          "internalType": "address",
          "name": "account",
          "type": "address"
        }
      ],
      "name": "revokeRole",
      "outputs": [],
      "stateMutability": "nonpayable",
      "type": "function"
    },
    {
      "inputs": [
        {
          "internalType": "bytes4",
          "name": "interfaceId",
          "type": "bytes4"
        }
      ],
      "name": "supportsInterface",
      "outputs": [
        {
          "internalType": "bool",
          "name": "",
          "type": "bool"
        }
      ],
      "stateMutability": "view",
      "type": "function"
    },
    {
      "inputs": [
        {
          "internalType": "address",
          "name": "newOwner",
          "type": "address"
        }
      ],
      "name": "transferOwnership",
      "outputs": [],
      "stateMutability": "nonpayable",
      "type": "function"
    },
    {
      "inputs": [
        {
          "internalType": "string",
          "name": "functionName",
          "type": "string"
        }
      ],
      "name": "wasFunctionCalled",
      "outputs": [
        {
          "internalType": "bool",
          "name": "",
          "type": "bool"
        }
      ],
      "stateMutability": "view",
      "type": "function"
    }
  ],
  "bytecode": "0x608060405234801561001057600080fd5b50338061003757604051631e4fbdf760e01b81526000600482015260240160405180910390fd5b61004081610057565b5061004c6000336100a7565b50600060075561013c565b600080546001600160a01b038381166001600160a01b0319831681178455604051919092169283917f8be0079c531659141344cd1fd0a4f28419497f9722a3daafe3b4186f6b6457e09190a35050565b60008281526001602090815260408083206001600160a01b038516845290915281205460ff166101325760008381526001602081815260408084206001600160a01b0387168086529252808420805460ff19169093179092559051339286917f2f8788117e7eff1d82e926ec794901d17c78024a50270940304540a733656f0d9190a4506001610136565b5060005b92915050565b6111c38061014b6000396000f3fe608060405234801561001057600080fd5b50600436106101585760003560e01c806356149adf116100c3578063a217fddf1161007c578063a217fddf1461031b578063c054c6ce14610323578063d547741f14610336578063d826f88f14610349578063dfdbdd5014610351578063f2fde38b1461037157600080fd5b806356149adf146102cc5780635f3e849f146102d4578063715018a6146102e75780638129fc1c146102ef5780638da5cb5b146102f757806391d148541461030857600080fd5b80632f2ff15d116101155780632f2ff15d1461023b57806336568abe146102505780633ca3910c14610263578063422b010b146102855780634b28f9a2146102b05780634db1c9c5146102b957600080fd5b806301ffc9a71461015d578063158ef93e146101855780631a82a643146101925780631df86bc6146101b35780632113522a146101ff578063248a9ca314610217575b600080fd5b61017061016b366004610d34565b610384565b60405190151581526020015b60405180910390f35b6002546101709060ff1681565b6101a56101a0366004610d7b565b6103bb565b60405190815260200161017c565b6101e76101c1366004610d7b565b80516020818301810180516006825292820191909301209152546001600160a01b031681565b6040516001600160a01b03909116815260200161017c565b6002546101e79061010090046001600160a01b031681565b6101a5610225366004610e2c565b6000908152600160208190526040909120015490565b61024e610249366004610e61565b6103e3565b005b61024e61025e366004610e61565b61040f565b610276610271366004610d7b565b610447565b60405161017c93929190610edd565b6101a5610293366004610d7b565b805160208183018101805160048252928201919093012091525481565b6101a560035481565b6101a56102c7366004610f10565b61054a565b6007546101a5565b61024e6102e2366004610f5b565b61077d565b61024e61081c565b61024e610830565b6000546001600160a01b03166101e7565b610170610316366004610e61565b6108c2565b6101a5600081565b610170610331366004610d7b565b6108ed565b61024e610344366004610e61565b610917565b61024e61093d565b61036461035f366004610d7b565b610989565b60405161017c9190610f97565b61024e61037f366004610faa565b610a2e565b60006001600160e01b03198216637965db0b60e01b14806103b557506301ffc9a760e01b6001600160e01b03198316145b92915050565b60006004826040516103cd9190610fc5565b9081526020016040518091039020549050919050565b600082815260016020819052604090912001546103ff81610a6c565b6104098383610a76565b50505050565b6001600160a01b03811633146104385760405163334bd91960e11b815260040160405180910390fd5b6104428282610aef565b505050565b600080606060048460405161045c9190610fc5565b90815260200160405180910390205460068560405161047b9190610fc5565b908152604051908190036020018120546001600160a01b0316906005906104a3908890610fc5565b90815260200160405180910390208080546104bd90610fe1565b80601f01602080910402602001604051908101604052809291908181526020018280546104e990610fe1565b80156105365780601f1061050b57610100808354040283529160200191610536565b820191906000526020600020905b81548152906001019060200180831161051957829003601f168201915b505050505090509250925092509193909250565b60006105c86040518060400160405280601081526020016f3832b93337b936a7b832b930ba34b7b760811b815250868686866040516020016105b494939291906001600160a01b039485168152928416602084015292166040820152606081019190915260800190565b604051602081830303815290604052610b5c565b604051636eb1769f60e11b81526001600160a01b0385811660048301523060248301526000919087169063dd62ed3e90604401602060405180830381865afa158015610618573d6000803e3d6000fd5b505050506040513d601f19601f8201168201806040525081019061063c919061101b565b90508281101561065f576040516313be252b60e01b815260040160405180910390fd5b6040516323b872dd60e01b81526001600160a01b038681166004830152858116602483015260448201859052600091908816906323b872dd906064016020604051808303816000875af11580156106ba573d6000803e3d6000fd5b505050506040513d601f19601f820116820180604052508101906106de9190611034565b9050806106fe5760405163022e258160e11b815260040160405180910390fd5b6007805490600061070e83611056565b9091555050600754604080516001600160a01b038a811682528981166020830152881681830152606081018790526080810192909252517fc62869631b223957d0623d3371c1ec877340db394af030ed243c882816b3a7739181900360a00190a1505060075495945050505050565b610785610c7a565b60405163a9059cbb60e01b81526001600160a01b038381166004830152602482018390526000919085169063a9059cbb906044016020604051808303816000875af11580156107d8573d6000803e3d6000fd5b505050506040513d601f19601f820116820180604052508101906107fc9190611034565b9050806104095760405163022e258160e11b815260040160405180910390fd5b610824610c7a565b61082e6000610ca7565b565b60025460ff16156108885760405162461bcd60e51b815260206004820152601d60248201527f426173654d6f636b3a20616c726561647920696e697469616c697a656400000060448201526064015b60405180910390fd5b6002805460ff1916600117905560405133907f30f7074e868351008998491171b433e7342f255e986fef03e5eec84f01786f0190600090a2565b60009182526001602090815260408084206001600160a01b0393909316845291905290205460ff1690565b6000806004836040516109009190610fc5565b908152602001604051809103902054119050919050565b6000828152600160208190526040909120015461093381610a6c565b6104098383610aef565b600061094881610a6c565b600280546001600160a81b0319169055600060038190556040517f47f78a7a0acc7fff3657157dc253c5e6a68550995cc6f47bc2bd707ec67370fb9190a150565b8051602081830181018051600582529282019190930120915280546109ad90610fe1565b80601f01602080910402602001604051908101604052809291908181526020018280546109d990610fe1565b8015610a265780601f106109fb57610100808354040283529160200191610a26565b820191906000526020600020905b815481529060010190602001808311610a0957829003601f168201915b505050505081565b610a36610c7a565b6001600160a01b038116610a6057604051631e4fbdf760e01b81526000600482015260240161087f565b610a6981610ca7565b50565b610a698133610cf7565b6000610a8283836108c2565b610ae75760008381526001602081815260408084206001600160a01b0387168086529252808420805460ff19169093179092559051339286917f2f8788117e7eff1d82e926ec794901d17c78024a50270940304540a733656f0d9190a45060016103b5565b5060006103b5565b6000610afb83836108c2565b15610ae75760008381526001602090815260408083206001600160a01b0386168085529252808320805460ff1916905551339286917ff6391f5c32d9c69d2a47ea670b442974b53935d1edc7fd64eb21e047a839171b9190a45060016103b5565b600482604051610b6c9190610fc5565b9081526040519081900360200190208054906000610b8983611056565b919050555080600583604051610b9f9190610fc5565b90815260200160405180910390209081610bb991906110cd565b5033600683604051610bcb9190610fc5565b90815260405160209181900391909101902080546001600160a01b0319166001600160a01b039290921691909117905560028054610100600160a81b031916610100330217905560038054906000610c2283611056565b90915550506040513390610c37908490610fc5565b60405180910390207f16b892c3de2f4b54dc114eff5c76ead156bac210353ee82615752957e1317df183604051610c6e9190610f97565b60405180910390a35050565b6000546001600160a01b0316331461082e5760405163118cdaa760e01b815233600482015260240161087f565b600080546001600160a01b038381166001600160a01b0319831681178455604051919092169283917f8be0079c531659141344cd1fd0a4f28419497f9722a3daafe3b4186f6b6457e09190a35050565b610d0182826108c2565b610d305760405163e2517d3f60e01b81526001600160a01b03821660048201526024810183905260440161087f565b5050565b600060208284031215610d4657600080fd5b81356001600160e01b031981168114610d5e57600080fd5b9392505050565b634e487b7160e01b600052604160045260246000fd5b600060208284031215610d8d57600080fd5b813567ffffffffffffffff80821115610da557600080fd5b818401915084601f830112610db957600080fd5b813581811115610dcb57610dcb610d65565b604051601f8201601f19908116603f01168101908382118183101715610df357610df3610d65565b81604052828152876020848701011115610e0c57600080fd5b826020860160208301376000928101602001929092525095945050505050565b600060208284031215610e3e57600080fd5b5035919050565b80356001600160a01b0381168114610e5c57600080fd5b919050565b60008060408385031215610e7457600080fd5b82359150610e8460208401610e45565b90509250929050565b60005b83811015610ea8578181015183820152602001610e90565b50506000910152565b60008151808452610ec9816020860160208601610e8d565b601f01601f19169290920160200192915050565b8381526001600160a01b0383166020820152606060408201819052600090610f0790830184610eb1565b95945050505050565b60008060008060808587031215610f2657600080fd5b610f2f85610e45565b9350610f3d60208601610e45565b9250610f4b60408601610e45565b9396929550929360600135925050565b600080600060608486031215610f7057600080fd5b610f7984610e45565b9250610f8760208501610e45565b9150604084013590509250925092565b602081526000610d5e6020830184610eb1565b600060208284031215610fbc57600080fd5b610d5e82610e45565b60008251610fd7818460208701610e8d565b9190910192915050565b600181811c90821680610ff557607f821691505b60208210810361101557634e487b7160e01b600052602260045260246000fd5b50919050565b60006020828403121561102d57600080fd5b5051919050565b60006020828403121561104657600080fd5b81518015158114610d5e57600080fd5b60006001820161107657634e487b7160e01b600052601160045260246000fd5b5060010190565b601f821115610442576000816000526020600020601f850160051c810160208610156110a65750805b601f850160051c820191505b818110156110c5578281556001016110b2565b505050505050565b815167ffffffffffffffff8111156110e7576110e7610d65565b6110fb816110f58454610fe1565b8461107d565b602080601f83116001811461113057600084156111185750858301515b600019600386901b1c1916600185901b1785556110c5565b600085815260208120601f198616915b8281101561115f57888601518255948401946001909101908401611140565b508582101561117d5787850151600019600388901b60f8161c191681555b5050505050600190811b0190555056fea2646970667358221220a12e0e13704989bf368f767ed8224df81e9e5393a9828fa53610c8b0766a07b164736f6c63430008180033",
  "linkReferences": {},
  "deployedLinkReferences": {}
}