{
  "_format": "hh-sol-artifact-1",
  "contractName": "MockTokenApprovalOptimizer",
  "sourceName": "contracts/mocks/MockTokenApprovalOptimizer.sol",
  "abi": [
    {
      "inputs": [],
      "stateMutability": "nonpayable",
      "type": "constructor"
    },
    {
      "inputs": [],
      "name": "AccessControlBadConfirmation",
      "type": "error"
    },
    {
      "inputs": [
        {
          "internalType": "address",
          "name": "account",
          "type": "address"
        },
        {
          "internalType": "bytes32",
          "name": "neededRole",
          "type": "bytes32"
        }
      ],
      "name": "AccessControlUnauthorizedAccount",
      "type": "error"
    },
    {
      "inputs": [],
      "name": "InvalidAmount",
      "type": "error"
    },
    {
      "inputs": [],
      "name": "InvalidArrayLength",
      "type": "error"
    },
    {
      "inputs": [],
      "name": "ZeroAddress",
      "type": "error"
    },
    {
      "anonymous": false,
      "inputs": [
        {
          "indexed": true,
          "internalType": "address",
          "name": "token",
          "type": "address"
        },
        {
          "indexed": true,
          "internalType": "address",
          "name": "spender",
          "type": "address"
        },
        {
          "indexed": false,
          "internalType": "uint256",
          "name": "subtractedValue",
          "type": "uint256"
        }
      ],
      "name": "AllowanceDecreased",
      "type": "event"
    },
    {
      "anonymous": false,
      "inputs": [
        {
          "indexed": true,
          "internalType": "address",
          "name": "token",
          "type": "address"
        },
        {
          "indexed": true,
          "internalType": "address",
          "name": "spender",
          "type": "address"
        },
        {
          "indexed": false,
          "internalType": "uint256",
          "name": "addedValue",
          "type": "uint256"
        }
      ],
      "name": "AllowanceIncreased",
      "type": "event"
    },
    {
      "anonymous": false,
      "inputs": [
        {
          "indexed": false,
          "internalType": "address[]",
          "name": "tokens",
          "type": "address[]"
        },
        {
          "indexed": true,
          "internalType": "address",
          "name": "spender",
          "type": "address"
        },
        {
          "indexed": false,
          "internalType": "uint256[]",
          "name": "amounts",
          "type": "uint256[]"
        }
      ],
      "name": "BatchApproval",
      "type": "event"
    },
    {
      "anonymous": false,
      "inputs": [
        {
          "indexed": true,
          "internalType": "string",
          "name": "functionName",
          "type": "string"
        },
        {
          "indexed": true,
          "internalType": "address",
          "name": "caller",
          "type": "address"
        },
        {
          "indexed": false,
          "internalType": "bytes",
          "name": "data",
          "type": "bytes"
        }
      ],
      "name": "MockFunctionCalled",
      "type": "event"
    },
    {
      "anonymous": false,
      "inputs": [
        {
          "indexed": true,
          "internalType": "address",
          "name": "caller",
          "type": "address"
        }
      ],
      "name": "MockInitialized",
      "type": "event"
    },
    {
      "anonymous": false,
      "inputs": [],
      "name": "MockStateReset",
      "type": "event"
    },
    {
      "anonymous": false,
      "inputs": [
        {
          "indexed": true,
          "internalType": "bytes32",
          "name": "role",
          "type": "bytes32"
        },
        {
          "indexed": true,
          "internalType": "bytes32",
          "name": "previousAdminRole",
          "type": "bytes32"
        },
        {
          "indexed": true,
          "internalType": "bytes32",
          "name": "newAdminRole",
          "type": "bytes32"
        }
      ],
      "name": "RoleAdminChanged",
      "type": "event"
    },
    {
      "anonymous": false,
      "inputs": [
        {
          "indexed": true,
          "internalType": "bytes32",
          "name": "role",
          "type": "bytes32"
        },
        {
          "indexed": true,
          "internalType": "address",
          "name": "account",
          "type": "address"
        },
        {
          "indexed": true,
          "internalType": "address",
          "name": "sender",
          "type": "address"
        }
      ],
      "name": "RoleGranted",
      "type": "event"
    },
    {
      "anonymous": false,
      "inputs": [
        {
          "indexed": true,
          "internalType": "bytes32",
          "name": "role",
          "type": "bytes32"
        },
        {
          "indexed": true,
          "internalType": "address",
          "name": "account",
          "type": "address"
        },
        {
          "indexed": true,
          "internalType": "address",
          "name": "sender",
          "type": "address"
        }
      ],
      "name": "RoleRevoked",
      "type": "event"
    },
    {
      "anonymous": false,
      "inputs": [
        {
          "indexed": true,
          "internalType": "address",
          "name": "token",
          "type": "address"
        },
        {
          "indexed": true,
          "internalType": "address",
          "name": "spender",
          "type": "address"
        },
        {
          "indexed": false,
          "internalType": "uint256",
          "name": "amount",
          "type": "uint256"
        }
      ],
      "name": "TokenApproved",
      "type": "event"
    },
    {
      "inputs": [],
      "name": "DEFAULT_ADMIN_ROLE",
      "outputs": [
        {
          "internalType": "bytes32",
          "name": "",
          "type": "bytes32"
        }
      ],
      "stateMutability": "view",
      "type": "function"
    },
    {
      "inputs": [
        {
          "internalType": "contract IERC20[]",
          "name": "tokens",
          "type": "address[]"
        },
        {
          "internalType": "address",
          "name": "spender",
          "type": "address"
        },
        {
          "internalType": "uint256[]",
          "name": "amounts",
          "type": "uint256[]"
        }
      ],
      "name": "batchApprove",
      "outputs": [
        {
          "internalType": "bool[]",
          "name": "results",
          "type": "bool[]"
        }
      ],
      "stateMutability": "nonpayable",
      "type": "function"
    },
    {
      "inputs": [],
      "name": "callCount",
      "outputs": [
        {
          "internalType": "uint256",
          "name": "",
          "type": "uint256"
        }
      ],
      "stateMutability": "view",
      "type": "function"
    },
    {
      "inputs": [
        {
          "internalType": "contract IERC20",
          "name": "token",
          "type": "address"
        },
        {
          "internalType": "address",
          "name": "spender",
          "type": "address"
        }
      ],
      "name": "clearApproval",
      "outputs": [
        {
          "internalType": "bool",
          "name": "success",
          "type": "bool"
        }
      ],
      "stateMutability": "nonpayable",
      "type": "function"
    },
    {
      "inputs": [
        {
          "internalType": "string",
          "name": "",
          "type": "string"
        }
      ],
      "name": "functionCallCount",
      "outputs": [
        {
          "internalType": "uint256",
          "name": "",
          "type": "uint256"
        }
      ],
      "stateMutability": "view",
      "type": "function"
    },
    {
      "inputs": [
        {
          "internalType": "string",
          "name": "functionName",
          "type": "string"
        }
      ],
      "name": "getFunctionCallCount",
      "outputs": [
        {
          "internalType": "uint256",
          "name": "",
          "type": "uint256"
        }
      ],
      "stateMutability": "view",
      "type": "function"
    },
    {
      "inputs": [
        {
          "internalType": "string",
          "name": "functionName",
          "type": "string"
        }
      ],
      "name": "getFunctionCallHistory",
      "outputs": [
        {
          "internalType": "uint256",
          "name": "count",
          "type": "uint256"
        },
        {
          "internalType": "address",
          "name": "lastCaller_",
          "type": "address"
        },
        {
          "internalType": "bytes",
          "name": "lastData",
          "type": "bytes"
        }
      ],
      "stateMutability": "view",
      "type": "function"
    },
    {
      "inputs": [
        {
          "internalType": "bytes32",
          "name": "role",
          "type": "bytes32"
        }
      ],
      "name": "getRoleAdmin",
      "outputs": [
        {
          "internalType": "bytes32",
          "name": "",
          "type": "bytes32"
        }
      ],
      "stateMutability": "view",
      "type": "function"
    },
    {
      "inputs": [
        {
          "internalType": "bytes32",
          "name": "role",
          "type": "bytes32"
        },
        {
          "internalType": "address",
          "name": "account",
          "type": "address"
        }
      ],
      "name": "grantRole",
      "outputs": [],
      "stateMutability": "nonpayable",
      "type": "function"
    },
    {
      "inputs": [
        {
          "internalType": "bytes32",
          "name": "role",
          "type": "bytes32"
        },
        {
          "internalType": "address",
          "name": "account",
          "type": "address"
        }
      ],
      "name": "hasRole",
      "outputs": [
        {
          "internalType": "bool",
          "name": "",
          "type": "bool"
        }
      ],
      "stateMutability": "view",
      "type": "function"
    },
    {
      "inputs": [],
      "name": "initialize",
      "outputs": [],
      "stateMutability": "nonpayable",
      "type": "function"
    },
    {
      "inputs": [],
      "name": "initialized",
      "outputs": [
        {
          "internalType": "bool",
          "name": "",
          "type": "bool"
        }
      ],
      "stateMutability": "view",
      "type": "function"
    },
    {
      "inputs": [
        {
          "internalType": "string",
          "name": "",
          "type": "string"
        }
      ],
      "name": "lastCallData",
      "outputs": [
        {
          "internalType": "bytes",
          "name": "",
          "type": "bytes"
        }
      ],
      "stateMutability": "view",
      "type": "function"
    },
    {
      "inputs": [],
      "name": "lastCaller",
      "outputs": [
        {
          "internalType": "address",
          "name": "",
          "type": "address"
        }
      ],
      "stateMutability": "view",
      "type": "function"
    },
    {
      "inputs": [
        {
          "internalType": "string",
          "name": "",
          "type": "string"
        }
      ],
      "name": "lastCallerByFunction",
      "outputs": [
        {
          "internalType": "address",
          "name": "",
          "type": "address"
        }
      ],
      "stateMutability": "view",
      "type": "function"
    },
    {
      "inputs": [
        {
          "internalType": "contract IERC20",
          "name": "token",
          "type": "address"
        },
        {
          "internalType": "address",
          "name": "spender",
          "type": "address"
        },
        {
          "internalType": "uint256",
          "name": "amount",
          "type": "uint256"
        }
      ],
      "name": "optimizeApproval",
      "outputs": [
        {
          "internalType": "bool",
          "name": "success",
          "type": "bool"
        }
      ],
      "stateMutability": "nonpayable",
      "type": "function"
    },
    {
      "inputs": [
        {
          "internalType": "address",
          "name": "token",
          "type": "address"
        },
        {
          "internalType": "address",
          "name": "spender",
          "type": "address"
        },
        {
          "internalType": "uint256",
          "name": "amount",
          "type": "uint256"
        }
      ],
      "name": "optimizedApprove",
      "outputs": [
        {
          "internalType": "bool",
          "name": "success",
          "type": "bool"
        }
      ],
      "stateMutability": "nonpayable",
      "type": "function"
    },
    {
      "inputs": [
        {
          "internalType": "bytes32",
          "name": "role",
          "type": "bytes32"
        },
        {
          "internalType": "address",
          "name": "callerConfirmation",
          "type": "address"
        }
      ],
      "name": "renounceRole",
      "outputs": [],
      "stateMutability": "nonpayable",
      "type": "function"
    },
    {
      "inputs": [],
      "name": "reset",
      "outputs": [],
      "stateMutability": "nonpayable",
      "type": "function"
    },
    {
      "inputs": [
        {
          "internalType": "bytes32",
          "name": "role",
          "type": "bytes32"
        },
        {
          "internalType": "address",
          "name": "account",
          "type": "address"
        }
      ],
      "name": "revokeRole",
      "outputs": [],
      "stateMutability": "nonpayable",
      "type": "function"
    },
    {
      "inputs": [
        {
          "internalType": "address",
          "name": "token",
          "type": "address"
        },
        {
          "internalType": "address",
          "name": "spender",
          "type": "address"
        },
        {
          "internalType": "uint256",
          "name": "subtractedValue",
          "type": "uint256"
        }
      ],
      "name": "safeDecreaseAllowance",
      "outputs": [
        {
          "internalType": "bool",
          "name": "success",
          "type": "bool"
        }
      ],
      "stateMutability": "nonpayable",
      "type": "function"
    },
    {
      "inputs": [
        {
          "internalType": "address",
          "name": "token",
          "type": "address"
        },
        {
          "internalType": "address",
          "name": "spender",
          "type": "address"
        },
        {
          "internalType": "uint256",
          "name": "addedValue",
          "type": "uint256"
        }
      ],
      "name": "safeIncreaseAllowance",
      "outputs": [
        {
          "internalType": "bool",
          "name": "success",
          "type": "bool"
        }
      ],
      "stateMutability": "nonpayable",
      "type": "function"
    },
    {
      "inputs": [
        {
          "internalType": "contract IERC20",
          "name": "token",
          "type": "address"
        },
        {
          "internalType": "address",
          "name": "spender",
          "type": "address"
        },
        {
          "internalType": "uint256",
          "name": "amount",
          "type": "uint256"
        }
      ],
      "name": "singleTransactionApprove",
      "outputs": [
        {
          "internalType": "bool",
          "name": "success",
          "type": "bool"
        }
      ],
      "stateMutability": "nonpayable",
      "type": "function"
    },
    {
      "inputs": [
        {
          "internalType": "bytes4",
          "name": "interfaceId",
          "type": "bytes4"
        }
      ],
      "name": "supportsInterface",
      "outputs": [
        {
          "internalType": "bool",
          "name": "",
          "type": "bool"
        }
      ],
      "stateMutability": "view",
      "type": "function"
    },
    {
      "inputs": [
        {
          "internalType": "string",
          "name": "functionName",
          "type": "string"
        }
      ],
      "name": "wasFunctionCalled",
      "outputs": [
        {
          "internalType": "bool",
          "name": "",
          "type": "bool"
        }
      ],
      "stateMutability": "view",
      "type": "function"
    }
  ],
  "bytecode": "0x608060405234801561001057600080fd5b5061001c600033610022565b506100ce565b6000828152602081815260408083206001600160a01b038516845290915281205460ff166100c4576000838152602081815260408083206001600160a01b03861684529091529020805460ff1916600117905561007c3390565b6001600160a01b0316826001600160a01b0316847f2f8788117e7eff1d82e926ec794901d17c78024a50270940304540a733656f0d60405160405180910390a45060016100c8565b5060005b92915050565b6119c4806100dd6000396000f3fe608060405234801561001057600080fd5b50600436106101735760003560e01c8063422b010b116100de578063a217fddf11610097578063d547741f11610071578063d547741f14610388578063d826f88f1461039b578063dfdbdd50146103a3578063f9255c1f146103c357600080fd5b8063a217fddf1461034d578063c054c6ce14610355578063c8b3b0ac1461036857600080fd5b8063422b010b146102d85780634b28f9a214610303578063675215d21461030c5780637d73bd5c1461031f5780638129fc1c1461033257806391d148541461033a57600080fd5b8063248a9ca311610130578063248a9ca3146102455780632bfe2a38146102685780632f2ff15d1461027b57806336568abe146102905780633bb15688146102a35780633ca3910c146102b657600080fd5b806301ffc9a714610178578063158ef93e146101a05780631a82a643146101ad5780631df86bc6146101ce5780632113522a1461021a57806323fdfd5d14610232575b600080fd5b61018b610186366004611337565b6103d6565b60405190151581526020015b60405180910390f35b60015461018b9060ff1681565b6101c06101bb3660046113a8565b61040d565b604051908152602001610197565b6102026101dc3660046113a8565b80516020818301810180516005825292820191909301209152546001600160a01b031681565b6040516001600160a01b039091168152602001610197565b6001546102029061010090046001600160a01b031681565b61018b610240366004611462565b610435565b6101c06102533660046114a3565b60009081526020819052604090206001015490565b61018b610276366004611462565b610514565b61028e6102893660046114bc565b610719565b005b61028e61029e3660046114bc565b610744565b61018b6102b1366004611462565b61077c565b6102c96102c43660046113a8565b6107ca565b6040516101979392919061153c565b6101c06102e63660046113a8565b805160208183018101805160038252928201919093012091525481565b6101c060025481565b61018b61031a366004611462565b6108cd565b61018b61032d36600461156f565b610afb565b61028e610b61565b61018b6103483660046114bc565b610bed565b6101c0600081565b61018b6103633660046113a8565b610c16565b61037b610376366004611630565b610c40565b6040516101979190611705565b61028e6103963660046114bc565b610da1565b61028e610dc6565b6103b66103b13660046113a8565b610e12565b604051610197919061174b565b61018b6103d1366004611462565b610eb7565b60006001600160e01b03198216637965db0b60e01b148061040757506301ffc9a760e01b6001600160e01b03198316145b92915050565b600060038260405161041f919061175e565b9081526020016040518091039020549050919050565b60006104996040518060400160405280601881526020017f73696e676c655472616e73616374696f6e417070726f766500000000000000008152508585856040516020016104859392919061177a565b6040516020818303038152906040526110d2565b60405163095ea7b360e01b81526001600160a01b0384811660048301526024820184905285169063095ea7b3906044016020604051808303816000875af11580156104e8573d6000803e3d6000fd5b505050506040513d601f19601f8201168201806040525081019061050c919061179e565b949350505050565b60006105576040518060400160405280601081526020016f6f7074696d697a6564417070726f766560801b8152508585856040516020016104859392919061177a565b6001600160a01b03831661057e5760405163d92e233d60e01b815260040160405180910390fd5b604051636eb1769f60e11b81523060048201526001600160a01b0384811660248301526000919086169063dd62ed3e90604401602060405180830381865afa1580156105ce573d6000803e3d6000fd5b505050506040513d601f19601f820116820180604052508101906105f291906117c0565b905082811461070c5760405163095ea7b360e01b81526001600160a01b0385811660048301526024820185905286169063095ea7b3906044016020604051808303816000875af115801561064a573d6000803e3d6000fd5b505050506040513d601f19601f8201168201806040525081019061066e919061179e565b9150816106ba5760405162461bcd60e51b8152602060048201526015602482015274151bdad95b88185c1c1c9bdd985b0819985a5b1959605a1b60448201526064015b60405180910390fd5b836001600160a01b0316856001600160a01b03167fc532e6b60637d86dd3fe55f7548ed169de9c79cfdef610593bea3569f079bc65856040516106ff91815260200190565b60405180910390a3610711565b600191505b509392505050565b600082815260208190526040902060010154610734816111f0565b61073e83836111fd565b50505050565b6001600160a01b038116331461076d5760405163334bd91960e11b815260040160405180910390fd5b610777828261128f565b505050565b60006107bf6040518060400160405280601081526020016f1bdc1d1a5b5a5e99505c1c1c9bdd985b60821b8152508585856040516020016104859392919061177a565b61050c848484610514565b60008060606003846040516107df919061175e565b9081526020016040518091039020546005856040516107fe919061175e565b908152604051908190036020018120546001600160a01b03169060049061082690889061175e565b9081526020016040518091039020808054610840906117d9565b80601f016020809104026020016040519081016040528092919081815260200182805461086c906117d9565b80156108b95780601f1061088e576101008083540402835291602001916108b9565b820191906000526020600020905b81548152906001019060200180831161089c57829003601f168201915b505050505090509250925092509193909250565b600061091560405180604001604052806015815260200174736166654465637265617365416c6c6f77616e636560581b8152508585856040516020016104859392919061177a565b6001600160a01b03831661093c5760405163d92e233d60e01b815260040160405180910390fd5b604051636eb1769f60e11b81523060048201526001600160a01b0384811660248301526000919086169063dd62ed3e90604401602060405180830381865afa15801561098c573d6000803e3d6000fd5b505050506040513d601f19601f820116820180604052508101906109b091906117c0565b9050808311156109d35760405163162908e360e11b815260040160405180910390fd5b60006109df8483611829565b60405163095ea7b360e01b81526001600160a01b038781166004830152602482018390529192509087169063095ea7b3906044016020604051808303816000875af1158015610a32573d6000803e3d6000fd5b505050506040513d601f19601f82011682018060405250810190610a56919061179e565b925082610aa55760405162461bcd60e51b815260206004820152601960248201527f446563726561736520616c6c6f77616e6365206661696c65640000000000000060448201526064016106b1565b846001600160a01b0316866001600160a01b03167f424dbe179d5bade01d2ca8ccbd3405ec809e626ae11064bdf18f99e929424a4a86604051610aea91815260200190565b60405180910390a350509392505050565b6000610b4e6040518060400160405280600d81526020016c18db19585c905c1c1c9bdd985b609a1b81525084846040516020016104859291906001600160a01b0392831681529116602082015260400190565b610b5a83836000610514565b9392505050565b60015460ff1615610bb45760405162461bcd60e51b815260206004820152601d60248201527f426173654d6f636b3a20616c726561647920696e697469616c697a656400000060448201526064016106b1565b6001805460ff19168117905560405133907f30f7074e868351008998491171b433e7342f255e986fef03e5eec84f01786f0190600090a2565b6000918252602082815260408084206001600160a01b0393909316845291905290205460ff1690565b600080600383604051610c29919061175e565b908152602001604051809103902054119050919050565b60608151845114610c6457604051634ec4810560e11b815260040160405180910390fd5b6001600160a01b038316610c8b5760405163d92e233d60e01b815260040160405180910390fd5b835167ffffffffffffffff811115610ca557610ca5611361565b604051908082528060200260200182016040528015610cce578160200160208202803683370190505b50905060005b84518110156107115760006001600160a01b0316858281518110610cfa57610cfa61183c565b60200260200101516001600160a01b031603610d39576000828281518110610d2457610d2461183c565b91151560209283029190910190910152610d99565b610d76858281518110610d4e57610d4e61183c565b602002602001015185858481518110610d6957610d6961183c565b6020026020010151610514565b828281518110610d8857610d8861183c565b911515602092830291909101909101525b600101610cd4565b600082815260208190526040902060010154610dbc816111f0565b61073e838361128f565b6000610dd1816111f0565b600180546001600160a81b0319169055600060028190556040517f47f78a7a0acc7fff3657157dc253c5e6a68550995cc6f47bc2bd707ec67370fb9190a150565b805160208183018101805160048252928201919093012091528054610e36906117d9565b80601f0160208091040260200160405190810160405280929190818152602001828054610e62906117d9565b8015610eaf5780601f10610e8457610100808354040283529160200191610eaf565b820191906000526020600020905b815481529060010190602001808311610e9257829003601f168201915b505050505081565b6000610eff6040518060400160405280601581526020017473616665496e637265617365416c6c6f77616e636560581b8152508585856040516020016104859392919061177a565b6001600160a01b038316610f265760405163d92e233d60e01b815260040160405180910390fd5b604051636eb1769f60e11b81523060048201526001600160a01b0384811660248301526000919086169063dd62ed3e90604401602060405180830381865afa158015610f76573d6000803e3d6000fd5b505050506040513d601f19601f82011682018060405250810190610f9a91906117c0565b90506000610fa88483611852565b905081811015610fcb5760405163162908e360e11b815260040160405180910390fd5b60405163095ea7b360e01b81526001600160a01b0386811660048301526024820183905287169063095ea7b3906044016020604051808303816000875af115801561101a573d6000803e3d6000fd5b505050506040513d601f19601f8201168201806040525081019061103e919061179e565b92508261108d5760405162461bcd60e51b815260206004820152601960248201527f496e63726561736520616c6c6f77616e6365206661696c65640000000000000060448201526064016106b1565b846001600160a01b0316866001600160a01b03167fd953ee4f1a519cd0a9211d0b9ff70b814e423b9acc9575e889b873fe9342478486604051610aea91815260200190565b6003826040516110e2919061175e565b90815260405190819003602001902080549060006110ff83611865565b919050555080600483604051611115919061175e565b9081526020016040518091039020908161112f91906118ce565b5033600583604051611141919061175e565b90815260405160209181900391909101902080546001600160a01b0319166001600160a01b039290921691909117905560018054610100600160a81b03191661010033021790556002805490600061119883611865565b909155505060405133906111ad90849061175e565b60405180910390207f16b892c3de2f4b54dc114eff5c76ead156bac210353ee82615752957e1317df1836040516111e4919061174b565b60405180910390a35050565b6111fa81336112fa565b50565b60006112098383610bed565b611287576000838152602081815260408083206001600160a01b03861684529091529020805460ff1916600117905561123f3390565b6001600160a01b0316826001600160a01b0316847f2f8788117e7eff1d82e926ec794901d17c78024a50270940304540a733656f0d60405160405180910390a4506001610407565b506000610407565b600061129b8383610bed565b15611287576000838152602081815260408083206001600160a01b0386168085529252808320805460ff1916905551339286917ff6391f5c32d9c69d2a47ea670b442974b53935d1edc7fd64eb21e047a839171b9190a4506001610407565b6113048282610bed565b6113335760405163e2517d3f60e01b81526001600160a01b0382166004820152602481018390526044016106b1565b5050565b60006020828403121561134957600080fd5b81356001600160e01b031981168114610b5a57600080fd5b634e487b7160e01b600052604160045260246000fd5b604051601f8201601f1916810167ffffffffffffffff811182821017156113a0576113a0611361565b604052919050565b600060208083850312156113bb57600080fd5b823567ffffffffffffffff808211156113d357600080fd5b818501915085601f8301126113e757600080fd5b8135818111156113f9576113f9611361565b61140b601f8201601f19168501611377565b9150808252868482850101111561142157600080fd5b8084840185840137600090820190930192909252509392505050565b6001600160a01b03811681146111fa57600080fd5b803561145d8161143d565b919050565b60008060006060848603121561147757600080fd5b83356114828161143d565b925060208401356114928161143d565b929592945050506040919091013590565b6000602082840312156114b557600080fd5b5035919050565b600080604083850312156114cf57600080fd5b8235915060208301356114e18161143d565b809150509250929050565b60005b838110156115075781810151838201526020016114ef565b50506000910152565b600081518084526115288160208601602086016114ec565b601f01601f19169290920160200192915050565b8381526001600160a01b038316602082015260606040820181905260009061156690830184611510565b95945050505050565b6000806040838503121561158257600080fd5b823561158d8161143d565b915060208301356114e18161143d565b600067ffffffffffffffff8211156115b7576115b7611361565b5060051b60200190565b600082601f8301126115d257600080fd5b813560206115e76115e28361159d565b611377565b8083825260208201915060208460051b87010193508684111561160957600080fd5b602086015b84811015611625578035835291830191830161160e565b509695505050505050565b60008060006060848603121561164557600080fd5b833567ffffffffffffffff8082111561165d57600080fd5b818601915086601f83011261167157600080fd5b813560206116816115e28361159d565b82815260059290921b8401810191818101908a8411156116a057600080fd5b948201945b838610156116c75785356116b88161143d565b825294820194908201906116a5565b97506116d69050888201611452565b9550505060408601359150808211156116ee57600080fd5b506116fb868287016115c1565b9150509250925092565b6020808252825182820181905260009190848201906040850190845b8181101561173f578351151583529284019291840191600101611721565b50909695505050505050565b602081526000610b5a6020830184611510565b600082516117708184602087016114ec565b9190910192915050565b6001600160a01b039384168152919092166020820152604081019190915260600190565b6000602082840312156117b057600080fd5b81518015158114610b5a57600080fd5b6000602082840312156117d257600080fd5b5051919050565b600181811c908216806117ed57607f821691505b60208210810361180d57634e487b7160e01b600052602260045260246000fd5b50919050565b634e487b7160e01b600052601160045260246000fd5b8181038181111561040757610407611813565b634e487b7160e01b600052603260045260246000fd5b8082018082111561040757610407611813565b60006001820161187757611877611813565b5060010190565b601f821115610777576000816000526020600020601f850160051c810160208610156118a75750805b601f850160051c820191505b818110156118c6578281556001016118b3565b505050505050565b815167ffffffffffffffff8111156118e8576118e8611361565b6118fc816118f684546117d9565b8461187e565b602080601f83116001811461193157600084156119195750858301515b600019600386901b1c1916600185901b1785556118c6565b600085815260208120601f198616915b8281101561196057888601518255948401946001909101908401611941565b508582101561197e5787850151600019600388901b60f8161c191681555b5050505050600190811b0190555056fea26469706673582212201b37353f30ffc26ab2229c860f0a870ca8261dad7b40ce7de65b19607f5300c564736f6c63430008180033",
  "linkReferences": {},
  "deployedLinkReferences": {}
}