{
  "_format": "hh-sol-artifact-1",
  "contractName": "MockAssetDAOTest",
  "sourceName": "contracts/mocks/MockAssetDAOTest.sol",
  "abi": [
    {
      "inputs": [
        {
          "internalType": "address",
          "name": "_daiToken",
          "type": "address"
        },
        {
          "internalType": "address",
          "name": "_dloopToken",
          "type": "address"
        },
        {
          "internalType": "address",
          "name": "_priceOracle",
          "type": "address"
        },
        {
          "internalType": "address",
          "name": "_feeProcessor",
          "type": "address"
        }
      ],
      "stateMutability": "nonpayable",
      "type": "constructor"
    },
    {
      "inputs": [],
      "name": "AccessControlBadConfirmation",
      "type": "error"
    },
    {
      "inputs": [
        {
          "internalType": "address",
          "name": "account",
          "type": "address"
        },
        {
          "internalType": "bytes32",
          "name": "neededRole",
          "type": "bytes32"
        }
      ],
      "name": "AccessControlUnauthorizedAccount",
      "type": "error"
    },
    {
      "inputs": [],
      "name": "AssetNotActive",
      "type": "error"
    },
    {
      "inputs": [],
      "name": "InsufficientShares",
      "type": "error"
    },
    {
      "inputs": [],
      "name": "InvalidAmount",
      "type": "error"
    },
    {
      "inputs": [],
      "name": "OperationFailed",
      "type": "error"
    },
    {
      "inputs": [],
      "name": "TokenTransferFailed",
      "type": "error"
    },
    {
      "inputs": [],
      "name": "ZeroAddress",
      "type": "error"
    },
    {
      "anonymous": false,
      "inputs": [
        {
          "indexed": true,
          "internalType": "uint256",
          "name": "assetId",
          "type": "uint256"
        },
        {
          "indexed": false,
          "internalType": "string",
          "name": "name",
          "type": "string"
        },
        {
          "indexed": false,
          "internalType": "string",
          "name": "description",
          "type": "string"
        }
      ],
      "name": "AssetCreated",
      "type": "event"
    },
    {
      "anonymous": false,
      "inputs": [
        {
          "indexed": true,
          "internalType": "uint256",
          "name": "assetId",
          "type": "uint256"
        },
        {
          "indexed": true,
          "internalType": "address",
          "name": "investor",
          "type": "address"
        },
        {
          "indexed": false,
          "internalType": "uint256",
          "name": "shares",
          "type": "uint256"
        },
        {
          "indexed": false,
          "internalType": "uint256",
          "name": "amount",
          "type": "uint256"
        }
      ],
      "name": "DivestmentMade",
      "type": "event"
    },
    {
      "anonymous": false,
      "inputs": [
        {
          "indexed": true,
          "internalType": "uint256",
          "name": "assetId",
          "type": "uint256"
        },
        {
          "indexed": true,
          "internalType": "address",
          "name": "investor",
          "type": "address"
        },
        {
          "indexed": false,
          "internalType": "uint256",
          "name": "amount",
          "type": "uint256"
        },
        {
          "indexed": false,
          "internalType": "uint256",
          "name": "shares",
          "type": "uint256"
        }
      ],
      "name": "InvestmentMade",
      "type": "event"
    },
    {
      "anonymous": false,
      "inputs": [
        {
          "indexed": true,
          "internalType": "string",
          "name": "functionName",
          "type": "string"
        },
        {
          "indexed": true,
          "internalType": "address",
          "name": "caller",
          "type": "address"
        },
        {
          "indexed": false,
          "internalType": "bytes",
          "name": "data",
          "type": "bytes"
        }
      ],
      "name": "MockFunctionCalled",
      "type": "event"
    },
    {
      "anonymous": false,
      "inputs": [
        {
          "indexed": true,
          "internalType": "address",
          "name": "caller",
          "type": "address"
        }
      ],
      "name": "MockInitialized",
      "type": "event"
    },
    {
      "anonymous": false,
      "inputs": [],
      "name": "MockStateReset",
      "type": "event"
    },
    {
      "anonymous": false,
      "inputs": [
        {
          "indexed": true,
          "internalType": "bytes32",
          "name": "role",
          "type": "bytes32"
        },
        {
          "indexed": true,
          "internalType": "bytes32",
          "name": "previousAdminRole",
          "type": "bytes32"
        },
        {
          "indexed": true,
          "internalType": "bytes32",
          "name": "newAdminRole",
          "type": "bytes32"
        }
      ],
      "name": "RoleAdminChanged",
      "type": "event"
    },
    {
      "anonymous": false,
      "inputs": [
        {
          "indexed": true,
          "internalType": "bytes32",
          "name": "role",
          "type": "bytes32"
        },
        {
          "indexed": true,
          "internalType": "address",
          "name": "account",
          "type": "address"
        },
        {
          "indexed": true,
          "internalType": "address",
          "name": "sender",
          "type": "address"
        }
      ],
      "name": "RoleGranted",
      "type": "event"
    },
    {
      "anonymous": false,
      "inputs": [
        {
          "indexed": true,
          "internalType": "bytes32",
          "name": "role",
          "type": "bytes32"
        },
        {
          "indexed": true,
          "internalType": "address",
          "name": "account",
          "type": "address"
        },
        {
          "indexed": true,
          "internalType": "address",
          "name": "sender",
          "type": "address"
        }
      ],
      "name": "RoleRevoked",
      "type": "event"
    },
    {
      "inputs": [],
      "name": "ADMIN_ROLE",
      "outputs": [
        {
          "internalType": "bytes32",
          "name": "",
          "type": "bytes32"
        }
      ],
      "stateMutability": "view",
      "type": "function"
    },
    {
      "inputs": [],
      "name": "ASSET_OPERATOR_ROLE",
      "outputs": [
        {
          "internalType": "bytes32",
          "name": "",
          "type": "bytes32"
        }
      ],
      "stateMutability": "view",
      "type": "function"
    },
    {
      "inputs": [],
      "name": "DEFAULT_ADMIN_ROLE",
      "outputs": [
        {
          "internalType": "bytes32",
          "name": "",
          "type": "bytes32"
        }
      ],
      "stateMutability": "view",
      "type": "function"
    },
    {
      "inputs": [
        {
          "internalType": "address",
          "name": "token",
          "type": "address"
        },
        {
          "internalType": "address",
          "name": "spender",
          "type": "address"
        },
        {
          "internalType": "uint256",
          "name": "amount",
          "type": "uint256"
        }
      ],
      "name": "allowTokenTransfer",
      "outputs": [
        {
          "internalType": "bool",
          "name": "success",
          "type": "bool"
        }
      ],
      "stateMutability": "nonpayable",
      "type": "function"
    },
    {
      "inputs": [],
      "name": "assetCount",
      "outputs": [
        {
          "internalType": "uint256",
          "name": "",
          "type": "uint256"
        }
      ],
      "stateMutability": "view",
      "type": "function"
    },
    {
      "inputs": [
        {
          "internalType": "uint256",
          "name": "",
          "type": "uint256"
        }
      ],
      "name": "assets",
      "outputs": [
        {
          "internalType": "uint256",
          "name": "id",
          "type": "uint256"
        },
        {
          "internalType": "string",
          "name": "name",
          "type": "string"
        },
        {
          "internalType": "string",
          "name": "description",
          "type": "string"
        },
        {
          "internalType": "uint256",
          "name": "totalShares",
          "type": "uint256"
        },
        {
          "internalType": "bool",
          "name": "active",
          "type": "bool"
        }
      ],
      "stateMutability": "view",
      "type": "function"
    },
    {
      "inputs": [],
      "name": "callCount",
      "outputs": [
        {
          "internalType": "uint256",
          "name": "",
          "type": "uint256"
        }
      ],
      "stateMutability": "view",
      "type": "function"
    },
    {
      "inputs": [
        {
          "internalType": "string",
          "name": "name",
          "type": "string"
        },
        {
          "internalType": "string",
          "name": "description",
          "type": "string"
        }
      ],
      "name": "createAsset",
      "outputs": [
        {
          "internalType": "uint256",
          "name": "assetId",
          "type": "uint256"
        }
      ],
      "stateMutability": "nonpayable",
      "type": "function"
    },
    {
      "inputs": [],
      "name": "daiToken",
      "outputs": [
        {
          "internalType": "address",
          "name": "",
          "type": "address"
        }
      ],
      "stateMutability": "view",
      "type": "function"
    },
    {
      "inputs": [
        {
          "internalType": "uint256",
          "name": "assetId",
          "type": "uint256"
        },
        {
          "internalType": "uint256",
          "name": "shareAmount",
          "type": "uint256"
        }
      ],
      "name": "divest",
      "outputs": [
        {
          "internalType": "uint256",
          "name": "amount",
          "type": "uint256"
        }
      ],
      "stateMutability": "nonpayable",
      "type": "function"
    },
    {
      "inputs": [],
      "name": "dloopToken",
      "outputs": [
        {
          "internalType": "address",
          "name": "",
          "type": "address"
        }
      ],
      "stateMutability": "view",
      "type": "function"
    },
    {
      "inputs": [],
      "name": "feeProcessor",
      "outputs": [
        {
          "internalType": "address",
          "name": "",
          "type": "address"
        }
      ],
      "stateMutability": "view",
      "type": "function"
    },
    {
      "inputs": [
        {
          "internalType": "string",
          "name": "",
          "type": "string"
        }
      ],
      "name": "functionCallCount",
      "outputs": [
        {
          "internalType": "uint256",
          "name": "",
          "type": "uint256"
        }
      ],
      "stateMutability": "view",
      "type": "function"
    },
    {
      "inputs": [
        {
          "internalType": "string",
          "name": "functionName",
          "type": "string"
        }
      ],
      "name": "getFunctionCallCount",
      "outputs": [
        {
          "internalType": "uint256",
          "name": "",
          "type": "uint256"
        }
      ],
      "stateMutability": "view",
      "type": "function"
    },
    {
      "inputs": [
        {
          "internalType": "string",
          "name": "functionName",
          "type": "string"
        }
      ],
      "name": "getFunctionCallHistory",
      "outputs": [
        {
          "internalType": "uint256",
          "name": "count",
          "type": "uint256"
        },
        {
          "internalType": "address",
          "name": "lastCaller_",
          "type": "address"
        },
        {
          "internalType": "bytes",
          "name": "lastData",
          "type": "bytes"
        }
      ],
      "stateMutability": "view",
      "type": "function"
    },
    {
      "inputs": [
        {
          "internalType": "uint256",
          "name": "assetId",
          "type": "uint256"
        },
        {
          "internalType": "address",
          "name": "investor",
          "type": "address"
        }
      ],
      "name": "getInvestorShares",
      "outputs": [
        {
          "internalType": "uint256",
          "name": "shares",
          "type": "uint256"
        }
      ],
      "stateMutability": "view",
      "type": "function"
    },
    {
      "inputs": [
        {
          "internalType": "uint256",
          "name": "assetId",
          "type": "uint256"
        }
      ],
      "name": "getInvestors",
      "outputs": [
        {
          "internalType": "address[]",
          "name": "investors",
          "type": "address[]"
        }
      ],
      "stateMutability": "view",
      "type": "function"
    },
    {
      "inputs": [
        {
          "internalType": "bytes32",
          "name": "role",
          "type": "bytes32"
        }
      ],
      "name": "getRoleAdmin",
      "outputs": [
        {
          "internalType": "bytes32",
          "name": "",
          "type": "bytes32"
        }
      ],
      "stateMutability": "view",
      "type": "function"
    },
    {
      "inputs": [
        {
          "internalType": "uint256",
          "name": "assetId",
          "type": "uint256"
        }
      ],
      "name": "getTotalShares",
      "outputs": [
        {
          "internalType": "uint256",
          "name": "totalShares",
          "type": "uint256"
        }
      ],
      "stateMutability": "view",
      "type": "function"
    },
    {
      "inputs": [
        {
          "internalType": "bytes32",
          "name": "role",
          "type": "bytes32"
        },
        {
          "internalType": "address",
          "name": "account",
          "type": "address"
        }
      ],
      "name": "grantRole",
      "outputs": [],
      "stateMutability": "nonpayable",
      "type": "function"
    },
    {
      "inputs": [
        {
          "internalType": "bytes32",
          "name": "role",
          "type": "bytes32"
        },
        {
          "internalType": "address",
          "name": "account",
          "type": "address"
        }
      ],
      "name": "hasRole",
      "outputs": [
        {
          "internalType": "bool",
          "name": "",
          "type": "bool"
        }
      ],
      "stateMutability": "view",
      "type": "function"
    },
    {
      "inputs": [],
      "name": "initialize",
      "outputs": [],
      "stateMutability": "nonpayable",
      "type": "function"
    },
    {
      "inputs": [],
      "name": "initialized",
      "outputs": [
        {
          "internalType": "bool",
          "name": "",
          "type": "bool"
        }
      ],
      "stateMutability": "view",
      "type": "function"
    },
    {
      "inputs": [
        {
          "internalType": "uint256",
          "name": "assetId",
          "type": "uint256"
        },
        {
          "internalType": "uint256",
          "name": "amount",
          "type": "uint256"
        }
      ],
      "name": "invest",
      "outputs": [
        {
          "internalType": "uint256",
          "name": "shares",
          "type": "uint256"
        }
      ],
      "stateMutability": "nonpayable",
      "type": "function"
    },
    {
      "inputs": [
        {
          "internalType": "string",
          "name": "",
          "type": "string"
        }
      ],
      "name": "lastCallData",
      "outputs": [
        {
          "internalType": "bytes",
          "name": "",
          "type": "bytes"
        }
      ],
      "stateMutability": "view",
      "type": "function"
    },
    {
      "inputs": [],
      "name": "lastCaller",
      "outputs": [
        {
          "internalType": "address",
          "name": "",
          "type": "address"
        }
      ],
      "stateMutability": "view",
      "type": "function"
    },
    {
      "inputs": [
        {
          "internalType": "string",
          "name": "",
          "type": "string"
        }
      ],
      "name": "lastCallerByFunction",
      "outputs": [
        {
          "internalType": "address",
          "name": "",
          "type": "address"
        }
      ],
      "stateMutability": "view",
      "type": "function"
    },
    {
      "inputs": [],
      "name": "priceOracle",
      "outputs": [
        {
          "internalType": "address",
          "name": "",
          "type": "address"
        }
      ],
      "stateMutability": "view",
      "type": "function"
    },
    {
      "inputs": [
        {
          "internalType": "bytes32",
          "name": "role",
          "type": "bytes32"
        },
        {
          "internalType": "address",
          "name": "callerConfirmation",
          "type": "address"
        }
      ],
      "name": "renounceRole",
      "outputs": [],
      "stateMutability": "nonpayable",
      "type": "function"
    },
    {
      "inputs": [],
      "name": "reset",
      "outputs": [],
      "stateMutability": "nonpayable",
      "type": "function"
    },
    {
      "inputs": [
        {
          "internalType": "bytes32",
          "name": "role",
          "type": "bytes32"
        },
        {
          "internalType": "address",
          "name": "account",
          "type": "address"
        }
      ],
      "name": "revokeRole",
      "outputs": [],
      "stateMutability": "nonpayable",
      "type": "function"
    },
    {
      "inputs": [
        {
          "internalType": "bytes4",
          "name": "interfaceId",
          "type": "bytes4"
        }
      ],
      "name": "supportsInterface",
      "outputs": [
        {
          "internalType": "bool",
          "name": "",
          "type": "bool"
        }
      ],
      "stateMutability": "view",
      "type": "function"
    },
    {
      "inputs": [
        {
          "internalType": "string",
          "name": "functionName",
          "type": "string"
        }
      ],
      "name": "wasFunctionCalled",
      "outputs": [
        {
          "internalType": "bool",
          "name": "",
          "type": "bool"
        }
      ],
      "stateMutability": "view",
      "type": "function"
    }
  ],
  "bytecode": "0x6101006040523480156200001257600080fd5b5060405162001dff38038062001dff833981016040819052620000359162000203565b6200004260003362000137565b506001600160a01b03841615806200006157506001600160a01b038316155b806200007457506001600160a01b038216155b806200008757506001600160a01b038116155b15620000a65760405163d92e233d60e01b815260040160405180910390fd5b6001600160a01b0380851660805283811660a05282811660c052811660e052620000d260003362000137565b50620000ff7fa49807205ce4d355092ef5a8a18f56e8913cf4a201fbe287825b095693c217753362000137565b506200012c7f7ca379920ac737a243dcc9963ab0b3db3ded18d7795769ad9cd21be76adf37073362000137565b505050505062000260565b6000828152602081815260408083206001600160a01b038516845290915281205460ff16620001dc576000838152602081815260408083206001600160a01b03861684529091529020805460ff19166001179055620001933390565b6001600160a01b0316826001600160a01b0316847f2f8788117e7eff1d82e926ec794901d17c78024a50270940304540a733656f0d60405160405180910390a4506001620001e0565b5060005b92915050565b80516001600160a01b0381168114620001fe57600080fd5b919050565b600080600080608085870312156200021a57600080fd5b6200022585620001e6565b93506200023560208601620001e6565b92506200024560408601620001e6565b91506200025560608601620001e6565b905092959194509250565b60805160a05160c05160e051611b3b620002c4600039600081816104ba01528181610a58015261108d01526000610315015260006104800152600081816104fc01528181610a2301528181610b3a0152818161105b01526111b50152611b3b6000f3fe608060405234801561001057600080fd5b50600436106101fb5760003560e01c806375b238fc1161011a578063a2a55b68116100ad578063d547741f1161007c578063d547741f14610555578063d826f88f14610568578063d87aa64314610570578063dfdbdd5014610583578063eafe7a74146105a357600080fd5b8063a2a55b68146104e4578063be22f546146104f7578063c054c6ce1461051e578063cf35bdd01461053157600080fd5b806391a96886116100e957806391a968861461047b57806391d14854146104a257806394f0d0bf146104b5578063a217fddf146104dc57600080fd5b806375b238fc146103ef5780637bf69ca9146104165780638129fc1c1461045057806385fff8581461045857600080fd5b80632630c12f11610192578063422b010b11610161578063422b010b146103815780634696c749146103ac5780634b28f9a2146103bf5780636f75ee4c146103c857600080fd5b80632630c12f146103105780632f2ff15d1461033757806336568abe1461034c5780633ca3910c1461035f57600080fd5b80631a82a643116101ce5780631a82a643146102685780631df86bc6146102895780632113522a146102d5578063248a9ca3146102ed57600080fd5b806301ffc9a71461020057806308737739146102285780631139de551461023b578063158ef93e1461025b575b600080fd5b61021361020e36600461158e565b6105ac565b60405190151581526020015b60405180910390f35b6102136102363660046115db565b6105e3565b61024e610249366004611617565b610747565b60405161021f9190611630565b6001546102139060ff1681565b61027b610276366004611720565b6107b6565b60405190815260200161021f565b6102bd610297366004611720565b80516020818301810180516005825292820191909301209152546001600160a01b031681565b6040516001600160a01b03909116815260200161021f565b6001546102bd9061010090046001600160a01b031681565b61027b6102fb366004611617565b60009081526020819052604090206001015490565b6102bd7f000000000000000000000000000000000000000000000000000000000000000081565b61034a61034536600461175d565b6107de565b005b61034a61035a36600461175d565b610809565b61037261036d366004611720565b610841565b60405161021f939291906117d9565b61027b61038f366004611720565b805160208183018101805160038252928201919093012091525481565b61027b6103ba36600461180c565b610944565b61027b60025481565b61027b7f7ca379920ac737a243dcc9963ab0b3db3ded18d7795769ad9cd21be76adf370781565b61027b7fa49807205ce4d355092ef5a8a18f56e8913cf4a201fbe287825b095693c2177581565b61027b61042436600461175d565b60008281526006602090815260408083206001600160a01b038516845260040190915290205492915050565b61034a610c17565b61027b610466366004611617565b60009081526006602052604090206005015490565b6102bd7f000000000000000000000000000000000000000000000000000000000000000081565b6102136104b036600461175d565b610ca8565b6102bd7f000000000000000000000000000000000000000000000000000000000000000081565b61027b600081565b61027b6104f236600461182e565b610cd1565b6102bd7f000000000000000000000000000000000000000000000000000000000000000081565b61021361052c366004611720565b610dd0565b61054461053f366004611617565b610dfa565b60405161021f959493929190611892565b61034a61056336600461175d565b610f3d565b61034a610f62565b61027b61057e36600461180c565b610fae565b610596610591366004611720565b611284565b60405161021f91906118d7565b61027b60075481565b60006001600160e01b03198216637965db0b60e01b14806105dd57506301ffc9a760e01b6001600160e01b03198316145b92915050565b60007fa49807205ce4d355092ef5a8a18f56e8913cf4a201fbe287825b095693c2177561060f81611329565b6106856040518060400160405280601281526020017130b63637bbaa37b5b2b72a3930b739b332b960711b815250868686604051602001610671939291906001600160a01b039384168152919092166020820152604081019190915260600190565b604051602081830303815290604052611336565b6001600160a01b0385166106ac5760405163d92e233d60e01b815260040160405180910390fd5b60405163095ea7b360e01b81526001600160a01b0385811660048301526024820185905286169063095ea7b3906044016020604051808303816000875af11580156106fb573d6000803e3d6000fd5b505050506040513d601f19601f8201168201806040525081019061071f91906118ea565b91508161073f576040516301b2776960e11b815260040160405180910390fd5b509392505050565b6000818152600660209081526040918290206003018054835181840281018401909452808452606093928301828280156107aa57602002820191906000526020600020905b81546001600160a01b0316815260019091019060200180831161078c575b50505050509050919050565b60006003826040516107c8919061190c565b9081526020016040518091039020549050919050565b6000828152602081905260409020600101546107f981611329565b6108038383611454565b50505050565b6001600160a01b03811633146108325760405163334bd91960e11b815260040160405180910390fd5b61083c82826114e6565b505050565b6000806060600384604051610856919061190c565b908152602001604051809103902054600585604051610875919061190c565b908152604051908190036020018120546001600160a01b03169060049061089d90889061190c565b90815260200160405180910390208080546108b790611928565b80601f01602080910402602001604051908101604052809291908181526020018280546108e390611928565b80156109305780601f1061090557610100808354040283529160200191610930565b820191906000526020600020905b81548152906001019060200180831161091357829003601f168201915b505050505090509250925092509193909250565b600061098460405180604001604052806006815260200165191a5d995cdd60d21b8152508484604051602001610671929190918252602082015260400190565b816000036109a55760405163162908e360e11b815260040160405180910390fd5b60008381526006602081905260409091209081015460ff166109da5760405163f611219f60e01b815260040160405180910390fd5b336000908152600482016020526040902054831115610a0c57604051633999656760e01b815260040160405180910390fd5b60405163fb895c2160e01b81526001600160a01b037f000000000000000000000000000000000000000000000000000000000000000081166004830152602482018590528493506000917f00000000000000000000000000000000000000000000000000000000000000009091169063fb895c21906044016020604051808303816000875af1158015610aa3573d6000803e3d6000fd5b505050506040513d601f19601f82011682018060405250810190610ac79190611962565b90506000610ad58285611991565b336000908152600485016020526040812080549293508792909190610afb908490611991565b9250508190555084836005016000828254610b169190611991565b909155505060405163a9059cbb60e01b8152336004820152602481018290526000907f00000000000000000000000000000000000000000000000000000000000000006001600160a01b03169063a9059cbb906044016020604051808303816000875af1158015610b8b573d6000803e3d6000fd5b505050506040513d601f19601f82011682018060405250810190610baf91906118ea565b905080610bcf5760405163022e258160e11b815260040160405180910390fd5b6040805187815260208101849052339189917fc170eebcfeaba71246e2ef3defa98586cc7549903bcc196e4713b6fe8a53346091015b60405180910390a35050505092915050565b60015460ff1615610c6f5760405162461bcd60e51b815260206004820152601d60248201527f426173654d6f636b3a20616c726561647920696e697469616c697a656400000060448201526064015b60405180910390fd5b6001805460ff19168117905560405133907f30f7074e868351008998491171b433e7342f255e986fef03e5eec84f01786f0190600090a2565b6000918252602082815260408084206001600160a01b0393909316845291905290205460ff1690565b60007fa49807205ce4d355092ef5a8a18f56e8913cf4a201fbe287825b095693c21775610cfd81611329565b610d376040518060400160405280600b81526020016a18dc99585d19505cdcd95d60aa1b81525085856040516020016106719291906119a4565b600760008154610d46906119c9565b9182905550600081815260066020526040902081815590925060018101610d6d8682611a32565b5060028101610d7c8582611a32565b5060068101805460ff1916600117905560405183907fae225f5622161263f802ed382a9d26a4c940f7c7ceae83d7641f6b53c5d866ad90610dc090889088906119a4565b60405180910390a2505092915050565b600080600383604051610de3919061190c565b908152602001604051809103902054119050919050565b60066020526000908152604090208054600182018054919291610e1c90611928565b80601f0160208091040260200160405190810160405280929190818152602001828054610e4890611928565b8015610e955780601f10610e6a57610100808354040283529160200191610e95565b820191906000526020600020905b815481529060010190602001808311610e7857829003601f168201915b505050505090806002018054610eaa90611928565b80601f0160208091040260200160405190810160405280929190818152602001828054610ed690611928565b8015610f235780601f10610ef857610100808354040283529160200191610f23565b820191906000526020600020905b815481529060010190602001808311610f0657829003601f168201915b50505050600583015460069093015491929160ff16905085565b600082815260208190526040902060010154610f5881611329565b61080383836114e6565b6000610f6d81611329565b600180546001600160a81b0319169055600060028190556040517f47f78a7a0acc7fff3657157dc253c5e6a68550995cc6f47bc2bd707ec67370fb9190a150565b6000610fee604051806040016040528060068152602001651a5b9d995cdd60d21b8152508484604051602001610671929190918252602082015260400190565b8160000361100f5760405163162908e360e11b815260040160405180910390fd5b60008381526006602081905260409091209081015460ff166110445760405163f611219f60e01b815260040160405180910390fd5b60405163739c67a960e11b81526001600160a01b037f000000000000000000000000000000000000000000000000000000000000000081166004830152602482018590526000917f00000000000000000000000000000000000000000000000000000000000000009091169063e738cf52906044016020604051808303816000875af11580156110d8573d6000803e3d6000fd5b505050506040513d601f19601f820116820180604052508101906110fc9190611962565b9050600061110a8286611991565b3360009081526004850160205260408120549195508592500361114f57600383018054600181018255600091825260209091200180546001600160a01b031916331790555b33600090815260048401602052604081208054869290611170908490611af2565b925050819055508383600501600082825461118b9190611af2565b90915550506040516323b872dd60e01b8152336004820152306024820152604481018690526000907f00000000000000000000000000000000000000000000000000000000000000006001600160a01b0316906323b872dd906064016020604051808303816000875af1158015611206573d6000803e3d6000fd5b505050506040513d601f19601f8201168201806040525081019061122a91906118ea565b90508061124a5760405163022e258160e11b815260040160405180910390fd5b6040805183815260208101879052339189917ff31343540affa723d26848192c2f28ab76925951531440b6f2e082030394314f9101610c05565b8051602081830181018051600482529282019190930120915280546112a890611928565b80601f01602080910402602001604051908101604052809291908181526020018280546112d490611928565b80156113215780601f106112f657610100808354040283529160200191611321565b820191906000526020600020905b81548152906001019060200180831161130457829003601f168201915b505050505081565b6113338133611551565b50565b600382604051611346919061190c565b9081526040519081900360200190208054906000611363836119c9565b919050555080600483604051611379919061190c565b908152602001604051809103902090816113939190611a32565b50336005836040516113a5919061190c565b90815260405160209181900391909101902080546001600160a01b0319166001600160a01b039290921691909117905560018054610100600160a81b0319166101003302179055600280549060006113fc836119c9565b9091555050604051339061141190849061190c565b60405180910390207f16b892c3de2f4b54dc114eff5c76ead156bac210353ee82615752957e1317df18360405161144891906118d7565b60405180910390a35050565b60006114608383610ca8565b6114de576000838152602081815260408083206001600160a01b03861684529091529020805460ff191660011790556114963390565b6001600160a01b0316826001600160a01b0316847f2f8788117e7eff1d82e926ec794901d17c78024a50270940304540a733656f0d60405160405180910390a45060016105dd565b5060006105dd565b60006114f28383610ca8565b156114de576000838152602081815260408083206001600160a01b0386168085529252808320805460ff1916905551339286917ff6391f5c32d9c69d2a47ea670b442974b53935d1edc7fd64eb21e047a839171b9190a45060016105dd565b61155b8282610ca8565b61158a5760405163e2517d3f60e01b81526001600160a01b038216600482015260248101839052604401610c66565b5050565b6000602082840312156115a057600080fd5b81356001600160e01b0319811681146115b857600080fd5b9392505050565b80356001600160a01b03811681146115d657600080fd5b919050565b6000806000606084860312156115f057600080fd5b6115f9846115bf565b9250611607602085016115bf565b9150604084013590509250925092565b60006020828403121561162957600080fd5b5035919050565b6020808252825182820181905260009190848201906040850190845b818110156116715783516001600160a01b03168352928401929184019160010161164c565b50909695505050505050565b634e487b7160e01b600052604160045260246000fd5b600082601f8301126116a457600080fd5b813567ffffffffffffffff808211156116bf576116bf61167d565b604051601f8301601f19908116603f011681019082821181831017156116e7576116e761167d565b8160405283815286602085880101111561170057600080fd5b836020870160208301376000602085830101528094505050505092915050565b60006020828403121561173257600080fd5b813567ffffffffffffffff81111561174957600080fd5b61175584828501611693565b949350505050565b6000806040838503121561177057600080fd5b82359150611780602084016115bf565b90509250929050565b60005b838110156117a457818101518382015260200161178c565b50506000910152565b600081518084526117c5816020860160208601611789565b601f01601f19169290920160200192915050565b8381526001600160a01b0383166020820152606060408201819052600090611803908301846117ad565b95945050505050565b6000806040838503121561181f57600080fd5b50508035926020909101359150565b6000806040838503121561184157600080fd5b823567ffffffffffffffff8082111561185957600080fd5b61186586838701611693565b9350602085013591508082111561187b57600080fd5b5061188885828601611693565b9150509250929050565b85815260a0602082015260006118ab60a08301876117ad565b82810360408401526118bd81876117ad565b606084019590955250509015156080909101529392505050565b6020815260006115b860208301846117ad565b6000602082840312156118fc57600080fd5b815180151581146115b857600080fd5b6000825161191e818460208701611789565b9190910192915050565b600181811c9082168061193c57607f821691505b60208210810361195c57634e487b7160e01b600052602260045260246000fd5b50919050565b60006020828403121561197457600080fd5b5051919050565b634e487b7160e01b600052601160045260246000fd5b818103818111156105dd576105dd61197b565b6040815260006119b760408301856117ad565b828103602084015261180381856117ad565b6000600182016119db576119db61197b565b5060010190565b601f82111561083c576000816000526020600020601f850160051c81016020861015611a0b5750805b601f850160051c820191505b81811015611a2a57828155600101611a17565b505050505050565b815167ffffffffffffffff811115611a4c57611a4c61167d565b611a6081611a5a8454611928565b846119e2565b602080601f831160018114611a955760008415611a7d5750858301515b600019600386901b1c1916600185901b178555611a2a565b600085815260208120601f198616915b82811015611ac457888601518255948401946001909101908401611aa5565b5085821015611ae25787850151600019600388901b60f8161c191681555b5050505050600190811b01905550565b808201808211156105dd576105dd61197b56fea26469706673582212208338837831eff2d7358a36888f0cd0a08922a001417b1ddc2d430a7c48ae8d4364736f6c63430008180033",
  "linkReferences": {},
  "deployedLinkReferences": {}
}