{
  "_format": "hh-sol-artifact-1",
  "contractName": "MockAggregatorV3",
  "sourceName": "contracts/mocks/MockAggregatorV3.sol",
  "abi": [
    {
      "inputs": [
        {
          "internalType": "uint8",
          "name": "_decimals",
          "type": "uint8"
        },
        {
          "internalType": "string",
          "name": "_description",
          "type": "string"
        },
        {
          "internalType": "int256",
          "name": "_initialPrice",
          "type": "int256"
        }
      ],
      "stateMutability": "nonpayable",
      "type": "constructor"
    },
    {
      "inputs": [],
      "name": "AccessControlBadConfirmation",
      "type": "error"
    },
    {
      "inputs": [
        {
          "internalType": "address",
          "name": "account",
          "type": "address"
        },
        {
          "internalType": "bytes32",
          "name": "neededRole",
          "type": "bytes32"
        }
      ],
      "name": "AccessControlUnauthorizedAccount",
      "type": "error"
    },
    {
      "anonymous": false,
      "inputs": [
        {
          "indexed": true,
          "internalType": "string",
          "name": "functionName",
          "type": "string"
        },
        {
          "indexed": true,
          "internalType": "address",
          "name": "caller",
          "type": "address"
        },
        {
          "indexed": false,
          "internalType": "bytes",
          "name": "data",
          "type": "bytes"
        }
      ],
      "name": "MockFunctionCalled",
      "type": "event"
    },
    {
      "anonymous": false,
      "inputs": [
        {
          "indexed": true,
          "internalType": "address",
          "name": "caller",
          "type": "address"
        }
      ],
      "name": "MockInitialized",
      "type": "event"
    },
    {
      "anonymous": false,
      "inputs": [],
      "name": "MockStateReset",
      "type": "event"
    },
    {
      "anonymous": false,
      "inputs": [
        {
          "indexed": false,
          "internalType": "int256",
          "name": "price",
          "type": "int256"
        },
        {
          "indexed": false,
          "internalType": "uint256",
          "name": "timestamp",
          "type": "uint256"
        },
        {
          "indexed": false,
          "internalType": "uint80",
          "name": "roundId",
          "type": "uint80"
        }
      ],
      "name": "PriceUpdated",
      "type": "event"
    },
    {
      "anonymous": false,
      "inputs": [
        {
          "indexed": true,
          "internalType": "bytes32",
          "name": "role",
          "type": "bytes32"
        },
        {
          "indexed": true,
          "internalType": "bytes32",
          "name": "previousAdminRole",
          "type": "bytes32"
        },
        {
          "indexed": true,
          "internalType": "bytes32",
          "name": "newAdminRole",
          "type": "bytes32"
        }
      ],
      "name": "RoleAdminChanged",
      "type": "event"
    },
    {
      "anonymous": false,
      "inputs": [
        {
          "indexed": true,
          "internalType": "bytes32",
          "name": "role",
          "type": "bytes32"
        },
        {
          "indexed": true,
          "internalType": "address",
          "name": "account",
          "type": "address"
        },
        {
          "indexed": true,
          "internalType": "address",
          "name": "sender",
          "type": "address"
        }
      ],
      "name": "RoleGranted",
      "type": "event"
    },
    {
      "anonymous": false,
      "inputs": [
        {
          "indexed": true,
          "internalType": "bytes32",
          "name": "role",
          "type": "bytes32"
        },
        {
          "indexed": true,
          "internalType": "address",
          "name": "account",
          "type": "address"
        },
        {
          "indexed": true,
          "internalType": "address",
          "name": "sender",
          "type": "address"
        }
      ],
      "name": "RoleRevoked",
      "type": "event"
    },
    {
      "anonymous": false,
      "inputs": [
        {
          "indexed": false,
          "internalType": "uint256",
          "name": "timestamp",
          "type": "uint256"
        }
      ],
      "name": "TimestampUpdated",
      "type": "event"
    },
    {
      "inputs": [],
      "name": "DEFAULT_ADMIN_ROLE",
      "outputs": [
        {
          "internalType": "bytes32",
          "name": "",
          "type": "bytes32"
        }
      ],
      "stateMutability": "view",
      "type": "function"
    },
    {
      "inputs": [],
      "name": "callCount",
      "outputs": [
        {
          "internalType": "uint256",
          "name": "",
          "type": "uint256"
        }
      ],
      "stateMutability": "view",
      "type": "function"
    },
    {
      "inputs": [],
      "name": "decimals",
      "outputs": [
        {
          "internalType": "uint8",
          "name": "",
          "type": "uint8"
        }
      ],
      "stateMutability": "view",
      "type": "function"
    },
    {
      "inputs": [],
      "name": "description",
      "outputs": [
        {
          "internalType": "string",
          "name": "",
          "type": "string"
        }
      ],
      "stateMutability": "view",
      "type": "function"
    },
    {
      "inputs": [
        {
          "internalType": "string",
          "name": "",
          "type": "string"
        }
      ],
      "name": "functionCallCount",
      "outputs": [
        {
          "internalType": "uint256",
          "name": "",
          "type": "uint256"
        }
      ],
      "stateMutability": "view",
      "type": "function"
    },
    {
      "inputs": [
        {
          "internalType": "string",
          "name": "functionName",
          "type": "string"
        }
      ],
      "name": "getFunctionCallCount",
      "outputs": [
        {
          "internalType": "uint256",
          "name": "",
          "type": "uint256"
        }
      ],
      "stateMutability": "view",
      "type": "function"
    },
    {
      "inputs": [
        {
          "internalType": "string",
          "name": "functionName",
          "type": "string"
        }
      ],
      "name": "getFunctionCallHistory",
      "outputs": [
        {
          "internalType": "uint256",
          "name": "count",
          "type": "uint256"
        },
        {
          "internalType": "address",
          "name": "lastCaller_",
          "type": "address"
        },
        {
          "internalType": "bytes",
          "name": "lastData",
          "type": "bytes"
        }
      ],
      "stateMutability": "view",
      "type": "function"
    },
    {
      "inputs": [
        {
          "internalType": "bytes32",
          "name": "role",
          "type": "bytes32"
        }
      ],
      "name": "getRoleAdmin",
      "outputs": [
        {
          "internalType": "bytes32",
          "name": "",
          "type": "bytes32"
        }
      ],
      "stateMutability": "view",
      "type": "function"
    },
    {
      "inputs": [
        {
          "internalType": "uint80",
          "name": "_roundId",
          "type": "uint80"
        }
      ],
      "name": "getRoundData",
      "outputs": [
        {
          "internalType": "uint80",
          "name": "roundId_",
          "type": "uint80"
        },
        {
          "internalType": "int256",
          "name": "answer",
          "type": "int256"
        },
        {
          "internalType": "uint256",
          "name": "startedAt",
          "type": "uint256"
        },
        {
          "internalType": "uint256",
          "name": "updatedAt",
          "type": "uint256"
        },
        {
          "internalType": "uint80",
          "name": "answeredInRound",
          "type": "uint80"
        }
      ],
      "stateMutability": "view",
      "type": "function"
    },
    {
      "inputs": [
        {
          "internalType": "bytes32",
          "name": "role",
          "type": "bytes32"
        },
        {
          "internalType": "address",
          "name": "account",
          "type": "address"
        }
      ],
      "name": "grantRole",
      "outputs": [],
      "stateMutability": "nonpayable",
      "type": "function"
    },
    {
      "inputs": [
        {
          "internalType": "bytes32",
          "name": "role",
          "type": "bytes32"
        },
        {
          "internalType": "address",
          "name": "account",
          "type": "address"
        }
      ],
      "name": "hasRole",
      "outputs": [
        {
          "internalType": "bool",
          "name": "",
          "type": "bool"
        }
      ],
      "stateMutability": "view",
      "type": "function"
    },
    {
      "inputs": [],
      "name": "initialize",
      "outputs": [],
      "stateMutability": "nonpayable",
      "type": "function"
    },
    {
      "inputs": [],
      "name": "initialized",
      "outputs": [
        {
          "internalType": "bool",
          "name": "",
          "type": "bool"
        }
      ],
      "stateMutability": "view",
      "type": "function"
    },
    {
      "inputs": [
        {
          "internalType": "string",
          "name": "",
          "type": "string"
        }
      ],
      "name": "lastCallData",
      "outputs": [
        {
          "internalType": "bytes",
          "name": "",
          "type": "bytes"
        }
      ],
      "stateMutability": "view",
      "type": "function"
    },
    {
      "inputs": [],
      "name": "lastCaller",
      "outputs": [
        {
          "internalType": "address",
          "name": "",
          "type": "address"
        }
      ],
      "stateMutability": "view",
      "type": "function"
    },
    {
      "inputs": [
        {
          "internalType": "string",
          "name": "",
          "type": "string"
        }
      ],
      "name": "lastCallerByFunction",
      "outputs": [
        {
          "internalType": "address",
          "name": "",
          "type": "address"
        }
      ],
      "stateMutability": "view",
      "type": "function"
    },
    {
      "inputs": [],
      "name": "latestRoundData",
      "outputs": [
        {
          "internalType": "uint80",
          "name": "roundId_",
          "type": "uint80"
        },
        {
          "internalType": "int256",
          "name": "answer",
          "type": "int256"
        },
        {
          "internalType": "uint256",
          "name": "startedAt",
          "type": "uint256"
        },
        {
          "internalType": "uint256",
          "name": "updatedAt",
          "type": "uint256"
        },
        {
          "internalType": "uint80",
          "name": "answeredInRound",
          "type": "uint80"
        }
      ],
      "stateMutability": "view",
      "type": "function"
    },
    {
      "inputs": [
        {
          "internalType": "bytes32",
          "name": "role",
          "type": "bytes32"
        },
        {
          "internalType": "address",
          "name": "callerConfirmation",
          "type": "address"
        }
      ],
      "name": "renounceRole",
      "outputs": [],
      "stateMutability": "nonpayable",
      "type": "function"
    },
    {
      "inputs": [],
      "name": "reset",
      "outputs": [],
      "stateMutability": "nonpayable",
      "type": "function"
    },
    {
      "inputs": [
        {
          "internalType": "bytes32",
          "name": "role",
          "type": "bytes32"
        },
        {
          "internalType": "address",
          "name": "account",
          "type": "address"
        }
      ],
      "name": "revokeRole",
      "outputs": [],
      "stateMutability": "nonpayable",
      "type": "function"
    },
    {
      "inputs": [
        {
          "internalType": "int256",
          "name": "_price",
          "type": "int256"
        }
      ],
      "name": "setPrice",
      "outputs": [],
      "stateMutability": "nonpayable",
      "type": "function"
    },
    {
      "inputs": [
        {
          "internalType": "uint256",
          "name": "_timestamp",
          "type": "uint256"
        }
      ],
      "name": "setTimestamp",
      "outputs": [],
      "stateMutability": "nonpayable",
      "type": "function"
    },
    {
      "inputs": [
        {
          "internalType": "uint256",
          "name": "timestamp",
          "type": "uint256"
        }
      ],
      "name": "setUpdatedAt",
      "outputs": [],
      "stateMutability": "nonpayable",
      "type": "function"
    },
    {
      "inputs": [
        {
          "internalType": "bytes4",
          "name": "interfaceId",
          "type": "bytes4"
        }
      ],
      "name": "supportsInterface",
      "outputs": [
        {
          "internalType": "bool",
          "name": "",
          "type": "bool"
        }
      ],
      "stateMutability": "view",
      "type": "function"
    },
    {
      "inputs": [
        {
          "internalType": "uint256",
          "name": "newVersion",
          "type": "uint256"
        }
      ],
      "name": "updateVersion",
      "outputs": [],
      "stateMutability": "nonpayable",
      "type": "function"
    },
    {
      "inputs": [],
      "name": "version",
      "outputs": [
        {
          "internalType": "uint256",
          "name": "",
          "type": "uint256"
        }
      ],
      "stateMutability": "view",
      "type": "function"
    },
    {
      "inputs": [
        {
          "internalType": "string",
          "name": "functionName",
          "type": "string"
        }
      ],
      "name": "wasFunctionCalled",
      "outputs": [
        {
          "internalType": "bool",
          "name": "",
          "type": "bool"
        }
      ],
      "stateMutability": "view",
      "type": "function"
    }
  ],
  "bytecode": "0x608060405260016008819055600980546001600160501b03191690911790553480156200002b57600080fd5b5060405162001419380380620014198339810160408190526200004e916200014e565b6200005b60003362000089565b506006805460ff191660ff85161790556007620000798382620002d8565b50600a55505042600b55620003a4565b6000828152602081815260408083206001600160a01b038516845290915281205460ff166200012e576000838152602081815260408083206001600160a01b03861684529091529020805460ff19166001179055620000e53390565b6001600160a01b0316826001600160a01b0316847f2f8788117e7eff1d82e926ec794901d17c78024a50270940304540a733656f0d60405160405180910390a450600162000132565b5060005b92915050565b634e487b7160e01b600052604160045260246000fd5b6000806000606084860312156200016457600080fd5b835160ff811681146200017657600080fd5b602085810151919450906001600160401b03808211156200019657600080fd5b818701915087601f830112620001ab57600080fd5b815181811115620001c057620001c062000138565b604051601f8201601f19908116603f01168101908382118183101715620001eb57620001eb62000138565b816040528281528a868487010111156200020457600080fd5b600093505b8284101562000228578484018601518185018701529285019262000209565b6000868483010152809750505050505050604084015190509250925092565b600181811c908216806200025c57607f821691505b6020821081036200027d57634e487b7160e01b600052602260045260246000fd5b50919050565b601f821115620002d3576000816000526020600020601f850160051c81016020861015620002ae5750805b601f850160051c820191505b81811015620002cf57828155600101620002ba565b5050505b505050565b81516001600160401b03811115620002f457620002f462000138565b6200030c8162000305845462000247565b8462000283565b602080601f8311600181146200034457600084156200032b5750858301515b600019600386901b1c1916600185901b178555620002cf565b600085815260208120601f198616915b82811015620003755788860151825594840194600190910190840162000354565b5085821015620003945787850151600019600388901b60f8161c191681555b5050505050600190811b01905550565b61106580620003b46000396000f3fe608060405234801561001057600080fd5b50600436106101a95760003560e01c806354fd4d50116100f9578063a87f884e11610097578063d826f88f11610071578063d826f88f1461041b578063dfdbdd5014610423578063f7a3080614610436578063feaf968c1461044957600080fd5b8063a87f884e146103e2578063c054c6ce146103f5578063d547741f1461040857600080fd5b806391d14854116100d357806391d14854146103615780639a6fc8f514610374578063a0a2b573146103c7578063a217fddf146103da57600080fd5b806354fd4d501461033b5780637284e416146103445780638129fc1c1461035957600080fd5b8063248a9ca31161016657806336568abe1161014057806336568abe146102d25780633ca3910c146102e5578063422b010b146103075780634b28f9a21461033257600080fd5b8063248a9ca31461027d5780632f2ff15d146102a0578063313ce567146102b357600080fd5b806301ffc9a7146101ae578063158ef93e146101d65780631a82a643146101e35780631df86bc6146102045780631ecc7d88146102505780632113522a14610265575b600080fd5b6101c16101bc366004610c68565b610465565b60405190151581526020015b60405180910390f35b6001546101c19060ff1681565b6101f66101f1366004610caf565b61049c565b6040519081526020016101cd565b610238610212366004610caf565b80516020818301810180516005825292820191909301209152546001600160a01b031681565b6040516001600160a01b0390911681526020016101cd565b61026361025e366004610d60565b6104c4565b005b6001546102389061010090046001600160a01b031681565b6101f661028b366004610d60565b60009081526020819052604090206001015490565b6102636102ae366004610d79565b610518565b6006546102c09060ff1681565b60405160ff90911681526020016101cd565b6102636102e0366004610d79565b610543565b6102f86102f3366004610caf565b61057b565b6040516101cd93929190610e05565b6101f6610315366004610caf565b805160208183018101805160038252928201919093012091525481565b6101f660025481565b6101f660085481565b61034c61067e565b6040516101cd9190610e38565b61026361070c565b6101c161036f366004610d79565b61079d565b610393610382366004610e4b565b600a54600b54919290919081908490565b604080516001600160501b03968716815260208101959095528401929092526060830152909116608082015260a0016101cd565b6102636103d5366004610d60565b6107c6565b6101f6600081565b6102636103f0366004610d60565b61083d565b6101c1610403366004610caf565b61087e565b610263610416366004610d79565b6108a8565b6102636108cd565b61034c610431366004610caf565b610919565b610263610444366004610d60565b61093d565b600954600a54600b546001600160501b03909216918083610393565b60006001600160e01b03198216637965db0b60e01b148061049657506301ffc9a760e01b6001600160e01b03198316145b92915050565b60006003826040516104ae9190610e74565b9081526020016040518091039020549050919050565b6105136040518060400160405280600c81526020016b1cd95d155c19185d1959105d60a21b815250826040516020016104ff91815260200190565b604051602081830303815290604052610a03565b600c55565b60008281526020819052604090206001015461053381610b21565b61053d8383610b2e565b50505050565b6001600160a01b038116331461056c5760405163334bd91960e11b815260040160405180910390fd5b6105768282610bc0565b505050565b60008060606003846040516105909190610e74565b9081526020016040518091039020546005856040516105af9190610e74565b908152604051908190036020018120546001600160a01b0316906004906105d7908890610e74565b90815260200160405180910390208080546105f190610e90565b80601f016020809104026020016040519081016040528092919081815260200182805461061d90610e90565b801561066a5780601f1061063f5761010080835404028352916020019161066a565b820191906000526020600020905b81548152906001019060200180831161064d57829003601f168201915b505050505090509250925092509193909250565b6007805461068b90610e90565b80601f01602080910402602001604051908101604052809291908181526020018280546106b790610e90565b80156107045780601f106106d957610100808354040283529160200191610704565b820191906000526020600020905b8154815290600101906020018083116106e757829003601f168201915b505050505081565b60015460ff16156107645760405162461bcd60e51b815260206004820152601d60248201527f426173654d6f636b3a20616c726561647920696e697469616c697a656400000060448201526064015b60405180910390fd5b6001805460ff19168117905560405133907f30f7074e868351008998491171b433e7342f255e986fef03e5eec84f01786f0190600090a2565b6000918252602082815260408084206001600160a01b0393909316845291905290205460ff1690565b6108016040518060400160405280600c81526020016b073657454696d657374616d760a41b815250826040516020016104ff91815260200190565b600b8190556040518181527f23d74789e9e72a6c6bd7bef034f43002da342ca24d96afca64e4a4272af52318906020015b60405180910390a150565b6108796040518060400160405280600d81526020016c3ab83230ba32ab32b939b4b7b760991b815250826040516020016104ff91815260200190565b600d55565b6000806003836040516108919190610e74565b908152602001604051809103902054119050919050565b6000828152602081905260409020600101546108c381610b21565b61053d8383610bc0565b60006108d881610b21565b600180546001600160a81b0319169055600060028190556040517f47f78a7a0acc7fff3657157dc253c5e6a68550995cc6f47bc2bd707ec67370fb9190a150565b80516020818301810180516004825292820191909301209152805461068b90610e90565b61097460405180604001604052806008815260200167736574507269636560c01b815250826040516020016104ff91815260200190565b600a81905542600b55600980546001600160501b031690600061099683610ee0565b82546101009290920a6001600160501b03818102199093169183160217909155600a54600b54600954604080519384526020840192909252909216918101919091527fd7d962d546f0feee9ea001b0cfd51ea29d81932998bcd9e8541240d1705cec749150606001610832565b600382604051610a139190610e74565b9081526040519081900360200190208054906000610a3083610f06565b919050555080600483604051610a469190610e74565b90815260200160405180910390209081610a609190610f6f565b5033600583604051610a729190610e74565b90815260405160209181900391909101902080546001600160a01b0319166001600160a01b039290921691909117905560018054610100600160a81b031916610100330217905560028054906000610ac983610f06565b90915550506040513390610ade908490610e74565b60405180910390207f16b892c3de2f4b54dc114eff5c76ead156bac210353ee82615752957e1317df183604051610b159190610e38565b60405180910390a35050565b610b2b8133610c2b565b50565b6000610b3a838361079d565b610bb8576000838152602081815260408083206001600160a01b03861684529091529020805460ff19166001179055610b703390565b6001600160a01b0316826001600160a01b0316847f2f8788117e7eff1d82e926ec794901d17c78024a50270940304540a733656f0d60405160405180910390a4506001610496565b506000610496565b6000610bcc838361079d565b15610bb8576000838152602081815260408083206001600160a01b0386168085529252808320805460ff1916905551339286917ff6391f5c32d9c69d2a47ea670b442974b53935d1edc7fd64eb21e047a839171b9190a4506001610496565b610c35828261079d565b610c645760405163e2517d3f60e01b81526001600160a01b03821660048201526024810183905260440161075b565b5050565b600060208284031215610c7a57600080fd5b81356001600160e01b031981168114610c9257600080fd5b9392505050565b634e487b7160e01b600052604160045260246000fd5b600060208284031215610cc157600080fd5b813567ffffffffffffffff80821115610cd957600080fd5b818401915084601f830112610ced57600080fd5b813581811115610cff57610cff610c99565b604051601f8201601f19908116603f01168101908382118183101715610d2757610d27610c99565b81604052828152876020848701011115610d4057600080fd5b826020860160208301376000928101602001929092525095945050505050565b600060208284031215610d7257600080fd5b5035919050565b60008060408385031215610d8c57600080fd5b8235915060208301356001600160a01b0381168114610daa57600080fd5b809150509250929050565b60005b83811015610dd0578181015183820152602001610db8565b50506000910152565b60008151808452610df1816020860160208601610db5565b601f01601f19169290920160200192915050565b8381526001600160a01b0383166020820152606060408201819052600090610e2f90830184610dd9565b95945050505050565b602081526000610c926020830184610dd9565b600060208284031215610e5d57600080fd5b81356001600160501b0381168114610c9257600080fd5b60008251610e86818460208701610db5565b9190910192915050565b600181811c90821680610ea457607f821691505b602082108103610ec457634e487b7160e01b600052602260045260246000fd5b50919050565b634e487b7160e01b600052601160045260246000fd5b60006001600160501b03808316818103610efc57610efc610eca565b6001019392505050565b600060018201610f1857610f18610eca565b5060010190565b601f821115610576576000816000526020600020601f850160051c81016020861015610f485750805b601f850160051c820191505b81811015610f6757828155600101610f54565b505050505050565b815167ffffffffffffffff811115610f8957610f89610c99565b610f9d81610f978454610e90565b84610f1f565b602080601f831160018114610fd25760008415610fba5750858301515b600019600386901b1c1916600185901b178555610f67565b600085815260208120601f198616915b8281101561100157888601518255948401946001909101908401610fe2565b508582101561101f5787850151600019600388901b60f8161c191681555b5050505050600190811b0190555056fea264697066735822122090f240b873f1d54b0b813cad452ce109ca83febba8105055ffb0ed4a4dbeedaa64736f6c63430008180033",
  "linkReferences": {},
  "deployedLinkReferences": {}
}