{
  "_format": "hh-sol-artifact-1",
  "contractName": "MockPreviousGovernance",
  "sourceName": "contracts/mocks/MockPreviousGovernance.sol",
  "abi": [
    {
      "anonymous": false,
      "inputs": [
        {
          "indexed": false,
          "internalType": "address[]",
          "name": "nodeAddresses",
          "type": "address[]"
        },
        {
          "indexed": false,
          "internalType": "uint8[]",
          "name": "states",
          "type": "uint8[]"
        }
      ],
      "name": "BatchNodeStateUpdated",
      "type": "event"
    },
    {
      "anonymous": false,
      "inputs": [
        {
          "indexed": false,
          "internalType": "address",
          "name": "nodeAddress",
          "type": "address"
        },
        {
          "indexed": false,
          "internalType": "uint8",
          "name": "state",
          "type": "uint8"
        }
      ],
      "name": "NodeStateUpdated",
      "type": "event"
    },
    {
      "inputs": [
        {
          "internalType": "address",
          "name": "registry",
          "type": "address"
        },
        {
          "internalType": "address[]",
          "name": "nodeAddresses",
          "type": "address[]"
        },
        {
          "internalType": "uint8[]",
          "name": "states",
          "type": "uint8[]"
        }
      ],
      "name": "batchUpdateNodeState",
      "outputs": [],
      "stateMutability": "nonpayable",
      "type": "function"
    },
    {
      "inputs": [
        {
          "internalType": "address",
          "name": "registry",
          "type": "address"
        },
        {
          "internalType": "address",
          "name": "nodeAddress",
          "type": "address"
        },
        {
          "internalType": "uint8",
          "name": "state",
          "type": "uint8"
        }
      ],
      "name": "updateNodeState",
      "outputs": [],
      "stateMutability": "nonpayable",
      "type": "function"
    }
  ],
  "bytecode": "0x608060405234801561001057600080fd5b506105f6806100206000396000f3fe608060405234801561001057600080fd5b50600436106100365760003560e01c80634613ed401461003b578063e0fb182914610050575b600080fd5b61004e6100493660046103a1565b610063565b005b61004e61005e366004610430565b61019a565b6040516001600160a01b03838116602483015260ff831660448301526000919085169060640160408051601f198184030181529181526020820180516001600160e01b03166338510b8160e01b179052516100be91906104b1565b6000604051808303816000865af19150503d80600081146100fb576040519150601f19603f3d011682016040523d82523d6000602084013e610100565b606091505b50509050806101505760405162461bcd60e51b815260206004820152601760248201527610d85b1b081d1bc81c9959da5cdd1c9e4819985a5b1959604a1b60448201526064015b60405180910390fd5b604080516001600160a01b038516815260ff841660208201527f926f56496808c3b84cd3c9217d38c2ad5fa6a2645604a7d15df841ca248213e7910160405180910390a150505050565b8281146101e15760405162461bcd60e51b8152602060048201526015602482015274082e4e4c2f240d8cadccee8d040dad2e6dac2e8c6d605b1b6044820152606401610147565b60005b8381101561032f576000866001600160a01b031686868481811061020a5761020a6104e0565b905060200201602081019061021f91906104f6565b858585818110610231576102316104e0565b90506020020160208101906102469190610518565b6040516001600160a01b03909216602483015260ff16604482015260640160408051601f198184030181529181526020820180516001600160e01b03166338510b8160e01b1790525161029991906104b1565b6000604051808303816000865af19150503d80600081146102d6576040519150601f19603f3d011682016040523d82523d6000602084013e6102db565b606091505b50509050806103265760405162461bcd60e51b815260206004820152601760248201527610d85b1b081d1bc81c9959da5cdd1c9e4819985a5b1959604a1b6044820152606401610147565b506001016101e4565b507f97f2bff6ab478e968138f92b18b89b796dbaf544ee826f17f8137c72227be6b3848484846040516103659493929190610533565b60405180910390a15050505050565b80356001600160a01b038116811461038b57600080fd5b919050565b803560ff8116811461038b57600080fd5b6000806000606084860312156103b657600080fd5b6103bf84610374565b92506103cd60208501610374565b91506103db60408501610390565b90509250925092565b60008083601f8401126103f657600080fd5b50813567ffffffffffffffff81111561040e57600080fd5b6020830191508360208260051b850101111561042957600080fd5b9250929050565b60008060008060006060868803121561044857600080fd5b61045186610374565b9450602086013567ffffffffffffffff8082111561046e57600080fd5b61047a89838a016103e4565b9096509450604088013591508082111561049357600080fd5b506104a0888289016103e4565b969995985093965092949392505050565b6000825160005b818110156104d257602081860181015185830152016104b8565b506000920191825250919050565b634e487b7160e01b600052603260045260246000fd5b60006020828403121561050857600080fd5b61051182610374565b9392505050565b60006020828403121561052a57600080fd5b61051182610390565b6040808252810184905260008560608301825b87811015610574576001600160a01b0361055f84610374565b16825260209283019290910190600101610546565b5083810360208581019190915285825291508590820160005b868110156105b35760ff6105a084610390565b168252918301919083019060010161058d565b509897505050505050505056fea264697066735822122014d3de0e75f5ecd89f637aae74896a05b90486c3382474c85a6bd2f05bafae4764736f6c63430008180033",
  "linkReferences": {},
  "deployedLinkReferences": {}
}