{
  "_format": "hh-sol-artifact-1",
  "contractName": "MaliciousToken",
  "sourceName": "contracts/mocks/MaliciousToken.sol",
  "abi": [
    {
      "inputs": [
        {
          "internalType": "address",
          "name": "_targetContract",
          "type": "address"
        }
      ],
      "stateMutability": "nonpayable",
      "type": "constructor"
    },
    {
      "inputs": [
        {
          "internalType": "address",
          "name": "spender",
          "type": "address"
        },
        {
          "internalType": "uint256",
          "name": "allowance",
          "type": "uint256"
        },
        {
          "internalType": "uint256",
          "name": "needed",
          "type": "uint256"
        }
      ],
      "name": "ERC20InsufficientAllowance",
      "type": "error"
    },
    {
      "inputs": [
        {
          "internalType": "address",
          "name": "sender",
          "type": "address"
        },
        {
          "internalType": "uint256",
          "name": "balance",
          "type": "uint256"
        },
        {
          "internalType": "uint256",
          "name": "needed",
          "type": "uint256"
        }
      ],
      "name": "ERC20InsufficientBalance",
      "type": "error"
    },
    {
      "inputs": [
        {
          "internalType": "address",
          "name": "approver",
          "type": "address"
        }
      ],
      "name": "ERC20InvalidApprover",
      "type": "error"
    },
    {
      "inputs": [
        {
          "internalType": "address",
          "name": "receiver",
          "type": "address"
        }
      ],
      "name": "ERC20InvalidReceiver",
      "type": "error"
    },
    {
      "inputs": [
        {
          "internalType": "address",
          "name": "sender",
          "type": "address"
        }
      ],
      "name": "ERC20InvalidSender",
      "type": "error"
    },
    {
      "inputs": [
        {
          "internalType": "address",
          "name": "spender",
          "type": "address"
        }
      ],
      "name": "ERC20InvalidSpender",
      "type": "error"
    },
    {
      "anonymous": false,
      "inputs": [
        {
          "indexed": true,
          "internalType": "address",
          "name": "owner",
          "type": "address"
        },
        {
          "indexed": true,
          "internalType": "address",
          "name": "spender",
          "type": "address"
        },
        {
          "indexed": false,
          "internalType": "uint256",
          "name": "value",
          "type": "uint256"
        }
      ],
      "name": "Approval",
      "type": "event"
    },
    {
      "anonymous": false,
      "inputs": [
        {
          "indexed": true,
          "internalType": "address",
          "name": "from",
          "type": "address"
        },
        {
          "indexed": true,
          "internalType": "address",
          "name": "to",
          "type": "address"
        },
        {
          "indexed": false,
          "internalType": "uint256",
          "name": "value",
          "type": "uint256"
        }
      ],
      "name": "Transfer",
      "type": "event"
    },
    {
      "inputs": [
        {
          "internalType": "address",
          "name": "owner",
          "type": "address"
        },
        {
          "internalType": "address",
          "name": "spender",
          "type": "address"
        }
      ],
      "name": "allowance",
      "outputs": [
        {
          "internalType": "uint256",
          "name": "",
          "type": "uint256"
        }
      ],
      "stateMutability": "view",
      "type": "function"
    },
    {
      "inputs": [
        {
          "internalType": "address",
          "name": "spender",
          "type": "address"
        },
        {
          "internalType": "uint256",
          "name": "value",
          "type": "uint256"
        }
      ],
      "name": "approve",
      "outputs": [
        {
          "internalType": "bool",
          "name": "",
          "type": "bool"
        }
      ],
      "stateMutability": "nonpayable",
      "type": "function"
    },
    {
      "inputs": [],
      "name": "attackActive",
      "outputs": [
        {
          "internalType": "bool",
          "name": "",
          "type": "bool"
        }
      ],
      "stateMutability": "view",
      "type": "function"
    },
    {
      "inputs": [
        {
          "internalType": "address",
          "name": "account",
          "type": "address"
        }
      ],
      "name": "balanceOf",
      "outputs": [
        {
          "internalType": "uint256",
          "name": "",
          "type": "uint256"
        }
      ],
      "stateMutability": "view",
      "type": "function"
    },
    {
      "inputs": [],
      "name": "decimals",
      "outputs": [
        {
          "internalType": "uint8",
          "name": "",
          "type": "uint8"
        }
      ],
      "stateMutability": "view",
      "type": "function"
    },
    {
      "inputs": [],
      "name": "name",
      "outputs": [
        {
          "internalType": "string",
          "name": "",
          "type": "string"
        }
      ],
      "stateMutability": "view",
      "type": "function"
    },
    {
      "inputs": [
        {
          "internalType": "bool",
          "name": "_attackActive",
          "type": "bool"
        }
      ],
      "name": "setAttackActive",
      "outputs": [],
      "stateMutability": "nonpayable",
      "type": "function"
    },
    {
      "inputs": [
        {
          "internalType": "address",
          "name": "_targetContract",
          "type": "address"
        }
      ],
      "name": "setTargetContract",
      "outputs": [],
      "stateMutability": "nonpayable",
      "type": "function"
    },
    {
      "inputs": [],
      "name": "symbol",
      "outputs": [
        {
          "internalType": "string",
          "name": "",
          "type": "string"
        }
      ],
      "stateMutability": "view",
      "type": "function"
    },
    {
      "inputs": [],
      "name": "targetContract",
      "outputs": [
        {
          "internalType": "address",
          "name": "",
          "type": "address"
        }
      ],
      "stateMutability": "view",
      "type": "function"
    },
    {
      "inputs": [],
      "name": "totalSupply",
      "outputs": [
        {
          "internalType": "uint256",
          "name": "",
          "type": "uint256"
        }
      ],
      "stateMutability": "view",
      "type": "function"
    },
    {
      "inputs": [
        {
          "internalType": "address",
          "name": "recipient",
          "type": "address"
        },
        {
          "internalType": "uint256",
          "name": "amount",
          "type": "uint256"
        }
      ],
      "name": "transfer",
      "outputs": [
        {
          "internalType": "bool",
          "name": "",
          "type": "bool"
        }
      ],
      "stateMutability": "nonpayable",
      "type": "function"
    },
    {
      "inputs": [
        {
          "internalType": "address",
          "name": "from",
          "type": "address"
        },
        {
          "internalType": "address",
          "name": "to",
          "type": "address"
        },
        {
          "internalType": "uint256",
          "name": "value",
          "type": "uint256"
        }
      ],
      "name": "transferFrom",
      "outputs": [
        {
          "internalType": "bool",
          "name": "",
          "type": "bool"
        }
      ],
      "stateMutability": "nonpayable",
      "type": "function"
    }
  ],
  "bytecode": "0x60806040523480156200001157600080fd5b5060405162000d8338038062000d83833981016040819052620000349162000248565b604051806040016040528060098152602001684d616c6963696f757360b81b8152506040518060400160405280600381526020016213505360ea1b815250816003908162000083919062000321565b50600462000092828262000321565b5050600580546001600160a81b0319166001600160a01b03841617600160a01b17905550620000cc3369d3c21bcecceda1000000620000d3565b5062000415565b6001600160a01b038216620001035760405163ec442f0560e01b8152600060048201526024015b60405180910390fd5b620001116000838362000115565b5050565b6001600160a01b03831662000144578060026000828254620001389190620003ed565b90915550620001b89050565b6001600160a01b03831660009081526020819052604090205481811015620001995760405163391434e360e21b81526001600160a01b03851660048201526024810182905260448101839052606401620000fa565b6001600160a01b03841660009081526020819052604090209082900390555b6001600160a01b038216620001d657600280548290039055620001f5565b6001600160a01b03821660009081526020819052604090208054820190555b816001600160a01b0316836001600160a01b03167fddf252ad1be2c89b69c2b068fc378daa952ba7f163c4a11628f55a4df523b3ef836040516200023b91815260200190565b60405180910390a3505050565b6000602082840312156200025b57600080fd5b81516001600160a01b03811681146200027357600080fd5b9392505050565b634e487b7160e01b600052604160045260246000fd5b600181811c90821680620002a557607f821691505b602082108103620002c657634e487b7160e01b600052602260045260246000fd5b50919050565b601f8211156200031c576000816000526020600020601f850160051c81016020861015620002f75750805b601f850160051c820191505b81811015620003185782815560010162000303565b5050505b505050565b81516001600160401b038111156200033d576200033d6200027a565b62000355816200034e845462000290565b84620002cc565b602080601f8311600181146200038d5760008415620003745750858301515b600019600386901b1c1916600185901b17855562000318565b600085815260208120601f198616915b82811015620003be578886015182559484019460019091019084016200039d565b5085821015620003dd5787850151600019600388901b60f8161c191681555b5050505050600190811b01905550565b808201808211156200040f57634e487b7160e01b600052601160045260246000fd5b92915050565b61095e80620004256000396000f3fe608060405234801561001057600080fd5b50600436106100cf5760003560e01c806359527a181161008c57806395d89b411161006657806395d89b41146101ce578063a9059cbb146101d6578063bd90df70146101e9578063dd62ed3e1461021457600080fd5b806359527a181461017b5780636116e1ed146101a757806370a08231146101bb57600080fd5b806306fdde03146100d4578063095ea7b3146100f257806318160ddd1461011557806323b872dd14610127578063313ce5671461013a57806347fc822f14610149575b600080fd5b6100dc61024d565b6040516100e9919061078c565b60405180910390f35b6101056101003660046107db565b6102df565b60405190151581526020016100e9565b6002545b6040519081526020016100e9565b610105610135366004610805565b6102f9565b604051601281526020016100e9565b610179610157366004610841565b600580546001600160a01b0319166001600160a01b0392909216919091179055565b005b61017961018936600461085c565b60058054911515600160a01b0260ff60a01b19909216919091179055565b60055461010590600160a01b900460ff1681565b6101196101c9366004610841565b61031d565b6100dc61035d565b6101056101e43660046107db565b61036c565b6005546101fc906001600160a01b031681565b6040516001600160a01b0390911681526020016100e9565b61011961022236600461087e565b6001600160a01b03918216600090815260016020908152604080832093909416825291909152205490565b60606003805461025c906108b1565b80601f0160208091040260200160405190810160405280929190818152602001828054610288906108b1565b80156102d55780601f106102aa576101008083540402835291602001916102d5565b820191906000526020600020905b8154815290600101906020018083116102b857829003601f168201915b5050505050905090565b6000336102ed818585610466565b60019150505b92915050565b600033610307858285610478565b6103128585856104fc565b506001949350505050565b6000306001600160a01b0383160361033f5750683635c9adc5dea00000919050565b6001600160a01b0382166000908152602081905260409020546102f3565b60606004805461025c906108b1565b600554600090600160a01b900460ff16801561039257506005546001600160a01b031633145b15610455576005805460ff60a01b198116909155604051306024820152604481018490526000916001600160a01b03169060640160408051601f198184030181529181526020820180516001600160e01b031663034e4fd760e11b179052516103fb91906108eb565b6000604051808303816000865af19150503d8060008114610438576040519150601f19603f3d011682016040523d82523d6000602084013e61043d565b606091505b50506005805460ff60a01b1916600160a01b17905550505b61045f838361055b565b9392505050565b6104738383836001610569565b505050565b6001600160a01b038381166000908152600160209081526040808320938616835292905220546000198110156104f657818110156104e757604051637dc7a0d960e11b81526001600160a01b038416600482015260248101829052604481018390526064015b60405180910390fd5b6104f684848484036000610569565b50505050565b6001600160a01b03831661052657604051634b637e8f60e11b8152600060048201526024016104de565b6001600160a01b0382166105505760405163ec442f0560e01b8152600060048201526024016104de565b61047383838361063e565b6000336102ed8185856104fc565b6001600160a01b0384166105935760405163e602df0560e01b8152600060048201526024016104de565b6001600160a01b0383166105bd57604051634a1406b160e11b8152600060048201526024016104de565b6001600160a01b03808516600090815260016020908152604080832093871683529290522082905580156104f657826001600160a01b0316846001600160a01b03167f8c5be1e5ebec7d5bd14f71427d1e84f3dd0314c0f7b2291e5b200ac8c7c3b9258460405161063091815260200190565b60405180910390a350505050565b6001600160a01b03831661066957806002600082825461065e9190610907565b909155506106db9050565b6001600160a01b038316600090815260208190526040902054818110156106bc5760405163391434e360e21b81526001600160a01b038516600482015260248101829052604481018390526064016104de565b6001600160a01b03841660009081526020819052604090209082900390555b6001600160a01b0382166106f757600280548290039055610716565b6001600160a01b03821660009081526020819052604090208054820190555b816001600160a01b0316836001600160a01b03167fddf252ad1be2c89b69c2b068fc378daa952ba7f163c4a11628f55a4df523b3ef8360405161075b91815260200190565b60405180910390a3505050565b60005b8381101561078357818101518382015260200161076b565b50506000910152565b60208152600082518060208401526107ab816040850160208701610768565b601f01601f19169190910160400192915050565b80356001600160a01b03811681146107d657600080fd5b919050565b600080604083850312156107ee57600080fd5b6107f7836107bf565b946020939093013593505050565b60008060006060848603121561081a57600080fd5b610823846107bf565b9250610831602085016107bf565b9150604084013590509250925092565b60006020828403121561085357600080fd5b61045f826107bf565b60006020828403121561086e57600080fd5b8135801515811461045f57600080fd5b6000806040838503121561089157600080fd5b61089a836107bf565b91506108a8602084016107bf565b90509250929050565b600181811c908216806108c557607f821691505b6020821081036108e557634e487b7160e01b600052602260045260246000fd5b50919050565b600082516108fd818460208701610768565b9190910192915050565b808201808211156102f357634e487b7160e01b600052601160045260246000fdfea2646970667358221220c7facea9a80d8b667fd60abc37f78625f4c17205592e5b0b6c01b6b0be3a71a864736f6c63430008180033",
  "linkReferences": {},
  "deployedLinkReferences": {}
}