{
  "_format": "hh-sol-artifact-1",
  "contractName": "MockAssetDAO",
  "sourceName": "contracts/mocks/MockAssetDAO.sol",
  "abi": [
    {
      "inputs": [
        {
          "internalType": "address",
          "name": "_daiToken",
          "type": "address"
        },
        {
          "internalType": "address",
          "name": "_dloopToken",
          "type": "address"
        },
        {
          "internalType": "address",
          "name": "_priceOracle",
          "type": "address"
        },
        {
          "internalType": "address",
          "name": "_feeProcessor",
          "type": "address"
        }
      ],
      "stateMutability": "nonpayable",
      "type": "constructor"
    },
    {
      "inputs": [],
      "name": "AccessControlBadConfirmation",
      "type": "error"
    },
    {
      "inputs": [
        {
          "internalType": "address",
          "name": "account",
          "type": "address"
        },
        {
          "internalType": "bytes32",
          "name": "neededRole",
          "type": "bytes32"
        }
      ],
      "name": "AccessControlUnauthorizedAccount",
      "type": "error"
    },
    {
      "inputs": [],
      "name": "AssetNotActive",
      "type": "error"
    },
    {
      "inputs": [],
      "name": "InsufficientShares",
      "type": "error"
    },
    {
      "inputs": [],
      "name": "InvalidAmount",
      "type": "error"
    },
    {
      "inputs": [],
      "name": "InvalidAssetState",
      "type": "error"
    },
    {
      "inputs": [],
      "name": "ZeroAddress",
      "type": "error"
    },
    {
      "anonymous": false,
      "inputs": [
        {
          "indexed": true,
          "internalType": "uint256",
          "name": "assetId",
          "type": "uint256"
        },
        {
          "indexed": true,
          "internalType": "address",
          "name": "creator",
          "type": "address"
        },
        {
          "indexed": false,
          "internalType": "string",
          "name": "name",
          "type": "string"
        },
        {
          "indexed": false,
          "internalType": "uint256",
          "name": "targetFunding",
          "type": "uint256"
        }
      ],
      "name": "AssetCreated",
      "type": "event"
    },
    {
      "anonymous": false,
      "inputs": [
        {
          "indexed": true,
          "internalType": "uint256",
          "name": "assetId",
          "type": "uint256"
        },
        {
          "indexed": true,
          "internalType": "address",
          "name": "creator",
          "type": "address"
        },
        {
          "indexed": false,
          "internalType": "string",
          "name": "name",
          "type": "string"
        },
        {
          "indexed": false,
          "internalType": "string",
          "name": "description",
          "type": "string"
        }
      ],
      "name": "AssetCreated",
      "type": "event"
    },
    {
      "anonymous": false,
      "inputs": [
        {
          "indexed": true,
          "internalType": "uint256",
          "name": "assetId",
          "type": "uint256"
        },
        {
          "indexed": false,
          "internalType": "enum IAssetDAO.AssetState",
          "name": "oldState",
          "type": "uint8"
        },
        {
          "indexed": false,
          "internalType": "enum IAssetDAO.AssetState",
          "name": "newState",
          "type": "uint8"
        }
      ],
      "name": "AssetStateChanged",
      "type": "event"
    },
    {
      "anonymous": false,
      "inputs": [
        {
          "indexed": true,
          "internalType": "uint256",
          "name": "assetId",
          "type": "uint256"
        },
        {
          "indexed": false,
          "internalType": "enum IAssetDAO.AssetState",
          "name": "newState",
          "type": "uint8"
        }
      ],
      "name": "AssetStateChanged",
      "type": "event"
    },
    {
      "anonymous": false,
      "inputs": [
        {
          "indexed": true,
          "internalType": "uint256",
          "name": "assetId",
          "type": "uint256"
        },
        {
          "indexed": true,
          "internalType": "address",
          "name": "investor",
          "type": "address"
        },
        {
          "indexed": false,
          "internalType": "uint256",
          "name": "amount",
          "type": "uint256"
        },
        {
          "indexed": false,
          "internalType": "uint256",
          "name": "shares",
          "type": "uint256"
        }
      ],
      "name": "DivestmentMade",
      "type": "event"
    },
    {
      "anonymous": false,
      "inputs": [
        {
          "indexed": true,
          "internalType": "uint256",
          "name": "assetId",
          "type": "uint256"
        },
        {
          "indexed": false,
          "internalType": "uint256",
          "name": "amount",
          "type": "uint256"
        },
        {
          "indexed": false,
          "internalType": "string",
          "name": "feeType",
          "type": "string"
        }
      ],
      "name": "FeeCollected",
      "type": "event"
    },
    {
      "anonymous": false,
      "inputs": [
        {
          "indexed": true,
          "internalType": "uint256",
          "name": "assetId",
          "type": "uint256"
        },
        {
          "indexed": true,
          "internalType": "address",
          "name": "investor",
          "type": "address"
        },
        {
          "indexed": false,
          "internalType": "uint256",
          "name": "amount",
          "type": "uint256"
        },
        {
          "indexed": false,
          "internalType": "uint256",
          "name": "shares",
          "type": "uint256"
        }
      ],
      "name": "InvestmentMade",
      "type": "event"
    },
    {
      "anonymous": false,
      "inputs": [
        {
          "indexed": true,
          "internalType": "string",
          "name": "functionName",
          "type": "string"
        },
        {
          "indexed": true,
          "internalType": "address",
          "name": "caller",
          "type": "address"
        },
        {
          "indexed": false,
          "internalType": "bytes",
          "name": "data",
          "type": "bytes"
        }
      ],
      "name": "MockFunctionCalled",
      "type": "event"
    },
    {
      "anonymous": false,
      "inputs": [
        {
          "indexed": true,
          "internalType": "address",
          "name": "caller",
          "type": "address"
        }
      ],
      "name": "MockInitialized",
      "type": "event"
    },
    {
      "anonymous": false,
      "inputs": [],
      "name": "MockStateReset",
      "type": "event"
    },
    {
      "anonymous": false,
      "inputs": [
        {
          "indexed": true,
          "internalType": "address",
          "name": "previousOwner",
          "type": "address"
        },
        {
          "indexed": true,
          "internalType": "address",
          "name": "newOwner",
          "type": "address"
        }
      ],
      "name": "OwnershipTransferred",
      "type": "event"
    },
    {
      "anonymous": false,
      "inputs": [
        {
          "indexed": true,
          "internalType": "string",
          "name": "paramName",
          "type": "string"
        },
        {
          "indexed": false,
          "internalType": "uint256",
          "name": "oldValue",
          "type": "uint256"
        },
        {
          "indexed": false,
          "internalType": "uint256",
          "name": "newValue",
          "type": "uint256"
        }
      ],
      "name": "ParameterUpdated",
      "type": "event"
    },
    {
      "anonymous": false,
      "inputs": [
        {
          "indexed": true,
          "internalType": "uint256",
          "name": "proposalId",
          "type": "uint256"
        },
        {
          "indexed": true,
          "internalType": "uint256",
          "name": "assetId",
          "type": "uint256"
        },
        {
          "indexed": true,
          "internalType": "address",
          "name": "proposer",
          "type": "address"
        },
        {
          "indexed": false,
          "internalType": "enum IAssetDAO.ProposalType",
          "name": "proposalType",
          "type": "uint8"
        }
      ],
      "name": "ProposalCreated",
      "type": "event"
    },
    {
      "anonymous": false,
      "inputs": [
        {
          "indexed": true,
          "internalType": "uint256",
          "name": "proposalId",
          "type": "uint256"
        },
        {
          "indexed": false,
          "internalType": "enum IAssetDAO.ProposalState",
          "name": "oldState",
          "type": "uint8"
        },
        {
          "indexed": false,
          "internalType": "enum IAssetDAO.ProposalState",
          "name": "newState",
          "type": "uint8"
        }
      ],
      "name": "ProposalStateChanged",
      "type": "event"
    },
    {
      "anonymous": false,
      "inputs": [
        {
          "indexed": true,
          "internalType": "uint256",
          "name": "assetId",
          "type": "uint256"
        },
        {
          "indexed": true,
          "internalType": "address",
          "name": "investor",
          "type": "address"
        },
        {
          "indexed": false,
          "internalType": "uint256",
          "name": "shares",
          "type": "uint256"
        },
        {
          "indexed": false,
          "internalType": "uint256",
          "name": "refundAmount",
          "type": "uint256"
        }
      ],
      "name": "RageQuit",
      "type": "event"
    },
    {
      "anonymous": false,
      "inputs": [
        {
          "indexed": true,
          "internalType": "bytes32",
          "name": "role",
          "type": "bytes32"
        },
        {
          "indexed": true,
          "internalType": "bytes32",
          "name": "previousAdminRole",
          "type": "bytes32"
        },
        {
          "indexed": true,
          "internalType": "bytes32",
          "name": "newAdminRole",
          "type": "bytes32"
        }
      ],
      "name": "RoleAdminChanged",
      "type": "event"
    },
    {
      "anonymous": false,
      "inputs": [
        {
          "indexed": true,
          "internalType": "bytes32",
          "name": "role",
          "type": "bytes32"
        },
        {
          "indexed": true,
          "internalType": "address",
          "name": "account",
          "type": "address"
        },
        {
          "indexed": true,
          "internalType": "address",
          "name": "sender",
          "type": "address"
        }
      ],
      "name": "RoleGranted",
      "type": "event"
    },
    {
      "anonymous": false,
      "inputs": [
        {
          "indexed": true,
          "internalType": "bytes32",
          "name": "role",
          "type": "bytes32"
        },
        {
          "indexed": true,
          "internalType": "address",
          "name": "account",
          "type": "address"
        },
        {
          "indexed": true,
          "internalType": "address",
          "name": "sender",
          "type": "address"
        }
      ],
      "name": "RoleRevoked",
      "type": "event"
    },
    {
      "anonymous": false,
      "inputs": [
        {
          "indexed": true,
          "internalType": "uint256",
          "name": "proposalId",
          "type": "uint256"
        },
        {
          "indexed": true,
          "internalType": "address",
          "name": "voter",
          "type": "address"
        },
        {
          "indexed": false,
          "internalType": "bool",
          "name": "support",
          "type": "bool"
        },
        {
          "indexed": false,
          "internalType": "uint256",
          "name": "weight",
          "type": "uint256"
        }
      ],
      "name": "VoteCast",
      "type": "event"
    },
    {
      "inputs": [],
      "name": "ADMIN_ROLE",
      "outputs": [
        {
          "internalType": "bytes32",
          "name": "",
          "type": "bytes32"
        }
      ],
      "stateMutability": "view",
      "type": "function"
    },
    {
      "inputs": [],
      "name": "BURNER_ROLE",
      "outputs": [
        {
          "internalType": "bytes32",
          "name": "",
          "type": "bytes32"
        }
      ],
      "stateMutability": "view",
      "type": "function"
    },
    {
      "inputs": [],
      "name": "DAI_TOKEN",
      "outputs": [
        {
          "internalType": "address",
          "name": "",
          "type": "address"
        }
      ],
      "stateMutability": "view",
      "type": "function"
    },
    {
      "inputs": [],
      "name": "DEFAULT_ADMIN_ROLE",
      "outputs": [
        {
          "internalType": "bytes32",
          "name": "",
          "type": "bytes32"
        }
      ],
      "stateMutability": "view",
      "type": "function"
    },
    {
      "inputs": [],
      "name": "DLOOP_TOKEN",
      "outputs": [
        {
          "internalType": "address",
          "name": "",
          "type": "address"
        }
      ],
      "stateMutability": "view",
      "type": "function"
    },
    {
      "inputs": [],
      "name": "FEE_PROCESSOR",
      "outputs": [
        {
          "internalType": "address",
          "name": "",
          "type": "address"
        }
      ],
      "stateMutability": "view",
      "type": "function"
    },
    {
      "inputs": [],
      "name": "GOVERNANCE_ROLE",
      "outputs": [
        {
          "internalType": "bytes32",
          "name": "",
          "type": "bytes32"
        }
      ],
      "stateMutability": "view",
      "type": "function"
    },
    {
      "inputs": [],
      "name": "MINTER_ROLE",
      "outputs": [
        {
          "internalType": "bytes32",
          "name": "",
          "type": "bytes32"
        }
      ],
      "stateMutability": "view",
      "type": "function"
    },
    {
      "inputs": [],
      "name": "PRICE_ORACLE",
      "outputs": [
        {
          "internalType": "address",
          "name": "",
          "type": "address"
        }
      ],
      "stateMutability": "view",
      "type": "function"
    },
    {
      "inputs": [],
      "name": "assetCount",
      "outputs": [
        {
          "internalType": "uint256",
          "name": "",
          "type": "uint256"
        }
      ],
      "stateMutability": "view",
      "type": "function"
    },
    {
      "inputs": [
        {
          "internalType": "uint256",
          "name": "",
          "type": "uint256"
        }
      ],
      "name": "assets",
      "outputs": [
        {
          "internalType": "uint256",
          "name": "id",
          "type": "uint256"
        },
        {
          "internalType": "string",
          "name": "name",
          "type": "string"
        },
        {
          "internalType": "string",
          "name": "description",
          "type": "string"
        },
        {
          "internalType": "address",
          "name": "creator",
          "type": "address"
        },
        {
          "internalType": "uint256",
          "name": "totalShares",
          "type": "uint256"
        },
        {
          "internalType": "enum IAssetDAO.AssetState",
          "name": "state",
          "type": "uint8"
        }
      ],
      "stateMutability": "view",
      "type": "function"
    },
    {
      "inputs": [],
      "name": "callCount",
      "outputs": [
        {
          "internalType": "uint256",
          "name": "",
          "type": "uint256"
        }
      ],
      "stateMutability": "view",
      "type": "function"
    },
    {
      "inputs": [
        {
          "internalType": "uint256",
          "name": "proposalId",
          "type": "uint256"
        }
      ],
      "name": "cancelProposal",
      "outputs": [],
      "stateMutability": "nonpayable",
      "type": "function"
    },
    {
      "inputs": [
        {
          "internalType": "uint256",
          "name": "assetId",
          "type": "uint256"
        },
        {
          "internalType": "enum IAssetDAO.AssetState",
          "name": "newState",
          "type": "uint8"
        }
      ],
      "name": "changeAssetState",
      "outputs": [],
      "stateMutability": "nonpayable",
      "type": "function"
    },
    {
      "inputs": [
        {
          "internalType": "string",
          "name": "name",
          "type": "string"
        },
        {
          "internalType": "string",
          "name": "description",
          "type": "string"
        },
        {
          "internalType": "uint256",
          "name": "targetFunding",
          "type": "uint256"
        },
        {
          "internalType": "uint256",
          "name": "minInvestment",
          "type": "uint256"
        },
        {
          "internalType": "uint256",
          "name": "maxInvestment",
          "type": "uint256"
        },
        {
          "internalType": "uint256",
          "name": "fundingPeriod",
          "type": "uint256"
        },
        {
          "internalType": "string",
          "name": "metadata",
          "type": "string"
        }
      ],
      "name": "createAsset",
      "outputs": [
        {
          "internalType": "uint256",
          "name": "assetId",
          "type": "uint256"
        }
      ],
      "stateMutability": "nonpayable",
      "type": "function"
    },
    {
      "inputs": [
        {
          "internalType": "string",
          "name": "name",
          "type": "string"
        },
        {
          "internalType": "string",
          "name": "description",
          "type": "string"
        }
      ],
      "name": "createAsset",
      "outputs": [
        {
          "internalType": "uint256",
          "name": "assetId",
          "type": "uint256"
        }
      ],
      "stateMutability": "nonpayable",
      "type": "function"
    },
    {
      "inputs": [
        {
          "internalType": "uint256",
          "name": "assetId",
          "type": "uint256"
        },
        {
          "internalType": "enum IAssetDAO.ProposalType",
          "name": "proposalType",
          "type": "uint8"
        },
        {
          "internalType": "string",
          "name": "description",
          "type": "string"
        },
        {
          "internalType": "address[]",
          "name": "targets",
          "type": "address[]"
        },
        {
          "internalType": "uint256[]",
          "name": "values",
          "type": "uint256[]"
        },
        {
          "internalType": "bytes[]",
          "name": "calldatas",
          "type": "bytes[]"
        }
      ],
      "name": "createProposal",
      "outputs": [
        {
          "internalType": "uint256",
          "name": "proposalId",
          "type": "uint256"
        }
      ],
      "stateMutability": "nonpayable",
      "type": "function"
    },
    {
      "inputs": [
        {
          "internalType": "uint256",
          "name": "assetId",
          "type": "uint256"
        },
        {
          "internalType": "uint256",
          "name": "shareAmount",
          "type": "uint256"
        }
      ],
      "name": "divest",
      "outputs": [
        {
          "internalType": "uint256",
          "name": "amount",
          "type": "uint256"
        }
      ],
      "stateMutability": "nonpayable",
      "type": "function"
    },
    {
      "inputs": [
        {
          "internalType": "uint256",
          "name": "proposalId",
          "type": "uint256"
        }
      ],
      "name": "executeProposal",
      "outputs": [],
      "stateMutability": "nonpayable",
      "type": "function"
    },
    {
      "inputs": [
        {
          "internalType": "uint256",
          "name": "assetId",
          "type": "uint256"
        },
        {
          "internalType": "enum IAssetDAO.AssetState",
          "name": "newState",
          "type": "uint8"
        }
      ],
      "name": "forceSetAssetState",
      "outputs": [],
      "stateMutability": "nonpayable",
      "type": "function"
    },
    {
      "inputs": [
        {
          "internalType": "string",
          "name": "",
          "type": "string"
        }
      ],
      "name": "functionCallCount",
      "outputs": [
        {
          "internalType": "uint256",
          "name": "",
          "type": "uint256"
        }
      ],
      "stateMutability": "view",
      "type": "function"
    },
    {
      "inputs": [
        {
          "internalType": "uint256",
          "name": "assetId",
          "type": "uint256"
        }
      ],
      "name": "getAsset",
      "outputs": [
        {
          "internalType": "string",
          "name": "name",
          "type": "string"
        },
        {
          "internalType": "string",
          "name": "description",
          "type": "string"
        },
        {
          "internalType": "address",
          "name": "creator",
          "type": "address"
        },
        {
          "internalType": "uint256",
          "name": "targetFunding",
          "type": "uint256"
        },
        {
          "internalType": "uint256",
          "name": "currentFunding",
          "type": "uint256"
        },
        {
          "internalType": "enum IAssetDAO.AssetState",
          "name": "state",
          "type": "uint8"
        },
        {
          "internalType": "uint256",
          "name": "createdAt",
          "type": "uint256"
        },
        {
          "internalType": "uint256",
          "name": "fundingEnds",
          "type": "uint256"
        }
      ],
      "stateMutability": "view",
      "type": "function"
    },
    {
      "inputs": [
        {
          "internalType": "uint256",
          "name": "assetId",
          "type": "uint256"
        }
      ],
      "name": "getAssetState",
      "outputs": [
        {
          "internalType": "enum IAssetDAO.AssetState",
          "name": "state",
          "type": "uint8"
        }
      ],
      "stateMutability": "view",
      "type": "function"
    },
    {
      "inputs": [
        {
          "internalType": "string",
          "name": "functionName",
          "type": "string"
        }
      ],
      "name": "getFunctionCallCount",
      "outputs": [
        {
          "internalType": "uint256",
          "name": "",
          "type": "uint256"
        }
      ],
      "stateMutability": "view",
      "type": "function"
    },
    {
      "inputs": [
        {
          "internalType": "string",
          "name": "functionName",
          "type": "string"
        }
      ],
      "name": "getFunctionCallHistory",
      "outputs": [
        {
          "internalType": "uint256",
          "name": "count",
          "type": "uint256"
        },
        {
          "internalType": "address",
          "name": "lastCaller_",
          "type": "address"
        },
        {
          "internalType": "bytes",
          "name": "lastData",
          "type": "bytes"
        }
      ],
      "stateMutability": "view",
      "type": "function"
    },
    {
      "inputs": [
        {
          "internalType": "uint256",
          "name": "assetId",
          "type": "uint256"
        },
        {
          "internalType": "address",
          "name": "investor",
          "type": "address"
        }
      ],
      "name": "getInvestorShares",
      "outputs": [
        {
          "internalType": "uint256",
          "name": "shares",
          "type": "uint256"
        }
      ],
      "stateMutability": "view",
      "type": "function"
    },
    {
      "inputs": [
        {
          "internalType": "uint256",
          "name": "assetId",
          "type": "uint256"
        }
      ],
      "name": "getInvestors",
      "outputs": [
        {
          "internalType": "address[]",
          "name": "investors",
          "type": "address[]"
        }
      ],
      "stateMutability": "view",
      "type": "function"
    },
    {
      "inputs": [
        {
          "internalType": "uint256",
          "name": "proposalId",
          "type": "uint256"
        }
      ],
      "name": "getProposalDetails",
      "outputs": [
        {
          "internalType": "uint256",
          "name": "id",
          "type": "uint256"
        },
        {
          "internalType": "uint256",
          "name": "assetId",
          "type": "uint256"
        },
        {
          "internalType": "address",
          "name": "proposer",
          "type": "address"
        },
        {
          "internalType": "enum IAssetDAO.ProposalType",
          "name": "proposalType",
          "type": "uint8"
        },
        {
          "internalType": "string",
          "name": "description",
          "type": "string"
        },
        {
          "internalType": "enum IAssetDAO.ProposalState",
          "name": "state",
          "type": "uint8"
        },
        {
          "internalType": "uint256",
          "name": "createdAt",
          "type": "uint256"
        },
        {
          "internalType": "uint256",
          "name": "votingEnds",
          "type": "uint256"
        },
        {
          "internalType": "uint256",
          "name": "forVotes",
          "type": "uint256"
        },
        {
          "internalType": "uint256",
          "name": "againstVotes",
          "type": "uint256"
        }
      ],
      "stateMutability": "view",
      "type": "function"
    },
    {
      "inputs": [
        {
          "internalType": "bytes32",
          "name": "role",
          "type": "bytes32"
        }
      ],
      "name": "getRoleAdmin",
      "outputs": [
        {
          "internalType": "bytes32",
          "name": "",
          "type": "bytes32"
        }
      ],
      "stateMutability": "view",
      "type": "function"
    },
    {
      "inputs": [
        {
          "internalType": "uint256",
          "name": "assetId",
          "type": "uint256"
        }
      ],
      "name": "getTotalShares",
      "outputs": [
        {
          "internalType": "uint256",
          "name": "totalShares",
          "type": "uint256"
        }
      ],
      "stateMutability": "view",
      "type": "function"
    },
    {
      "inputs": [
        {
          "internalType": "bytes32",
          "name": "role",
          "type": "bytes32"
        },
        {
          "internalType": "address",
          "name": "account",
          "type": "address"
        }
      ],
      "name": "grantRole",
      "outputs": [],
      "stateMutability": "nonpayable",
      "type": "function"
    },
    {
      "inputs": [
        {
          "internalType": "bytes32",
          "name": "role",
          "type": "bytes32"
        },
        {
          "internalType": "address",
          "name": "account",
          "type": "address"
        }
      ],
      "name": "hasRole",
      "outputs": [
        {
          "internalType": "bool",
          "name": "",
          "type": "bool"
        }
      ],
      "stateMutability": "view",
      "type": "function"
    },
    {
      "inputs": [
        {
          "internalType": "uint256",
          "name": "",
          "type": "uint256"
        },
        {
          "internalType": "address",
          "name": "",
          "type": "address"
        }
      ],
      "name": "hasVoted",
      "outputs": [
        {
          "internalType": "bool",
          "name": "",
          "type": "bool"
        }
      ],
      "stateMutability": "pure",
      "type": "function"
    },
    {
      "inputs": [],
      "name": "initialize",
      "outputs": [],
      "stateMutability": "nonpayable",
      "type": "function"
    },
    {
      "inputs": [],
      "name": "initialized",
      "outputs": [
        {
          "internalType": "bool",
          "name": "",
          "type": "bool"
        }
      ],
      "stateMutability": "view",
      "type": "function"
    },
    {
      "inputs": [
        {
          "internalType": "uint256",
          "name": "assetId",
          "type": "uint256"
        },
        {
          "internalType": "uint256",
          "name": "amount",
          "type": "uint256"
        }
      ],
      "name": "invest",
      "outputs": [
        {
          "internalType": "uint256",
          "name": "shares",
          "type": "uint256"
        }
      ],
      "stateMutability": "nonpayable",
      "type": "function"
    },
    {
      "inputs": [
        {
          "internalType": "string",
          "name": "",
          "type": "string"
        }
      ],
      "name": "lastCallData",
      "outputs": [
        {
          "internalType": "bytes",
          "name": "",
          "type": "bytes"
        }
      ],
      "stateMutability": "view",
      "type": "function"
    },
    {
      "inputs": [],
      "name": "lastCaller",
      "outputs": [
        {
          "internalType": "address",
          "name": "",
          "type": "address"
        }
      ],
      "stateMutability": "view",
      "type": "function"
    },
    {
      "inputs": [
        {
          "internalType": "string",
          "name": "",
          "type": "string"
        }
      ],
      "name": "lastCallerByFunction",
      "outputs": [
        {
          "internalType": "address",
          "name": "",
          "type": "address"
        }
      ],
      "stateMutability": "view",
      "type": "function"
    },
    {
      "inputs": [],
      "name": "pause",
      "outputs": [],
      "stateMutability": "nonpayable",
      "type": "function"
    },
    {
      "inputs": [
        {
          "internalType": "uint256",
          "name": "assetId",
          "type": "uint256"
        },
        {
          "internalType": "uint256",
          "name": "shares",
          "type": "uint256"
        }
      ],
      "name": "rageQuit",
      "outputs": [],
      "stateMutability": "nonpayable",
      "type": "function"
    },
    {
      "inputs": [
        {
          "internalType": "bytes32",
          "name": "role",
          "type": "bytes32"
        },
        {
          "internalType": "address",
          "name": "callerConfirmation",
          "type": "address"
        }
      ],
      "name": "renounceRole",
      "outputs": [],
      "stateMutability": "nonpayable",
      "type": "function"
    },
    {
      "inputs": [],
      "name": "reset",
      "outputs": [],
      "stateMutability": "nonpayable",
      "type": "function"
    },
    {
      "inputs": [
        {
          "internalType": "bytes32",
          "name": "role",
          "type": "bytes32"
        },
        {
          "internalType": "address",
          "name": "account",
          "type": "address"
        }
      ],
      "name": "revokeRole",
      "outputs": [],
      "stateMutability": "nonpayable",
      "type": "function"
    },
    {
      "inputs": [
        {
          "internalType": "uint256",
          "name": "assetId",
          "type": "uint256"
        },
        {
          "internalType": "address",
          "name": "investor",
          "type": "address"
        },
        {
          "internalType": "uint256",
          "name": "shares",
          "type": "uint256"
        }
      ],
      "name": "setInvestorShares",
      "outputs": [],
      "stateMutability": "nonpayable",
      "type": "function"
    },
    {
      "inputs": [
        {
          "internalType": "bytes4",
          "name": "interfaceId",
          "type": "bytes4"
        }
      ],
      "name": "supportsInterface",
      "outputs": [
        {
          "internalType": "bool",
          "name": "",
          "type": "bool"
        }
      ],
      "stateMutability": "view",
      "type": "function"
    },
    {
      "inputs": [
        {
          "internalType": "address",
          "name": "newOwner",
          "type": "address"
        }
      ],
      "name": "transferOwnership",
      "outputs": [],
      "stateMutability": "nonpayable",
      "type": "function"
    },
    {
      "inputs": [],
      "name": "unpause",
      "outputs": [],
      "stateMutability": "nonpayable",
      "type": "function"
    },
    {
      "inputs": [
        {
          "internalType": "uint256",
          "name": "assetId",
          "type": "uint256"
        },
        {
          "internalType": "enum IAssetDAO.AssetState",
          "name": "newState",
          "type": "uint8"
        }
      ],
      "name": "updateAssetState",
      "outputs": [],
      "stateMutability": "nonpayable",
      "type": "function"
    },
    {
      "inputs": [
        {
          "internalType": "uint256",
          "name": "proposalId",
          "type": "uint256"
        },
        {
          "internalType": "bool",
          "name": "support",
          "type": "bool"
        }
      ],
      "name": "vote",
      "outputs": [],
      "stateMutability": "nonpayable",
      "type": "function"
    },
    {
      "inputs": [
        {
          "internalType": "string",
          "name": "functionName",
          "type": "string"
        }
      ],
      "name": "wasFunctionCalled",
      "outputs": [
        {
          "internalType": "bool",
          "name": "",
          "type": "bool"
        }
      ],
      "stateMutability": "view",
      "type": "function"
    }
  ],
  "bytecode": "0x6101006040523480156200001257600080fd5b5060405162002d5238038062002d5283398101604081905262000035916200025d565b6200004260003362000191565b506001600160a01b03841615806200006157506001600160a01b038316155b806200007457506001600160a01b038216155b806200008757506001600160a01b038116155b15620000a65760405163d92e233d60e01b815260040160405180910390fd5b6001600160a01b0380851660805283811660a05282811660c052811660e052620000d260003362000191565b50620000ff7fa49807205ce4d355092ef5a8a18f56e8913cf4a201fbe287825b095693c217753362000191565b506200012c7f9f2df0fed2c77648de5860a4cc508cd0818c85b8b8a1ab4ceeef8d981c8956a63362000191565b50620001597f3c11d16cbaffd01df69ce1c404f6340ee057498f5f00246190ea54220576a8483362000191565b50620001867f71840dc4906352362b0cdaf79870196c8e42acafade72d5d5a6d59291253ceb13362000191565b5050505050620002ba565b6000828152602081815260408083206001600160a01b038516845290915281205460ff1662000236576000838152602081815260408083206001600160a01b03861684529091529020805460ff19166001179055620001ed3390565b6001600160a01b0316826001600160a01b0316847f2f8788117e7eff1d82e926ec794901d17c78024a50270940304540a733656f0d60405160405180910390a45060016200023a565b5060005b92915050565b80516001600160a01b03811681146200025857600080fd5b919050565b600080600080608085870312156200027457600080fd5b6200027f8562000240565b93506200028f6020860162000240565b92506200029f6040860162000240565b9150620002af6060860162000240565b905092959194509250565b60805160a05160c05160e051612a5e620002f4600039600061045b0152600061032301526000610672015260006107870152612a5e6000f3fe608060405234801561001057600080fd5b50600436106102f15760003560e01c80637c1d44c21161019d578063d5391393116100e9578063e606df87116100a2578063f038afe31161007c578063f038afe3146107d9578063f2fde38b146107ec578063f36c8f5c146107ff578063fa25125f1461082657600080fd5b8063e606df8714610782578063eac8f5b8146107a9578063eafe7a74146107d057600080fd5b8063d5391393146106fa578063d547741f14610721578063d826f88f14610734578063d87aa6431461073c578063dfdbdd501461074f578063e0a8f6f51461076f57600080fd5b806391e58a2011610156578063a2a55b6811610130578063a2a55b681461069c578063c054c6ce146106af578063c9d27afe146106c2578063cf35bdd0146106d557600080fd5b806391e58a201461065a578063996b33011461066d578063a217fddf1461069457600080fd5b80637c1d44c2146105ed5780638129fc1c146106005780638456cb591461060857806385fff858146106105780638cb287671461063457806391d148541461064757600080fd5b806336568abe1161025c5780634696c74911610215578063572ad536116101ef578063572ad536146105665780635b65af0a1461057957806375b238fc1461058c5780637bf69ca9146105b357600080fd5b80634696c749146105375780634b28f9a21461054a57806350da7c781461055357600080fd5b806336568abe146104905780633b4d01a7146104a35780633ca3910c146104cc5780633f4ba83a146104ee578063422b010b146104f6578063438596321461052157600080fd5b80631df86bc6116102ae5780631df86bc6146103c05780632113522a146103f4578063248a9ca31461040c578063282c51f31461042f57806329747873146104565780632f2ff15d1461047d57600080fd5b806301ffc9a7146102f65780630a19399a1461031e5780630d61b5191461035d5780631139de5514610372578063158ef93e146103925780631a82a6431461039f575b600080fd5b610309610304366004611e48565b610859565b60405190151581526020015b60405180910390f35b6103457f000000000000000000000000000000000000000000000000000000000000000081565b6040516001600160a01b039091168152602001610315565b61037061036b366004611e79565b610890565b005b610385610380366004611e79565b610921565b6040516103159190611ed7565b6001546103099060ff1681565b6103b26103ad366004611fa9565b610990565b604051908152602001610315565b6103456103ce366004611fa9565b80516020818301810180516005825292820191909301209152546001600160a01b031681565b6001546103459061010090046001600160a01b031681565b6103b261041a366004611e79565b60009081526020819052604090206001015490565b6103b27f3c11d16cbaffd01df69ce1c404f6340ee057498f5f00246190ea54220576a84881565b6103457f000000000000000000000000000000000000000000000000000000000000000081565b61037061048b366004612002565b6109b8565b61037061049e366004612002565b6109e3565b6104b66104b1366004611e79565b610a1b565b6040516103159a999897969594939291906120b8565b6104df6104da366004611fa9565b610a99565b60405161031593929190612130565b610370610b9c565b6103b2610504366004611fa9565b805160208183018101805160038252928201919093012091525481565b61030961052f366004612002565b600092915050565b6103b2610545366004612163565b610bd6565b6103b260025481565b6103b261056136600461232b565b610d8e565b6103706105743660046123f1565b610e26565b6103706105873660046123f1565b610ea0565b6103b27fa49807205ce4d355092ef5a8a18f56e8913cf4a201fbe287825b095693c2177581565b6103b26105c1366004612002565b60008281526006602090815260408083206001600160a01b038516845260050190915290205492915050565b6103b26105fb366004612421565b610f7b565b61037061107d565b61037061110e565b6103b261061e366004611e79565b6000908152600660208190526040909120015490565b6103706106423660046124d0565b611144565b610309610655366004612002565b611266565b6103706106683660046123f1565b61128f565b6103457f000000000000000000000000000000000000000000000000000000000000000081565b6103b2600081565b6103b26106aa366004612505565b611301565b6103096106bd366004611fa9565b6113ec565b6103706106d0366004612569565b611416565b6106e86106e3366004611e79565b611498565b60405161031596959493929190612593565b6103b27f9f2df0fed2c77648de5860a4cc508cd0818c85b8b8a1ab4ceeef8d981c8956a681565b61037061072f366004612002565b6115ec565b610370611611565b6103b261074a366004612163565b61165d565b61076261075d366004611fa9565b6117ec565b60405161031591906125f2565b61037061077d366004611e79565b611891565b6103457f000000000000000000000000000000000000000000000000000000000000000081565b6107bc6107b7366004611e79565b611902565b604051610315989796959493929190612605565b6103b260075481565b6103706107e7366004612163565b611a9d565b6103706107fa366004612676565b611ba2565b6103b27f71840dc4906352362b0cdaf79870196c8e42acafade72d5d5a6d59291253ceb181565b61084c610834366004611e79565b60009081526006602052604090206007015460ff1690565b6040516103159190612691565b60006001600160e01b03198216637965db0b60e01b148061088a57506301ffc9a760e01b6001600160e01b03198316145b92915050565b6108e26040518060400160405280600f81526020016e195e1958dd5d19541c9bdc1bdcd85b608a1b815250826040516020016108ce91815260200190565b604051602081830303815290604052611bf2565b807f6147c657c509b611c5b884671c7cb0da0e1eed364b561e0e9d48789b79421525600160046040516109169291906126a4565b60405180910390a250565b60008181526006602090815260409182902060040180548351818402810184019094528084526060939283018282801561098457602002820191906000526020600020905b81546001600160a01b03168152600190910190602001808311610966575b50505050509050919050565b60006003826040516109a291906126bf565b9081526020016040518091039020549050919050565b6000828152602081905260409020600101546109d381611d04565b6109dd8383611d0e565b50505050565b6001600160a01b0381163314610a0c5760405163334bd91960e11b815260040160405180910390fd5b610a168282611da0565b505050565b6000808080606081808080808a60016101238382610a3c62015180426126f1565b610a49426202a300612704565b600a60056040518060400160405280600d81526020016c135bd8dac81c1c9bdc1bdcd85b609a1b815250949392919099509950995099509950995099509950995099509193959799509193959799565b6000806060600384604051610aae91906126bf565b908152602001604051809103902054600585604051610acd91906126bf565b908152604051908190036020018120546001600160a01b031690600490610af59088906126bf565b9081526020016040518091039020808054610b0f90612717565b80601f0160208091040260200160405190810160405280929190818152602001828054610b3b90612717565b8015610b885780601f10610b5d57610100808354040283529160200191610b88565b820191906000526020600020905b815481529060010190602001808311610b6b57829003601f168201915b505050505090509250925092509193909250565b610bd460405180604001604052806007815260200166756e706175736560c81b81525060405180602001604052806000815250611bf2565b565b6000610c1660405180604001604052806006815260200165191a5d995cdd60d21b81525084846040516020016108ce929190918252602082015260400190565b81600003610c375760405163162908e360e11b815260040160405180910390fd5b60008381526006602052604090206001600782015460ff166003811115610c6057610c6061202e565b14158015610c8757506002600782015460ff166003811115610c8457610c8461202e565b14155b15610ca557604051638b5274a960e01b815260040160405180910390fd5b336000908152600582016020526040902054831115610cd757604051633999656760e01b815260040160405180910390fd5b82915060006064610ce9846003612751565b610cf39190612768565b90506000610d0182856126f1565b336000908152600585016020526040812080549293508792909190610d279084906126f1565b9250508190555084836006016000828254610d4291906126f1565b90915550506040805186815260208101839052339188917fc170eebcfeaba71246e2ef3defa98586cc7549903bcc196e4713b6fe8a53346091015b60405180910390a350505092915050565b6000610dd56040518060400160405280600e81526020016d18dc99585d19541c9bdc1bdcd85b60921b8152508888888888886040516020016108ce9695949392919061278a565b60019050336001600160a01b031687827fa9b7501054ec8150de9dd4c4819fea4051fa3f26ac91d7d08bfb403ea9a9c21689604051610e149190612691565b60405180910390a49695505050505050565b610e6760405180604001604052806012815260200171666f7263655365744173736574537461746560701b81525083836040516020016108ce92919061285e565b600082815260066020526040902060078101805483919060ff19166001836003811115610e9657610e9661202e565b0217905550505050565b7fa49807205ce4d355092ef5a8a18f56e8913cf4a201fbe287825b095693c21775610eca81611d04565b610f096040518060400160405280601081526020016f6368616e67654173736574537461746560801b81525084846040516020016108ce92919061285e565b600083815260066020526040902060078101805484919060ff19166001836003811115610f3857610f3861202e565b0217905550837fd4a810c33459ebcd1c81a0f93ebe613f6e8de13459b809c331d0193636062caa84604051610f6d9190612691565b60405180910390a250505050565b6000610fc96040518060400160405280601381526020017218dc99585d19505cdcd95d115e1d195b991959606a1b815250898989898989896040516020016108ce979695949392919061287b565b600760008154610fd8906128da565b9182905550600081815260066020526040902081815590915060018101610fff8a82612943565b506002810161100e8982612943565b506003810180546001600160a01b0319163390811790915560078201805460ff1916600117905560405183907f15b4de41eb7ccf157c9237c13a9707eecd8592c0aeef51f60141fe61c5e4e56790611069908d908d90612a03565b60405180910390a350979650505050505050565b60015460ff16156110d55760405162461bcd60e51b815260206004820152601d60248201527f426173654d6f636b3a20616c726561647920696e697469616c697a656400000060448201526064015b60405180910390fd5b6001805460ff19168117905560405133907f30f7074e868351008998491171b433e7342f255e986fef03e5eec84f01786f0190600090a2565b610bd460405180604001604052806005815260200164706175736560d81b81525060405180602001604052806000815250611bf2565b6111a060405180604001604052806011815260200170736574496e766573746f7253686172657360781b8152508484846040516020016108ce939291909283526001600160a01b03919091166020830152604082015260600190565b60008381526006602090815260408083206001600160a01b038616845260058101909252909120541580156111d55750600082115b1561120b57600481018054600181018255600091825260209091200180546001600160a01b0319166001600160a01b0385161790555b6001600160a01b038316600090815260058201602052604090205460068201548391611236916126f1565b6112409190612704565b60068201556001600160a01b039092166000908152600590920160205260409091205550565b6000918252602082815260408084206001600160a01b0393909316845291905290205460ff1690565b6112ce6040518060400160405280601081526020016f7570646174654173736574537461746560801b81525083836040516020016108ce92919061285e565b600082815260066020526040902060078101805460ff811691849160ff19166001836003811115610f3857610f3861202e565b600061133d6040518060400160405280600b81526020016a18dc99585d19505cdcd95d60aa1b81525084846040516020016108ce929190612a03565b60076000815461134c906128da565b91829055506000818152600660205260409020818155909150600181016113738582612943565b50600281016113828482612943565b506003810180546001600160a01b0319163390811790915560078201805460ff1916600117905560405183907f15b4de41eb7ccf157c9237c13a9707eecd8592c0aeef51f60141fe61c5e4e567906113dd9088908890612a03565b60405180910390a35092915050565b6000806003836040516113ff91906126bf565b908152602001604051809103902054119050919050565b61145460405180604001604052806004815260200163766f746560e01b81525083836040516020016108ce9291909182521515602082015260400190565b60408051821515815260016020820152339184917fcbdf6214089cba887ecbf35a0b6a734589959c9763342c756bb2a80ca2bc9f6e91015b60405180910390a35050565b600660205260009081526040902080546001820180549192916114ba90612717565b80601f01602080910402602001604051908101604052809291908181526020018280546114e690612717565b80156115335780601f1061150857610100808354040283529160200191611533565b820191906000526020600020905b81548152906001019060200180831161151657829003601f168201915b50505050509080600201805461154890612717565b80601f016020809104026020016040519081016040528092919081815260200182805461157490612717565b80156115c15780601f10611596576101008083540402835291602001916115c1565b820191906000526020600020905b8154815290600101906020018083116115a457829003601f168201915b505050506003830154600684015460079094015492936001600160a01b039091169290915060ff1686565b60008281526020819052604090206001015461160781611d04565b6109dd8383611da0565b600061161c81611d04565b600180546001600160a81b0319169055600060028190556040517f47f78a7a0acc7fff3657157dc253c5e6a68550995cc6f47bc2bd707ec67370fb9190a150565b600061169d604051806040016040528060068152602001651a5b9d995cdd60d21b81525084846040516020016108ce929190918252602082015260400190565b816000036116be5760405163162908e360e11b815260040160405180910390fd5b60008381526006602052604090206001600782015460ff1660038111156116e7576116e761202e565b146117055760405163f611219f60e01b815260040160405180910390fd5b60006064611714856005612751565b61171e9190612768565b9050600061172c82866126f1565b3360009081526005850160205260408120549195508592500361177157600483018054600181018255600091825260209091200180546001600160a01b031916331790555b33600090815260058401602052604081208054869290611792908490612704565b92505081905550838360060160008282546117ad9190612704565b90915550506040805182815260208101869052339188917ff31343540affa723d26848192c2f28ab76925951531440b6f2e082030394314f9101610d7d565b80516020818301810180516004825292820191909301209152805461181090612717565b80601f016020809104026020016040519081016040528092919081815260200182805461183c90612717565b80156118895780601f1061185e57610100808354040283529160200191611889565b820191906000526020600020905b81548152906001019060200180831161186c57829003601f168201915b505050505081565b6118ce6040518060400160405280600e81526020016d18d85b98d95b141c9bdc1bdcd85b60921b815250826040516020016108ce91815260200190565b807f6147c657c509b611c5b884671c7cb0da0e1eed364b561e0e9d48789b79421525600160056040516109169291906126a4565b60008181526006602081905260408220600381015491810154600782015460609485949093849384938493849384939092600184019260028501926001600160a01b039091169186919060ff1661195c62015180426126f1565b6119694262278d00612704565b87805461197590612717565b80601f01602080910402602001604051908101604052809291908181526020018280546119a190612717565b80156119ee5780601f106119c3576101008083540402835291602001916119ee565b820191906000526020600020905b8154815290600101906020018083116119d157829003601f168201915b50505050509750868054611a0190612717565b80601f0160208091040260200160405190810160405280929190818152602001828054611a2d90612717565b8015611a7a5780601f10611a4f57610100808354040283529160200191611a7a565b820191906000526020600020905b815481529060010190602001808311611a5d57829003601f168201915b505050505096509850985098509850985098509850985050919395975091939597565b611add604051806040016040528060088152602001671c9859d9545d5a5d60c21b81525083836040516020016108ce929190918252602082015260400190565b60008281526006602090815260408083203384526005810190925290912054821115611b1c57604051633999656760e01b815260040160405180910390fd5b33600090815260058201602052604081208054849290611b3d9084906126f1565b9250508190555081816006016000828254611b5891906126f1565b909155505060408051838152602081018490528391339186917f1eeddf791a1bc6c85681812803f5f28c1e7755262c24f03398735b8182654f5b910160405180910390a350505050565b611bef6040518060400160405280601181526020017007472616e736665724f776e65727368697607c1b815250826040516020016108ce91906001600160a01b0391909116815260200190565b50565b600382604051611c0291906126bf565b9081526040519081900360200190208054906000611c1f836128da565b919050555080600483604051611c3591906126bf565b90815260200160405180910390209081611c4f9190612943565b5033600583604051611c6191906126bf565b90815260405160209181900391909101902080546001600160a01b0319166001600160a01b039290921691909117905560018054610100600160a81b031916610100330217905560028054906000611cb8836128da565b90915550506040513390611ccd9084906126bf565b60405180910390207f16b892c3de2f4b54dc114eff5c76ead156bac210353ee82615752957e1317df18360405161148c91906125f2565b611bef8133611e0b565b6000611d1a8383611266565b611d98576000838152602081815260408083206001600160a01b03861684529091529020805460ff19166001179055611d503390565b6001600160a01b0316826001600160a01b0316847f2f8788117e7eff1d82e926ec794901d17c78024a50270940304540a733656f0d60405160405180910390a450600161088a565b50600061088a565b6000611dac8383611266565b15611d98576000838152602081815260408083206001600160a01b0386168085529252808320805460ff1916905551339286917ff6391f5c32d9c69d2a47ea670b442974b53935d1edc7fd64eb21e047a839171b9190a450600161088a565b611e158282611266565b611e445760405163e2517d3f60e01b81526001600160a01b0382166004820152602481018390526044016110cc565b5050565b600060208284031215611e5a57600080fd5b81356001600160e01b031981168114611e7257600080fd5b9392505050565b600060208284031215611e8b57600080fd5b5035919050565b60008151808452602080850194506020840160005b83811015611ecc5781516001600160a01b031687529582019590820190600101611ea7565b509495945050505050565b602081526000611e726020830184611e92565b634e487b7160e01b600052604160045260246000fd5b604051601f8201601f1916810167ffffffffffffffff81118282101715611f2957611f29611eea565b604052919050565b600067ffffffffffffffff831115611f4b57611f4b611eea565b611f5e601f8401601f1916602001611f00565b9050828152838383011115611f7257600080fd5b828260208301376000602084830101529392505050565b600082601f830112611f9a57600080fd5b611e7283833560208501611f31565b600060208284031215611fbb57600080fd5b813567ffffffffffffffff811115611fd257600080fd5b611fde84828501611f89565b949350505050565b80356001600160a01b0381168114611ffd57600080fd5b919050565b6000806040838503121561201557600080fd5b8235915061202560208401611fe6565b90509250929050565b634e487b7160e01b600052602160045260246000fd5b60048110611bef57611bef61202e565b60005b8381101561206f578181015183820152602001612057565b50506000910152565b60008151808452612090816020860160208601612054565b601f01601f19169290920160200192915050565b600681106120b4576120b461202e565b9052565b8a8152602081018a90526001600160a01b038916604082015260006101406120df8a612044565b8960608401528060808401526120f78184018a612078565b91505061210760a08301886120a4565b8560c08301528460e083015283610100830152826101208301529b9a5050505050505050505050565b8381526001600160a01b038316602082015260606040820181905260009061215a90830184612078565b95945050505050565b6000806040838503121561217657600080fd5b50508035926020909101359150565b60048110611bef57600080fd5b8035611ffd81612185565b600067ffffffffffffffff8211156121b7576121b7611eea565b5060051b60200190565b600082601f8301126121d257600080fd5b813560206121e76121e28361219d565b611f00565b8083825260208201915060208460051b87010193508684111561220957600080fd5b602086015b8481101561222c5761221f81611fe6565b835291830191830161220e565b509695505050505050565b600082601f83011261224857600080fd5b813560206122586121e28361219d565b8083825260208201915060208460051b87010193508684111561227a57600080fd5b602086015b8481101561222c578035835291830191830161227f565b600082601f8301126122a757600080fd5b813560206122b76121e28361219d565b82815260059290921b840181019181810190868411156122d657600080fd5b8286015b8481101561222c57803567ffffffffffffffff8111156122fa5760008081fd5b8701603f8101891361230c5760008081fd5b61231d898683013560408401611f31565b8452509183019183016122da565b60008060008060008060c0878903121561234457600080fd5b8635955061235460208801612192565b9450604087013567ffffffffffffffff8082111561237157600080fd5b61237d8a838b01611f89565b9550606089013591508082111561239357600080fd5b61239f8a838b016121c1565b945060808901359150808211156123b557600080fd5b6123c18a838b01612237565b935060a08901359150808211156123d757600080fd5b506123e489828a01612296565b9150509295509295509295565b6000806040838503121561240457600080fd5b82359150602083013561241681612185565b809150509250929050565b600080600080600080600060e0888a03121561243c57600080fd5b873567ffffffffffffffff8082111561245457600080fd5b6124608b838c01611f89565b985060208a013591508082111561247657600080fd5b6124828b838c01611f89565b975060408a0135965060608a0135955060808a0135945060a08a0135935060c08a01359150808211156124b457600080fd5b506124c18a828b01611f89565b91505092959891949750929550565b6000806000606084860312156124e557600080fd5b833592506124f560208501611fe6565b9150604084013590509250925092565b6000806040838503121561251857600080fd5b823567ffffffffffffffff8082111561253057600080fd5b61253c86838701611f89565b9350602085013591508082111561255257600080fd5b5061255f85828601611f89565b9150509250929050565b6000806040838503121561257c57600080fd5b823591506020830135801515811461241657600080fd5b86815260c0602082015260006125ac60c0830188612078565b82810360408401526125be8188612078565b6001600160a01b03871660608501526080840186905291506125e1905083612044565b8260a0830152979650505050505050565b602081526000611e726020830184612078565b60006101008083526126198184018c612078565b9050828103602084015261262d818b612078565b6001600160a01b038a16604085015260608401899052608084018890529150612657905085612044565b8460a08301528360c08301528260e08301529998505050505050505050565b60006020828403121561268857600080fd5b611e7282611fe6565b6020810161269e83612044565b91905290565b604081016126b282856120a4565b611e7260208301846120a4565b600082516126d1818460208701612054565b9190910192915050565b634e487b7160e01b600052601160045260246000fd5b8181038181111561088a5761088a6126db565b8082018082111561088a5761088a6126db565b600181811c9082168061272b57607f821691505b60208210810361274b57634e487b7160e01b600052602260045260246000fd5b50919050565b808202811582820484141761088a5761088a6126db565b60008261278557634e487b7160e01b600052601260045260246000fd5b500490565b8681526000602061279a88612044565b878184015260c060408401526127b360c0840188612078565b83810360608501526127c58188611e92565b8481036080860152865180825283880192509083019060005b818110156127fa578351835292840192918401916001016127de565b505084810360a086015285518082528382019250600581901b8201840184880160005b8381101561284b57601f19858403018652612839838351612078565b9587019592509086019060010161281d565b50909d9c50505050505050505050505050565b8281526040810161286e83612044565b8260208301529392505050565b60e08152600061288e60e083018a612078565b82810360208401526128a0818a612078565b90508760408401528660608401528560808401528460a084015282810360c08401526128cc8185612078565b9a9950505050505050505050565b6000600182016128ec576128ec6126db565b5060010190565b601f821115610a16576000816000526020600020601f850160051c8101602086101561291c5750805b601f850160051c820191505b8181101561293b57828155600101612928565b505050505050565b815167ffffffffffffffff81111561295d5761295d611eea565b6129718161296b8454612717565b846128f3565b602080601f8311600181146129a6576000841561298e5750858301515b600019600386901b1c1916600185901b17855561293b565b600085815260208120601f198616915b828110156129d5578886015182559484019460019091019084016129b6565b50858210156129f35787850151600019600388901b60f8161c191681555b5050505050600190811b01905550565b604081526000612a166040830185612078565b828103602084015261215a818561207856fea2646970667358221220820008b8d490be2e56cd336ce8f7064f07157c258a9ec46113b7c439e201863964736f6c63430008180033",
  "linkReferences": {},
  "deployedLinkReferences": {}
}