{
  "_format": "hh-sol-artifact-1",
  "contractName": "SoulboundNFTAdapter",
  "sourceName": "contracts/adapters/SoulboundNFTAdapter.sol",
  "abi": [
    {
      "inputs": [
        {
          "internalType": "address",
          "name": "_nft",
          "type": "address"
        }
      ],
      "stateMutability": "nonpayable",
      "type": "constructor"
    },
    {
      "inputs": [],
      "name": "ZeroAddress",
      "type": "error"
    },
    {
      "inputs": [
        {
          "internalType": "uint256",
          "name": "_tokenId",
          "type": "uint256"
        }
      ],
      "name": "burn",
      "outputs": [],
      "stateMutability": "nonpayable",
      "type": "function"
    },
    {
      "inputs": [
        {
          "internalType": "uint256",
          "name": "_tokenId",
          "type": "uint256"
        }
      ],
      "name": "getTokenDetails",
      "outputs": [
        {
          "internalType": "address",
          "name": "tokenOwner",
          "type": "address"
        },
        {
          "internalType": "string",
          "name": "tokenURI",
          "type": "string"
        },
        {
          "internalType": "uint256",
          "name": "mintedAt",
          "type": "uint256"
        },
        {
          "internalType": "bool",
          "name": "revoked",
          "type": "bool"
        }
      ],
      "stateMutability": "view",
      "type": "function"
    },
    {
      "inputs": [
        {
          "internalType": "address",
          "name": "_newAdmin",
          "type": "address"
        }
      ],
      "name": "grantAdminRole",
      "outputs": [],
      "stateMutability": "nonpayable",
      "type": "function"
    },
    {
      "inputs": [
        {
          "internalType": "address",
          "name": "_minter",
          "type": "address"
        }
      ],
      "name": "grantMinterRole",
      "outputs": [],
      "stateMutability": "nonpayable",
      "type": "function"
    },
    {
      "inputs": [
        {
          "internalType": "address",
          "name": "_owner",
          "type": "address"
        }
      ],
      "name": "hasValidToken",
      "outputs": [
        {
          "internalType": "bool",
          "name": "",
          "type": "bool"
        }
      ],
      "stateMutability": "view",
      "type": "function"
    },
    {
      "inputs": [
        {
          "internalType": "address",
          "name": "_account",
          "type": "address"
        }
      ],
      "name": "isAdmin",
      "outputs": [
        {
          "internalType": "bool",
          "name": "",
          "type": "bool"
        }
      ],
      "stateMutability": "view",
      "type": "function"
    },
    {
      "inputs": [
        {
          "internalType": "address",
          "name": "_account",
          "type": "address"
        }
      ],
      "name": "isMinter",
      "outputs": [
        {
          "internalType": "bool",
          "name": "",
          "type": "bool"
        }
      ],
      "stateMutability": "view",
      "type": "function"
    },
    {
      "inputs": [
        {
          "internalType": "uint256",
          "name": "_tokenId",
          "type": "uint256"
        }
      ],
      "name": "isTokenValid",
      "outputs": [
        {
          "internalType": "bool",
          "name": "",
          "type": "bool"
        }
      ],
      "stateMutability": "view",
      "type": "function"
    },
    {
      "inputs": [
        {
          "internalType": "address",
          "name": "_to",
          "type": "address"
        },
        {
          "internalType": "string",
          "name": "_identifier",
          "type": "string"
        }
      ],
      "name": "mint",
      "outputs": [
        {
          "internalType": "uint256",
          "name": "",
          "type": "uint256"
        }
      ],
      "stateMutability": "nonpayable",
      "type": "function"
    },
    {
      "inputs": [],
      "name": "nft",
      "outputs": [
        {
          "internalType": "contract SoulboundNFT",
          "name": "",
          "type": "address"
        }
      ],
      "stateMutability": "view",
      "type": "function"
    },
    {
      "inputs": [
        {
          "internalType": "uint256",
          "name": "_tokenId",
          "type": "uint256"
        }
      ],
      "name": "revoke",
      "outputs": [],
      "stateMutability": "nonpayable",
      "type": "function"
    },
    {
      "inputs": [
        {
          "internalType": "address",
          "name": "_minter",
          "type": "address"
        }
      ],
      "name": "revokeMinterRole",
      "outputs": [],
      "stateMutability": "nonpayable",
      "type": "function"
    },
    {
      "inputs": [
        {
          "internalType": "bytes4",
          "name": "interfaceId",
          "type": "bytes4"
        }
      ],
      "name": "supportsInterface",
      "outputs": [
        {
          "internalType": "bool",
          "name": "",
          "type": "bool"
        }
      ],
      "stateMutability": "view",
      "type": "function"
    },
    {
      "inputs": [
        {
          "internalType": "address",
          "name": "_newOwner",
          "type": "address"
        }
      ],
      "name": "transferOwnership",
      "outputs": [],
      "stateMutability": "nonpayable",
      "type": "function"
    }
  ],
  "bytecode": "0x608060405234801561001057600080fd5b506040516109b13803806109b183398101604081905261002f9161007b565b6001600160a01b0381166100565760405163d92e233d60e01b815260040160405180910390fd5b600080546001600160a01b0319166001600160a01b03929092169190911790556100ab565b60006020828403121561008d57600080fd5b81516001600160a01b03811681146100a457600080fd5b9392505050565b6108f7806100ba6000396000f3fe608060405234801561001057600080fd5b50600436106100ea5760003560e01c80639d2676301161008c578063c634b78e11610066578063c634b78e146101d9578063c92243d8146101ec578063d0def521146101ff578063f2fde38b1461022057600080fd5b80639d26763014610190578063aa271e1a146101a3578063c1e03728146101b657600080fd5b80633dd1eb61116100c85780633dd1eb611461013f57806342966c681461011757806347ccca021461015257806369e2f0fb1461017d57600080fd5b806301ffc9a7146100ef57806320c5429b1461011757806324d7806c1461012c575b600080fd5b6101026100fd36600461059f565b610233565b60405190151581526020015b60405180910390f35b61012a6101253660046105c9565b61026a565b005b61010261013a3660046105fa565b6102cc565b61012a61014d3660046105fa565b61033c565b600054610165906001600160a01b031681565b6040516001600160a01b03909116815260200161010e565b61012a61018b3660046105fa565b61036e565b61010261019e3660046105fa565b6103a0565b6101026101b13660046105fa565b6103d3565b6101c96101c43660046105c9565b610406565b60405161010e9493929190610667565b61012a6101e73660046105fa565b61048c565b6101026101fa3660046105c9565b6104be565b61021261020d366004610712565b6104f0565b60405190815260200161010e565b61012a61022e3660046105fa565b61056d565b60006001600160e01b031982166301ffc9a760e01b148061026457506001600160e01b0319821663c96308fb60e01b145b92915050565b6000546040516320c5429b60e01b8152600481018390526001600160a01b03909116906320c5429b906024015b600060405180830381600087803b1580156102b157600080fd5b505af11580156102c5573d6000803e3d6000fd5b5050505050565b60008054604051630935e01b60e21b81526001600160a01b038481166004830152909116906324d7806c906024015b602060405180830381865afa158015610318573d6000803e3d6000fd5b505050506040513d601f19601f8201168201806040525081019061026491906107ba565b600054604051633dd1eb6160e01b81526001600160a01b03838116600483015290911690633dd1eb6190602401610297565b6000546040516369e2f0fb60e01b81526001600160a01b038381166004830152909116906369e2f0fb90602401610297565b600080546040516309d2676360e41b81526001600160a01b03848116600483015290911690639d267630906024016102fb565b600080546040516355138f0d60e11b81526001600160a01b0384811660048301529091169063aa271e1a906024016102fb565b6000805460405163183c06e560e31b815260048101849052606091839182916001600160a01b03169063c1e0372890602401600060405180830381865afa158015610455573d6000803e3d6000fd5b505050506040513d6000823e601f3d908101601f1916820160405261047d91908101906107d5565b93509350935093509193509193565b60005460405163631a5bc760e11b81526001600160a01b0383811660048301529091169063c634b78e90602401610297565b60008054604051631924487b60e31b8152600481018490526001600160a01b039091169063c92243d8906024016102fb565b6000805460405163d0def52160e01b81526001600160a01b039091169063d0def52190610523908690869060040161087c565b6020604051808303816000875af1158015610542573d6000803e3d6000fd5b505050506040513d601f19601f8201168201806040525081019061056691906108a8565b9392505050565b60005460405163f2fde38b60e01b81526001600160a01b0383811660048301529091169063f2fde38b90602401610297565b6000602082840312156105b157600080fd5b81356001600160e01b03198116811461056657600080fd5b6000602082840312156105db57600080fd5b5035919050565b6001600160a01b03811681146105f757600080fd5b50565b60006020828403121561060c57600080fd5b8135610566816105e2565b60005b8381101561063257818101518382015260200161061a565b50506000910152565b60008151808452610653816020860160208601610617565b601f01601f19169290920160200192915050565b6001600160a01b038516815260806020820181905260009061068b9083018661063b565b60408301949094525090151560609091015292915050565b634e487b7160e01b600052604160045260246000fd5b604051601f8201601f1916810167ffffffffffffffff811182821017156106e2576106e26106a3565b604052919050565b600067ffffffffffffffff821115610704576107046106a3565b50601f01601f191660200190565b6000806040838503121561072557600080fd5b8235610730816105e2565b9150602083013567ffffffffffffffff81111561074c57600080fd5b8301601f8101851361075d57600080fd5b803561077061076b826106ea565b6106b9565b81815286602083850101111561078557600080fd5b816020840160208301376000602083830101528093505050509250929050565b805180151581146107b557600080fd5b919050565b6000602082840312156107cc57600080fd5b610566826107a5565b600080600080608085870312156107eb57600080fd5b84516107f6816105e2565b602086015190945067ffffffffffffffff81111561081357600080fd5b8501601f8101871361082457600080fd5b805161083261076b826106ea565b81815288602083850101111561084757600080fd5b610858826020830160208601610617565b80955050505060408501519150610871606086016107a5565b905092959194509250565b6001600160a01b03831681526040602082018190526000906108a09083018461063b565b949350505050565b6000602082840312156108ba57600080fd5b505191905056fea2646970667358221220e6bdecba2558b2c29c8d7fd789900cfe0f386594a8b2bc6c6ad65b2106538b7364736f6c63430008180033",
  "linkReferences": {},
  "deployedLinkReferences": {}
}