{
  "_format": "hh-sol-artifact-1",
  "contractName": "MockTokenOptimizerTest",
  "sourceName": "contracts/mocks/MockTokenOptimizerTest.sol",
  "abi": [
    {
      "inputs": [],
      "stateMutability": "nonpayable",
      "type": "constructor"
    },
    {
      "inputs": [],
      "name": "AccessControlBadConfirmation",
      "type": "error"
    },
    {
      "inputs": [
        {
          "internalType": "address",
          "name": "account",
          "type": "address"
        },
        {
          "internalType": "bytes32",
          "name": "neededRole",
          "type": "bytes32"
        }
      ],
      "name": "AccessControlUnauthorizedAccount",
      "type": "error"
    },
    {
      "inputs": [],
      "name": "ApprovalFailed",
      "type": "error"
    },
    {
      "inputs": [],
      "name": "InsufficientAllowance",
      "type": "error"
    },
    {
      "inputs": [],
      "name": "InvalidArrayLength",
      "type": "error"
    },
    {
      "inputs": [],
      "name": "MathOverflow",
      "type": "error"
    },
    {
      "inputs": [],
      "name": "ZeroAddress",
      "type": "error"
    },
    {
      "anonymous": false,
      "inputs": [
        {
          "indexed": true,
          "internalType": "string",
          "name": "functionName",
          "type": "string"
        },
        {
          "indexed": true,
          "internalType": "address",
          "name": "caller",
          "type": "address"
        },
        {
          "indexed": false,
          "internalType": "bytes",
          "name": "data",
          "type": "bytes"
        }
      ],
      "name": "MockFunctionCalled",
      "type": "event"
    },
    {
      "anonymous": false,
      "inputs": [
        {
          "indexed": true,
          "internalType": "address",
          "name": "caller",
          "type": "address"
        }
      ],
      "name": "MockInitialized",
      "type": "event"
    },
    {
      "anonymous": false,
      "inputs": [],
      "name": "MockStateReset",
      "type": "event"
    },
    {
      "anonymous": false,
      "inputs": [
        {
          "indexed": true,
          "internalType": "bytes32",
          "name": "role",
          "type": "bytes32"
        },
        {
          "indexed": true,
          "internalType": "bytes32",
          "name": "previousAdminRole",
          "type": "bytes32"
        },
        {
          "indexed": true,
          "internalType": "bytes32",
          "name": "newAdminRole",
          "type": "bytes32"
        }
      ],
      "name": "RoleAdminChanged",
      "type": "event"
    },
    {
      "anonymous": false,
      "inputs": [
        {
          "indexed": true,
          "internalType": "bytes32",
          "name": "role",
          "type": "bytes32"
        },
        {
          "indexed": true,
          "internalType": "address",
          "name": "account",
          "type": "address"
        },
        {
          "indexed": true,
          "internalType": "address",
          "name": "sender",
          "type": "address"
        }
      ],
      "name": "RoleGranted",
      "type": "event"
    },
    {
      "anonymous": false,
      "inputs": [
        {
          "indexed": true,
          "internalType": "bytes32",
          "name": "role",
          "type": "bytes32"
        },
        {
          "indexed": true,
          "internalType": "address",
          "name": "account",
          "type": "address"
        },
        {
          "indexed": true,
          "internalType": "address",
          "name": "sender",
          "type": "address"
        }
      ],
      "name": "RoleRevoked",
      "type": "event"
    },
    {
      "inputs": [],
      "name": "DEFAULT_ADMIN_ROLE",
      "outputs": [
        {
          "internalType": "bytes32",
          "name": "",
          "type": "bytes32"
        }
      ],
      "stateMutability": "view",
      "type": "function"
    },
    {
      "inputs": [
        {
          "internalType": "contract IERC20[]",
          "name": "tokens",
          "type": "address[]"
        },
        {
          "internalType": "address",
          "name": "spender",
          "type": "address"
        },
        {
          "internalType": "uint256[]",
          "name": "amounts",
          "type": "uint256[]"
        }
      ],
      "name": "batchApprove",
      "outputs": [
        {
          "internalType": "bool[]",
          "name": "results",
          "type": "bool[]"
        }
      ],
      "stateMutability": "nonpayable",
      "type": "function"
    },
    {
      "inputs": [],
      "name": "callCount",
      "outputs": [
        {
          "internalType": "uint256",
          "name": "",
          "type": "uint256"
        }
      ],
      "stateMutability": "view",
      "type": "function"
    },
    {
      "inputs": [
        {
          "internalType": "contract IERC20",
          "name": "token",
          "type": "address"
        },
        {
          "internalType": "address",
          "name": "spender",
          "type": "address"
        }
      ],
      "name": "clearApproval",
      "outputs": [
        {
          "internalType": "bool",
          "name": "success",
          "type": "bool"
        }
      ],
      "stateMutability": "nonpayable",
      "type": "function"
    },
    {
      "inputs": [
        {
          "internalType": "contract IERC20",
          "name": "token",
          "type": "address"
        },
        {
          "internalType": "address",
          "name": "spender",
          "type": "address"
        },
        {
          "internalType": "uint256",
          "name": "amount",
          "type": "uint256"
        }
      ],
      "name": "ensureTokensApproved",
      "outputs": [
        {
          "internalType": "bool",
          "name": "",
          "type": "bool"
        }
      ],
      "stateMutability": "nonpayable",
      "type": "function"
    },
    {
      "inputs": [
        {
          "internalType": "string",
          "name": "",
          "type": "string"
        }
      ],
      "name": "functionCallCount",
      "outputs": [
        {
          "internalType": "uint256",
          "name": "",
          "type": "uint256"
        }
      ],
      "stateMutability": "view",
      "type": "function"
    },
    {
      "inputs": [
        {
          "internalType": "string",
          "name": "functionName",
          "type": "string"
        }
      ],
      "name": "getFunctionCallCount",
      "outputs": [
        {
          "internalType": "uint256",
          "name": "",
          "type": "uint256"
        }
      ],
      "stateMutability": "view",
      "type": "function"
    },
    {
      "inputs": [
        {
          "internalType": "string",
          "name": "functionName",
          "type": "string"
        }
      ],
      "name": "getFunctionCallHistory",
      "outputs": [
        {
          "internalType": "uint256",
          "name": "count",
          "type": "uint256"
        },
        {
          "internalType": "address",
          "name": "lastCaller_",
          "type": "address"
        },
        {
          "internalType": "bytes",
          "name": "lastData",
          "type": "bytes"
        }
      ],
      "stateMutability": "view",
      "type": "function"
    },
    {
      "inputs": [],
      "name": "getLastBatchResults",
      "outputs": [
        {
          "internalType": "bool[]",
          "name": "",
          "type": "bool[]"
        }
      ],
      "stateMutability": "view",
      "type": "function"
    },
    {
      "inputs": [
        {
          "internalType": "bytes32",
          "name": "role",
          "type": "bytes32"
        }
      ],
      "name": "getRoleAdmin",
      "outputs": [
        {
          "internalType": "bytes32",
          "name": "",
          "type": "bytes32"
        }
      ],
      "stateMutability": "view",
      "type": "function"
    },
    {
      "inputs": [
        {
          "internalType": "bytes32",
          "name": "role",
          "type": "bytes32"
        },
        {
          "internalType": "address",
          "name": "account",
          "type": "address"
        }
      ],
      "name": "grantRole",
      "outputs": [],
      "stateMutability": "nonpayable",
      "type": "function"
    },
    {
      "inputs": [
        {
          "internalType": "bytes32",
          "name": "role",
          "type": "bytes32"
        },
        {
          "internalType": "address",
          "name": "account",
          "type": "address"
        }
      ],
      "name": "hasRole",
      "outputs": [
        {
          "internalType": "bool",
          "name": "",
          "type": "bool"
        }
      ],
      "stateMutability": "view",
      "type": "function"
    },
    {
      "inputs": [],
      "name": "initialize",
      "outputs": [],
      "stateMutability": "nonpayable",
      "type": "function"
    },
    {
      "inputs": [],
      "name": "initialized",
      "outputs": [
        {
          "internalType": "bool",
          "name": "",
          "type": "bool"
        }
      ],
      "stateMutability": "view",
      "type": "function"
    },
    {
      "inputs": [],
      "name": "lastApprovalWasOptimized",
      "outputs": [
        {
          "internalType": "bool",
          "name": "",
          "type": "bool"
        }
      ],
      "stateMutability": "view",
      "type": "function"
    },
    {
      "inputs": [
        {
          "internalType": "string",
          "name": "",
          "type": "string"
        }
      ],
      "name": "lastCallData",
      "outputs": [
        {
          "internalType": "bytes",
          "name": "",
          "type": "bytes"
        }
      ],
      "stateMutability": "view",
      "type": "function"
    },
    {
      "inputs": [],
      "name": "lastCaller",
      "outputs": [
        {
          "internalType": "address",
          "name": "",
          "type": "address"
        }
      ],
      "stateMutability": "view",
      "type": "function"
    },
    {
      "inputs": [
        {
          "internalType": "string",
          "name": "",
          "type": "string"
        }
      ],
      "name": "lastCallerByFunction",
      "outputs": [
        {
          "internalType": "address",
          "name": "",
          "type": "address"
        }
      ],
      "stateMutability": "view",
      "type": "function"
    },
    {
      "inputs": [
        {
          "internalType": "contract IERC20",
          "name": "token",
          "type": "address"
        },
        {
          "internalType": "address",
          "name": "spender",
          "type": "address"
        },
        {
          "internalType": "uint256",
          "name": "amount",
          "type": "uint256"
        }
      ],
      "name": "optimizeApproval",
      "outputs": [
        {
          "internalType": "bool",
          "name": "success",
          "type": "bool"
        }
      ],
      "stateMutability": "nonpayable",
      "type": "function"
    },
    {
      "inputs": [
        {
          "internalType": "bytes32",
          "name": "role",
          "type": "bytes32"
        },
        {
          "internalType": "address",
          "name": "callerConfirmation",
          "type": "address"
        }
      ],
      "name": "renounceRole",
      "outputs": [],
      "stateMutability": "nonpayable",
      "type": "function"
    },
    {
      "inputs": [],
      "name": "reset",
      "outputs": [],
      "stateMutability": "nonpayable",
      "type": "function"
    },
    {
      "inputs": [
        {
          "internalType": "bytes32",
          "name": "role",
          "type": "bytes32"
        },
        {
          "internalType": "address",
          "name": "account",
          "type": "address"
        }
      ],
      "name": "revokeRole",
      "outputs": [],
      "stateMutability": "nonpayable",
      "type": "function"
    },
    {
      "inputs": [
        {
          "internalType": "contract IERC20",
          "name": "token",
          "type": "address"
        },
        {
          "internalType": "address",
          "name": "spender",
          "type": "address"
        },
        {
          "internalType": "uint256",
          "name": "subtractedValue",
          "type": "uint256"
        }
      ],
      "name": "safeDecreaseAllowance",
      "outputs": [
        {
          "internalType": "bool",
          "name": "success",
          "type": "bool"
        }
      ],
      "stateMutability": "nonpayable",
      "type": "function"
    },
    {
      "inputs": [
        {
          "internalType": "contract IERC20",
          "name": "token",
          "type": "address"
        },
        {
          "internalType": "address",
          "name": "spender",
          "type": "address"
        },
        {
          "internalType": "uint256",
          "name": "addedValue",
          "type": "uint256"
        }
      ],
      "name": "safeIncreaseAllowance",
      "outputs": [
        {
          "internalType": "bool",
          "name": "success",
          "type": "bool"
        }
      ],
      "stateMutability": "nonpayable",
      "type": "function"
    },
    {
      "inputs": [
        {
          "internalType": "contract IERC20",
          "name": "token",
          "type": "address"
        },
        {
          "internalType": "address",
          "name": "spender",
          "type": "address"
        },
        {
          "internalType": "uint256",
          "name": "amount",
          "type": "uint256"
        }
      ],
      "name": "singleTransactionApprove",
      "outputs": [
        {
          "internalType": "bool",
          "name": "success",
          "type": "bool"
        }
      ],
      "stateMutability": "nonpayable",
      "type": "function"
    },
    {
      "inputs": [
        {
          "internalType": "bytes4",
          "name": "interfaceId",
          "type": "bytes4"
        }
      ],
      "name": "supportsInterface",
      "outputs": [
        {
          "internalType": "bool",
          "name": "",
          "type": "bool"
        }
      ],
      "stateMutability": "view",
      "type": "function"
    },
    {
      "inputs": [
        {
          "internalType": "address[]",
          "name": "tokens",
          "type": "address[]"
        },
        {
          "internalType": "address",
          "name": "spender",
          "type": "address"
        },
        {
          "internalType": "uint256[]",
          "name": "amounts",
          "type": "uint256[]"
        }
      ],
      "name": "testBatchApprove",
      "outputs": [
        {
          "internalType": "bool[]",
          "name": "",
          "type": "bool[]"
        }
      ],
      "stateMutability": "nonpayable",
      "type": "function"
    },
    {
      "inputs": [
        {
          "internalType": "address",
          "name": "token",
          "type": "address"
        },
        {
          "internalType": "address",
          "name": "spender",
          "type": "address"
        },
        {
          "internalType": "uint256",
          "name": "subtractedValue",
          "type": "uint256"
        }
      ],
      "name": "testDecreaseAllowance",
      "outputs": [
        {
          "internalType": "bool",
          "name": "",
          "type": "bool"
        }
      ],
      "stateMutability": "nonpayable",
      "type": "function"
    },
    {
      "inputs": [
        {
          "internalType": "address",
          "name": "token",
          "type": "address"
        },
        {
          "internalType": "address",
          "name": "spender",
          "type": "address"
        },
        {
          "internalType": "uint256",
          "name": "addedValue",
          "type": "uint256"
        }
      ],
      "name": "testIncreaseAllowance",
      "outputs": [
        {
          "internalType": "bool",
          "name": "",
          "type": "bool"
        }
      ],
      "stateMutability": "nonpayable",
      "type": "function"
    },
    {
      "inputs": [
        {
          "internalType": "address",
          "name": "token",
          "type": "address"
        },
        {
          "internalType": "address",
          "name": "spender",
          "type": "address"
        },
        {
          "internalType": "uint256",
          "name": "amount",
          "type": "uint256"
        }
      ],
      "name": "testOptimizedApprove",
      "outputs": [
        {
          "internalType": "bool",
          "name": "",
          "type": "bool"
        }
      ],
      "stateMutability": "nonpayable",
      "type": "function"
    },
    {
      "inputs": [
        {
          "internalType": "string",
          "name": "functionName",
          "type": "string"
        }
      ],
      "name": "wasFunctionCalled",
      "outputs": [
        {
          "internalType": "bool",
          "name": "",
          "type": "bool"
        }
      ],
      "stateMutability": "view",
      "type": "function"
    }
  ],
  "bytecode": "0x60806040523480156200001157600080fd5b506200001f60003362000026565b50620000d5565b6000828152602081815260408083206001600160a01b038516845290915281205460ff16620000cb576000838152602081815260408083206001600160a01b03861684529091529020805460ff19166001179055620000823390565b6001600160a01b0316826001600160a01b0316847f2f8788117e7eff1d82e926ec794901d17c78024a50270940304540a733656f0d60405160405180910390a4506001620000cf565b5060005b92915050565b612a2d80620000e56000396000f3fe608060405234801561001057600080fd5b50600436106101e55760003560e01c80636af602751161010f578063c054c6ce116100a2578063d826f88f11610071578063d826f88f14610459578063dfdbdd5014610461578063ebe2970314610481578063f9255c1f1461049457600080fd5b8063c054c6ce1461040d578063c8b3b0ac14610420578063d124a1c314610433578063d547741f1461044657600080fd5b806391d14854116100de57806391d14854146103cc578063a217fddf146103df578063b2255290146103e7578063bb02cd1c146103fa57600080fd5b80636af60275146103915780637b084ddc146103a65780637d73bd5c146103b15780638129fc1c146103c457600080fd5b8063248a9ca3116101875780633ca3910c116101565780633ca3910c14610328578063422b010b1461034a5780634b28f9a214610375578063675215d21461037e57600080fd5b8063248a9ca3146102ca5780632f2ff15d146102ed57806336568abe146103025780633bb156881461031557600080fd5b80631a82a643116101c35780631a82a643146102325780631df86bc6146102535780632113522a1461029f57806323fdfd5d146102b757600080fd5b806301ffc9a7146101ea578063146f1af414610212578063158ef93e14610225575b600080fd5b6101fd6101f8366004612168565b6104a7565b60405190151581526020015b60405180910390f35b6101fd6102203660046121b7565b6104de565b6001546101fd9060ff1681565b61024561024036600461223f565b6106ed565b604051908152602001610209565b61028761026136600461223f565b80516020818301810180516005825292820191909301209152546001600160a01b031681565b6040516001600160a01b039091168152602001610209565b6001546102879061010090046001600160a01b031681565b6101fd6102c53660046121b7565b610715565b6102456102d83660046122d4565b60009081526020819052604090206001015490565b6103006102fb3660046122ed565b610844565b005b6103006103103660046122ed565b61086f565b6101fd6103233660046121b7565b6108a7565b61033b61033636600461223f565b610a64565b6040516102099392919061236d565b61024561035836600461223f565b805160208183018101805160038252928201919093012091525481565b61024560025481565b6101fd61038c3660046121b7565b610b67565b610399610d34565b60405161020991906123a0565b60075460ff166101fd565b6101fd6103bf3660046123e6565b610dac565b610300610eca565b6101fd6103da3660046122ed565b610f5b565b610245600081565b6101fd6103f53660046121b7565b610f84565b6101fd6104083660046121b7565b611157565b6101fd61041b36600461223f565b611331565b61039961042e36600461249c565b61135b565b6103996104413660046125bd565b611703565b6103006104543660046122ed565b611aa2565b610300611ac7565b61047461046f36600461223f565b611b13565b6040516102099190612642565b6101fd61048f3660046121b7565b611bb8565b6101fd6104a23660046121b7565b611c84565b60006001600160e01b03198216637965db0b60e01b14806104d857506301ffc9a760e01b6001600160e01b03198316145b92915050565b600061053960405180604001604052806014815260200173746573744f7074696d697a6564417070726f766560601b81525085858560405160200161052593929190612655565b604051602081830303815290604052611e57565b604051636eb1769f60e11b81526000906001600160a01b0386169063dd62ed3e9061056a9030908890600401612679565b602060405180830381865afa158015610587573d6000803e3d6000fd5b505050506040513d601f19601f820116820180604052508101906105ab9190612693565b90508281036105cb5750506007805460ff191660019081179091556106e6565b6007805460ff1916905580158015906105e45750600083115b156106715760405163095ea7b360e01b81526000906001600160a01b0387169063095ea7b39061061a90889085906004016126ac565b6020604051808303816000875af1158015610639573d6000803e3d6000fd5b505050506040513d601f19601f8201168201806040525081019061065d91906126c5565b90508061066f576000925050506106e6565b505b60405163095ea7b360e01b81526001600160a01b0386169063095ea7b39061069f90879087906004016126ac565b6020604051808303816000875af11580156106be573d6000803e3d6000fd5b505050506040513d601f19601f820116820180604052508101906106e291906126c5565b9150505b9392505050565b60006003826040516106ff91906126e7565b9081526020016040518091039020549050919050565b60006107656040518060400160405280601881526020017f73696e676c655472616e73616374696f6e417070726f7665000000000000000081525085858560405160200161052593929190612655565b6001600160a01b03841661078c5760405163d92e233d60e01b815260040160405180910390fd5b6001600160a01b0383166107b35760405163d92e233d60e01b815260040160405180910390fd5b60405163095ea7b360e01b81526001600160a01b0385169063095ea7b3906107e190869086906004016126ac565b6020604051808303816000875af1158015610800573d6000803e3d6000fd5b505050506040513d601f19601f8201168201806040525081019061082491906126c5565b9050806106e6576040516340b27c2160e11b815260040160405180910390fd5b60008281526020819052604090206001015461085f81611f75565b6108698383611f82565b50505050565b6001600160a01b03811633146108985760405163334bd91960e11b815260040160405180910390fd5b6108a28282612014565b505050565b60006108ea6040518060400160405280601081526020016f1bdc1d1a5b5a5e99505c1c1c9bdd985b60821b81525085858560405160200161052593929190612655565b6001600160a01b0384166109115760405163d92e233d60e01b815260040160405180910390fd5b6001600160a01b0383166109385760405163d92e233d60e01b815260040160405180910390fd5b604051636eb1769f60e11b81526000906001600160a01b0386169063dd62ed3e906109699030908890600401612679565b602060405180830381865afa158015610986573d6000803e3d6000fd5b505050506040513d601f19601f820116820180604052508101906109aa9190612693565b90508281036109bd5760019150506106e6565b6000811180156109cd5750600083115b156106715760405163095ea7b360e01b81526001600160a01b0386169063095ea7b390610a019087906000906004016126ac565b6020604051808303816000875af1158015610a20573d6000803e3d6000fd5b505050506040513d601f19601f82011682018060405250810190610a4491906126c5565b915081610671576040516340b27c2160e11b815260040160405180910390fd5b6000806060600384604051610a7991906126e7565b908152602001604051809103902054600585604051610a9891906126e7565b908152604051908190036020018120546001600160a01b031690600490610ac09088906126e7565b9081526020016040518091039020808054610ada90612703565b80601f0160208091040260200160405190810160405280929190818152602001828054610b0690612703565b8015610b535780601f10610b2857610100808354040283529160200191610b53565b820191906000526020600020905b815481529060010190602001808311610b3657829003601f168201915b505050505090509250925092509193909250565b6000610baf60405180604001604052806015815260200174736166654465637265617365416c6c6f77616e636560581b81525085858560405160200161052593929190612655565b6001600160a01b038416610bd65760405163d92e233d60e01b815260040160405180910390fd5b6001600160a01b038316610bfd5760405163d92e233d60e01b815260040160405180910390fd5b604051636eb1769f60e11b81526000906001600160a01b0386169063dd62ed3e90610c2e9030908890600401612679565b602060405180830381865afa158015610c4b573d6000803e3d6000fd5b505050506040513d601f19601f82011682018060405250810190610c6f9190612693565b905080831115610c92576040516313be252b60e01b815260040160405180910390fd5b6001600160a01b03851663095ea7b385610cac8685612753565b6040518363ffffffff1660e01b8152600401610cc99291906126ac565b6020604051808303816000875af1158015610ce8573d6000803e3d6000fd5b505050506040513d601f19601f82011682018060405250810190610d0c91906126c5565b915081610d2c576040516340b27c2160e11b815260040160405180910390fd5b509392505050565b60606006805480602002602001604051908101604052809291908181526020018280548015610da257602002820191906000526020600020906000905b825461010083900a900460ff161515815260206001928301818104948501949093039092029101808411610d715790505b5050505050905090565b6000610dea6040518060400160405280600d81526020016c18db19585c905c1c1c9bdd985b609a1b8152508484604051602001610525929190612679565b6001600160a01b038316610e115760405163d92e233d60e01b815260040160405180910390fd5b6001600160a01b038216610e385760405163d92e233d60e01b815260040160405180910390fd5b60405163095ea7b360e01b81526001600160a01b0384169063095ea7b390610e679085906000906004016126ac565b6020604051808303816000875af1158015610e86573d6000803e3d6000fd5b505050506040513d601f19601f82011682018060405250810190610eaa91906126c5565b9050806104d8576040516340b27c2160e11b815260040160405180910390fd5b60015460ff1615610f225760405162461bcd60e51b815260206004820152601d60248201527f426173654d6f636b3a20616c726561647920696e697469616c697a656400000060448201526064015b60405180910390fd5b6001805460ff19168117905560405133907f30f7074e868351008998491171b433e7342f255e986fef03e5eec84f01786f0190600090a2565b6000918252602082815260408084206001600160a01b0393909316845291905290205460ff1690565b6000610fcc60405180604001604052806015815260200174746573744465637265617365416c6c6f77616e636560581b81525085858560405160200161052593929190612655565b6001600160a01b038416610ff35760405163d92e233d60e01b815260040160405180910390fd5b6001600160a01b03831661101a5760405163d92e233d60e01b815260040160405180910390fd5b604051636eb1769f60e11b815284906000906001600160a01b0383169063dd62ed3e9061104d9030908990600401612679565b602060405180830381865afa15801561106a573d6000803e3d6000fd5b505050506040513d601f19601f8201168201806040525081019061108e9190612693565b9050808411156110b1576040516313be252b60e01b815260040160405180910390fd5b60006001600160a01b03831663095ea7b3876110cd8886612753565b6040518363ffffffff1660e01b81526004016110ea9291906126ac565b6020604051808303816000875af1158015611109573d6000803e3d6000fd5b505050506040513d601f19601f8201168201806040525081019061112d91906126c5565b90508061114d576040516340b27c2160e11b815260040160405180910390fd5b9695505050505050565b600061119f6040518060400160405280601581526020017474657374496e637265617365416c6c6f77616e636560581b81525085858560405160200161052593929190612655565b6001600160a01b0384166111c65760405163d92e233d60e01b815260040160405180910390fd5b6001600160a01b0383166111ed5760405163d92e233d60e01b815260040160405180910390fd5b604051636eb1769f60e11b815284906000906001600160a01b0383169063dd62ed3e906112209030908990600401612679565b602060405180830381865afa15801561123d573d6000803e3d6000fd5b505050506040513d601f19601f820116820180604052508101906112619190612693565b9050600061126f8583612766565b90508181101561129257604051634eab2ea760e11b815260040160405180910390fd5b60405163095ea7b360e01b81526000906001600160a01b0385169063095ea7b3906112c3908a9086906004016126ac565b6020604051808303816000875af11580156112e2573d6000803e3d6000fd5b505050506040513d601f19601f8201168201806040525081019061130691906126c5565b905080611326576040516340b27c2160e11b815260040160405180910390fd5b979650505050505050565b60008060038360405161134491906126e7565b908152602001604051809103902054119050919050565b606061139a6040518060400160405280600c81526020016b6261746368417070726f766560a01b81525085858560405160200161052593929190612779565b81518451146113bc57604051634ec4810560e11b815260040160405180910390fd5b6001600160a01b0383166113e35760405163d92e233d60e01b815260040160405180910390fd5b835167ffffffffffffffff8111156113fd576113fd6121f8565b604051908082528060200260200182016040528015611426578160200160208202803683370190505b50905060005b84518110156116ef5760006001600160a01b03168582815181106114525761145261280d565b60200260200101516001600160a01b0316036114815760405163d92e233d60e01b815260040160405180910390fd5b60008582815181106114955761149561280d565b60200260200101516001600160a01b031663dd62ed3e30876040518363ffffffff1660e01b81526004016114ca929190612679565b602060405180830381865afa1580156114e7573d6000803e3d6000fd5b505050506040513d601f19601f8201168201806040525081019061150b9190612693565b905060008483815181106115215761152161280d565b6020026020010151905080820361155f5760018484815181106115465761154661280d565b60200260200101901515908115158152505050506116e7565b60008211801561156f5750600081115b156116385760008784815181106115885761158861280d565b60200260200101516001600160a01b031663095ea7b38860006040518363ffffffff1660e01b81526004016115be9291906126ac565b6020604051808303816000875af11580156115dd573d6000803e3d6000fd5b505050506040513d601f19601f8201168201806040525081019061160191906126c5565b90508061163657600085858151811061161c5761161c61280d565b6020026020010190151590811515815250505050506116e7565b505b86838151811061164a5761164a61280d565b60200260200101516001600160a01b031663095ea7b387836040518363ffffffff1660e01b815260040161167f9291906126ac565b6020604051808303816000875af115801561169e573d6000803e3d6000fd5b505050506040513d601f19601f820116820180604052508101906116c291906126c5565b8484815181106116d4576116d461280d565b9115156020928302919091019091015250505b60010161142c565b508051610d2c9060069060208401906120ae565b606061174a6040518060400160405280601081526020016f746573744261746368417070726f766560801b8152508787878787604051602001610525959493929190612823565b84821461176a57604051634ec4810560e11b815260040160405180910390fd5b6001600160a01b0384166117915760405163d92e233d60e01b815260040160405180910390fd5b60008567ffffffffffffffff8111156117ac576117ac6121f8565b6040519080825280602002602001820160405280156117d5578160200160208202803683370190505b50905060005b86811015611a835760008888838181106117f7576117f761280d565b905060200201602081019061180c91906128b1565b6001600160a01b0316036118335760405163d92e233d60e01b815260040160405180910390fd5b60008888838181106118475761184761280d565b905060200201602081019061185c91906128b1565b90506000816001600160a01b031663dd62ed3e308a6040518363ffffffff1660e01b815260040161188e929190612679565b602060405180830381865afa1580156118ab573d6000803e3d6000fd5b505050506040513d601f19601f820116820180604052508101906118cf9190612693565b905060008787858181106118e5576118e561280d565b9050602002013590508082036119235760018585815181106119095761190961280d565b602002602001019015159081151581525050505050611a7b565b6000821180156119335750600081115b156119e45760405163095ea7b360e01b81526000906001600160a01b0385169063095ea7b390611969908d9085906004016126ac565b6020604051808303816000875af1158015611988573d6000803e3d6000fd5b505050506040513d601f19601f820116820180604052508101906119ac91906126c5565b9050806119e25760008686815181106119c7576119c761280d565b60200260200101901515908115158152505050505050611a7b565b505b60405163095ea7b360e01b81526001600160a01b0384169063095ea7b390611a12908c9085906004016126ac565b6020604051808303816000875af1158015611a31573d6000803e3d6000fd5b505050506040513d601f19601f82011682018060405250810190611a5591906126c5565b858581518110611a6757611a6761280d565b911515602092830291909101909101525050505b6001016117db565b508051611a979060069060208401906120ae565b509695505050505050565b600082815260208190526040902060010154611abd81611f75565b6108698383612014565b6000611ad281611f75565b600180546001600160a81b0319169055600060028190556040517f47f78a7a0acc7fff3657157dc253c5e6a68550995cc6f47bc2bd707ec67370fb9190a150565b805160208183018101805160048252928201919093012091528054611b3790612703565b80601f0160208091040260200160405190810160405280929190818152602001828054611b6390612703565b8015611bb05780601f10611b8557610100808354040283529160200191611bb0565b820191906000526020600020905b815481529060010190602001808311611b9357829003601f168201915b505050505081565b6000611bff60405180604001604052806014815260200173195b9cdd5c99551bdad95b9cd05c1c1c9bdd995960621b81525085858560405160200161052593929190612655565b604051636eb1769f60e11b81526000906001600160a01b0386169063dd62ed3e90611c309030908890600401612679565b602060405180830381865afa158015611c4d573d6000803e3d6000fd5b505050506040513d601f19601f82011682018060405250810190611c719190612693565b90508281106106715760019150506106e6565b6000611ccc6040518060400160405280601581526020017473616665496e637265617365416c6c6f77616e636560581b81525085858560405160200161052593929190612655565b6001600160a01b038416611cf35760405163d92e233d60e01b815260040160405180910390fd5b6001600160a01b038316611d1a5760405163d92e233d60e01b815260040160405180910390fd5b604051636eb1769f60e11b81526000906001600160a01b0386169063dd62ed3e90611d4b9030908890600401612679565b602060405180830381865afa158015611d68573d6000803e3d6000fd5b505050506040513d601f19601f82011682018060405250810190611d8c9190612693565b90506000611d9a8483612766565b905081811015611dbd57604051634eab2ea760e11b815260040160405180910390fd5b60405163095ea7b360e01b81526001600160a01b0387169063095ea7b390611deb90889085906004016126ac565b6020604051808303816000875af1158015611e0a573d6000803e3d6000fd5b505050506040513d601f19601f82011682018060405250810190611e2e91906126c5565b925082611e4e576040516340b27c2160e11b815260040160405180910390fd5b50509392505050565b600382604051611e6791906126e7565b9081526040519081900360200190208054906000611e84836128ce565b919050555080600483604051611e9a91906126e7565b90815260200160405180910390209081611eb49190612937565b5033600583604051611ec691906126e7565b90815260405160209181900391909101902080546001600160a01b0319166001600160a01b039290921691909117905560018054610100600160a81b031916610100330217905560028054906000611f1d836128ce565b90915550506040513390611f329084906126e7565b60405180910390207f16b892c3de2f4b54dc114eff5c76ead156bac210353ee82615752957e1317df183604051611f699190612642565b60405180910390a35050565b611f7f813361207f565b50565b6000611f8e8383610f5b565b61200c576000838152602081815260408083206001600160a01b03861684529091529020805460ff19166001179055611fc43390565b6001600160a01b0316826001600160a01b0316847f2f8788117e7eff1d82e926ec794901d17c78024a50270940304540a733656f0d60405160405180910390a45060016104d8565b5060006104d8565b60006120208383610f5b565b1561200c576000838152602081815260408083206001600160a01b0386168085529252808320805460ff1916905551339286917ff6391f5c32d9c69d2a47ea670b442974b53935d1edc7fd64eb21e047a839171b9190a45060016104d8565b6120898282610f5b565b6120aa57808260405163e2517d3f60e01b8152600401610f199291906126ac565b5050565b82805482825590600052602060002090601f016020900481019282156121435791602002820160005b8382111561211457835183826101000a81548160ff02191690831515021790555092602001926001016020816000010492830192600103026120d7565b80156121415782816101000a81549060ff0219169055600101602081600001049283019260010302612114565b505b5061214f929150612153565b5090565b5b8082111561214f5760008155600101612154565b60006020828403121561217a57600080fd5b81356001600160e01b0319811681146106e657600080fd5b6001600160a01b0381168114611f7f57600080fd5b80356121b281612192565b919050565b6000806000606084860312156121cc57600080fd5b83356121d781612192565b925060208401356121e781612192565b929592945050506040919091013590565b634e487b7160e01b600052604160045260246000fd5b604051601f8201601f1916810167ffffffffffffffff81118282101715612237576122376121f8565b604052919050565b6000602080838503121561225257600080fd5b823567ffffffffffffffff8082111561226a57600080fd5b818501915085601f83011261227e57600080fd5b813581811115612290576122906121f8565b6122a2601f8201601f1916850161220e565b915080825286848285010111156122b857600080fd5b8084840185840137600090820190930192909252509392505050565b6000602082840312156122e657600080fd5b5035919050565b6000806040838503121561230057600080fd5b82359150602083013561231281612192565b809150509250929050565b60005b83811015612338578181015183820152602001612320565b50506000910152565b6000815180845261235981602086016020860161231d565b601f01601f19169290920160200192915050565b8381526001600160a01b038316602082015260606040820181905260009061239790830184612341565b95945050505050565b6020808252825182820181905260009190848201906040850190845b818110156123da5783511515835292840192918401916001016123bc565b50909695505050505050565b600080604083850312156123f957600080fd5b823561240481612192565b9150602083013561231281612192565b600067ffffffffffffffff82111561242e5761242e6121f8565b5060051b60200190565b600082601f83011261244957600080fd5b8135602061245e61245983612414565b61220e565b8083825260208201915060208460051b87010193508684111561248057600080fd5b602086015b84811015611a975780358352918301918301612485565b6000806000606084860312156124b157600080fd5b833567ffffffffffffffff808211156124c957600080fd5b818601915086601f8301126124dd57600080fd5b813560206124ed61245983612414565b82815260059290921b8401810191818101908a84111561250c57600080fd5b948201945b8386101561253357853561252481612192565b82529482019490820190612511565b975061254290508882016121a7565b95505050604086013591508082111561255a57600080fd5b5061256786828701612438565b9150509250925092565b60008083601f84011261258357600080fd5b50813567ffffffffffffffff81111561259b57600080fd5b6020830191508360208260051b85010111156125b657600080fd5b9250929050565b6000806000806000606086880312156125d557600080fd5b853567ffffffffffffffff808211156125ed57600080fd5b6125f989838a01612571565b90975095506020880135915061260e82612192565b9093506040870135908082111561262457600080fd5b5061263188828901612571565b969995985093965092949392505050565b6020815260006106e66020830184612341565b6001600160a01b039384168152919092166020820152604081019190915260600190565b6001600160a01b0392831681529116602082015260400190565b6000602082840312156126a557600080fd5b5051919050565b6001600160a01b03929092168252602082015260400190565b6000602082840312156126d757600080fd5b815180151581146106e657600080fd5b600082516126f981846020870161231d565b9190910192915050565b600181811c9082168061271757607f821691505b60208210810361273757634e487b7160e01b600052602260045260246000fd5b50919050565b634e487b7160e01b600052601160045260246000fd5b818103818111156104d8576104d861273d565b808201808211156104d8576104d861273d565b606080825284519082018190526000906020906080840190828801845b828110156127bb5781516001600160a01b031684529284019290840190600101612796565b5050506001600160a01b03861684830152838103604085015284518082528583019183019060005b818110156127ff578351835292840192918401916001016127e3565b509098975050505050505050565b634e487b7160e01b600052603260045260246000fd5b6060808252810185905260008660808301825b8881101561286657823561284981612192565b6001600160a01b0316825260209283019290910190600101612836565b506001600160a01b038716602085015283810360408501528481526001600160fb1b0385111561289557600080fd5b8460051b91508186602083013701602001979650505050505050565b6000602082840312156128c357600080fd5b81356106e681612192565b6000600182016128e0576128e061273d565b5060010190565b601f8211156108a2576000816000526020600020601f850160051c810160208610156129105750805b601f850160051c820191505b8181101561292f5782815560010161291c565b505050505050565b815167ffffffffffffffff811115612951576129516121f8565b6129658161295f8454612703565b846128e7565b602080601f83116001811461299a57600084156129825750858301515b600019600386901b1c1916600185901b17855561292f565b600085815260208120601f198616915b828110156129c9578886015182559484019460019091019084016129aa565b50858210156129e75787850151600019600388901b60f8161c191681555b5050505050600190811b0190555056fea2646970667358221220bdc7aeb7abb0d893bab7a9f9f04d8c7bb5f5411a349679496a67107013122b1164736f6c63430008180033",
  "linkReferences": {},
  "deployedLinkReferences": {}
}