{
  "_format": "hh-sol-artifact-1",
  "contractName": "MockLegacyConsumer",
  "sourceName": "contracts/mocks/MockLegacyConsumer.sol",
  "abi": [
    {
      "anonymous": false,
      "inputs": [
        {
          "indexed": false,
          "internalType": "address",
          "name": "token",
          "type": "address"
        },
        {
          "indexed": false,
          "internalType": "address",
          "name": "owner",
          "type": "address"
        },
        {
          "indexed": false,
          "internalType": "address",
          "name": "spender",
          "type": "address"
        },
        {
          "indexed": false,
          "internalType": "uint256",
          "name": "amount",
          "type": "uint256"
        },
        {
          "indexed": false,
          "internalType": "bool",
          "name": "sufficient",
          "type": "bool"
        }
      ],
      "name": "ApprovalChecked",
      "type": "event"
    },
    {
      "anonymous": false,
      "inputs": [
        {
          "indexed": false,
          "internalType": "address",
          "name": "token",
          "type": "address"
        },
        {
          "indexed": false,
          "internalType": "address",
          "name": "from",
          "type": "address"
        },
        {
          "indexed": false,
          "internalType": "address",
          "name": "to",
          "type": "address"
        },
        {
          "indexed": false,
          "internalType": "uint256",
          "name": "amount",
          "type": "uint256"
        }
      ],
      "name": "TransferExecuted",
      "type": "event"
    },
    {
      "inputs": [
        {
          "internalType": "address",
          "name": "token",
          "type": "address"
        },
        {
          "internalType": "address",
          "name": "owner",
          "type": "address"
        },
        {
          "internalType": "address",
          "name": "spender",
          "type": "address"
        },
        {
          "internalType": "uint256",
          "name": "amount",
          "type": "uint256"
        }
      ],
      "name": "checkAllowance",
      "outputs": [
        {
          "internalType": "bool",
          "name": "",
          "type": "bool"
        }
      ],
      "stateMutability": "nonpayable",
      "type": "function"
    },
    {
      "inputs": [
        {
          "internalType": "address",
          "name": "token",
          "type": "address"
        }
      ],
      "name": "checkIfPaused",
      "outputs": [
        {
          "internalType": "bool",
          "name": "",
          "type": "bool"
        }
      ],
      "stateMutability": "view",
      "type": "function"
    },
    {
      "inputs": [
        {
          "internalType": "address",
          "name": "token",
          "type": "address"
        },
        {
          "internalType": "address",
          "name": "from",
          "type": "address"
        },
        {
          "internalType": "address",
          "name": "to",
          "type": "address"
        },
        {
          "internalType": "uint256",
          "name": "amount",
          "type": "uint256"
        }
      ],
      "name": "executeTransfer",
      "outputs": [],
      "stateMutability": "nonpayable",
      "type": "function"
    },
    {
      "inputs": [
        {
          "internalType": "address",
          "name": "token",
          "type": "address"
        }
      ],
      "name": "getDecimals",
      "outputs": [
        {
          "internalType": "uint8",
          "name": "",
          "type": "uint8"
        }
      ],
      "stateMutability": "view",
      "type": "function"
    }
  ],
  "bytecode": "0x608060405234801561001057600080fd5b50610549806100206000396000f3fe608060405234801561001057600080fd5b506004361061004c5760003560e01c8063097a9ad8146100515780631c5d202b14610066578063bd0d151f1461008e578063cf54aaa0146100a1575b600080fd5b61006461005f366004610419565b6100c6565b005b610079610074366004610464565b61019a565b60405190151581526020015b60405180910390f35b61007961009c366004610419565b61025e565b6100b46100af366004610464565b610341565b60405160ff9091168152602001610085565b6040516323b872dd60e01b81526001600160a01b0384811660048301528381166024830152604482018390528516906323b872dd906064016020604051808303816000875af115801561011d573d6000803e3d6000fd5b505050506040513d601f19601f820116820180604052508101906101419190610486565b50604080516001600160a01b03868116825285811660208301528416818301526060810183905290517f1288af6a21bcbf8578557e4ee7c0be88a2be953a252ed25850019ea232b1a6bb9181900360800190a150505050565b60408051600481526024810182526020810180516001600160e01b0316635c975abb60e01b1790529051600091829182916001600160a01b038616916101e091906104a8565b600060405180830381855afa9150503d806000811461021b576040519150601f19603f3d011682016040523d82523d6000602084013e610220565b606091505b5091509150818015610233575080516020145b15610254578080602001905181019061024c9190610486565b949350505050565b5060009392505050565b604051636eb1769f60e11b81526001600160a01b0384811660048301528381166024830152600091829187169063dd62ed3e90604401602060405180830381865afa1580156102b1573d6000803e3d6000fd5b505050506040513d601f19601f820116820180604052508101906102d591906104d7565b604080516001600160a01b0389811682528881166020830152871681830152606081018690528583101560808201819052915192935090917fdcb96f867827afb12b949125110181a0a547aca79bd5a51717057ef09ed8b8a79181900360a00190a19695505050505050565b60408051600481526024810182526020810180516001600160e01b031663313ce56760e01b1790529051600091829182916001600160a01b0386169161038791906104a8565b600060405180830381855afa9150503d80600081146103c2576040519150601f19603f3d011682016040523d82523d6000602084013e6103c7565b606091505b50915091508180156103da575060008151115b156103f3578080602001905181019061024c91906104f0565b5060129392505050565b80356001600160a01b038116811461041457600080fd5b919050565b6000806000806080858703121561042f57600080fd5b610438856103fd565b9350610446602086016103fd565b9250610454604086016103fd565b9396929550929360600135925050565b60006020828403121561047657600080fd5b61047f826103fd565b9392505050565b60006020828403121561049857600080fd5b8151801515811461047f57600080fd5b6000825160005b818110156104c957602081860181015185830152016104af565b506000920191825250919050565b6000602082840312156104e957600080fd5b5051919050565b60006020828403121561050257600080fd5b815160ff8116811461047f57600080fdfea264697066735822122042f17b1199b28548d2d26de4ee709eb313a2338f6d3b2d89c87119849f82348a64736f6c63430008180033",
  "linkReferences": {},
  "deployedLinkReferences": {}
}