{
  "_format": "hh-sol-artifact-1",
  "contractName": "MockStandardPriceOracle",
  "sourceName": "contracts/mocks/MockStandardPriceOracle.sol",
  "abi": [
    {
      "inputs": [],
      "name": "AccessControlBadConfirmation",
      "type": "error"
    },
    {
      "inputs": [
        {
          "internalType": "address",
          "name": "account",
          "type": "address"
        },
        {
          "internalType": "bytes32",
          "name": "neededRole",
          "type": "bytes32"
        }
      ],
      "name": "AccessControlUnauthorizedAccount",
      "type": "error"
    },
    {
      "anonymous": false,
      "inputs": [
        {
          "indexed": true,
          "internalType": "string",
          "name": "functionName",
          "type": "string"
        },
        {
          "indexed": true,
          "internalType": "address",
          "name": "caller",
          "type": "address"
        },
        {
          "indexed": false,
          "internalType": "bytes",
          "name": "data",
          "type": "bytes"
        }
      ],
      "name": "MockFunctionCalled",
      "type": "event"
    },
    {
      "anonymous": false,
      "inputs": [
        {
          "indexed": true,
          "internalType": "address",
          "name": "caller",
          "type": "address"
        }
      ],
      "name": "MockInitialized",
      "type": "event"
    },
    {
      "anonymous": false,
      "inputs": [],
      "name": "MockStateReset",
      "type": "event"
    },
    {
      "anonymous": false,
      "inputs": [
        {
          "indexed": true,
          "internalType": "address",
          "name": "token",
          "type": "address"
        },
        {
          "indexed": false,
          "internalType": "uint256",
          "name": "price",
          "type": "uint256"
        },
        {
          "indexed": false,
          "internalType": "uint8",
          "name": "decimals",
          "type": "uint8"
        }
      ],
      "name": "PriceUpdated",
      "type": "event"
    },
    {
      "anonymous": false,
      "inputs": [
        {
          "indexed": true,
          "internalType": "bytes32",
          "name": "role",
          "type": "bytes32"
        },
        {
          "indexed": true,
          "internalType": "bytes32",
          "name": "previousAdminRole",
          "type": "bytes32"
        },
        {
          "indexed": true,
          "internalType": "bytes32",
          "name": "newAdminRole",
          "type": "bytes32"
        }
      ],
      "name": "RoleAdminChanged",
      "type": "event"
    },
    {
      "anonymous": false,
      "inputs": [
        {
          "indexed": true,
          "internalType": "bytes32",
          "name": "role",
          "type": "bytes32"
        },
        {
          "indexed": true,
          "internalType": "address",
          "name": "account",
          "type": "address"
        },
        {
          "indexed": true,
          "internalType": "address",
          "name": "sender",
          "type": "address"
        }
      ],
      "name": "RoleGranted",
      "type": "event"
    },
    {
      "anonymous": false,
      "inputs": [
        {
          "indexed": true,
          "internalType": "bytes32",
          "name": "role",
          "type": "bytes32"
        },
        {
          "indexed": true,
          "internalType": "address",
          "name": "account",
          "type": "address"
        },
        {
          "indexed": true,
          "internalType": "address",
          "name": "sender",
          "type": "address"
        }
      ],
      "name": "RoleRevoked",
      "type": "event"
    },
    {
      "inputs": [],
      "name": "DEFAULT_ADMIN_ROLE",
      "outputs": [
        {
          "internalType": "bytes32",
          "name": "",
          "type": "bytes32"
        }
      ],
      "stateMutability": "view",
      "type": "function"
    },
    {
      "inputs": [],
      "name": "callCount",
      "outputs": [
        {
          "internalType": "uint256",
          "name": "",
          "type": "uint256"
        }
      ],
      "stateMutability": "view",
      "type": "function"
    },
    {
      "inputs": [
        {
          "internalType": "string",
          "name": "",
          "type": "string"
        }
      ],
      "name": "functionCallCount",
      "outputs": [
        {
          "internalType": "uint256",
          "name": "",
          "type": "uint256"
        }
      ],
      "stateMutability": "view",
      "type": "function"
    },
    {
      "inputs": [
        {
          "internalType": "string",
          "name": "functionName",
          "type": "string"
        }
      ],
      "name": "getFunctionCallCount",
      "outputs": [
        {
          "internalType": "uint256",
          "name": "",
          "type": "uint256"
        }
      ],
      "stateMutability": "view",
      "type": "function"
    },
    {
      "inputs": [
        {
          "internalType": "string",
          "name": "functionName",
          "type": "string"
        }
      ],
      "name": "getFunctionCallHistory",
      "outputs": [
        {
          "internalType": "uint256",
          "name": "count",
          "type": "uint256"
        },
        {
          "internalType": "address",
          "name": "lastCaller_",
          "type": "address"
        },
        {
          "internalType": "bytes",
          "name": "lastData",
          "type": "bytes"
        }
      ],
      "stateMutability": "view",
      "type": "function"
    },
    {
      "inputs": [
        {
          "internalType": "address",
          "name": "token",
          "type": "address"
        }
      ],
      "name": "getPrice",
      "outputs": [
        {
          "internalType": "uint256",
          "name": "price",
          "type": "uint256"
        },
        {
          "internalType": "uint8",
          "name": "decimals",
          "type": "uint8"
        },
        {
          "internalType": "uint256",
          "name": "lastUpdate",
          "type": "uint256"
        }
      ],
      "stateMutability": "view",
      "type": "function"
    },
    {
      "inputs": [
        {
          "internalType": "bytes32",
          "name": "role",
          "type": "bytes32"
        }
      ],
      "name": "getRoleAdmin",
      "outputs": [
        {
          "internalType": "bytes32",
          "name": "",
          "type": "bytes32"
        }
      ],
      "stateMutability": "view",
      "type": "function"
    },
    {
      "inputs": [
        {
          "internalType": "bytes32",
          "name": "role",
          "type": "bytes32"
        },
        {
          "internalType": "address",
          "name": "account",
          "type": "address"
        }
      ],
      "name": "grantRole",
      "outputs": [],
      "stateMutability": "nonpayable",
      "type": "function"
    },
    {
      "inputs": [
        {
          "internalType": "bytes32",
          "name": "role",
          "type": "bytes32"
        },
        {
          "internalType": "address",
          "name": "account",
          "type": "address"
        }
      ],
      "name": "hasRole",
      "outputs": [
        {
          "internalType": "bool",
          "name": "",
          "type": "bool"
        }
      ],
      "stateMutability": "view",
      "type": "function"
    },
    {
      "inputs": [],
      "name": "initialize",
      "outputs": [],
      "stateMutability": "nonpayable",
      "type": "function"
    },
    {
      "inputs": [],
      "name": "initialized",
      "outputs": [
        {
          "internalType": "bool",
          "name": "",
          "type": "bool"
        }
      ],
      "stateMutability": "view",
      "type": "function"
    },
    {
      "inputs": [
        {
          "internalType": "string",
          "name": "",
          "type": "string"
        }
      ],
      "name": "lastCallData",
      "outputs": [
        {
          "internalType": "bytes",
          "name": "",
          "type": "bytes"
        }
      ],
      "stateMutability": "view",
      "type": "function"
    },
    {
      "inputs": [],
      "name": "lastCaller",
      "outputs": [
        {
          "internalType": "address",
          "name": "",
          "type": "address"
        }
      ],
      "stateMutability": "view",
      "type": "function"
    },
    {
      "inputs": [
        {
          "internalType": "string",
          "name": "",
          "type": "string"
        }
      ],
      "name": "lastCallerByFunction",
      "outputs": [
        {
          "internalType": "address",
          "name": "",
          "type": "address"
        }
      ],
      "stateMutability": "view",
      "type": "function"
    },
    {
      "inputs": [
        {
          "internalType": "bytes32",
          "name": "role",
          "type": "bytes32"
        },
        {
          "internalType": "address",
          "name": "callerConfirmation",
          "type": "address"
        }
      ],
      "name": "renounceRole",
      "outputs": [],
      "stateMutability": "nonpayable",
      "type": "function"
    },
    {
      "inputs": [],
      "name": "reset",
      "outputs": [],
      "stateMutability": "nonpayable",
      "type": "function"
    },
    {
      "inputs": [
        {
          "internalType": "address",
          "name": "token",
          "type": "address"
        }
      ],
      "name": "resetPrice",
      "outputs": [],
      "stateMutability": "nonpayable",
      "type": "function"
    },
    {
      "inputs": [
        {
          "internalType": "bytes32",
          "name": "role",
          "type": "bytes32"
        },
        {
          "internalType": "address",
          "name": "account",
          "type": "address"
        }
      ],
      "name": "revokeRole",
      "outputs": [],
      "stateMutability": "nonpayable",
      "type": "function"
    },
    {
      "inputs": [
        {
          "internalType": "address",
          "name": "token",
          "type": "address"
        },
        {
          "internalType": "uint8",
          "name": "decimals_",
          "type": "uint8"
        }
      ],
      "name": "setDecimals",
      "outputs": [],
      "stateMutability": "nonpayable",
      "type": "function"
    },
    {
      "inputs": [
        {
          "internalType": "bytes4",
          "name": "interfaceId",
          "type": "bytes4"
        }
      ],
      "name": "supportsInterface",
      "outputs": [
        {
          "internalType": "bool",
          "name": "",
          "type": "bool"
        }
      ],
      "stateMutability": "view",
      "type": "function"
    },
    {
      "inputs": [
        {
          "internalType": "address",
          "name": "token",
          "type": "address"
        },
        {
          "internalType": "uint256",
          "name": "price",
          "type": "uint256"
        }
      ],
      "name": "updatePrice",
      "outputs": [],
      "stateMutability": "nonpayable",
      "type": "function"
    },
    {
      "inputs": [
        {
          "internalType": "string",
          "name": "functionName",
          "type": "string"
        }
      ],
      "name": "wasFunctionCalled",
      "outputs": [
        {
          "internalType": "bool",
          "name": "",
          "type": "bool"
        }
      ],
      "stateMutability": "view",
      "type": "function"
    }
  ],
  "bytecode": "0x608060405234801561001057600080fd5b5061001c600033610022565b506100ce565b6000828152602081815260408083206001600160a01b038516845290915281205460ff166100c4576000838152602081815260408083206001600160a01b03861684529091529020805460ff1916600117905561007c3390565b6001600160a01b0316826001600160a01b0316847f2f8788117e7eff1d82e926ec794901d17c78024a50270940304540a733656f0d60405160405180910390a45060016100c8565b5060005b92915050565b610fcb806100dd6000396000f3fe608060405234801561001057600080fd5b50600436106101425760003560e01c8063457972de116100b8578063a217fddf1161007c578063a217fddf14610344578063c054c6ce1461034c578063d547741f1461035f578063d826f88f14610372578063dfdbdd501461037a578063f2259f961461039a57600080fd5b8063457972de146102fa5780634b28f9a21461030d5780638129fc1c1461031657806391d148541461031e57806393f89f2f1461033157600080fd5b8063248a9ca31161010a578063248a9ca3146102015780632f2ff15d1461022457806336568abe146102395780633ca3910c1461024c57806341976e091461026e578063422b010b146102cf57600080fd5b806301ffc9a714610147578063158ef93e1461016f5780631a82a6431461017c5780631df86bc61461019d5780632113522a146101e9575b600080fd5b61015a610155366004610b97565b6103ad565b60405190151581526020015b60405180910390f35b60015461015a9060ff1681565b61018f61018a366004610bde565b6103e4565b604051908152602001610166565b6101d16101ab366004610bde565b80516020818301810180516005825292820191909301209152546001600160a01b031681565b6040516001600160a01b039091168152602001610166565b6001546101d19061010090046001600160a01b031681565b61018f61020f366004610c8f565b60009081526020819052604090206001015490565b610237610232366004610cc4565b61040c565b005b610237610247366004610cc4565b610437565b61025f61025a366004610bde565b61046f565b60405161016693929190610d40565b6102b261027c366004610d73565b6001600160a01b031660009081526006602090815260408083205460078352818420546008909352922054919260ff9091169190565b6040805193845260ff909216602084015290820152606001610166565b61018f6102dd366004610bde565b805160208183018101805160038252928201919093012091525481565b610237610308366004610d8e565b610572565b61018f60025481565b61023761064d565b61015a61032c366004610cc4565b6106de565b61023761033f366004610d73565b610707565b61018f600081565b61015a61035a366004610bde565b610774565b61023761036d366004610cc4565b61079e565b6102376107c3565b61038d610388366004610bde565b61080f565b6040516101669190610db8565b6102376103a8366004610dcb565b6108b4565b60006001600160e01b03198216637965db0b60e01b14806103de57506301ffc9a760e01b6001600160e01b03198316145b92915050565b60006003826040516103f69190610e08565b9081526020016040518091039020549050919050565b60008281526020819052604090206001015461042781610932565b610431838361093f565b50505050565b6001600160a01b03811633146104605760405163334bd91960e11b815260040160405180910390fd5b61046a82826109d1565b505050565b60008060606003846040516104849190610e08565b9081526020016040518091039020546005856040516104a39190610e08565b908152604051908190036020018120546001600160a01b0316906004906104cb908890610e08565b90815260200160405180910390208080546104e590610e24565b80601f016020809104026020016040519081016040528092919081815260200182805461051190610e24565b801561055e5780601f106105335761010080835404028352916020019161055e565b820191906000526020600020905b81548152906001019060200180831161054157829003601f168201915b505050505090509250925092509193909250565b6105d46040518060400160405280600b81526020016a757064617465507269636560a81b81525083836040516020016105c09291906001600160a01b03929092168252602082015260400190565b604051602081830303815290604052610a3c565b6001600160a01b038216600081815260066020908152604080832085905560078252808320805460ff1916601290811790915560088352928190204290558051858152918201929092527f5cf0b3ec05876abbfc211c445acba869514647943783a49e986809ef59164a0c910160405180910390a25050565b60015460ff16156106a55760405162461bcd60e51b815260206004820152601d60248201527f426173654d6f636b3a20616c726561647920696e697469616c697a656400000060448201526064015b60405180910390fd5b6001805460ff19168117905560405133907f30f7074e868351008998491171b433e7342f255e986fef03e5eec84f01786f0190600090a2565b6000918252602082815260408084206001600160a01b0393909316845291905290205460ff1690565b61074d6040518060400160405280600a8152602001697265736574507269636560b01b815250826040516020016105c091906001600160a01b0391909116815260200190565b6001600160a01b031660009081526006602090815260408083208390556008909152812055565b6000806003836040516107879190610e08565b908152602001604051809103902054119050919050565b6000828152602081905260409020600101546107b981610932565b61043183836109d1565b60006107ce81610932565b600180546001600160a81b0319169055600060028190556040517f47f78a7a0acc7fff3657157dc253c5e6a68550995cc6f47bc2bd707ec67370fb9190a150565b80516020818301810180516004825292820191909301209152805461083390610e24565b80601f016020809104026020016040519081016040528092919081815260200182805461085f90610e24565b80156108ac5780601f10610881576101008083540402835291602001916108ac565b820191906000526020600020905b81548152906001019060200180831161088f57829003601f168201915b505050505081565b6109056040518060400160405280600b81526020016a736574446563696d616c7360a81b81525083836040516020016105c09291906001600160a01b0392909216825260ff16602082015260400190565b6001600160a01b03919091166000908152600760205260409020805460ff191660ff909216919091179055565b61093c8133610b5a565b50565b600061094b83836106de565b6109c9576000838152602081815260408083206001600160a01b03861684529091529020805460ff191660011790556109813390565b6001600160a01b0316826001600160a01b0316847f2f8788117e7eff1d82e926ec794901d17c78024a50270940304540a733656f0d60405160405180910390a45060016103de565b5060006103de565b60006109dd83836106de565b156109c9576000838152602081815260408083206001600160a01b0386168085529252808320805460ff1916905551339286917ff6391f5c32d9c69d2a47ea670b442974b53935d1edc7fd64eb21e047a839171b9190a45060016103de565b600382604051610a4c9190610e08565b9081526040519081900360200190208054906000610a6983610e5e565b919050555080600483604051610a7f9190610e08565b90815260200160405180910390209081610a999190610ed5565b5033600583604051610aab9190610e08565b90815260405160209181900391909101902080546001600160a01b0319166001600160a01b039290921691909117905560018054610100600160a81b031916610100330217905560028054906000610b0283610e5e565b90915550506040513390610b17908490610e08565b60405180910390207f16b892c3de2f4b54dc114eff5c76ead156bac210353ee82615752957e1317df183604051610b4e9190610db8565b60405180910390a35050565b610b6482826106de565b610b935760405163e2517d3f60e01b81526001600160a01b03821660048201526024810183905260440161069c565b5050565b600060208284031215610ba957600080fd5b81356001600160e01b031981168114610bc157600080fd5b9392505050565b634e487b7160e01b600052604160045260246000fd5b600060208284031215610bf057600080fd5b813567ffffffffffffffff80821115610c0857600080fd5b818401915084601f830112610c1c57600080fd5b813581811115610c2e57610c2e610bc8565b604051601f8201601f19908116603f01168101908382118183101715610c5657610c56610bc8565b81604052828152876020848701011115610c6f57600080fd5b826020860160208301376000928101602001929092525095945050505050565b600060208284031215610ca157600080fd5b5035919050565b80356001600160a01b0381168114610cbf57600080fd5b919050565b60008060408385031215610cd757600080fd5b82359150610ce760208401610ca8565b90509250929050565b60005b83811015610d0b578181015183820152602001610cf3565b50506000910152565b60008151808452610d2c816020860160208601610cf0565b601f01601f19169290920160200192915050565b8381526001600160a01b0383166020820152606060408201819052600090610d6a90830184610d14565b95945050505050565b600060208284031215610d8557600080fd5b610bc182610ca8565b60008060408385031215610da157600080fd5b610daa83610ca8565b946020939093013593505050565b602081526000610bc16020830184610d14565b60008060408385031215610dde57600080fd5b610de783610ca8565b9150602083013560ff81168114610dfd57600080fd5b809150509250929050565b60008251610e1a818460208701610cf0565b9190910192915050565b600181811c90821680610e3857607f821691505b602082108103610e5857634e487b7160e01b600052602260045260246000fd5b50919050565b600060018201610e7e57634e487b7160e01b600052601160045260246000fd5b5060010190565b601f82111561046a576000816000526020600020601f850160051c81016020861015610eae5750805b601f850160051c820191505b81811015610ecd57828155600101610eba565b505050505050565b815167ffffffffffffffff811115610eef57610eef610bc8565b610f0381610efd8454610e24565b84610e85565b602080601f831160018114610f385760008415610f205750858301515b600019600386901b1c1916600185901b178555610ecd565b600085815260208120601f198616915b82811015610f6757888601518255948401946001909101908401610f48565b5085821015610f855787850151600019600388901b60f8161c191681555b5050505050600190811b0190555056fea2646970667358221220921cd4ceb70a6dbf07838f013a07bbcffd4c6fdd12aa471bfa2af63f66c6884b64736f6c63430008180033",
  "linkReferences": {},
  "deployedLinkReferences": {}
}