{
  "_format": "hh-sol-artifact-1",
  "contractName": "MockPriceOracle",
  "sourceName": "contracts/mocks/MockPriceOracle.sol",
  "abi": [
    {
      "inputs": [],
      "stateMutability": "nonpayable",
      "type": "constructor"
    },
    {
      "inputs": [],
      "name": "AccessControlBadConfirmation",
      "type": "error"
    },
    {
      "inputs": [
        {
          "internalType": "address",
          "name": "account",
          "type": "address"
        },
        {
          "internalType": "bytes32",
          "name": "neededRole",
          "type": "bytes32"
        }
      ],
      "name": "AccessControlUnauthorizedAccount",
      "type": "error"
    },
    {
      "anonymous": false,
      "inputs": [
        {
          "indexed": false,
          "internalType": "uint256",
          "name": "updateFrequency",
          "type": "uint256"
        },
        {
          "indexed": false,
          "internalType": "uint256",
          "name": "maxPriceDeviation",
          "type": "uint256"
        }
      ],
      "name": "ConfigUpdated",
      "type": "event"
    },
    {
      "anonymous": false,
      "inputs": [
        {
          "indexed": false,
          "internalType": "bool",
          "name": "enabled",
          "type": "bool"
        }
      ],
      "name": "EmergencyModeChanged",
      "type": "event"
    },
    {
      "anonymous": false,
      "inputs": [
        {
          "indexed": true,
          "internalType": "string",
          "name": "functionName",
          "type": "string"
        },
        {
          "indexed": true,
          "internalType": "address",
          "name": "caller",
          "type": "address"
        },
        {
          "indexed": false,
          "internalType": "bytes",
          "name": "data",
          "type": "bytes"
        }
      ],
      "name": "MockFunctionCalled",
      "type": "event"
    },
    {
      "anonymous": false,
      "inputs": [
        {
          "indexed": true,
          "internalType": "address",
          "name": "caller",
          "type": "address"
        }
      ],
      "name": "MockInitialized",
      "type": "event"
    },
    {
      "anonymous": false,
      "inputs": [],
      "name": "MockStateReset",
      "type": "event"
    },
    {
      "anonymous": false,
      "inputs": [
        {
          "indexed": true,
          "internalType": "address",
          "name": "newAdmin",
          "type": "address"
        }
      ],
      "name": "OracleAdminChanged",
      "type": "event"
    },
    {
      "anonymous": false,
      "inputs": [
        {
          "indexed": true,
          "internalType": "address",
          "name": "token",
          "type": "address"
        },
        {
          "indexed": false,
          "internalType": "uint256",
          "name": "price",
          "type": "uint256"
        },
        {
          "indexed": false,
          "internalType": "uint256",
          "name": "timestamp",
          "type": "uint256"
        }
      ],
      "name": "PriceUpdated",
      "type": "event"
    },
    {
      "anonymous": false,
      "inputs": [
        {
          "indexed": true,
          "internalType": "address",
          "name": "updater",
          "type": "address"
        }
      ],
      "name": "PriceUpdaterAdded",
      "type": "event"
    },
    {
      "anonymous": false,
      "inputs": [
        {
          "indexed": true,
          "internalType": "address",
          "name": "updater",
          "type": "address"
        }
      ],
      "name": "PriceUpdaterRemoved",
      "type": "event"
    },
    {
      "anonymous": false,
      "inputs": [
        {
          "indexed": true,
          "internalType": "bytes32",
          "name": "role",
          "type": "bytes32"
        },
        {
          "indexed": true,
          "internalType": "bytes32",
          "name": "previousAdminRole",
          "type": "bytes32"
        },
        {
          "indexed": true,
          "internalType": "bytes32",
          "name": "newAdminRole",
          "type": "bytes32"
        }
      ],
      "name": "RoleAdminChanged",
      "type": "event"
    },
    {
      "anonymous": false,
      "inputs": [
        {
          "indexed": true,
          "internalType": "bytes32",
          "name": "role",
          "type": "bytes32"
        },
        {
          "indexed": true,
          "internalType": "address",
          "name": "account",
          "type": "address"
        },
        {
          "indexed": true,
          "internalType": "address",
          "name": "sender",
          "type": "address"
        }
      ],
      "name": "RoleGranted",
      "type": "event"
    },
    {
      "anonymous": false,
      "inputs": [
        {
          "indexed": true,
          "internalType": "bytes32",
          "name": "role",
          "type": "bytes32"
        },
        {
          "indexed": true,
          "internalType": "address",
          "name": "account",
          "type": "address"
        },
        {
          "indexed": true,
          "internalType": "address",
          "name": "sender",
          "type": "address"
        }
      ],
      "name": "RoleRevoked",
      "type": "event"
    },
    {
      "inputs": [],
      "name": "DEFAULT_ADMIN_ROLE",
      "outputs": [
        {
          "internalType": "bytes32",
          "name": "",
          "type": "bytes32"
        }
      ],
      "stateMutability": "view",
      "type": "function"
    },
    {
      "inputs": [],
      "name": "ORACLE_ADMIN_ROLE",
      "outputs": [
        {
          "internalType": "bytes32",
          "name": "",
          "type": "bytes32"
        }
      ],
      "stateMutability": "view",
      "type": "function"
    },
    {
      "inputs": [],
      "name": "PRICE_UPDATER_ROLE",
      "outputs": [
        {
          "internalType": "bytes32",
          "name": "",
          "type": "bytes32"
        }
      ],
      "stateMutability": "view",
      "type": "function"
    },
    {
      "inputs": [
        {
          "internalType": "address",
          "name": "updater",
          "type": "address"
        }
      ],
      "name": "addPriceUpdater",
      "outputs": [],
      "stateMutability": "nonpayable",
      "type": "function"
    },
    {
      "inputs": [],
      "name": "callCount",
      "outputs": [
        {
          "internalType": "uint256",
          "name": "",
          "type": "uint256"
        }
      ],
      "stateMutability": "view",
      "type": "function"
    },
    {
      "inputs": [],
      "name": "emergencyMode",
      "outputs": [
        {
          "internalType": "bool",
          "name": "",
          "type": "bool"
        }
      ],
      "stateMutability": "view",
      "type": "function"
    },
    {
      "inputs": [
        {
          "internalType": "string",
          "name": "",
          "type": "string"
        }
      ],
      "name": "functionCallCount",
      "outputs": [
        {
          "internalType": "uint256",
          "name": "",
          "type": "uint256"
        }
      ],
      "stateMutability": "view",
      "type": "function"
    },
    {
      "inputs": [
        {
          "internalType": "address",
          "name": "_asset",
          "type": "address"
        }
      ],
      "name": "getAssetDecimals",
      "outputs": [
        {
          "internalType": "uint8",
          "name": "",
          "type": "uint8"
        }
      ],
      "stateMutability": "view",
      "type": "function"
    },
    {
      "inputs": [
        {
          "internalType": "address",
          "name": "_asset",
          "type": "address"
        }
      ],
      "name": "getAssetPrice",
      "outputs": [
        {
          "internalType": "uint256",
          "name": "",
          "type": "uint256"
        }
      ],
      "stateMutability": "view",
      "type": "function"
    },
    {
      "inputs": [
        {
          "internalType": "string",
          "name": "functionName",
          "type": "string"
        }
      ],
      "name": "getFunctionCallCount",
      "outputs": [
        {
          "internalType": "uint256",
          "name": "",
          "type": "uint256"
        }
      ],
      "stateMutability": "view",
      "type": "function"
    },
    {
      "inputs": [
        {
          "internalType": "string",
          "name": "functionName",
          "type": "string"
        }
      ],
      "name": "getFunctionCallHistory",
      "outputs": [
        {
          "internalType": "uint256",
          "name": "count",
          "type": "uint256"
        },
        {
          "internalType": "address",
          "name": "lastCaller_",
          "type": "address"
        },
        {
          "internalType": "bytes",
          "name": "lastData",
          "type": "bytes"
        }
      ],
      "stateMutability": "view",
      "type": "function"
    },
    {
      "inputs": [
        {
          "internalType": "address",
          "name": "token",
          "type": "address"
        },
        {
          "internalType": "uint256",
          "name": "index",
          "type": "uint256"
        }
      ],
      "name": "getHistoricalPrice",
      "outputs": [
        {
          "internalType": "uint256",
          "name": "price",
          "type": "uint256"
        },
        {
          "internalType": "uint256",
          "name": "timestamp",
          "type": "uint256"
        }
      ],
      "stateMutability": "view",
      "type": "function"
    },
    {
      "inputs": [
        {
          "internalType": "address",
          "name": "token",
          "type": "address"
        }
      ],
      "name": "getHistoryCount",
      "outputs": [
        {
          "internalType": "uint256",
          "name": "count",
          "type": "uint256"
        }
      ],
      "stateMutability": "view",
      "type": "function"
    },
    {
      "inputs": [
        {
          "internalType": "address",
          "name": "token",
          "type": "address"
        }
      ],
      "name": "getLastUpdateTime",
      "outputs": [
        {
          "internalType": "uint256",
          "name": "",
          "type": "uint256"
        }
      ],
      "stateMutability": "view",
      "type": "function"
    },
    {
      "inputs": [
        {
          "internalType": "address",
          "name": "token",
          "type": "address"
        }
      ],
      "name": "getPrice",
      "outputs": [
        {
          "internalType": "uint256",
          "name": "",
          "type": "uint256"
        }
      ],
      "stateMutability": "view",
      "type": "function"
    },
    {
      "inputs": [
        {
          "internalType": "address",
          "name": "token",
          "type": "address"
        }
      ],
      "name": "getPriceWithTimestamp",
      "outputs": [
        {
          "internalType": "uint256",
          "name": "price",
          "type": "uint256"
        },
        {
          "internalType": "uint256",
          "name": "timestamp",
          "type": "uint256"
        }
      ],
      "stateMutability": "view",
      "type": "function"
    },
    {
      "inputs": [
        {
          "internalType": "bytes32",
          "name": "role",
          "type": "bytes32"
        }
      ],
      "name": "getRoleAdmin",
      "outputs": [
        {
          "internalType": "bytes32",
          "name": "",
          "type": "bytes32"
        }
      ],
      "stateMutability": "view",
      "type": "function"
    },
    {
      "inputs": [
        {
          "internalType": "address",
          "name": "token",
          "type": "address"
        },
        {
          "internalType": "uint256",
          "name": "period",
          "type": "uint256"
        }
      ],
      "name": "getTWAP",
      "outputs": [
        {
          "internalType": "uint256",
          "name": "twap",
          "type": "uint256"
        }
      ],
      "stateMutability": "view",
      "type": "function"
    },
    {
      "inputs": [
        {
          "internalType": "bytes32",
          "name": "role",
          "type": "bytes32"
        },
        {
          "internalType": "address",
          "name": "account",
          "type": "address"
        }
      ],
      "name": "grantRole",
      "outputs": [],
      "stateMutability": "nonpayable",
      "type": "function"
    },
    {
      "inputs": [
        {
          "internalType": "bytes32",
          "name": "role",
          "type": "bytes32"
        },
        {
          "internalType": "address",
          "name": "account",
          "type": "address"
        }
      ],
      "name": "hasRole",
      "outputs": [
        {
          "internalType": "bool",
          "name": "",
          "type": "bool"
        }
      ],
      "stateMutability": "view",
      "type": "function"
    },
    {
      "inputs": [],
      "name": "initialize",
      "outputs": [],
      "stateMutability": "nonpayable",
      "type": "function"
    },
    {
      "inputs": [],
      "name": "initialized",
      "outputs": [
        {
          "internalType": "bool",
          "name": "",
          "type": "bool"
        }
      ],
      "stateMutability": "view",
      "type": "function"
    },
    {
      "inputs": [
        {
          "internalType": "string",
          "name": "",
          "type": "string"
        }
      ],
      "name": "lastCallData",
      "outputs": [
        {
          "internalType": "bytes",
          "name": "",
          "type": "bytes"
        }
      ],
      "stateMutability": "view",
      "type": "function"
    },
    {
      "inputs": [],
      "name": "lastCaller",
      "outputs": [
        {
          "internalType": "address",
          "name": "",
          "type": "address"
        }
      ],
      "stateMutability": "view",
      "type": "function"
    },
    {
      "inputs": [
        {
          "internalType": "string",
          "name": "",
          "type": "string"
        }
      ],
      "name": "lastCallerByFunction",
      "outputs": [
        {
          "internalType": "address",
          "name": "",
          "type": "address"
        }
      ],
      "stateMutability": "view",
      "type": "function"
    },
    {
      "inputs": [],
      "name": "maxPriceDeviation",
      "outputs": [
        {
          "internalType": "uint256",
          "name": "",
          "type": "uint256"
        }
      ],
      "stateMutability": "view",
      "type": "function"
    },
    {
      "inputs": [
        {
          "internalType": "address",
          "name": "token",
          "type": "address"
        }
      ],
      "name": "priceExists",
      "outputs": [
        {
          "internalType": "bool",
          "name": "",
          "type": "bool"
        }
      ],
      "stateMutability": "view",
      "type": "function"
    },
    {
      "inputs": [
        {
          "internalType": "address",
          "name": "updater",
          "type": "address"
        }
      ],
      "name": "removePriceUpdater",
      "outputs": [],
      "stateMutability": "nonpayable",
      "type": "function"
    },
    {
      "inputs": [
        {
          "internalType": "bytes32",
          "name": "role",
          "type": "bytes32"
        },
        {
          "internalType": "address",
          "name": "callerConfirmation",
          "type": "address"
        }
      ],
      "name": "renounceRole",
      "outputs": [],
      "stateMutability": "nonpayable",
      "type": "function"
    },
    {
      "inputs": [],
      "name": "reset",
      "outputs": [],
      "stateMutability": "nonpayable",
      "type": "function"
    },
    {
      "inputs": [
        {
          "internalType": "bytes32",
          "name": "role",
          "type": "bytes32"
        },
        {
          "internalType": "address",
          "name": "account",
          "type": "address"
        }
      ],
      "name": "revokeRole",
      "outputs": [],
      "stateMutability": "nonpayable",
      "type": "function"
    },
    {
      "inputs": [
        {
          "internalType": "bool",
          "name": "_enabled",
          "type": "bool"
        }
      ],
      "name": "setEmergencyMode",
      "outputs": [],
      "stateMutability": "nonpayable",
      "type": "function"
    },
    {
      "inputs": [
        {
          "internalType": "bytes4",
          "name": "interfaceId",
          "type": "bytes4"
        }
      ],
      "name": "supportsInterface",
      "outputs": [
        {
          "internalType": "bool",
          "name": "",
          "type": "bool"
        }
      ],
      "stateMutability": "view",
      "type": "function"
    },
    {
      "inputs": [
        {
          "internalType": "uint256",
          "name": "_updateFrequency",
          "type": "uint256"
        },
        {
          "internalType": "uint256",
          "name": "_maxPriceDeviation",
          "type": "uint256"
        }
      ],
      "name": "updateConfig",
      "outputs": [],
      "stateMutability": "nonpayable",
      "type": "function"
    },
    {
      "inputs": [],
      "name": "updateFrequency",
      "outputs": [
        {
          "internalType": "uint256",
          "name": "",
          "type": "uint256"
        }
      ],
      "stateMutability": "view",
      "type": "function"
    },
    {
      "inputs": [
        {
          "internalType": "address",
          "name": "token",
          "type": "address"
        },
        {
          "internalType": "uint256",
          "name": "price",
          "type": "uint256"
        }
      ],
      "name": "updatePrice",
      "outputs": [],
      "stateMutability": "nonpayable",
      "type": "function"
    },
    {
      "inputs": [
        {
          "internalType": "address[]",
          "name": "tokens",
          "type": "address[]"
        },
        {
          "internalType": "uint256[]",
          "name": "prices",
          "type": "uint256[]"
        }
      ],
      "name": "updatePrices",
      "outputs": [],
      "stateMutability": "nonpayable",
      "type": "function"
    },
    {
      "inputs": [
        {
          "internalType": "string",
          "name": "functionName",
          "type": "string"
        }
      ],
      "name": "wasFunctionCalled",
      "outputs": [
        {
          "internalType": "bool",
          "name": "",
          "type": "bool"
        }
      ],
      "stateMutability": "view",
      "type": "function"
    }
  ],
  "bytecode": "0x60806040523480156200001157600080fd5b506200001f60003362000096565b506200004c7fc307c44629779eb8fc0b85f224c3d22f5876a6c84de0ee42d481eb7814f0d3a83362000096565b50620000797fd96ba01d6560c2ab35f2940dd8d70c5f5fe06236c72674237120515918198fb03362000096565b50610e10600b556101f4600c55600d805460ff1916905562000147565b6000828152600e602090815260408083206001600160a01b038516845290915281205460ff166200013d576000838152602081815260408083206001600160a01b03861684529091529020805460ff19166001179055620000f43390565b6001600160a01b0316826001600160a01b0316847f2f8788117e7eff1d82e926ec794901d17c78024a50270940304540a733656f0d60405160405180910390a450600162000141565b5060005b92915050565b611bfb80620001576000396000f3fe608060405234801561001057600080fd5b50600436106102325760003560e01c80638003a94f11610130578063b3596f07116100b8578063d826f88f1161007c578063d826f88f14610588578063dfdbdd5014610590578063e88456e7146105b0578063eeb9ef62146105c3578063fb8d8101146105d657600080fd5b8063b3596f07146104fe578063be32b3f814610527578063c054c6ce1461053a578063d21f50771461054d578063d547741f1461057557600080fd5b806396f77060116100ff57806396f770601461048b578063975b86621461049e5780639efd6f72146104a7578063a217fddf146104cd578063b1fdb11b146104d557600080fd5b80638003a94f146104485780638129fc1c1461045d5780638248e7221461046557806391d148541461047857600080fd5b806336568abe116101be578063457972de11610182578063457972de146103e75780634b28f9a2146103fa578063673ea086146104035780636e8c271b1461040c5780636f8c10a81461043557600080fd5b806336568abe14610349578063378feed01461035c5780633ca3910c1461038757806341976e09146103a9578063422b010b146103bc57600080fd5b80631df86bc6116102055780631df86bc61461029a5780632113522a146102e6578063248a9ca3146102fe5780632df31108146103215780632f2ff15d1461033657600080fd5b806301ffc9a7146102375780630905f5601461025f578063158ef93e1461026c5780631a82a64314610279575b600080fd5b61024a6102453660046115b7565b6105eb565b60405190151581526020015b60405180910390f35b600d5461024a9060ff1681565b60015461024a9060ff1681565b61028c6102873660046115fe565b610622565b604051908152602001610256565b6102ce6102a83660046115fe565b80516020818301810180516005825292820191909301209152546001600160a01b031681565b6040516001600160a01b039091168152602001610256565b6001546102ce9061010090046001600160a01b031681565b61028c61030c3660046116af565b60009081526020819052604090206001015490565b61033461032f3660046116e4565b61064a565b005b6103346103443660046116ff565b610714565b6103346103573660046116ff565b6107e8565b61024a61036a3660046116e4565b6001600160a01b0316600090815260066020526040902054151590565b61039a6103953660046115fe565b610820565b6040516102569392919061177b565b61028c6103b73660046116e4565b610923565b61028c6103ca3660046115fe565b805160208183018101805160038252928201919093012091525481565b6103346103f53660046117ae565b610974565b61028c60025481565b61028c600b5481565b61028c61041a3660046116e4565b6001600160a01b031660009081526007602052604090205490565b61028c6104433660046117ae565b610b98565b61028c600080516020611b8683398151915281565b610334610c52565b6103346104733660046117d8565b610cde565b61024a6104863660046116ff565b610d82565b61033461049936600461183f565b610dad565b61028c600c5481565b6104bb6104b53660046116e4565b50601290565b60405160ff9091168152602001610256565b61028c600081565b61028c6104e33660046116e4565b6001600160a01b03166000908152600a602052604090205490565b61028c61050c3660046116e4565b6001600160a01b031660009081526006602052604090205490565b6103346105353660046118ab565b610f9f565b61024a6105483660046115fe565b611040565b61056061055b3660046117ae565b61106a565b60408051928352602083019190915201610256565b6103346105833660046116ff565b61110a565b6103346111d7565b6105a361059e3660046115fe565b611223565b60405161025691906118cd565b6103346105be3660046116e4565b6112c8565b6105606105d13660046116e4565b61137b565b61028c600080516020611ba683398151915281565b60006001600160e01b03198216637965db0b60e01b148061061c57506301ffc9a760e01b6001600160e01b03198316145b92915050565b600060038260405161063491906118e0565b9081526020016040518091039020549050919050565b600080516020611b86833981519152610662816113dc565b6106c4604051806040016040528060128152602001713932b6b7bb32a83934b1b2aab83230ba32b960711b815250836040516020016106b091906001600160a01b0391909116815260200190565b6040516020818303038152906040526113e9565b6106dc600080516020611ba68339815191528361110a565b6040516001600160a01b038316907fff7dbb85c77ca68ca1f894d6498570e3d5095cd19466f07ee8d222b337e4068c90600090a25050565b61075e604051806040016040528060098152602001686772616e74526f6c6560b81b81525083836040516020016106b09291909182526001600160a01b0316602082015260400190565b610776600080516020611b8683398151915233610d82565b6107b85760405162461bcd60e51b815260206004820152600e60248201526d139bdd08185d5d1a1bdc9a5e995960921b60448201526064015b60405180910390fd5b6000918252600e602090815260408084206001600160a01b0390931684529190529020805460ff19166001179055565b6001600160a01b03811633146108115760405163334bd91960e11b815260040160405180910390fd5b61081b8282611507565b505050565b600080606060038460405161083591906118e0565b90815260200160405180910390205460058560405161085491906118e0565b908152604051908190036020018120546001600160a01b03169060049061087c9088906118e0565b9081526020016040518091039020808054610896906118fc565b80601f01602080910402602001604051908101604052809291908181526020018280546108c2906118fc565b801561090f5780601f106108e45761010080835404028352916020019161090f565b820191906000526020600020905b8154815290600101906020018083116108f257829003601f168201915b505050505090509250925092509193909250565b6001600160a01b0381166000908152600660205260408120546109585760405162461bcd60e51b81526004016107af90611936565b506001600160a01b031660009081526006602052604090205490565b600080516020611ba683398151915261098c816113dc565b6109da6040518060400160405280600b81526020016a757064617465507269636560a81b81525084846040516020016106b09291906001600160a01b03929092168252602082015260400190565b6001600160a01b0383166000818152600a6020908152604080832054600883528184208185528352818420879055938352600982528083208484529091529020429055610a28816001611973565b6001600160a01b0385166000908152600a6020526040902055600d5460ff16158015610a6b57506001600160a01b03841660009081526006602052604090205415155b15610b33576001600160a01b0384166000908152600660205260408120549081851115610aba5781610a9d8187611986565b610aa990612710611999565b610ab391906119b0565b9050610ade565b81610ac58682611986565b610ad190612710611999565b610adb91906119b0565b90505b600c54811115610b305760405162461bcd60e51b815260206004820152601860248201527f507269636520646576696174696f6e20746f6f2068696768000000000000000060448201526064016107af565b50505b6001600160a01b0384166000818152600660209081526040808320879055600782529182902042908190558251878152918201527fb556fac599c3c70efb9ab1fa725ecace6c81cc48d1455f886607def065f3e0c0910160405180910390a250505050565b6001600160a01b038216600090815260066020526040812054610bcd5760405162461bcd60e51b81526004016107af90611936565b6001600160a01b0383166000908152600a6020526040902054600110610c355760405162461bcd60e51b815260206004820152601a60248201527f496e73756666696369656e7420707269636520686973746f727900000000000060448201526064016107af565b50506001600160a01b031660009081526006602052604090205490565b60015460ff1615610ca55760405162461bcd60e51b815260206004820152601d60248201527f426173654d6f636b3a20616c726561647920696e697469616c697a656400000060448201526064016107af565b6001805460ff19168117905560405133907f30f7074e868351008998491171b433e7342f255e986fef03e5eec84f01786f0190600090a2565b600080516020611b86833981519152610cf6816113dc565b610d3a6040518060400160405280600c81526020016b757064617465436f6e66696760a01b81525084846040516020016106b0929190918252602082015260400190565b600b839055600c82905560408051848152602081018490527f0936b3616d5072fa8f7381ef8e7c35d39bed9ecfb2184e908a56027ad5c0b6bc910160405180910390a1505050565b6000918252600e602090815260408084206001600160a01b0393909316845291905290205460ff1690565b600080516020611ba6833981519152610dc5816113dc565b610e046040518060400160405280600c81526020016b75706461746550726963657360a01b815250868686866040516020016106b094939291906119d2565b838214610e4c5760405162461bcd60e51b8152602060048201526016602482015275082e4e4c2f2e640d8cadccee8d040dad2e6dac2e8c6d60531b60448201526064016107af565b60005b84811015610f9757838382818110610e6957610e69611a4e565b9050602002013560066000888885818110610e8657610e86611a4e565b9050602002016020810190610e9b91906116e4565b6001600160a01b03166001600160a01b03168152602001908152602001600020819055504260076000888885818110610ed657610ed6611a4e565b9050602002016020810190610eeb91906116e4565b6001600160a01b03168152602081019190915260400160002055858582818110610f1757610f17611a4e565b9050602002016020810190610f2c91906116e4565b6001600160a01b03167fb556fac599c3c70efb9ab1fa725ecace6c81cc48d1455f886607def065f3e0c0858584818110610f6857610f68611a4e565b9050602002013542604051610f87929190918252602082015260400190565b60405180910390a2600101610e4f565b505050505050565b600080516020611b86833981519152610fb7816113dc565b610ff86040518060400160405280601081526020016f736574456d657267656e63794d6f646560801b815250836040516020016106b0911515815260200190565b600d805460ff19168315159081179091556040519081527f2809db8224f8e2a04e05130d24142b86b9e35ab1830bf5e353d1ef2ae4bf03379060200160405180910390a15050565b60008060038360405161105391906118e0565b908152602001604051809103902054119050919050565b6001600160a01b0382166000908152600a6020526040812054819083106110c95760405162461bcd60e51b8152602060048201526013602482015272496e646578206f7574206f6620626f756e647360681b60448201526064016107af565b50506001600160a01b0382166000818152600860209081526040808320858452825280832054938352600982528083208584529091529020545b9250929050565b6111556040518060400160405280600a8152602001697265766f6b65526f6c6560b01b81525083836040516020016106b09291909182526001600160a01b0316602082015260400190565b61116d600080516020611b8683398151915233610d82565b6111aa5760405162461bcd60e51b815260206004820152600e60248201526d139bdd08185d5d1a1bdc9a5e995960921b60448201526064016107af565b6000918252600e602090815260408084206001600160a01b0390931684529190529020805460ff19169055565b60006111e2816113dc565b600180546001600160a81b0319169055600060028190556040517f47f78a7a0acc7fff3657157dc253c5e6a68550995cc6f47bc2bd707ec67370fb9190a150565b805160208183018101805160048252928201919093012091528054611247906118fc565b80601f0160208091040260200160405190810160405280929190818152602001828054611273906118fc565b80156112c05780601f10611295576101008083540402835291602001916112c0565b820191906000526020600020905b8154815290600101906020018083116112a357829003601f168201915b505050505081565b600080516020611b868339815191526112e0816113dc565b61132b6040518060400160405280600f81526020016e30b232283934b1b2aab83230ba32b960891b815250836040516020016106b091906001600160a01b0391909116815260200190565b611343600080516020611ba683398151915283610714565b6040516001600160a01b038316907f5104d28bdf2a63480d70f73ae04afa86476ff93d6306f6d13c6f85eb593c472690600090a25050565b6001600160a01b03811660009081526006602052604081205481906113b25760405162461bcd60e51b81526004016107af90611936565b50506001600160a01b03166000908152600660209081526040808320546007909252909120549091565b6113e6813361157a565b50565b6003826040516113f991906118e0565b908152604051908190036020019020805490600061141683611a64565b91905055508060048360405161142c91906118e0565b908152602001604051809103902090816114469190611ac5565b503360058360405161145891906118e0565b90815260405160209181900391909101902080546001600160a01b0319166001600160a01b039290921691909117905560018054610100600160a81b0319166101003302179055600280549060006114af83611a64565b909155505060405133906114c49084906118e0565b60405180910390207f16b892c3de2f4b54dc114eff5c76ead156bac210353ee82615752957e1317df1836040516114fb91906118cd565b60405180910390a35050565b60006115138383610d82565b15611572576000838152602081815260408083206001600160a01b0386168085529252808320805460ff1916905551339286917ff6391f5c32d9c69d2a47ea670b442974b53935d1edc7fd64eb21e047a839171b9190a450600161061c565b50600061061c565b6115848282610d82565b6115b35760405163e2517d3f60e01b81526001600160a01b0382166004820152602481018390526044016107af565b5050565b6000602082840312156115c957600080fd5b81356001600160e01b0319811681146115e157600080fd5b9392505050565b634e487b7160e01b600052604160045260246000fd5b60006020828403121561161057600080fd5b813567ffffffffffffffff8082111561162857600080fd5b818401915084601f83011261163c57600080fd5b81358181111561164e5761164e6115e8565b604051601f8201601f19908116603f01168101908382118183101715611676576116766115e8565b8160405282815287602084870101111561168f57600080fd5b826020860160208301376000928101602001929092525095945050505050565b6000602082840312156116c157600080fd5b5035919050565b80356001600160a01b03811681146116df57600080fd5b919050565b6000602082840312156116f657600080fd5b6115e1826116c8565b6000806040838503121561171257600080fd5b82359150611722602084016116c8565b90509250929050565b60005b8381101561174657818101518382015260200161172e565b50506000910152565b6000815180845261176781602086016020860161172b565b601f01601f19169290920160200192915050565b8381526001600160a01b03831660208201526060604082018190526000906117a59083018461174f565b95945050505050565b600080604083850312156117c157600080fd5b6117ca836116c8565b946020939093013593505050565b600080604083850312156117eb57600080fd5b50508035926020909101359150565b60008083601f84011261180c57600080fd5b50813567ffffffffffffffff81111561182457600080fd5b6020830191508360208260051b850101111561110357600080fd5b6000806000806040858703121561185557600080fd5b843567ffffffffffffffff8082111561186d57600080fd5b611879888389016117fa565b9096509450602087013591508082111561189257600080fd5b5061189f878288016117fa565b95989497509550505050565b6000602082840312156118bd57600080fd5b813580151581146115e157600080fd5b6020815260006115e1602083018461174f565b600082516118f281846020870161172b565b9190910192915050565b600181811c9082168061191057607f821691505b60208210810361193057634e487b7160e01b600052602260045260246000fd5b50919050565b6020808252600d908201526c141c9a58d9481b9bdd081cd95d609a1b604082015260600190565b634e487b7160e01b600052601160045260246000fd5b8082018082111561061c5761061c61195d565b8181038181111561061c5761061c61195d565b808202811582820484141761061c5761061c61195d565b6000826119cd57634e487b7160e01b600052601260045260246000fd5b500490565b6040808252810184905260008560608301825b87811015611a13576001600160a01b036119fe846116c8565b168252602092830192909101906001016119e5565b5083810360208501528481526001600160fb1b03851115611a3357600080fd5b8460051b915081866020830137016020019695505050505050565b634e487b7160e01b600052603260045260246000fd5b600060018201611a7657611a7661195d565b5060010190565b601f82111561081b576000816000526020600020601f850160051c81016020861015611aa65750805b601f850160051c820191505b81811015610f9757828155600101611ab2565b815167ffffffffffffffff811115611adf57611adf6115e8565b611af381611aed84546118fc565b84611a7d565b602080601f831160018114611b285760008415611b105750858301515b600019600386901b1c1916600185901b178555610f97565b600085815260208120601f198616915b82811015611b5757888601518255948401946001909101908401611b38565b5085821015611b755787850151600019600388901b60f8161c191681555b5050505050600190811b0190555056fec307c44629779eb8fc0b85f224c3d22f5876a6c84de0ee42d481eb7814f0d3a8d96ba01d6560c2ab35f2940dd8d70c5f5fe06236c72674237120515918198fb0a264697066735822122054f5f53eedca22f4f9bcc41e462f2e82fc860d2c9d1bb3cdc8c61a2560dbb01b64736f6c63430008180033",
  "linkReferences": {},
  "deployedLinkReferences": {}
}