{
  "_format": "hh-sol-artifact-1",
  "contractName": "MockSimplifiedAdminControls",
  "sourceName": "contracts/mocks/MockSimplifiedAdminControls.sol",
  "abi": [
    {
      "inputs": [],
      "stateMutability": "nonpayable",
      "type": "constructor"
    },
    {
      "inputs": [],
      "name": "AccessControlBadConfirmation",
      "type": "error"
    },
    {
      "inputs": [
        {
          "internalType": "address",
          "name": "account",
          "type": "address"
        },
        {
          "internalType": "bytes32",
          "name": "neededRole",
          "type": "bytes32"
        }
      ],
      "name": "AccessControlUnauthorizedAccount",
      "type": "error"
    },
    {
      "anonymous": false,
      "inputs": [
        {
          "indexed": true,
          "internalType": "string",
          "name": "parameter",
          "type": "string"
        },
        {
          "indexed": false,
          "internalType": "uint256",
          "name": "oldValue",
          "type": "uint256"
        },
        {
          "indexed": false,
          "internalType": "uint256",
          "name": "newValue",
          "type": "uint256"
        }
      ],
      "name": "AdminParameterUpdated",
      "type": "event"
    },
    {
      "anonymous": false,
      "inputs": [
        {
          "indexed": true,
          "internalType": "address",
          "name": "contractAddress",
          "type": "address"
        },
        {
          "indexed": true,
          "internalType": "address",
          "name": "approver",
          "type": "address"
        }
      ],
      "name": "ContractApproved",
      "type": "event"
    },
    {
      "anonymous": false,
      "inputs": [
        {
          "indexed": true,
          "internalType": "string",
          "name": "name",
          "type": "string"
        },
        {
          "indexed": true,
          "internalType": "address",
          "name": "contractAddress",
          "type": "address"
        }
      ],
      "name": "ContractRegistered",
      "type": "event"
    },
    {
      "anonymous": false,
      "inputs": [
        {
          "indexed": true,
          "internalType": "string",
          "name": "functionName",
          "type": "string"
        },
        {
          "indexed": true,
          "internalType": "address",
          "name": "caller",
          "type": "address"
        },
        {
          "indexed": false,
          "internalType": "bytes",
          "name": "data",
          "type": "bytes"
        }
      ],
      "name": "MockFunctionCalled",
      "type": "event"
    },
    {
      "anonymous": false,
      "inputs": [
        {
          "indexed": true,
          "internalType": "address",
          "name": "caller",
          "type": "address"
        }
      ],
      "name": "MockInitialized",
      "type": "event"
    },
    {
      "anonymous": false,
      "inputs": [],
      "name": "MockStateReset",
      "type": "event"
    },
    {
      "anonymous": false,
      "inputs": [
        {
          "indexed": true,
          "internalType": "bytes32",
          "name": "operationId",
          "type": "bytes32"
        }
      ],
      "name": "OperationExecuted",
      "type": "event"
    },
    {
      "anonymous": false,
      "inputs": [
        {
          "indexed": true,
          "internalType": "bytes32",
          "name": "operationId",
          "type": "bytes32"
        },
        {
          "indexed": true,
          "internalType": "address",
          "name": "target",
          "type": "address"
        },
        {
          "indexed": false,
          "internalType": "uint256",
          "name": "timestamp",
          "type": "uint256"
        }
      ],
      "name": "OperationScheduled",
      "type": "event"
    },
    {
      "anonymous": false,
      "inputs": [
        {
          "indexed": true,
          "internalType": "bytes32",
          "name": "role",
          "type": "bytes32"
        },
        {
          "indexed": true,
          "internalType": "bytes32",
          "name": "previousAdminRole",
          "type": "bytes32"
        },
        {
          "indexed": true,
          "internalType": "bytes32",
          "name": "newAdminRole",
          "type": "bytes32"
        }
      ],
      "name": "RoleAdminChanged",
      "type": "event"
    },
    {
      "anonymous": false,
      "inputs": [
        {
          "indexed": true,
          "internalType": "bytes32",
          "name": "role",
          "type": "bytes32"
        },
        {
          "indexed": true,
          "internalType": "address",
          "name": "account",
          "type": "address"
        },
        {
          "indexed": true,
          "internalType": "address",
          "name": "grantor",
          "type": "address"
        }
      ],
      "name": "RoleAssigned",
      "type": "event"
    },
    {
      "anonymous": false,
      "inputs": [
        {
          "indexed": true,
          "internalType": "bytes32",
          "name": "role",
          "type": "bytes32"
        },
        {
          "indexed": true,
          "internalType": "address",
          "name": "account",
          "type": "address"
        },
        {
          "indexed": true,
          "internalType": "address",
          "name": "sender",
          "type": "address"
        }
      ],
      "name": "RoleGranted",
      "type": "event"
    },
    {
      "anonymous": false,
      "inputs": [
        {
          "indexed": true,
          "internalType": "bytes32",
          "name": "role",
          "type": "bytes32"
        },
        {
          "indexed": true,
          "internalType": "address",
          "name": "account",
          "type": "address"
        },
        {
          "indexed": true,
          "internalType": "address",
          "name": "sender",
          "type": "address"
        }
      ],
      "name": "RoleRevoked",
      "type": "event"
    },
    {
      "inputs": [],
      "name": "ADMIN_ROLE",
      "outputs": [
        {
          "internalType": "bytes32",
          "name": "",
          "type": "bytes32"
        }
      ],
      "stateMutability": "view",
      "type": "function"
    },
    {
      "inputs": [],
      "name": "DEFAULT_ADMIN_ROLE",
      "outputs": [
        {
          "internalType": "bytes32",
          "name": "",
          "type": "bytes32"
        }
      ],
      "stateMutability": "view",
      "type": "function"
    },
    {
      "inputs": [],
      "name": "DEPLOYER_ROLE",
      "outputs": [
        {
          "internalType": "bytes32",
          "name": "",
          "type": "bytes32"
        }
      ],
      "stateMutability": "view",
      "type": "function"
    },
    {
      "inputs": [],
      "name": "GOVERNANCE_ROLE",
      "outputs": [
        {
          "internalType": "bytes32",
          "name": "",
          "type": "bytes32"
        }
      ],
      "stateMutability": "view",
      "type": "function"
    },
    {
      "inputs": [],
      "name": "approvalThreshold",
      "outputs": [
        {
          "internalType": "uint256",
          "name": "",
          "type": "uint256"
        }
      ],
      "stateMutability": "view",
      "type": "function"
    },
    {
      "inputs": [
        {
          "internalType": "address",
          "name": "contractAddress",
          "type": "address"
        }
      ],
      "name": "approveContract",
      "outputs": [],
      "stateMutability": "nonpayable",
      "type": "function"
    },
    {
      "inputs": [
        {
          "internalType": "address",
          "name": "",
          "type": "address"
        }
      ],
      "name": "approvedContracts",
      "outputs": [
        {
          "internalType": "bool",
          "name": "",
          "type": "bool"
        }
      ],
      "stateMutability": "view",
      "type": "function"
    },
    {
      "inputs": [
        {
          "internalType": "bytes32",
          "name": "role",
          "type": "bytes32"
        },
        {
          "internalType": "address",
          "name": "account",
          "type": "address"
        }
      ],
      "name": "assignRole",
      "outputs": [],
      "stateMutability": "nonpayable",
      "type": "function"
    },
    {
      "inputs": [],
      "name": "callCount",
      "outputs": [
        {
          "internalType": "uint256",
          "name": "",
          "type": "uint256"
        }
      ],
      "stateMutability": "view",
      "type": "function"
    },
    {
      "inputs": [
        {
          "internalType": "bytes32",
          "name": "operationId",
          "type": "bytes32"
        }
      ],
      "name": "executeOperation",
      "outputs": [],
      "stateMutability": "nonpayable",
      "type": "function"
    },
    {
      "inputs": [
        {
          "internalType": "bytes32",
          "name": "operationId",
          "type": "bytes32"
        }
      ],
      "name": "forceExecuteOperation",
      "outputs": [],
      "stateMutability": "nonpayable",
      "type": "function"
    },
    {
      "inputs": [
        {
          "internalType": "string",
          "name": "",
          "type": "string"
        }
      ],
      "name": "functionCallCount",
      "outputs": [
        {
          "internalType": "uint256",
          "name": "",
          "type": "uint256"
        }
      ],
      "stateMutability": "view",
      "type": "function"
    },
    {
      "inputs": [],
      "name": "getAllPendingOperationIds",
      "outputs": [
        {
          "internalType": "bytes32[]",
          "name": "",
          "type": "bytes32[]"
        }
      ],
      "stateMutability": "view",
      "type": "function"
    },
    {
      "inputs": [
        {
          "internalType": "string",
          "name": "name",
          "type": "string"
        }
      ],
      "name": "getContractAddress",
      "outputs": [
        {
          "internalType": "address",
          "name": "",
          "type": "address"
        }
      ],
      "stateMutability": "view",
      "type": "function"
    },
    {
      "inputs": [
        {
          "internalType": "string",
          "name": "functionName",
          "type": "string"
        }
      ],
      "name": "getFunctionCallCount",
      "outputs": [
        {
          "internalType": "uint256",
          "name": "",
          "type": "uint256"
        }
      ],
      "stateMutability": "view",
      "type": "function"
    },
    {
      "inputs": [
        {
          "internalType": "string",
          "name": "functionName",
          "type": "string"
        }
      ],
      "name": "getFunctionCallHistory",
      "outputs": [
        {
          "internalType": "uint256",
          "name": "count",
          "type": "uint256"
        },
        {
          "internalType": "address",
          "name": "lastCaller_",
          "type": "address"
        },
        {
          "internalType": "bytes",
          "name": "lastData",
          "type": "bytes"
        }
      ],
      "stateMutability": "view",
      "type": "function"
    },
    {
      "inputs": [
        {
          "internalType": "bytes32",
          "name": "operationId",
          "type": "bytes32"
        }
      ],
      "name": "getPendingOperation",
      "outputs": [
        {
          "internalType": "address",
          "name": "target",
          "type": "address"
        },
        {
          "internalType": "bytes",
          "name": "callData",
          "type": "bytes"
        },
        {
          "internalType": "uint256",
          "name": "timestamp",
          "type": "uint256"
        },
        {
          "internalType": "bool",
          "name": "executed",
          "type": "bool"
        }
      ],
      "stateMutability": "view",
      "type": "function"
    },
    {
      "inputs": [
        {
          "internalType": "bytes32",
          "name": "role",
          "type": "bytes32"
        }
      ],
      "name": "getRoleAdmin",
      "outputs": [
        {
          "internalType": "bytes32",
          "name": "",
          "type": "bytes32"
        }
      ],
      "stateMutability": "view",
      "type": "function"
    },
    {
      "inputs": [
        {
          "internalType": "bytes32",
          "name": "role",
          "type": "bytes32"
        },
        {
          "internalType": "address",
          "name": "account",
          "type": "address"
        }
      ],
      "name": "grantRole",
      "outputs": [],
      "stateMutability": "nonpayable",
      "type": "function"
    },
    {
      "inputs": [
        {
          "internalType": "bytes32",
          "name": "role",
          "type": "bytes32"
        },
        {
          "internalType": "address",
          "name": "account",
          "type": "address"
        }
      ],
      "name": "hasRole",
      "outputs": [
        {
          "internalType": "bool",
          "name": "",
          "type": "bool"
        }
      ],
      "stateMutability": "view",
      "type": "function"
    },
    {
      "inputs": [],
      "name": "initialize",
      "outputs": [],
      "stateMutability": "nonpayable",
      "type": "function"
    },
    {
      "inputs": [],
      "name": "initialized",
      "outputs": [
        {
          "internalType": "bool",
          "name": "",
          "type": "bool"
        }
      ],
      "stateMutability": "view",
      "type": "function"
    },
    {
      "inputs": [
        {
          "internalType": "address",
          "name": "contractAddress",
          "type": "address"
        }
      ],
      "name": "isContractApproved",
      "outputs": [
        {
          "internalType": "bool",
          "name": "",
          "type": "bool"
        }
      ],
      "stateMutability": "view",
      "type": "function"
    },
    {
      "inputs": [
        {
          "internalType": "string",
          "name": "",
          "type": "string"
        }
      ],
      "name": "lastCallData",
      "outputs": [
        {
          "internalType": "bytes",
          "name": "",
          "type": "bytes"
        }
      ],
      "stateMutability": "view",
      "type": "function"
    },
    {
      "inputs": [],
      "name": "lastCaller",
      "outputs": [
        {
          "internalType": "address",
          "name": "",
          "type": "address"
        }
      ],
      "stateMutability": "view",
      "type": "function"
    },
    {
      "inputs": [
        {
          "internalType": "string",
          "name": "",
          "type": "string"
        }
      ],
      "name": "lastCallerByFunction",
      "outputs": [
        {
          "internalType": "address",
          "name": "",
          "type": "address"
        }
      ],
      "stateMutability": "view",
      "type": "function"
    },
    {
      "inputs": [
        {
          "internalType": "string",
          "name": "",
          "type": "string"
        }
      ],
      "name": "managedContracts",
      "outputs": [
        {
          "internalType": "address",
          "name": "",
          "type": "address"
        }
      ],
      "stateMutability": "view",
      "type": "function"
    },
    {
      "inputs": [
        {
          "internalType": "uint256",
          "name": "",
          "type": "uint256"
        }
      ],
      "name": "pendingOperationIds",
      "outputs": [
        {
          "internalType": "bytes32",
          "name": "",
          "type": "bytes32"
        }
      ],
      "stateMutability": "view",
      "type": "function"
    },
    {
      "inputs": [
        {
          "internalType": "bytes32",
          "name": "",
          "type": "bytes32"
        }
      ],
      "name": "pendingOperations",
      "outputs": [
        {
          "internalType": "bytes32",
          "name": "operationId",
          "type": "bytes32"
        },
        {
          "internalType": "address",
          "name": "target",
          "type": "address"
        },
        {
          "internalType": "bytes",
          "name": "callData",
          "type": "bytes"
        },
        {
          "internalType": "uint256",
          "name": "timestamp",
          "type": "uint256"
        },
        {
          "internalType": "bool",
          "name": "executed",
          "type": "bool"
        }
      ],
      "stateMutability": "view",
      "type": "function"
    },
    {
      "inputs": [
        {
          "internalType": "string",
          "name": "name",
          "type": "string"
        },
        {
          "internalType": "address",
          "name": "contractAddress",
          "type": "address"
        }
      ],
      "name": "registerContract",
      "outputs": [],
      "stateMutability": "nonpayable",
      "type": "function"
    },
    {
      "inputs": [
        {
          "internalType": "bytes32",
          "name": "role",
          "type": "bytes32"
        },
        {
          "internalType": "address",
          "name": "callerConfirmation",
          "type": "address"
        }
      ],
      "name": "renounceRole",
      "outputs": [],
      "stateMutability": "nonpayable",
      "type": "function"
    },
    {
      "inputs": [],
      "name": "reset",
      "outputs": [],
      "stateMutability": "nonpayable",
      "type": "function"
    },
    {
      "inputs": [
        {
          "internalType": "bytes32",
          "name": "role",
          "type": "bytes32"
        },
        {
          "internalType": "address",
          "name": "account",
          "type": "address"
        }
      ],
      "name": "revokeRole",
      "outputs": [],
      "stateMutability": "nonpayable",
      "type": "function"
    },
    {
      "inputs": [
        {
          "internalType": "address",
          "name": "target",
          "type": "address"
        },
        {
          "internalType": "bytes",
          "name": "callData",
          "type": "bytes"
        }
      ],
      "name": "scheduleOperation",
      "outputs": [
        {
          "internalType": "bytes32",
          "name": "operationId",
          "type": "bytes32"
        }
      ],
      "stateMutability": "nonpayable",
      "type": "function"
    },
    {
      "inputs": [
        {
          "internalType": "bytes4",
          "name": "interfaceId",
          "type": "bytes4"
        }
      ],
      "name": "supportsInterface",
      "outputs": [
        {
          "internalType": "bool",
          "name": "",
          "type": "bool"
        }
      ],
      "stateMutability": "view",
      "type": "function"
    },
    {
      "inputs": [],
      "name": "timelock",
      "outputs": [
        {
          "internalType": "uint256",
          "name": "",
          "type": "uint256"
        }
      ],
      "stateMutability": "view",
      "type": "function"
    },
    {
      "inputs": [
        {
          "internalType": "uint256",
          "name": "newThreshold",
          "type": "uint256"
        }
      ],
      "name": "updateApprovalThreshold",
      "outputs": [],
      "stateMutability": "nonpayable",
      "type": "function"
    },
    {
      "inputs": [
        {
          "internalType": "uint256",
          "name": "newTimelock",
          "type": "uint256"
        }
      ],
      "name": "updateTimelock",
      "outputs": [],
      "stateMutability": "nonpayable",
      "type": "function"
    },
    {
      "inputs": [
        {
          "internalType": "string",
          "name": "functionName",
          "type": "string"
        }
      ],
      "name": "wasFunctionCalled",
      "outputs": [
        {
          "internalType": "bool",
          "name": "",
          "type": "bool"
        }
      ],
      "stateMutability": "view",
      "type": "function"
    }
  ],
  "bytecode": "0x608060405234801561001057600080fd5b503360009081527f54cdd369e4e8a8515e52ca72ec816c2101831ad1f18bf44102ed171459c9b4f8602090815260408083208054600160ff1991821681179092557f63c5f4c78d8273c29df67c6b0912e7d17e13bb6ee538ba4f5dfe200b290617ba845282852080548216831790557f0c3bb05773fb95f6688e1e7d9c896674dccd66884026cf30a3d5e3a9bfecd81190935290832080549092168117909155600955600a819055611f369081906100c890396000f3fe608060405234801561001057600080fd5b506004361061023d5760003560e01c80634b28f9a21161013b578063c054c6ce116100b8578063dfdbdd501161007c578063dfdbdd501461057c578063ecd002611461059c578063f1d1ffb5146105c3578063f36c8f5c146105e6578063fa1ccffd1461060d57600080fd5b8063c054c6ce14610532578063cbaf2fa714610545578063d33219b414610558578063d547741f14610561578063d826f88f1461057457600080fd5b80638129fc1c116100ff5780638129fc1c146104d857806391d14854146104e057806394c49cac146104f3578063a217fddf14610517578063b79d84221461051f57600080fd5b80634b28f9a21461048957806362a94a7d1461049257806375b238fc146104a75780637d0eef61146104bc5780637f3c2c28146104c557600080fd5b80632113522a116101c957806336568abe1161018d57806336568abe146103e25780633ca3910c146103f5578063422b010b1461041757806344336df41461044257806347cd47b61461047657600080fd5b80632113522a1461035e578063248a9ca31461037657806326749ad7146103995780632f2ff15d146103bc57806330a727b3146103cf57600080fd5b8063158ef93e11610210578063158ef93e146102d65780631a82a643146102e35780631c6f2ae2146103045780631df86bc6146103175780631f706a591461034b57600080fd5b806301ffc9a71461024257806304433bbc1461026a578063070d39d91461029557806307f7aafb146102c1575b600080fd5b610255610250366004611890565b610620565b60405190151581526020015b60405180910390f35b61027d610278366004611966565b610657565b6040516001600160a01b039091168152602001610261565b6102556102a33660046119bf565b6001600160a01b031660009081526008602052604090205460ff1690565b6102d46102cf3660046119bf565b610688565b005b6001546102559060ff1681565b6102f66102f1366004611966565b610798565b604051908152602001610261565b6102d46103123660046119da565b6107c0565b61027d610325366004611966565b80516020818301810180516005825292820191909301209152546001600160a01b031681565b6102f66103593660046119da565b610906565b60015461027d9061010090046001600160a01b031681565b6102f66103843660046119da565b60009081526020819052604090206001015490565b6102556103a73660046119bf565b60086020526000908152604090205460ff1681565b6102d46103ca3660046119f3565b610927565b6102d46103dd3660046119f3565b610952565b6102d46103f03660046119f3565b610a3e565b610408610403366004611966565b610a76565b60405161026193929190611a6f565b6102f6610425366004611966565b805160208183018101805160038252928201919093012091525481565b61027d610450366004611966565b80516020818301810180516007825292820191909301209152546001600160a01b031681565b6102f6610484366004611aa2565b610b79565b6102f660025481565b61049a610d70565b6040516102619190611b04565b6102f6600080516020611ee183398151915281565b6102f660095481565b6102d46104d3366004611b48565b610dc8565b6102d4610ee0565b6102556104ee3660046119f3565b610f6c565b6105066105013660046119da565b610f7f565b604051610261959493929190611b8d565b6102f6600081565b6102d461052d3660046119da565b611044565b610255610540366004611966565b611170565b6102d46105533660046119da565b61119a565b6102f6600a5481565b6102d461056f3660046119f3565b6112db565b6102d46113d8565b61058f61058a366004611966565b611424565b6040516102619190611bd0565b6102f67ffc425f2263d0df187444b70e47283d622c70181c5baebb1306a01edba1ce184c81565b6105d66105d13660046119da565b6114c9565b6040516102619493929190611be3565b6102f67f71840dc4906352362b0cdaf79870196c8e42acafade72d5d5a6d59291253ceb181565b6102d461061b3660046119da565b6115c2565b60006001600160e01b03198216637965db0b60e01b148061065157506301ffc9a760e01b6001600160e01b03198316145b92915050565b60006007826040516106699190611c1f565b908152604051908190036020019020546001600160a01b031692915050565b6106e76040518060400160405280600f81526020016e185c1c1c9bdd9950dbdb9d1c9858dd608a1b815250826040516020016106d391906001600160a01b0391909116815260200190565b604051602081830303815290604052611654565b6106ff600080516020611ee183398151915233611772565b6107245760405162461bcd60e51b815260040161071b90611c3b565b60405180910390fd5b6001600160a01b03811661074a5760405162461bcd60e51b815260040161071b90611c63565b6001600160a01b038116600081815260086020526040808220805460ff19166001179055513392917f329b5f7db63f569f81bfeb8c6fbbc6bba7274d06a644011a6f3e7ac77ab0cf7691a350565b60006003826040516107aa9190611c1f565b9081526020016040518091039020549050919050565b61080c6040518060400160405280601781526020017f757064617465417070726f76616c5468726573686f6c64000000000000000000815250826040516020016106d391815260200190565b610824600080516020611ee183398151915233611772565b6108405760405162461bcd60e51b815260040161071b90611c3b565b6000811161089c5760405162461bcd60e51b815260206004820152602360248201527f5468726573686f6c64206d7573742062652067726561746572207468616e207a60448201526265726f60e81b606482015260840161071b565b600980549082905560405170185c1c1c9bdd985b151a1c995cda1bdb19607a1b81526011015b6040805191829003822083835260208301859052917faf926e76bf13177a12c0cd0e3c48728a4fc68225bdadba0b0b367e29fe6876d5910160405180910390a25050565b600c818154811061091657600080fd5b600091825260209091200154905081565b6000828152602081905260409020600101546109428161179d565b61094c83836117aa565b50505050565b61099d6040518060400160405280600a81526020016961737369676e526f6c6560b01b81525083836040516020016106d39291909182526001600160a01b0316602082015260400190565b6109b5600080516020611ee183398151915233611772565b6109d15760405162461bcd60e51b815260040161071b90611c3b565b6001600160a01b0381166109f75760405162461bcd60e51b815260040161071b90611c63565b610a0182826117aa565b5060405133906001600160a01b0383169084907fd3c3c74ac78e01f4affcaa9191550c84a2b0b79d8f0dfcee7645eda13a90c6c790600090a45050565b6001600160a01b0381163314610a675760405163334bd91960e11b815260040160405180910390fd5b610a7182826117e0565b505050565b6000806060600384604051610a8b9190611c1f565b908152602001604051809103902054600585604051610aaa9190611c1f565b908152604051908190036020018120546001600160a01b031690600490610ad2908890611c1f565b9081526020016040518091039020808054610aec90611c9a565b80601f0160208091040260200160405190810160405280929190818152602001828054610b1890611c9a565b8015610b655780601f10610b3a57610100808354040283529160200191610b65565b820191906000526020600020905b815481529060010190602001808311610b4857829003601f168201915b505050505090509250925092509193909250565b6000610bbb6040518060400160405280601181526020017039b1b432b23ab632a7b832b930ba34b7b760791b81525084846040516020016106d3929190611cd4565b610bd3600080516020611ee183398151915233611772565b610bef5760405162461bcd60e51b815260040161071b90611c3b565b6001600160a01b038316610c155760405162461bcd60e51b815260040161071b90611c63565b6001600160a01b03831660009081526008602052604090205460ff16610c755760405162461bcd60e51b815260206004820152601560248201527410dbdb9d1c9858dd081b9bdd08185c1c1c9bdd9959605a1b604482015260640161071b565b828242604051602001610c8a93929190611cf8565b60408051808303601f1901815291815281516020928301206000818152600b90935291208181556001810180546001600160a01b0319166001600160a01b03871617905590915060028101610cdf8482611d87565b50426003820181905560048201805460ff19169055600c80546001810182556000919091527fdf6966c971051c3d54ec59162606531493a51404a002842f56009d7e5cf4a8c7018390556040519081526001600160a01b0385169083907f991e9b0e2f98c3989f4541ce66e9aca44e8bfb1c75bcf862d80f800369e6c6a39060200160405180910390a35092915050565b6060600c805480602002602001604051908101604052809291908181526020018280548015610dbe57602002820191906000526020600020905b815481526020019060010190808311610daa575b5050505050905090565b610e076040518060400160405280601081526020016f1c9959da5cdd195c90dbdb9d1c9858dd60821b81525083836040516020016106d3929190611e47565b610e1f600080516020611ee183398151915233611772565b610e3b5760405162461bcd60e51b815260040161071b90611c3b565b6001600160a01b038116610e615760405162461bcd60e51b815260040161071b90611c63565b80600783604051610e729190611c1f565b90815260405190819003602001812080546001600160a01b039384166001600160a01b031990911617905590821690610eac908490611c1f565b604051908190038120907f2a88e68a891ddb61f7aebfdeefd9fb74964fcd5371b692ea59cca73fc58f480590600090a35050565b60015460ff1615610f335760405162461bcd60e51b815260206004820152601d60248201527f426173654d6f636b3a20616c726561647920696e697469616c697a6564000000604482015260640161071b565b6001805460ff19168117905560405133907f30f7074e868351008998491171b433e7342f255e986fef03e5eec84f01786f0190600090a2565b6000610f788383611772565b9392505050565b600b6020526000908152604090208054600182015460028301805492936001600160a01b0390921692610fb190611c9a565b80601f0160208091040260200160405190810160405280929190818152602001828054610fdd90611c9a565b801561102a5780601f10610fff5761010080835404028352916020019161102a565b820191906000526020600020905b81548152906001019060200180831161100d57829003601f168201915b50505050600383015460049093015491929160ff16905085565b611088604051806040016040528060158152602001743337b931b2a2bc32b1baba32a7b832b930ba34b7b760591b815250826040516020016106d391815260200190565b6110a0600080516020611ee183398151915233611772565b6110bc5760405162461bcd60e51b815260040161071b90611c3b565b6000818152600b60205260409020805482146110ea5760405162461bcd60e51b815260040161071b90611e71565b600481015460ff16156111325760405162461bcd60e51b815260206004820152601060248201526f105b1c9958591e48195e1958dd5d195960821b604482015260640161071b565b60048101805460ff1916600117905560405182907f1277662f4b42b8a4069e99fb5e41ce8919d3c621156090ac08fb11adbcec66f990600090a25050565b6000806003836040516111839190611c1f565b908152602001604051809103902054119050919050565b6111d96040518060400160405280601081526020016f32bc32b1baba32a7b832b930ba34b7b760811b815250826040516020016106d391815260200190565b6111f1600080516020611ee183398151915233611772565b61120d5760405162461bcd60e51b815260040161071b90611c3b565b6000818152600b602052604090208054821461123b5760405162461bcd60e51b815260040161071b90611e71565b600481015460ff16156112835760405162461bcd60e51b815260206004820152601060248201526f105b1c9958591e48195e1958dd5d195960821b604482015260640161071b565b600a5481600301546112959190611eb4565b4210156111325760405162461bcd60e51b8152602060048201526014602482015273151a5b595b1bd8dac81b9bdd08195e1c1a5c995960621b604482015260640161071b565b6113266040518060400160405280600a8152602001697265766f6b65526f6c6560b01b81525083836040516020016106d39291909182526001600160a01b0316602082015260400190565b61133e600080516020611ee183398151915233611772565b61135a5760405162461bcd60e51b815260040161071b90611c3b565b6001600160a01b0381166113805760405162461bcd60e51b815260040161071b90611c63565b60008281526006602090815260408083206001600160a01b0385168085529252808320805460ff1916905551339285917fd3c3c74ac78e01f4affcaa9191550c84a2b0b79d8f0dfcee7645eda13a90c6c79190a45050565b60006113e38161179d565b600180546001600160a81b0319169055600060028190556040517f47f78a7a0acc7fff3657157dc253c5e6a68550995cc6f47bc2bd707ec67370fb9190a150565b80516020818301810180516004825292820191909301209152805461144890611c9a565b80601f016020809104026020016040519081016040528092919081815260200182805461147490611c9a565b80156114c15780601f10611496576101008083540402835291602001916114c1565b820191906000526020600020905b8154815290600101906020018083116114a457829003601f168201915b505050505081565b6000818152600b602052604081208054606091839182919086146114ff5760405162461bcd60e51b815260040161071b90611e71565b6001810154600382015460048301546002840180546001600160a01b039094169390929160ff1690839061153290611c9a565b80601f016020809104026020016040519081016040528092919081815260200182805461155e90611c9a565b80156115ab5780601f10611580576101008083540402835291602001916115ab565b820191906000526020600020905b81548152906001019060200180831161158e57829003601f168201915b505050505092509450945094509450509193509193565b6115ff6040518060400160405280600e81526020016d75706461746554696d656c6f636b60901b815250826040516020016106d391815260200190565b611617600080516020611ee183398151915233611772565b6116335760405162461bcd60e51b815260040161071b90611c3b565b600a8054908290556040516774696d656c6f636b60c01b81526008016108c2565b6003826040516116649190611c1f565b908152604051908190036020019020805490600061168183611ec7565b9190505550806004836040516116979190611c1f565b908152602001604051809103902090816116b19190611d87565b50336005836040516116c39190611c1f565b90815260405160209181900391909101902080546001600160a01b0319166001600160a01b039290921691909117905560018054610100600160a81b03191661010033021790556002805490600061171a83611ec7565b9091555050604051339061172f908490611c1f565b60405180910390207f16b892c3de2f4b54dc114eff5c76ead156bac210353ee82615752957e1317df1836040516117669190611bd0565b60405180910390a35050565b60009182526006602090815260408084206001600160a01b0393909316845291905290205460ff1690565b6117a78133611853565b50565b60008281526006602090815260408083206001600160a01b03851684529091529020805460ff1916600190811790915592915050565b60006117ec8383610f6c565b1561184b576000838152602081815260408083206001600160a01b0386168085529252808320805460ff1916905551339286917ff6391f5c32d9c69d2a47ea670b442974b53935d1edc7fd64eb21e047a839171b9190a4506001610651565b506000610651565b61185d8282610f6c565b61188c5760405163e2517d3f60e01b81526001600160a01b03821660048201526024810183905260440161071b565b5050565b6000602082840312156118a257600080fd5b81356001600160e01b031981168114610f7857600080fd5b634e487b7160e01b600052604160045260246000fd5b600067ffffffffffffffff808411156118eb576118eb6118ba565b604051601f8501601f19908116603f01168101908282118183101715611913576119136118ba565b8160405280935085815286868601111561192c57600080fd5b858560208301376000602087830101525050509392505050565b600082601f83011261195757600080fd5b610f78838335602085016118d0565b60006020828403121561197857600080fd5b813567ffffffffffffffff81111561198f57600080fd5b61199b84828501611946565b949350505050565b80356001600160a01b03811681146119ba57600080fd5b919050565b6000602082840312156119d157600080fd5b610f78826119a3565b6000602082840312156119ec57600080fd5b5035919050565b60008060408385031215611a0657600080fd5b82359150611a16602084016119a3565b90509250929050565b60005b83811015611a3a578181015183820152602001611a22565b50506000910152565b60008151808452611a5b816020860160208601611a1f565b601f01601f19169290920160200192915050565b8381526001600160a01b0383166020820152606060408201819052600090611a9990830184611a43565b95945050505050565b60008060408385031215611ab557600080fd5b611abe836119a3565b9150602083013567ffffffffffffffff811115611ada57600080fd5b8301601f81018513611aeb57600080fd5b611afa858235602084016118d0565b9150509250929050565b6020808252825182820181905260009190848201906040850190845b81811015611b3c57835183529284019291840191600101611b20565b50909695505050505050565b60008060408385031215611b5b57600080fd5b823567ffffffffffffffff811115611b7257600080fd5b611b7e85828601611946565b925050611a16602084016119a3565b8581526001600160a01b038516602082015260a060408201819052600090611bb790830186611a43565b6060830194909452509015156080909101529392505050565b602081526000610f786020830184611a43565b6001600160a01b0385168152608060208201819052600090611c0790830186611a43565b60408301949094525090151560609091015292915050565b60008251611c31818460208701611a1f565b9190910192915050565b6020808252600e908201526d139bdd08185d5d1a1bdc9a5e995960921b604082015260600190565b60208082526018908201527f5a65726f2061646472657373206e6f7420616c6c6f7765640000000000000000604082015260600190565b600181811c90821680611cae57607f821691505b602082108103611cce57634e487b7160e01b600052602260045260246000fd5b50919050565b6001600160a01b038316815260406020820181905260009061199b90830184611a43565b6bffffffffffffffffffffffff198460601b16815260008351611d22816014850160208801611a1f565b60149201918201929092526034019392505050565b601f821115610a71576000816000526020600020601f850160051c81016020861015611d605750805b601f850160051c820191505b81811015611d7f57828155600101611d6c565b505050505050565b815167ffffffffffffffff811115611da157611da16118ba565b611db581611daf8454611c9a565b84611d37565b602080601f831160018114611dea5760008415611dd25750858301515b600019600386901b1c1916600185901b178555611d7f565b600085815260208120601f198616915b82811015611e1957888601518255948401946001909101908401611dfa565b5085821015611e375787850151600019600388901b60f8161c191681555b5050505050600190811b01905550565b604081526000611e5a6040830185611a43565b905060018060a01b03831660208301529392505050565b60208082526013908201527213dc195c985d1a5bdb881b9bdd08199bdd5b99606a1b604082015260600190565b634e487b7160e01b600052601160045260246000fd5b8082018082111561065157610651611e9e565b600060018201611ed957611ed9611e9e565b506001019056fea49807205ce4d355092ef5a8a18f56e8913cf4a201fbe287825b095693c21775a2646970667358221220cac833ec9d7cc4fca02b00eaaa1d50ba7e76e895a2bcb16739c3cee1aff6bc1e64736f6c63430008180033",
  "linkReferences": {},
  "deployedLinkReferences": {}
}