{
  "_format": "hh-sol-artifact-1",
  "contractName": "ChainlinkPriceOracle",
  "sourceName": "contracts/oracles/ChainlinkPriceOracle.sol",
  "abi": [
    {
      "inputs": [
        {
          "internalType": "address",
          "name": "admin",
          "type": "address"
        }
      ],
      "stateMutability": "nonpayable",
      "type": "constructor"
    },
    {
      "inputs": [],
      "name": "AccessControlBadConfirmation",
      "type": "error"
    },
    {
      "inputs": [
        {
          "internalType": "address",
          "name": "account",
          "type": "address"
        },
        {
          "internalType": "bytes32",
          "name": "neededRole",
          "type": "bytes32"
        }
      ],
      "name": "AccessControlUnauthorizedAccount",
      "type": "error"
    },
    {
      "inputs": [],
      "name": "FallbackPriceStale",
      "type": "error"
    },
    {
      "inputs": [],
      "name": "InvalidAggregator",
      "type": "error"
    },
    {
      "inputs": [],
      "name": "InvalidPriceOrUpdate",
      "type": "error"
    },
    {
      "inputs": [],
      "name": "ReliabilityOutOfRange",
      "type": "error"
    },
    {
      "anonymous": false,
      "inputs": [
        {
          "indexed": true,
          "internalType": "address",
          "name": "token",
          "type": "address"
        },
        {
          "indexed": false,
          "internalType": "uint256",
          "name": "price",
          "type": "uint256"
        },
        {
          "indexed": false,
          "internalType": "uint8",
          "name": "decimals",
          "type": "uint8"
        }
      ],
      "name": "FallbackPriceSet",
      "type": "event"
    },
    {
      "anonymous": false,
      "inputs": [
        {
          "indexed": true,
          "internalType": "address",
          "name": "token",
          "type": "address"
        },
        {
          "indexed": false,
          "internalType": "uint256",
          "name": "price",
          "type": "uint256"
        },
        {
          "indexed": false,
          "internalType": "uint8",
          "name": "decimals",
          "type": "uint8"
        }
      ],
      "name": "FallbackUsed",
      "type": "event"
    },
    {
      "anonymous": false,
      "inputs": [
        {
          "indexed": true,
          "internalType": "address",
          "name": "token",
          "type": "address"
        }
      ],
      "name": "FeedRemoved",
      "type": "event"
    },
    {
      "anonymous": false,
      "inputs": [
        {
          "indexed": true,
          "internalType": "address",
          "name": "token",
          "type": "address"
        },
        {
          "indexed": true,
          "internalType": "address",
          "name": "aggregator",
          "type": "address"
        },
        {
          "indexed": false,
          "internalType": "uint256",
          "name": "maxStaleness",
          "type": "uint256"
        },
        {
          "indexed": false,
          "internalType": "uint256",
          "name": "heartbeat",
          "type": "uint256"
        },
        {
          "indexed": false,
          "internalType": "uint8",
          "name": "reliabilityScore",
          "type": "uint8"
        }
      ],
      "name": "FeedSet",
      "type": "event"
    },
    {
      "anonymous": false,
      "inputs": [
        {
          "indexed": true,
          "internalType": "address",
          "name": "token",
          "type": "address"
        },
        {
          "indexed": false,
          "internalType": "uint256",
          "name": "updatedAt",
          "type": "uint256"
        },
        {
          "indexed": false,
          "internalType": "uint256",
          "name": "maxStaleness",
          "type": "uint256"
        }
      ],
      "name": "PriceStale",
      "type": "event"
    },
    {
      "anonymous": false,
      "inputs": [
        {
          "indexed": true,
          "internalType": "bytes32",
          "name": "role",
          "type": "bytes32"
        },
        {
          "indexed": true,
          "internalType": "bytes32",
          "name": "previousAdminRole",
          "type": "bytes32"
        },
        {
          "indexed": true,
          "internalType": "bytes32",
          "name": "newAdminRole",
          "type": "bytes32"
        }
      ],
      "name": "RoleAdminChanged",
      "type": "event"
    },
    {
      "anonymous": false,
      "inputs": [
        {
          "indexed": true,
          "internalType": "bytes32",
          "name": "role",
          "type": "bytes32"
        },
        {
          "indexed": true,
          "internalType": "address",
          "name": "account",
          "type": "address"
        },
        {
          "indexed": true,
          "internalType": "address",
          "name": "sender",
          "type": "address"
        }
      ],
      "name": "RoleGranted",
      "type": "event"
    },
    {
      "anonymous": false,
      "inputs": [
        {
          "indexed": true,
          "internalType": "bytes32",
          "name": "role",
          "type": "bytes32"
        },
        {
          "indexed": true,
          "internalType": "address",
          "name": "account",
          "type": "address"
        },
        {
          "indexed": true,
          "internalType": "address",
          "name": "sender",
          "type": "address"
        }
      ],
      "name": "RoleRevoked",
      "type": "event"
    },
    {
      "inputs": [],
      "name": "ADMIN_ROLE",
      "outputs": [
        {
          "internalType": "bytes32",
          "name": "",
          "type": "bytes32"
        }
      ],
      "stateMutability": "view",
      "type": "function"
    },
    {
      "inputs": [],
      "name": "DEFAULT_ADMIN_ROLE",
      "outputs": [
        {
          "internalType": "bytes32",
          "name": "",
          "type": "bytes32"
        }
      ],
      "stateMutability": "view",
      "type": "function"
    },
    {
      "inputs": [],
      "name": "FEED_MANAGER_ROLE",
      "outputs": [
        {
          "internalType": "bytes32",
          "name": "",
          "type": "bytes32"
        }
      ],
      "stateMutability": "view",
      "type": "function"
    },
    {
      "inputs": [],
      "name": "defaultDecimals",
      "outputs": [
        {
          "internalType": "uint8",
          "name": "",
          "type": "uint8"
        }
      ],
      "stateMutability": "view",
      "type": "function"
    },
    {
      "inputs": [
        {
          "internalType": "address",
          "name": "",
          "type": "address"
        }
      ],
      "name": "fallbackDecimals",
      "outputs": [
        {
          "internalType": "uint8",
          "name": "",
          "type": "uint8"
        }
      ],
      "stateMutability": "view",
      "type": "function"
    },
    {
      "inputs": [
        {
          "internalType": "address",
          "name": "",
          "type": "address"
        }
      ],
      "name": "fallbackLastUpdated",
      "outputs": [
        {
          "internalType": "uint256",
          "name": "",
          "type": "uint256"
        }
      ],
      "stateMutability": "view",
      "type": "function"
    },
    {
      "inputs": [
        {
          "internalType": "address",
          "name": "",
          "type": "address"
        }
      ],
      "name": "fallbackPrices",
      "outputs": [
        {
          "internalType": "uint256",
          "name": "",
          "type": "uint256"
        }
      ],
      "stateMutability": "view",
      "type": "function"
    },
    {
      "inputs": [],
      "name": "fallbackStaleness",
      "outputs": [
        {
          "internalType": "uint256",
          "name": "",
          "type": "uint256"
        }
      ],
      "stateMutability": "view",
      "type": "function"
    },
    {
      "inputs": [
        {
          "internalType": "address",
          "name": "",
          "type": "address"
        }
      ],
      "name": "feeds",
      "outputs": [
        {
          "internalType": "contract AggregatorV3Interface",
          "name": "aggregator",
          "type": "address"
        },
        {
          "internalType": "uint256",
          "name": "maxStaleness",
          "type": "uint256"
        },
        {
          "internalType": "uint256",
          "name": "heartbeat",
          "type": "uint256"
        },
        {
          "internalType": "uint8",
          "name": "reliabilityScore",
          "type": "uint8"
        },
        {
          "internalType": "bool",
          "name": "exists",
          "type": "bool"
        }
      ],
      "stateMutability": "view",
      "type": "function"
    },
    {
      "inputs": [
        {
          "internalType": "address",
          "name": "token",
          "type": "address"
        }
      ],
      "name": "getAssetDecimals",
      "outputs": [
        {
          "internalType": "uint8",
          "name": "",
          "type": "uint8"
        }
      ],
      "stateMutability": "view",
      "type": "function"
    },
    {
      "inputs": [
        {
          "internalType": "address",
          "name": "token",
          "type": "address"
        }
      ],
      "name": "getAssetPrice",
      "outputs": [
        {
          "internalType": "uint256",
          "name": "",
          "type": "uint256"
        }
      ],
      "stateMutability": "view",
      "type": "function"
    },
    {
      "inputs": [
        {
          "internalType": "bytes32",
          "name": "role",
          "type": "bytes32"
        }
      ],
      "name": "getRoleAdmin",
      "outputs": [
        {
          "internalType": "bytes32",
          "name": "",
          "type": "bytes32"
        }
      ],
      "stateMutability": "view",
      "type": "function"
    },
    {
      "inputs": [
        {
          "internalType": "bytes32",
          "name": "role",
          "type": "bytes32"
        },
        {
          "internalType": "address",
          "name": "account",
          "type": "address"
        }
      ],
      "name": "grantRole",
      "outputs": [],
      "stateMutability": "nonpayable",
      "type": "function"
    },
    {
      "inputs": [
        {
          "internalType": "bytes32",
          "name": "role",
          "type": "bytes32"
        },
        {
          "internalType": "address",
          "name": "account",
          "type": "address"
        }
      ],
      "name": "hasRole",
      "outputs": [
        {
          "internalType": "bool",
          "name": "",
          "type": "bool"
        }
      ],
      "stateMutability": "view",
      "type": "function"
    },
    {
      "inputs": [
        {
          "internalType": "address",
          "name": "token",
          "type": "address"
        }
      ],
      "name": "removeFeed",
      "outputs": [],
      "stateMutability": "nonpayable",
      "type": "function"
    },
    {
      "inputs": [
        {
          "internalType": "bytes32",
          "name": "role",
          "type": "bytes32"
        },
        {
          "internalType": "address",
          "name": "callerConfirmation",
          "type": "address"
        }
      ],
      "name": "renounceRole",
      "outputs": [],
      "stateMutability": "nonpayable",
      "type": "function"
    },
    {
      "inputs": [
        {
          "internalType": "bytes32",
          "name": "role",
          "type": "bytes32"
        },
        {
          "internalType": "address",
          "name": "account",
          "type": "address"
        }
      ],
      "name": "revokeRole",
      "outputs": [],
      "stateMutability": "nonpayable",
      "type": "function"
    },
    {
      "inputs": [
        {
          "internalType": "address",
          "name": "token",
          "type": "address"
        },
        {
          "internalType": "uint256",
          "name": "price",
          "type": "uint256"
        },
        {
          "internalType": "uint8",
          "name": "decimals",
          "type": "uint8"
        }
      ],
      "name": "setFallbackPrice",
      "outputs": [],
      "stateMutability": "nonpayable",
      "type": "function"
    },
    {
      "inputs": [
        {
          "internalType": "uint256",
          "name": "newStaleness",
          "type": "uint256"
        }
      ],
      "name": "setFallbackStaleness",
      "outputs": [],
      "stateMutability": "nonpayable",
      "type": "function"
    },
    {
      "inputs": [
        {
          "internalType": "address",
          "name": "token",
          "type": "address"
        },
        {
          "internalType": "address",
          "name": "aggregator",
          "type": "address"
        },
        {
          "internalType": "uint256",
          "name": "maxStaleness",
          "type": "uint256"
        },
        {
          "internalType": "uint256",
          "name": "heartbeat",
          "type": "uint256"
        },
        {
          "internalType": "uint8",
          "name": "reliabilityScore",
          "type": "uint8"
        }
      ],
      "name": "setFeed",
      "outputs": [],
      "stateMutability": "nonpayable",
      "type": "function"
    },
    {
      "inputs": [
        {
          "internalType": "address",
          "name": "token",
          "type": "address"
        }
      ],
      "name": "supportsAsset",
      "outputs": [
        {
          "internalType": "bool",
          "name": "",
          "type": "bool"
        }
      ],
      "stateMutability": "view",
      "type": "function"
    },
    {
      "inputs": [
        {
          "internalType": "bytes4",
          "name": "interfaceId",
          "type": "bytes4"
        }
      ],
      "name": "supportsInterface",
      "outputs": [
        {
          "internalType": "bool",
          "name": "",
          "type": "bool"
        }
      ],
      "stateMutability": "view",
      "type": "function"
    }
  ],
  "bytecode": "0x60806040526002805460ff19166008179055620151806006553480156200002557600080fd5b506040516200121438038062001214833981016040819052620000489162000166565b62000055600082620000b7565b50620000827fa49807205ce4d355092ef5a8a18f56e8913cf4a201fbe287825b095693c2177582620000b7565b50620000af7fddbe48f52bb812894c8051224ff4457244fc2b78c8caa3e39179c65d4b6de41282620000b7565b505062000198565b6000828152602081815260408083206001600160a01b038516845290915281205460ff166200015c576000838152602081815260408083206001600160a01b03861684529091529020805460ff19166001179055620001133390565b6001600160a01b0316826001600160a01b0316847f2f8788117e7eff1d82e926ec794901d17c78024a50270940304540a733656f0d60405160405180910390a450600162000160565b5060005b92915050565b6000602082840312156200017957600080fd5b81516001600160a01b03811681146200019157600080fd5b9392505050565b61106c80620001a86000396000f3fe608060405234801561001057600080fd5b50600436106101415760003560e01c8063541e2b36116100b8578063a217fddf1161007c578063a217fddf1461036b578063a9322d6c14610373578063aa388af614610396578063b3596f07146103a9578063d547741f146103bc578063eecf8e83146103cf57600080fd5b8063541e2b36146102e457806375b238fc146102f757806391d148541461031e57806398e39360146103315780639efd6f721461035857600080fd5b80632fba4aa91161010a5780632fba4aa9146101e757806330f08abd1461026c57806336568abe1461028b5780634466a1361461029e57806344efe61c146102be5780634b90fd69146102d157600080fd5b80623d73d01461014657806301ffc9a71461015b578063241d3a0b14610183578063248a9ca3146101b15780632f2ff15d146101d4575b600080fd5b610159610154366004610d1c565b6103d8565b005b61016e610169366004610d5c565b61047f565b60405190151581526020015b60405180910390f35b6101a3610191366004610d86565b60036020526000908152604090205481565b60405190815260200161017a565b6101a36101bf366004610da1565b60009081526020819052604090206001015490565b6101596101e2366004610dba565b6104b6565b6102356101f5366004610d86565b600160208190526000918252604090912080549181015460028201546003909201546001600160a01b039093169290919060ff8082169161010090041685565b604080516001600160a01b03909616865260208601949094529284019190915260ff1660608301521515608082015260a00161017a565b6002546102799060ff1681565b60405160ff909116815260200161017a565b610159610299366004610dba565b6104e1565b6101a36102ac366004610d86565b60056020526000908152604090205481565b6101596102cc366004610de6565b610519565b6101596102df366004610d86565b6106da565b6101596102f2366004610da1565b610771565b6101a37fa49807205ce4d355092ef5a8a18f56e8913cf4a201fbe287825b095693c2177581565b61016e61032c366004610dba565b6107a1565b6101a37fddbe48f52bb812894c8051224ff4457244fc2b78c8caa3e39179c65d4b6de41281565b610279610366366004610d86565b6107ca565b6101a3600081565b610279610381366004610d86565b60046020526000908152604090205460ff1681565b61016e6103a4366004610d86565b61083f565b6101a36103b7366004610d86565b610887565b6101596103ca366004610dba565b61091a565b6101a360065481565b7fa49807205ce4d355092ef5a8a18f56e8913cf4a201fbe287825b095693c217756104028161093f565b6001600160a01b038416600081815260036020908152604080832087905560048252808320805460ff191660ff881690811790915560058352928190204290558051878152918201929092527f6114bb8ca4e5de91bee9b4322168eee094b4249d729913ba34a4170230eb23b6910160405180910390a250505050565b60006001600160e01b03198216637965db0b60e01b14806104b057506301ffc9a760e01b6001600160e01b03198316145b92915050565b6000828152602081905260409020600101546104d18161093f565b6104db838361094c565b50505050565b6001600160a01b038116331461050a5760405163334bd91960e11b815260040160405180910390fd5b61051482826109de565b505050565b7fddbe48f52bb812894c8051224ff4457244fc2b78c8caa3e39179c65d4b6de4126105438161093f565b6001600160a01b03851661056a5760405163029a68ed60e41b815260040160405180910390fd5b60648260ff16111561058f5760405163178a172360e01b815260040160405180910390fd5b6040518060a00160405280866001600160a01b031681526020018581526020018481526020018360ff1681526020016001151581525060016000886001600160a01b03166001600160a01b0316815260200190815260200160002060008201518160000160006101000a8154816001600160a01b0302191690836001600160a01b03160217905550602082015181600101556040820151816002015560608201518160030160006101000a81548160ff021916908360ff16021790555060808201518160030160016101000a81548160ff021916908315150217905550905050846001600160a01b0316866001600160a01b03167fcf5a4efbc4cbf1cb08380904170d5bdaf3d4db97ca62b0f32745bd3ee2a9eee08686866040516106ca93929190928352602083019190915260ff16604082015260600190565b60405180910390a3505050505050565b7fddbe48f52bb812894c8051224ff4457244fc2b78c8caa3e39179c65d4b6de4126107048161093f565b6001600160a01b038216600081815260016020819052604080832080546001600160a01b0319168155918201839055600282018390556003909101805461ffff19169055517f80502f8484874852e0b4f9360dc6004a3fc5a00fa2b3339ebfdc1a419ceb7dac9190a25050565b7fa49807205ce4d355092ef5a8a18f56e8913cf4a201fbe287825b095693c2177561079b8161093f565b50600655565b6000918252602082815260408084206001600160a01b0393909316845291905290205460ff1690565b6001600160a01b038082166000908152600160208181526040808420815160a0810183528154909616865292830154918501919091526002820154908401526003015460ff80821660608501526101009091041615801560808401529091906108365750601292915050565b50601292915050565b6001600160a01b038116600090815260016020526040812060030154610100900460ff16806104b05750506001600160a01b0316600090815260036020526040902054151590565b6001600160a01b038082166000908152600160208181526040808420815160a0810183528154909616865292830154918501919091526002820154908401526003015460ff80821660608501526101009091041615801560808401819052919291906108fc575080516001600160a01b031615155b156109115761090a81610a49565b9392505050565b61090a83610b92565b6000828152602081905260409020600101546109358161093f565b6104db83836109de565b6109498133610c49565b50565b600061095883836107a1565b6109d6576000838152602081815260408083206001600160a01b03861684529091529020805460ff1916600117905561098e3390565b6001600160a01b0316826001600160a01b0316847f2f8788117e7eff1d82e926ec794901d17c78024a50270940304540a733656f0d60405160405180910390a45060016104b0565b5060006104b0565b60006109ea83836107a1565b156109d6576000838152602081815260408083206001600160a01b0386168085529252808320805460ff1916905551339286917ff6391f5c32d9c69d2a47ea670b442974b53935d1edc7fd64eb21e047a839171b9190a45060016104b0565b600080600083600001516001600160a01b031663feaf968c6040518163ffffffff1660e01b815260040160a060405180830381865afa158015610a90573d6000803e3d6000fd5b505050506040513d601f19601f82011682018060405250810190610ab49190610e5b565b50935050925050600082131580610ac9575080155b15610ae7576040516318522f2b60e01b815260040160405180910390fd5b6020840151610af68242610ec1565b1115610b15576040516310a8944360e31b815260040160405180910390fd5b600084600001516001600160a01b031663313ce5676040518163ffffffff1660e01b8152600401602060405180830381865afa158015610b59573d6000803e3d6000fd5b505050506040513d601f19601f82011682018060405250810190610b7d9190610ed4565b9050610b898382610c8a565b95945050505050565b6006546001600160a01b038216600090815260056020526040812054909190610bbb9042610ec1565b1115610bda576040516310a8944360e31b815260040160405180910390fd5b6001600160a01b03821660009081526004602052604081205460ff1615610c1c576001600160a01b03831660009081526004602052604090205460ff16610c23565b60025460ff165b6001600160a01b03841660009081526003602052604090205490915061090a9082610c8a565b610c5382826107a1565b610c865760405163e2517d3f60e01b81526001600160a01b03821660048201526024810183905260440160405180910390fd5b5050565b60008160ff16601203610c9e5750816104b0565b60128260ff161115610cd157610cb5601283610ef1565b610cc090600a610fee565b610cca9084610ffd565b90506104b0565b610cdc826012610ef1565b610ce790600a610fee565b61090a908461101f565b80356001600160a01b0381168114610d0857600080fd5b919050565b60ff8116811461094957600080fd5b600080600060608486031215610d3157600080fd5b610d3a84610cf1565b9250602084013591506040840135610d5181610d0d565b809150509250925092565b600060208284031215610d6e57600080fd5b81356001600160e01b03198116811461090a57600080fd5b600060208284031215610d9857600080fd5b61090a82610cf1565b600060208284031215610db357600080fd5b5035919050565b60008060408385031215610dcd57600080fd5b82359150610ddd60208401610cf1565b90509250929050565b600080600080600060a08688031215610dfe57600080fd5b610e0786610cf1565b9450610e1560208701610cf1565b935060408601359250606086013591506080860135610e3381610d0d565b809150509295509295909350565b805169ffffffffffffffffffff81168114610d0857600080fd5b600080600080600060a08688031215610e7357600080fd5b610e7c86610e41565b9450602086015193506040860151925060608601519150610e9f60808701610e41565b90509295509295909350565b634e487b7160e01b600052601160045260246000fd5b818103818111156104b0576104b0610eab565b600060208284031215610ee657600080fd5b815161090a81610d0d565b60ff82811682821603908111156104b0576104b0610eab565b600181815b80851115610f45578160001904821115610f2b57610f2b610eab565b80851615610f3857918102915b93841c9390800290610f0f565b509250929050565b600082610f5c575060016104b0565b81610f69575060006104b0565b8160018114610f7f5760028114610f8957610fa5565b60019150506104b0565b60ff841115610f9a57610f9a610eab565b50506001821b6104b0565b5060208310610133831016604e8410600b8410161715610fc8575081810a6104b0565b610fd28383610f0a565b8060001904821115610fe657610fe6610eab565b029392505050565b600061090a60ff841683610f4d565b60008261101a57634e487b7160e01b600052601260045260246000fd5b500490565b80820281158282048414176104b0576104b0610eab56fea26469706673582212206cb085e3315e66a314a50b70c03dd36432a6d3aae173f66a94c0b0fb36dd085b64736f6c63430008180033",
  "linkReferences": {},
  "deployedLinkReferences": {}
}