{
  "_format": "hh-sol-artifact-1",
  "contractName": "MockTreasury",
  "sourceName": "contracts/mocks/MockTreasury.sol",
  "abi": [
    {
      "inputs": [
        {
          "internalType": "address",
          "name": "_treasuryManager",
          "type": "address"
        },
        {
          "internalType": "address",
          "name": "_strategyManager",
          "type": "address"
        }
      ],
      "stateMutability": "nonpayable",
      "type": "constructor"
    },
    {
      "inputs": [],
      "name": "AccessControlBadConfirmation",
      "type": "error"
    },
    {
      "inputs": [
        {
          "internalType": "address",
          "name": "account",
          "type": "address"
        },
        {
          "internalType": "bytes32",
          "name": "neededRole",
          "type": "bytes32"
        }
      ],
      "name": "AccessControlUnauthorizedAccount",
      "type": "error"
    },
    {
      "inputs": [],
      "name": "InvalidAmount",
      "type": "error"
    },
    {
      "inputs": [],
      "name": "TokenTransferFailed",
      "type": "error"
    },
    {
      "inputs": [],
      "name": "ZeroAddress",
      "type": "error"
    },
    {
      "anonymous": false,
      "inputs": [
        {
          "indexed": true,
          "internalType": "address",
          "name": "token",
          "type": "address"
        },
        {
          "indexed": true,
          "internalType": "address",
          "name": "spender",
          "type": "address"
        },
        {
          "indexed": false,
          "internalType": "uint256",
          "name": "amount",
          "type": "uint256"
        }
      ],
      "name": "ApprovalOptimized",
      "type": "event"
    },
    {
      "anonymous": false,
      "inputs": [
        {
          "indexed": true,
          "internalType": "address",
          "name": "token",
          "type": "address"
        },
        {
          "indexed": true,
          "internalType": "address",
          "name": "recipient",
          "type": "address"
        },
        {
          "indexed": false,
          "internalType": "uint256",
          "name": "amount",
          "type": "uint256"
        }
      ],
      "name": "FundsDistributed",
      "type": "event"
    },
    {
      "anonymous": false,
      "inputs": [
        {
          "indexed": true,
          "internalType": "address",
          "name": "token",
          "type": "address"
        },
        {
          "indexed": false,
          "internalType": "uint256",
          "name": "amount",
          "type": "uint256"
        },
        {
          "indexed": true,
          "internalType": "address",
          "name": "from",
          "type": "address"
        }
      ],
      "name": "FundsReceived",
      "type": "event"
    },
    {
      "anonymous": false,
      "inputs": [
        {
          "indexed": true,
          "internalType": "string",
          "name": "functionName",
          "type": "string"
        },
        {
          "indexed": true,
          "internalType": "address",
          "name": "caller",
          "type": "address"
        },
        {
          "indexed": false,
          "internalType": "bytes",
          "name": "data",
          "type": "bytes"
        }
      ],
      "name": "MockFunctionCalled",
      "type": "event"
    },
    {
      "anonymous": false,
      "inputs": [
        {
          "indexed": true,
          "internalType": "address",
          "name": "caller",
          "type": "address"
        }
      ],
      "name": "MockInitialized",
      "type": "event"
    },
    {
      "anonymous": false,
      "inputs": [],
      "name": "MockStateReset",
      "type": "event"
    },
    {
      "anonymous": false,
      "inputs": [
        {
          "indexed": true,
          "internalType": "bytes32",
          "name": "role",
          "type": "bytes32"
        },
        {
          "indexed": true,
          "internalType": "bytes32",
          "name": "previousAdminRole",
          "type": "bytes32"
        },
        {
          "indexed": true,
          "internalType": "bytes32",
          "name": "newAdminRole",
          "type": "bytes32"
        }
      ],
      "name": "RoleAdminChanged",
      "type": "event"
    },
    {
      "anonymous": false,
      "inputs": [
        {
          "indexed": true,
          "internalType": "bytes32",
          "name": "role",
          "type": "bytes32"
        },
        {
          "indexed": true,
          "internalType": "address",
          "name": "account",
          "type": "address"
        },
        {
          "indexed": true,
          "internalType": "address",
          "name": "sender",
          "type": "address"
        }
      ],
      "name": "RoleGranted",
      "type": "event"
    },
    {
      "anonymous": false,
      "inputs": [
        {
          "indexed": true,
          "internalType": "bytes32",
          "name": "role",
          "type": "bytes32"
        },
        {
          "indexed": true,
          "internalType": "address",
          "name": "account",
          "type": "address"
        },
        {
          "indexed": true,
          "internalType": "address",
          "name": "sender",
          "type": "address"
        }
      ],
      "name": "RoleRevoked",
      "type": "event"
    },
    {
      "anonymous": false,
      "inputs": [
        {
          "indexed": true,
          "internalType": "address",
          "name": "token",
          "type": "address"
        },
        {
          "indexed": false,
          "internalType": "uint256",
          "name": "amount",
          "type": "uint256"
        },
        {
          "indexed": false,
          "internalType": "address",
          "name": "from",
          "type": "address"
        }
      ],
      "name": "TokensReceived",
      "type": "event"
    },
    {
      "anonymous": false,
      "inputs": [
        {
          "indexed": true,
          "internalType": "address",
          "name": "token",
          "type": "address"
        },
        {
          "indexed": false,
          "internalType": "uint256",
          "name": "amount",
          "type": "uint256"
        },
        {
          "indexed": false,
          "internalType": "address",
          "name": "to",
          "type": "address"
        }
      ],
      "name": "TokensWithdrawn",
      "type": "event"
    },
    {
      "inputs": [],
      "name": "ADMIN_ROLE",
      "outputs": [
        {
          "internalType": "bytes32",
          "name": "",
          "type": "bytes32"
        }
      ],
      "stateMutability": "view",
      "type": "function"
    },
    {
      "inputs": [],
      "name": "DEFAULT_ADMIN_ROLE",
      "outputs": [
        {
          "internalType": "bytes32",
          "name": "",
          "type": "bytes32"
        }
      ],
      "stateMutability": "view",
      "type": "function"
    },
    {
      "inputs": [],
      "name": "FEE_PROCESSOR_ROLE",
      "outputs": [
        {
          "internalType": "bytes32",
          "name": "",
          "type": "bytes32"
        }
      ],
      "stateMutability": "view",
      "type": "function"
    },
    {
      "inputs": [
        {
          "internalType": "address[]",
          "name": "tokens",
          "type": "address[]"
        },
        {
          "internalType": "address[]",
          "name": "recipients",
          "type": "address[]"
        },
        {
          "internalType": "uint256[]",
          "name": "amounts",
          "type": "uint256[]"
        }
      ],
      "name": "batchTransfer",
      "outputs": [
        {
          "internalType": "bool[]",
          "name": "results",
          "type": "bool[]"
        }
      ],
      "stateMutability": "nonpayable",
      "type": "function"
    },
    {
      "inputs": [],
      "name": "callCount",
      "outputs": [
        {
          "internalType": "uint256",
          "name": "",
          "type": "uint256"
        }
      ],
      "stateMutability": "view",
      "type": "function"
    },
    {
      "inputs": [
        {
          "internalType": "address",
          "name": "token",
          "type": "address"
        },
        {
          "internalType": "address",
          "name": "recipient",
          "type": "address"
        },
        {
          "internalType": "uint256",
          "name": "amount",
          "type": "uint256"
        }
      ],
      "name": "distributeFunds",
      "outputs": [
        {
          "internalType": "bool",
          "name": "",
          "type": "bool"
        }
      ],
      "stateMutability": "nonpayable",
      "type": "function"
    },
    {
      "inputs": [
        {
          "internalType": "string",
          "name": "",
          "type": "string"
        }
      ],
      "name": "functionCallCount",
      "outputs": [
        {
          "internalType": "uint256",
          "name": "",
          "type": "uint256"
        }
      ],
      "stateMutability": "view",
      "type": "function"
    },
    {
      "inputs": [
        {
          "internalType": "address",
          "name": "token",
          "type": "address"
        }
      ],
      "name": "getBalance",
      "outputs": [
        {
          "internalType": "uint256",
          "name": "",
          "type": "uint256"
        }
      ],
      "stateMutability": "view",
      "type": "function"
    },
    {
      "inputs": [
        {
          "internalType": "string",
          "name": "functionName",
          "type": "string"
        }
      ],
      "name": "getFunctionCallCount",
      "outputs": [
        {
          "internalType": "uint256",
          "name": "",
          "type": "uint256"
        }
      ],
      "stateMutability": "view",
      "type": "function"
    },
    {
      "inputs": [
        {
          "internalType": "string",
          "name": "functionName",
          "type": "string"
        }
      ],
      "name": "getFunctionCallHistory",
      "outputs": [
        {
          "internalType": "uint256",
          "name": "count",
          "type": "uint256"
        },
        {
          "internalType": "address",
          "name": "lastCaller_",
          "type": "address"
        },
        {
          "internalType": "bytes",
          "name": "lastData",
          "type": "bytes"
        }
      ],
      "stateMutability": "view",
      "type": "function"
    },
    {
      "inputs": [
        {
          "internalType": "bytes32",
          "name": "role",
          "type": "bytes32"
        }
      ],
      "name": "getRoleAdmin",
      "outputs": [
        {
          "internalType": "bytes32",
          "name": "",
          "type": "bytes32"
        }
      ],
      "stateMutability": "view",
      "type": "function"
    },
    {
      "inputs": [],
      "name": "getTreasuryConfig",
      "outputs": [
        {
          "internalType": "address",
          "name": "admin",
          "type": "address"
        },
        {
          "internalType": "address",
          "name": "protocolDAO",
          "type": "address"
        }
      ],
      "stateMutability": "view",
      "type": "function"
    },
    {
      "inputs": [
        {
          "internalType": "bytes32",
          "name": "role",
          "type": "bytes32"
        },
        {
          "internalType": "address",
          "name": "account",
          "type": "address"
        }
      ],
      "name": "grantRole",
      "outputs": [],
      "stateMutability": "nonpayable",
      "type": "function"
    },
    {
      "inputs": [
        {
          "internalType": "bytes32",
          "name": "role",
          "type": "bytes32"
        },
        {
          "internalType": "address",
          "name": "account",
          "type": "address"
        }
      ],
      "name": "hasRole",
      "outputs": [
        {
          "internalType": "bool",
          "name": "",
          "type": "bool"
        }
      ],
      "stateMutability": "view",
      "type": "function"
    },
    {
      "inputs": [],
      "name": "initialize",
      "outputs": [],
      "stateMutability": "nonpayable",
      "type": "function"
    },
    {
      "inputs": [],
      "name": "initialized",
      "outputs": [
        {
          "internalType": "bool",
          "name": "",
          "type": "bool"
        }
      ],
      "stateMutability": "view",
      "type": "function"
    },
    {
      "inputs": [
        {
          "internalType": "address",
          "name": "token",
          "type": "address"
        },
        {
          "internalType": "address",
          "name": "spender",
          "type": "address"
        }
      ],
      "name": "isApproved",
      "outputs": [
        {
          "internalType": "bool",
          "name": "",
          "type": "bool"
        }
      ],
      "stateMutability": "view",
      "type": "function"
    },
    {
      "inputs": [
        {
          "internalType": "string",
          "name": "",
          "type": "string"
        }
      ],
      "name": "lastCallData",
      "outputs": [
        {
          "internalType": "bytes",
          "name": "",
          "type": "bytes"
        }
      ],
      "stateMutability": "view",
      "type": "function"
    },
    {
      "inputs": [],
      "name": "lastCaller",
      "outputs": [
        {
          "internalType": "address",
          "name": "",
          "type": "address"
        }
      ],
      "stateMutability": "view",
      "type": "function"
    },
    {
      "inputs": [
        {
          "internalType": "string",
          "name": "",
          "type": "string"
        }
      ],
      "name": "lastCallerByFunction",
      "outputs": [
        {
          "internalType": "address",
          "name": "",
          "type": "address"
        }
      ],
      "stateMutability": "view",
      "type": "function"
    },
    {
      "inputs": [
        {
          "internalType": "address",
          "name": "token",
          "type": "address"
        },
        {
          "internalType": "address",
          "name": "spender",
          "type": "address"
        },
        {
          "internalType": "uint256",
          "name": "amount",
          "type": "uint256"
        }
      ],
      "name": "optimizeApproval",
      "outputs": [
        {
          "internalType": "bool",
          "name": "",
          "type": "bool"
        }
      ],
      "stateMutability": "nonpayable",
      "type": "function"
    },
    {
      "inputs": [
        {
          "internalType": "address",
          "name": "token",
          "type": "address"
        },
        {
          "internalType": "uint256",
          "name": "amount",
          "type": "uint256"
        }
      ],
      "name": "receiveFunds",
      "outputs": [
        {
          "internalType": "bool",
          "name": "",
          "type": "bool"
        }
      ],
      "stateMutability": "nonpayable",
      "type": "function"
    },
    {
      "inputs": [
        {
          "internalType": "address",
          "name": "token",
          "type": "address"
        },
        {
          "internalType": "uint256",
          "name": "amount",
          "type": "uint256"
        }
      ],
      "name": "receiveTokens",
      "outputs": [],
      "stateMutability": "nonpayable",
      "type": "function"
    },
    {
      "inputs": [
        {
          "internalType": "bytes32",
          "name": "role",
          "type": "bytes32"
        },
        {
          "internalType": "address",
          "name": "callerConfirmation",
          "type": "address"
        }
      ],
      "name": "renounceRole",
      "outputs": [],
      "stateMutability": "nonpayable",
      "type": "function"
    },
    {
      "inputs": [],
      "name": "reset",
      "outputs": [],
      "stateMutability": "nonpayable",
      "type": "function"
    },
    {
      "inputs": [
        {
          "internalType": "bytes32",
          "name": "role",
          "type": "bytes32"
        },
        {
          "internalType": "address",
          "name": "account",
          "type": "address"
        }
      ],
      "name": "revokeRole",
      "outputs": [],
      "stateMutability": "nonpayable",
      "type": "function"
    },
    {
      "inputs": [
        {
          "internalType": "address",
          "name": "_strategyManager",
          "type": "address"
        }
      ],
      "name": "setStrategyManager",
      "outputs": [],
      "stateMutability": "nonpayable",
      "type": "function"
    },
    {
      "inputs": [
        {
          "internalType": "address",
          "name": "_treasuryManager",
          "type": "address"
        }
      ],
      "name": "setTreasuryManager",
      "outputs": [],
      "stateMutability": "nonpayable",
      "type": "function"
    },
    {
      "inputs": [],
      "name": "strategyManager",
      "outputs": [
        {
          "internalType": "address",
          "name": "",
          "type": "address"
        }
      ],
      "stateMutability": "view",
      "type": "function"
    },
    {
      "inputs": [
        {
          "internalType": "bytes4",
          "name": "interfaceId",
          "type": "bytes4"
        }
      ],
      "name": "supportsInterface",
      "outputs": [
        {
          "internalType": "bool",
          "name": "",
          "type": "bool"
        }
      ],
      "stateMutability": "view",
      "type": "function"
    },
    {
      "inputs": [],
      "name": "treasuryManager",
      "outputs": [
        {
          "internalType": "address",
          "name": "",
          "type": "address"
        }
      ],
      "stateMutability": "view",
      "type": "function"
    },
    {
      "inputs": [
        {
          "internalType": "string",
          "name": "functionName",
          "type": "string"
        }
      ],
      "name": "wasFunctionCalled",
      "outputs": [
        {
          "internalType": "bool",
          "name": "",
          "type": "bool"
        }
      ],
      "stateMutability": "view",
      "type": "function"
    },
    {
      "inputs": [
        {
          "internalType": "address",
          "name": "token",
          "type": "address"
        },
        {
          "internalType": "uint256",
          "name": "amount",
          "type": "uint256"
        },
        {
          "internalType": "address",
          "name": "to",
          "type": "address"
        }
      ],
      "name": "withdrawTokens",
      "outputs": [],
      "stateMutability": "nonpayable",
      "type": "function"
    }
  ],
  "bytecode": "0x60806040523480156200001157600080fd5b5060405162001c9938038062001c998339810160408190526200003491620001eb565b620000416000336200011f565b506001600160a01b03821615806200006057506001600160a01b038116155b156200007f5760405163d92e233d60e01b815260040160405180910390fd5b600680546001600160a01b038085166001600160a01b0319928316179092556007805492841692909116919091179055620000bc6000336200011f565b50620000e97fa49807205ce4d355092ef5a8a18f56e8913cf4a201fbe287825b095693c21775336200011f565b50620001167f55d91c3b2b4ed72a9ae5315547e6428f5a275a69ed647b795c2060fb4f918d6e336200011f565b50505062000223565b6000828152602081815260408083206001600160a01b038516845290915281205460ff16620001c4576000838152602081815260408083206001600160a01b03861684529091529020805460ff191660011790556200017b3390565b6001600160a01b0316826001600160a01b0316847f2f8788117e7eff1d82e926ec794901d17c78024a50270940304540a733656f0d60405160405180910390a4506001620001c8565b5060005b92915050565b80516001600160a01b0381168114620001e657600080fd5b919050565b60008060408385031215620001ff57600080fd5b6200020a83620001ce565b91506200021a60208401620001ce565b90509250929050565b611a6680620002336000396000f3fe608060405234801561001057600080fd5b50600436106101fb5760003560e01c80635c9666461161011a578063ae126767116100ad578063d826f88f1161007c578063d826f88f146104af578063dfdbdd50146104b7578063e176b35e146104d7578063f8b2cb4f146104ea578063fe47a9f21461050657600080fd5b8063ae1267671461044e578063c054c6ce14610462578063c3eb262f14610475578063d547741f1461049c57600080fd5b806391d14854116100e957806391d148541461040a5780639bc5c5091461041d578063a217fddf14610430578063a389783e1461043857600080fd5b80635c966646146103c7578063740227d1146103da57806375b238fc146103ed5780638129fc1c1461040257600080fd5b806335729130116101925780633ca3910c116101615780633ca3910c1461035e5780633cea70d914610380578063422b010b146103935780634b28f9a2146103be57600080fd5b8063357291301461031257806336568abe1461032557806339b70e38146103385780633bb156881461034b57600080fd5b80631df86bc6116101ce5780631df86bc6146102765780632113522a146102c2578063248a9ca3146102da5780632f2ff15d146102fd57600080fd5b806301ffc9a71461020057806313d06a4c14610228578063158ef93e146102485780631a82a64314610255575b600080fd5b61021361020e36600461139f565b610519565b60405190151581526020015b60405180910390f35b61023b61023636600461141c565b610550565b60405161021f91906114b6565b6001546102139060ff1681565b610268610263366004611512565b61074d565b60405190815260200161021f565b6102aa610284366004611512565b80516020818301810180516005825292820191909301209152546001600160a01b031681565b6040516001600160a01b03909116815260200161021f565b6001546102aa9061010090046001600160a01b031681565b6102686102e83660046115c3565b60009081526020819052604090206001015490565b61031061030b3660046115f8565b610775565b005b610310610320366004611624565b6107a0565b6103106103333660046115f8565b610945565b6007546102aa906001600160a01b031681565b61021361035936600461164e565b61097d565b61037161036c366004611512565b6109e9565b60405161021f939291906116da565b6006546102aa906001600160a01b031681565b6102686103a1366004611512565b805160208183018101805160038252928201919093012091525481565b61026860025481565b6103106103d536600461170d565b610aec565b6102136103e8366004611624565b610b9c565b610268600080516020611a1183398151915281565b610310610c39565b6102136104183660046115f8565b610cc5565b61031061042b366004611728565b610cee565b610268600081565b610213610446366004611764565b600192915050565b60408051308152600060208201520161021f565b610213610470366004611512565b610e9a565b6102687f55d91c3b2b4ed72a9ae5315547e6428f5a275a69ed647b795c2060fb4f918d6e81565b6103106104aa3660046115f8565b610ec4565b610310610ee9565b6104ca6104c5366004611512565b610f35565b60405161021f919061178e565b6102136104e536600461164e565b610fda565b6102686104f836600461170d565b50683635c9adc5dea0000090565b61031061051436600461170d565b61108a565b60006001600160e01b03198216637965db0b60e01b148061054a57506301ffc9a760e01b6001600160e01b03198316145b92915050565b60606105aa6040518060400160405280600d81526020016c3130ba31b42a3930b739b332b960991b81525086868a8a8888604051602001610596969594939291906117e8565b60405160208183030381529060405261113a565b83861480156105b857508382145b6106015760405162461bcd60e51b8152602060048201526015602482015274082e4e4c2f240d8cadccee8d040dad2e6dac2e8c6d605b1b60448201526064015b60405180910390fd5b60005b868110156106c55787878281811061061e5761061e61184b565b9050602002016020810190610633919061170d565b6001600160a01b03167f892212fefec48d5ab9985161b9e69f149494b9970bd1981c3dbf712d63f0d59c85858481811061066f5761066f61184b565b905060200201358888858181106106885761068861184b565b905060200201602081019061069d919061170d565b604080519283526001600160a01b0390911660208301520160405180910390a2600101610604565b508567ffffffffffffffff8111156106df576106df6114fc565b604051908082528060200260200182016040528015610708578160200160208202803683370190505b50905060005b8681101561074257600182828151811061072a5761072a61184b565b9115156020928302919091019091015260010161070e565b509695505050505050565b600060038260405161075f9190611861565b9081526020016040518091039020549050919050565b60008281526020819052604090206001015461079081611258565b61079a8383611265565b50505050565b7f55d91c3b2b4ed72a9ae5315547e6428f5a275a69ed647b795c2060fb4f918d6e6107ca81611258565b61081a6040518060400160405280600d81526020016c72656365697665546f6b656e7360981b81525084846040516020016105969291906001600160a01b03929092168252602082015260400190565b6001600160a01b0383166108415760405163d92e233d60e01b815260040160405180910390fd5b816000036108625760405163162908e360e11b815260040160405180910390fd5b6040516323b872dd60e01b8152336004820152306024820152604481018390526000906001600160a01b038516906323b872dd906064016020604051808303816000875af11580156108b8573d6000803e3d6000fd5b505050506040513d601f19601f820116820180604052508101906108dc919061187d565b9050806108fc5760405163022e258160e11b815260040160405180910390fd5b604080518481523360208201526001600160a01b038616917fbb0d4825eab33d0c35a773ca528155086ec67cbd01419492cf12ae0eba7190cd910160405180910390a250505050565b6001600160a01b038116331461096e5760405163334bd91960e11b815260040160405180910390fd5b61097882826112f7565b505050565b60006109df6040518060400160405280601081526020016f1bdc1d1a5b5a5e99505c1c1c9bdd985b60821b815250858585604051602001610596939291906001600160a01b039384168152919092166020820152604081019190915260600190565b5060019392505050565b60008060606003846040516109fe9190611861565b908152602001604051809103902054600585604051610a1d9190611861565b908152604051908190036020018120546001600160a01b031690600490610a45908890611861565b9081526020016040518091039020808054610a5f9061189f565b80601f0160208091040260200160405190810160405280929190818152602001828054610a8b9061189f565b8015610ad85780601f10610aad57610100808354040283529160200191610ad8565b820191906000526020600020905b815481529060010190602001808311610abb57829003601f168201915b505050505090509250925092509193909250565b600080516020611a11833981519152610b0481611258565b610b526040518060400160405280601281526020017139b2ba29ba3930ba32b3bca6b0b730b3b2b960711b8152508360405160200161059691906001600160a01b0391909116815260200190565b6001600160a01b038216610b795760405163d92e233d60e01b815260040160405180910390fd5b50600780546001600160a01b0319166001600160a01b0392909216919091179055565b6000610bed6040518060400160405280600c81526020016b7265636569766546756e647360a01b81525084846040516020016105969291906001600160a01b03929092168252602082015260400190565b604080518381523360208201526001600160a01b038516917fbb0d4825eab33d0c35a773ca528155086ec67cbd01419492cf12ae0eba7190cd910160405180910390a250600192915050565b60015460ff1615610c8c5760405162461bcd60e51b815260206004820152601d60248201527f426173654d6f636b3a20616c726561647920696e697469616c697a656400000060448201526064016105f8565b6001805460ff19168117905560405133907f30f7074e868351008998491171b433e7342f255e986fef03e5eec84f01786f0190600090a2565b6000918252602082815260408084206001600160a01b0393909316845291905290205460ff1690565b600080516020611a11833981519152610d0681611258565b604080518082018252600e81526d7769746864726177546f6b656e7360901b60208083019190915282516001600160a01b038089169282019290925292830186905284166060830152610d5b91608001610596565b6001600160a01b0384161580610d7857506001600160a01b038216155b15610d965760405163d92e233d60e01b815260040160405180910390fd5b82600003610db75760405163162908e360e11b815260040160405180910390fd5b60405163a9059cbb60e01b81526001600160a01b038381166004830152602482018590526000919086169063a9059cbb906044016020604051808303816000875af1158015610e0a573d6000803e3d6000fd5b505050506040513d601f19601f82011682018060405250810190610e2e919061187d565b905080610e4e5760405163022e258160e11b815260040160405180910390fd5b604080518581526001600160a01b0385811660208301528716917f892212fefec48d5ab9985161b9e69f149494b9970bd1981c3dbf712d63f0d59c910160405180910390a25050505050565b600080600383604051610ead9190611861565b908152602001604051809103902054119050919050565b600082815260208190526040902060010154610edf81611258565b61079a83836112f7565b6000610ef481611258565b600180546001600160a81b0319169055600060028190556040517f47f78a7a0acc7fff3657157dc253c5e6a68550995cc6f47bc2bd707ec67370fb9190a150565b805160208183018101805160048252928201919093012091528054610f599061189f565b80601f0160208091040260200160405190810160405280929190818152602001828054610f859061189f565b8015610fd25780601f10610fa757610100808354040283529160200191610fd2565b820191906000526020600020905b815481529060010190602001808311610fb557829003601f168201915b505050505081565b600061103b6040518060400160405280600f81526020016e6469737472696275746546756e647360881b815250858585604051602001610596939291906001600160a01b039384168152919092166020820152604081019190915260600190565b604080518381526001600160a01b0385811660208301528616917f892212fefec48d5ab9985161b9e69f149494b9970bd1981c3dbf712d63f0d59c910160405180910390a25060019392505050565b600080516020611a118339815191526110a281611258565b6110f06040518060400160405280601281526020017139b2ba2a3932b0b9bab93ca6b0b730b3b2b960711b8152508360405160200161059691906001600160a01b0391909116815260200190565b6001600160a01b0382166111175760405163d92e233d60e01b815260040160405180910390fd5b50600680546001600160a01b0319166001600160a01b0392909216919091179055565b60038260405161114a9190611861565b9081526040519081900360200190208054906000611167836118d9565b91905055508060048360405161117d9190611861565b908152602001604051809103902090816111979190611950565b50336005836040516111a99190611861565b90815260405160209181900391909101902080546001600160a01b0319166001600160a01b039290921691909117905560018054610100600160a81b031916610100330217905560028054906000611200836118d9565b90915550506040513390611215908490611861565b60405180910390207f16b892c3de2f4b54dc114eff5c76ead156bac210353ee82615752957e1317df18360405161124c919061178e565b60405180910390a35050565b6112628133611362565b50565b60006112718383610cc5565b6112ef576000838152602081815260408083206001600160a01b03861684529091529020805460ff191660011790556112a73390565b6001600160a01b0316826001600160a01b0316847f2f8788117e7eff1d82e926ec794901d17c78024a50270940304540a733656f0d60405160405180910390a450600161054a565b50600061054a565b60006113038383610cc5565b156112ef576000838152602081815260408083206001600160a01b0386168085529252808320805460ff1916905551339286917ff6391f5c32d9c69d2a47ea670b442974b53935d1edc7fd64eb21e047a839171b9190a450600161054a565b61136c8282610cc5565b61139b5760405163e2517d3f60e01b81526001600160a01b0382166004820152602481018390526044016105f8565b5050565b6000602082840312156113b157600080fd5b81356001600160e01b0319811681146113c957600080fd5b9392505050565b60008083601f8401126113e257600080fd5b50813567ffffffffffffffff8111156113fa57600080fd5b6020830191508360208260051b850101111561141557600080fd5b9250929050565b6000806000806000806060878903121561143557600080fd5b863567ffffffffffffffff8082111561144d57600080fd5b6114598a838b016113d0565b9098509650602089013591508082111561147257600080fd5b61147e8a838b016113d0565b9096509450604089013591508082111561149757600080fd5b506114a489828a016113d0565b979a9699509497509295939492505050565b6020808252825182820181905260009190848201906040850190845b818110156114f05783511515835292840192918401916001016114d2565b50909695505050505050565b634e487b7160e01b600052604160045260246000fd5b60006020828403121561152457600080fd5b813567ffffffffffffffff8082111561153c57600080fd5b818401915084601f83011261155057600080fd5b813581811115611562576115626114fc565b604051601f8201601f19908116603f0116810190838211818310171561158a5761158a6114fc565b816040528281528760208487010111156115a357600080fd5b826020860160208301376000928101602001929092525095945050505050565b6000602082840312156115d557600080fd5b5035919050565b80356001600160a01b03811681146115f357600080fd5b919050565b6000806040838503121561160b57600080fd5b8235915061161b602084016115dc565b90509250929050565b6000806040838503121561163757600080fd5b611640836115dc565b946020939093013593505050565b60008060006060848603121561166357600080fd5b61166c846115dc565b925061167a602085016115dc565b9150604084013590509250925092565b60005b838110156116a557818101518382015260200161168d565b50506000910152565b600081518084526116c681602086016020860161168a565b601f01601f19169290920160200192915050565b8381526001600160a01b0383166020820152606060408201819052600090611704908301846116ae565b95945050505050565b60006020828403121561171f57600080fd5b6113c9826115dc565b60008060006060848603121561173d57600080fd5b611746846115dc565b92506020840135915061175b604085016115dc565b90509250925092565b6000806040838503121561177757600080fd5b611780836115dc565b915061161b602084016115dc565b6020815260006113c960208301846116ae565b8183526000602080850194508260005b858110156117dd576001600160a01b036117ca836115dc565b16875295820195908201906001016117b1565b509495945050505050565b6060815260006117fc60608301888a6117a1565b828103602084015261180f8187896117a1565b838103604085015284815290506001600160fb1b0384111561183057600080fd5b8360051b808660208401370160200198975050505050505050565b634e487b7160e01b600052603260045260246000fd5b6000825161187381846020870161168a565b9190910192915050565b60006020828403121561188f57600080fd5b815180151581146113c957600080fd5b600181811c908216806118b357607f821691505b6020821081036118d357634e487b7160e01b600052602260045260246000fd5b50919050565b6000600182016118f957634e487b7160e01b600052601160045260246000fd5b5060010190565b601f821115610978576000816000526020600020601f850160051c810160208610156119295750805b601f850160051c820191505b8181101561194857828155600101611935565b505050505050565b815167ffffffffffffffff81111561196a5761196a6114fc565b61197e81611978845461189f565b84611900565b602080601f8311600181146119b3576000841561199b5750858301515b600019600386901b1c1916600185901b178555611948565b600085815260208120601f198616915b828110156119e2578886015182559484019460019091019084016119c3565b5085821015611a005787850151600019600388901b60f8161c191681555b5050505050600190811b0190555056fea49807205ce4d355092ef5a8a18f56e8913cf4a201fbe287825b095693c21775a264697066735822122076dfe2a6456d893a7b55a1e9131998d07ed6de1561d9d42345ce9a0d6e40576d64736f6c63430008180033",
  "linkReferences": {},
  "deployedLinkReferences": {}
}