{
  "_format": "hh-sol-artifact-1",
  "contractName": "MockGovernanceRewardsConsumer",
  "sourceName": "contracts/mocks/MockGovernanceRewardsConsumer.sol",
  "abi": [
    {
      "inputs": [
        {
          "internalType": "address",
          "name": "_governanceRewards",
          "type": "address"
        }
      ],
      "stateMutability": "nonpayable",
      "type": "constructor"
    },
    {
      "inputs": [],
      "name": "AccessControlBadConfirmation",
      "type": "error"
    },
    {
      "inputs": [
        {
          "internalType": "address",
          "name": "account",
          "type": "address"
        },
        {
          "internalType": "bytes32",
          "name": "neededRole",
          "type": "bytes32"
        }
      ],
      "name": "AccessControlUnauthorizedAccount",
      "type": "error"
    },
    {
      "anonymous": false,
      "inputs": [
        {
          "indexed": true,
          "internalType": "string",
          "name": "functionName",
          "type": "string"
        },
        {
          "indexed": true,
          "internalType": "address",
          "name": "caller",
          "type": "address"
        },
        {
          "indexed": false,
          "internalType": "bytes",
          "name": "data",
          "type": "bytes"
        }
      ],
      "name": "MockFunctionCalled",
      "type": "event"
    },
    {
      "anonymous": false,
      "inputs": [
        {
          "indexed": true,
          "internalType": "address",
          "name": "caller",
          "type": "address"
        }
      ],
      "name": "MockInitialized",
      "type": "event"
    },
    {
      "anonymous": false,
      "inputs": [],
      "name": "MockStateReset",
      "type": "event"
    },
    {
      "anonymous": false,
      "inputs": [
        {
          "indexed": false,
          "internalType": "address",
          "name": "user",
          "type": "address"
        },
        {
          "indexed": false,
          "internalType": "uint256",
          "name": "amount",
          "type": "uint256"
        }
      ],
      "name": "RewardsClaimed",
      "type": "event"
    },
    {
      "anonymous": false,
      "inputs": [
        {
          "indexed": false,
          "internalType": "address[]",
          "name": "recipients",
          "type": "address[]"
        },
        {
          "indexed": false,
          "internalType": "uint256[]",
          "name": "amounts",
          "type": "uint256[]"
        }
      ],
      "name": "RewardsDistributed",
      "type": "event"
    },
    {
      "anonymous": false,
      "inputs": [
        {
          "indexed": true,
          "internalType": "bytes32",
          "name": "role",
          "type": "bytes32"
        },
        {
          "indexed": true,
          "internalType": "bytes32",
          "name": "previousAdminRole",
          "type": "bytes32"
        },
        {
          "indexed": true,
          "internalType": "bytes32",
          "name": "newAdminRole",
          "type": "bytes32"
        }
      ],
      "name": "RoleAdminChanged",
      "type": "event"
    },
    {
      "anonymous": false,
      "inputs": [
        {
          "indexed": true,
          "internalType": "bytes32",
          "name": "role",
          "type": "bytes32"
        },
        {
          "indexed": true,
          "internalType": "address",
          "name": "account",
          "type": "address"
        },
        {
          "indexed": true,
          "internalType": "address",
          "name": "sender",
          "type": "address"
        }
      ],
      "name": "RoleGranted",
      "type": "event"
    },
    {
      "anonymous": false,
      "inputs": [
        {
          "indexed": true,
          "internalType": "bytes32",
          "name": "role",
          "type": "bytes32"
        },
        {
          "indexed": true,
          "internalType": "address",
          "name": "account",
          "type": "address"
        },
        {
          "indexed": true,
          "internalType": "address",
          "name": "sender",
          "type": "address"
        }
      ],
      "name": "RoleRevoked",
      "type": "event"
    },
    {
      "inputs": [],
      "name": "DEFAULT_ADMIN_ROLE",
      "outputs": [
        {
          "internalType": "bytes32",
          "name": "",
          "type": "bytes32"
        }
      ],
      "stateMutability": "view",
      "type": "function"
    },
    {
      "inputs": [],
      "name": "callCount",
      "outputs": [
        {
          "internalType": "uint256",
          "name": "",
          "type": "uint256"
        }
      ],
      "stateMutability": "view",
      "type": "function"
    },
    {
      "inputs": [
        {
          "internalType": "address",
          "name": "user",
          "type": "address"
        }
      ],
      "name": "claimRewardsForUser",
      "outputs": [],
      "stateMutability": "nonpayable",
      "type": "function"
    },
    {
      "inputs": [
        {
          "internalType": "address[]",
          "name": "recipients",
          "type": "address[]"
        },
        {
          "internalType": "uint256[]",
          "name": "amounts",
          "type": "uint256[]"
        }
      ],
      "name": "distributeRewardsToParticipants",
      "outputs": [],
      "stateMutability": "nonpayable",
      "type": "function"
    },
    {
      "inputs": [
        {
          "internalType": "string",
          "name": "",
          "type": "string"
        }
      ],
      "name": "functionCallCount",
      "outputs": [
        {
          "internalType": "uint256",
          "name": "",
          "type": "uint256"
        }
      ],
      "stateMutability": "view",
      "type": "function"
    },
    {
      "inputs": [
        {
          "internalType": "string",
          "name": "functionName",
          "type": "string"
        }
      ],
      "name": "getFunctionCallCount",
      "outputs": [
        {
          "internalType": "uint256",
          "name": "",
          "type": "uint256"
        }
      ],
      "stateMutability": "view",
      "type": "function"
    },
    {
      "inputs": [
        {
          "internalType": "string",
          "name": "functionName",
          "type": "string"
        }
      ],
      "name": "getFunctionCallHistory",
      "outputs": [
        {
          "internalType": "uint256",
          "name": "count",
          "type": "uint256"
        },
        {
          "internalType": "address",
          "name": "lastCaller_",
          "type": "address"
        },
        {
          "internalType": "bytes",
          "name": "lastData",
          "type": "bytes"
        }
      ],
      "stateMutability": "view",
      "type": "function"
    },
    {
      "inputs": [
        {
          "internalType": "bytes32",
          "name": "role",
          "type": "bytes32"
        }
      ],
      "name": "getRoleAdmin",
      "outputs": [
        {
          "internalType": "bytes32",
          "name": "",
          "type": "bytes32"
        }
      ],
      "stateMutability": "view",
      "type": "function"
    },
    {
      "inputs": [],
      "name": "governanceRewards",
      "outputs": [
        {
          "internalType": "contract IGovernanceRewards",
          "name": "",
          "type": "address"
        }
      ],
      "stateMutability": "view",
      "type": "function"
    },
    {
      "inputs": [
        {
          "internalType": "bytes32",
          "name": "role",
          "type": "bytes32"
        },
        {
          "internalType": "address",
          "name": "account",
          "type": "address"
        }
      ],
      "name": "grantRole",
      "outputs": [],
      "stateMutability": "nonpayable",
      "type": "function"
    },
    {
      "inputs": [
        {
          "internalType": "bytes32",
          "name": "role",
          "type": "bytes32"
        },
        {
          "internalType": "address",
          "name": "account",
          "type": "address"
        }
      ],
      "name": "hasRole",
      "outputs": [
        {
          "internalType": "bool",
          "name": "",
          "type": "bool"
        }
      ],
      "stateMutability": "view",
      "type": "function"
    },
    {
      "inputs": [],
      "name": "initialize",
      "outputs": [],
      "stateMutability": "nonpayable",
      "type": "function"
    },
    {
      "inputs": [],
      "name": "initialized",
      "outputs": [
        {
          "internalType": "bool",
          "name": "",
          "type": "bool"
        }
      ],
      "stateMutability": "view",
      "type": "function"
    },
    {
      "inputs": [
        {
          "internalType": "string",
          "name": "",
          "type": "string"
        }
      ],
      "name": "lastCallData",
      "outputs": [
        {
          "internalType": "bytes",
          "name": "",
          "type": "bytes"
        }
      ],
      "stateMutability": "view",
      "type": "function"
    },
    {
      "inputs": [],
      "name": "lastCaller",
      "outputs": [
        {
          "internalType": "address",
          "name": "",
          "type": "address"
        }
      ],
      "stateMutability": "view",
      "type": "function"
    },
    {
      "inputs": [
        {
          "internalType": "string",
          "name": "",
          "type": "string"
        }
      ],
      "name": "lastCallerByFunction",
      "outputs": [
        {
          "internalType": "address",
          "name": "",
          "type": "address"
        }
      ],
      "stateMutability": "view",
      "type": "function"
    },
    {
      "inputs": [
        {
          "internalType": "bytes32",
          "name": "role",
          "type": "bytes32"
        },
        {
          "internalType": "address",
          "name": "callerConfirmation",
          "type": "address"
        }
      ],
      "name": "renounceRole",
      "outputs": [],
      "stateMutability": "nonpayable",
      "type": "function"
    },
    {
      "inputs": [],
      "name": "reset",
      "outputs": [],
      "stateMutability": "nonpayable",
      "type": "function"
    },
    {
      "inputs": [
        {
          "internalType": "bytes32",
          "name": "role",
          "type": "bytes32"
        },
        {
          "internalType": "address",
          "name": "account",
          "type": "address"
        }
      ],
      "name": "revokeRole",
      "outputs": [],
      "stateMutability": "nonpayable",
      "type": "function"
    },
    {
      "inputs": [
        {
          "internalType": "bytes4",
          "name": "interfaceId",
          "type": "bytes4"
        }
      ],
      "name": "supportsInterface",
      "outputs": [
        {
          "internalType": "bool",
          "name": "",
          "type": "bool"
        }
      ],
      "stateMutability": "view",
      "type": "function"
    },
    {
      "inputs": [
        {
          "internalType": "address",
          "name": "_newGovernanceRewards",
          "type": "address"
        }
      ],
      "name": "updateGovernanceRewards",
      "outputs": [],
      "stateMutability": "nonpayable",
      "type": "function"
    },
    {
      "inputs": [
        {
          "internalType": "string",
          "name": "functionName",
          "type": "string"
        }
      ],
      "name": "wasFunctionCalled",
      "outputs": [
        {
          "internalType": "bool",
          "name": "",
          "type": "bool"
        }
      ],
      "stateMutability": "view",
      "type": "function"
    }
  ],
  "bytecode": "0x60806040523480156200001157600080fd5b506040516200186438038062001864833981016040819052620000349162000117565b6200004160003362000068565b50600680546001600160a01b0319166001600160a01b039290921691909117905562000149565b6000828152602081815260408083206001600160a01b038516845290915281205460ff166200010d576000838152602081815260408083206001600160a01b03861684529091529020805460ff19166001179055620000c43390565b6001600160a01b0316826001600160a01b0316847f2f8788117e7eff1d82e926ec794901d17c78024a50270940304540a733656f0d60405160405180910390a450600162000111565b5060005b92915050565b6000602082840312156200012a57600080fd5b81516001600160a01b03811681146200014257600080fd5b9392505050565b61170b80620001596000396000f3fe608060405234801561001057600080fd5b50600436106101425760003560e01c80634b28f9a2116100b8578063a217fddf1161007c578063a217fddf146102f6578063c054c6ce146102fe578063c29be43314610311578063d547741f14610324578063d826f88f14610337578063dfdbdd501461033f57600080fd5b80634b28f9a2146102ac5780636823f093146102b5578063797aeb99146102c85780638129fc1c146102db57806391d14854146102e357600080fd5b8063248a9ca31161010a578063248a9ca3146102015780632f2ff15d1461022457806336568abe1461023957806337619e761461024c5780633ca3910c1461025f578063422b010b1461028157600080fd5b806301ffc9a714610147578063158ef93e1461016f5780631a82a6431461017c5780631df86bc61461019d5780632113522a146101e9575b600080fd5b61015a610155366004610fd3565b61035f565b60405190151581526020015b60405180910390f35b60015461015a9060ff1681565b61018f61018a366004611047565b610396565b604051908152602001610166565b6101d16101ab366004611047565b80516020818301810180516005825292820191909301209152546001600160a01b031681565b6040516001600160a01b039091168152602001610166565b6001546101d19061010090046001600160a01b031681565b61018f61020f3660046110e0565b60009081526020819052604090206001015490565b61023761023236600461110e565b6103be565b005b61023761024736600461110e565b6103e9565b61023761025a36600461113e565b610421565b61027261026d366004611047565b6107d0565b604051610166939291906111ab565b61018f61028f366004611047565b805160208183018101805160038252928201919093012091525481565b61018f60025481565b6102376102c336600461113e565b6108d3565b6006546101d1906001600160a01b031681565b61023761094e565b61015a6102f136600461110e565b6109da565b61018f600081565b61015a61030c366004611047565b610a03565b61023761031f36600461122a565b610a2d565b61023761033236600461110e565b610c5c565b610237610c81565b61035261034d366004611047565b610ccd565b6040516101669190611296565b60006001600160e01b03198216637965db0b60e01b148061039057506301ffc9a760e01b6001600160e01b03198316145b92915050565b60006003826040516103a891906112a9565b9081526020016040518091039020549050919050565b6000828152602081905260409020600101546103d981610d72565b6103e38383610d7f565b50505050565b6001600160a01b03811633146104125760405163334bd91960e11b815260040160405180910390fd5b61041c8282610e11565b505050565b6104846040518060400160405280601381526020017231b630b4b6a932bbb0b93239a337b92ab9b2b960691b8152508260405160200161047091906001600160a01b0391909116815260200190565b604051602081830303815290604052610e7c565b6006546040805163f7c618c160e01b815290516000926001600160a01b03169163f7c618c19160048083019260209291908290030181865afa1580156104ce573d6000803e3d6000fd5b505050506040513d601f19601f820116820180604052508101906104f291906112c5565b6040516370a0823160e01b81526001600160a01b03848116600483015291909116906370a0823190602401602060405180830381865afa15801561053a573d6000803e3d6000fd5b505050506040513d601f19601f8201168201806040525081019061055e91906112e2565b9050600660009054906101000a90046001600160a01b03166001600160a01b031663372500ab6040518163ffffffff1660e01b81526004016020604051808303816000875af19250505080156105d1575060408051601f3d908101601f191682019092526105ce918101906112e2565b60015b61069a576105dd6112fb565b806308c379a00361063c57506105f1611317565b806105fc575061063e565b8060405160200161060d91906113a1565b60408051601f198184030181529082905262461bcd60e51b825261063391600401611296565b60405180910390fd5b505b60405162461bcd60e51b815260206004820152602b60248201527f436c61696d526577617264732063616c6c206661696c6564207769746820756e60448201526a35b737bbb71032b93937b960a91b6064820152608401610633565b506006546040805163f7c618c160e01b815290516000926001600160a01b03169163f7c618c19160048083019260209291908290030181865afa1580156106e5573d6000803e3d6000fd5b505050506040513d601f19601f8201168201806040525081019061070991906112c5565b6040516370a0823160e01b81526001600160a01b03858116600483015291909116906370a0823190602401602060405180830381865afa158015610751573d6000803e3d6000fd5b505050506040513d601f19601f8201168201806040525081019061077591906112e2565b9050600061078383836113fc565b604080516001600160a01b0387168152602081018390529192507ffc30cddea38e2bf4d6ea7d3f9ed3b6ad7f176419f4963bd81318067a4aee73fe91015b60405180910390a150505b5050565b60008060606003846040516107e591906112a9565b90815260200160405180910390205460058560405161080491906112a9565b908152604051908190036020018120546001600160a01b03169060049061082c9088906112a9565b90815260200160405180910390208080546108469061140f565b80601f01602080910402602001604051908101604052809291908181526020018280546108729061140f565b80156108bf5780601f10610894576101008083540402835291602001916108bf565b820191906000526020600020905b8154815290600101906020018083116108a257829003601f168201915b505050505090509250925092509193909250565b61092c6040518060400160405280601781526020017f757064617465476f7665726e616e6365526577617264730000000000000000008152508260405160200161047091906001600160a01b0391909116815260200190565b600680546001600160a01b0319166001600160a01b0392909216919091179055565b60015460ff16156109a15760405162461bcd60e51b815260206004820152601d60248201527f426173654d6f636b3a20616c726561647920696e697469616c697a65640000006044820152606401610633565b6001805460ff19168117905560405133907f30f7074e868351008998491171b433e7342f255e986fef03e5eec84f01786f0190600090a2565b6000918252602082815260408084206001600160a01b0393909316845291905290205460ff1690565b600080600383604051610a1691906112a9565b908152602001604051809103902054119050919050565b610a7d6040518060400160405280601f81526020017f6469737472696275746552657761726473546f5061727469636970616e7473008152508585858560405160200161047094939291906114c4565b60065460405163143ba4f360e01b81526001600160a01b039091169063143ba4f390610ab39087908790879087906004016114c4565b600060405180830381600087803b158015610acd57600080fd5b505af1925050508015610ade575060015b610c275760065460405163e6d98d3560e01b81526001600160a01b039091169063e6d98d3590610b1b9060019088908890889088906004016114f6565b600060405180830381600087803b158015610b3557600080fd5b505af1925050508015610b46575060015b610be557610b526112fb565b806308c379a003610b825750610b66611317565b80610b715750610b84565b8060405160200161060d9190611567565b505b60405162461bcd60e51b815260206004820152603060248201527f476f7665726e616e6365526577617264732063616c6c206661696c656420776960448201526f3a34103ab735b737bbb71032b93937b960811b6064820152608401610633565b7fe69d325558610ba73c441901deb46d7f251108348dc5dc9447e8866774c12edc84848484604051610c1a94939291906114c4565b60405180910390a16103e3565b7fe69d325558610ba73c441901deb46d7f251108348dc5dc9447e8866774c12edc848484846040516107c194939291906114c4565b600082815260208190526040902060010154610c7781610d72565b6103e38383610e11565b6000610c8c81610d72565b600180546001600160a81b0319169055600060028190556040517f47f78a7a0acc7fff3657157dc253c5e6a68550995cc6f47bc2bd707ec67370fb9190a150565b805160208183018101805160048252928201919093012091528054610cf19061140f565b80601f0160208091040260200160405190810160405280929190818152602001828054610d1d9061140f565b8015610d6a5780601f10610d3f57610100808354040283529160200191610d6a565b820191906000526020600020905b815481529060010190602001808311610d4d57829003601f168201915b505050505081565b610d7c8133610f9a565b50565b6000610d8b83836109da565b610e09576000838152602081815260408083206001600160a01b03861684529091529020805460ff19166001179055610dc13390565b6001600160a01b0316826001600160a01b0316847f2f8788117e7eff1d82e926ec794901d17c78024a50270940304540a733656f0d60405160405180910390a4506001610390565b506000610390565b6000610e1d83836109da565b15610e09576000838152602081815260408083206001600160a01b0386168085529252808320805460ff1916905551339286917ff6391f5c32d9c69d2a47ea670b442974b53935d1edc7fd64eb21e047a839171b9190a4506001610390565b600382604051610e8c91906112a9565b9081526040519081900360200190208054906000610ea9836115ac565b919050555080600483604051610ebf91906112a9565b90815260200160405180910390209081610ed99190611615565b5033600583604051610eeb91906112a9565b90815260405160209181900391909101902080546001600160a01b0319166001600160a01b039290921691909117905560018054610100600160a81b031916610100330217905560028054906000610f42836115ac565b90915550506040513390610f579084906112a9565b60405180910390207f16b892c3de2f4b54dc114eff5c76ead156bac210353ee82615752957e1317df183604051610f8e9190611296565b60405180910390a35050565b610fa482826109da565b6107cc5760405163e2517d3f60e01b81526001600160a01b038216600482015260248101839052604401610633565b600060208284031215610fe557600080fd5b81356001600160e01b031981168114610ffd57600080fd5b9392505050565b634e487b7160e01b600052604160045260246000fd5b601f8201601f1916810167ffffffffffffffff8111828210171561104057611040611004565b6040525050565b6000602080838503121561105a57600080fd5b823567ffffffffffffffff8082111561107257600080fd5b818501915085601f83011261108657600080fd5b81358181111561109857611098611004565b60405191506110b0601f8201601f191685018361101a565b80825286848285010111156110c457600080fd5b8084840185840137600090820190930192909252509392505050565b6000602082840312156110f257600080fd5b5035919050565b6001600160a01b0381168114610d7c57600080fd5b6000806040838503121561112157600080fd5b823591506020830135611133816110f9565b809150509250929050565b60006020828403121561115057600080fd5b8135610ffd816110f9565b60005b8381101561117657818101518382015260200161115e565b50506000910152565b6000815180845261119781602086016020860161115b565b601f01601f19169290920160200192915050565b8381526001600160a01b03831660208201526060604082018190526000906111d59083018461117f565b95945050505050565b60008083601f8401126111f057600080fd5b50813567ffffffffffffffff81111561120857600080fd5b6020830191508360208260051b850101111561122357600080fd5b9250929050565b6000806000806040858703121561124057600080fd5b843567ffffffffffffffff8082111561125857600080fd5b611264888389016111de565b9096509450602087013591508082111561127d57600080fd5b5061128a878288016111de565b95989497509550505050565b602081526000610ffd602083018461117f565b600082516112bb81846020870161115b565b9190910192915050565b6000602082840312156112d757600080fd5b8151610ffd816110f9565b6000602082840312156112f457600080fd5b5051919050565b600060033d11156113145760046000803e5060005160e01c5b90565b600060443d10156113255790565b6040516003193d81016004833e81513d67ffffffffffffffff816024840111818411171561135557505050505090565b828501915081518181111561136d5750505050505090565b843d87010160208285010111156113875750505050505090565b6113966020828601018761101a565b509095945050505050565b7f436c61696d526577617264732063616c6c206661696c65643a200000000000008152600082516113d981601a85016020870161115b565b91909101601a0192915050565b634e487b7160e01b600052601160045260246000fd5b81810381811115610390576103906113e6565b600181811c9082168061142357607f821691505b60208210810361144357634e487b7160e01b600052602260045260246000fd5b50919050565b8183526000602080850194508260005b8581101561148757813561146c816110f9565b6001600160a01b031687529582019590820190600101611459565b509495945050505050565b81835260006001600160fb1b038311156114ab57600080fd5b8260051b80836020870137939093016020019392505050565b6040815260006114d8604083018688611449565b82810360208401526114eb818587611492565b979650505050505050565b858152608060208201526000611510608083018688611449565b8281036040840152611523818587611492565b8381036060909401939093525050601f81527f5265776172647320646973747269627574656420627920636f6e73756d657200602082015260400195945050505050565b7f476f7665726e616e6365526577617264732063616c6c206661696c65643a200081526000825161159f81601f85016020870161115b565b91909101601f0192915050565b6000600182016115be576115be6113e6565b5060010190565b601f82111561041c576000816000526020600020601f850160051c810160208610156115ee5750805b601f850160051c820191505b8181101561160d578281556001016115fa565b505050505050565b815167ffffffffffffffff81111561162f5761162f611004565b6116438161163d845461140f565b846115c5565b602080601f83116001811461167857600084156116605750858301515b600019600386901b1c1916600185901b17855561160d565b600085815260208120601f198616915b828110156116a757888601518255948401946001909101908401611688565b50858210156116c55787850151600019600388901b60f8161c191681555b5050505050600190811b0190555056fea2646970667358221220579a882af8664d2b7561d21f7d388820bc094e6be89a6bb594da3147da085bb264736f6c63430008180033",
  "linkReferences": {},
  "deployedLinkReferences": {}
}