{
  "_format": "hh-sol-artifact-1",
  "contractName": "MockPreviousNodeRegistry",
  "sourceName": "contracts/mocks/MockPreviousNodeRegistry.sol",
  "abi": [
    {
      "anonymous": false,
      "inputs": [
        {
          "indexed": false,
          "internalType": "address",
          "name": "nodeAddress",
          "type": "address"
        }
      ],
      "name": "NodeRegistered",
      "type": "event"
    },
    {
      "anonymous": false,
      "inputs": [
        {
          "indexed": false,
          "internalType": "address",
          "name": "nodeAddress",
          "type": "address"
        },
        {
          "indexed": false,
          "internalType": "enum MockPreviousNodeRegistry.NodeState",
          "name": "newState",
          "type": "uint8"
        }
      ],
      "name": "NodeStateUpdated",
      "type": "event"
    },
    {
      "inputs": [
        {
          "internalType": "address",
          "name": "nodeAddress",
          "type": "address"
        }
      ],
      "name": "getNodeState",
      "outputs": [
        {
          "internalType": "enum MockPreviousNodeRegistry.NodeState",
          "name": "",
          "type": "uint8"
        }
      ],
      "stateMutability": "view",
      "type": "function"
    },
    {
      "inputs": [
        {
          "internalType": "address",
          "name": "nodeAddress",
          "type": "address"
        }
      ],
      "name": "isNodeRegistered",
      "outputs": [
        {
          "internalType": "bool",
          "name": "",
          "type": "bool"
        }
      ],
      "stateMutability": "view",
      "type": "function"
    },
    {
      "inputs": [
        {
          "internalType": "address",
          "name": "",
          "type": "address"
        }
      ],
      "name": "nodeStates",
      "outputs": [
        {
          "internalType": "enum MockPreviousNodeRegistry.NodeState",
          "name": "",
          "type": "uint8"
        }
      ],
      "stateMutability": "view",
      "type": "function"
    },
    {
      "inputs": [
        {
          "internalType": "address",
          "name": "nodeAddress",
          "type": "address"
        },
        {
          "internalType": "address",
          "name": "",
          "type": "address"
        },
        {
          "internalType": "string",
          "name": "",
          "type": "string"
        }
      ],
      "name": "registerNode",
      "outputs": [],
      "stateMutability": "nonpayable",
      "type": "function"
    },
    {
      "inputs": [
        {
          "internalType": "address",
          "name": "",
          "type": "address"
        }
      ],
      "name": "registeredNodes",
      "outputs": [
        {
          "internalType": "bool",
          "name": "",
          "type": "bool"
        }
      ],
      "stateMutability": "view",
      "type": "function"
    },
    {
      "inputs": [
        {
          "internalType": "address",
          "name": "nodeAddress",
          "type": "address"
        },
        {
          "internalType": "enum MockPreviousNodeRegistry.NodeState",
          "name": "newState",
          "type": "uint8"
        }
      ],
      "name": "updateNodeState",
      "outputs": [],
      "stateMutability": "nonpayable",
      "type": "function"
    }
  ],
  "bytecode": "0x608060405234801561001057600080fd5b5061049d806100206000396000f3fe608060405234801561001057600080fd5b50600436106100625760003560e01c8063229bb8231461006757806325f3cbeb146100a957806338510b81146100cc578063531dacaa146100e15780638cc0ebb5146100f4578063d3d1fb4814610130575b600080fd5b6100936100753660046102b9565b6001600160a01b031660009081526001602052604090205460ff1690565b6040516100a09190610313565b60405180910390f35b6100936100b73660046102b9565b60016020526000908152604090205460ff1681565b6100df6100da366004610327565b610153565b005b6100df6100ef366004610378565b61022f565b6101206101023660046102b9565b6001600160a01b031660009081526020819052604090205460ff1690565b60405190151581526020016100a0565b61012061013e3660046102b9565b60006020819052908152604090205460ff1681565b6001600160a01b03821660009081526020819052604090205460ff166101b55760405162461bcd60e51b8152602060048201526013602482015272139bd919481b9bdd081c9959da5cdd195c9959606a1b604482015260640160405180910390fd5b6001600160a01b03821660009081526001602081905260409091208054839260ff19909116908360038111156101ed576101ed6102db565b02179055507f926f56496808c3b84cd3c9217d38c2ad5fa6a2645604a7d15df841ca248213e7828260405161022392919061044a565b60405180910390a15050565b6001600160a01b038316600081815260208181526040808320805460ff1990811660019081179092558184529382902080549094161790925590519182527f564728e6a7c8edd446557d94e0339d5e6ca2e05f42188914efdbdc87bcbbabf6910160405180910390a1505050565b80356001600160a01b03811681146102b457600080fd5b919050565b6000602082840312156102cb57600080fd5b6102d48261029d565b9392505050565b634e487b7160e01b600052602160045260246000fd5b6004811061030f57634e487b7160e01b600052602160045260246000fd5b9052565b6020810161032182846102f1565b92915050565b6000806040838503121561033a57600080fd5b6103438361029d565b915060208301356004811061035757600080fd5b809150509250929050565b634e487b7160e01b600052604160045260246000fd5b60008060006060848603121561038d57600080fd5b6103968461029d565b92506103a46020850161029d565b9150604084013567ffffffffffffffff808211156103c157600080fd5b818601915086601f8301126103d557600080fd5b8135818111156103e7576103e7610362565b604051601f8201601f19908116603f0116810190838211818310171561040f5761040f610362565b8160405282815289602084870101111561042857600080fd5b8260208601602083013760006020848301015280955050505050509250925092565b6001600160a01b0383168152604081016102d460208301846102f156fea2646970667358221220884054a912ebe6686b321bd2b5c38081c5704296f5df1eb8398591d29e3dda5164736f6c63430008180033",
  "linkReferences": {},
  "deployedLinkReferences": {}
}