{
  "_format": "hh-sol-artifact-1",
  "contractName": "PriceOracleAdapter",
  "sourceName": "contracts/adapters/PriceOracleAdapter.sol",
  "abi": [
    {
      "inputs": [
        {
          "internalType": "address",
          "name": "_oracle",
          "type": "address"
        }
      ],
      "stateMutability": "nonpayable",
      "type": "constructor"
    },
    {
      "inputs": [],
      "name": "ZeroAddress",
      "type": "error"
    },
    {
      "inputs": [
        {
          "internalType": "address",
          "name": "_asset",
          "type": "address"
        }
      ],
      "name": "getAssetDecimals",
      "outputs": [
        {
          "internalType": "uint8",
          "name": "",
          "type": "uint8"
        }
      ],
      "stateMutability": "view",
      "type": "function"
    },
    {
      "inputs": [
        {
          "internalType": "address",
          "name": "_asset",
          "type": "address"
        }
      ],
      "name": "getAssetPrice",
      "outputs": [
        {
          "internalType": "uint256",
          "name": "",
          "type": "uint256"
        }
      ],
      "stateMutability": "view",
      "type": "function"
    },
    {
      "inputs": [],
      "name": "oracle",
      "outputs": [
        {
          "internalType": "contract PriceOracle",
          "name": "",
          "type": "address"
        }
      ],
      "stateMutability": "view",
      "type": "function"
    },
    {
      "inputs": [
        {
          "internalType": "address",
          "name": "_asset",
          "type": "address"
        },
        {
          "internalType": "uint8",
          "name": "_decimals",
          "type": "uint8"
        }
      ],
      "name": "setTokenDecimals",
      "outputs": [],
      "stateMutability": "nonpayable",
      "type": "function"
    }
  ],
  "bytecode": "0x608060405234801561001057600080fd5b5060405161035338038061035383398101604081905261002f9161007b565b6001600160a01b0381166100565760405163d92e233d60e01b815260040160405180910390fd5b600080546001600160a01b0319166001600160a01b03929092169190911790556100ab565b60006020828403121561008d57600080fd5b81516001600160a01b03811681146100a457600080fd5b9392505050565b610299806100ba6000396000f3fe608060405234801561001057600080fd5b506004361061004c5760003560e01c80635cdcd8bb146100515780637dc0d1d0146100665780639efd6f7214610096578063b3596f07146100bb575b600080fd5b61006461005f3660046101f2565b6100dc565b005b600054610079906001600160a01b031681565b6040516001600160a01b0390911681526020015b60405180910390f35b6100a96100a436600461022f565b610130565b60405160ff909116815260200161008d565b6100ce6100c936600461022f565b610161565b60405190815260200161008d565b6001600160a01b0382166101035760405163d92e233d60e01b815260040160405180910390fd5b6001600160a01b03919091166000908152600160205260409020805460ff191660ff909216919091179055565b6001600160a01b03811660009081526001602052604081205460ff168061015857600861015a565b805b9392505050565b600080546040516341976e0960e01b81526001600160a01b038481166004830152909116906341976e0990602401602060405180830381865afa1580156101ac573d6000803e3d6000fd5b505050506040513d601f19601f820116820180604052508101906101d0919061024a565b92915050565b80356001600160a01b03811681146101ed57600080fd5b919050565b6000806040838503121561020557600080fd5b61020e836101d6565b9150602083013560ff8116811461022457600080fd5b809150509250929050565b60006020828403121561024157600080fd5b61015a826101d6565b60006020828403121561025c57600080fd5b505191905056fea2646970667358221220e373172dfd7a5090c6718f68f68933eec801a960bfca5ccc83cc5e8b2a2aa8e364736f6c63430008180033",
  "linkReferences": {},
  "deployedLinkReferences": {}
}