{
  "_format": "hh-sol-artifact-1",
  "contractName": "MockToken",
  "sourceName": "contracts/mocks/MockToken.sol",
  "abi": [
    {
      "inputs": [
        {
          "internalType": "string",
          "name": "name",
          "type": "string"
        },
        {
          "internalType": "string",
          "name": "symbol",
          "type": "string"
        },
        {
          "internalType": "uint8",
          "name": "decimals_",
          "type": "uint8"
        }
      ],
      "stateMutability": "nonpayable",
      "type": "constructor"
    },
    {
      "inputs": [],
      "name": "AccessControlBadConfirmation",
      "type": "error"
    },
    {
      "inputs": [
        {
          "internalType": "address",
          "name": "account",
          "type": "address"
        },
        {
          "internalType": "bytes32",
          "name": "neededRole",
          "type": "bytes32"
        }
      ],
      "name": "AccessControlUnauthorizedAccount",
      "type": "error"
    },
    {
      "inputs": [
        {
          "internalType": "address",
          "name": "spender",
          "type": "address"
        },
        {
          "internalType": "uint256",
          "name": "allowance",
          "type": "uint256"
        },
        {
          "internalType": "uint256",
          "name": "needed",
          "type": "uint256"
        }
      ],
      "name": "ERC20InsufficientAllowance",
      "type": "error"
    },
    {
      "inputs": [
        {
          "internalType": "address",
          "name": "sender",
          "type": "address"
        },
        {
          "internalType": "uint256",
          "name": "balance",
          "type": "uint256"
        },
        {
          "internalType": "uint256",
          "name": "needed",
          "type": "uint256"
        }
      ],
      "name": "ERC20InsufficientBalance",
      "type": "error"
    },
    {
      "inputs": [
        {
          "internalType": "address",
          "name": "approver",
          "type": "address"
        }
      ],
      "name": "ERC20InvalidApprover",
      "type": "error"
    },
    {
      "inputs": [
        {
          "internalType": "address",
          "name": "receiver",
          "type": "address"
        }
      ],
      "name": "ERC20InvalidReceiver",
      "type": "error"
    },
    {
      "inputs": [
        {
          "internalType": "address",
          "name": "sender",
          "type": "address"
        }
      ],
      "name": "ERC20InvalidSender",
      "type": "error"
    },
    {
      "inputs": [
        {
          "internalType": "address",
          "name": "spender",
          "type": "address"
        }
      ],
      "name": "ERC20InvalidSpender",
      "type": "error"
    },
    {
      "inputs": [
        {
          "internalType": "address",
          "name": "owner",
          "type": "address"
        }
      ],
      "name": "OwnableInvalidOwner",
      "type": "error"
    },
    {
      "inputs": [
        {
          "internalType": "address",
          "name": "account",
          "type": "address"
        }
      ],
      "name": "OwnableUnauthorizedAccount",
      "type": "error"
    },
    {
      "anonymous": false,
      "inputs": [
        {
          "indexed": true,
          "internalType": "address",
          "name": "owner",
          "type": "address"
        },
        {
          "indexed": true,
          "internalType": "address",
          "name": "spender",
          "type": "address"
        },
        {
          "indexed": false,
          "internalType": "uint256",
          "name": "value",
          "type": "uint256"
        }
      ],
      "name": "Approval",
      "type": "event"
    },
    {
      "anonymous": false,
      "inputs": [
        {
          "indexed": true,
          "internalType": "string",
          "name": "functionName",
          "type": "string"
        },
        {
          "indexed": true,
          "internalType": "address",
          "name": "caller",
          "type": "address"
        },
        {
          "indexed": false,
          "internalType": "bytes",
          "name": "data",
          "type": "bytes"
        }
      ],
      "name": "MockFunctionCalled",
      "type": "event"
    },
    {
      "anonymous": false,
      "inputs": [
        {
          "indexed": true,
          "internalType": "address",
          "name": "caller",
          "type": "address"
        }
      ],
      "name": "MockInitialized",
      "type": "event"
    },
    {
      "anonymous": false,
      "inputs": [],
      "name": "MockStateReset",
      "type": "event"
    },
    {
      "anonymous": false,
      "inputs": [
        {
          "indexed": true,
          "internalType": "address",
          "name": "previousOwner",
          "type": "address"
        },
        {
          "indexed": true,
          "internalType": "address",
          "name": "newOwner",
          "type": "address"
        }
      ],
      "name": "OwnershipTransferred",
      "type": "event"
    },
    {
      "anonymous": false,
      "inputs": [
        {
          "indexed": true,
          "internalType": "bytes32",
          "name": "role",
          "type": "bytes32"
        },
        {
          "indexed": true,
          "internalType": "bytes32",
          "name": "previousAdminRole",
          "type": "bytes32"
        },
        {
          "indexed": true,
          "internalType": "bytes32",
          "name": "newAdminRole",
          "type": "bytes32"
        }
      ],
      "name": "RoleAdminChanged",
      "type": "event"
    },
    {
      "anonymous": false,
      "inputs": [
        {
          "indexed": true,
          "internalType": "bytes32",
          "name": "role",
          "type": "bytes32"
        },
        {
          "indexed": true,
          "internalType": "address",
          "name": "account",
          "type": "address"
        },
        {
          "indexed": true,
          "internalType": "address",
          "name": "sender",
          "type": "address"
        }
      ],
      "name": "RoleGranted",
      "type": "event"
    },
    {
      "anonymous": false,
      "inputs": [
        {
          "indexed": true,
          "internalType": "bytes32",
          "name": "role",
          "type": "bytes32"
        },
        {
          "indexed": true,
          "internalType": "address",
          "name": "account",
          "type": "address"
        },
        {
          "indexed": true,
          "internalType": "address",
          "name": "sender",
          "type": "address"
        }
      ],
      "name": "RoleRevoked",
      "type": "event"
    },
    {
      "anonymous": false,
      "inputs": [
        {
          "indexed": true,
          "internalType": "address",
          "name": "from",
          "type": "address"
        },
        {
          "indexed": true,
          "internalType": "address",
          "name": "to",
          "type": "address"
        },
        {
          "indexed": false,
          "internalType": "uint256",
          "name": "value",
          "type": "uint256"
        }
      ],
      "name": "Transfer",
      "type": "event"
    },
    {
      "inputs": [],
      "name": "DEFAULT_ADMIN_ROLE",
      "outputs": [
        {
          "internalType": "bytes32",
          "name": "",
          "type": "bytes32"
        }
      ],
      "stateMutability": "view",
      "type": "function"
    },
    {
      "inputs": [
        {
          "internalType": "address",
          "name": "owner",
          "type": "address"
        },
        {
          "internalType": "address",
          "name": "spender",
          "type": "address"
        }
      ],
      "name": "allowance",
      "outputs": [
        {
          "internalType": "uint256",
          "name": "",
          "type": "uint256"
        }
      ],
      "stateMutability": "view",
      "type": "function"
    },
    {
      "inputs": [
        {
          "internalType": "address",
          "name": "spender",
          "type": "address"
        },
        {
          "internalType": "uint256",
          "name": "value",
          "type": "uint256"
        }
      ],
      "name": "approve",
      "outputs": [
        {
          "internalType": "bool",
          "name": "",
          "type": "bool"
        }
      ],
      "stateMutability": "nonpayable",
      "type": "function"
    },
    {
      "inputs": [
        {
          "internalType": "address",
          "name": "account",
          "type": "address"
        }
      ],
      "name": "balanceOf",
      "outputs": [
        {
          "internalType": "uint256",
          "name": "",
          "type": "uint256"
        }
      ],
      "stateMutability": "view",
      "type": "function"
    },
    {
      "inputs": [
        {
          "internalType": "address",
          "name": "from",
          "type": "address"
        },
        {
          "internalType": "uint256",
          "name": "amount",
          "type": "uint256"
        }
      ],
      "name": "burn",
      "outputs": [],
      "stateMutability": "nonpayable",
      "type": "function"
    },
    {
      "inputs": [],
      "name": "callCount",
      "outputs": [
        {
          "internalType": "uint256",
          "name": "",
          "type": "uint256"
        }
      ],
      "stateMutability": "view",
      "type": "function"
    },
    {
      "inputs": [],
      "name": "decimals",
      "outputs": [
        {
          "internalType": "uint8",
          "name": "",
          "type": "uint8"
        }
      ],
      "stateMutability": "view",
      "type": "function"
    },
    {
      "inputs": [
        {
          "internalType": "string",
          "name": "",
          "type": "string"
        }
      ],
      "name": "functionCallCount",
      "outputs": [
        {
          "internalType": "uint256",
          "name": "",
          "type": "uint256"
        }
      ],
      "stateMutability": "view",
      "type": "function"
    },
    {
      "inputs": [
        {
          "internalType": "string",
          "name": "functionName",
          "type": "string"
        }
      ],
      "name": "getFunctionCallCount",
      "outputs": [
        {
          "internalType": "uint256",
          "name": "",
          "type": "uint256"
        }
      ],
      "stateMutability": "view",
      "type": "function"
    },
    {
      "inputs": [
        {
          "internalType": "string",
          "name": "functionName",
          "type": "string"
        }
      ],
      "name": "getFunctionCallHistory",
      "outputs": [
        {
          "internalType": "uint256",
          "name": "count",
          "type": "uint256"
        },
        {
          "internalType": "address",
          "name": "lastCaller_",
          "type": "address"
        },
        {
          "internalType": "bytes",
          "name": "lastData",
          "type": "bytes"
        }
      ],
      "stateMutability": "view",
      "type": "function"
    },
    {
      "inputs": [
        {
          "internalType": "bytes32",
          "name": "role",
          "type": "bytes32"
        }
      ],
      "name": "getRoleAdmin",
      "outputs": [
        {
          "internalType": "bytes32",
          "name": "",
          "type": "bytes32"
        }
      ],
      "stateMutability": "view",
      "type": "function"
    },
    {
      "inputs": [
        {
          "internalType": "bytes32",
          "name": "role",
          "type": "bytes32"
        },
        {
          "internalType": "address",
          "name": "account",
          "type": "address"
        }
      ],
      "name": "grantRole",
      "outputs": [],
      "stateMutability": "nonpayable",
      "type": "function"
    },
    {
      "inputs": [
        {
          "internalType": "bytes32",
          "name": "role",
          "type": "bytes32"
        },
        {
          "internalType": "address",
          "name": "account",
          "type": "address"
        }
      ],
      "name": "hasRole",
      "outputs": [
        {
          "internalType": "bool",
          "name": "",
          "type": "bool"
        }
      ],
      "stateMutability": "view",
      "type": "function"
    },
    {
      "inputs": [],
      "name": "initialize",
      "outputs": [],
      "stateMutability": "nonpayable",
      "type": "function"
    },
    {
      "inputs": [],
      "name": "initialized",
      "outputs": [
        {
          "internalType": "bool",
          "name": "",
          "type": "bool"
        }
      ],
      "stateMutability": "view",
      "type": "function"
    },
    {
      "inputs": [
        {
          "internalType": "string",
          "name": "",
          "type": "string"
        }
      ],
      "name": "lastCallData",
      "outputs": [
        {
          "internalType": "bytes",
          "name": "",
          "type": "bytes"
        }
      ],
      "stateMutability": "view",
      "type": "function"
    },
    {
      "inputs": [],
      "name": "lastCaller",
      "outputs": [
        {
          "internalType": "address",
          "name": "",
          "type": "address"
        }
      ],
      "stateMutability": "view",
      "type": "function"
    },
    {
      "inputs": [
        {
          "internalType": "string",
          "name": "",
          "type": "string"
        }
      ],
      "name": "lastCallerByFunction",
      "outputs": [
        {
          "internalType": "address",
          "name": "",
          "type": "address"
        }
      ],
      "stateMutability": "view",
      "type": "function"
    },
    {
      "inputs": [
        {
          "internalType": "address",
          "name": "to",
          "type": "address"
        },
        {
          "internalType": "uint256",
          "name": "amount",
          "type": "uint256"
        }
      ],
      "name": "mint",
      "outputs": [],
      "stateMutability": "nonpayable",
      "type": "function"
    },
    {
      "inputs": [
        {
          "internalType": "uint256",
          "name": "amount",
          "type": "uint256"
        }
      ],
      "name": "mintSelf",
      "outputs": [],
      "stateMutability": "nonpayable",
      "type": "function"
    },
    {
      "inputs": [],
      "name": "name",
      "outputs": [
        {
          "internalType": "string",
          "name": "",
          "type": "string"
        }
      ],
      "stateMutability": "view",
      "type": "function"
    },
    {
      "inputs": [],
      "name": "owner",
      "outputs": [
        {
          "internalType": "address",
          "name": "",
          "type": "address"
        }
      ],
      "stateMutability": "view",
      "type": "function"
    },
    {
      "inputs": [],
      "name": "renounceOwnership",
      "outputs": [],
      "stateMutability": "nonpayable",
      "type": "function"
    },
    {
      "inputs": [
        {
          "internalType": "bytes32",
          "name": "role",
          "type": "bytes32"
        },
        {
          "internalType": "address",
          "name": "callerConfirmation",
          "type": "address"
        }
      ],
      "name": "renounceRole",
      "outputs": [],
      "stateMutability": "nonpayable",
      "type": "function"
    },
    {
      "inputs": [],
      "name": "reset",
      "outputs": [],
      "stateMutability": "nonpayable",
      "type": "function"
    },
    {
      "inputs": [
        {
          "internalType": "bytes32",
          "name": "role",
          "type": "bytes32"
        },
        {
          "internalType": "address",
          "name": "account",
          "type": "address"
        }
      ],
      "name": "revokeRole",
      "outputs": [],
      "stateMutability": "nonpayable",
      "type": "function"
    },
    {
      "inputs": [
        {
          "internalType": "bytes4",
          "name": "interfaceId",
          "type": "bytes4"
        }
      ],
      "name": "supportsInterface",
      "outputs": [
        {
          "internalType": "bool",
          "name": "",
          "type": "bool"
        }
      ],
      "stateMutability": "view",
      "type": "function"
    },
    {
      "inputs": [],
      "name": "symbol",
      "outputs": [
        {
          "internalType": "string",
          "name": "",
          "type": "string"
        }
      ],
      "stateMutability": "view",
      "type": "function"
    },
    {
      "inputs": [],
      "name": "totalSupply",
      "outputs": [
        {
          "internalType": "uint256",
          "name": "",
          "type": "uint256"
        }
      ],
      "stateMutability": "view",
      "type": "function"
    },
    {
      "inputs": [
        {
          "internalType": "address",
          "name": "to",
          "type": "address"
        },
        {
          "internalType": "uint256",
          "name": "value",
          "type": "uint256"
        }
      ],
      "name": "transfer",
      "outputs": [
        {
          "internalType": "bool",
          "name": "",
          "type": "bool"
        }
      ],
      "stateMutability": "nonpayable",
      "type": "function"
    },
    {
      "inputs": [
        {
          "internalType": "address",
          "name": "from",
          "type": "address"
        },
        {
          "internalType": "address",
          "name": "to",
          "type": "address"
        },
        {
          "internalType": "uint256",
          "name": "value",
          "type": "uint256"
        }
      ],
      "name": "transferFrom",
      "outputs": [
        {
          "internalType": "bool",
          "name": "",
          "type": "bool"
        }
      ],
      "stateMutability": "nonpayable",
      "type": "function"
    },
    {
      "inputs": [
        {
          "internalType": "address",
          "name": "newOwner",
          "type": "address"
        }
      ],
      "name": "transferOwnership",
      "outputs": [],
      "stateMutability": "nonpayable",
      "type": "function"
    },
    {
      "inputs": [
        {
          "internalType": "string",
          "name": "functionName",
          "type": "string"
        }
      ],
      "name": "wasFunctionCalled",
      "outputs": [
        {
          "internalType": "bool",
          "name": "",
          "type": "bool"
        }
      ],
      "stateMutability": "view",
      "type": "function"
    }
  ],
  "bytecode": "0x60806040523480156200001157600080fd5b5060405162001a2438038062001a2483398101604081905262000034916200028a565b3383836003620000458382620003a0565b506004620000548282620003a0565b5050506001600160a01b0381166200008657604051631e4fbdf760e01b81526000600482015260240160405180910390fd5b6200009181620000bd565b506200009f6000336200010f565b50600c805460ff191660ff92909216919091179055506200046c9050565b600580546001600160a01b038381166001600160a01b0319831681179093556040519116919082907f8be0079c531659141344cd1fd0a4f28419497f9722a3daafe3b4186f6b6457e090600090a35050565b60008281526006602090815260408083206001600160a01b038516845290915281205460ff16620001b85760008381526006602090815260408083206001600160a01b03861684529091529020805460ff191660011790556200016f3390565b6001600160a01b0316826001600160a01b0316847f2f8788117e7eff1d82e926ec794901d17c78024a50270940304540a733656f0d60405160405180910390a4506001620001bc565b5060005b92915050565b634e487b7160e01b600052604160045260246000fd5b600082601f830112620001ea57600080fd5b81516001600160401b0380821115620002075762000207620001c2565b604051601f8301601f19908116603f01168101908282118183101715620002325762000232620001c2565b81604052838152602092508660208588010111156200025057600080fd5b600091505b8382101562000274578582018301518183018401529082019062000255565b6000602085830101528094505050505092915050565b600080600060608486031215620002a057600080fd5b83516001600160401b0380821115620002b857600080fd5b620002c687838801620001d8565b94506020860151915080821115620002dd57600080fd5b50620002ec86828701620001d8565b925050604084015160ff811681146200030457600080fd5b809150509250925092565b600181811c908216806200032457607f821691505b6020821081036200034557634e487b7160e01b600052602260045260246000fd5b50919050565b601f8211156200039b576000816000526020600020601f850160051c81016020861015620003765750805b601f850160051c820191505b81811015620003975782815560010162000382565b5050505b505050565b81516001600160401b03811115620003bc57620003bc620001c2565b620003d481620003cd84546200030f565b846200034b565b602080601f8311600181146200040c5760008415620003f35750858301515b600019600386901b1c1916600185901b17855562000397565b600085815260208120601f198616915b828110156200043d578886015182559484019460019091019084016200041c565b50858210156200045c5787850151600019600388901b60f8161c191681555b5050505050600190811b01905550565b6115a8806200047c6000396000f3fe608060405234801561001057600080fd5b50600436106101fb5760003560e01c80634b28f9a21161011a5780639dc29fac116100ad578063d547741f1161007c578063d547741f1461047b578063d826f88f1461048e578063dd62ed3e14610496578063dfdbdd50146104cf578063f2fde38b146104e257600080fd5b80639dc29fac1461043a578063a217fddf1461044d578063a9059cbb14610455578063c054c6ce1461046857600080fd5b80638129fc1c116100e95780638129fc1c146104065780638da5cb5b1461040e57806391d148541461041f57806395d89b411461043257600080fd5b80634b28f9a2146103b957806370a08231146103c2578063715018a6146103eb578063720eacad146103f357600080fd5b806323b872dd1161019257806336568abe1161016157806336568abe146103465780633ca3910c1461035957806340c10f191461037b578063422b010b1461038e57600080fd5b806323b872dd146102e6578063248a9ca3146102f95780632f2ff15d1461031c578063313ce5671461033157600080fd5b806318160ddd116101ce57806318160ddd1461025d5780631a82a6431461026f5780631df86bc6146102825780632113522a146102ce57600080fd5b806301ffc9a71461020057806306fdde0314610228578063095ea7b31461023d578063158ef93e14610250575b600080fd5b61021361020e366004611130565b6104f5565b60405190151581526020015b60405180910390f35b61023061052c565b60405161021f91906111b1565b61021361024b3660046111e0565b6105be565b6007546102139060ff1681565b6002545b60405190815260200161021f565b61026161027d366004611220565b6105d6565b6102b6610290366004611220565b8051602081830181018051600b825292820191909301209152546001600160a01b031681565b6040516001600160a01b03909116815260200161021f565b6007546102b69061010090046001600160a01b031681565b6102136102f43660046112d1565b6105fe565b61026161030736600461130d565b60009081526006602052604090206001015490565b61032f61032a366004611326565b610622565b005b600c5460405160ff909116815260200161021f565b61032f610354366004611326565b61064d565b61036c610367366004611220565b610685565b60405161021f93929190611352565b61032f6103893660046111e0565b610788565b61026161039c366004611220565b805160208183018101805160098252928201919093012091525481565b61026160085481565b6102616103d0366004611385565b6001600160a01b031660009081526020819052604090205490565b61032f6107f9565b61032f61040136600461130d565b61080d565b61032f610851565b6005546001600160a01b03166102b6565b61021361042d366004611326565b6108e3565b61023061090e565b61032f6104483660046111e0565b61091d565b610261600081565b6102136104633660046111e0565b610976565b610213610476366004611220565b610984565b61032f610489366004611326565b6109ae565b61032f6109d3565b6102616104a43660046113a0565b6001600160a01b03918216600090815260016020908152604080832093909416825291909152205490565b6102306104dd366004611220565b610a1f565b61032f6104f0366004611385565b610ac4565b60006001600160e01b03198216637965db0b60e01b148061052657506301ffc9a760e01b6001600160e01b03198316145b92915050565b60606003805461053b906113ca565b80601f0160208091040260200160405190810160405280929190818152602001828054610567906113ca565b80156105b45780601f10610589576101008083540402835291602001916105b4565b820191906000526020600020905b81548152906001019060200180831161059757829003601f168201915b5050505050905090565b6000336105cc818585610aff565b5060019392505050565b60006009826040516105e89190611404565b9081526020016040518091039020549050919050565b60003361060c858285610b0c565b610617858585610b85565b506001949350505050565b60008281526006602052604090206001015461063d81610be4565b6106478383610bee565b50505050565b6001600160a01b03811633146106765760405163334bd91960e11b815260040160405180910390fd5b6106808282610c82565b505050565b600080606060098460405161069a9190611404565b908152602001604051809103902054600b856040516106b99190611404565b908152604051908190036020018120546001600160a01b031690600a906106e1908890611404565b90815260200160405180910390208080546106fb906113ca565b80601f0160208091040260200160405190810160405280929190818152602001828054610727906113ca565b80156107745780601f1061074957610100808354040283529160200191610774565b820191906000526020600020905b81548152906001019060200180831161075757829003601f168201915b505050505090509250925092509193909250565b610790610cef565b6107eb604051806040016040528060048152602001631b5a5b9d60e21b81525083836040516020016107d79291906001600160a01b03929092168252602082015260400190565b604051602081830303815290604052610d1c565b6107f58282610e3a565b5050565b610801610cef565b61080b6000610e70565b565b6108446040518060400160405280600881526020016736b4b73a29b2b63360c11b815250826040516020016107d791815260200190565b61084e3382610e3a565b50565b60075460ff16156108a95760405162461bcd60e51b815260206004820152601d60248201527f426173654d6f636b3a20616c726561647920696e697469616c697a656400000060448201526064015b60405180910390fd5b6007805460ff1916600117905560405133907f30f7074e868351008998491171b433e7342f255e986fef03e5eec84f01786f0190600090a2565b60009182526006602090815260408084206001600160a01b0393909316845291905290205460ff1690565b60606004805461053b906113ca565b610925610cef565b61096c60405180604001604052806004815260200163313ab93760e11b81525083836040516020016107d79291906001600160a01b03929092168252602082015260400190565b6107f58282610ec2565b6000336105cc818585610b85565b6000806009836040516109979190611404565b908152602001604051809103902054119050919050565b6000828152600660205260409020600101546109c981610be4565b6106478383610c82565b60006109de81610be4565b600780546001600160a81b0319169055600060088190556040517f47f78a7a0acc7fff3657157dc253c5e6a68550995cc6f47bc2bd707ec67370fb9190a150565b8051602081830181018051600a8252928201919093012091528054610a43906113ca565b80601f0160208091040260200160405190810160405280929190818152602001828054610a6f906113ca565b8015610abc5780601f10610a9157610100808354040283529160200191610abc565b820191906000526020600020905b815481529060010190602001808311610a9f57829003601f168201915b505050505081565b610acc610cef565b6001600160a01b038116610af657604051631e4fbdf760e01b8152600060048201526024016108a0565b61084e81610e70565b6106808383836001610ef8565b6001600160a01b038381166000908152600160209081526040808320938616835292905220546000198110156106475781811015610b7657604051637dc7a0d960e11b81526001600160a01b038416600482015260248101829052604481018390526064016108a0565b61064784848484036000610ef8565b6001600160a01b038316610baf57604051634b637e8f60e11b8152600060048201526024016108a0565b6001600160a01b038216610bd95760405163ec442f0560e01b8152600060048201526024016108a0565b610680838383610fcd565b61084e81336110f7565b6000610bfa83836108e3565b610c7a5760008381526006602090815260408083206001600160a01b03861684529091529020805460ff19166001179055610c323390565b6001600160a01b0316826001600160a01b0316847f2f8788117e7eff1d82e926ec794901d17c78024a50270940304540a733656f0d60405160405180910390a4506001610526565b506000610526565b6000610c8e83836108e3565b15610c7a5760008381526006602090815260408083206001600160a01b0386168085529252808320805460ff1916905551339286917ff6391f5c32d9c69d2a47ea670b442974b53935d1edc7fd64eb21e047a839171b9190a4506001610526565b6005546001600160a01b0316331461080b5760405163118cdaa760e01b81523360048201526024016108a0565b600982604051610d2c9190611404565b9081526040519081900360200190208054906000610d4983611436565b919050555080600a83604051610d5f9190611404565b90815260200160405180910390209081610d79919061149f565b5033600b83604051610d8b9190611404565b90815260405160209181900391909101902080546001600160a01b0319166001600160a01b039290921691909117905560078054610100600160a81b031916610100330217905560088054906000610de283611436565b90915550506040513390610df7908490611404565b60405180910390207f16b892c3de2f4b54dc114eff5c76ead156bac210353ee82615752957e1317df183604051610e2e91906111b1565b60405180910390a35050565b6001600160a01b038216610e645760405163ec442f0560e01b8152600060048201526024016108a0565b6107f560008383610fcd565b600580546001600160a01b038381166001600160a01b0319831681179093556040519116919082907f8be0079c531659141344cd1fd0a4f28419497f9722a3daafe3b4186f6b6457e090600090a35050565b6001600160a01b038216610eec57604051634b637e8f60e11b8152600060048201526024016108a0565b6107f582600083610fcd565b6001600160a01b038416610f225760405163e602df0560e01b8152600060048201526024016108a0565b6001600160a01b038316610f4c57604051634a1406b160e11b8152600060048201526024016108a0565b6001600160a01b038085166000908152600160209081526040808320938716835292905220829055801561064757826001600160a01b0316846001600160a01b03167f8c5be1e5ebec7d5bd14f71427d1e84f3dd0314c0f7b2291e5b200ac8c7c3b92584604051610fbf91815260200190565b60405180910390a350505050565b6001600160a01b038316610ff8578060026000828254610fed919061155f565b9091555061106a9050565b6001600160a01b0383166000908152602081905260409020548181101561104b5760405163391434e360e21b81526001600160a01b038516600482015260248101829052604481018390526064016108a0565b6001600160a01b03841660009081526020819052604090209082900390555b6001600160a01b038216611086576002805482900390556110a5565b6001600160a01b03821660009081526020819052604090208054820190555b816001600160a01b0316836001600160a01b03167fddf252ad1be2c89b69c2b068fc378daa952ba7f163c4a11628f55a4df523b3ef836040516110ea91815260200190565b60405180910390a3505050565b61110182826108e3565b6107f55760405163e2517d3f60e01b81526001600160a01b0382166004820152602481018390526044016108a0565b60006020828403121561114257600080fd5b81356001600160e01b03198116811461115a57600080fd5b9392505050565b60005b8381101561117c578181015183820152602001611164565b50506000910152565b6000815180845261119d816020860160208601611161565b601f01601f19169290920160200192915050565b60208152600061115a6020830184611185565b80356001600160a01b03811681146111db57600080fd5b919050565b600080604083850312156111f357600080fd5b6111fc836111c4565b946020939093013593505050565b634e487b7160e01b600052604160045260246000fd5b60006020828403121561123257600080fd5b813567ffffffffffffffff8082111561124a57600080fd5b818401915084601f83011261125e57600080fd5b8135818111156112705761127061120a565b604051601f8201601f19908116603f011681019083821181831017156112985761129861120a565b816040528281528760208487010111156112b157600080fd5b826020860160208301376000928101602001929092525095945050505050565b6000806000606084860312156112e657600080fd5b6112ef846111c4565b92506112fd602085016111c4565b9150604084013590509250925092565b60006020828403121561131f57600080fd5b5035919050565b6000806040838503121561133957600080fd5b82359150611349602084016111c4565b90509250929050565b8381526001600160a01b038316602082015260606040820181905260009061137c90830184611185565b95945050505050565b60006020828403121561139757600080fd5b61115a826111c4565b600080604083850312156113b357600080fd5b6113bc836111c4565b9150611349602084016111c4565b600181811c908216806113de57607f821691505b6020821081036113fe57634e487b7160e01b600052602260045260246000fd5b50919050565b60008251611416818460208701611161565b9190910192915050565b634e487b7160e01b600052601160045260246000fd5b60006001820161144857611448611420565b5060010190565b601f821115610680576000816000526020600020601f850160051c810160208610156114785750805b601f850160051c820191505b8181101561149757828155600101611484565b505050505050565b815167ffffffffffffffff8111156114b9576114b961120a565b6114cd816114c784546113ca565b8461144f565b602080601f83116001811461150257600084156114ea5750858301515b600019600386901b1c1916600185901b178555611497565b600085815260208120601f198616915b8281101561153157888601518255948401946001909101908401611512565b508582101561154f5787850151600019600388901b60f8161c191681555b5050505050600190811b01905550565b808201808211156105265761052661142056fea2646970667358221220f511933cf1fdfdc6fc4e899b0fc6148aa8f859d2096667d5d1180a0c8fad0f8464736f6c63430008180033",
  "linkReferences": {},
  "deployedLinkReferences": {}
}