{
  "_format": "hh-sol-artifact-1",
  "contractName": "MockStandardizedPriceOracle",
  "sourceName": "contracts/mocks/MockStandardizedPriceOracle.sol",
  "abi": [
    {
      "inputs": [],
      "stateMutability": "nonpayable",
      "type": "constructor"
    },
    {
      "inputs": [],
      "name": "AccessControlBadConfirmation",
      "type": "error"
    },
    {
      "inputs": [
        {
          "internalType": "address",
          "name": "account",
          "type": "address"
        },
        {
          "internalType": "bytes32",
          "name": "neededRole",
          "type": "bytes32"
        }
      ],
      "name": "AccessControlUnauthorizedAccount",
      "type": "error"
    },
    {
      "anonymous": false,
      "inputs": [
        {
          "indexed": true,
          "internalType": "string",
          "name": "functionName",
          "type": "string"
        },
        {
          "indexed": true,
          "internalType": "address",
          "name": "caller",
          "type": "address"
        },
        {
          "indexed": false,
          "internalType": "bytes",
          "name": "data",
          "type": "bytes"
        }
      ],
      "name": "MockFunctionCalled",
      "type": "event"
    },
    {
      "anonymous": false,
      "inputs": [
        {
          "indexed": true,
          "internalType": "address",
          "name": "caller",
          "type": "address"
        }
      ],
      "name": "MockInitialized",
      "type": "event"
    },
    {
      "anonymous": false,
      "inputs": [],
      "name": "MockStateReset",
      "type": "event"
    },
    {
      "anonymous": false,
      "inputs": [
        {
          "indexed": true,
          "internalType": "address",
          "name": "newAdmin",
          "type": "address"
        }
      ],
      "name": "OracleAdminChanged",
      "type": "event"
    },
    {
      "anonymous": false,
      "inputs": [
        {
          "indexed": true,
          "internalType": "address",
          "name": "token",
          "type": "address"
        },
        {
          "indexed": false,
          "internalType": "uint256",
          "name": "price",
          "type": "uint256"
        },
        {
          "indexed": false,
          "internalType": "uint256",
          "name": "timestamp",
          "type": "uint256"
        }
      ],
      "name": "PriceUpdated",
      "type": "event"
    },
    {
      "anonymous": false,
      "inputs": [
        {
          "indexed": true,
          "internalType": "address",
          "name": "updater",
          "type": "address"
        }
      ],
      "name": "PriceUpdaterAdded",
      "type": "event"
    },
    {
      "anonymous": false,
      "inputs": [
        {
          "indexed": true,
          "internalType": "address",
          "name": "updater",
          "type": "address"
        }
      ],
      "name": "PriceUpdaterRemoved",
      "type": "event"
    },
    {
      "anonymous": false,
      "inputs": [
        {
          "indexed": true,
          "internalType": "bytes32",
          "name": "role",
          "type": "bytes32"
        },
        {
          "indexed": true,
          "internalType": "bytes32",
          "name": "previousAdminRole",
          "type": "bytes32"
        },
        {
          "indexed": true,
          "internalType": "bytes32",
          "name": "newAdminRole",
          "type": "bytes32"
        }
      ],
      "name": "RoleAdminChanged",
      "type": "event"
    },
    {
      "anonymous": false,
      "inputs": [
        {
          "indexed": true,
          "internalType": "bytes32",
          "name": "role",
          "type": "bytes32"
        },
        {
          "indexed": true,
          "internalType": "address",
          "name": "account",
          "type": "address"
        },
        {
          "indexed": true,
          "internalType": "address",
          "name": "sender",
          "type": "address"
        }
      ],
      "name": "RoleGranted",
      "type": "event"
    },
    {
      "anonymous": false,
      "inputs": [
        {
          "indexed": true,
          "internalType": "bytes32",
          "name": "role",
          "type": "bytes32"
        },
        {
          "indexed": true,
          "internalType": "address",
          "name": "account",
          "type": "address"
        },
        {
          "indexed": true,
          "internalType": "address",
          "name": "sender",
          "type": "address"
        }
      ],
      "name": "RoleRevoked",
      "type": "event"
    },
    {
      "inputs": [],
      "name": "DEFAULT_ADMIN_ROLE",
      "outputs": [
        {
          "internalType": "bytes32",
          "name": "",
          "type": "bytes32"
        }
      ],
      "stateMutability": "view",
      "type": "function"
    },
    {
      "inputs": [],
      "name": "ORACLE_ADMIN_ROLE",
      "outputs": [
        {
          "internalType": "bytes32",
          "name": "",
          "type": "bytes32"
        }
      ],
      "stateMutability": "view",
      "type": "function"
    },
    {
      "inputs": [],
      "name": "PRICE_UPDATER_ROLE",
      "outputs": [
        {
          "internalType": "bytes32",
          "name": "",
          "type": "bytes32"
        }
      ],
      "stateMutability": "view",
      "type": "function"
    },
    {
      "inputs": [
        {
          "internalType": "address",
          "name": "updater",
          "type": "address"
        }
      ],
      "name": "addPriceUpdater",
      "outputs": [],
      "stateMutability": "nonpayable",
      "type": "function"
    },
    {
      "inputs": [],
      "name": "callCount",
      "outputs": [
        {
          "internalType": "uint256",
          "name": "",
          "type": "uint256"
        }
      ],
      "stateMutability": "view",
      "type": "function"
    },
    {
      "inputs": [
        {
          "internalType": "address",
          "name": "newAdmin",
          "type": "address"
        }
      ],
      "name": "changeAdmin",
      "outputs": [],
      "stateMutability": "nonpayable",
      "type": "function"
    },
    {
      "inputs": [
        {
          "internalType": "string",
          "name": "",
          "type": "string"
        }
      ],
      "name": "functionCallCount",
      "outputs": [
        {
          "internalType": "uint256",
          "name": "",
          "type": "uint256"
        }
      ],
      "stateMutability": "view",
      "type": "function"
    },
    {
      "inputs": [
        {
          "internalType": "string",
          "name": "functionName",
          "type": "string"
        }
      ],
      "name": "getFunctionCallCount",
      "outputs": [
        {
          "internalType": "uint256",
          "name": "",
          "type": "uint256"
        }
      ],
      "stateMutability": "view",
      "type": "function"
    },
    {
      "inputs": [
        {
          "internalType": "string",
          "name": "functionName",
          "type": "string"
        }
      ],
      "name": "getFunctionCallHistory",
      "outputs": [
        {
          "internalType": "uint256",
          "name": "count",
          "type": "uint256"
        },
        {
          "internalType": "address",
          "name": "lastCaller_",
          "type": "address"
        },
        {
          "internalType": "bytes",
          "name": "lastData",
          "type": "bytes"
        }
      ],
      "stateMutability": "view",
      "type": "function"
    },
    {
      "inputs": [
        {
          "internalType": "address",
          "name": "token",
          "type": "address"
        }
      ],
      "name": "getPrice",
      "outputs": [
        {
          "internalType": "uint256",
          "name": "price",
          "type": "uint256"
        },
        {
          "internalType": "uint256",
          "name": "timestamp",
          "type": "uint256"
        }
      ],
      "stateMutability": "view",
      "type": "function"
    },
    {
      "inputs": [
        {
          "internalType": "bytes32",
          "name": "role",
          "type": "bytes32"
        }
      ],
      "name": "getRoleAdmin",
      "outputs": [
        {
          "internalType": "bytes32",
          "name": "",
          "type": "bytes32"
        }
      ],
      "stateMutability": "view",
      "type": "function"
    },
    {
      "inputs": [
        {
          "internalType": "bytes32",
          "name": "role",
          "type": "bytes32"
        },
        {
          "internalType": "address",
          "name": "account",
          "type": "address"
        }
      ],
      "name": "grantRole",
      "outputs": [],
      "stateMutability": "nonpayable",
      "type": "function"
    },
    {
      "inputs": [
        {
          "internalType": "bytes32",
          "name": "role",
          "type": "bytes32"
        },
        {
          "internalType": "address",
          "name": "account",
          "type": "address"
        }
      ],
      "name": "hasRole",
      "outputs": [
        {
          "internalType": "bool",
          "name": "",
          "type": "bool"
        }
      ],
      "stateMutability": "view",
      "type": "function"
    },
    {
      "inputs": [],
      "name": "initialize",
      "outputs": [],
      "stateMutability": "nonpayable",
      "type": "function"
    },
    {
      "inputs": [],
      "name": "initialized",
      "outputs": [
        {
          "internalType": "bool",
          "name": "",
          "type": "bool"
        }
      ],
      "stateMutability": "view",
      "type": "function"
    },
    {
      "inputs": [
        {
          "internalType": "string",
          "name": "",
          "type": "string"
        }
      ],
      "name": "lastCallData",
      "outputs": [
        {
          "internalType": "bytes",
          "name": "",
          "type": "bytes"
        }
      ],
      "stateMutability": "view",
      "type": "function"
    },
    {
      "inputs": [],
      "name": "lastCaller",
      "outputs": [
        {
          "internalType": "address",
          "name": "",
          "type": "address"
        }
      ],
      "stateMutability": "view",
      "type": "function"
    },
    {
      "inputs": [
        {
          "internalType": "string",
          "name": "",
          "type": "string"
        }
      ],
      "name": "lastCallerByFunction",
      "outputs": [
        {
          "internalType": "address",
          "name": "",
          "type": "address"
        }
      ],
      "stateMutability": "view",
      "type": "function"
    },
    {
      "inputs": [
        {
          "internalType": "address",
          "name": "token",
          "type": "address"
        }
      ],
      "name": "priceExists",
      "outputs": [
        {
          "internalType": "bool",
          "name": "",
          "type": "bool"
        }
      ],
      "stateMutability": "view",
      "type": "function"
    },
    {
      "inputs": [
        {
          "internalType": "address",
          "name": "updater",
          "type": "address"
        }
      ],
      "name": "removePriceUpdater",
      "outputs": [],
      "stateMutability": "nonpayable",
      "type": "function"
    },
    {
      "inputs": [
        {
          "internalType": "bytes32",
          "name": "role",
          "type": "bytes32"
        },
        {
          "internalType": "address",
          "name": "callerConfirmation",
          "type": "address"
        }
      ],
      "name": "renounceRole",
      "outputs": [],
      "stateMutability": "nonpayable",
      "type": "function"
    },
    {
      "inputs": [],
      "name": "reset",
      "outputs": [],
      "stateMutability": "nonpayable",
      "type": "function"
    },
    {
      "inputs": [
        {
          "internalType": "bytes32",
          "name": "role",
          "type": "bytes32"
        },
        {
          "internalType": "address",
          "name": "account",
          "type": "address"
        }
      ],
      "name": "revokeRole",
      "outputs": [],
      "stateMutability": "nonpayable",
      "type": "function"
    },
    {
      "inputs": [
        {
          "internalType": "bytes4",
          "name": "interfaceId",
          "type": "bytes4"
        }
      ],
      "name": "supportsInterface",
      "outputs": [
        {
          "internalType": "bool",
          "name": "",
          "type": "bool"
        }
      ],
      "stateMutability": "view",
      "type": "function"
    },
    {
      "inputs": [
        {
          "internalType": "address",
          "name": "token",
          "type": "address"
        },
        {
          "internalType": "uint256",
          "name": "price",
          "type": "uint256"
        }
      ],
      "name": "updatePrice",
      "outputs": [],
      "stateMutability": "nonpayable",
      "type": "function"
    },
    {
      "inputs": [
        {
          "internalType": "string",
          "name": "functionName",
          "type": "string"
        }
      ],
      "name": "wasFunctionCalled",
      "outputs": [
        {
          "internalType": "bool",
          "name": "",
          "type": "bool"
        }
      ],
      "stateMutability": "view",
      "type": "function"
    }
  ],
  "bytecode": "0x608060405234801561001057600080fd5b503360009081527f5eff886ea0ce6ca488a3d6e336d6c0f75f46d19b42c06ce5ee98e42c96d256c7602090815260408083208054600160ff1991821681179092557f6b0a15754e9b6a1b08d759524360f7455353bdf7d04cf749256b03d247187e8a845282852080548216831790557f909037218f7bdcb89beb6739fad913b8a54fad468c3baad4a3381952f8109d1590935290832080549092161790556111919081906100be90396000f3fe608060405234801561001057600080fd5b506004361061018e5760003560e01c8063457972de116100de578063a217fddf11610097578063d826f88f11610071578063d826f88f146103fe578063dfdbdd5014610406578063e88456e714610426578063fb8d81011461043957600080fd5b8063a217fddf146103d0578063c054c6ce146103d8578063d547741f146103eb57600080fd5b8063457972de1461034b5780634b28f9a21461035e5780638003a94f146103675780638129fc1c1461037c5780638f2839701461038457806391d148541461039757600080fd5b80632df311081161014b578063378feed011610125578063378feed0146102ab5780633ca3910c146102d657806341976e09146102f8578063422b010b1461032057600080fd5b80632df31108146102705780632f2ff15d1461028557806336568abe1461029857600080fd5b806301ffc9a714610193578063158ef93e146101bb5780631a82a643146101c85780631df86bc6146101e95780632113522a14610235578063248a9ca31461024d575b600080fd5b6101a66101a1366004610d5a565b61044e565b60405190151581526020015b60405180910390f35b6001546101a69060ff1681565b6101db6101d6366004610da1565b610485565b6040519081526020016101b2565b61021d6101f7366004610da1565b80516020818301810180516005825292820191909301209152546001600160a01b031681565b6040516001600160a01b0390911681526020016101b2565b60015461021d9061010090046001600160a01b031681565b6101db61025b366004610e52565b60009081526020819052604090206001015490565b61028361027e366004610e87565b6104ad565b005b610283610293366004610ea2565b610578565b6102836102a6366004610ea2565b6105a3565b6101a66102b9366004610e87565b6001600160a01b0316600090815260066020526040902054151590565b6102e96102e4366004610da1565b6105db565b6040516101b293929190610f1e565b61030b610306366004610e87565b6106de565b604080519283526020830191909152016101b2565b6101db61032e366004610da1565b805160208183018101805160038252928201919093012091525481565b610283610359366004610f51565b610764565b6101db60025481565b6101db60008051602061111c83398151915281565b61028361082e565b610283610392366004610e87565b6108ba565b6101a66103a5366004610ea2565b60009182526008602090815260408084206001600160a01b0393909316845291905290205460ff1690565b6101db600081565b6101a66103e6366004610da1565b610983565b6102836103f9366004610ea2565b6109ad565b6102836109d2565b610419610414366004610da1565b610a1e565b6040516101b29190610f7b565b610283610434366004610e87565b610ac3565b6101db60008051602061113c83398151915281565b60006001600160e01b03198216637965db0b60e01b148061047f57506301ffc9a760e01b6001600160e01b03198316145b92915050565b60006003826040516104979190610f8e565b9081526020016040518091039020549050919050565b60008051602061111c8339815191526104c581610b77565b610527604051806040016040528060128152602001713932b6b7bb32a83934b1b2aab83230ba32b960711b8152508360405160200161051391906001600160a01b0391909116815260200190565b604051602081830303815290604052610b84565b61053f60008051602061113c83398151915283610ca2565b506040516001600160a01b038316907fff7dbb85c77ca68ca1f894d6498570e3d5095cd19466f07ee8d222b337e4068c90600090a25050565b60008281526020819052604090206001015461059381610b77565b61059d8383610cd0565b50505050565b6001600160a01b03811633146105cc5760405163334bd91960e11b815260040160405180910390fd5b6105d68282610ca2565b505050565b60008060606003846040516105f09190610f8e565b90815260200160405180910390205460058560405161060f9190610f8e565b908152604051908190036020018120546001600160a01b031690600490610637908890610f8e565b908152602001604051809103902080805461065190610faa565b80601f016020809104026020016040519081016040528092919081815260200182805461067d90610faa565b80156106ca5780601f1061069f576101008083540402835291602001916106ca565b820191906000526020600020905b8154815290600101906020018083116106ad57829003601f168201915b505050505090509250925092509193909250565b6001600160a01b038116600090815260066020526040812054819061073a5760405162461bcd60e51b815260206004820152600d60248201526c141c9a58d9481b9bdd081cd95d609a1b60448201526064015b60405180910390fd5b50506001600160a01b03166000908152600660209081526040808320546007909252909120549091565b60008051602061113c83398151915261077c81610b77565b6107ca6040518060400160405280600b81526020016a757064617465507269636560a81b81525084846040516020016105139291906001600160a01b03929092168252602082015260400190565b6001600160a01b0383166000818152600660209081526040808320869055600782529182902042908190558251868152918201527fb556fac599c3c70efb9ab1fa725ecace6c81cc48d1455f886607def065f3e0c0910160405180910390a2505050565b60015460ff16156108815760405162461bcd60e51b815260206004820152601d60248201527f426173654d6f636b3a20616c726561647920696e697469616c697a65640000006044820152606401610731565b6001805460ff19168117905560405133907f30f7074e868351008998491171b433e7342f255e986fef03e5eec84f01786f0190600090a2565b60008051602061111c8339815191526108d281610b77565b6109196040518060400160405280600b81526020016a31b430b733b2a0b236b4b760a91b8152508360405160200161051391906001600160a01b0391909116815260200190565b61093160008051602061111c83398151915233610ca2565b5061094a60008051602061111c83398151915283610cd0565b506040516001600160a01b038316907f81907b450dd6897d1753f2d7f877a6821680fed0e8660b7d87d377dee86a72cb90600090a25050565b6000806003836040516109969190610f8e565b908152602001604051809103902054119050919050565b6000828152602081905260409020600101546109c881610b77565b61059d8383610ca2565b60006109dd81610b77565b600180546001600160a81b0319169055600060028190556040517f47f78a7a0acc7fff3657157dc253c5e6a68550995cc6f47bc2bd707ec67370fb9190a150565b805160208183018101805160048252928201919093012091528054610a4290610faa565b80601f0160208091040260200160405190810160405280929190818152602001828054610a6e90610faa565b8015610abb5780601f10610a9057610100808354040283529160200191610abb565b820191906000526020600020905b815481529060010190602001808311610a9e57829003601f168201915b505050505081565b60008051602061111c833981519152610adb81610b77565b610b266040518060400160405280600f81526020016e30b232283934b1b2aab83230ba32b960891b8152508360405160200161051391906001600160a01b0391909116815260200190565b610b3e60008051602061113c83398151915283610cd0565b506040516001600160a01b038316907f5104d28bdf2a63480d70f73ae04afa86476ff93d6306f6d13c6f85eb593c472690600090a25050565b610b818133610d01565b50565b600382604051610b949190610f8e565b9081526040519081900360200190208054906000610bb183610fe4565b919050555080600483604051610bc79190610f8e565b90815260200160405180910390209081610be1919061105b565b5033600583604051610bf39190610f8e565b90815260405160209181900391909101902080546001600160a01b0319166001600160a01b039290921691909117905560018054610100600160a81b031916610100330217905560028054906000610c4a83610fe4565b90915550506040513390610c5f908490610f8e565b60405180910390207f16b892c3de2f4b54dc114eff5c76ead156bac210353ee82615752957e1317df183604051610c969190610f7b565b60405180910390a35050565b60009182526008602090815260408084206001600160a01b0390931684529190528120805460ff1916905590565b60009182526008602090815260408084206001600160a01b0390931684529190528120805460ff1916600117905590565b60008281526008602090815260408083206001600160a01b038516845290915290205460ff16610d565760405163e2517d3f60e01b81526001600160a01b038216600482015260248101839052604401610731565b5050565b600060208284031215610d6c57600080fd5b81356001600160e01b031981168114610d8457600080fd5b9392505050565b634e487b7160e01b600052604160045260246000fd5b600060208284031215610db357600080fd5b813567ffffffffffffffff80821115610dcb57600080fd5b818401915084601f830112610ddf57600080fd5b813581811115610df157610df1610d8b565b604051601f8201601f19908116603f01168101908382118183101715610e1957610e19610d8b565b81604052828152876020848701011115610e3257600080fd5b826020860160208301376000928101602001929092525095945050505050565b600060208284031215610e6457600080fd5b5035919050565b80356001600160a01b0381168114610e8257600080fd5b919050565b600060208284031215610e9957600080fd5b610d8482610e6b565b60008060408385031215610eb557600080fd5b82359150610ec560208401610e6b565b90509250929050565b60005b83811015610ee9578181015183820152602001610ed1565b50506000910152565b60008151808452610f0a816020860160208601610ece565b601f01601f19169290920160200192915050565b8381526001600160a01b0383166020820152606060408201819052600090610f4890830184610ef2565b95945050505050565b60008060408385031215610f6457600080fd5b610f6d83610e6b565b946020939093013593505050565b602081526000610d846020830184610ef2565b60008251610fa0818460208701610ece565b9190910192915050565b600181811c90821680610fbe57607f821691505b602082108103610fde57634e487b7160e01b600052602260045260246000fd5b50919050565b60006001820161100457634e487b7160e01b600052601160045260246000fd5b5060010190565b601f8211156105d6576000816000526020600020601f850160051c810160208610156110345750805b601f850160051c820191505b8181101561105357828155600101611040565b505050505050565b815167ffffffffffffffff81111561107557611075610d8b565b611089816110838454610faa565b8461100b565b602080601f8311600181146110be57600084156110a65750858301515b600019600386901b1c1916600185901b178555611053565b600085815260208120601f198616915b828110156110ed578886015182559484019460019091019084016110ce565b508582101561110b5787850151600019600388901b60f8161c191681555b5050505050600190811b0190555056fec307c44629779eb8fc0b85f224c3d22f5876a6c84de0ee42d481eb7814f0d3a8d96ba01d6560c2ab35f2940dd8d70c5f5fe06236c72674237120515918198fb0a26469706673582212203823e46569aa7e16fe4a0c44f64be4aabaf11ed661219c0461a18b9508b7b79764736f6c63430008180033",
  "linkReferences": {},
  "deployedLinkReferences": {}
}