{
  "_format": "hh-sol-artifact-1",
  "contractName": "MockPreviousVersionDAO",
  "sourceName": "contracts/mocks/MockPreviousVersionDAO.sol",
  "abi": [
    {
      "inputs": [],
      "stateMutability": "nonpayable",
      "type": "constructor"
    },
    {
      "inputs": [],
      "name": "InvalidAmount",
      "type": "error"
    },
    {
      "inputs": [],
      "name": "OperationFailed",
      "type": "error"
    },
    {
      "inputs": [
        {
          "internalType": "address",
          "name": "owner",
          "type": "address"
        }
      ],
      "name": "OwnableInvalidOwner",
      "type": "error"
    },
    {
      "inputs": [
        {
          "internalType": "address",
          "name": "account",
          "type": "address"
        }
      ],
      "name": "OwnableUnauthorizedAccount",
      "type": "error"
    },
    {
      "inputs": [],
      "name": "TokenTransferFailed",
      "type": "error"
    },
    {
      "inputs": [],
      "name": "ZeroAddress",
      "type": "error"
    },
    {
      "anonymous": false,
      "inputs": [
        {
          "indexed": false,
          "internalType": "address",
          "name": "token",
          "type": "address"
        },
        {
          "indexed": false,
          "internalType": "address",
          "name": "from",
          "type": "address"
        },
        {
          "indexed": false,
          "internalType": "address",
          "name": "to",
          "type": "address"
        },
        {
          "indexed": false,
          "internalType": "uint256",
          "name": "amount",
          "type": "uint256"
        },
        {
          "indexed": false,
          "internalType": "string",
          "name": "purpose",
          "type": "string"
        }
      ],
      "name": "ApprovalUsed",
      "type": "event"
    },
    {
      "anonymous": false,
      "inputs": [
        {
          "indexed": true,
          "internalType": "address",
          "name": "previousOwner",
          "type": "address"
        },
        {
          "indexed": true,
          "internalType": "address",
          "name": "newOwner",
          "type": "address"
        }
      ],
      "name": "OwnershipTransferred",
      "type": "event"
    },
    {
      "inputs": [
        {
          "internalType": "address",
          "name": "",
          "type": "address"
        },
        {
          "internalType": "address",
          "name": "",
          "type": "address"
        }
      ],
      "name": "delegatedAccounts",
      "outputs": [
        {
          "internalType": "bool",
          "name": "",
          "type": "bool"
        }
      ],
      "stateMutability": "view",
      "type": "function"
    },
    {
      "inputs": [
        {
          "internalType": "address",
          "name": "token",
          "type": "address"
        },
        {
          "internalType": "address",
          "name": "spender",
          "type": "address"
        },
        {
          "internalType": "uint256",
          "name": "amount",
          "type": "uint256"
        }
      ],
      "name": "legacyApprove",
      "outputs": [],
      "stateMutability": "nonpayable",
      "type": "function"
    },
    {
      "inputs": [
        {
          "internalType": "address",
          "name": "token",
          "type": "address"
        },
        {
          "internalType": "address",
          "name": "owner",
          "type": "address"
        },
        {
          "internalType": "address",
          "name": "spender",
          "type": "address"
        }
      ],
      "name": "legacyCheckAllowance",
      "outputs": [
        {
          "internalType": "uint256",
          "name": "",
          "type": "uint256"
        }
      ],
      "stateMutability": "view",
      "type": "function"
    },
    {
      "inputs": [],
      "name": "owner",
      "outputs": [
        {
          "internalType": "address",
          "name": "",
          "type": "address"
        }
      ],
      "stateMutability": "view",
      "type": "function"
    },
    {
      "inputs": [],
      "name": "renounceOwnership",
      "outputs": [],
      "stateMutability": "nonpayable",
      "type": "function"
    },
    {
      "inputs": [
        {
          "internalType": "address",
          "name": "token",
          "type": "address"
        },
        {
          "internalType": "address",
          "name": "account",
          "type": "address"
        },
        {
          "internalType": "bool",
          "name": "status",
          "type": "bool"
        }
      ],
      "name": "setDelegatedAccount",
      "outputs": [],
      "stateMutability": "nonpayable",
      "type": "function"
    },
    {
      "inputs": [
        {
          "internalType": "address",
          "name": "newOwner",
          "type": "address"
        }
      ],
      "name": "transferOwnership",
      "outputs": [],
      "stateMutability": "nonpayable",
      "type": "function"
    },
    {
      "inputs": [
        {
          "internalType": "address",
          "name": "token",
          "type": "address"
        },
        {
          "internalType": "address",
          "name": "from",
          "type": "address"
        },
        {
          "internalType": "address",
          "name": "to",
          "type": "address"
        },
        {
          "internalType": "uint256",
          "name": "amount",
          "type": "uint256"
        }
      ],
      "name": "useApproval",
      "outputs": [
        {
          "internalType": "bool",
          "name": "",
          "type": "bool"
        }
      ],
      "stateMutability": "nonpayable",
      "type": "function"
    }
  ],
  "bytecode": "0x608060405234801561001057600080fd5b50338061003757604051631e4fbdf760e01b81526000600482015260240160405180910390fd5b61004081610046565b50610096565b600080546001600160a01b038381166001600160a01b0319831681178455604051919092169283917f8be0079c531659141344cd1fd0a4f28419497f9722a3daafe3b4186f6b6457e09190a35050565b61072d806100a56000396000f3fe608060405234801561001057600080fd5b50600436106100885760003560e01c8063cd730c461161005b578063cd730c46146100dd578063f2fde38b1461011b578063f407780a1461012e578063f562d18d1461014f57600080fd5b80632f1b6db81461008d5780633cc9328f146100a2578063715018a6146100b55780638da5cb5b146100bd575b600080fd5b6100a061009b36600461054d565b610162565b005b6100a06100b0366004610597565b610207565b6100a0610249565b6000546040516001600160a01b0390911681526020015b60405180910390f35b61010b6100eb3660046105de565b600160209081526000928352604080842090915290825290205460ff1681565b60405190151581526020016100d4565b6100a0610129366004610611565b61025d565b61014161013c366004610633565b6102a0565b6040519081526020016100d4565b61010b61015d366004610676565b61031e565b61016a6104b4565b60405163095ea7b360e01b81526001600160a01b038381166004830152602482018390526000919085169063095ea7b3906044016020604051808303816000875af11580156101bd573d6000803e3d6000fd5b505050506040513d601f19601f820116820180604052508101906101e191906106c1565b905080610201576040516301b2776960e11b815260040160405180910390fd5b50505050565b61020f6104b4565b6001600160a01b03928316600090815260016020908152604080832094909516825292909252919020805460ff1916911515919091179055565b6102516104b4565b61025b60006104e1565b565b6102656104b4565b6001600160a01b03811661029457604051631e4fbdf760e01b8152600060048201526024015b60405180910390fd5b61029d816104e1565b50565b604051636eb1769f60e11b81526001600160a01b03838116600483015282811660248301526000919085169063dd62ed3e90604401602060405180830381865afa1580156102f2573d6000803e3d6000fd5b505050506040513d601f19601f8201168201806040525081019061031691906106de565b949350505050565b60006001600160a01b0385166103475760405163d92e233d60e01b815260040160405180910390fd5b6001600160a01b03831661036e5760405163d92e233d60e01b815260040160405180910390fd5b8160000361038f5760405163162908e360e11b815260040160405180910390fd5b6040516323b872dd60e01b81526001600160a01b038581166004830152848116602483015260448201849052600091908716906323b872dd906064016020604051808303816000875af11580156103ea573d6000803e3d6000fd5b505050506040513d601f19601f8201168201806040525081019061040e91906106c1565b90508061042e5760405163022e258160e11b815260040160405180910390fd5b604080516001600160a01b03888116825287811660208301528616818301526060810185905260a0608082018190526010908201526f2632b3b0b1bc9037b832b930ba34b7b760811b60c082015290517f70b85ecebb067ffa2af7b95f6bcea3d198320cb01f8a2c8f0e33e187a093af099181900360e00190a150600195945050505050565b6000546001600160a01b0316331461025b5760405163118cdaa760e01b815233600482015260240161028b565b600080546001600160a01b038381166001600160a01b0319831681178455604051919092169283917f8be0079c531659141344cd1fd0a4f28419497f9722a3daafe3b4186f6b6457e09190a35050565b80356001600160a01b038116811461054857600080fd5b919050565b60008060006060848603121561056257600080fd5b61056b84610531565b925061057960208501610531565b9150604084013590509250925092565b801515811461029d57600080fd5b6000806000606084860312156105ac57600080fd5b6105b584610531565b92506105c360208501610531565b915060408401356105d381610589565b809150509250925092565b600080604083850312156105f157600080fd5b6105fa83610531565b915061060860208401610531565b90509250929050565b60006020828403121561062357600080fd5b61062c82610531565b9392505050565b60008060006060848603121561064857600080fd5b61065184610531565b925061065f60208501610531565b915061066d60408501610531565b90509250925092565b6000806000806080858703121561068c57600080fd5b61069585610531565b93506106a360208601610531565b92506106b160408601610531565b9396929550929360600135925050565b6000602082840312156106d357600080fd5b815161062c81610589565b6000602082840312156106f057600080fd5b505191905056fea26469706673582212203e34fab999f6e1cd8dfda2543a9195b4b8af7fad718c46cc7a7b38923a40e67564736f6c63430008180033",
  "linkReferences": {},
  "deployedLinkReferences": {}
}