{
  "_format": "hh-sol-artifact-1",
  "contractName": "MockAggregator",
  "sourceName": "contracts/mocks/MockAggregator.sol",
  "abi": [
    {
      "inputs": [],
      "stateMutability": "nonpayable",
      "type": "constructor"
    },
    {
      "inputs": [],
      "name": "InvalidPrice",
      "type": "error"
    },
    {
      "inputs": [],
      "name": "InvalidTimestamp",
      "type": "error"
    },
    {
      "inputs": [],
      "name": "NotImplemented",
      "type": "error"
    },
    {
      "anonymous": false,
      "inputs": [
        {
          "indexed": true,
          "internalType": "int256",
          "name": "price",
          "type": "int256"
        },
        {
          "indexed": false,
          "internalType": "uint256",
          "name": "timestamp",
          "type": "uint256"
        }
      ],
      "name": "PriceUpdated",
      "type": "event"
    },
    {
      "anonymous": false,
      "inputs": [
        {
          "indexed": false,
          "internalType": "uint256",
          "name": "timestamp",
          "type": "uint256"
        }
      ],
      "name": "TimestampUpdated",
      "type": "event"
    },
    {
      "anonymous": false,
      "inputs": [
        {
          "indexed": false,
          "internalType": "uint256",
          "name": "newVersion",
          "type": "uint256"
        }
      ],
      "name": "VersionUpdated",
      "type": "event"
    },
    {
      "inputs": [],
      "name": "decimals",
      "outputs": [
        {
          "internalType": "uint8",
          "name": "",
          "type": "uint8"
        }
      ],
      "stateMutability": "view",
      "type": "function"
    },
    {
      "inputs": [],
      "name": "description",
      "outputs": [
        {
          "internalType": "string",
          "name": "",
          "type": "string"
        }
      ],
      "stateMutability": "view",
      "type": "function"
    },
    {
      "inputs": [
        {
          "internalType": "uint80",
          "name": "",
          "type": "uint80"
        }
      ],
      "name": "getRoundData",
      "outputs": [
        {
          "internalType": "uint80",
          "name": "",
          "type": "uint80"
        },
        {
          "internalType": "int256",
          "name": "",
          "type": "int256"
        },
        {
          "internalType": "uint256",
          "name": "",
          "type": "uint256"
        },
        {
          "internalType": "uint256",
          "name": "",
          "type": "uint256"
        },
        {
          "internalType": "uint80",
          "name": "",
          "type": "uint80"
        }
      ],
      "stateMutability": "pure",
      "type": "function"
    },
    {
      "inputs": [],
      "name": "latestRoundData",
      "outputs": [
        {
          "internalType": "uint80",
          "name": "roundId",
          "type": "uint80"
        },
        {
          "internalType": "int256",
          "name": "answer",
          "type": "int256"
        },
        {
          "internalType": "uint256",
          "name": "startedAt",
          "type": "uint256"
        },
        {
          "internalType": "uint256",
          "name": "updatedAt",
          "type": "uint256"
        },
        {
          "internalType": "uint80",
          "name": "answeredInRound",
          "type": "uint80"
        }
      ],
      "stateMutability": "view",
      "type": "function"
    },
    {
      "inputs": [
        {
          "internalType": "int256",
          "name": "_price",
          "type": "int256"
        }
      ],
      "name": "setPrice",
      "outputs": [],
      "stateMutability": "nonpayable",
      "type": "function"
    },
    {
      "inputs": [
        {
          "internalType": "uint256",
          "name": "timestamp",
          "type": "uint256"
        }
      ],
      "name": "setUpdatedAt",
      "outputs": [],
      "stateMutability": "nonpayable",
      "type": "function"
    },
    {
      "inputs": [
        {
          "internalType": "uint256",
          "name": "newVersion",
          "type": "uint256"
        }
      ],
      "name": "updateVersion",
      "outputs": [],
      "stateMutability": "nonpayable",
      "type": "function"
    },
    {
      "inputs": [],
      "name": "version",
      "outputs": [
        {
          "internalType": "uint256",
          "name": "",
          "type": "uint256"
        }
      ],
      "stateMutability": "view",
      "type": "function"
    }
  ],
  "bytecode": "0x608060405234801561001057600080fd5b506000805460ff191660081790556402540be4006001554260025560408051808201909152601981527f4d6f636b20436861696e6c696e6b2041676772656761746f7200000000000000602082015260039061006c9082610118565b5060026004556101d7565b634e487b7160e01b600052604160045260246000fd5b600181811c908216806100a157607f821691505b6020821081036100c157634e487b7160e01b600052602260045260246000fd5b50919050565b601f821115610113576000816000526020600020601f850160051c810160208610156100f05750805b601f850160051c820191505b8181101561010f578281556001016100fc565b5050505b505050565b81516001600160401b0381111561013157610131610077565b6101458161013f845461008d565b846100c7565b602080601f83116001811461017a57600084156101625750858301515b600019600386901b1c1916600185901b17855561010f565b600085815260208120601f198616915b828110156101a95788860151825594840194600190910190840161018a565b50858210156101c75787850151600019600388901b60f8161c191681555b5050505050600190811b01905550565b610419806101e66000396000f3fe608060405234801561001057600080fd5b50600436106100885760003560e01c80639a6fc8f51161005b5780639a6fc8f5146100ec578063a87f884e14610136578063f7a3080614610149578063feaf968c1461015c57600080fd5b80631ecc7d881461008d578063313ce567146100a257806354fd4d50146100c65780637284e416146100d7575b600080fd5b6100a061009b36600461030e565b61016a565b005b6000546100af9060ff1681565b60405160ff90911681526020015b60405180910390f35b6004546040519081526020016100bd565b6100df6101c7565b6040516100bd9190610327565b6100ff6100fa366004610376565b610255565b6040805169ffffffffffffffffffff968716815260208101959095528401929092526060830152909116608082015260a0016100bd565b6100a061014436600461030e565b610276565b6100a061015736600461030e565b6102ab565b6001546000908180806100ff565b4281111561018b5760405163b7d0949760e01b815260040160405180910390fd5b60028190556040518181527f23d74789e9e72a6c6bd7bef034f43002da342ca24d96afca64e4a4272af52318906020015b60405180910390a150565b600380546101d4906103a9565b80601f0160208091040260200160405190810160405280929190818152602001828054610200906103a9565b801561024d5780601f106102225761010080835404028352916020019161024d565b820191906000526020600020905b81548152906001019060200180831161023057829003601f168201915b505050505081565b600080600080600060405163d623472560e01b815260040160405180910390fd5b60048190556040518181527f59db93bc99b9f7969498ee07cf8b31f5dd3c7b7c4dec295bd27c025ecafc8d20906020016101bc565b600081136102cb5760405162bfc92160e01b815260040160405180910390fd5b600181905542600281905560405190815281907fdb6fb3cf4cc5fb760bcd63b958a53b2396776dff32c063188e864296541e76bd9060200160405180910390a250565b60006020828403121561032057600080fd5b5035919050565b60006020808352835180602085015260005b8181101561035557858101830151858201604001528201610339565b506000604082860101526040601f19601f8301168501019250505092915050565b60006020828403121561038857600080fd5b813569ffffffffffffffffffff811681146103a257600080fd5b9392505050565b600181811c908216806103bd57607f821691505b6020821081036103dd57634e487b7160e01b600052602260045260246000fd5b5091905056fea2646970667358221220f9048f66595fe7681b20c90c7290f760cd76b77b281bd8a95c54c533e6defad564736f6c63430008180033",
  "linkReferences": {},
  "deployedLinkReferences": {}
}