{
  "_format": "hh-sol-artifact-1",
  "contractName": "MockChainlinkAggregator",
  "sourceName": "contracts/mocks/MockChainlinkAggregator.sol",
  "abi": [
    {
      "inputs": [
        {
          "internalType": "uint8",
          "name": "decimals_",
          "type": "uint8"
        },
        {
          "internalType": "int256",
          "name": "initialAnswer",
          "type": "int256"
        }
      ],
      "stateMutability": "nonpayable",
      "type": "constructor"
    },
    {
      "inputs": [],
      "name": "AccessControlBadConfirmation",
      "type": "error"
    },
    {
      "inputs": [
        {
          "internalType": "address",
          "name": "account",
          "type": "address"
        },
        {
          "internalType": "bytes32",
          "name": "neededRole",
          "type": "bytes32"
        }
      ],
      "name": "AccessControlUnauthorizedAccount",
      "type": "error"
    },
    {
      "anonymous": false,
      "inputs": [
        {
          "indexed": true,
          "internalType": "int256",
          "name": "current",
          "type": "int256"
        },
        {
          "indexed": true,
          "internalType": "uint256",
          "name": "roundId",
          "type": "uint256"
        },
        {
          "indexed": false,
          "internalType": "uint256",
          "name": "updatedAt",
          "type": "uint256"
        }
      ],
      "name": "AnswerUpdated",
      "type": "event"
    },
    {
      "anonymous": false,
      "inputs": [],
      "name": "FallbackSimulated",
      "type": "event"
    },
    {
      "anonymous": false,
      "inputs": [
        {
          "indexed": false,
          "internalType": "uint256",
          "name": "newHeartbeat",
          "type": "uint256"
        }
      ],
      "name": "HeartbeatUpdated",
      "type": "event"
    },
    {
      "anonymous": false,
      "inputs": [
        {
          "indexed": true,
          "internalType": "string",
          "name": "functionName",
          "type": "string"
        },
        {
          "indexed": true,
          "internalType": "address",
          "name": "caller",
          "type": "address"
        },
        {
          "indexed": false,
          "internalType": "bytes",
          "name": "data",
          "type": "bytes"
        }
      ],
      "name": "MockFunctionCalled",
      "type": "event"
    },
    {
      "anonymous": false,
      "inputs": [
        {
          "indexed": true,
          "internalType": "address",
          "name": "caller",
          "type": "address"
        }
      ],
      "name": "MockInitialized",
      "type": "event"
    },
    {
      "anonymous": false,
      "inputs": [],
      "name": "MockStateReset",
      "type": "event"
    },
    {
      "anonymous": false,
      "inputs": [
        {
          "indexed": false,
          "internalType": "uint8",
          "name": "newScore",
          "type": "uint8"
        }
      ],
      "name": "ReliabilityScoreUpdated",
      "type": "event"
    },
    {
      "anonymous": false,
      "inputs": [
        {
          "indexed": true,
          "internalType": "bytes32",
          "name": "role",
          "type": "bytes32"
        },
        {
          "indexed": true,
          "internalType": "bytes32",
          "name": "previousAdminRole",
          "type": "bytes32"
        },
        {
          "indexed": true,
          "internalType": "bytes32",
          "name": "newAdminRole",
          "type": "bytes32"
        }
      ],
      "name": "RoleAdminChanged",
      "type": "event"
    },
    {
      "anonymous": false,
      "inputs": [
        {
          "indexed": true,
          "internalType": "bytes32",
          "name": "role",
          "type": "bytes32"
        },
        {
          "indexed": true,
          "internalType": "address",
          "name": "account",
          "type": "address"
        },
        {
          "indexed": true,
          "internalType": "address",
          "name": "sender",
          "type": "address"
        }
      ],
      "name": "RoleGranted",
      "type": "event"
    },
    {
      "anonymous": false,
      "inputs": [
        {
          "indexed": true,
          "internalType": "bytes32",
          "name": "role",
          "type": "bytes32"
        },
        {
          "indexed": true,
          "internalType": "address",
          "name": "account",
          "type": "address"
        },
        {
          "indexed": true,
          "internalType": "address",
          "name": "sender",
          "type": "address"
        }
      ],
      "name": "RoleRevoked",
      "type": "event"
    },
    {
      "anonymous": false,
      "inputs": [
        {
          "indexed": false,
          "internalType": "uint256",
          "name": "simulatedTimestamp",
          "type": "uint256"
        }
      ],
      "name": "StalenessSimulated",
      "type": "event"
    },
    {
      "inputs": [],
      "name": "DEFAULT_ADMIN_ROLE",
      "outputs": [
        {
          "internalType": "bytes32",
          "name": "",
          "type": "bytes32"
        }
      ],
      "stateMutability": "view",
      "type": "function"
    },
    {
      "inputs": [],
      "name": "callCount",
      "outputs": [
        {
          "internalType": "uint256",
          "name": "",
          "type": "uint256"
        }
      ],
      "stateMutability": "view",
      "type": "function"
    },
    {
      "inputs": [],
      "name": "decimals",
      "outputs": [
        {
          "internalType": "uint8",
          "name": "",
          "type": "uint8"
        }
      ],
      "stateMutability": "view",
      "type": "function"
    },
    {
      "inputs": [
        {
          "internalType": "string",
          "name": "",
          "type": "string"
        }
      ],
      "name": "functionCallCount",
      "outputs": [
        {
          "internalType": "uint256",
          "name": "",
          "type": "uint256"
        }
      ],
      "stateMutability": "view",
      "type": "function"
    },
    {
      "inputs": [
        {
          "internalType": "string",
          "name": "functionName",
          "type": "string"
        }
      ],
      "name": "getFunctionCallCount",
      "outputs": [
        {
          "internalType": "uint256",
          "name": "",
          "type": "uint256"
        }
      ],
      "stateMutability": "view",
      "type": "function"
    },
    {
      "inputs": [
        {
          "internalType": "string",
          "name": "functionName",
          "type": "string"
        }
      ],
      "name": "getFunctionCallHistory",
      "outputs": [
        {
          "internalType": "uint256",
          "name": "count",
          "type": "uint256"
        },
        {
          "internalType": "address",
          "name": "lastCaller_",
          "type": "address"
        },
        {
          "internalType": "bytes",
          "name": "lastData",
          "type": "bytes"
        }
      ],
      "stateMutability": "view",
      "type": "function"
    },
    {
      "inputs": [
        {
          "internalType": "bytes32",
          "name": "role",
          "type": "bytes32"
        }
      ],
      "name": "getRoleAdmin",
      "outputs": [
        {
          "internalType": "bytes32",
          "name": "",
          "type": "bytes32"
        }
      ],
      "stateMutability": "view",
      "type": "function"
    },
    {
      "inputs": [
        {
          "internalType": "bytes32",
          "name": "role",
          "type": "bytes32"
        },
        {
          "internalType": "address",
          "name": "account",
          "type": "address"
        }
      ],
      "name": "grantRole",
      "outputs": [],
      "stateMutability": "nonpayable",
      "type": "function"
    },
    {
      "inputs": [
        {
          "internalType": "bytes32",
          "name": "role",
          "type": "bytes32"
        },
        {
          "internalType": "address",
          "name": "account",
          "type": "address"
        }
      ],
      "name": "hasRole",
      "outputs": [
        {
          "internalType": "bool",
          "name": "",
          "type": "bool"
        }
      ],
      "stateMutability": "view",
      "type": "function"
    },
    {
      "inputs": [],
      "name": "heartbeat",
      "outputs": [
        {
          "internalType": "uint256",
          "name": "",
          "type": "uint256"
        }
      ],
      "stateMutability": "view",
      "type": "function"
    },
    {
      "inputs": [],
      "name": "initialize",
      "outputs": [],
      "stateMutability": "nonpayable",
      "type": "function"
    },
    {
      "inputs": [],
      "name": "initialized",
      "outputs": [
        {
          "internalType": "bool",
          "name": "",
          "type": "bool"
        }
      ],
      "stateMutability": "view",
      "type": "function"
    },
    {
      "inputs": [
        {
          "internalType": "string",
          "name": "",
          "type": "string"
        }
      ],
      "name": "lastCallData",
      "outputs": [
        {
          "internalType": "bytes",
          "name": "",
          "type": "bytes"
        }
      ],
      "stateMutability": "view",
      "type": "function"
    },
    {
      "inputs": [],
      "name": "lastCaller",
      "outputs": [
        {
          "internalType": "address",
          "name": "",
          "type": "address"
        }
      ],
      "stateMutability": "view",
      "type": "function"
    },
    {
      "inputs": [
        {
          "internalType": "string",
          "name": "",
          "type": "string"
        }
      ],
      "name": "lastCallerByFunction",
      "outputs": [
        {
          "internalType": "address",
          "name": "",
          "type": "address"
        }
      ],
      "stateMutability": "view",
      "type": "function"
    },
    {
      "inputs": [],
      "name": "latestRoundData",
      "outputs": [
        {
          "internalType": "uint80",
          "name": "roundId",
          "type": "uint80"
        },
        {
          "internalType": "int256",
          "name": "answer",
          "type": "int256"
        },
        {
          "internalType": "uint256",
          "name": "startedAt",
          "type": "uint256"
        },
        {
          "internalType": "uint256",
          "name": "updatedAt",
          "type": "uint256"
        },
        {
          "internalType": "uint80",
          "name": "answeredInRound",
          "type": "uint80"
        }
      ],
      "stateMutability": "view",
      "type": "function"
    },
    {
      "inputs": [],
      "name": "reliabilityScore",
      "outputs": [
        {
          "internalType": "uint8",
          "name": "",
          "type": "uint8"
        }
      ],
      "stateMutability": "view",
      "type": "function"
    },
    {
      "inputs": [
        {
          "internalType": "bytes32",
          "name": "role",
          "type": "bytes32"
        },
        {
          "internalType": "address",
          "name": "callerConfirmation",
          "type": "address"
        }
      ],
      "name": "renounceRole",
      "outputs": [],
      "stateMutability": "nonpayable",
      "type": "function"
    },
    {
      "inputs": [],
      "name": "reset",
      "outputs": [],
      "stateMutability": "nonpayable",
      "type": "function"
    },
    {
      "inputs": [
        {
          "internalType": "bytes32",
          "name": "role",
          "type": "bytes32"
        },
        {
          "internalType": "address",
          "name": "account",
          "type": "address"
        }
      ],
      "name": "revokeRole",
      "outputs": [],
      "stateMutability": "nonpayable",
      "type": "function"
    },
    {
      "inputs": [
        {
          "internalType": "int256",
          "name": "newAnswer",
          "type": "int256"
        }
      ],
      "name": "setAnswer",
      "outputs": [],
      "stateMutability": "nonpayable",
      "type": "function"
    },
    {
      "inputs": [
        {
          "internalType": "uint8",
          "name": "newDecimals",
          "type": "uint8"
        }
      ],
      "name": "setDecimals",
      "outputs": [],
      "stateMutability": "nonpayable",
      "type": "function"
    },
    {
      "inputs": [
        {
          "internalType": "uint256",
          "name": "newHeartbeat",
          "type": "uint256"
        }
      ],
      "name": "setHeartbeat",
      "outputs": [],
      "stateMutability": "nonpayable",
      "type": "function"
    },
    {
      "inputs": [
        {
          "internalType": "uint8",
          "name": "newScore",
          "type": "uint8"
        }
      ],
      "name": "setReliabilityScore",
      "outputs": [],
      "stateMutability": "nonpayable",
      "type": "function"
    },
    {
      "inputs": [
        {
          "internalType": "uint256",
          "name": "newTimestamp",
          "type": "uint256"
        }
      ],
      "name": "setTimestamp",
      "outputs": [],
      "stateMutability": "nonpayable",
      "type": "function"
    },
    {
      "inputs": [],
      "name": "simulateFallback",
      "outputs": [],
      "stateMutability": "nonpayable",
      "type": "function"
    },
    {
      "inputs": [
        {
          "internalType": "uint256",
          "name": "simulatedTimestamp",
          "type": "uint256"
        }
      ],
      "name": "simulateStaleness",
      "outputs": [],
      "stateMutability": "nonpayable",
      "type": "function"
    },
    {
      "inputs": [
        {
          "internalType": "bytes4",
          "name": "interfaceId",
          "type": "bytes4"
        }
      ],
      "name": "supportsInterface",
      "outputs": [
        {
          "internalType": "bool",
          "name": "",
          "type": "bool"
        }
      ],
      "stateMutability": "view",
      "type": "function"
    },
    {
      "inputs": [
        {
          "internalType": "string",
          "name": "functionName",
          "type": "string"
        }
      ],
      "name": "wasFunctionCalled",
      "outputs": [
        {
          "internalType": "bool",
          "name": "",
          "type": "bool"
        }
      ],
      "stateMutability": "view",
      "type": "function"
    }
  ],
  "bytecode": "0x608060405234801561001057600080fd5b506040516112b23803806112b283398101604081905261002f91610135565b61003a600033610089565b506007805460ff90931660ff1993841617905560065542600855600980546a01000000000000000000016001600160a01b03199091161790556000600a55600b80549091166064179055610169565b6000828152602081815260408083206001600160a01b038516845290915281205460ff1661012b576000838152602081815260408083206001600160a01b03861684529091529020805460ff191660011790556100e33390565b6001600160a01b0316826001600160a01b0316847f2f8788117e7eff1d82e926ec794901d17c78024a50270940304540a733656f0d60405160405180910390a450600161012f565b5060005b92915050565b6000806040838503121561014857600080fd5b825160ff8116811461015957600080fd5b6020939093015192949293505050565b61113a806101786000396000f3fe608060405234801561001057600080fd5b50600436106101cf5760003560e01c80634b28f9a211610104578063a0a2b573116100a2578063d547741f11610071578063d547741f14610412578063d826f88f14610425578063dfdbdd501461042d578063feaf968c1461044d57600080fd5b8063a0a2b573146103d1578063a217fddf146103e4578063c054c6ce146103ec578063d29dba91146103ff57600080fd5b80638129fc1c116100de5780638129fc1c1461039057806391d148541461039857806399213cd8146103ab5780639a49c7c7146103be57600080fd5b80634b28f9a21461036c57806359254c2f146103755780637a1395aa1461037d57600080fd5b8063248a9ca31161017157806336568abe1161014b57806336568abe146103035780633ca3910c146103165780633defb96214610338578063422b010b1461034157600080fd5b8063248a9ca3146102c25780632f2ff15d146102e5578063313ce567146102f857600080fd5b8063158ef93e116101ad578063158ef93e146102305780631a82a6431461023d5780631df86bc61461025e5780632113522a146102aa57600080fd5b806301ffc9a7146101d45780630e9ce4d4146101fc5780631545b8981461021b575b600080fd5b6101e76101e2366004610d40565b610496565b60405190151581526020015b60405180910390f35b600b546102099060ff1681565b60405160ff90911681526020016101f3565b61022e610229366004610d71565b6104cd565b005b6001546101e79060ff1681565b61025061024b366004610daa565b610516565b6040519081526020016101f3565b61029261026c366004610daa565b80516020818301810180516005825292820191909301209152546001600160a01b031681565b6040516001600160a01b0390911681526020016101f3565b6001546102929061010090046001600160a01b031681565b6102506102d0366004610e5b565b60009081526020819052604090206001015490565b61022e6102f3366004610e74565b61053e565b60075460ff16610209565b61022e610311366004610e74565b610569565b610329610324366004610daa565b6105a1565b6040516101f393929190610f00565b610250600a5481565b61025061034f366004610daa565b805160208183018101805160038252928201919093012091525481565b61025060025481565b61022e6106a4565b61022e61038b366004610d71565b6106cf565b61022e610741565b6101e76103a6366004610e74565b6107d2565b61022e6103b9366004610e5b565b6107fb565b61022e6103cc366004610e5b565b6108e8565b61022e6103df366004610e5b565b61091d565b610250600081565b6101e76103fa366004610daa565b610966565b61022e61040d366004610e5b565b610990565b61022e610420366004610e74565b6109c5565b61022e6109ea565b61044061043b366004610daa565b610a36565b6040516101f39190610f33565b6009546006546008546040805169ffffffffffffffffffff808616825260208201949094529081018290526060810191909152600160501b90920416608082015260a0016101f3565b60006001600160e01b03198216637965db0b60e01b14806104c757506301ffc9a760e01b6001600160e01b03198316145b92915050565b600b805460ff191660ff83169081179091556040519081527f69823b7053d62651a5108bb8ae439833ba1d5416c3d0f04aad3e08ea11084c04906020015b60405180910390a150565b60006003826040516105289190610f46565b9081526020016040518091039020549050919050565b60008281526020819052604090206001015461055981610adb565b6105638383610ae8565b50505050565b6001600160a01b03811633146105925760405163334bd91960e11b815260040160405180910390fd5b61059c8282610b7a565b505050565b60008060606003846040516105b69190610f46565b9081526020016040518091039020546005856040516105d59190610f46565b908152604051908190036020018120546001600160a01b0316906004906105fd908890610f46565b908152602001604051809103902080805461061790610f62565b80601f016020809104026020016040519081016040528092919081815260200182805461064390610f62565b80156106905780601f1061066557610100808354040283529160200191610690565b820191906000526020600020905b81548152906001019060200180831161067357829003601f168201915b505050505090509250925092509193909250565b6040517f4197dc4df14a5865c2e9654ab97ea7a396076ab2fb9f7bf9298df88bb685dc2590600090a1565b61072b60405180604001604052806012815260200171736574446563696d616c732875696e74382960701b81525082604051602001610717919060ff91909116815260200190565b604051602081830303815290604052610be5565b6007805460ff191660ff92909216919091179055565b60015460ff16156107995760405162461bcd60e51b815260206004820152601d60248201527f426173654d6f636b3a20616c726561647920696e697469616c697a656400000060448201526064015b60405180910390fd5b6001805460ff19168117905560405133907f30f7074e868351008998491171b433e7342f255e986fef03e5eec84f01786f0190600090a2565b6000918252602082815260408084206001600160a01b0393909316845291905290205460ff1690565b61083b60405180604001604052806011815260200170736574416e7377657228696e743235362960781b8152508260405160200161071791815260200190565b6006819055426008556009805469ffffffffffffffffffff1690600061086083610fb2565b82546101009290920a69ffffffffffffffffffff8181021990931691831602179091556009805469ffffffffffffffffffff60501b198116908316600160501b8102918217909255600854604051908152921617915082907f0559884fd3a460db3073b7fc896cc77986f16e378210ded43186175bf646fc5f9060200160405180910390a350565b60088190556040518181527fc25f7dd684c4d75b9d79c86b8a5637c44034b4235377512df94b18bebf4549559060200161050b565b6109616040518060400160405280601581526020017473657454696d657374616d702875696e743235362960581b8152508260405160200161071791815260200190565b600855565b6000806003836040516109799190610f46565b908152602001604051809103902054119050919050565b600a8190556040518181527fc2178046992f7ede7649071430a5471a38fa34dc920c308b50d50c3271519b6d9060200161050b565b6000828152602081905260409020600101546109e081610adb565b6105638383610b7a565b60006109f581610adb565b600180546001600160a81b0319169055600060028190556040517f47f78a7a0acc7fff3657157dc253c5e6a68550995cc6f47bc2bd707ec67370fb9190a150565b805160208183018101805160048252928201919093012091528054610a5a90610f62565b80601f0160208091040260200160405190810160405280929190818152602001828054610a8690610f62565b8015610ad35780601f10610aa857610100808354040283529160200191610ad3565b820191906000526020600020905b815481529060010190602001808311610ab657829003601f168201915b505050505081565b610ae58133610d03565b50565b6000610af483836107d2565b610b72576000838152602081815260408083206001600160a01b03861684529091529020805460ff19166001179055610b2a3390565b6001600160a01b0316826001600160a01b0316847f2f8788117e7eff1d82e926ec794901d17c78024a50270940304540a733656f0d60405160405180910390a45060016104c7565b5060006104c7565b6000610b8683836107d2565b15610b72576000838152602081815260408083206001600160a01b0386168085529252808320805460ff1916905551339286917ff6391f5c32d9c69d2a47ea670b442974b53935d1edc7fd64eb21e047a839171b9190a45060016104c7565b600382604051610bf59190610f46565b9081526040519081900360200190208054906000610c1283610fdb565b919050555080600483604051610c289190610f46565b90815260200160405180910390209081610c429190611044565b5033600583604051610c549190610f46565b90815260405160209181900391909101902080546001600160a01b0319166001600160a01b039290921691909117905560018054610100600160a81b031916610100330217905560028054906000610cab83610fdb565b90915550506040513390610cc0908490610f46565b60405180910390207f16b892c3de2f4b54dc114eff5c76ead156bac210353ee82615752957e1317df183604051610cf79190610f33565b60405180910390a35050565b610d0d82826107d2565b610d3c5760405163e2517d3f60e01b81526001600160a01b038216600482015260248101839052604401610790565b5050565b600060208284031215610d5257600080fd5b81356001600160e01b031981168114610d6a57600080fd5b9392505050565b600060208284031215610d8357600080fd5b813560ff81168114610d6a57600080fd5b634e487b7160e01b600052604160045260246000fd5b600060208284031215610dbc57600080fd5b813567ffffffffffffffff80821115610dd457600080fd5b818401915084601f830112610de857600080fd5b813581811115610dfa57610dfa610d94565b604051601f8201601f19908116603f01168101908382118183101715610e2257610e22610d94565b81604052828152876020848701011115610e3b57600080fd5b826020860160208301376000928101602001929092525095945050505050565b600060208284031215610e6d57600080fd5b5035919050565b60008060408385031215610e8757600080fd5b8235915060208301356001600160a01b0381168114610ea557600080fd5b809150509250929050565b60005b83811015610ecb578181015183820152602001610eb3565b50506000910152565b60008151808452610eec816020860160208601610eb0565b601f01601f19169290920160200192915050565b8381526001600160a01b0383166020820152606060408201819052600090610f2a90830184610ed4565b95945050505050565b602081526000610d6a6020830184610ed4565b60008251610f58818460208701610eb0565b9190910192915050565b600181811c90821680610f7657607f821691505b602082108103610f9657634e487b7160e01b600052602260045260246000fd5b50919050565b634e487b7160e01b600052601160045260246000fd5b600069ffffffffffffffffffff808316818103610fd157610fd1610f9c565b6001019392505050565b600060018201610fed57610fed610f9c565b5060010190565b601f82111561059c576000816000526020600020601f850160051c8101602086101561101d5750805b601f850160051c820191505b8181101561103c57828155600101611029565b505050505050565b815167ffffffffffffffff81111561105e5761105e610d94565b6110728161106c8454610f62565b84610ff4565b602080601f8311600181146110a7576000841561108f5750858301515b600019600386901b1c1916600185901b17855561103c565b600085815260208120601f198616915b828110156110d6578886015182559484019460019091019084016110b7565b50858210156110f45787850151600019600388901b60f8161c191681555b5050505050600190811b0190555056fea264697066735822122098d92d0fe5ab5eff7734cbd5c6b406682caf812a2d845657eddb1ff722a89cd664736f6c63430008180033",
  "linkReferences": {},
  "deployedLinkReferences": {}
}