{
  "_format": "hh-sol-artifact-1",
  "contractName": "MockERC20",
  "sourceName": "contracts/mocks/MockERC20.sol",
  "abi": [
    {
      "inputs": [
        {
          "internalType": "string",
          "name": "name",
          "type": "string"
        },
        {
          "internalType": "string",
          "name": "symbol",
          "type": "string"
        },
        {
          "internalType": "uint256",
          "name": "initialSupply",
          "type": "uint256"
        },
        {
          "internalType": "uint8",
          "name": "decimalsValue",
          "type": "uint8"
        }
      ],
      "stateMutability": "nonpayable",
      "type": "constructor"
    },
    {
      "inputs": [],
      "name": "AccessControlBadConfirmation",
      "type": "error"
    },
    {
      "inputs": [
        {
          "internalType": "address",
          "name": "account",
          "type": "address"
        },
        {
          "internalType": "bytes32",
          "name": "neededRole",
          "type": "bytes32"
        }
      ],
      "name": "AccessControlUnauthorizedAccount",
      "type": "error"
    },
    {
      "inputs": [
        {
          "internalType": "address",
          "name": "spender",
          "type": "address"
        },
        {
          "internalType": "uint256",
          "name": "allowance",
          "type": "uint256"
        },
        {
          "internalType": "uint256",
          "name": "needed",
          "type": "uint256"
        }
      ],
      "name": "ERC20InsufficientAllowance",
      "type": "error"
    },
    {
      "inputs": [
        {
          "internalType": "address",
          "name": "sender",
          "type": "address"
        },
        {
          "internalType": "uint256",
          "name": "balance",
          "type": "uint256"
        },
        {
          "internalType": "uint256",
          "name": "needed",
          "type": "uint256"
        }
      ],
      "name": "ERC20InsufficientBalance",
      "type": "error"
    },
    {
      "inputs": [
        {
          "internalType": "address",
          "name": "approver",
          "type": "address"
        }
      ],
      "name": "ERC20InvalidApprover",
      "type": "error"
    },
    {
      "inputs": [
        {
          "internalType": "address",
          "name": "receiver",
          "type": "address"
        }
      ],
      "name": "ERC20InvalidReceiver",
      "type": "error"
    },
    {
      "inputs": [
        {
          "internalType": "address",
          "name": "sender",
          "type": "address"
        }
      ],
      "name": "ERC20InvalidSender",
      "type": "error"
    },
    {
      "inputs": [
        {
          "internalType": "address",
          "name": "spender",
          "type": "address"
        }
      ],
      "name": "ERC20InvalidSpender",
      "type": "error"
    },
    {
      "inputs": [
        {
          "internalType": "address",
          "name": "owner",
          "type": "address"
        }
      ],
      "name": "OwnableInvalidOwner",
      "type": "error"
    },
    {
      "inputs": [
        {
          "internalType": "address",
          "name": "account",
          "type": "address"
        }
      ],
      "name": "OwnableUnauthorizedAccount",
      "type": "error"
    },
    {
      "anonymous": false,
      "inputs": [
        {
          "indexed": true,
          "internalType": "address",
          "name": "owner",
          "type": "address"
        },
        {
          "indexed": true,
          "internalType": "address",
          "name": "spender",
          "type": "address"
        },
        {
          "indexed": false,
          "internalType": "uint256",
          "name": "value",
          "type": "uint256"
        }
      ],
      "name": "Approval",
      "type": "event"
    },
    {
      "anonymous": false,
      "inputs": [
        {
          "indexed": true,
          "internalType": "string",
          "name": "functionName",
          "type": "string"
        },
        {
          "indexed": true,
          "internalType": "address",
          "name": "caller",
          "type": "address"
        },
        {
          "indexed": false,
          "internalType": "bytes",
          "name": "data",
          "type": "bytes"
        }
      ],
      "name": "MockFunctionCalled",
      "type": "event"
    },
    {
      "anonymous": false,
      "inputs": [
        {
          "indexed": true,
          "internalType": "address",
          "name": "caller",
          "type": "address"
        }
      ],
      "name": "MockInitialized",
      "type": "event"
    },
    {
      "anonymous": false,
      "inputs": [],
      "name": "MockStateReset",
      "type": "event"
    },
    {
      "anonymous": false,
      "inputs": [
        {
          "indexed": true,
          "internalType": "address",
          "name": "previousOwner",
          "type": "address"
        },
        {
          "indexed": true,
          "internalType": "address",
          "name": "newOwner",
          "type": "address"
        }
      ],
      "name": "OwnershipTransferred",
      "type": "event"
    },
    {
      "anonymous": false,
      "inputs": [
        {
          "indexed": true,
          "internalType": "bytes32",
          "name": "role",
          "type": "bytes32"
        },
        {
          "indexed": true,
          "internalType": "bytes32",
          "name": "previousAdminRole",
          "type": "bytes32"
        },
        {
          "indexed": true,
          "internalType": "bytes32",
          "name": "newAdminRole",
          "type": "bytes32"
        }
      ],
      "name": "RoleAdminChanged",
      "type": "event"
    },
    {
      "anonymous": false,
      "inputs": [
        {
          "indexed": true,
          "internalType": "bytes32",
          "name": "role",
          "type": "bytes32"
        },
        {
          "indexed": true,
          "internalType": "address",
          "name": "account",
          "type": "address"
        },
        {
          "indexed": true,
          "internalType": "address",
          "name": "sender",
          "type": "address"
        }
      ],
      "name": "RoleGranted",
      "type": "event"
    },
    {
      "anonymous": false,
      "inputs": [
        {
          "indexed": true,
          "internalType": "bytes32",
          "name": "role",
          "type": "bytes32"
        },
        {
          "indexed": true,
          "internalType": "address",
          "name": "account",
          "type": "address"
        },
        {
          "indexed": true,
          "internalType": "address",
          "name": "sender",
          "type": "address"
        }
      ],
      "name": "RoleRevoked",
      "type": "event"
    },
    {
      "anonymous": false,
      "inputs": [
        {
          "indexed": true,
          "internalType": "address",
          "name": "from",
          "type": "address"
        },
        {
          "indexed": false,
          "internalType": "uint256",
          "name": "amount",
          "type": "uint256"
        }
      ],
      "name": "TokensBurned",
      "type": "event"
    },
    {
      "anonymous": false,
      "inputs": [
        {
          "indexed": true,
          "internalType": "address",
          "name": "to",
          "type": "address"
        },
        {
          "indexed": false,
          "internalType": "uint256",
          "name": "amount",
          "type": "uint256"
        }
      ],
      "name": "TokensMinted",
      "type": "event"
    },
    {
      "anonymous": false,
      "inputs": [
        {
          "indexed": true,
          "internalType": "address",
          "name": "from",
          "type": "address"
        },
        {
          "indexed": true,
          "internalType": "address",
          "name": "to",
          "type": "address"
        },
        {
          "indexed": false,
          "internalType": "uint256",
          "name": "value",
          "type": "uint256"
        }
      ],
      "name": "Transfer",
      "type": "event"
    },
    {
      "inputs": [],
      "name": "DEFAULT_ADMIN_ROLE",
      "outputs": [
        {
          "internalType": "bytes32",
          "name": "",
          "type": "bytes32"
        }
      ],
      "stateMutability": "view",
      "type": "function"
    },
    {
      "inputs": [
        {
          "internalType": "address",
          "name": "owner",
          "type": "address"
        },
        {
          "internalType": "address",
          "name": "spender",
          "type": "address"
        }
      ],
      "name": "allowance",
      "outputs": [
        {
          "internalType": "uint256",
          "name": "",
          "type": "uint256"
        }
      ],
      "stateMutability": "view",
      "type": "function"
    },
    {
      "inputs": [
        {
          "internalType": "address",
          "name": "spender",
          "type": "address"
        },
        {
          "internalType": "uint256",
          "name": "amount",
          "type": "uint256"
        }
      ],
      "name": "approve",
      "outputs": [
        {
          "internalType": "bool",
          "name": "",
          "type": "bool"
        }
      ],
      "stateMutability": "nonpayable",
      "type": "function"
    },
    {
      "inputs": [
        {
          "internalType": "address",
          "name": "account",
          "type": "address"
        }
      ],
      "name": "balanceOf",
      "outputs": [
        {
          "internalType": "uint256",
          "name": "",
          "type": "uint256"
        }
      ],
      "stateMutability": "view",
      "type": "function"
    },
    {
      "inputs": [
        {
          "internalType": "address",
          "name": "from",
          "type": "address"
        },
        {
          "internalType": "uint256",
          "name": "amount",
          "type": "uint256"
        }
      ],
      "name": "burn",
      "outputs": [],
      "stateMutability": "nonpayable",
      "type": "function"
    },
    {
      "inputs": [],
      "name": "callCount",
      "outputs": [
        {
          "internalType": "uint256",
          "name": "",
          "type": "uint256"
        }
      ],
      "stateMutability": "view",
      "type": "function"
    },
    {
      "inputs": [],
      "name": "decimals",
      "outputs": [
        {
          "internalType": "uint8",
          "name": "",
          "type": "uint8"
        }
      ],
      "stateMutability": "view",
      "type": "function"
    },
    {
      "inputs": [
        {
          "internalType": "string",
          "name": "",
          "type": "string"
        }
      ],
      "name": "functionCallCount",
      "outputs": [
        {
          "internalType": "uint256",
          "name": "",
          "type": "uint256"
        }
      ],
      "stateMutability": "view",
      "type": "function"
    },
    {
      "inputs": [
        {
          "internalType": "string",
          "name": "functionName",
          "type": "string"
        }
      ],
      "name": "getFunctionCallCount",
      "outputs": [
        {
          "internalType": "uint256",
          "name": "",
          "type": "uint256"
        }
      ],
      "stateMutability": "view",
      "type": "function"
    },
    {
      "inputs": [
        {
          "internalType": "string",
          "name": "functionName",
          "type": "string"
        }
      ],
      "name": "getFunctionCallHistory",
      "outputs": [
        {
          "internalType": "uint256",
          "name": "count",
          "type": "uint256"
        },
        {
          "internalType": "address",
          "name": "lastCaller_",
          "type": "address"
        },
        {
          "internalType": "bytes",
          "name": "lastData",
          "type": "bytes"
        }
      ],
      "stateMutability": "view",
      "type": "function"
    },
    {
      "inputs": [
        {
          "internalType": "bytes32",
          "name": "role",
          "type": "bytes32"
        }
      ],
      "name": "getRoleAdmin",
      "outputs": [
        {
          "internalType": "bytes32",
          "name": "",
          "type": "bytes32"
        }
      ],
      "stateMutability": "view",
      "type": "function"
    },
    {
      "inputs": [
        {
          "internalType": "bytes32",
          "name": "role",
          "type": "bytes32"
        },
        {
          "internalType": "address",
          "name": "account",
          "type": "address"
        }
      ],
      "name": "grantRole",
      "outputs": [],
      "stateMutability": "nonpayable",
      "type": "function"
    },
    {
      "inputs": [
        {
          "internalType": "bytes32",
          "name": "role",
          "type": "bytes32"
        },
        {
          "internalType": "address",
          "name": "account",
          "type": "address"
        }
      ],
      "name": "hasRole",
      "outputs": [
        {
          "internalType": "bool",
          "name": "",
          "type": "bool"
        }
      ],
      "stateMutability": "view",
      "type": "function"
    },
    {
      "inputs": [],
      "name": "initialize",
      "outputs": [],
      "stateMutability": "nonpayable",
      "type": "function"
    },
    {
      "inputs": [],
      "name": "initializeWithDefaultDecimals",
      "outputs": [],
      "stateMutability": "nonpayable",
      "type": "function"
    },
    {
      "inputs": [],
      "name": "initialized",
      "outputs": [
        {
          "internalType": "bool",
          "name": "",
          "type": "bool"
        }
      ],
      "stateMutability": "view",
      "type": "function"
    },
    {
      "inputs": [
        {
          "internalType": "string",
          "name": "",
          "type": "string"
        }
      ],
      "name": "lastCallData",
      "outputs": [
        {
          "internalType": "bytes",
          "name": "",
          "type": "bytes"
        }
      ],
      "stateMutability": "view",
      "type": "function"
    },
    {
      "inputs": [],
      "name": "lastCaller",
      "outputs": [
        {
          "internalType": "address",
          "name": "",
          "type": "address"
        }
      ],
      "stateMutability": "view",
      "type": "function"
    },
    {
      "inputs": [
        {
          "internalType": "string",
          "name": "",
          "type": "string"
        }
      ],
      "name": "lastCallerByFunction",
      "outputs": [
        {
          "internalType": "address",
          "name": "",
          "type": "address"
        }
      ],
      "stateMutability": "view",
      "type": "function"
    },
    {
      "inputs": [
        {
          "internalType": "address",
          "name": "to",
          "type": "address"
        },
        {
          "internalType": "uint256",
          "name": "amount",
          "type": "uint256"
        }
      ],
      "name": "mint",
      "outputs": [],
      "stateMutability": "nonpayable",
      "type": "function"
    },
    {
      "inputs": [],
      "name": "name",
      "outputs": [
        {
          "internalType": "string",
          "name": "",
          "type": "string"
        }
      ],
      "stateMutability": "view",
      "type": "function"
    },
    {
      "inputs": [],
      "name": "owner",
      "outputs": [
        {
          "internalType": "address",
          "name": "",
          "type": "address"
        }
      ],
      "stateMutability": "view",
      "type": "function"
    },
    {
      "inputs": [],
      "name": "renounceOwnership",
      "outputs": [],
      "stateMutability": "nonpayable",
      "type": "function"
    },
    {
      "inputs": [
        {
          "internalType": "bytes32",
          "name": "role",
          "type": "bytes32"
        },
        {
          "internalType": "address",
          "name": "callerConfirmation",
          "type": "address"
        }
      ],
      "name": "renounceRole",
      "outputs": [],
      "stateMutability": "nonpayable",
      "type": "function"
    },
    {
      "inputs": [],
      "name": "reset",
      "outputs": [],
      "stateMutability": "nonpayable",
      "type": "function"
    },
    {
      "inputs": [
        {
          "internalType": "bytes32",
          "name": "role",
          "type": "bytes32"
        },
        {
          "internalType": "address",
          "name": "account",
          "type": "address"
        }
      ],
      "name": "revokeRole",
      "outputs": [],
      "stateMutability": "nonpayable",
      "type": "function"
    },
    {
      "inputs": [
        {
          "internalType": "bytes4",
          "name": "interfaceId",
          "type": "bytes4"
        }
      ],
      "name": "supportsInterface",
      "outputs": [
        {
          "internalType": "bool",
          "name": "",
          "type": "bool"
        }
      ],
      "stateMutability": "view",
      "type": "function"
    },
    {
      "inputs": [],
      "name": "symbol",
      "outputs": [
        {
          "internalType": "string",
          "name": "",
          "type": "string"
        }
      ],
      "stateMutability": "view",
      "type": "function"
    },
    {
      "inputs": [],
      "name": "totalSupply",
      "outputs": [
        {
          "internalType": "uint256",
          "name": "",
          "type": "uint256"
        }
      ],
      "stateMutability": "view",
      "type": "function"
    },
    {
      "inputs": [
        {
          "internalType": "address",
          "name": "recipient",
          "type": "address"
        },
        {
          "internalType": "uint256",
          "name": "amount",
          "type": "uint256"
        }
      ],
      "name": "transfer",
      "outputs": [
        {
          "internalType": "bool",
          "name": "",
          "type": "bool"
        }
      ],
      "stateMutability": "nonpayable",
      "type": "function"
    },
    {
      "inputs": [
        {
          "internalType": "address",
          "name": "sender",
          "type": "address"
        },
        {
          "internalType": "address",
          "name": "recipient",
          "type": "address"
        },
        {
          "internalType": "uint256",
          "name": "amount",
          "type": "uint256"
        }
      ],
      "name": "transferFrom",
      "outputs": [
        {
          "internalType": "bool",
          "name": "",
          "type": "bool"
        }
      ],
      "stateMutability": "nonpayable",
      "type": "function"
    },
    {
      "inputs": [
        {
          "internalType": "address",
          "name": "newOwner",
          "type": "address"
        }
      ],
      "name": "transferOwnership",
      "outputs": [],
      "stateMutability": "nonpayable",
      "type": "function"
    },
    {
      "inputs": [
        {
          "internalType": "string",
          "name": "functionName",
          "type": "string"
        }
      ],
      "name": "wasFunctionCalled",
      "outputs": [
        {
          "internalType": "bool",
          "name": "",
          "type": "bool"
        }
      ],
      "stateMutability": "view",
      "type": "function"
    }
  ],
  "bytecode": "0x60806040523480156200001157600080fd5b5060405162001d7238038062001d72833981016040819052620000349162000404565b338484600362000045838262000522565b50600462000054828262000522565b5050506001600160a01b0381166200008757604051631e4fbdf760e01b8152600060048201526024015b60405180910390fd5b6200009281620000c6565b50620000a060003362000118565b50600c805460ff191660ff8316179055620000bc3383620001cb565b5050505062000610565b600580546001600160a01b038381166001600160a01b0319831681179093556040519116919082907f8be0079c531659141344cd1fd0a4f28419497f9722a3daafe3b4186f6b6457e090600090a35050565b60008281526006602090815260408083206001600160a01b038516845290915281205460ff16620001c15760008381526006602090815260408083206001600160a01b03861684529091529020805460ff19166001179055620001783390565b6001600160a01b0316826001600160a01b0316847f2f8788117e7eff1d82e926ec794901d17c78024a50270940304540a733656f0d60405160405180910390a4506001620001c5565b5060005b92915050565b6001600160a01b038216620001f75760405163ec442f0560e01b8152600060048201526024016200007e565b620002056000838362000209565b5050565b6001600160a01b038316620002385780600260008282546200022c9190620005ee565b90915550620002ac9050565b6001600160a01b038316600090815260208190526040902054818110156200028d5760405163391434e360e21b81526001600160a01b038516600482015260248101829052604481018390526064016200007e565b6001600160a01b03841660009081526020819052604090209082900390555b6001600160a01b038216620002ca57600280548290039055620002e9565b6001600160a01b03821660009081526020819052604090208054820190555b816001600160a01b0316836001600160a01b03167fddf252ad1be2c89b69c2b068fc378daa952ba7f163c4a11628f55a4df523b3ef836040516200032f91815260200190565b60405180910390a3505050565b634e487b7160e01b600052604160045260246000fd5b600082601f8301126200036457600080fd5b81516001600160401b03808211156200038157620003816200033c565b604051601f8301601f19908116603f01168101908282118183101715620003ac57620003ac6200033c565b8160405283815260209250866020858801011115620003ca57600080fd5b600091505b83821015620003ee5785820183015181830184015290820190620003cf565b6000602085830101528094505050505092915050565b600080600080608085870312156200041b57600080fd5b84516001600160401b03808211156200043357600080fd5b620004418883890162000352565b955060208701519150808211156200045857600080fd5b50620004678782880162000352565b93505060408501519150606085015160ff811681146200048657600080fd5b939692955090935050565b600181811c90821680620004a657607f821691505b602082108103620004c757634e487b7160e01b600052602260045260246000fd5b50919050565b601f8211156200051d576000816000526020600020601f850160051c81016020861015620004f85750805b601f850160051c820191505b81811015620005195782815560010162000504565b5050505b505050565b81516001600160401b038111156200053e576200053e6200033c565b62000556816200054f845462000491565b84620004cd565b602080601f8311600181146200058e5760008415620005755750858301515b600019600386901b1c1916600185901b17855562000519565b600085815260208120601f198616915b82811015620005bf578886015182559484019460019091019084016200059e565b5085821015620005de5787850151600019600388901b60f8161c191681555b5050505050600190811b01905550565b80820180821115620001c557634e487b7160e01b600052601160045260246000fd5b61175280620006206000396000f3fe608060405234801561001057600080fd5b50600436106101fb5760003560e01c8063422b010b1161011a5780639dc29fac116100ad578063d547741f1161007c578063d547741f1461045e578063d826f88f14610471578063dd62ed3e14610479578063dfdbdd501461048c578063f2fde38b1461049f57600080fd5b80639dc29fac1461041d578063a217fddf14610430578063a9059cbb14610438578063c054c6ce1461044b57600080fd5b80638129fc1c116100e95780638129fc1c146103e95780638da5cb5b146103f157806391d148541461040257806395d89b411461041557600080fd5b8063422b010b1461039a5780634b28f9a2146103c557806370a08231146103ce578063715018a6146103e157600080fd5b806323b872dd11610192578063356f7a8511610161578063356f7a851461034a57806336568abe146103525780633ca3910c1461036557806340c10f191461038757600080fd5b806323b872dd146102ea578063248a9ca3146102fd5780632f2ff15d14610320578063313ce5671461033557600080fd5b806318160ddd116101ce57806318160ddd1461025d5780631a82a643146102735780631df86bc6146102865780632113522a146102d257600080fd5b806301ffc9a71461020057806306fdde0314610228578063095ea7b31461023d578063158ef93e14610250575b600080fd5b61021361020e3660046112e1565b6104b2565b60405190151581526020015b60405180910390f35b6102306104e9565b60405161021f919061135b565b61021361024b36600461138a565b61057b565b6007546102139060ff1681565b6102656105ec565b60405190815260200161021f565b6102656102813660046113ca565b6105fc565b6102ba6102943660046113ca565b8051602081830181018051600b825292820191909301209152546001600160a01b031681565b6040516001600160a01b03909116815260200161021f565b6007546102ba9061010090046001600160a01b031681565b6102136102f836600461147b565b610624565b61026561030b3660046114b7565b60009081526006602052604090206001015490565b61033361032e3660046114d0565b610695565b005b600c5460405160ff909116815260200161021f565b6103336106c0565b6103336103603660046114d0565b61071b565b6103786103733660046113ca565b610753565b60405161021f939291906114fc565b61033361039536600461138a565b610856565b6102656103a83660046113ca565b805160208183018101805160098252928201919093012091525481565b61026560085481565b6102656103dc36600461152f565b6108ee565b61033361090c565b610333610920565b6005546001600160a01b03166102ba565b6102136104103660046114d0565b6109b2565b6102306109dd565b61033361042b36600461138a565b6109ec565b610265600081565b61021361044636600461138a565b610a78565b6102136104593660046113ca565b610acf565b61033361046c3660046114d0565b610af9565b610333610b1e565b61026561048736600461154a565b610b6a565b61023061049a3660046113ca565b610b97565b6103336104ad36600461152f565b610c3c565b60006001600160e01b03198216637965db0b60e01b14806104e357506301ffc9a760e01b6001600160e01b03198316145b92915050565b6060600380546104f890611574565b80601f016020809104026020016040519081016040528092919081815260200182805461052490611574565b80156105715780601f1061054657610100808354040283529160200191610571565b820191906000526020600020905b81548152906001019060200180831161055457829003601f168201915b5050505050905090565b60006105db60405180604001604052806007815260200166617070726f766560c81b81525084846040516020016105c79291906001600160a01b03929092168252602082015260400190565b604051602081830303815290604052610c7a565b6105e58383610d98565b9392505050565b60006105f760025490565b905090565b600060098260405161060e91906115ae565b9081526020016040518091039020549050919050565b60006106826040518060400160405280600c81526020016b7472616e7366657246726f6d60a01b8152508585856040516020016105c7939291906001600160a01b039384168152919092166020820152604081019190915260600190565b61068d848484610db0565b949350505050565b6000828152600660205260409020600101546106b081610dd4565b6106ba8383610dde565b50505050565b604080518082018252601d81527f696e697469616c697a655769746844656661756c74446563696d616c7300000060208083019190915282516000815290810190925261070c91610c7a565b600c805460ff19166012179055565b6001600160a01b03811633146107445760405163334bd91960e11b815260040160405180910390fd5b61074e8282610e72565b505050565b600080606060098460405161076891906115ae565b908152602001604051809103902054600b8560405161078791906115ae565b908152604051908190036020018120546001600160a01b031690600a906107af9088906115ae565b90815260200160405180910390208080546107c990611574565b80601f01602080910402602001604051908101604052809291908181526020018280546107f590611574565b80156108425780601f1061081757610100808354040283529160200191610842565b820191906000526020600020905b81548152906001019060200180831161082557829003601f168201915b505050505090509250925092509193909250565b61089d604051806040016040528060048152602001631b5a5b9d60e21b81525083836040516020016105c79291906001600160a01b03929092168252602082015260400190565b6108a78282610edf565b816001600160a01b03167f3f2c9d57c068687834f0de942a9babb9e5acab57d516d3480a3c16ee165a4273826040516108e291815260200190565b60405180910390a25050565b6001600160a01b0381166000908152602081905260408120546104e3565b610914610f19565b61091e6000610f46565b565b60075460ff16156109785760405162461bcd60e51b815260206004820152601d60248201527f426173654d6f636b3a20616c726561647920696e697469616c697a656400000060448201526064015b60405180910390fd5b6007805460ff1916600117905560405133907f30f7074e868351008998491171b433e7342f255e986fef03e5eec84f01786f0190600090a2565b60009182526006602090815260408084206001600160a01b0393909316845291905290205460ff1690565b6060600480546104f890611574565b610a3360405180604001604052806004815260200163313ab93760e11b81525083836040516020016105c79291906001600160a01b03929092168252602082015260400190565b610a3d8282610f98565b816001600160a01b03167ffd38818f5291bf0bb3a2a48aadc06ba8757865d1dabd804585338aab3009dcb6826040516108e291815260200190565b6000610ac5604051806040016040528060088152602001673a3930b739b332b960c11b81525084846040516020016105c79291906001600160a01b03929092168252602082015260400190565b6105e58383610fce565b600080600983604051610ae291906115ae565b908152602001604051809103902054119050919050565b600082815260066020526040902060010154610b1481610dd4565b6106ba8383610e72565b6000610b2981610dd4565b600780546001600160a81b0319169055600060088190556040517f47f78a7a0acc7fff3657157dc253c5e6a68550995cc6f47bc2bd707ec67370fb9190a150565b6001600160a01b0380831660009081526001602090815260408083209385168352929052908120546105e5565b8051602081830181018051600a8252928201919093012091528054610bbb90611574565b80601f0160208091040260200160405190810160405280929190818152602001828054610be790611574565b8015610c345780601f10610c0957610100808354040283529160200191610c34565b820191906000526020600020905b815481529060010190602001808311610c1757829003601f168201915b505050505081565b610c44610f19565b6001600160a01b038116610c6e57604051631e4fbdf760e01b81526000600482015260240161096f565b610c7781610f46565b50565b600982604051610c8a91906115ae565b9081526040519081900360200190208054906000610ca7836115e0565b919050555080600a83604051610cbd91906115ae565b90815260200160405180910390209081610cd79190611649565b5033600b83604051610ce991906115ae565b90815260405160209181900391909101902080546001600160a01b0319166001600160a01b039290921691909117905560078054610100600160a81b031916610100330217905560088054906000610d40836115e0565b90915550506040513390610d559084906115ae565b60405180910390207f16b892c3de2f4b54dc114eff5c76ead156bac210353ee82615752957e1317df183604051610d8c919061135b565b60405180910390a35050565b600033610da6818585610fdc565b5060019392505050565b600033610dbe858285610fe9565b610dc985858561104a565b506001949350505050565b610c7781336110a9565b6000610dea83836109b2565b610e6a5760008381526006602090815260408083206001600160a01b03861684529091529020805460ff19166001179055610e223390565b6001600160a01b0316826001600160a01b0316847f2f8788117e7eff1d82e926ec794901d17c78024a50270940304540a733656f0d60405160405180910390a45060016104e3565b5060006104e3565b6000610e7e83836109b2565b15610e6a5760008381526006602090815260408083206001600160a01b0386168085529252808320805460ff1916905551339286917ff6391f5c32d9c69d2a47ea670b442974b53935d1edc7fd64eb21e047a839171b9190a45060016104e3565b6001600160a01b038216610f095760405163ec442f0560e01b81526000600482015260240161096f565b610f15600083836110e2565b5050565b6005546001600160a01b0316331461091e5760405163118cdaa760e01b815233600482015260240161096f565b600580546001600160a01b038381166001600160a01b0319831681179093556040519116919082907f8be0079c531659141344cd1fd0a4f28419497f9722a3daafe3b4186f6b6457e090600090a35050565b6001600160a01b038216610fc257604051634b637e8f60e11b81526000600482015260240161096f565b610f15826000836110e2565b600033610da681858561104a565b61074e838383600161120c565b6000610ff58484610b6a565b90506000198110156106ba578181101561103b57604051637dc7a0d960e11b81526001600160a01b0384166004820152602481018290526044810183905260640161096f565b6106ba8484848403600061120c565b6001600160a01b03831661107457604051634b637e8f60e11b81526000600482015260240161096f565b6001600160a01b03821661109e5760405163ec442f0560e01b81526000600482015260240161096f565b61074e8383836110e2565b6110b382826109b2565b610f155760405163e2517d3f60e01b81526001600160a01b03821660048201526024810183905260440161096f565b6001600160a01b03831661110d5780600260008282546111029190611709565b9091555061117f9050565b6001600160a01b038316600090815260208190526040902054818110156111605760405163391434e360e21b81526001600160a01b0385166004820152602481018290526044810183905260640161096f565b6001600160a01b03841660009081526020819052604090209082900390555b6001600160a01b03821661119b576002805482900390556111ba565b6001600160a01b03821660009081526020819052604090208054820190555b816001600160a01b0316836001600160a01b03167fddf252ad1be2c89b69c2b068fc378daa952ba7f163c4a11628f55a4df523b3ef836040516111ff91815260200190565b60405180910390a3505050565b6001600160a01b0384166112365760405163e602df0560e01b81526000600482015260240161096f565b6001600160a01b03831661126057604051634a1406b160e11b81526000600482015260240161096f565b6001600160a01b03808516600090815260016020908152604080832093871683529290522082905580156106ba57826001600160a01b0316846001600160a01b03167f8c5be1e5ebec7d5bd14f71427d1e84f3dd0314c0f7b2291e5b200ac8c7c3b925846040516112d391815260200190565b60405180910390a350505050565b6000602082840312156112f357600080fd5b81356001600160e01b0319811681146105e557600080fd5b60005b8381101561132657818101518382015260200161130e565b50506000910152565b6000815180845261134781602086016020860161130b565b601f01601f19169290920160200192915050565b6020815260006105e5602083018461132f565b80356001600160a01b038116811461138557600080fd5b919050565b6000806040838503121561139d57600080fd5b6113a68361136e565b946020939093013593505050565b634e487b7160e01b600052604160045260246000fd5b6000602082840312156113dc57600080fd5b813567ffffffffffffffff808211156113f457600080fd5b818401915084601f83011261140857600080fd5b81358181111561141a5761141a6113b4565b604051601f8201601f19908116603f01168101908382118183101715611442576114426113b4565b8160405282815287602084870101111561145b57600080fd5b826020860160208301376000928101602001929092525095945050505050565b60008060006060848603121561149057600080fd5b6114998461136e565b92506114a76020850161136e565b9150604084013590509250925092565b6000602082840312156114c957600080fd5b5035919050565b600080604083850312156114e357600080fd5b823591506114f36020840161136e565b90509250929050565b8381526001600160a01b03831660208201526060604082018190526000906115269083018461132f565b95945050505050565b60006020828403121561154157600080fd5b6105e58261136e565b6000806040838503121561155d57600080fd5b6115668361136e565b91506114f36020840161136e565b600181811c9082168061158857607f821691505b6020821081036115a857634e487b7160e01b600052602260045260246000fd5b50919050565b600082516115c081846020870161130b565b9190910192915050565b634e487b7160e01b600052601160045260246000fd5b6000600182016115f2576115f26115ca565b5060010190565b601f82111561074e576000816000526020600020601f850160051c810160208610156116225750805b601f850160051c820191505b818110156116415782815560010161162e565b505050505050565b815167ffffffffffffffff811115611663576116636113b4565b611677816116718454611574565b846115f9565b602080601f8311600181146116ac57600084156116945750858301515b600019600386901b1c1916600185901b178555611641565b600085815260208120601f198616915b828110156116db578886015182559484019460019091019084016116bc565b50858210156116f95787850151600019600388901b60f8161c191681555b5050505050600190811b01905550565b808201808211156104e3576104e36115ca56fea26469706673582212200f1328144dbf278a69e54c1d613cbae70433a960ef55b708b38dcd39761d790964736f6c63430008180033",
  "linkReferences": {},
  "deployedLinkReferences": {}
}