{
  "_format": "hh-sol-artifact-1",
  "contractName": "TokenOptimizer",
  "sourceName": "contracts/token/TokenOptimizer.sol",
  "abi": [
    {
      "inputs": [
        {
          "internalType": "uint256",
          "name": "recipientsLength",
          "type": "uint256"
        },
        {
          "internalType": "uint256",
          "name": "amountsLength",
          "type": "uint256"
        }
      ],
      "name": "LengthMismatch",
      "type": "error"
    },
    {
      "inputs": [
        {
          "internalType": "address",
          "name": "token",
          "type": "address"
        }
      ],
      "name": "SafeERC20FailedOperation",
      "type": "error"
    },
    {
      "inputs": [
        {
          "internalType": "contract IERC20",
          "name": "token",
          "type": "address"
        },
        {
          "internalType": "address[]",
          "name": "recipients",
          "type": "address[]"
        },
        {
          "internalType": "uint256[]",
          "name": "amounts",
          "type": "uint256[]"
        }
      ],
      "name": "batchTransfer",
      "outputs": [],
      "stateMutability": "nonpayable",
      "type": "function"
    },
    {
      "inputs": [
        {
          "internalType": "contract IERC20",
          "name": "token",
          "type": "address"
        },
        {
          "internalType": "address",
          "name": "delegatee",
          "type": "address"
        },
        {
          "internalType": "uint256",
          "name": "amount",
          "type": "uint256"
        }
      ],
      "name": "delegateTokens",
      "outputs": [],
      "stateMutability": "nonpayable",
      "type": "function"
    },
    {
      "inputs": [
        {
          "internalType": "contract IERC20",
          "name": "token",
          "type": "address"
        },
        {
          "internalType": "address",
          "name": "delegator",
          "type": "address"
        },
        {
          "internalType": "uint256",
          "name": "amount",
          "type": "uint256"
        }
      ],
      "name": "withdrawDelegation",
      "outputs": [],
      "stateMutability": "nonpayable",
      "type": "function"
    }
  ],
  "bytecode": "0x608060405234801561001057600080fd5b506103bd806100206000396000f3fe608060405234801561001057600080fd5b50600436106100415760003560e01c80631239ec8c146100465780633d9a6dcb1461005b5780639161babb1461006e575b600080fd5b610059610054366004610289565b610081565b005b61005961006936600461030c565b610129565b61005961007c36600461030c565b610143565b8281146100b0576040516355c5b3e360e11b815260048101849052602481018290526044015b60405180910390fd5b60005b8381101561012157610119338686848181106100d1576100d161034d565b90506020020160208101906100e69190610363565b8585858181106100f8576100f861034d565b90506020020135896001600160a01b0316610154909392919063ffffffff16565b6001016100b3565b505050505050565b61013e6001600160a01b038416833384610154565b505050565b61013e6001600160a01b0384163384845b604080516001600160a01b0385811660248301528416604482015260648082018490528251808303909101815260849091019091526020810180516001600160e01b03166323b872dd60e01b1790526101ae9085906101b4565b50505050565b600080602060008451602086016000885af1806101d7576040513d6000823e3d81fd5b50506000513d915081156101ef5780600114156101fc565b6001600160a01b0384163b155b156101ae57604051635274afe760e01b81526001600160a01b03851660048201526024016100a7565b6001600160a01b038116811461023a57600080fd5b50565b60008083601f84011261024f57600080fd5b50813567ffffffffffffffff81111561026757600080fd5b6020830191508360208260051b850101111561028257600080fd5b9250929050565b6000806000806000606086880312156102a157600080fd5b85356102ac81610225565b9450602086013567ffffffffffffffff808211156102c957600080fd5b6102d589838a0161023d565b909650945060408801359150808211156102ee57600080fd5b506102fb8882890161023d565b969995985093965092949392505050565b60008060006060848603121561032157600080fd5b833561032c81610225565b9250602084013561033c81610225565b929592945050506040919091013590565b634e487b7160e01b600052603260045260246000fd5b60006020828403121561037557600080fd5b813561038081610225565b939250505056fea2646970667358221220622fcbef71265b1034b147fa364b36fd878a72d8e4b342f8e335f4c13a0ce96b64736f6c63430008180033",
  "linkReferences": {},
  "deployedLinkReferences": {}
}