{
  "_format": "hh-sol-artifact-1",
  "contractName": "ProtocolDAO",
  "sourceName": "contracts/core/ProtocolDAO.sol",
  "abi": [
    {
      "inputs": [
        {
          "internalType": "address",
          "name": "_admin",
          "type": "address"
        },
        {
          "internalType": "address",
          "name": "_treasury",
          "type": "address"
        },
        {
          "internalType": "uint256",
          "name": "_votingPeriod",
          "type": "uint256"
        },
        {
          "internalType": "uint256",
          "name": "_executionDelay",
          "type": "uint256"
        },
        {
          "internalType": "uint256",
          "name": "_quorum",
          "type": "uint256"
        }
      ],
      "stateMutability": "nonpayable",
      "type": "constructor"
    },
    {
      "inputs": [],
      "name": "AlreadyVoted",
      "type": "error"
    },
    {
      "inputs": [],
      "name": "CallerNotAdmin",
      "type": "error"
    },
    {
      "inputs": [],
      "name": "CallerNotOwner",
      "type": "error"
    },
    {
      "inputs": [],
      "name": "InvalidAmount",
      "type": "error"
    },
    {
      "inputs": [],
      "name": "InvalidPeriod",
      "type": "error"
    },
    {
      "inputs": [],
      "name": "OperationFailed",
      "type": "error"
    },
    {
      "inputs": [],
      "name": "ProposalAlreadyExecuted",
      "type": "error"
    },
    {
      "inputs": [],
      "name": "ProposalNotApproved",
      "type": "error"
    },
    {
      "inputs": [],
      "name": "ProposalNotFound",
      "type": "error"
    },
    {
      "inputs": [],
      "name": "ReentrantCall",
      "type": "error"
    },
    {
      "inputs": [],
      "name": "VotingEnded",
      "type": "error"
    },
    {
      "inputs": [],
      "name": "VotingNotStarted",
      "type": "error"
    },
    {
      "inputs": [],
      "name": "ZeroAddress",
      "type": "error"
    },
    {
      "anonymous": false,
      "inputs": [
        {
          "indexed": false,
          "internalType": "string",
          "name": "paramName",
          "type": "string"
        },
        {
          "indexed": false,
          "internalType": "uint256",
          "name": "oldValue",
          "type": "uint256"
        },
        {
          "indexed": false,
          "internalType": "uint256",
          "name": "newValue",
          "type": "uint256"
        }
      ],
      "name": "ParameterUpdated",
      "type": "event"
    },
    {
      "anonymous": false,
      "inputs": [
        {
          "indexed": true,
          "internalType": "uint256",
          "name": "proposalId",
          "type": "uint256"
        }
      ],
      "name": "ProposalCanceled",
      "type": "event"
    },
    {
      "anonymous": false,
      "inputs": [
        {
          "indexed": true,
          "internalType": "uint256",
          "name": "proposalId",
          "type": "uint256"
        },
        {
          "indexed": true,
          "internalType": "address",
          "name": "proposer",
          "type": "address"
        },
        {
          "indexed": false,
          "internalType": "string",
          "name": "description",
          "type": "string"
        }
      ],
      "name": "ProposalCreated",
      "type": "event"
    },
    {
      "anonymous": false,
      "inputs": [
        {
          "indexed": true,
          "internalType": "uint256",
          "name": "proposalId",
          "type": "uint256"
        }
      ],
      "name": "ProposalExecuted",
      "type": "event"
    },
    {
      "anonymous": false,
      "inputs": [
        {
          "indexed": true,
          "internalType": "address",
          "name": "token",
          "type": "address"
        },
        {
          "indexed": false,
          "internalType": "bool",
          "name": "status",
          "type": "bool"
        }
      ],
      "name": "TokenWhitelisted",
      "type": "event"
    },
    {
      "anonymous": false,
      "inputs": [
        {
          "indexed": true,
          "internalType": "uint256",
          "name": "proposalId",
          "type": "uint256"
        },
        {
          "indexed": true,
          "internalType": "address",
          "name": "voter",
          "type": "address"
        },
        {
          "indexed": false,
          "internalType": "bool",
          "name": "support",
          "type": "bool"
        }
      ],
      "name": "VoteCast",
      "type": "event"
    },
    {
      "inputs": [],
      "name": "admin",
      "outputs": [
        {
          "internalType": "address",
          "name": "",
          "type": "address"
        }
      ],
      "stateMutability": "view",
      "type": "function"
    },
    {
      "inputs": [
        {
          "internalType": "uint256",
          "name": "proposalId",
          "type": "uint256"
        }
      ],
      "name": "cancelProposal",
      "outputs": [],
      "stateMutability": "nonpayable",
      "type": "function"
    },
    {
      "inputs": [
        {
          "internalType": "uint256",
          "name": "proposalId",
          "type": "uint256"
        },
        {
          "internalType": "bool",
          "name": "support",
          "type": "bool"
        }
      ],
      "name": "castVote",
      "outputs": [],
      "stateMutability": "nonpayable",
      "type": "function"
    },
    {
      "inputs": [
        {
          "internalType": "string",
          "name": "description",
          "type": "string"
        },
        {
          "internalType": "address[]",
          "name": "targets",
          "type": "address[]"
        },
        {
          "internalType": "uint256[]",
          "name": "values",
          "type": "uint256[]"
        },
        {
          "internalType": "bytes[]",
          "name": "calldatas",
          "type": "bytes[]"
        }
      ],
      "name": "createProposal",
      "outputs": [
        {
          "internalType": "uint256",
          "name": "",
          "type": "uint256"
        }
      ],
      "stateMutability": "nonpayable",
      "type": "function"
    },
    {
      "inputs": [
        {
          "internalType": "uint256",
          "name": "proposalId",
          "type": "uint256"
        }
      ],
      "name": "executeProposal",
      "outputs": [],
      "stateMutability": "nonpayable",
      "type": "function"
    },
    {
      "inputs": [],
      "name": "executionDelay",
      "outputs": [
        {
          "internalType": "uint256",
          "name": "",
          "type": "uint256"
        }
      ],
      "stateMutability": "view",
      "type": "function"
    },
    {
      "inputs": [],
      "name": "getProposalCount",
      "outputs": [
        {
          "internalType": "uint256",
          "name": "",
          "type": "uint256"
        }
      ],
      "stateMutability": "view",
      "type": "function"
    },
    {
      "inputs": [
        {
          "internalType": "uint256",
          "name": "",
          "type": "uint256"
        },
        {
          "internalType": "address",
          "name": "",
          "type": "address"
        }
      ],
      "name": "hasVoted",
      "outputs": [
        {
          "internalType": "bool",
          "name": "",
          "type": "bool"
        }
      ],
      "stateMutability": "view",
      "type": "function"
    },
    {
      "inputs": [
        {
          "internalType": "address",
          "name": "token",
          "type": "address"
        }
      ],
      "name": "isTokenWhitelisted",
      "outputs": [
        {
          "internalType": "bool",
          "name": "",
          "type": "bool"
        }
      ],
      "stateMutability": "view",
      "type": "function"
    },
    {
      "inputs": [],
      "name": "owner",
      "outputs": [
        {
          "internalType": "address",
          "name": "",
          "type": "address"
        }
      ],
      "stateMutability": "view",
      "type": "function"
    },
    {
      "inputs": [
        {
          "internalType": "uint256",
          "name": "",
          "type": "uint256"
        }
      ],
      "name": "proposals",
      "outputs": [
        {
          "internalType": "uint256",
          "name": "id",
          "type": "uint256"
        },
        {
          "internalType": "string",
          "name": "description",
          "type": "string"
        },
        {
          "internalType": "address",
          "name": "proposer",
          "type": "address"
        },
        {
          "internalType": "uint256",
          "name": "createdAt",
          "type": "uint256"
        },
        {
          "internalType": "uint256",
          "name": "votingEnds",
          "type": "uint256"
        },
        {
          "internalType": "uint256",
          "name": "forVotes",
          "type": "uint256"
        },
        {
          "internalType": "uint256",
          "name": "againstVotes",
          "type": "uint256"
        },
        {
          "internalType": "bool",
          "name": "executed",
          "type": "bool"
        },
        {
          "internalType": "bool",
          "name": "canceled",
          "type": "bool"
        }
      ],
      "stateMutability": "view",
      "type": "function"
    },
    {
      "inputs": [],
      "name": "quorum",
      "outputs": [
        {
          "internalType": "uint256",
          "name": "",
          "type": "uint256"
        }
      ],
      "stateMutability": "view",
      "type": "function"
    },
    {
      "inputs": [
        {
          "internalType": "address",
          "name": "_newOwner",
          "type": "address"
        }
      ],
      "name": "transferOwnership",
      "outputs": [],
      "stateMutability": "nonpayable",
      "type": "function"
    },
    {
      "inputs": [],
      "name": "treasury",
      "outputs": [
        {
          "internalType": "address",
          "name": "",
          "type": "address"
        }
      ],
      "stateMutability": "view",
      "type": "function"
    },
    {
      "inputs": [
        {
          "internalType": "address",
          "name": "_newAdmin",
          "type": "address"
        }
      ],
      "name": "updateAdmin",
      "outputs": [],
      "stateMutability": "nonpayable",
      "type": "function"
    },
    {
      "inputs": [
        {
          "internalType": "uint256",
          "name": "_newExecutionDelay",
          "type": "uint256"
        }
      ],
      "name": "updateExecutionDelay",
      "outputs": [],
      "stateMutability": "nonpayable",
      "type": "function"
    },
    {
      "inputs": [
        {
          "internalType": "uint256",
          "name": "_newQuorum",
          "type": "uint256"
        }
      ],
      "name": "updateQuorum",
      "outputs": [],
      "stateMutability": "nonpayable",
      "type": "function"
    },
    {
      "inputs": [
        {
          "internalType": "address",
          "name": "_newTreasury",
          "type": "address"
        }
      ],
      "name": "updateTreasury",
      "outputs": [],
      "stateMutability": "nonpayable",
      "type": "function"
    },
    {
      "inputs": [
        {
          "internalType": "uint256",
          "name": "_newVotingPeriod",
          "type": "uint256"
        }
      ],
      "name": "updateVotingPeriod",
      "outputs": [],
      "stateMutability": "nonpayable",
      "type": "function"
    },
    {
      "inputs": [],
      "name": "votingPeriod",
      "outputs": [
        {
          "internalType": "uint256",
          "name": "",
          "type": "uint256"
        }
      ],
      "stateMutability": "view",
      "type": "function"
    },
    {
      "inputs": [
        {
          "internalType": "address",
          "name": "token",
          "type": "address"
        },
        {
          "internalType": "bool",
          "name": "status",
          "type": "bool"
        }
      ],
      "name": "whitelistToken",
      "outputs": [],
      "stateMutability": "nonpayable",
      "type": "function"
    },
    {
      "inputs": [
        {
          "internalType": "address",
          "name": "",
          "type": "address"
        }
      ],
      "name": "whitelistedTokens",
      "outputs": [
        {
          "internalType": "bool",
          "name": "",
          "type": "bool"
        }
      ],
      "stateMutability": "view",
      "type": "function"
    },
    {
      "stateMutability": "payable",
      "type": "receive"
    }
  ],
  "bytecode": "0x60806040523480156200001157600080fd5b5060405162001b4e38038062001b4e833981016040819052620000349162000112565b60016000556001600160a01b03851615806200005757506001600160a01b038416155b15620000765760405163d92e233d60e01b815260040160405180910390fd5b801580620000845750606481115b15620000a35760405163162908e360e11b815260040160405180910390fd5b600480546001600160a01b03199081163317909155600580546001600160a01b039788169083161790556006805495909616941693909317909355600155600291909155600355600060095562000165565b80516001600160a01b03811681146200010d57600080fd5b919050565b600080600080600060a086880312156200012b57600080fd5b6200013686620000f5565b94506200014660208701620000f5565b6040870151606088015160809098015196999198509695945092505050565b6119d980620001756000396000f3fe6080604052600436106101395760003560e01c80638da5cb5b116100ab578063daf9c2101161006f578063daf9c210146103a6578063e0a8f6f5146103d6578063e2f273bd146103f6578063ef00ef4314610416578063f2fde38b14610436578063f851a4401461045657600080fd5b80638da5cb5b146102f857806390d2003814610318578063b5af090f14610338578063ba6152f214610371578063c08cc02d1461039157600080fd5b80631703a018116100fd5780631703a0181461020957806335680dc21461021f578063438596321461023f57806361d027b31461028a5780637f51bb1f146102c25780638b257989146102e257600080fd5b8063013cf08b1461014557806302a251a3146101835780630d61b519146101a75780630ffb1d8b146101c957806315373e3d146101e957600080fd5b3661014057005b600080fd5b34801561015157600080fd5b506101656101603660046112c2565b610476565b60405161017a99989796959493929190611321565b60405180910390f35b34801561018f57600080fd5b5061019960015481565b60405190815260200161017a565b3480156101b357600080fd5b506101c76101c23660046112c2565b610558565b005b3480156101d557600080fd5b506101c76101e43660046113ad565b6105e3565b3480156101f557600080fd5b506101c76102043660046113e0565b6106ad565b34801561021557600080fd5b5061019960035481565b34801561022b57600080fd5b506101c761023a3660046112c2565b61083a565b34801561024b57600080fd5b5061027a61025a366004611403565b600a60209081526000928352604080842090915290825290205460ff1681565b604051901515815260200161017a565b34801561029657600080fd5b506006546102aa906001600160a01b031681565b6040516001600160a01b03909116815260200161017a565b3480156102ce57600080fd5b506101c76102dd366004611426565b61090e565b3480156102ee57600080fd5b5061019960025481565b34801561030457600080fd5b506004546102aa906001600160a01b031681565b34801561032457600080fd5b506101c76103333660046112c2565b610982565b34801561034457600080fd5b5061027a610353366004611426565b6001600160a01b031660009081526007602052604090205460ff1690565b34801561037d57600080fd5b5061019961038c366004611675565b610a2b565b34801561039d57600080fd5b50600954610199565b3480156103b257600080fd5b5061027a6103c1366004611426565b60076020526000908152604090205460ff1681565b3480156103e257600080fd5b506101c76103f13660046112c2565b610c54565b34801561040257600080fd5b506101c7610411366004611426565b610d62565b34801561042257600080fd5b506101c76104313660046112c2565b610dd6565b34801561044257600080fd5b506101c7610451366004611426565b610e9e565b34801561046257600080fd5b506005546102aa906001600160a01b031681565b6008602052600090815260409020805460018201805491929161049890611739565b80601f01602080910402602001604051908101604052809291908181526020018280546104c490611739565b80156105115780601f106104e657610100808354040283529160200191610511565b820191906000526020600020905b8154815290600101906020018083116104f457829003601f168201915b5050506002840154600385015460048601546005870154600688015460079098015496976001600160a01b0390941696929550909350919060ff8082169161010090041689565b60026000540361057b576040516306fda65d60e31b815260040160405180910390fd5b6002600090815581815260086020526040902061059781610f12565b60078101805460ff191660011790556105af81611065565b60405182907f712ae1383f79ac853f8d882153778e0260ef8f03b504e2866e0593e04d2b291f90600090a250506001600055565b6005546001600160a01b0316331480159061060957506004546001600160a01b03163314155b156106275760405163036c8cf960e11b815260040160405180910390fd5b6001600160a01b03821661064e5760405163d92e233d60e01b815260040160405180910390fd5b6001600160a01b038216600081815260076020908152604091829020805460ff191685151590811790915591519182527fef81a9943b96c8df4ef243401c9bf5159146166211356898b52d382086168d92910160405180910390a25050565b600082815260086020526040902060028101546001600160a01b03166106e65760405163635e873760e01b815260040160405180910390fd5b600781015460ff161561070c576040516351618d5360e01b815260040160405180910390fd5b6007810154610100900460ff16156107375760405163cc6633c560e01b815260040160405180910390fd5b428160040154101561075c57604051637a19ed0560e01b815260040160405180910390fd5b6000838152600a6020908152604080832033845290915290205460ff161561079757604051637c9a1cf960e01b815260040160405180910390fd5b6000838152600a602090815260408083203384529091529020805460ff1916600117905581156107e15760018160050160008282546107d69190611789565b909155506107fc9050565b60018160060160008282546107f69190611789565b90915550505b6040518215158152339084907fe71fcdac32df1877c1700e7bda2a03157e20993363a28fc35ac495cefc76e4d49060200160405180910390a3505050565b6005546001600160a01b0316331480159061086057506004546001600160a01b03163314155b1561087e5760405163036c8cf960e11b815260040160405180910390fd5b80158061088b5750606481115b156108a95760405163162908e360e11b815260040160405180910390fd5b60038054908290556040805160608082526006908201526551756f72756d60d01b6080820152602081018390529081018390527f185daf617c465de5e0042f7aae1503b1a216ea8927cacf296e58b516e82afea89060a0015b60405180910390a15050565b6004546001600160a01b0316331461093957604051632e6c18c960e11b815260040160405180910390fd5b6001600160a01b0381166109605760405163d92e233d60e01b815260040160405180910390fd5b600680546001600160a01b0319166001600160a01b0392909216919091179055565b6005546001600160a01b031633148015906109a857506004546001600160a01b03163314155b156109c65760405163036c8cf960e11b815260040160405180910390fd5b6002805490829055604080516060808252600e908201526d457865637574696f6e44656c617960901b6080820152602081018390529081018390527f185daf617c465de5e0042f7aae1503b1a216ea8927cacf296e58b516e82afea89060a001610902565b60008351600003610a4f5760405163162908e360e11b815260040160405180910390fd5b82518451141580610a6257508151845114155b15610a805760405163162908e360e11b815260040160405180910390fd5b60098054906000610a90836117a2565b919050555060006009549050604051806101800160405280828152602001878152602001336001600160a01b0316815260200142815260200160015442610ad79190611789565b8152600060208083018290526040808401839052606084018390526080840183905260a084018a905260c0840189905260e09093018790528482526008815291902082518155908201516001820190610b30908261180b565b5060408201516002820180546001600160a01b039092166001600160a01b0319909216919091179055606082015160038201556080820151600482015560a0820151600582015560c0820151600682015560e08201516007820180546101008086015115150261ff00199315159390931661ffff19909116179190911790556101208201518051610bcb916008840191602090910190611161565b506101408201518051610be89160098401916020909101906111c6565b506101608201518051610c0591600a840191602090910190611201565b50905050336001600160a01b0316817f7585f467599d0f008985f231af99293be388626ac16ca59505c2f8f88969cd6388604051610c4391906118cb565b60405180910390a395945050505050565b6005546001600160a01b03163314801590610c7a57506004546001600160a01b03163314155b15610c985760405163036c8cf960e11b815260040160405180910390fd5b600081815260086020526040902060028101546001600160a01b0316610cd15760405163635e873760e01b815260040160405180910390fd5b600781015460ff1615610cf7576040516351618d5360e01b815260040160405180910390fd5b6007810154610100900460ff1615610d225760405163cc6633c560e01b815260040160405180910390fd5b60078101805461ff00191661010017905560405182907f789cf55be980739dad1d0699b93b58e806b51c9d96619bfa8fe0a28abaa7b30c90600090a25050565b6004546001600160a01b03163314610d8d57604051632e6c18c960e11b815260040160405180910390fd5b6001600160a01b038116610db45760405163d92e233d60e01b815260040160405180910390fd5b600580546001600160a01b0319166001600160a01b0392909216919091179055565b6005546001600160a01b03163314801590610dfc57506004546001600160a01b03163314155b15610e1a5760405163036c8cf960e11b815260040160405180910390fd5b80600003610e3b576040516302e8f35960e31b815260040160405180910390fd5b6001805490829055604080516060808252600c908201526b159bdd1a5b99d4195c9a5bd960a21b6080820152602081018390529081018390527f185daf617c465de5e0042f7aae1503b1a216ea8927cacf296e58b516e82afea89060a001610902565b6004546001600160a01b03163314610ec957604051632e6c18c960e11b815260040160405180910390fd5b6001600160a01b038116610ef05760405163d92e233d60e01b815260040160405180910390fd5b600480546001600160a01b0319166001600160a01b0392909216919091179055565b60028101546001600160a01b0316610f3d5760405163635e873760e01b815260040160405180910390fd5b600781015460ff1615610f63576040516351618d5360e01b815260040160405180910390fd5b6007810154610100900460ff1615610f8e5760405163cc6633c560e01b815260040160405180910390fd5b42816004015410610fb257604051633fd0090160e11b815260040160405180910390fd5b6002548160040154610fc49190611789565b421015610fe45760405163cc6633c560e01b815260040160405180910390fd5b600081600601548260050154610ffa9190611789565b90508060000361101d5760405163cc6633c560e01b815260040160405180910390fd5b6000818360050154606461103191906118de565b61103b91906118f5565b90506003548110156110605760405163cc6633c560e01b815260040160405180910390fd5b505050565b60005b600882015481101561115d57600082600801828154811061108b5761108b611917565b6000918252602090912001546009840180546001600160a01b0390921691849081106110b9576110b9611917565b906000526020600020015484600a0184815481106110d9576110d9611917565b906000526020600020016040516110f0919061192d565b60006040518083038185875af1925050503d806000811461112d576040519150601f19603f3d011682016040523d82523d6000602084013e611132565b606091505b5050905080611154576040516301b2776960e11b815260040160405180910390fd5b50600101611068565b5050565b8280548282559060005260206000209081019282156111b6579160200282015b828111156111b657825182546001600160a01b0319166001600160a01b03909116178255602090920191600190910190611181565b506111c2929150611253565b5090565b8280548282559060005260206000209081019282156111b6579160200282015b828111156111b65782518255916020019190600101906111e6565b828054828255906000526020600020908101928215611247579160200282015b828111156112475782518290611237908261180b565b5091602001919060010190611221565b506111c2929150611268565b5b808211156111c25760008155600101611254565b808211156111c257600061127c8282611285565b50600101611268565b50805461129190611739565b6000825580601f106112a1575050565b601f0160209004906000526020600020908101906112bf9190611253565b50565b6000602082840312156112d457600080fd5b5035919050565b6000815180845260005b81811015611301576020818501810151868301820152016112e5565b506000602082860101526020601f19601f83011685010191505092915050565b60006101208b835280602084015261133b8184018c6112db565b6001600160a01b039a909a16604084015250506060810196909652608086019490945260a085019290925260c0840152151560e083015215156101009091015292915050565b80356001600160a01b038116811461139857600080fd5b919050565b8035801515811461139857600080fd5b600080604083850312156113c057600080fd5b6113c983611381565b91506113d76020840161139d565b90509250929050565b600080604083850312156113f357600080fd5b823591506113d76020840161139d565b6000806040838503121561141657600080fd5b823591506113d760208401611381565b60006020828403121561143857600080fd5b61144182611381565b9392505050565b634e487b7160e01b600052604160045260246000fd5b604051601f8201601f1916810167ffffffffffffffff8111828210171561148757611487611448565b604052919050565b600067ffffffffffffffff8311156114a9576114a9611448565b6114bc601f8401601f191660200161145e565b90508281528383830111156114d057600080fd5b828260208301376000602084830101529392505050565b600067ffffffffffffffff82111561150157611501611448565b5060051b60200190565b600082601f83011261151c57600080fd5b8135602061153161152c836114e7565b61145e565b8083825260208201915060208460051b87010193508684111561155357600080fd5b602086015b848110156115765761156981611381565b8352918301918301611558565b509695505050505050565b600082601f83011261159257600080fd5b813560206115a261152c836114e7565b8083825260208201915060208460051b8701019350868411156115c457600080fd5b602086015b8481101561157657803583529183019183016115c9565b600082601f8301126115f157600080fd5b8135602061160161152c836114e7565b82815260059290921b8401810191818101908684111561162057600080fd5b8286015b8481101561157657803567ffffffffffffffff8111156116445760008081fd5b8701603f810189136116565760008081fd5b61166789868301356040840161148f565b845250918301918301611624565b6000806000806080858703121561168b57600080fd5b843567ffffffffffffffff808211156116a357600080fd5b818701915087601f8301126116b757600080fd5b6116c68883356020850161148f565b955060208701359150808211156116dc57600080fd5b6116e88883890161150b565b945060408701359150808211156116fe57600080fd5b61170a88838901611581565b9350606087013591508082111561172057600080fd5b5061172d878288016115e0565b91505092959194509250565b600181811c9082168061174d57607f821691505b60208210810361176d57634e487b7160e01b600052602260045260246000fd5b50919050565b634e487b7160e01b600052601160045260246000fd5b8082018082111561179c5761179c611773565b92915050565b6000600182016117b4576117b4611773565b5060010190565b601f821115611060576000816000526020600020601f850160051c810160208610156117e45750805b601f850160051c820191505b81811015611803578281556001016117f0565b505050505050565b815167ffffffffffffffff81111561182557611825611448565b611839816118338454611739565b846117bb565b602080601f83116001811461186e57600084156118565750858301515b600019600386901b1c1916600185901b178555611803565b600085815260208120601f198616915b8281101561189d5788860151825594840194600190910190840161187e565b50858210156118bb5787850151600019600388901b60f8161c191681555b5050505050600190811b01905550565b60208152600061144160208301846112db565b808202811582820484141761179c5761179c611773565b60008261191257634e487b7160e01b600052601260045260246000fd5b500490565b634e487b7160e01b600052603260045260246000fd5b600080835461193b81611739565b60018281168015611953576001811461196857611997565b60ff1984168752821515830287019450611997565b8760005260208060002060005b8581101561198e5781548a820152908401908201611975565b50505082870194505b5092969550505050505056fea2646970667358221220637838239d3448aaf074a4dde0ce35aa2ec5813c78a5a77a51768887e7a5723464736f6c63430008180033",
  "linkReferences": {},
  "deployedLinkReferences": {}
}