{
  "_format": "hh-sol-artifact-1",
  "contractName": "SimplifiedAdminControls",
  "sourceName": "contracts/governance/SimplifiedAdminControls.sol",
  "abi": [
    {
      "inputs": [
        {
          "internalType": "address",
          "name": "_deployer",
          "type": "address"
        },
        {
          "internalType": "uint256",
          "name": "_approvalThreshold",
          "type": "uint256"
        },
        {
          "internalType": "uint256",
          "name": "_timelock",
          "type": "uint256"
        }
      ],
      "stateMutability": "nonpayable",
      "type": "constructor"
    },
    {
      "inputs": [],
      "name": "AccessControlBadConfirmation",
      "type": "error"
    },
    {
      "inputs": [
        {
          "internalType": "address",
          "name": "account",
          "type": "address"
        },
        {
          "internalType": "bytes32",
          "name": "neededRole",
          "type": "bytes32"
        }
      ],
      "name": "AccessControlUnauthorizedAccount",
      "type": "error"
    },
    {
      "inputs": [],
      "name": "AlreadyApproved",
      "type": "error"
    },
    {
      "inputs": [],
      "name": "AlreadyExecuted",
      "type": "error"
    },
    {
      "inputs": [],
      "name": "EmptyName",
      "type": "error"
    },
    {
      "inputs": [],
      "name": "InvalidAmount",
      "type": "error"
    },
    {
      "inputs": [],
      "name": "NameAlreadyRegistered",
      "type": "error"
    },
    {
      "inputs": [],
      "name": "OperationFailed",
      "type": "error"
    },
    {
      "inputs": [],
      "name": "OperationNotFound",
      "type": "error"
    },
    {
      "inputs": [],
      "name": "TimelockNotExpired",
      "type": "error"
    },
    {
      "inputs": [],
      "name": "ZeroAddress",
      "type": "error"
    },
    {
      "anonymous": false,
      "inputs": [
        {
          "indexed": true,
          "internalType": "string",
          "name": "parameter",
          "type": "string"
        },
        {
          "indexed": false,
          "internalType": "uint256",
          "name": "oldValue",
          "type": "uint256"
        },
        {
          "indexed": false,
          "internalType": "uint256",
          "name": "newValue",
          "type": "uint256"
        }
      ],
      "name": "AdminParameterUpdated",
      "type": "event"
    },
    {
      "anonymous": false,
      "inputs": [
        {
          "indexed": true,
          "internalType": "address",
          "name": "contractAddress",
          "type": "address"
        },
        {
          "indexed": true,
          "internalType": "address",
          "name": "approver",
          "type": "address"
        }
      ],
      "name": "ContractApproved",
      "type": "event"
    },
    {
      "anonymous": false,
      "inputs": [
        {
          "indexed": true,
          "internalType": "string",
          "name": "name",
          "type": "string"
        },
        {
          "indexed": true,
          "internalType": "address",
          "name": "contractAddress",
          "type": "address"
        }
      ],
      "name": "ContractRegistered",
      "type": "event"
    },
    {
      "anonymous": false,
      "inputs": [
        {
          "indexed": true,
          "internalType": "bytes32",
          "name": "operationId",
          "type": "bytes32"
        }
      ],
      "name": "OperationExecuted",
      "type": "event"
    },
    {
      "anonymous": false,
      "inputs": [
        {
          "indexed": true,
          "internalType": "bytes32",
          "name": "operationId",
          "type": "bytes32"
        },
        {
          "indexed": true,
          "internalType": "address",
          "name": "target",
          "type": "address"
        },
        {
          "indexed": false,
          "internalType": "uint256",
          "name": "timestamp",
          "type": "uint256"
        }
      ],
      "name": "OperationScheduled",
      "type": "event"
    },
    {
      "anonymous": false,
      "inputs": [
        {
          "indexed": true,
          "internalType": "bytes32",
          "name": "role",
          "type": "bytes32"
        },
        {
          "indexed": true,
          "internalType": "bytes32",
          "name": "previousAdminRole",
          "type": "bytes32"
        },
        {
          "indexed": true,
          "internalType": "bytes32",
          "name": "newAdminRole",
          "type": "bytes32"
        }
      ],
      "name": "RoleAdminChanged",
      "type": "event"
    },
    {
      "anonymous": false,
      "inputs": [
        {
          "indexed": true,
          "internalType": "bytes32",
          "name": "role",
          "type": "bytes32"
        },
        {
          "indexed": true,
          "internalType": "address",
          "name": "account",
          "type": "address"
        },
        {
          "indexed": true,
          "internalType": "address",
          "name": "grantor",
          "type": "address"
        }
      ],
      "name": "RoleAssigned",
      "type": "event"
    },
    {
      "anonymous": false,
      "inputs": [
        {
          "indexed": true,
          "internalType": "bytes32",
          "name": "role",
          "type": "bytes32"
        },
        {
          "indexed": true,
          "internalType": "address",
          "name": "account",
          "type": "address"
        },
        {
          "indexed": true,
          "internalType": "address",
          "name": "sender",
          "type": "address"
        }
      ],
      "name": "RoleGranted",
      "type": "event"
    },
    {
      "anonymous": false,
      "inputs": [
        {
          "indexed": true,
          "internalType": "bytes32",
          "name": "role",
          "type": "bytes32"
        },
        {
          "indexed": true,
          "internalType": "address",
          "name": "account",
          "type": "address"
        },
        {
          "indexed": true,
          "internalType": "address",
          "name": "sender",
          "type": "address"
        }
      ],
      "name": "RoleRevoked",
      "type": "event"
    },
    {
      "inputs": [],
      "name": "ADMIN_ROLE",
      "outputs": [
        {
          "internalType": "bytes32",
          "name": "",
          "type": "bytes32"
        }
      ],
      "stateMutability": "view",
      "type": "function"
    },
    {
      "inputs": [],
      "name": "DEFAULT_ADMIN_ROLE",
      "outputs": [
        {
          "internalType": "bytes32",
          "name": "",
          "type": "bytes32"
        }
      ],
      "stateMutability": "view",
      "type": "function"
    },
    {
      "inputs": [],
      "name": "DEPLOYER_ROLE",
      "outputs": [
        {
          "internalType": "bytes32",
          "name": "",
          "type": "bytes32"
        }
      ],
      "stateMutability": "view",
      "type": "function"
    },
    {
      "inputs": [],
      "name": "GOVERNANCE_ROLE",
      "outputs": [
        {
          "internalType": "bytes32",
          "name": "",
          "type": "bytes32"
        }
      ],
      "stateMutability": "view",
      "type": "function"
    },
    {
      "inputs": [],
      "name": "approvalThreshold",
      "outputs": [
        {
          "internalType": "uint256",
          "name": "",
          "type": "uint256"
        }
      ],
      "stateMutability": "view",
      "type": "function"
    },
    {
      "inputs": [
        {
          "internalType": "address",
          "name": "contractAddress",
          "type": "address"
        }
      ],
      "name": "approveContract",
      "outputs": [],
      "stateMutability": "nonpayable",
      "type": "function"
    },
    {
      "inputs": [
        {
          "internalType": "address",
          "name": "",
          "type": "address"
        }
      ],
      "name": "approvedContracts",
      "outputs": [
        {
          "internalType": "bool",
          "name": "",
          "type": "bool"
        }
      ],
      "stateMutability": "view",
      "type": "function"
    },
    {
      "inputs": [
        {
          "internalType": "bytes32",
          "name": "role",
          "type": "bytes32"
        },
        {
          "internalType": "address",
          "name": "account",
          "type": "address"
        }
      ],
      "name": "assignRole",
      "outputs": [],
      "stateMutability": "nonpayable",
      "type": "function"
    },
    {
      "inputs": [
        {
          "internalType": "bytes32",
          "name": "operationId",
          "type": "bytes32"
        }
      ],
      "name": "executeOperation",
      "outputs": [],
      "stateMutability": "nonpayable",
      "type": "function"
    },
    {
      "inputs": [
        {
          "internalType": "string",
          "name": "name",
          "type": "string"
        }
      ],
      "name": "getContractAddress",
      "outputs": [
        {
          "internalType": "address",
          "name": "",
          "type": "address"
        }
      ],
      "stateMutability": "view",
      "type": "function"
    },
    {
      "inputs": [],
      "name": "getPendingOperationIds",
      "outputs": [
        {
          "internalType": "bytes32[]",
          "name": "",
          "type": "bytes32[]"
        }
      ],
      "stateMutability": "view",
      "type": "function"
    },
    {
      "inputs": [
        {
          "internalType": "bytes32",
          "name": "role",
          "type": "bytes32"
        }
      ],
      "name": "getRoleAdmin",
      "outputs": [
        {
          "internalType": "bytes32",
          "name": "",
          "type": "bytes32"
        }
      ],
      "stateMutability": "view",
      "type": "function"
    },
    {
      "inputs": [
        {
          "internalType": "bytes32",
          "name": "role",
          "type": "bytes32"
        },
        {
          "internalType": "address",
          "name": "account",
          "type": "address"
        }
      ],
      "name": "grantRole",
      "outputs": [],
      "stateMutability": "nonpayable",
      "type": "function"
    },
    {
      "inputs": [
        {
          "internalType": "bytes32",
          "name": "role",
          "type": "bytes32"
        },
        {
          "internalType": "address",
          "name": "account",
          "type": "address"
        }
      ],
      "name": "hasAdminRole",
      "outputs": [
        {
          "internalType": "bool",
          "name": "",
          "type": "bool"
        }
      ],
      "stateMutability": "view",
      "type": "function"
    },
    {
      "inputs": [
        {
          "internalType": "bytes32",
          "name": "role",
          "type": "bytes32"
        },
        {
          "internalType": "address",
          "name": "account",
          "type": "address"
        }
      ],
      "name": "hasRole",
      "outputs": [
        {
          "internalType": "bool",
          "name": "",
          "type": "bool"
        }
      ],
      "stateMutability": "view",
      "type": "function"
    },
    {
      "inputs": [
        {
          "internalType": "address",
          "name": "contractAddress",
          "type": "address"
        }
      ],
      "name": "isApprovedContract",
      "outputs": [
        {
          "internalType": "bool",
          "name": "",
          "type": "bool"
        }
      ],
      "stateMutability": "view",
      "type": "function"
    },
    {
      "inputs": [
        {
          "internalType": "string",
          "name": "",
          "type": "string"
        }
      ],
      "name": "managedContracts",
      "outputs": [
        {
          "internalType": "address",
          "name": "",
          "type": "address"
        }
      ],
      "stateMutability": "view",
      "type": "function"
    },
    {
      "inputs": [
        {
          "internalType": "uint256",
          "name": "",
          "type": "uint256"
        }
      ],
      "name": "pendingOperationIds",
      "outputs": [
        {
          "internalType": "bytes32",
          "name": "",
          "type": "bytes32"
        }
      ],
      "stateMutability": "view",
      "type": "function"
    },
    {
      "inputs": [
        {
          "internalType": "bytes32",
          "name": "",
          "type": "bytes32"
        }
      ],
      "name": "pendingOperations",
      "outputs": [
        {
          "internalType": "bytes32",
          "name": "operationId",
          "type": "bytes32"
        },
        {
          "internalType": "address",
          "name": "target",
          "type": "address"
        },
        {
          "internalType": "bytes",
          "name": "callData",
          "type": "bytes"
        },
        {
          "internalType": "uint256",
          "name": "timestamp",
          "type": "uint256"
        },
        {
          "internalType": "bool",
          "name": "executed",
          "type": "bool"
        }
      ],
      "stateMutability": "view",
      "type": "function"
    },
    {
      "inputs": [
        {
          "internalType": "string",
          "name": "name",
          "type": "string"
        },
        {
          "internalType": "address",
          "name": "contractAddress",
          "type": "address"
        }
      ],
      "name": "registerContract",
      "outputs": [],
      "stateMutability": "nonpayable",
      "type": "function"
    },
    {
      "inputs": [
        {
          "internalType": "bytes32",
          "name": "role",
          "type": "bytes32"
        },
        {
          "internalType": "address",
          "name": "callerConfirmation",
          "type": "address"
        }
      ],
      "name": "renounceRole",
      "outputs": [],
      "stateMutability": "nonpayable",
      "type": "function"
    },
    {
      "inputs": [
        {
          "internalType": "bytes32",
          "name": "role",
          "type": "bytes32"
        },
        {
          "internalType": "address",
          "name": "account",
          "type": "address"
        }
      ],
      "name": "revokeRole",
      "outputs": [],
      "stateMutability": "nonpayable",
      "type": "function"
    },
    {
      "inputs": [
        {
          "internalType": "address",
          "name": "target",
          "type": "address"
        },
        {
          "internalType": "bytes",
          "name": "callData",
          "type": "bytes"
        }
      ],
      "name": "scheduleOperation",
      "outputs": [
        {
          "internalType": "bytes32",
          "name": "",
          "type": "bytes32"
        }
      ],
      "stateMutability": "nonpayable",
      "type": "function"
    },
    {
      "inputs": [
        {
          "internalType": "bytes4",
          "name": "interfaceId",
          "type": "bytes4"
        }
      ],
      "name": "supportsInterface",
      "outputs": [
        {
          "internalType": "bool",
          "name": "",
          "type": "bool"
        }
      ],
      "stateMutability": "view",
      "type": "function"
    },
    {
      "inputs": [],
      "name": "timelock",
      "outputs": [
        {
          "internalType": "uint256",
          "name": "",
          "type": "uint256"
        }
      ],
      "stateMutability": "view",
      "type": "function"
    },
    {
      "inputs": [
        {
          "internalType": "uint256",
          "name": "_approvalThreshold",
          "type": "uint256"
        }
      ],
      "name": "updateApprovalThreshold",
      "outputs": [],
      "stateMutability": "nonpayable",
      "type": "function"
    },
    {
      "inputs": [
        {
          "internalType": "uint256",
          "name": "_timelock",
          "type": "uint256"
        }
      ],
      "name": "updateTimelock",
      "outputs": [],
      "stateMutability": "nonpayable",
      "type": "function"
    }
  ],
  "bytecode": "0x60806040523480156200001157600080fd5b506040516200160d3803806200160d8339810160408190526200003491620001b0565b6001600160a01b0383166200005c5760405163d92e233d60e01b815260040160405180910390fd5b6200006960008462000101565b50620000967ffc425f2263d0df187444b70e47283d622c70181c5baebb1306a01edba1ce184c8462000101565b50620000c37fa49807205ce4d355092ef5a8a18f56e8913cf4a201fbe287825b095693c217758462000101565b50620000f07f71840dc4906352362b0cdaf79870196c8e42acafade72d5d5a6d59291253ceb18462000101565b5060039190915560045550620001f5565b6000828152602081815260408083206001600160a01b038516845290915281205460ff16620001a6576000838152602081815260408083206001600160a01b03861684529091529020805460ff191660011790556200015d3390565b6001600160a01b0316826001600160a01b0316847f2f8788117e7eff1d82e926ec794901d17c78024a50270940304540a733656f0d60405160405180910390a4506001620001aa565b5060005b92915050565b600080600060608486031215620001c657600080fd5b83516001600160a01b0381168114620001de57600080fd5b602085015160409095015190969495509392505050565b61140880620002056000396000f3fe608060405234801561001057600080fd5b50600436106101a95760003560e01c80636eedadca116100f9578063a217fddf11610097578063d547741f11610071578063d547741f146103f0578063ecd0026114610403578063f36c8f5c1461042a578063fa1ccffd1461045157600080fd5b8063a217fddf146103cc578063cbaf2fa7146103d4578063d33219b4146103e757600080fd5b80637d0eef61116100d35780637d0eef61146103795780637f3c2c281461038257806391d148541461039557806394c49cac146103a857600080fd5b80636eedadca1461032357806375b238fc1461034f5780637b1461981461036457600080fd5b806326749ad71161016657806336568abe1161014057806336568abe146102b6578063428c56db146102c957806344336df4146102dc57806347cd47b61461031057600080fd5b806326749ad71461026d5780632f2ff15d1461029057806330a727b3146102a357600080fd5b806301ffc9a7146101ae57806304433bbc146101d657806307f7aafb146102015780631c6f2ae2146102165780631f706a5914610229578063248a9ca31461024a575b600080fd5b6101c16101bc366004610e74565b610464565b60405190151581526020015b60405180910390f35b6101e96101e4366004610f4a565b61049b565b6040516001600160a01b0390911681526020016101cd565b61021461020f366004610fa3565b6104cc565b005b610214610224366004610fbe565b610594565b61023c610237366004610fbe565b61064a565b6040519081526020016101cd565b61023c610258366004610fbe565b60009081526020819052604090206001015490565b6101c161027b366004610fa3565b60026020526000908152604090205460ff1681565b61021461029e366004610fd7565b61066b565b6102146102b1366004610fd7565b610696565b6102146102c4366004610fd7565b61070f565b6101c16102d7366004610fd7565b610747565b6101e96102ea366004610f4a565b80516020818301810180516001825292820191909301209152546001600160a01b031681565b61023c61031e366004611003565b61075a565b6101c1610331366004610fa3565b6001600160a01b031660009081526002602052604090205460ff1690565b61023c6000805160206113b383398151915281565b61036c6108d9565b6040516101cd9190611065565b61023c60035481565b6102146103903660046110a9565b610931565b6101c16103a3366004610fd7565b610a64565b6103bb6103b6366004610fbe565b610a8d565b6040516101cd95949392919061113e565b61023c600081565b6102146103e2366004610fbe565b610b52565b61023c60045481565b6102146103fe366004610fd7565b610cb9565b61023c7ffc425f2263d0df187444b70e47283d622c70181c5baebb1306a01edba1ce184c81565b61023c7f71840dc4906352362b0cdaf79870196c8e42acafade72d5d5a6d59291253ceb181565b61021461045f366004610fbe565b610cde565b60006001600160e01b03198216637965db0b60e01b148061049557506301ffc9a760e01b6001600160e01b03198316145b92915050565b60006001826040516104ad9190611181565b908152604051908190036020019020546001600160a01b031692915050565b6000805160206113b38339815191526104e481610d29565b6001600160a01b03821661050b5760405163d92e233d60e01b815260040160405180910390fd5b6001600160a01b03821660009081526002602052604090205460ff16156105455760405163080fc0bd60e11b815260040160405180910390fd5b6001600160a01b038216600081815260026020526040808220805460ff19166001179055513392917f329b5f7db63f569f81bfeb8c6fbbc6bba7274d06a644011a6f3e7ac77ab0cf7691a35050565b7f71840dc4906352362b0cdaf79870196c8e42acafade72d5d5a6d59291253ceb16105be81610d29565b816000036105df5760405163162908e360e11b815260040160405180910390fd5b600380549083905560405170105c1c1c9bdd985b151a1c995cda1bdb19607a1b81526011015b6040805191829003822083835260208301869052917faf926e76bf13177a12c0cd0e3c48728a4fc68225bdadba0b0b367e29fe6876d5910160405180910390a2505050565b6006818154811061065a57600080fd5b600091825260209091200154905081565b60008281526020819052604090206001015461068681610d29565b6106908383610d36565b50505050565b60006106a181610d29565b6001600160a01b0382166106c85760405163d92e233d60e01b815260040160405180910390fd5b6106d2838361066b565b60405133906001600160a01b0384169085907fd3c3c74ac78e01f4affcaa9191550c84a2b0b79d8f0dfcee7645eda13a90c6c790600090a4505050565b6001600160a01b03811633146107385760405163334bd91960e11b815260040160405180910390fd5b6107428282610dc8565b505050565b60006107538383610a64565b9392505050565b60006000805160206113b383398151915261077481610d29565b6001600160a01b03841661079b5760405163d92e233d60e01b815260040160405180910390fd5b60008484426040516020016107b29392919061119d565b60408051808303601f19018152828252805160209182012060a0840183528084526001600160a01b038981168386019081528585018a81524260608801526000608088018190528481526005909552949093208551815592516001840180546001600160a01b031916919092161790559151919350906002820190610837908261125b565b50606082015160038201556080909101516004909101805460ff1916911515919091179055600680546001810182556000919091527ff652222313e28459528d920b65115c16c04f3efc82aaedc97be59f3f377c0d3f018190556040514281526001600160a01b0386169082907f991e9b0e2f98c3989f4541ce66e9aca44e8bfb1c75bcf862d80f800369e6c6a39060200160405180910390a3949350505050565b6060600680548060200260200160405190810160405280929190818152602001828054801561092757602002820191906000526020600020905b815481526020019060010190808311610913575b5050505050905090565b6000805160206113b383398151915261094981610d29565b825160000361096b57604051632ef1310560e01b815260040160405180910390fd5b6001600160a01b0382166109925760405163d92e233d60e01b815260040160405180910390fd5b60006001600160a01b03166001846040516109ad9190611181565b908152604051908190036020019020546001600160a01b0316146109e4576040516301224a6f60e11b815260040160405180910390fd5b816001846040516109f59190611181565b90815260405190819003602001812080546001600160a01b039384166001600160a01b031990911617905590831690610a2f908590611181565b604051908190038120907f2a88e68a891ddb61f7aebfdeefd9fb74964fcd5371b692ea59cca73fc58f480590600090a3505050565b6000918252602082815260408084206001600160a01b0393909316845291905290205460ff1690565b60056020526000908152604090208054600182015460028301805492936001600160a01b0390921692610abf906111d1565b80601f0160208091040260200160405190810160405280929190818152602001828054610aeb906111d1565b8015610b385780601f10610b0d57610100808354040283529160200191610b38565b820191906000526020600020905b815481529060010190602001808311610b1b57829003601f168201915b50505050600383015460049093015491929160ff16905085565b6000805160206113b3833981519152610b6a81610d29565b600082815260056020526040902080548314610b9957604051630f046c7760e41b815260040160405180910390fd5b600481015460ff1615610bbf57604051630dc1019760e01b815260040160405180910390fd5b6004548160030154610bd1919061131b565b421015610bf15760405163621e25c360e01b815260040160405180910390fd5b60048101805460ff191660019081179091558101546040516000916001600160a01b031690610c2490600285019061133c565b6000604051808303816000865af19150503d8060008114610c61576040519150601f19603f3d011682016040523d82523d6000602084013e610c66565b606091505b5050905080610c88576040516301b2776960e11b815260040160405180910390fd5b60405184907f1277662f4b42b8a4069e99fb5e41ce8919d3c621156090ac08fb11adbcec66f990600090a250505050565b600082815260208190526040902060010154610cd481610d29565b6106908383610dc8565b7f71840dc4906352362b0cdaf79870196c8e42acafade72d5d5a6d59291253ceb1610d0881610d29565b60048054908390556040516754696d656c6f636b60c01b8152600801610605565b610d338133610e33565b50565b6000610d428383610a64565b610dc0576000838152602081815260408083206001600160a01b03861684529091529020805460ff19166001179055610d783390565b6001600160a01b0316826001600160a01b0316847f2f8788117e7eff1d82e926ec794901d17c78024a50270940304540a733656f0d60405160405180910390a4506001610495565b506000610495565b6000610dd48383610a64565b15610dc0576000838152602081815260408083206001600160a01b0386168085529252808320805460ff1916905551339286917ff6391f5c32d9c69d2a47ea670b442974b53935d1edc7fd64eb21e047a839171b9190a4506001610495565b610e3d8282610a64565b610e705760405163e2517d3f60e01b81526001600160a01b03821660048201526024810183905260440160405180910390fd5b5050565b600060208284031215610e8657600080fd5b81356001600160e01b03198116811461075357600080fd5b634e487b7160e01b600052604160045260246000fd5b600067ffffffffffffffff80841115610ecf57610ecf610e9e565b604051601f8501601f19908116603f01168101908282118183101715610ef757610ef7610e9e565b81604052809350858152868686011115610f1057600080fd5b858560208301376000602087830101525050509392505050565b600082601f830112610f3b57600080fd5b61075383833560208501610eb4565b600060208284031215610f5c57600080fd5b813567ffffffffffffffff811115610f7357600080fd5b610f7f84828501610f2a565b949350505050565b80356001600160a01b0381168114610f9e57600080fd5b919050565b600060208284031215610fb557600080fd5b61075382610f87565b600060208284031215610fd057600080fd5b5035919050565b60008060408385031215610fea57600080fd5b82359150610ffa60208401610f87565b90509250929050565b6000806040838503121561101657600080fd5b61101f83610f87565b9150602083013567ffffffffffffffff81111561103b57600080fd5b8301601f8101851361104c57600080fd5b61105b85823560208401610eb4565b9150509250929050565b6020808252825182820181905260009190848201906040850190845b8181101561109d57835183529284019291840191600101611081565b50909695505050505050565b600080604083850312156110bc57600080fd5b823567ffffffffffffffff8111156110d357600080fd5b6110df85828601610f2a565b925050610ffa60208401610f87565b60005b838110156111095781810151838201526020016110f1565b50506000910152565b6000815180845261112a8160208601602086016110ee565b601f01601f19169290920160200192915050565b8581526001600160a01b038516602082015260a06040820181905260009061116890830186611112565b6060830194909452509015156080909101529392505050565b600082516111938184602087016110ee565b9190910192915050565b6001600160a01b03841681526060602082018190526000906111c190830185611112565b9050826040830152949350505050565b600181811c908216806111e557607f821691505b60208210810361120557634e487b7160e01b600052602260045260246000fd5b50919050565b601f821115610742576000816000526020600020601f850160051c810160208610156112345750805b601f850160051c820191505b8181101561125357828155600101611240565b505050505050565b815167ffffffffffffffff81111561127557611275610e9e565b6112898161128384546111d1565b8461120b565b602080601f8311600181146112be57600084156112a65750858301515b600019600386901b1c1916600185901b178555611253565b600085815260208120601f198616915b828110156112ed578886015182559484019460019091019084016112ce565b508582101561130b5787850151600019600388901b60f8161c191681555b5050505050600190811b01905550565b8082018082111561049557634e487b7160e01b600052601160045260246000fd5b600080835461134a816111d1565b600182811680156113625760018114611377576113a6565b60ff19841687528215158302870194506113a6565b8760005260208060002060005b8581101561139d5781548a820152908401908201611384565b50505082870194505b5092969550505050505056fea49807205ce4d355092ef5a8a18f56e8913cf4a201fbe287825b095693c21775a264697066735822122097ddb780cd3c32b7c611c1d00b2a9283d3d5a00add20e69f5aa9b4eee20e0f0f64736f6c63430008180033",
  "linkReferences": {},
  "deployedLinkReferences": {}
}