{
  "_format": "hh-sol-artifact-1",
  "contractName": "MockGovernanceToken",
  "sourceName": "contracts/mocks/MockGovernanceToken.sol",
  "abi": [
    {
      "inputs": [
        {
          "internalType": "string",
          "name": "name",
          "type": "string"
        },
        {
          "internalType": "string",
          "name": "symbol",
          "type": "string"
        },
        {
          "internalType": "uint8",
          "name": "decimals_",
          "type": "uint8"
        }
      ],
      "stateMutability": "nonpayable",
      "type": "constructor"
    },
    {
      "inputs": [],
      "name": "AccessControlBadConfirmation",
      "type": "error"
    },
    {
      "inputs": [
        {
          "internalType": "address",
          "name": "account",
          "type": "address"
        },
        {
          "internalType": "bytes32",
          "name": "neededRole",
          "type": "bytes32"
        }
      ],
      "name": "AccessControlUnauthorizedAccount",
      "type": "error"
    },
    {
      "inputs": [
        {
          "internalType": "address",
          "name": "spender",
          "type": "address"
        },
        {
          "internalType": "uint256",
          "name": "allowance",
          "type": "uint256"
        },
        {
          "internalType": "uint256",
          "name": "needed",
          "type": "uint256"
        }
      ],
      "name": "ERC20InsufficientAllowance",
      "type": "error"
    },
    {
      "inputs": [
        {
          "internalType": "address",
          "name": "sender",
          "type": "address"
        },
        {
          "internalType": "uint256",
          "name": "balance",
          "type": "uint256"
        },
        {
          "internalType": "uint256",
          "name": "needed",
          "type": "uint256"
        }
      ],
      "name": "ERC20InsufficientBalance",
      "type": "error"
    },
    {
      "inputs": [
        {
          "internalType": "address",
          "name": "approver",
          "type": "address"
        }
      ],
      "name": "ERC20InvalidApprover",
      "type": "error"
    },
    {
      "inputs": [
        {
          "internalType": "address",
          "name": "receiver",
          "type": "address"
        }
      ],
      "name": "ERC20InvalidReceiver",
      "type": "error"
    },
    {
      "inputs": [
        {
          "internalType": "address",
          "name": "sender",
          "type": "address"
        }
      ],
      "name": "ERC20InvalidSender",
      "type": "error"
    },
    {
      "inputs": [
        {
          "internalType": "address",
          "name": "spender",
          "type": "address"
        }
      ],
      "name": "ERC20InvalidSpender",
      "type": "error"
    },
    {
      "inputs": [
        {
          "internalType": "address",
          "name": "owner",
          "type": "address"
        }
      ],
      "name": "OwnableInvalidOwner",
      "type": "error"
    },
    {
      "inputs": [
        {
          "internalType": "address",
          "name": "account",
          "type": "address"
        }
      ],
      "name": "OwnableUnauthorizedAccount",
      "type": "error"
    },
    {
      "anonymous": false,
      "inputs": [
        {
          "indexed": true,
          "internalType": "address",
          "name": "owner",
          "type": "address"
        },
        {
          "indexed": true,
          "internalType": "address",
          "name": "spender",
          "type": "address"
        },
        {
          "indexed": false,
          "internalType": "uint256",
          "name": "value",
          "type": "uint256"
        }
      ],
      "name": "Approval",
      "type": "event"
    },
    {
      "anonymous": false,
      "inputs": [
        {
          "indexed": true,
          "internalType": "string",
          "name": "functionName",
          "type": "string"
        },
        {
          "indexed": true,
          "internalType": "address",
          "name": "caller",
          "type": "address"
        },
        {
          "indexed": false,
          "internalType": "bytes",
          "name": "data",
          "type": "bytes"
        }
      ],
      "name": "MockFunctionCalled",
      "type": "event"
    },
    {
      "anonymous": false,
      "inputs": [
        {
          "indexed": true,
          "internalType": "address",
          "name": "caller",
          "type": "address"
        }
      ],
      "name": "MockInitialized",
      "type": "event"
    },
    {
      "anonymous": false,
      "inputs": [],
      "name": "MockStateReset",
      "type": "event"
    },
    {
      "anonymous": false,
      "inputs": [
        {
          "indexed": true,
          "internalType": "address",
          "name": "previousOwner",
          "type": "address"
        },
        {
          "indexed": true,
          "internalType": "address",
          "name": "newOwner",
          "type": "address"
        }
      ],
      "name": "OwnershipTransferred",
      "type": "event"
    },
    {
      "anonymous": false,
      "inputs": [
        {
          "indexed": true,
          "internalType": "bytes32",
          "name": "role",
          "type": "bytes32"
        },
        {
          "indexed": true,
          "internalType": "bytes32",
          "name": "previousAdminRole",
          "type": "bytes32"
        },
        {
          "indexed": true,
          "internalType": "bytes32",
          "name": "newAdminRole",
          "type": "bytes32"
        }
      ],
      "name": "RoleAdminChanged",
      "type": "event"
    },
    {
      "anonymous": false,
      "inputs": [
        {
          "indexed": true,
          "internalType": "bytes32",
          "name": "role",
          "type": "bytes32"
        },
        {
          "indexed": true,
          "internalType": "address",
          "name": "account",
          "type": "address"
        },
        {
          "indexed": true,
          "internalType": "address",
          "name": "sender",
          "type": "address"
        }
      ],
      "name": "RoleGranted",
      "type": "event"
    },
    {
      "anonymous": false,
      "inputs": [
        {
          "indexed": true,
          "internalType": "bytes32",
          "name": "role",
          "type": "bytes32"
        },
        {
          "indexed": true,
          "internalType": "address",
          "name": "account",
          "type": "address"
        },
        {
          "indexed": true,
          "internalType": "address",
          "name": "sender",
          "type": "address"
        }
      ],
      "name": "RoleRevoked",
      "type": "event"
    },
    {
      "anonymous": false,
      "inputs": [
        {
          "indexed": true,
          "internalType": "address",
          "name": "from",
          "type": "address"
        },
        {
          "indexed": false,
          "internalType": "uint256",
          "name": "amount",
          "type": "uint256"
        }
      ],
      "name": "TokensBurned",
      "type": "event"
    },
    {
      "anonymous": false,
      "inputs": [
        {
          "indexed": true,
          "internalType": "address",
          "name": "to",
          "type": "address"
        },
        {
          "indexed": false,
          "internalType": "uint256",
          "name": "amount",
          "type": "uint256"
        }
      ],
      "name": "TokensMinted",
      "type": "event"
    },
    {
      "anonymous": false,
      "inputs": [
        {
          "indexed": true,
          "internalType": "address",
          "name": "from",
          "type": "address"
        },
        {
          "indexed": true,
          "internalType": "address",
          "name": "to",
          "type": "address"
        },
        {
          "indexed": false,
          "internalType": "uint256",
          "name": "value",
          "type": "uint256"
        }
      ],
      "name": "Transfer",
      "type": "event"
    },
    {
      "inputs": [],
      "name": "DEFAULT_ADMIN_ROLE",
      "outputs": [
        {
          "internalType": "bytes32",
          "name": "",
          "type": "bytes32"
        }
      ],
      "stateMutability": "view",
      "type": "function"
    },
    {
      "inputs": [
        {
          "internalType": "address",
          "name": "owner",
          "type": "address"
        },
        {
          "internalType": "address",
          "name": "spender",
          "type": "address"
        }
      ],
      "name": "allowance",
      "outputs": [
        {
          "internalType": "uint256",
          "name": "",
          "type": "uint256"
        }
      ],
      "stateMutability": "view",
      "type": "function"
    },
    {
      "inputs": [
        {
          "internalType": "address",
          "name": "spender",
          "type": "address"
        },
        {
          "internalType": "uint256",
          "name": "value",
          "type": "uint256"
        }
      ],
      "name": "approve",
      "outputs": [
        {
          "internalType": "bool",
          "name": "",
          "type": "bool"
        }
      ],
      "stateMutability": "nonpayable",
      "type": "function"
    },
    {
      "inputs": [
        {
          "internalType": "address",
          "name": "account",
          "type": "address"
        }
      ],
      "name": "balanceOf",
      "outputs": [
        {
          "internalType": "uint256",
          "name": "",
          "type": "uint256"
        }
      ],
      "stateMutability": "view",
      "type": "function"
    },
    {
      "inputs": [
        {
          "internalType": "address",
          "name": "from",
          "type": "address"
        },
        {
          "internalType": "uint256",
          "name": "amount",
          "type": "uint256"
        }
      ],
      "name": "burn",
      "outputs": [],
      "stateMutability": "nonpayable",
      "type": "function"
    },
    {
      "inputs": [],
      "name": "callCount",
      "outputs": [
        {
          "internalType": "uint256",
          "name": "",
          "type": "uint256"
        }
      ],
      "stateMutability": "view",
      "type": "function"
    },
    {
      "inputs": [],
      "name": "decimals",
      "outputs": [
        {
          "internalType": "uint8",
          "name": "",
          "type": "uint8"
        }
      ],
      "stateMutability": "view",
      "type": "function"
    },
    {
      "inputs": [
        {
          "internalType": "address",
          "name": "delegatee",
          "type": "address"
        }
      ],
      "name": "delegate",
      "outputs": [],
      "stateMutability": "nonpayable",
      "type": "function"
    },
    {
      "inputs": [
        {
          "internalType": "string",
          "name": "",
          "type": "string"
        }
      ],
      "name": "functionCallCount",
      "outputs": [
        {
          "internalType": "uint256",
          "name": "",
          "type": "uint256"
        }
      ],
      "stateMutability": "view",
      "type": "function"
    },
    {
      "inputs": [
        {
          "internalType": "address",
          "name": "account",
          "type": "address"
        }
      ],
      "name": "getCurrentVotes",
      "outputs": [
        {
          "internalType": "uint256",
          "name": "",
          "type": "uint256"
        }
      ],
      "stateMutability": "view",
      "type": "function"
    },
    {
      "inputs": [
        {
          "internalType": "string",
          "name": "functionName",
          "type": "string"
        }
      ],
      "name": "getFunctionCallCount",
      "outputs": [
        {
          "internalType": "uint256",
          "name": "",
          "type": "uint256"
        }
      ],
      "stateMutability": "view",
      "type": "function"
    },
    {
      "inputs": [
        {
          "internalType": "string",
          "name": "functionName",
          "type": "string"
        }
      ],
      "name": "getFunctionCallHistory",
      "outputs": [
        {
          "internalType": "uint256",
          "name": "count",
          "type": "uint256"
        },
        {
          "internalType": "address",
          "name": "lastCaller_",
          "type": "address"
        },
        {
          "internalType": "bytes",
          "name": "lastData",
          "type": "bytes"
        }
      ],
      "stateMutability": "view",
      "type": "function"
    },
    {
      "inputs": [
        {
          "internalType": "bytes32",
          "name": "role",
          "type": "bytes32"
        }
      ],
      "name": "getRoleAdmin",
      "outputs": [
        {
          "internalType": "bytes32",
          "name": "",
          "type": "bytes32"
        }
      ],
      "stateMutability": "view",
      "type": "function"
    },
    {
      "inputs": [
        {
          "internalType": "bytes32",
          "name": "role",
          "type": "bytes32"
        },
        {
          "internalType": "address",
          "name": "account",
          "type": "address"
        }
      ],
      "name": "grantRole",
      "outputs": [],
      "stateMutability": "nonpayable",
      "type": "function"
    },
    {
      "inputs": [
        {
          "internalType": "bytes32",
          "name": "role",
          "type": "bytes32"
        },
        {
          "internalType": "address",
          "name": "account",
          "type": "address"
        }
      ],
      "name": "hasRole",
      "outputs": [
        {
          "internalType": "bool",
          "name": "",
          "type": "bool"
        }
      ],
      "stateMutability": "view",
      "type": "function"
    },
    {
      "inputs": [],
      "name": "initialize",
      "outputs": [],
      "stateMutability": "nonpayable",
      "type": "function"
    },
    {
      "inputs": [],
      "name": "initialized",
      "outputs": [
        {
          "internalType": "bool",
          "name": "",
          "type": "bool"
        }
      ],
      "stateMutability": "view",
      "type": "function"
    },
    {
      "inputs": [
        {
          "internalType": "string",
          "name": "",
          "type": "string"
        }
      ],
      "name": "lastCallData",
      "outputs": [
        {
          "internalType": "bytes",
          "name": "",
          "type": "bytes"
        }
      ],
      "stateMutability": "view",
      "type": "function"
    },
    {
      "inputs": [],
      "name": "lastCaller",
      "outputs": [
        {
          "internalType": "address",
          "name": "",
          "type": "address"
        }
      ],
      "stateMutability": "view",
      "type": "function"
    },
    {
      "inputs": [
        {
          "internalType": "string",
          "name": "",
          "type": "string"
        }
      ],
      "name": "lastCallerByFunction",
      "outputs": [
        {
          "internalType": "address",
          "name": "",
          "type": "address"
        }
      ],
      "stateMutability": "view",
      "type": "function"
    },
    {
      "inputs": [
        {
          "internalType": "address",
          "name": "to",
          "type": "address"
        },
        {
          "internalType": "uint256",
          "name": "amount",
          "type": "uint256"
        }
      ],
      "name": "mint",
      "outputs": [],
      "stateMutability": "nonpayable",
      "type": "function"
    },
    {
      "inputs": [],
      "name": "name",
      "outputs": [
        {
          "internalType": "string",
          "name": "",
          "type": "string"
        }
      ],
      "stateMutability": "view",
      "type": "function"
    },
    {
      "inputs": [],
      "name": "owner",
      "outputs": [
        {
          "internalType": "address",
          "name": "",
          "type": "address"
        }
      ],
      "stateMutability": "view",
      "type": "function"
    },
    {
      "inputs": [],
      "name": "renounceOwnership",
      "outputs": [],
      "stateMutability": "nonpayable",
      "type": "function"
    },
    {
      "inputs": [
        {
          "internalType": "bytes32",
          "name": "role",
          "type": "bytes32"
        },
        {
          "internalType": "address",
          "name": "callerConfirmation",
          "type": "address"
        }
      ],
      "name": "renounceRole",
      "outputs": [],
      "stateMutability": "nonpayable",
      "type": "function"
    },
    {
      "inputs": [],
      "name": "reset",
      "outputs": [],
      "stateMutability": "nonpayable",
      "type": "function"
    },
    {
      "inputs": [
        {
          "internalType": "bytes32",
          "name": "role",
          "type": "bytes32"
        },
        {
          "internalType": "address",
          "name": "account",
          "type": "address"
        }
      ],
      "name": "revokeRole",
      "outputs": [],
      "stateMutability": "nonpayable",
      "type": "function"
    },
    {
      "inputs": [
        {
          "internalType": "bytes4",
          "name": "interfaceId",
          "type": "bytes4"
        }
      ],
      "name": "supportsInterface",
      "outputs": [
        {
          "internalType": "bool",
          "name": "",
          "type": "bool"
        }
      ],
      "stateMutability": "view",
      "type": "function"
    },
    {
      "inputs": [],
      "name": "symbol",
      "outputs": [
        {
          "internalType": "string",
          "name": "",
          "type": "string"
        }
      ],
      "stateMutability": "view",
      "type": "function"
    },
    {
      "inputs": [],
      "name": "totalSupply",
      "outputs": [
        {
          "internalType": "uint256",
          "name": "",
          "type": "uint256"
        }
      ],
      "stateMutability": "view",
      "type": "function"
    },
    {
      "inputs": [
        {
          "internalType": "address",
          "name": "to",
          "type": "address"
        },
        {
          "internalType": "uint256",
          "name": "value",
          "type": "uint256"
        }
      ],
      "name": "transfer",
      "outputs": [
        {
          "internalType": "bool",
          "name": "",
          "type": "bool"
        }
      ],
      "stateMutability": "nonpayable",
      "type": "function"
    },
    {
      "inputs": [
        {
          "internalType": "address",
          "name": "from",
          "type": "address"
        },
        {
          "internalType": "address",
          "name": "to",
          "type": "address"
        },
        {
          "internalType": "uint256",
          "name": "value",
          "type": "uint256"
        }
      ],
      "name": "transferFrom",
      "outputs": [
        {
          "internalType": "bool",
          "name": "",
          "type": "bool"
        }
      ],
      "stateMutability": "nonpayable",
      "type": "function"
    },
    {
      "inputs": [
        {
          "internalType": "address",
          "name": "newOwner",
          "type": "address"
        }
      ],
      "name": "transferOwnership",
      "outputs": [],
      "stateMutability": "nonpayable",
      "type": "function"
    },
    {
      "inputs": [
        {
          "internalType": "string",
          "name": "functionName",
          "type": "string"
        }
      ],
      "name": "wasFunctionCalled",
      "outputs": [
        {
          "internalType": "bool",
          "name": "",
          "type": "bool"
        }
      ],
      "stateMutability": "view",
      "type": "function"
    }
  ],
  "bytecode": "0x60806040523480156200001157600080fd5b5060405162001afa38038062001afa83398101604081905262000034916200029f565b3383836003620000458382620003b5565b506004620000548282620003b5565b5050506001600160a01b0381166200008657604051631e4fbdf760e01b81526000600482015260240160405180910390fd5b6200009181620000d2565b506200009f60003362000124565b5060ff811615620000b15780620000b4565b60125b600c805460ff191660ff929092169190911790555062000481915050565b600580546001600160a01b038381166001600160a01b0319831681179093556040519116919082907f8be0079c531659141344cd1fd0a4f28419497f9722a3daafe3b4186f6b6457e090600090a35050565b60008281526006602090815260408083206001600160a01b038516845290915281205460ff16620001cd5760008381526006602090815260408083206001600160a01b03861684529091529020805460ff19166001179055620001843390565b6001600160a01b0316826001600160a01b0316847f2f8788117e7eff1d82e926ec794901d17c78024a50270940304540a733656f0d60405160405180910390a4506001620001d1565b5060005b92915050565b634e487b7160e01b600052604160045260246000fd5b600082601f830112620001ff57600080fd5b81516001600160401b03808211156200021c576200021c620001d7565b604051601f8301601f19908116603f01168101908282118183101715620002475762000247620001d7565b81604052838152602092508660208588010111156200026557600080fd5b600091505b838210156200028957858201830151818301840152908201906200026a565b6000602085830101528094505050505092915050565b600080600060608486031215620002b557600080fd5b83516001600160401b0380821115620002cd57600080fd5b620002db87838801620001ed565b94506020860151915080821115620002f257600080fd5b506200030186828701620001ed565b925050604084015160ff811681146200031957600080fd5b809150509250925092565b600181811c908216806200033957607f821691505b6020821081036200035a57634e487b7160e01b600052602260045260246000fd5b50919050565b601f821115620003b0576000816000526020600020601f850160051c810160208610156200038b5750805b601f850160051c820191505b81811015620003ac5782815560010162000397565b5050505b505050565b81516001600160401b03811115620003d157620003d1620001d7565b620003e981620003e2845462000324565b8462000360565b602080601f831160018114620004215760008415620004085750858301515b600019600386901b1c1916600185901b178555620003ac565b600085815260208120601f198616915b82811015620004525788860151825594840194600190910190840162000431565b5085821015620004715787850151600019600388901b60f8161c191681555b5050505050600190811b01905550565b61166980620004916000396000f3fe608060405234801561001057600080fd5b50600436106102065760003560e01c80635c19a95c1161011a578063a217fddf116100ad578063d547741f1161007c578063d547741f14610499578063d826f88f146104ac578063dd62ed3e146104b4578063dfdbdd50146104ed578063f2fde38b1461050057600080fd5b8063a217fddf14610458578063a9059cbb14610460578063b4b5ea5714610473578063c054c6ce1461048657600080fd5b80638da5cb5b116100e95780638da5cb5b1461041957806391d148541461042a57806395d89b411461043d5780639dc29fac1461044557600080fd5b80635c19a95c146103cd57806370a08231146103e0578063715018a6146104095780638129fc1c1461041157600080fd5b806323b872dd1161019d57806336568abe1161016c57806336568abe146103515780633ca3910c1461036457806340c10f1914610386578063422b010b146103995780634b28f9a2146103c457600080fd5b806323b872dd146102f1578063248a9ca3146103045780632f2ff15d14610327578063313ce5671461033c57600080fd5b806318160ddd116101d957806318160ddd146102685780631a82a6431461027a5780631df86bc61461028d5780632113522a146102d957600080fd5b806301ffc9a71461020b57806306fdde0314610233578063095ea7b314610248578063158ef93e1461025b575b600080fd5b61021e6102193660046111f1565b610513565b60405190151581526020015b60405180910390f35b61023b61054a565b60405161022a9190611272565b61021e6102563660046112a1565b6105dc565b60075461021e9060ff1681565b6002545b60405190815260200161022a565b61026c6102883660046112e1565b6105f4565b6102c161029b3660046112e1565b8051602081830181018051600b825292820191909301209152546001600160a01b031681565b6040516001600160a01b03909116815260200161022a565b6007546102c19061010090046001600160a01b031681565b61021e6102ff366004611392565b61061c565b61026c6103123660046113ce565b60009081526006602052604090206001015490565b61033a6103353660046113e7565b610640565b005b600c5460405160ff909116815260200161022a565b61033a61035f3660046113e7565b61066b565b6103776103723660046112e1565b6106a3565b60405161022a93929190611413565b61033a6103943660046112a1565b6107a6565b61026c6103a73660046112e1565b805160208183018101805160098252928201919093012091525481565b61026c60085481565b61033a6103db366004611446565b61085a565b61026c6103ee366004611446565b6001600160a01b031660009081526020819052604090205490565b61033a6108a1565b61033a6108b5565b6005546001600160a01b03166102c1565b61021e6104383660046113e7565b610947565b61023b610972565b61033a6104533660046112a1565b610981565b61026c600081565b61021e61046e3660046112a1565b610a15565b61026c610481366004611446565b610a23565b61021e6104943660046112e1565b610a41565b61033a6104a73660046113e7565b610a6b565b61033a610a90565b61026c6104c2366004611461565b6001600160a01b03918216600090815260016020908152604080832093909416825291909152205490565b61023b6104fb3660046112e1565b610adc565b61033a61050e366004611446565b610b81565b60006001600160e01b03198216637965db0b60e01b148061054457506301ffc9a760e01b6001600160e01b03198316145b92915050565b6060600380546105599061148b565b80601f01602080910402602001604051908101604052809291908181526020018280546105859061148b565b80156105d25780601f106105a7576101008083540402835291602001916105d2565b820191906000526020600020905b8154815290600101906020018083116105b557829003601f168201915b5050505050905090565b6000336105ea818585610bbc565b5060019392505050565b600060098260405161060691906114c5565b9081526020016040518091039020549050919050565b60003361062a858285610bc9565b610635858585610c42565b506001949350505050565b60008281526006602052604090206001015461065b81610ca1565b6106658383610cab565b50505050565b6001600160a01b03811633146106945760405163334bd91960e11b815260040160405180910390fd5b61069e8282610d3f565b505050565b60008060606009846040516106b891906114c5565b908152602001604051809103902054600b856040516106d791906114c5565b908152604051908190036020018120546001600160a01b031690600a906106ff9088906114c5565b90815260200160405180910390208080546107199061148b565b80601f01602080910402602001604051908101604052809291908181526020018280546107459061148b565b80156107925780601f1061076757610100808354040283529160200191610792565b820191906000526020600020905b81548152906001019060200180831161077557829003601f168201915b505050505090509250925092509193909250565b6107ae610dac565b610809604051806040016040528060048152602001631b5a5b9d60e21b81525083836040516020016107f59291906001600160a01b03929092168252602082015260400190565b604051602081830303815290604052610dd9565b6108138282610ef7565b816001600160a01b03167f3f2c9d57c068687834f0de942a9babb9e5acab57d516d3480a3c16ee165a42738260405161084e91815260200190565b60405180910390a25050565b61089e6040518060400160405280600881526020016764656c656761746560c01b815250826040516020016107f591906001600160a01b0391909116815260200190565b50565b6108a9610dac565b6108b36000610f31565b565b60075460ff161561090d5760405162461bcd60e51b815260206004820152601d60248201527f426173654d6f636b3a20616c726561647920696e697469616c697a656400000060448201526064015b60405180910390fd5b6007805460ff1916600117905560405133907f30f7074e868351008998491171b433e7342f255e986fef03e5eec84f01786f0190600090a2565b60009182526006602090815260408084206001600160a01b0393909316845291905290205460ff1690565b6060600480546105599061148b565b610989610dac565b6109d060405180604001604052806004815260200163313ab93760e11b81525083836040516020016107f59291906001600160a01b03929092168252602082015260400190565b6109da8282610f83565b816001600160a01b03167ffd38818f5291bf0bb3a2a48aadc06ba8757865d1dabd804585338aab3009dcb68260405161084e91815260200190565b6000336105ea818585610c42565b6001600160a01b038116600090815260208190526040812054610544565b600080600983604051610a5491906114c5565b908152602001604051809103902054119050919050565b600082815260066020526040902060010154610a8681610ca1565b6106658383610d3f565b6000610a9b81610ca1565b600780546001600160a81b0319169055600060088190556040517f47f78a7a0acc7fff3657157dc253c5e6a68550995cc6f47bc2bd707ec67370fb9190a150565b8051602081830181018051600a8252928201919093012091528054610b009061148b565b80601f0160208091040260200160405190810160405280929190818152602001828054610b2c9061148b565b8015610b795780601f10610b4e57610100808354040283529160200191610b79565b820191906000526020600020905b815481529060010190602001808311610b5c57829003601f168201915b505050505081565b610b89610dac565b6001600160a01b038116610bb357604051631e4fbdf760e01b815260006004820152602401610904565b61089e81610f31565b61069e8383836001610fb9565b6001600160a01b038381166000908152600160209081526040808320938616835292905220546000198110156106655781811015610c3357604051637dc7a0d960e11b81526001600160a01b03841660048201526024810182905260448101839052606401610904565b61066584848484036000610fb9565b6001600160a01b038316610c6c57604051634b637e8f60e11b815260006004820152602401610904565b6001600160a01b038216610c965760405163ec442f0560e01b815260006004820152602401610904565b61069e83838361108e565b61089e81336111b8565b6000610cb78383610947565b610d375760008381526006602090815260408083206001600160a01b03861684529091529020805460ff19166001179055610cef3390565b6001600160a01b0316826001600160a01b0316847f2f8788117e7eff1d82e926ec794901d17c78024a50270940304540a733656f0d60405160405180910390a4506001610544565b506000610544565b6000610d4b8383610947565b15610d375760008381526006602090815260408083206001600160a01b0386168085529252808320805460ff1916905551339286917ff6391f5c32d9c69d2a47ea670b442974b53935d1edc7fd64eb21e047a839171b9190a4506001610544565b6005546001600160a01b031633146108b35760405163118cdaa760e01b8152336004820152602401610904565b600982604051610de991906114c5565b9081526040519081900360200190208054906000610e06836114f7565b919050555080600a83604051610e1c91906114c5565b90815260200160405180910390209081610e369190611560565b5033600b83604051610e4891906114c5565b90815260405160209181900391909101902080546001600160a01b0319166001600160a01b039290921691909117905560078054610100600160a81b031916610100330217905560088054906000610e9f836114f7565b90915550506040513390610eb49084906114c5565b60405180910390207f16b892c3de2f4b54dc114eff5c76ead156bac210353ee82615752957e1317df183604051610eeb9190611272565b60405180910390a35050565b6001600160a01b038216610f215760405163ec442f0560e01b815260006004820152602401610904565b610f2d6000838361108e565b5050565b600580546001600160a01b038381166001600160a01b0319831681179093556040519116919082907f8be0079c531659141344cd1fd0a4f28419497f9722a3daafe3b4186f6b6457e090600090a35050565b6001600160a01b038216610fad57604051634b637e8f60e11b815260006004820152602401610904565b610f2d8260008361108e565b6001600160a01b038416610fe35760405163e602df0560e01b815260006004820152602401610904565b6001600160a01b03831661100d57604051634a1406b160e11b815260006004820152602401610904565b6001600160a01b038085166000908152600160209081526040808320938716835292905220829055801561066557826001600160a01b0316846001600160a01b03167f8c5be1e5ebec7d5bd14f71427d1e84f3dd0314c0f7b2291e5b200ac8c7c3b9258460405161108091815260200190565b60405180910390a350505050565b6001600160a01b0383166110b95780600260008282546110ae9190611620565b9091555061112b9050565b6001600160a01b0383166000908152602081905260409020548181101561110c5760405163391434e360e21b81526001600160a01b03851660048201526024810182905260448101839052606401610904565b6001600160a01b03841660009081526020819052604090209082900390555b6001600160a01b03821661114757600280548290039055611166565b6001600160a01b03821660009081526020819052604090208054820190555b816001600160a01b0316836001600160a01b03167fddf252ad1be2c89b69c2b068fc378daa952ba7f163c4a11628f55a4df523b3ef836040516111ab91815260200190565b60405180910390a3505050565b6111c28282610947565b610f2d5760405163e2517d3f60e01b81526001600160a01b038216600482015260248101839052604401610904565b60006020828403121561120357600080fd5b81356001600160e01b03198116811461121b57600080fd5b9392505050565b60005b8381101561123d578181015183820152602001611225565b50506000910152565b6000815180845261125e816020860160208601611222565b601f01601f19169290920160200192915050565b60208152600061121b6020830184611246565b80356001600160a01b038116811461129c57600080fd5b919050565b600080604083850312156112b457600080fd5b6112bd83611285565b946020939093013593505050565b634e487b7160e01b600052604160045260246000fd5b6000602082840312156112f357600080fd5b813567ffffffffffffffff8082111561130b57600080fd5b818401915084601f83011261131f57600080fd5b813581811115611331576113316112cb565b604051601f8201601f19908116603f01168101908382118183101715611359576113596112cb565b8160405282815287602084870101111561137257600080fd5b826020860160208301376000928101602001929092525095945050505050565b6000806000606084860312156113a757600080fd5b6113b084611285565b92506113be60208501611285565b9150604084013590509250925092565b6000602082840312156113e057600080fd5b5035919050565b600080604083850312156113fa57600080fd5b8235915061140a60208401611285565b90509250929050565b8381526001600160a01b038316602082015260606040820181905260009061143d90830184611246565b95945050505050565b60006020828403121561145857600080fd5b61121b82611285565b6000806040838503121561147457600080fd5b61147d83611285565b915061140a60208401611285565b600181811c9082168061149f57607f821691505b6020821081036114bf57634e487b7160e01b600052602260045260246000fd5b50919050565b600082516114d7818460208701611222565b9190910192915050565b634e487b7160e01b600052601160045260246000fd5b600060018201611509576115096114e1565b5060010190565b601f82111561069e576000816000526020600020601f850160051c810160208610156115395750805b601f850160051c820191505b8181101561155857828155600101611545565b505050505050565b815167ffffffffffffffff81111561157a5761157a6112cb565b61158e81611588845461148b565b84611510565b602080601f8311600181146115c357600084156115ab5750858301515b600019600386901b1c1916600185901b178555611558565b600085815260208120601f198616915b828110156115f2578886015182559484019460019091019084016115d3565b50858210156116105787850151600019600388901b60f8161c191681555b5050505050600190811b01905550565b80820180821115610544576105446114e156fea26469706673582212203d12f1dc2a1f3f4ed192b2a872576ef3de1799167173384186c0aaaea639f53664736f6c63430008180033",
  "linkReferences": {},
  "deployedLinkReferences": {}
}