{
  "_format": "hh-sol-artifact-1",
  "contractName": "MockGovernanceRewardsStateMigrator",
  "sourceName": "contracts/mocks/MockGovernanceRewardsStateMigrator.sol",
  "abi": [
    {
      "inputs": [
        {
          "internalType": "address",
          "name": "_sourceGovernanceRewards",
          "type": "address"
        },
        {
          "internalType": "address",
          "name": "_targetGovernanceRewards",
          "type": "address"
        }
      ],
      "stateMutability": "nonpayable",
      "type": "constructor"
    },
    {
      "inputs": [],
      "name": "AccessControlBadConfirmation",
      "type": "error"
    },
    {
      "inputs": [
        {
          "internalType": "address",
          "name": "account",
          "type": "address"
        },
        {
          "internalType": "bytes32",
          "name": "neededRole",
          "type": "bytes32"
        }
      ],
      "name": "AccessControlUnauthorizedAccount",
      "type": "error"
    },
    {
      "anonymous": false,
      "inputs": [
        {
          "indexed": false,
          "internalType": "address",
          "name": "user",
          "type": "address"
        },
        {
          "indexed": false,
          "internalType": "string",
          "name": "reason",
          "type": "string"
        }
      ],
      "name": "MigrationFailed",
      "type": "event"
    },
    {
      "anonymous": false,
      "inputs": [
        {
          "indexed": true,
          "internalType": "string",
          "name": "functionName",
          "type": "string"
        },
        {
          "indexed": true,
          "internalType": "address",
          "name": "caller",
          "type": "address"
        },
        {
          "indexed": false,
          "internalType": "bytes",
          "name": "data",
          "type": "bytes"
        }
      ],
      "name": "MockFunctionCalled",
      "type": "event"
    },
    {
      "anonymous": false,
      "inputs": [
        {
          "indexed": true,
          "internalType": "address",
          "name": "caller",
          "type": "address"
        }
      ],
      "name": "MockInitialized",
      "type": "event"
    },
    {
      "anonymous": false,
      "inputs": [],
      "name": "MockStateReset",
      "type": "event"
    },
    {
      "anonymous": false,
      "inputs": [
        {
          "indexed": true,
          "internalType": "bytes32",
          "name": "role",
          "type": "bytes32"
        },
        {
          "indexed": true,
          "internalType": "bytes32",
          "name": "previousAdminRole",
          "type": "bytes32"
        },
        {
          "indexed": true,
          "internalType": "bytes32",
          "name": "newAdminRole",
          "type": "bytes32"
        }
      ],
      "name": "RoleAdminChanged",
      "type": "event"
    },
    {
      "anonymous": false,
      "inputs": [
        {
          "indexed": true,
          "internalType": "bytes32",
          "name": "role",
          "type": "bytes32"
        },
        {
          "indexed": true,
          "internalType": "address",
          "name": "account",
          "type": "address"
        },
        {
          "indexed": true,
          "internalType": "address",
          "name": "sender",
          "type": "address"
        }
      ],
      "name": "RoleGranted",
      "type": "event"
    },
    {
      "anonymous": false,
      "inputs": [
        {
          "indexed": true,
          "internalType": "bytes32",
          "name": "role",
          "type": "bytes32"
        },
        {
          "indexed": true,
          "internalType": "address",
          "name": "account",
          "type": "address"
        },
        {
          "indexed": true,
          "internalType": "address",
          "name": "sender",
          "type": "address"
        }
      ],
      "name": "RoleRevoked",
      "type": "event"
    },
    {
      "anonymous": false,
      "inputs": [
        {
          "indexed": false,
          "internalType": "address",
          "name": "user",
          "type": "address"
        },
        {
          "indexed": false,
          "internalType": "uint256",
          "name": "rewardsAmount",
          "type": "uint256"
        }
      ],
      "name": "StateMigrated",
      "type": "event"
    },
    {
      "inputs": [],
      "name": "DEFAULT_ADMIN_ROLE",
      "outputs": [
        {
          "internalType": "bytes32",
          "name": "",
          "type": "bytes32"
        }
      ],
      "stateMutability": "view",
      "type": "function"
    },
    {
      "inputs": [],
      "name": "callCount",
      "outputs": [
        {
          "internalType": "uint256",
          "name": "",
          "type": "uint256"
        }
      ],
      "stateMutability": "view",
      "type": "function"
    },
    {
      "inputs": [
        {
          "internalType": "string",
          "name": "",
          "type": "string"
        }
      ],
      "name": "functionCallCount",
      "outputs": [
        {
          "internalType": "uint256",
          "name": "",
          "type": "uint256"
        }
      ],
      "stateMutability": "view",
      "type": "function"
    },
    {
      "inputs": [
        {
          "internalType": "string",
          "name": "functionName",
          "type": "string"
        }
      ],
      "name": "getFunctionCallCount",
      "outputs": [
        {
          "internalType": "uint256",
          "name": "",
          "type": "uint256"
        }
      ],
      "stateMutability": "view",
      "type": "function"
    },
    {
      "inputs": [
        {
          "internalType": "string",
          "name": "functionName",
          "type": "string"
        }
      ],
      "name": "getFunctionCallHistory",
      "outputs": [
        {
          "internalType": "uint256",
          "name": "count",
          "type": "uint256"
        },
        {
          "internalType": "address",
          "name": "lastCaller_",
          "type": "address"
        },
        {
          "internalType": "bytes",
          "name": "lastData",
          "type": "bytes"
        }
      ],
      "stateMutability": "view",
      "type": "function"
    },
    {
      "inputs": [
        {
          "internalType": "bytes32",
          "name": "role",
          "type": "bytes32"
        }
      ],
      "name": "getRoleAdmin",
      "outputs": [
        {
          "internalType": "bytes32",
          "name": "",
          "type": "bytes32"
        }
      ],
      "stateMutability": "view",
      "type": "function"
    },
    {
      "inputs": [
        {
          "internalType": "bytes32",
          "name": "role",
          "type": "bytes32"
        },
        {
          "internalType": "address",
          "name": "account",
          "type": "address"
        }
      ],
      "name": "grantRole",
      "outputs": [],
      "stateMutability": "nonpayable",
      "type": "function"
    },
    {
      "inputs": [
        {
          "internalType": "bytes32",
          "name": "role",
          "type": "bytes32"
        },
        {
          "internalType": "address",
          "name": "account",
          "type": "address"
        }
      ],
      "name": "hasRole",
      "outputs": [
        {
          "internalType": "bool",
          "name": "",
          "type": "bool"
        }
      ],
      "stateMutability": "view",
      "type": "function"
    },
    {
      "inputs": [],
      "name": "initialize",
      "outputs": [],
      "stateMutability": "nonpayable",
      "type": "function"
    },
    {
      "inputs": [],
      "name": "initialized",
      "outputs": [
        {
          "internalType": "bool",
          "name": "",
          "type": "bool"
        }
      ],
      "stateMutability": "view",
      "type": "function"
    },
    {
      "inputs": [
        {
          "internalType": "string",
          "name": "",
          "type": "string"
        }
      ],
      "name": "lastCallData",
      "outputs": [
        {
          "internalType": "bytes",
          "name": "",
          "type": "bytes"
        }
      ],
      "stateMutability": "view",
      "type": "function"
    },
    {
      "inputs": [],
      "name": "lastCaller",
      "outputs": [
        {
          "internalType": "address",
          "name": "",
          "type": "address"
        }
      ],
      "stateMutability": "view",
      "type": "function"
    },
    {
      "inputs": [
        {
          "internalType": "string",
          "name": "",
          "type": "string"
        }
      ],
      "name": "lastCallerByFunction",
      "outputs": [
        {
          "internalType": "address",
          "name": "",
          "type": "address"
        }
      ],
      "stateMutability": "view",
      "type": "function"
    },
    {
      "inputs": [
        {
          "internalType": "address[]",
          "name": "users",
          "type": "address[]"
        }
      ],
      "name": "migrateMultipleStates",
      "outputs": [
        {
          "internalType": "uint256",
          "name": "successCount",
          "type": "uint256"
        }
      ],
      "stateMutability": "nonpayable",
      "type": "function"
    },
    {
      "inputs": [
        {
          "internalType": "address",
          "name": "user",
          "type": "address"
        }
      ],
      "name": "migrateState",
      "outputs": [
        {
          "internalType": "bool",
          "name": "success",
          "type": "bool"
        }
      ],
      "stateMutability": "nonpayable",
      "type": "function"
    },
    {
      "inputs": [
        {
          "internalType": "bytes32",
          "name": "role",
          "type": "bytes32"
        },
        {
          "internalType": "address",
          "name": "callerConfirmation",
          "type": "address"
        }
      ],
      "name": "renounceRole",
      "outputs": [],
      "stateMutability": "nonpayable",
      "type": "function"
    },
    {
      "inputs": [],
      "name": "reset",
      "outputs": [],
      "stateMutability": "nonpayable",
      "type": "function"
    },
    {
      "inputs": [
        {
          "internalType": "bytes32",
          "name": "role",
          "type": "bytes32"
        },
        {
          "internalType": "address",
          "name": "account",
          "type": "address"
        }
      ],
      "name": "revokeRole",
      "outputs": [],
      "stateMutability": "nonpayable",
      "type": "function"
    },
    {
      "inputs": [
        {
          "internalType": "address",
          "name": "user",
          "type": "address"
        }
      ],
      "name": "simulateMigration",
      "outputs": [],
      "stateMutability": "view",
      "type": "function"
    },
    {
      "inputs": [],
      "name": "sourceGovernanceRewards",
      "outputs": [
        {
          "internalType": "contract IGovernanceRewards",
          "name": "",
          "type": "address"
        }
      ],
      "stateMutability": "view",
      "type": "function"
    },
    {
      "inputs": [
        {
          "internalType": "bytes4",
          "name": "interfaceId",
          "type": "bytes4"
        }
      ],
      "name": "supportsInterface",
      "outputs": [
        {
          "internalType": "bool",
          "name": "",
          "type": "bool"
        }
      ],
      "stateMutability": "view",
      "type": "function"
    },
    {
      "inputs": [],
      "name": "targetGovernanceRewards",
      "outputs": [
        {
          "internalType": "contract IGovernanceRewards",
          "name": "",
          "type": "address"
        }
      ],
      "stateMutability": "view",
      "type": "function"
    },
    {
      "inputs": [
        {
          "internalType": "address",
          "name": "_newSourceGovernanceRewards",
          "type": "address"
        }
      ],
      "name": "updateSourceGovernanceRewards",
      "outputs": [],
      "stateMutability": "nonpayable",
      "type": "function"
    },
    {
      "inputs": [
        {
          "internalType": "address",
          "name": "_newTargetGovernanceRewards",
          "type": "address"
        }
      ],
      "name": "updateTargetGovernanceRewards",
      "outputs": [],
      "stateMutability": "nonpayable",
      "type": "function"
    },
    {
      "inputs": [
        {
          "internalType": "string",
          "name": "functionName",
          "type": "string"
        }
      ],
      "name": "wasFunctionCalled",
      "outputs": [
        {
          "internalType": "bool",
          "name": "",
          "type": "bool"
        }
      ],
      "stateMutability": "view",
      "type": "function"
    }
  ],
  "bytecode": "0x60806040523480156200001157600080fd5b506040516200162b3803806200162b833981016040819052620000349162000140565b6200004160003362000074565b50600680546001600160a01b039384166001600160a01b0319918216179091556007805492909316911617905562000178565b6000828152602081815260408083206001600160a01b038516845290915281205460ff1662000119576000838152602081815260408083206001600160a01b03861684529091529020805460ff19166001179055620000d03390565b6001600160a01b0316826001600160a01b0316847f2f8788117e7eff1d82e926ec794901d17c78024a50270940304540a733656f0d60405160405180910390a45060016200011d565b5060005b92915050565b80516001600160a01b03811681146200013b57600080fd5b919050565b600080604083850312156200015457600080fd5b6200015f8362000123565b91506200016f6020840162000123565b90509250929050565b6114a380620001886000396000f3fe608060405234801561001057600080fd5b50600436106101735760003560e01c80635f01162f116100de578063c054c6ce11610097578063dfdbdd5011610071578063dfdbdd5014610370578063eade198214610390578063f31929a5146103a3578063f452c7d5146103b657600080fd5b8063c054c6ce14610342578063d547741f14610355578063d826f88f1461036857600080fd5b80635f01162f146102e657806369153808146102f95780638129fc1c1461030c57806391d1485414610314578063a217fddf14610327578063a9b322341461032f57600080fd5b80632f2ff15d116101305780632f2ff15d1461025557806336568abe1461026a5780633ca3910c1461027d578063422b010b1461029f5780634b28f9a2146102ca5780634b7454c3146102d357600080fd5b806301ffc9a714610178578063158ef93e146101a05780631a82a643146101ad5780631df86bc6146101ce5780632113522a1461021a578063248a9ca314610232575b600080fd5b61018b610186366004610ee2565b6103c9565b60405190151581526020015b60405180910390f35b60015461018b9060ff1681565b6101c06101bb366004610f56565b610400565b604051908152602001610197565b6102026101dc366004610f56565b80516020818301810180516005825292820191909301209152546001600160a01b031681565b6040516001600160a01b039091168152602001610197565b6001546102029061010090046001600160a01b031681565b6101c0610240366004610fef565b60009081526020819052604090206001015490565b61026861026336600461101f565b610428565b005b61026861027836600461101f565b610453565b61029061028b366004610f56565b61048b565b6040516101979392919061109b565b6101c06102ad366004610f56565b805160208183018101805160038252928201919093012091525481565b6101c060025481565b6102686102e13660046110ce565b61058e565b600654610202906001600160a01b031681565b61018b6103073660046110ce565b61061d565b6102686107ec565b61018b61032236600461101f565b61087d565b6101c0600081565b61026861033d3660046110ce565b6108a6565b61018b610350366004610f56565b6109b5565b61026861036336600461101f565b6109df565b610268610a04565b61038361037e366004610f56565b610a50565b60405161019791906110e9565b61026861039e3660046110ce565b610af5565b6101c06103b13660046110fc565b610b70565b600754610202906001600160a01b031681565b60006001600160e01b03198216637965db0b60e01b14806103fa57506301ffc9a760e01b6001600160e01b03198316145b92915050565b60006003826040516104129190611171565b9081526020016040518091039020549050919050565b60008281526020819052604090206001015461044381610c80565b61044d8383610c8a565b50505050565b6001600160a01b038116331461047c5760405163334bd91960e11b815260040160405180910390fd5b6104868282610d1c565b505050565b60008060606003846040516104a09190611171565b9081526020016040518091039020546005856040516104bf9190611171565b908152604051908190036020018120546001600160a01b0316906004906104e7908890611171565b90815260200160405180910390208080546105019061118d565b80601f016020809104026020016040519081016040528092919081815260200182805461052d9061118d565b801561057a5780601f1061054f5761010080835404028352916020019161057a565b820191906000526020600020905b81548152906001019060200180831161055d57829003601f168201915b505050505090509250925092509193909250565b6105fb6040518060400160405280601d81526020017f757064617465546172676574476f7665726e616e636552657761726473000000815250826040516020016105e791906001600160a01b0391909116815260200190565b604051602081830303815290604052610d87565b600780546001600160a01b0319166001600160a01b0392909216919091179055565b60006106676040518060400160405280600c81526020016b6d696772617465537461746560a01b815250836040516020016105e791906001600160a01b0391909116815260200190565b604051632a6cc88d60e21b81526001600160a01b0383166004820152309063a9b322349060240160006040518083038186803b1580156106a657600080fd5b505afa9250505080156106b7575060015b61079d576106c36111c7565b806308c379a00361072457506106d76111e3565b806106e25750610726565b7f82638e3fbcfb4ded21185ba304e414a8064e270f72ecbb7db042397f58e06652838260405161071392919061126d565b60405180910390a150600092915050565b505b604080516001600160a01b038416815260208101829052601e818301527f556e6b6e6f776e206572726f7220647572696e67206d6967726174696f6e0000606082015290517f82638e3fbcfb4ded21185ba304e414a8064e270f72ecbb7db042397f58e066529181900360800190a1506000919050565b604080516001600160a01b0384168152600060208201527fecc7567badc4cbd68e5d5405bfd1d6e78342aca6051f4165475483fd5716170a910160405180910390a1506001919050565b919050565b60015460ff16156108445760405162461bcd60e51b815260206004820152601d60248201527f426173654d6f636b3a20616c726561647920696e697469616c697a656400000060448201526064015b60405180910390fd5b6001805460ff19168117905560405133907f30f7074e868351008998491171b433e7342f255e986fef03e5eec84f01786f0190600090a2565b6000918252602082815260408084206001600160a01b0393909316845291905290205460ff1690565b600654604051630e4f24cb60e41b81526001600160a01b038381166004830152600092169063e4f24cb090602401602060405180830381865afa1580156108f1573d6000803e3d6000fd5b505050506040513d601f19601f820116820180604052508101906109159190611299565b101561095a5760405162461bcd60e51b815260206004820152601460248201527314dbdd5c98d9481cdd185d19481a5b9d985b1a5960621b604482015260640161083b565b6007546001600160a01b03166109b25760405162461bcd60e51b815260206004820152601a60248201527f54617267657420636f6e7472616374206973206e6f7420736574000000000000604482015260640161083b565b50565b6000806003836040516109c89190611171565b908152602001604051809103902054119050919050565b6000828152602081905260409020600101546109fa81610c80565b61044d8383610d1c565b6000610a0f81610c80565b600180546001600160a81b0319169055600060028190556040517f47f78a7a0acc7fff3657157dc253c5e6a68550995cc6f47bc2bd707ec67370fb9190a150565b805160208183018101805160048252928201919093012091528054610a749061118d565b80601f0160208091040260200160405190810160405280929190818152602001828054610aa09061118d565b8015610aed5780601f10610ac257610100808354040283529160200191610aed565b820191906000526020600020905b815481529060010190602001808311610ad057829003601f168201915b505050505081565b610b4e6040518060400160405280601d81526020017f757064617465536f75726365476f7665726e616e636552657761726473000000815250826040516020016105e791906001600160a01b0391909116815260200190565b600680546001600160a01b0319166001600160a01b0392909216919091179055565b6000610bb6604051806040016040528060158152602001746d6967726174654d756c7469706c6553746174657360581b81525084846040516020016105e79291906112b2565b60005b82811015610c79576000306369153808868685818110610bdb57610bdb6112fe565b9050602002016020810190610bf091906110ce565b6040516001600160e01b031960e084901b1681526001600160a01b0390911660048201526024016020604051808303816000875af1158015610c36573d6000803e3d6000fd5b505050506040513d601f19601f82011682018060405250810190610c5a9190611314565b90508015610c705782610c6c81611336565b9350505b50600101610bb9565b5092915050565b6109b28133610ea5565b6000610c96838361087d565b610d14576000838152602081815260408083206001600160a01b03861684529091529020805460ff19166001179055610ccc3390565b6001600160a01b0316826001600160a01b0316847f2f8788117e7eff1d82e926ec794901d17c78024a50270940304540a733656f0d60405160405180910390a45060016103fa565b5060006103fa565b6000610d28838361087d565b15610d14576000838152602081815260408083206001600160a01b0386168085529252808320805460ff1916905551339286917ff6391f5c32d9c69d2a47ea670b442974b53935d1edc7fd64eb21e047a839171b9190a45060016103fa565b600382604051610d979190611171565b9081526040519081900360200190208054906000610db483611336565b919050555080600483604051610dca9190611171565b90815260200160405180910390209081610de491906113ad565b5033600583604051610df69190611171565b90815260405160209181900391909101902080546001600160a01b0319166001600160a01b039290921691909117905560018054610100600160a81b031916610100330217905560028054906000610e4d83611336565b90915550506040513390610e62908490611171565b60405180910390207f16b892c3de2f4b54dc114eff5c76ead156bac210353ee82615752957e1317df183604051610e9991906110e9565b60405180910390a35050565b610eaf828261087d565b610ede5760405163e2517d3f60e01b81526001600160a01b03821660048201526024810183905260440161083b565b5050565b600060208284031215610ef457600080fd5b81356001600160e01b031981168114610f0c57600080fd5b9392505050565b634e487b7160e01b600052604160045260246000fd5b601f8201601f1916810167ffffffffffffffff81118282101715610f4f57610f4f610f13565b6040525050565b60006020808385031215610f6957600080fd5b823567ffffffffffffffff80821115610f8157600080fd5b818501915085601f830112610f9557600080fd5b813581811115610fa757610fa7610f13565b6040519150610fbf601f8201601f1916850183610f29565b8082528684828501011115610fd357600080fd5b8084840185840137600090820190930192909252509392505050565b60006020828403121561100157600080fd5b5035919050565b80356001600160a01b03811681146107e757600080fd5b6000806040838503121561103257600080fd5b8235915061104260208401611008565b90509250929050565b60005b8381101561106657818101518382015260200161104e565b50506000910152565b6000815180845261108781602086016020860161104b565b601f01601f19169290920160200192915050565b8381526001600160a01b03831660208201526060604082018190526000906110c59083018461106f565b95945050505050565b6000602082840312156110e057600080fd5b610f0c82611008565b602081526000610f0c602083018461106f565b6000806020838503121561110f57600080fd5b823567ffffffffffffffff8082111561112757600080fd5b818501915085601f83011261113b57600080fd5b81358181111561114a57600080fd5b8660208260051b850101111561115f57600080fd5b60209290920196919550909350505050565b6000825161118381846020870161104b565b9190910192915050565b600181811c908216806111a157607f821691505b6020821081036111c157634e487b7160e01b600052602260045260246000fd5b50919050565b600060033d11156111e05760046000803e5060005160e01c5b90565b600060443d10156111f15790565b6040516003193d81016004833e81513d67ffffffffffffffff816024840111818411171561122157505050505090565b82850191508151818111156112395750505050505090565b843d87010160208285010111156112535750505050505090565b61126260208286010187610f29565b509095945050505050565b6001600160a01b03831681526040602082018190526000906112919083018461106f565b949350505050565b6000602082840312156112ab57600080fd5b5051919050565b60208082528181018390526000908460408401835b868110156112f3576001600160a01b036112e084611008565b16825291830191908301906001016112c7565b509695505050505050565b634e487b7160e01b600052603260045260246000fd5b60006020828403121561132657600080fd5b81518015158114610f0c57600080fd5b60006001820161135657634e487b7160e01b600052601160045260246000fd5b5060010190565b601f821115610486576000816000526020600020601f850160051c810160208610156113865750805b601f850160051c820191505b818110156113a557828155600101611392565b505050505050565b815167ffffffffffffffff8111156113c7576113c7610f13565b6113db816113d5845461118d565b8461135d565b602080601f83116001811461141057600084156113f85750858301515b600019600386901b1c1916600185901b1785556113a5565b600085815260208120601f198616915b8281101561143f57888601518255948401946001909101908401611420565b508582101561145d5787850151600019600388901b60f8161c191681555b5050505050600190811b0190555056fea2646970667358221220ac3ba3ceab591c54a20c898f940f4f2c78ab1ea340a0280b98f2d44832751a4864736f6c63430008180033",
  "linkReferences": {},
  "deployedLinkReferences": {}
}