{
  "_format": "hh-sol-artifact-1",
  "contractName": "Treasury",
  "sourceName": "contracts/fees/Treasury.sol",
  "abi": [
    {
      "inputs": [
        {
          "internalType": "address",
          "name": "_admin",
          "type": "address"
        },
        {
          "internalType": "address",
          "name": "_protocolDAO",
          "type": "address"
        }
      ],
      "stateMutability": "nonpayable",
      "type": "constructor"
    },
    {
      "inputs": [],
      "name": "ApprovalFailed",
      "type": "error"
    },
    {
      "inputs": [],
      "name": "CallerNotAdmin",
      "type": "error"
    },
    {
      "inputs": [],
      "name": "CallerNotOwner",
      "type": "error"
    },
    {
      "inputs": [],
      "name": "ETHTransferFailed",
      "type": "error"
    },
    {
      "inputs": [],
      "name": "InsufficientAllowance",
      "type": "error"
    },
    {
      "inputs": [],
      "name": "InsufficientBalance",
      "type": "error"
    },
    {
      "inputs": [],
      "name": "InvalidAmount",
      "type": "error"
    },
    {
      "inputs": [],
      "name": "MathOverflow",
      "type": "error"
    },
    {
      "inputs": [],
      "name": "ReentrancyGuardReentrantCall",
      "type": "error"
    },
    {
      "inputs": [],
      "name": "TransferFailed",
      "type": "error"
    },
    {
      "inputs": [],
      "name": "TransferFromFailed",
      "type": "error"
    },
    {
      "inputs": [],
      "name": "Unauthorized",
      "type": "error"
    },
    {
      "inputs": [],
      "name": "ZeroAddress",
      "type": "error"
    },
    {
      "anonymous": false,
      "inputs": [
        {
          "indexed": true,
          "internalType": "address",
          "name": "oldAdmin",
          "type": "address"
        },
        {
          "indexed": true,
          "internalType": "address",
          "name": "newAdmin",
          "type": "address"
        }
      ],
      "name": "AdminUpdated",
      "type": "event"
    },
    {
      "anonymous": false,
      "inputs": [
        {
          "indexed": true,
          "internalType": "address",
          "name": "token",
          "type": "address"
        },
        {
          "indexed": true,
          "internalType": "address",
          "name": "from",
          "type": "address"
        },
        {
          "indexed": true,
          "internalType": "address",
          "name": "to",
          "type": "address"
        },
        {
          "indexed": false,
          "internalType": "uint256",
          "name": "amount",
          "type": "uint256"
        },
        {
          "indexed": false,
          "internalType": "string",
          "name": "purpose",
          "type": "string"
        }
      ],
      "name": "DelegatedTransferExecuted",
      "type": "event"
    },
    {
      "anonymous": false,
      "inputs": [
        {
          "indexed": true,
          "internalType": "address",
          "name": "token",
          "type": "address"
        },
        {
          "indexed": false,
          "internalType": "uint256",
          "name": "amount",
          "type": "uint256"
        },
        {
          "indexed": true,
          "internalType": "address",
          "name": "from",
          "type": "address"
        },
        {
          "indexed": false,
          "internalType": "string",
          "name": "memo",
          "type": "string"
        }
      ],
      "name": "Deposit",
      "type": "event"
    },
    {
      "anonymous": false,
      "inputs": [
        {
          "indexed": true,
          "internalType": "address",
          "name": "token",
          "type": "address"
        },
        {
          "indexed": true,
          "internalType": "address",
          "name": "recipient",
          "type": "address"
        },
        {
          "indexed": false,
          "internalType": "uint256",
          "name": "amount",
          "type": "uint256"
        }
      ],
      "name": "FundsDistributed",
      "type": "event"
    },
    {
      "anonymous": false,
      "inputs": [
        {
          "indexed": true,
          "internalType": "address",
          "name": "token",
          "type": "address"
        },
        {
          "indexed": false,
          "internalType": "uint256",
          "name": "amount",
          "type": "uint256"
        },
        {
          "indexed": true,
          "internalType": "address",
          "name": "from",
          "type": "address"
        }
      ],
      "name": "FundsReceived",
      "type": "event"
    },
    {
      "anonymous": false,
      "inputs": [
        {
          "indexed": true,
          "internalType": "address",
          "name": "token",
          "type": "address"
        },
        {
          "indexed": false,
          "internalType": "uint256",
          "name": "amount",
          "type": "uint256"
        }
      ],
      "name": "FundsReceived",
      "type": "event"
    },
    {
      "anonymous": false,
      "inputs": [
        {
          "indexed": true,
          "internalType": "address",
          "name": "oldOwner",
          "type": "address"
        },
        {
          "indexed": true,
          "internalType": "address",
          "name": "newOwner",
          "type": "address"
        }
      ],
      "name": "OwnershipTransferred",
      "type": "event"
    },
    {
      "anonymous": false,
      "inputs": [
        {
          "indexed": true,
          "internalType": "address",
          "name": "oldProtocolDAO",
          "type": "address"
        },
        {
          "indexed": true,
          "internalType": "address",
          "name": "newProtocolDAO",
          "type": "address"
        }
      ],
      "name": "ProtocolDAOUpdated",
      "type": "event"
    },
    {
      "anonymous": false,
      "inputs": [
        {
          "indexed": true,
          "internalType": "address",
          "name": "rewardsContract",
          "type": "address"
        },
        {
          "indexed": false,
          "internalType": "bool",
          "name": "enabled",
          "type": "bool"
        }
      ],
      "name": "RewardsContractSet",
      "type": "event"
    },
    {
      "anonymous": false,
      "inputs": [
        {
          "indexed": true,
          "internalType": "address",
          "name": "token",
          "type": "address"
        },
        {
          "indexed": true,
          "internalType": "address",
          "name": "spender",
          "type": "address"
        },
        {
          "indexed": false,
          "internalType": "uint256",
          "name": "amount",
          "type": "uint256"
        },
        {
          "indexed": false,
          "internalType": "uint256",
          "name": "gasSaved",
          "type": "uint256"
        }
      ],
      "name": "TokenApprovalOptimized",
      "type": "event"
    },
    {
      "anonymous": false,
      "inputs": [
        {
          "indexed": true,
          "internalType": "address",
          "name": "token",
          "type": "address"
        },
        {
          "indexed": false,
          "internalType": "uint256",
          "name": "amount",
          "type": "uint256"
        },
        {
          "indexed": true,
          "internalType": "address",
          "name": "to",
          "type": "address"
        },
        {
          "indexed": false,
          "internalType": "string",
          "name": "memo",
          "type": "string"
        }
      ],
      "name": "Withdrawal",
      "type": "event"
    },
    {
      "inputs": [],
      "name": "admin",
      "outputs": [
        {
          "internalType": "address",
          "name": "",
          "type": "address"
        }
      ],
      "stateMutability": "view",
      "type": "function"
    },
    {
      "inputs": [
        {
          "internalType": "address",
          "name": "token",
          "type": "address"
        },
        {
          "internalType": "address",
          "name": "spender",
          "type": "address"
        },
        {
          "internalType": "uint256",
          "name": "amount",
          "type": "uint256"
        }
      ],
      "name": "allowTokenTransfer",
      "outputs": [
        {
          "internalType": "bool",
          "name": "",
          "type": "bool"
        }
      ],
      "stateMutability": "nonpayable",
      "type": "function"
    },
    {
      "inputs": [
        {
          "internalType": "address[]",
          "name": "tokens",
          "type": "address[]"
        },
        {
          "internalType": "address",
          "name": "spender",
          "type": "address"
        },
        {
          "internalType": "uint256[]",
          "name": "amounts",
          "type": "uint256[]"
        }
      ],
      "name": "batchAllowTokenTransfers",
      "outputs": [
        {
          "internalType": "bool[]",
          "name": "results",
          "type": "bool[]"
        }
      ],
      "stateMutability": "nonpayable",
      "type": "function"
    },
    {
      "inputs": [
        {
          "internalType": "contract IERC20[]",
          "name": "tokens",
          "type": "address[]"
        },
        {
          "internalType": "address",
          "name": "spender",
          "type": "address"
        },
        {
          "internalType": "uint256[]",
          "name": "amounts",
          "type": "uint256[]"
        }
      ],
      "name": "batchApprove",
      "outputs": [
        {
          "internalType": "bool[]",
          "name": "results",
          "type": "bool[]"
        }
      ],
      "stateMutability": "nonpayable",
      "type": "function"
    },
    {
      "inputs": [
        {
          "internalType": "contract IERC20",
          "name": "token",
          "type": "address"
        },
        {
          "internalType": "address",
          "name": "spender",
          "type": "address"
        }
      ],
      "name": "clearApproval",
      "outputs": [
        {
          "internalType": "bool",
          "name": "success",
          "type": "bool"
        }
      ],
      "stateMutability": "nonpayable",
      "type": "function"
    },
    {
      "inputs": [
        {
          "internalType": "address",
          "name": "token",
          "type": "address"
        },
        {
          "internalType": "address",
          "name": "spender",
          "type": "address"
        },
        {
          "internalType": "uint256",
          "name": "subtractedValue",
          "type": "uint256"
        }
      ],
      "name": "decreaseTokenAllowance",
      "outputs": [
        {
          "internalType": "bool",
          "name": "",
          "type": "bool"
        }
      ],
      "stateMutability": "nonpayable",
      "type": "function"
    },
    {
      "inputs": [
        {
          "internalType": "address",
          "name": "token",
          "type": "address"
        },
        {
          "internalType": "uint256",
          "name": "amount",
          "type": "uint256"
        },
        {
          "internalType": "string",
          "name": "memo",
          "type": "string"
        }
      ],
      "name": "deposit",
      "outputs": [
        {
          "internalType": "bool",
          "name": "success",
          "type": "bool"
        }
      ],
      "stateMutability": "payable",
      "type": "function"
    },
    {
      "inputs": [
        {
          "internalType": "address",
          "name": "token",
          "type": "address"
        },
        {
          "internalType": "address[]",
          "name": "recipients",
          "type": "address[]"
        },
        {
          "internalType": "uint256[]",
          "name": "amounts",
          "type": "uint256[]"
        }
      ],
      "name": "distributeRewards",
      "outputs": [],
      "stateMutability": "nonpayable",
      "type": "function"
    },
    {
      "inputs": [
        {
          "internalType": "address",
          "name": "token",
          "type": "address"
        },
        {
          "internalType": "address",
          "name": "level1",
          "type": "address"
        },
        {
          "internalType": "address",
          "name": "level2",
          "type": "address"
        },
        {
          "internalType": "address",
          "name": "level3",
          "type": "address"
        },
        {
          "internalType": "address",
          "name": "to",
          "type": "address"
        },
        {
          "internalType": "uint256",
          "name": "amount",
          "type": "uint256"
        },
        {
          "internalType": "string",
          "name": "purpose",
          "type": "string"
        }
      ],
      "name": "executeDelegatedTransfer",
      "outputs": [],
      "stateMutability": "nonpayable",
      "type": "function"
    },
    {
      "inputs": [
        {
          "internalType": "address",
          "name": "token",
          "type": "address"
        }
      ],
      "name": "getBalance",
      "outputs": [
        {
          "internalType": "uint256",
          "name": "balance",
          "type": "uint256"
        }
      ],
      "stateMutability": "view",
      "type": "function"
    },
    {
      "inputs": [
        {
          "internalType": "address",
          "name": "token",
          "type": "address"
        },
        {
          "internalType": "address",
          "name": "spender",
          "type": "address"
        },
        {
          "internalType": "uint256",
          "name": "addedValue",
          "type": "uint256"
        }
      ],
      "name": "increaseTokenAllowance",
      "outputs": [
        {
          "internalType": "bool",
          "name": "",
          "type": "bool"
        }
      ],
      "stateMutability": "nonpayable",
      "type": "function"
    },
    {
      "inputs": [
        {
          "internalType": "contract IERC20",
          "name": "token",
          "type": "address"
        },
        {
          "internalType": "address",
          "name": "spender",
          "type": "address"
        },
        {
          "internalType": "uint256",
          "name": "amount",
          "type": "uint256"
        }
      ],
      "name": "optimizeApproval",
      "outputs": [
        {
          "internalType": "bool",
          "name": "success",
          "type": "bool"
        }
      ],
      "stateMutability": "nonpayable",
      "type": "function"
    },
    {
      "inputs": [],
      "name": "owner",
      "outputs": [
        {
          "internalType": "address",
          "name": "",
          "type": "address"
        }
      ],
      "stateMutability": "view",
      "type": "function"
    },
    {
      "inputs": [],
      "name": "protocolDAO",
      "outputs": [
        {
          "internalType": "address",
          "name": "",
          "type": "address"
        }
      ],
      "stateMutability": "view",
      "type": "function"
    },
    {
      "inputs": [
        {
          "internalType": "address",
          "name": "",
          "type": "address"
        }
      ],
      "name": "rewardsContracts",
      "outputs": [
        {
          "internalType": "bool",
          "name": "",
          "type": "bool"
        }
      ],
      "stateMutability": "view",
      "type": "function"
    },
    {
      "inputs": [
        {
          "internalType": "contract IERC20",
          "name": "token",
          "type": "address"
        },
        {
          "internalType": "address",
          "name": "spender",
          "type": "address"
        },
        {
          "internalType": "uint256",
          "name": "subtractedValue",
          "type": "uint256"
        }
      ],
      "name": "safeDecreaseAllowance",
      "outputs": [
        {
          "internalType": "bool",
          "name": "success",
          "type": "bool"
        }
      ],
      "stateMutability": "nonpayable",
      "type": "function"
    },
    {
      "inputs": [
        {
          "internalType": "contract IERC20",
          "name": "token",
          "type": "address"
        },
        {
          "internalType": "address",
          "name": "spender",
          "type": "address"
        },
        {
          "internalType": "uint256",
          "name": "addedValue",
          "type": "uint256"
        }
      ],
      "name": "safeIncreaseAllowance",
      "outputs": [
        {
          "internalType": "bool",
          "name": "success",
          "type": "bool"
        }
      ],
      "stateMutability": "nonpayable",
      "type": "function"
    },
    {
      "inputs": [
        {
          "internalType": "address",
          "name": "_rewardsContract",
          "type": "address"
        },
        {
          "internalType": "bool",
          "name": "_enabled",
          "type": "bool"
        }
      ],
      "name": "setRewardsContract",
      "outputs": [
        {
          "internalType": "bool",
          "name": "success",
          "type": "bool"
        }
      ],
      "stateMutability": "nonpayable",
      "type": "function"
    },
    {
      "inputs": [
        {
          "internalType": "contract IERC20",
          "name": "token",
          "type": "address"
        },
        {
          "internalType": "address",
          "name": "spender",
          "type": "address"
        },
        {
          "internalType": "uint256",
          "name": "amount",
          "type": "uint256"
        }
      ],
      "name": "singleTransactionApprove",
      "outputs": [
        {
          "internalType": "bool",
          "name": "success",
          "type": "bool"
        }
      ],
      "stateMutability": "nonpayable",
      "type": "function"
    },
    {
      "inputs": [
        {
          "internalType": "address",
          "name": "_newOwner",
          "type": "address"
        }
      ],
      "name": "transferOwnership",
      "outputs": [],
      "stateMutability": "nonpayable",
      "type": "function"
    },
    {
      "inputs": [
        {
          "internalType": "address",
          "name": "_newAdmin",
          "type": "address"
        }
      ],
      "name": "updateAdmin",
      "outputs": [],
      "stateMutability": "nonpayable",
      "type": "function"
    },
    {
      "inputs": [
        {
          "internalType": "address",
          "name": "_newProtocolDAO",
          "type": "address"
        }
      ],
      "name": "updateProtocolDAO",
      "outputs": [],
      "stateMutability": "nonpayable",
      "type": "function"
    },
    {
      "inputs": [
        {
          "internalType": "address",
          "name": "token",
          "type": "address"
        },
        {
          "internalType": "address",
          "name": "recipient",
          "type": "address"
        },
        {
          "internalType": "uint256",
          "name": "amount",
          "type": "uint256"
        }
      ],
      "name": "withdraw",
      "outputs": [
        {
          "internalType": "bool",
          "name": "success",
          "type": "bool"
        }
      ],
      "stateMutability": "nonpayable",
      "type": "function"
    },
    {
      "inputs": [
        {
          "internalType": "address",
          "name": "token",
          "type": "address"
        },
        {
          "internalType": "address",
          "name": "from",
          "type": "address"
        },
        {
          "internalType": "address",
          "name": "to",
          "type": "address"
        },
        {
          "internalType": "uint256",
          "name": "amount",
          "type": "uint256"
        },
        {
          "internalType": "string",
          "name": "purpose",
          "type": "string"
        }
      ],
      "name": "withdrawFromProtocol",
      "outputs": [],
      "stateMutability": "nonpayable",
      "type": "function"
    },
    {
      "stateMutability": "payable",
      "type": "receive"
    }
  ],
  "bytecode": "0x608060405260016000553480156200001657600080fd5b50604051620037e4380380620037e48339810160408190526200003991620000d0565b6001600160a01b03821615806200005757506001600160a01b038116155b15620000765760405163d92e233d60e01b815260040160405180910390fd5b600180546001600160a01b03199081163317909155600280546001600160a01b039485169083161790556003805492909316911617905562000108565b80516001600160a01b0381168114620000cb57600080fd5b919050565b60008060408385031215620000e457600080fd5b620000ef83620000b3565b9150620000ff60208401620000b3565b90509250929050565b6136cc80620001186000396000f3fe60806040526004361061014f5760003560e01c8063b39062e6116100b6578063e2f273bd1161006f578063e2f273bd14610412578063e5a81ef614610432578063f2fde38b14610452578063f851a44014610472578063f8b2cb4f14610492578063f9255c1f146104c057600080fd5b8063b39062e614610342578063bfe07da614610362578063c8b3b0ac14610375578063ca1c0a33146103a2578063d9caed12146103d2578063dd8c818e146103f257600080fd5b8063282873f211610108578063282873f21461028257806337ffb9c5146102a25780633bb15688146102c2578063675215d2146102e25780637d73bd5c146103025780638da5cb5b1461032257600080fd5b8063062c6b281461019357806308737739146101b55780630bc33ce4146101ea578063167059541461020a57806321e8fdb51461024257806323fdfd5d1461026257600080fd5b3661018e5760405134815233906000907f6f8a4ef0af7c27d2b604338870c106d39d43e1d4b880d73c04eb6a602403ab909060200160405180910390a3005b600080fd5b34801561019f57600080fd5b506101b36101ae366004612ec7565b6104e0565b005b3480156101c157600080fd5b506101d56101d0366004612ee4565b610584565b60405190151581526020015b60405180910390f35b3480156101f657600080fd5b506101d5610205366004612ee4565b61078c565b34801561021657600080fd5b5060035461022a906001600160a01b031681565b6040516001600160a01b0390911681526020016101e1565b34801561024e57600080fd5b506101d561025d366004612f33565b610966565b34801561026e57600080fd5b506101d561027d366004612ee4565b610a6a565b34801561028e57600080fd5b506101b361029d366004612fb5565b610bba565b3480156102ae57600080fd5b506101b36102bd36600461303a565b610e50565b3480156102ce57600080fd5b506101d56102dd366004612ee4565b61110e565b3480156102ee57600080fd5b506101d56102fd366004612ee4565b611379565b34801561030e57600080fd5b506101d561031d3660046130e4565b611575565b34801561032e57600080fd5b5060015461022a906001600160a01b031681565b34801561034e57600080fd5b506101d561035d366004612ee4565b611759565b6101d5610370366004613159565b6118c4565b34801561038157600080fd5b5061039561039036600461329d565b611b3c565b6040516101e19190613372565b3480156103ae57600080fd5b506101d56103bd366004612ec7565b60046020526000908152604090205460ff1681565b3480156103de57600080fd5b506101d56103ed366004612ee4565b611f02565b3480156103fe57600080fd5b506101b361040d3660046133b8565b612110565b34801561041e57600080fd5b506101b361042d366004612ec7565b612459565b34801561043e57600080fd5b5061039561044d3660046134c9565b6124fd565b34801561045e57600080fd5b506101b361046d366004612ec7565b61268a565b34801561047e57600080fd5b5060025461022a906001600160a01b031681565b34801561049e57600080fd5b506104b26104ad366004612ec7565b61272e565b6040519081526020016101e1565b3480156104cc57600080fd5b506101d56104db366004612ee4565b6127b8565b6001546001600160a01b0316331461050b57604051632e6c18c960e11b815260040160405180910390fd5b6001600160a01b0381166105325760405163d92e233d60e01b815260040160405180910390fd5b600380546001600160a01b038381166001600160a01b0319831681179093556040519116919082907fe5016a03819952f46eedfc4a31bb3904c378a448d52fee47ae61ac579f92f3fa90600090a35050565b6002546000906001600160a01b031633148015906105ad57506001546001600160a01b03163314155b156105cb5760405163036c8cf960e11b815260040160405180910390fd5b60005460021415806105f057604051633ee5aeb560e01b815260040160405180910390fd5b60026000556001600160a01b03851661061c5760405163d92e233d60e01b815260040160405180910390fd5b6001600160a01b0384166106435760405163d92e233d60e01b815260040160405180910390fd5b60005a604051636eb1769f60e11b815290915086906000906001600160a01b0383169063dd62ed3e9061067c9030908b9060040161354e565b602060405180830381865afa158015610699573d6000803e3d6000fd5b505050506040513d601f19601f820116820180604052508101906106bd9190613568565b90508581036106d2576001945050505061077f565b80156106e4576106e4828860006129ba565b6106ef8288886129ba565b60005a6106fc9085613597565b905061b3b06000818311610719576107148383613597565b61071c565b60005b9050896001600160a01b03168b6001600160a01b03167f45ed39714df0a6b2ef4e97fe604f9a068660bb052c469713454af1653f8c69f18b8460405161076c929190918252602082015260400190565b60405180910390a3600197505050505050505b5060016000559392505050565b6002546000906001600160a01b031633148015906107b557506001546001600160a01b03163314155b156107d35760405163036c8cf960e11b815260040160405180910390fd5b6001600160a01b0384166107fa5760405163d92e233d60e01b815260040160405180910390fd5b6001600160a01b0383166108215760405163d92e233d60e01b815260040160405180910390fd5b604051636eb1769f60e11b815284906000906001600160a01b0383169063dd62ed3e90610854903090899060040161354e565b602060405180830381865afa158015610871573d6000803e3d6000fd5b505050506040513d601f19601f820116820180604052508101906108959190613568565b9050808411156108b8576040516313be252b60e01b815260040160405180910390fd5b60006108c48583613597565b90506000836001600160a01b031663095ea7b388846040518363ffffffff1660e01b81526004016108f69291906135aa565b6020604051808303816000875af1158015610915573d6000803e3d6000fd5b505050506040513d601f19601f8201168201806040525081019061093991906135c3565b905080610959576040516340b27c2160e11b815260040160405180910390fd5b93505050505b9392505050565b6002546000906001600160a01b0316331480159061098f57506001546001600160a01b03163314155b156109ad5760405163036c8cf960e11b815260040160405180910390fd5b60005460021415806109d257604051633ee5aeb560e01b815260040160405180910390fd5b60026000556001600160a01b0384166109fe5760405163d92e233d60e01b815260040160405180910390fd5b6001600160a01b038416600081815260046020908152604091829020805460ff191687151590811790915591519182527fc4472927311e8c0ec6148290b87bc3394f5d6db59d808b513433e5d63a72eaf9910160405180910390a2600191505b50600160005592915050565b6002546000906001600160a01b03163314801590610a9357506001546001600160a01b03163314155b15610ab15760405163036c8cf960e11b815260040160405180910390fd5b6000546002141580610ad657604051633ee5aeb560e01b815260040160405180910390fd5b60026000556001600160a01b038516610b025760405163d92e233d60e01b815260040160405180910390fd5b6001600160a01b038416610b295760405163d92e233d60e01b815260040160405180910390fd5b60405163095ea7b360e01b81526001600160a01b0386169063095ea7b390610b5790879087906004016135aa565b6020604051808303816000875af1158015610b76573d6000803e3d6000fd5b505050506040513d601f19601f82011682018060405250810190610b9a91906135c3565b91508161077f576040516340b27c2160e11b815260040160405180910390fd5b6002546001600160a01b03163314801590610be057506001546001600160a01b03163314155b15610bfe5760405163036c8cf960e11b815260040160405180910390fd5b6000546002141580610c2357604051633ee5aeb560e01b815260040160405180910390fd5b60026000556001600160a01b038716610c4f5760405163d92e233d60e01b815260040160405180910390fd5b6001600160a01b038616610c765760405163d92e233d60e01b815260040160405180910390fd5b6001600160a01b038516610c9d5760405163d92e233d60e01b815260040160405180910390fd5b83600003610cbe5760405163162908e360e11b815260040160405180910390fd5b604051636eb1769f60e11b8152879085906001600160a01b0383169063dd62ed3e90610cf0908b90309060040161354e565b602060405180830381865afa158015610d0d573d6000803e3d6000fd5b505050506040513d601f19601f82011682018060405250810190610d319190613568565b1015610d50576040516313be252b60e01b815260040160405180910390fd5b6040516370a0823160e01b81526001600160a01b0388811660048301528691908316906370a0823190602401602060405180830381865afa158015610d99573d6000803e3d6000fd5b505050506040513d601f19601f82011682018060405250810190610dbd9190613568565b1015610ddc57604051631e9acf1760e31b815260040160405180910390fd5b856001600160a01b0316876001600160a01b0316896001600160a01b03167f285b1770fba02a5f603a215d2b73b111e69fd728cb3671d27d891cca214fef10888888604051610e2d939291906135e0565b60405180910390a4610e4181888888612aa2565b50506001600055505050505050565b6002546001600160a01b03163314801590610e7657506001546001600160a01b03163314155b15610e945760405163036c8cf960e11b815260040160405180910390fd5b6000546002141580610eb957604051633ee5aeb560e01b815260040160405180910390fd5b60026000556001600160a01b038916610ee55760405163d92e233d60e01b815260040160405180910390fd5b6001600160a01b0388161580610f0257506001600160a01b038716155b80610f1457506001600160a01b038616155b15610f325760405163d92e233d60e01b815260040160405180910390fd5b6001600160a01b038516610f595760405163d92e233d60e01b815260040160405180910390fd5b83600003610f7a5760405163162908e360e11b815260040160405180910390fd5b604051636eb1769f60e11b8152899085906001600160a01b0383169063dd62ed3e90610fac908d90309060040161354e565b602060405180830381865afa158015610fc9573d6000803e3d6000fd5b505050506040513d601f19601f82011682018060405250810190610fed9190613568565b101561100c576040516313be252b60e01b815260040160405180910390fd5b6040516370a0823160e01b81526001600160a01b0388811660048301528691908316906370a0823190602401602060405180830381865afa158015611055573d6000803e3d6000fd5b505050506040513d601f19601f820116820180604052508101906110799190613568565b101561109857604051631e9acf1760e31b815260040160405180910390fd5b856001600160a01b0316876001600160a01b03168b6001600160a01b03167f285b1770fba02a5f603a215d2b73b111e69fd728cb3671d27d891cca214fef108888886040516110e9939291906135e0565b60405180910390a46110fd81888888612aa2565b505060016000555050505050505050565b6002546000906001600160a01b0316331480159061113757506001546001600160a01b03163314155b156111555760405163036c8cf960e11b815260040160405180910390fd5b600054600214158061117a57604051633ee5aeb560e01b815260040160405180910390fd5b60026000556001600160a01b0385166111a65760405163d92e233d60e01b815260040160405180910390fd5b6001600160a01b0384166111cd5760405163d92e233d60e01b815260040160405180910390fd5b604051636eb1769f60e11b81526000906001600160a01b0387169063dd62ed3e906111fe903090899060040161354e565b602060405180830381865afa15801561121b573d6000803e3d6000fd5b505050506040513d601f19601f8201168201806040525081019061123f9190613568565b905083810361125257600192505061077f565b6000811180156112625750600084115b156112f95760405163095ea7b360e01b81526001600160a01b0387169063095ea7b3906112969088906000906004016135aa565b6020604051808303816000875af11580156112b5573d6000803e3d6000fd5b505050506040513d601f19601f820116820180604052508101906112d991906135c3565b9250826112f9576040516340b27c2160e11b815260040160405180910390fd5b60405163095ea7b360e01b81526001600160a01b0387169063095ea7b39061132790889088906004016135aa565b6020604051808303816000875af1158015611346573d6000803e3d6000fd5b505050506040513d601f19601f8201168201806040525081019061136a91906135c3565b60016000559695505050505050565b6002546000906001600160a01b031633148015906113a257506001546001600160a01b03163314155b156113c05760405163036c8cf960e11b815260040160405180910390fd5b60005460021415806113e557604051633ee5aeb560e01b815260040160405180910390fd5b60026000556001600160a01b0385166114115760405163d92e233d60e01b815260040160405180910390fd5b6001600160a01b0384166114385760405163d92e233d60e01b815260040160405180910390fd5b604051636eb1769f60e11b81526000906001600160a01b0387169063dd62ed3e90611469903090899060040161354e565b602060405180830381865afa158015611486573d6000803e3d6000fd5b505050506040513d601f19601f820116820180604052508101906114aa9190613568565b9050808411156114cd576040516313be252b60e01b815260040160405180910390fd5b6001600160a01b03861663095ea7b3866114e78785613597565b6040518363ffffffff1660e01b81526004016115049291906135aa565b6020604051808303816000875af1158015611523573d6000803e3d6000fd5b505050506040513d601f19601f8201168201806040525081019061154791906135c3565b925082611567576040516340b27c2160e11b815260040160405180910390fd5b505060016000559392505050565b6002546000906001600160a01b0316331480159061159e57506001546001600160a01b03163314155b156115bc5760405163036c8cf960e11b815260040160405180910390fd5b60005460021415806115e157604051633ee5aeb560e01b815260040160405180910390fd5b60026000556001600160a01b03841661160d5760405163d92e233d60e01b815260040160405180910390fd5b6001600160a01b0383166116345760405163d92e233d60e01b815260040160405180910390fd5b604051636eb1769f60e11b81526000906001600160a01b0386169063dd62ed3e90611665903090889060040161354e565b602060405180830381865afa158015611682573d6000803e3d6000fd5b505050506040513d601f19601f820116820180604052508101906116a69190613568565b9050806000036116ba576001925050610a5e565b60405163095ea7b360e01b81526001600160a01b0386169063095ea7b3906116e99087906000906004016135aa565b6020604051808303816000875af1158015611708573d6000803e3d6000fd5b505050506040513d601f19601f8201168201806040525081019061172c91906135c3565b92508261174c576040516340b27c2160e11b815260040160405180910390fd5b5050600160005592915050565b6002546000906001600160a01b0316331480159061178257506001546001600160a01b03163314155b156117a05760405163036c8cf960e11b815260040160405180910390fd5b6001600160a01b0384166117c75760405163d92e233d60e01b815260040160405180910390fd5b6001600160a01b0383166117ee5760405163d92e233d60e01b815260040160405180910390fd5b604051636eb1769f60e11b815284906000906001600160a01b0383169063dd62ed3e90611821903090899060040161354e565b602060405180830381865afa15801561183e573d6000803e3d6000fd5b505050506040513d601f19601f820116820180604052508101906118629190613568565b905060006118708583613616565b90508181101561189357604051634eab2ea760e11b815260040160405180910390fd5b60405163095ea7b360e01b81526000906001600160a01b0385169063095ea7b3906108f6908a9086906004016135aa565b6000805460021415806118ea57604051633ee5aeb560e01b815260040160405180910390fd5b600260009081558490036119115760405163162908e360e11b815260040160405180910390fd5b6001600160a01b0385166119445783341461193f5760405163162908e360e11b815260040160405180910390fd5b6119f3565b34156119635760405163162908e360e11b815260040160405180910390fd5b604051636eb1769f60e11b815284906001600160a01b0387169063dd62ed3e90611993903390309060040161354e565b602060405180830381865afa1580156119b0573d6000803e3d6000fd5b505050506040513d601f19601f820116820180604052508101906119d49190613568565b10156119f3576040516313be252b60e01b815260040160405180910390fd5b60405184815233906001600160a01b038716907f6f8a4ef0af7c27d2b604338870c106d39d43e1d4b880d73c04eb6a602403ab909060200160405180910390a3336001600160a01b0316856001600160a01b03167f8ebc746e3ea83b308c2a9f4b3aa592475a79abef20a08fa3dbfd463eff1dee298686604051611a78929190613629565b60405180910390a36001600160a01b03851615611b2b576040516323b872dd60e01b8152336004820152306024820152604481018590526000906001600160a01b038716906323b872dd906064016020604051808303816000875af1158015611ae5573d6000803e3d6000fd5b505050506040513d601f19601f82011682018060405250810190611b0991906135c3565b905080611b29576040516312171d8360e31b815260040160405180910390fd5b505b600191505060016000559392505050565b6002546060906001600160a01b03163314801590611b6557506001546001600160a01b03163314155b15611b835760405163036c8cf960e11b815260040160405180910390fd5b6000546002141580611ba857604051633ee5aeb560e01b815260040160405180910390fd5b60026000558251855114611bcf5760405163162908e360e11b815260040160405180910390fd5b6001600160a01b038416611bf65760405163d92e233d60e01b815260040160405180910390fd5b845167ffffffffffffffff811115611c1057611c10613112565b604051908082528060200260200182016040528015611c39578160200160208202803683370190505b50915060005b85518110156115675760006001600160a01b0316868281518110611c6557611c65613680565b60200260200101516001600160a01b031603611c945760405163d92e233d60e01b815260040160405180910390fd5b6000868281518110611ca857611ca8613680565b60200260200101516001600160a01b031663dd62ed3e30886040518363ffffffff1660e01b8152600401611cdd92919061354e565b602060405180830381865afa158015611cfa573d6000803e3d6000fd5b505050506040513d601f19601f82011682018060405250810190611d1e9190613568565b90506000858381518110611d3457611d34613680565b60200260200101519050808203611d72576001858481518110611d5957611d59613680565b6020026020010190151590811515815250505050611efa565b600082118015611d825750600081115b15611e4b576000888481518110611d9b57611d9b613680565b60200260200101516001600160a01b031663095ea7b38960006040518363ffffffff1660e01b8152600401611dd19291906135aa565b6020604051808303816000875af1158015611df0573d6000803e3d6000fd5b505050506040513d601f19601f82011682018060405250810190611e1491906135c3565b905080611e49576000868581518110611e2f57611e2f613680565b602002602001019015159081151581525050505050611efa565b505b878381518110611e5d57611e5d613680565b60200260200101516001600160a01b031663095ea7b388836040518363ffffffff1660e01b8152600401611e929291906135aa565b6020604051808303816000875af1158015611eb1573d6000803e3d6000fd5b505050506040513d601f19601f82011682018060405250810190611ed591906135c3565b858481518110611ee757611ee7613680565b9115156020928302919091019091015250505b600101611c3f565b6001546000906001600160a01b03163314611f3057604051632e6c18c960e11b815260040160405180910390fd5b6000546002141580611f5557604051633ee5aeb560e01b815260040160405180910390fd5b60026000556001600160a01b038416611f815760405163d92e233d60e01b815260040160405180910390fd5b82600003611fa25760405163162908e360e11b815260040160405180910390fd5b6001600160a01b038516611fd65782471015611fd15760405163162908e360e11b815260040160405180910390fd5b61205f565b6040516370a0823160e01b815230600482015283906001600160a01b038716906370a0823190602401602060405180830381865afa15801561201c573d6000803e3d6000fd5b505050506040513d601f19601f820116820180604052508101906120409190613568565b101561205f5760405163162908e360e11b815260040160405180910390fd5b6001600160a01b03851661207c576120778484612b6f565b612087565b612087858585612c30565b836001600160a01b0316856001600160a01b03167f6c6d5f4ea4514f5a68bd70e965f96332d7fb7c39c415907689559bd0a9284f0b856040516120f791815260406020820181905260139082015272151c99585cdd5c9e481dda5d1a191c985dd85b606a1b606082015260800190565b60405180910390a3600191505060016000559392505050565b6002546001600160a01b0316331480159061213657506001546001600160a01b03163314155b156121545760405163036c8cf960e11b815260040160405180910390fd5b600054600214158061217957604051633ee5aeb560e01b815260040160405180910390fd5b60026000556001600160a01b0384166121a55760405163d92e233d60e01b815260040160405180910390fd5b81518351146121c75760405163162908e360e11b815260040160405180910390fd5b836000805b8451811015612204578481815181106121e7576121e7613680565b6020026020010151826121fa9190613616565b91506001016121cc565b506040516370a0823160e01b815230600482015281906001600160a01b038416906370a0823190602401602060405180830381865afa15801561224b573d6000803e3d6000fd5b505050506040513d601f19601f8201168201806040525081019061226f9190613568565b101561228e57604051631e9acf1760e31b815260040160405180910390fd5b60005b855181101561244b5760006001600160a01b03168682815181106122b7576122b7613680565b60200260200101516001600160a01b0316036122e65760405163d92e233d60e01b815260040160405180910390fd5b8481815181106122f8576122f8613680565b60200260200101516000036123205760405163162908e360e11b815260040160405180910390fd5b826001600160a01b031663a9059cbb87838151811061234157612341613680565b602002602001015187848151811061235b5761235b613680565b60200260200101516040518363ffffffff1660e01b81526004016123809291906135aa565b6020604051808303816000875af115801561239f573d6000803e3d6000fd5b505050506040513d601f19601f820116820180604052508101906123c391906135c3565b508581815181106123d6576123d6613680565b60200260200101516001600160a01b0316876001600160a01b03167f6b8ce2a88df16b2e7e1133c8bd77cc5cf3411baf1642a32abc38fc0464fc553c87848151811061242457612424613680565b602002602001015160405161243b91815260200190565b60405180910390a3600101612291565b505060016000555050505050565b6001546001600160a01b0316331461248457604051632e6c18c960e11b815260040160405180910390fd5b6001600160a01b0381166124ab5760405163d92e233d60e01b815260040160405180910390fd5b600280546001600160a01b038381166001600160a01b0319831681179093556040519116919082907f101b8081ff3b56bbf45deb824d86a3b0fd38b7e3dd42421105cf8abe9106db0b90600090a35050565b6002546060906001600160a01b0316331480159061252657506001546001600160a01b03163314155b156125445760405163036c8cf960e11b815260040160405180910390fd5b600054600214158061256957604051633ee5aeb560e01b815260040160405180910390fd5b600260005585831461258e5760405163162908e360e11b815260040160405180910390fd5b6001600160a01b0385166125b55760405163d92e233d60e01b815260040160405180910390fd5b858067ffffffffffffffff8111156125cf576125cf613112565b6040519080825280602002602001820160405280156125f8578160200160208202803683370190505b50925060005b818110156126795761264f89898381811061261b5761261b613680565b90506020020160208101906126309190612ec7565b8888888581811061264357612643613680565b90506020020135612ceb565b84828151811061266157612661613680565b911515602092830291909101909101526001016125fe565b505050600160005595945050505050565b6001546001600160a01b031633146126b557604051632e6c18c960e11b815260040160405180910390fd5b6001600160a01b0381166126dc5760405163d92e233d60e01b815260040160405180910390fd5b600180546001600160a01b038381166001600160a01b0319831681179093556040519116919082907f8be0079c531659141344cd1fd0a4f28419497f9722a3daafe3b4186f6b6457e090600090a35050565b60006001600160a01b038216612745575047919050565b6040516370a0823160e01b81523060048201526001600160a01b038316906370a0823190602401602060405180830381865afa158015612789573d6000803e3d6000fd5b505050506040513d601f19601f820116820180604052508101906127ad9190613568565b92915050565b919050565b6002546000906001600160a01b031633148015906127e157506001546001600160a01b03163314155b156127ff5760405163036c8cf960e11b815260040160405180910390fd5b600054600214158061282457604051633ee5aeb560e01b815260040160405180910390fd5b60026000556001600160a01b0385166128505760405163d92e233d60e01b815260040160405180910390fd5b6001600160a01b0384166128775760405163d92e233d60e01b815260040160405180910390fd5b604051636eb1769f60e11b81526000906001600160a01b0387169063dd62ed3e906128a8903090899060040161354e565b602060405180830381865afa1580156128c5573d6000803e3d6000fd5b505050506040513d601f19601f820116820180604052508101906128e99190613568565b905060006128f78583613616565b90508181101561291a57604051634eab2ea760e11b815260040160405180910390fd5b60405163095ea7b360e01b81526001600160a01b0388169063095ea7b39061294890899085906004016135aa565b6020604051808303816000875af1158015612967573d6000803e3d6000fd5b505050506040513d601f19601f8201168201806040525081019061298b91906135c3565b9350836129ab576040516340b27c2160e11b815260040160405180910390fd5b50505060016000559392505050565b6001600160a01b0383166129e15760405163d92e233d60e01b815260040160405180910390fd5b6001600160a01b038216612a085760405163d92e233d60e01b815260040160405180910390fd5b60405163095ea7b360e01b81526000906001600160a01b0385169063095ea7b390612a3990869086906004016135aa565b6020604051808303816000875af1158015612a58573d6000803e3d6000fd5b505050506040513d601f19601f82011682018060405250810190612a7c91906135c3565b905080612a9c576040516340b27c2160e11b815260040160405180910390fd5b50505050565b6001600160a01b038416612ac95760405163d92e233d60e01b815260040160405180910390fd5b6040516323b872dd60e01b81526001600160a01b038481166004830152838116602483015260448201839052600091908616906323b872dd906064016020604051808303816000875af1158015612b24573d6000803e3d6000fd5b505050506040513d601f19601f82011682018060405250810190612b4891906135c3565b905080612b6857604051631e4e7d0960e21b815260040160405180910390fd5b5050505050565b6001600160a01b038216612b965760405163d92e233d60e01b815260040160405180910390fd5b80471015612bb757604051631e9acf1760e31b815260040160405180910390fd5b6000826001600160a01b03168260405160006040518083038185875af1925050503d8060008114612c04576040519150601f19603f3d011682016040523d82523d6000602084013e612c09565b606091505b5050905080612c2b5760405163b12d13eb60e01b815260040160405180910390fd5b505050565b6001600160a01b038316612c575760405163d92e233d60e01b815260040160405180910390fd5b60405163a9059cbb60e01b81526000906001600160a01b0385169063a9059cbb90612c8890869086906004016135aa565b6020604051808303816000875af1158015612ca7573d6000803e3d6000fd5b505050506040513d601f19601f82011682018060405250810190612ccb91906135c3565b905080612a9c576040516312171d8360e31b815260040160405180910390fd5b60006001600160a01b038416612d035750600061095f565b604051636eb1769f60e11b815284906000906001600160a01b0383169063dd62ed3e90612d36903090899060040161354e565b602060405180830381865afa158015612d53573d6000803e3d6000fd5b505050506040513d601f19601f82011682018060405250810190612d779190613568565b9050838103612d8b5760019250505061095f565b600081118015612d9b5750600084115b15612e295760405163095ea7b360e01b81526000906001600160a01b0384169063095ea7b390612dd190899085906004016135aa565b6020604051808303816000875af1158015612df0573d6000803e3d6000fd5b505050506040513d601f19601f82011682018060405250810190612e1491906135c3565b905080612e27576000935050505061095f565b505b60405163095ea7b360e01b81526001600160a01b0383169063095ea7b390612e5790889088906004016135aa565b6020604051808303816000875af1158015612e76573d6000803e3d6000fd5b505050506040513d601f19601f82011682018060405250810190612e9a91906135c3565b9695505050505050565b6001600160a01b0381168114612eb957600080fd5b50565b80356127b381612ea4565b600060208284031215612ed957600080fd5b813561095f81612ea4565b600080600060608486031215612ef957600080fd5b8335612f0481612ea4565b92506020840135612f1481612ea4565b929592945050506040919091013590565b8015158114612eb957600080fd5b60008060408385031215612f4657600080fd5b8235612f5181612ea4565b91506020830135612f6181612f25565b809150509250929050565b60008083601f840112612f7e57600080fd5b50813567ffffffffffffffff811115612f9657600080fd5b602083019150836020828501011115612fae57600080fd5b9250929050565b60008060008060008060a08789031215612fce57600080fd5b8635612fd981612ea4565b95506020870135612fe981612ea4565b94506040870135612ff981612ea4565b935060608701359250608087013567ffffffffffffffff81111561301c57600080fd5b61302889828a01612f6c565b979a9699509497509295939492505050565b60008060008060008060008060e0898b03121561305657600080fd5b883561306181612ea4565b9750602089013561307181612ea4565b9650604089013561308181612ea4565b9550606089013561309181612ea4565b945060808901356130a181612ea4565b935060a0890135925060c089013567ffffffffffffffff8111156130c457600080fd5b6130d08b828c01612f6c565b999c989b5096995094979396929594505050565b600080604083850312156130f757600080fd5b823561310281612ea4565b91506020830135612f6181612ea4565b634e487b7160e01b600052604160045260246000fd5b604051601f8201601f1916810167ffffffffffffffff8111828210171561315157613151613112565b604052919050565b60008060006060848603121561316e57600080fd5b833561317981612ea4565b92506020848101359250604085013567ffffffffffffffff8082111561319e57600080fd5b818701915087601f8301126131b257600080fd5b8135818111156131c4576131c4613112565b6131d6601f8201601f19168501613128565b915080825288848285010111156131ec57600080fd5b80848401858401376000848284010152508093505050509250925092565b600067ffffffffffffffff82111561322457613224613112565b5060051b60200190565b600082601f83011261323f57600080fd5b8135602061325461324f8361320a565b613128565b8083825260208201915060208460051b87010193508684111561327657600080fd5b602086015b84811015613292578035835291830191830161327b565b509695505050505050565b6000806000606084860312156132b257600080fd5b833567ffffffffffffffff808211156132ca57600080fd5b818601915086601f8301126132de57600080fd5b813560206132ee61324f8361320a565b82815260059290921b8401810191818101908a84111561330d57600080fd5b948201945b8386101561333457853561332581612ea4565b82529482019490820190613312565b97506133439050888201612ebc565b95505050604086013591508082111561335b57600080fd5b506133688682870161322e565b9150509250925092565b6020808252825182820181905260009190848201906040850190845b818110156133ac57835115158352928401929184019160010161338e565b50909695505050505050565b6000806000606084860312156133cd57600080fd5b83356133d881612ea4565b925060208481013567ffffffffffffffff808211156133f657600080fd5b818701915087601f83011261340a57600080fd5b813561341861324f8261320a565b81815260059190911b8301840190848101908a83111561343757600080fd5b938501935b8285101561345e57843561344f81612ea4565b8252938501939085019061343c565b96505050604087013592508083111561347657600080fd5b50506133688682870161322e565b60008083601f84011261349657600080fd5b50813567ffffffffffffffff8111156134ae57600080fd5b6020830191508360208260051b8501011115612fae57600080fd5b6000806000806000606086880312156134e157600080fd5b853567ffffffffffffffff808211156134f957600080fd5b61350589838a01613484565b90975095506020880135915061351a82612ea4565b9093506040870135908082111561353057600080fd5b5061353d88828901613484565b969995985093965092949392505050565b6001600160a01b0392831681529116602082015260400190565b60006020828403121561357a57600080fd5b5051919050565b634e487b7160e01b600052601160045260246000fd5b818103818111156127ad576127ad613581565b6001600160a01b03929092168252602082015260400190565b6000602082840312156135d557600080fd5b815161095f81612f25565b83815260406020820152816040820152818360608301376000818301606090810191909152601f909201601f1916010192915050565b808201808211156127ad576127ad613581565b8281526000602060406020840152835180604085015260005b8181101561365e57858101830151858201606001528201613642565b506000606082860101526060601f19601f830116850101925050509392505050565b634e487b7160e01b600052603260045260246000fdfea2646970667358221220775b3b439c986fe591a240d92aad5dc14cb03bad5fd6dfd923fc6ebcd46bdaa864736f6c63430008180033",
  "linkReferences": {},
  "deployedLinkReferences": {}
}