{
  "_format": "hh-sol-artifact-1",
  "contractName": "MockStandardPriceOracle",
  "sourceName": "contracts/mocks/MockStandardPriceOracleTest.sol",
  "abi": [
    {
      "inputs": [],
      "stateMutability": "nonpayable",
      "type": "constructor"
    },
    {
      "inputs": [],
      "name": "AccessControlBadConfirmation",
      "type": "error"
    },
    {
      "inputs": [
        {
          "internalType": "address",
          "name": "account",
          "type": "address"
        },
        {
          "internalType": "bytes32",
          "name": "neededRole",
          "type": "bytes32"
        }
      ],
      "name": "AccessControlUnauthorizedAccount",
      "type": "error"
    },
    {
      "anonymous": false,
      "inputs": [
        {
          "indexed": true,
          "internalType": "string",
          "name": "functionName",
          "type": "string"
        },
        {
          "indexed": true,
          "internalType": "address",
          "name": "caller",
          "type": "address"
        },
        {
          "indexed": false,
          "internalType": "bytes",
          "name": "data",
          "type": "bytes"
        }
      ],
      "name": "MockFunctionCalled",
      "type": "event"
    },
    {
      "anonymous": false,
      "inputs": [
        {
          "indexed": true,
          "internalType": "address",
          "name": "caller",
          "type": "address"
        }
      ],
      "name": "MockInitialized",
      "type": "event"
    },
    {
      "anonymous": false,
      "inputs": [],
      "name": "MockStateReset",
      "type": "event"
    },
    {
      "anonymous": false,
      "inputs": [
        {
          "indexed": true,
          "internalType": "address",
          "name": "newAdmin",
          "type": "address"
        }
      ],
      "name": "OracleAdminChanged",
      "type": "event"
    },
    {
      "anonymous": false,
      "inputs": [
        {
          "indexed": true,
          "internalType": "address",
          "name": "token",
          "type": "address"
        },
        {
          "indexed": false,
          "internalType": "uint256",
          "name": "price",
          "type": "uint256"
        },
        {
          "indexed": false,
          "internalType": "uint256",
          "name": "timestamp",
          "type": "uint256"
        }
      ],
      "name": "PriceUpdated",
      "type": "event"
    },
    {
      "anonymous": false,
      "inputs": [
        {
          "indexed": true,
          "internalType": "address",
          "name": "updater",
          "type": "address"
        }
      ],
      "name": "PriceUpdaterAdded",
      "type": "event"
    },
    {
      "anonymous": false,
      "inputs": [
        {
          "indexed": true,
          "internalType": "address",
          "name": "updater",
          "type": "address"
        }
      ],
      "name": "PriceUpdaterRemoved",
      "type": "event"
    },
    {
      "anonymous": false,
      "inputs": [
        {
          "indexed": true,
          "internalType": "bytes32",
          "name": "role",
          "type": "bytes32"
        },
        {
          "indexed": true,
          "internalType": "bytes32",
          "name": "previousAdminRole",
          "type": "bytes32"
        },
        {
          "indexed": true,
          "internalType": "bytes32",
          "name": "newAdminRole",
          "type": "bytes32"
        }
      ],
      "name": "RoleAdminChanged",
      "type": "event"
    },
    {
      "anonymous": false,
      "inputs": [
        {
          "indexed": true,
          "internalType": "bytes32",
          "name": "role",
          "type": "bytes32"
        },
        {
          "indexed": true,
          "internalType": "address",
          "name": "account",
          "type": "address"
        },
        {
          "indexed": true,
          "internalType": "address",
          "name": "sender",
          "type": "address"
        }
      ],
      "name": "RoleGranted",
      "type": "event"
    },
    {
      "anonymous": false,
      "inputs": [
        {
          "indexed": true,
          "internalType": "bytes32",
          "name": "role",
          "type": "bytes32"
        },
        {
          "indexed": true,
          "internalType": "address",
          "name": "account",
          "type": "address"
        },
        {
          "indexed": true,
          "internalType": "address",
          "name": "sender",
          "type": "address"
        }
      ],
      "name": "RoleRevoked",
      "type": "event"
    },
    {
      "inputs": [],
      "name": "DEFAULT_ADMIN_ROLE",
      "outputs": [
        {
          "internalType": "bytes32",
          "name": "",
          "type": "bytes32"
        }
      ],
      "stateMutability": "view",
      "type": "function"
    },
    {
      "inputs": [],
      "name": "ORACLE_ADMIN_ROLE",
      "outputs": [
        {
          "internalType": "bytes32",
          "name": "",
          "type": "bytes32"
        }
      ],
      "stateMutability": "view",
      "type": "function"
    },
    {
      "inputs": [],
      "name": "PRICE_UPDATER_ROLE",
      "outputs": [
        {
          "internalType": "bytes32",
          "name": "",
          "type": "bytes32"
        }
      ],
      "stateMutability": "view",
      "type": "function"
    },
    {
      "inputs": [
        {
          "internalType": "address",
          "name": "updater",
          "type": "address"
        }
      ],
      "name": "addPriceUpdater",
      "outputs": [],
      "stateMutability": "nonpayable",
      "type": "function"
    },
    {
      "inputs": [],
      "name": "callCount",
      "outputs": [
        {
          "internalType": "uint256",
          "name": "",
          "type": "uint256"
        }
      ],
      "stateMutability": "view",
      "type": "function"
    },
    {
      "inputs": [
        {
          "internalType": "string",
          "name": "",
          "type": "string"
        }
      ],
      "name": "functionCallCount",
      "outputs": [
        {
          "internalType": "uint256",
          "name": "",
          "type": "uint256"
        }
      ],
      "stateMutability": "view",
      "type": "function"
    },
    {
      "inputs": [
        {
          "internalType": "string",
          "name": "functionName",
          "type": "string"
        }
      ],
      "name": "getFunctionCallCount",
      "outputs": [
        {
          "internalType": "uint256",
          "name": "",
          "type": "uint256"
        }
      ],
      "stateMutability": "view",
      "type": "function"
    },
    {
      "inputs": [
        {
          "internalType": "string",
          "name": "functionName",
          "type": "string"
        }
      ],
      "name": "getFunctionCallHistory",
      "outputs": [
        {
          "internalType": "uint256",
          "name": "count",
          "type": "uint256"
        },
        {
          "internalType": "address",
          "name": "lastCaller_",
          "type": "address"
        },
        {
          "internalType": "bytes",
          "name": "lastData",
          "type": "bytes"
        }
      ],
      "stateMutability": "view",
      "type": "function"
    },
    {
      "inputs": [
        {
          "internalType": "address",
          "name": "token",
          "type": "address"
        }
      ],
      "name": "getLastUpdateTime",
      "outputs": [
        {
          "internalType": "uint256",
          "name": "",
          "type": "uint256"
        }
      ],
      "stateMutability": "view",
      "type": "function"
    },
    {
      "inputs": [
        {
          "internalType": "address",
          "name": "token",
          "type": "address"
        }
      ],
      "name": "getPrice",
      "outputs": [
        {
          "internalType": "uint256",
          "name": "",
          "type": "uint256"
        }
      ],
      "stateMutability": "view",
      "type": "function"
    },
    {
      "inputs": [
        {
          "internalType": "bytes32",
          "name": "role",
          "type": "bytes32"
        }
      ],
      "name": "getRoleAdmin",
      "outputs": [
        {
          "internalType": "bytes32",
          "name": "",
          "type": "bytes32"
        }
      ],
      "stateMutability": "view",
      "type": "function"
    },
    {
      "inputs": [
        {
          "internalType": "bytes32",
          "name": "role",
          "type": "bytes32"
        },
        {
          "internalType": "address",
          "name": "account",
          "type": "address"
        }
      ],
      "name": "grantRole",
      "outputs": [],
      "stateMutability": "nonpayable",
      "type": "function"
    },
    {
      "inputs": [
        {
          "internalType": "bytes32",
          "name": "role",
          "type": "bytes32"
        },
        {
          "internalType": "address",
          "name": "account",
          "type": "address"
        }
      ],
      "name": "hasRole",
      "outputs": [
        {
          "internalType": "bool",
          "name": "",
          "type": "bool"
        }
      ],
      "stateMutability": "view",
      "type": "function"
    },
    {
      "inputs": [],
      "name": "initialize",
      "outputs": [],
      "stateMutability": "nonpayable",
      "type": "function"
    },
    {
      "inputs": [],
      "name": "initialized",
      "outputs": [
        {
          "internalType": "bool",
          "name": "",
          "type": "bool"
        }
      ],
      "stateMutability": "view",
      "type": "function"
    },
    {
      "inputs": [
        {
          "internalType": "string",
          "name": "",
          "type": "string"
        }
      ],
      "name": "lastCallData",
      "outputs": [
        {
          "internalType": "bytes",
          "name": "",
          "type": "bytes"
        }
      ],
      "stateMutability": "view",
      "type": "function"
    },
    {
      "inputs": [],
      "name": "lastCaller",
      "outputs": [
        {
          "internalType": "address",
          "name": "",
          "type": "address"
        }
      ],
      "stateMutability": "view",
      "type": "function"
    },
    {
      "inputs": [
        {
          "internalType": "string",
          "name": "",
          "type": "string"
        }
      ],
      "name": "lastCallerByFunction",
      "outputs": [
        {
          "internalType": "address",
          "name": "",
          "type": "address"
        }
      ],
      "stateMutability": "view",
      "type": "function"
    },
    {
      "inputs": [
        {
          "internalType": "address[]",
          "name": "tokens",
          "type": "address[]"
        },
        {
          "internalType": "uint256[]",
          "name": "prices",
          "type": "uint256[]"
        },
        {
          "internalType": "uint256[]",
          "name": "timestamps",
          "type": "uint256[]"
        }
      ],
      "name": "mockSetPricesWithTimestamps",
      "outputs": [],
      "stateMutability": "nonpayable",
      "type": "function"
    },
    {
      "inputs": [
        {
          "internalType": "address",
          "name": "updater",
          "type": "address"
        }
      ],
      "name": "removePriceUpdater",
      "outputs": [],
      "stateMutability": "nonpayable",
      "type": "function"
    },
    {
      "inputs": [
        {
          "internalType": "bytes32",
          "name": "role",
          "type": "bytes32"
        },
        {
          "internalType": "address",
          "name": "callerConfirmation",
          "type": "address"
        }
      ],
      "name": "renounceRole",
      "outputs": [],
      "stateMutability": "nonpayable",
      "type": "function"
    },
    {
      "inputs": [],
      "name": "reset",
      "outputs": [],
      "stateMutability": "nonpayable",
      "type": "function"
    },
    {
      "inputs": [
        {
          "internalType": "bytes32",
          "name": "role",
          "type": "bytes32"
        },
        {
          "internalType": "address",
          "name": "account",
          "type": "address"
        }
      ],
      "name": "revokeRole",
      "outputs": [],
      "stateMutability": "nonpayable",
      "type": "function"
    },
    {
      "inputs": [
        {
          "internalType": "bytes4",
          "name": "interfaceId",
          "type": "bytes4"
        }
      ],
      "name": "supportsInterface",
      "outputs": [
        {
          "internalType": "bool",
          "name": "",
          "type": "bool"
        }
      ],
      "stateMutability": "view",
      "type": "function"
    },
    {
      "inputs": [
        {
          "internalType": "address",
          "name": "token",
          "type": "address"
        },
        {
          "internalType": "uint256",
          "name": "price",
          "type": "uint256"
        }
      ],
      "name": "updatePrice",
      "outputs": [],
      "stateMutability": "nonpayable",
      "type": "function"
    },
    {
      "inputs": [
        {
          "internalType": "address[]",
          "name": "tokens",
          "type": "address[]"
        },
        {
          "internalType": "uint256[]",
          "name": "prices",
          "type": "uint256[]"
        }
      ],
      "name": "updatePrices",
      "outputs": [],
      "stateMutability": "nonpayable",
      "type": "function"
    },
    {
      "inputs": [
        {
          "internalType": "string",
          "name": "functionName",
          "type": "string"
        }
      ],
      "name": "wasFunctionCalled",
      "outputs": [
        {
          "internalType": "bool",
          "name": "",
          "type": "bool"
        }
      ],
      "stateMutability": "view",
      "type": "function"
    }
  ],
  "bytecode": "0x60806040523480156200001157600080fd5b506200001f60003362000080565b506200004c7fc307c44629779eb8fc0b85f224c3d22f5876a6c84de0ee42d481eb7814f0d3a83362000080565b50620000797fd96ba01d6560c2ab35f2940dd8d70c5f5fe06236c72674237120515918198fb03362000080565b506200012f565b6000828152602081815260408083206001600160a01b038516845290915281205460ff1662000125576000838152602081815260408083206001600160a01b03861684529091529020805460ff19166001179055620000dc3390565b6001600160a01b0316826001600160a01b0316847f2f8788117e7eff1d82e926ec794901d17c78024a50270940304540a733656f0d60405160405180910390a450600162000129565b5060005b92915050565b611780806200013f6000396000f3fe608060405234801561001057600080fd5b50600436106101a95760003560e01c80634b28f9a2116100f9578063a217fddf11610097578063d826f88f11610071578063d826f88f14610417578063dfdbdd501461041f578063e88456e71461043f578063fb8d81011461045257600080fd5b8063a217fddf146103e9578063c054c6ce146103f1578063d547741f1461040457600080fd5b80638003a94f116100d35780638003a94f146103945780638129fc1c146103bb57806391d14854146103c357806396f77060146103d657600080fd5b80634b28f9a21461034f578063502f23fd146103585780636e8c271b1461036b57600080fd5b80632df31108116101665780633ca3910c116101405780633ca3910c146102c657806341976e09146102e8578063422b010b14610311578063457972de1461033c57600080fd5b80632df311081461028b5780632f2ff15d146102a057806336568abe146102b357600080fd5b806301ffc9a7146101ae578063158ef93e146101d65780631a82a643146101e35780631df86bc6146102045780632113522a14610250578063248a9ca314610268575b600080fd5b6101c16101bc366004611115565b610467565b60405190151581526020015b60405180910390f35b6001546101c19060ff1681565b6101f66101f136600461115c565b61049e565b6040519081526020016101cd565b61023861021236600461115c565b80516020818301810180516005825292820191909301209152546001600160a01b031681565b6040516001600160a01b0390911681526020016101cd565b6001546102389061010090046001600160a01b031681565b6101f661027636600461120d565b60009081526020819052604090206001015490565b61029e610299366004611242565b6104c6565b005b61029e6102ae36600461125d565b6105a2565b61029e6102c136600461125d565b6105cd565b6102d96102d436600461115c565b610605565b6040516101cd939291906112d9565b6101f66102f6366004611242565b6001600160a01b031660009081526006602052604090205490565b6101f661031f36600461115c565b805160208183018101805160038252928201919093012091525481565b61029e61034a36600461130c565b610708565b6101f660025481565b61029e610366366004611382565b6107d2565b6101f6610379366004611242565b6001600160a01b031660009081526007602052604090205490565b6101f67fc307c44629779eb8fc0b85f224c3d22f5876a6c84de0ee42d481eb7814f0d3a881565b61029e610a04565b6101c16103d136600461125d565b610a90565b61029e6103e436600461141c565b610ab9565b6101f6600081565b6101c16103ff36600461115c565b610cab565b61029e61041236600461125d565b610cd5565b61029e610cfa565b61043261042d36600461115c565b610d46565b6040516101cd9190611488565b61029e61044d366004611242565b610deb565b6101f660008051602061172b83398151915281565b60006001600160e01b03198216637965db0b60e01b148061049857506301ffc9a760e01b6001600160e01b03198316145b92915050565b60006003826040516104b0919061149b565b9081526020016040518091039020549050919050565b7fc307c44629779eb8fc0b85f224c3d22f5876a6c84de0ee42d481eb7814f0d3a86104f081610eb0565b610552604051806040016040528060128152602001713932b6b7bb32a83934b1b2aab83230ba32b960711b8152508360405160200161053e91906001600160a01b0391909116815260200190565b604051602081830303815290604052610ebd565b61056a60008051602061172b83398151915283610cd5565b6040516001600160a01b038316907fff7dbb85c77ca68ca1f894d6498570e3d5095cd19466f07ee8d222b337e4068c90600090a25050565b6000828152602081905260409020600101546105bd81610eb0565b6105c78383610fdb565b50505050565b6001600160a01b03811633146105f65760405163334bd91960e11b815260040160405180910390fd5b610600828261106d565b505050565b600080606060038460405161061a919061149b565b908152602001604051809103902054600585604051610639919061149b565b908152604051908190036020018120546001600160a01b03169060049061066190889061149b565b908152602001604051809103902080805461067b906114b7565b80601f01602080910402602001604051908101604052809291908181526020018280546106a7906114b7565b80156106f45780601f106106c9576101008083540402835291602001916106f4565b820191906000526020600020905b8154815290600101906020018083116106d757829003601f168201915b505050505090509250925092509193909250565b60008051602061172b83398151915261072081610eb0565b61076e6040518060400160405280600b81526020016a757064617465507269636560a81b815250848460405160200161053e9291906001600160a01b03929092168252602082015260400190565b6001600160a01b0383166000818152600660209081526040808320869055600782529182902042908190558251868152918201527fb556fac599c3c70efb9ab1fa725ecace6c81cc48d1455f886607def065f3e0c0910160405180910390a2505050565b60006107dd81610eb0565b6108316040518060400160405280601b81526020017f6d6f636b5365745072696365735769746854696d657374616d7073000000000081525088888888888860405160200161053e9695949392919061156a565b858414801561083f57508382145b6108895760405162461bcd60e51b8152602060048201526016602482015275082e4e4c2f2e640d8cadccee8d040dad2e6dac2e8c6d60531b60448201526064015b60405180910390fd5b60005b868110156109fa578585828181106108a6576108a66115b3565b90506020020135600660008a8a858181106108c3576108c36115b3565b90506020020160208101906108d89190611242565b6001600160a01b03168152602081019190915260400160002055838382818110610904576109046115b3565b90506020020135600760008a8a85818110610921576109216115b3565b90506020020160208101906109369190611242565b6001600160a01b03168152602081019190915260400160002055878782818110610962576109626115b3565b90506020020160208101906109779190611242565b6001600160a01b03167fb556fac599c3c70efb9ab1fa725ecace6c81cc48d1455f886607def065f3e0c08787848181106109b3576109b36115b3565b905060200201358686858181106109cc576109cc6115b3565b905060200201356040516109ea929190918252602082015260400190565b60405180910390a260010161088c565b5050505050505050565b60015460ff1615610a575760405162461bcd60e51b815260206004820152601d60248201527f426173654d6f636b3a20616c726561647920696e697469616c697a65640000006044820152606401610880565b6001805460ff19168117905560405133907f30f7074e868351008998491171b433e7342f255e986fef03e5eec84f01786f0190600090a2565b6000918252602082815260408084206001600160a01b0393909316845291905290205460ff1690565b60008051602061172b833981519152610ad181610eb0565b610b106040518060400160405280600c81526020016b75706461746550726963657360a01b8152508686868660405160200161053e94939291906115c9565b838214610b585760405162461bcd60e51b8152602060048201526016602482015275082e4e4c2f2e640d8cadccee8d040dad2e6dac2e8c6d60531b6044820152606401610880565b60005b84811015610ca357838382818110610b7557610b756115b3565b9050602002013560066000888885818110610b9257610b926115b3565b9050602002016020810190610ba79190611242565b6001600160a01b03166001600160a01b03168152602001908152602001600020819055504260076000888885818110610be257610be26115b3565b9050602002016020810190610bf79190611242565b6001600160a01b03168152602081019190915260400160002055858582818110610c2357610c236115b3565b9050602002016020810190610c389190611242565b6001600160a01b03167fb556fac599c3c70efb9ab1fa725ecace6c81cc48d1455f886607def065f3e0c0858584818110610c7457610c746115b3565b9050602002013542604051610c93929190918252602082015260400190565b60405180910390a2600101610b5b565b505050505050565b600080600383604051610cbe919061149b565b908152602001604051809103902054119050919050565b600082815260208190526040902060010154610cf081610eb0565b6105c7838361106d565b6000610d0581610eb0565b600180546001600160a81b0319169055600060028190556040517f47f78a7a0acc7fff3657157dc253c5e6a68550995cc6f47bc2bd707ec67370fb9190a150565b805160208183018101805160048252928201919093012091528054610d6a906114b7565b80601f0160208091040260200160405190810160405280929190818152602001828054610d96906114b7565b8015610de35780601f10610db857610100808354040283529160200191610de3565b820191906000526020600020905b815481529060010190602001808311610dc657829003601f168201915b505050505081565b7fc307c44629779eb8fc0b85f224c3d22f5876a6c84de0ee42d481eb7814f0d3a8610e1581610eb0565b610e606040518060400160405280600f81526020016e30b232283934b1b2aab83230ba32b960891b8152508360405160200161053e91906001600160a01b0391909116815260200190565b610e7860008051602061172b833981519152836105a2565b6040516001600160a01b038316907f5104d28bdf2a63480d70f73ae04afa86476ff93d6306f6d13c6f85eb593c472690600090a25050565b610eba81336110d8565b50565b600382604051610ecd919061149b565b9081526040519081900360200190208054906000610eea836115fb565b919050555080600483604051610f00919061149b565b90815260200160405180910390209081610f1a919061166a565b5033600583604051610f2c919061149b565b90815260405160209181900391909101902080546001600160a01b0319166001600160a01b039290921691909117905560018054610100600160a81b031916610100330217905560028054906000610f83836115fb565b90915550506040513390610f9890849061149b565b60405180910390207f16b892c3de2f4b54dc114eff5c76ead156bac210353ee82615752957e1317df183604051610fcf9190611488565b60405180910390a35050565b6000610fe78383610a90565b611065576000838152602081815260408083206001600160a01b03861684529091529020805460ff1916600117905561101d3390565b6001600160a01b0316826001600160a01b0316847f2f8788117e7eff1d82e926ec794901d17c78024a50270940304540a733656f0d60405160405180910390a4506001610498565b506000610498565b60006110798383610a90565b15611065576000838152602081815260408083206001600160a01b0386168085529252808320805460ff1916905551339286917ff6391f5c32d9c69d2a47ea670b442974b53935d1edc7fd64eb21e047a839171b9190a4506001610498565b6110e28282610a90565b6111115760405163e2517d3f60e01b81526001600160a01b038216600482015260248101839052604401610880565b5050565b60006020828403121561112757600080fd5b81356001600160e01b03198116811461113f57600080fd5b9392505050565b634e487b7160e01b600052604160045260246000fd5b60006020828403121561116e57600080fd5b813567ffffffffffffffff8082111561118657600080fd5b818401915084601f83011261119a57600080fd5b8135818111156111ac576111ac611146565b604051601f8201601f19908116603f011681019083821181831017156111d4576111d4611146565b816040528281528760208487010111156111ed57600080fd5b826020860160208301376000928101602001929092525095945050505050565b60006020828403121561121f57600080fd5b5035919050565b80356001600160a01b038116811461123d57600080fd5b919050565b60006020828403121561125457600080fd5b61113f82611226565b6000806040838503121561127057600080fd5b8235915061128060208401611226565b90509250929050565b60005b838110156112a457818101518382015260200161128c565b50506000910152565b600081518084526112c5816020860160208601611289565b601f01601f19169290920160200192915050565b8381526001600160a01b0383166020820152606060408201819052600090611303908301846112ad565b95945050505050565b6000806040838503121561131f57600080fd5b61132883611226565b946020939093013593505050565b60008083601f84011261134857600080fd5b50813567ffffffffffffffff81111561136057600080fd5b6020830191508360208260051b850101111561137b57600080fd5b9250929050565b6000806000806000806060878903121561139b57600080fd5b863567ffffffffffffffff808211156113b357600080fd5b6113bf8a838b01611336565b909850965060208901359150808211156113d857600080fd5b6113e48a838b01611336565b909650945060408901359150808211156113fd57600080fd5b5061140a89828a01611336565b979a9699509497509295939492505050565b6000806000806040858703121561143257600080fd5b843567ffffffffffffffff8082111561144a57600080fd5b61145688838901611336565b9096509450602087013591508082111561146f57600080fd5b5061147c87828801611336565b95989497509550505050565b60208152600061113f60208301846112ad565b600082516114ad818460208701611289565b9190910192915050565b600181811c908216806114cb57607f821691505b6020821081036114eb57634e487b7160e01b600052602260045260246000fd5b50919050565b8183526000602080850194508260005b8581101561152d576001600160a01b0361151a83611226565b1687529582019590820190600101611501565b509495945050505050565b81835260006001600160fb1b0383111561155157600080fd5b8260051b80836020870137939093016020019392505050565b60608152600061157e60608301888a6114f1565b8281036020840152611591818789611538565b905082810360408401526115a6818587611538565b9998505050505050505050565b634e487b7160e01b600052603260045260246000fd5b6040815260006115dd6040830186886114f1565b82810360208401526115f0818587611538565b979650505050505050565b60006001820161161b57634e487b7160e01b600052601160045260246000fd5b5060010190565b601f821115610600576000816000526020600020601f850160051c8101602086101561164b5750805b601f850160051c820191505b81811015610ca357828155600101611657565b815167ffffffffffffffff81111561168457611684611146565b6116988161169284546114b7565b84611622565b602080601f8311600181146116cd57600084156116b55750858301515b600019600386901b1c1916600185901b178555610ca3565b600085815260208120601f198616915b828110156116fc578886015182559484019460019091019084016116dd565b508582101561171a5787850151600019600388901b60f8161c191681555b5050505050600190811b0190555056fed96ba01d6560c2ab35f2940dd8d70c5f5fe06236c72674237120515918198fb0a26469706673582212206af9a9c4d23f4c291b6f4487ec752a3d6af9647e99b576576eb97c524e38aa0564736f6c63430008180033",
  "linkReferences": {},
  "deployedLinkReferences": {}
}